:020000040800F2
:10000000B8150120C1010008A9820008056C00088C
:10001000BD8100089120000885D000080000000084
:1000200000000000000000000000000071CA00088D
:10003000A52A000800000000590A0008699A000873
:10004000FB010008FB010008FB010008FB010008A0
:10005000FB010008FB010008FB010008FB01000890
:10006000FB010008FB010008FB010008FB01000880
:10007000FB010008FB010008FB010008FB01000870
:10008000FB010008FB010008FB010008FB01000860
:10009000FB010008FB010008FB010008FB01000850
:1000A000FB010008FB010008FB010008FB01000840
:1000B000FB010008FB010008FB010008FB01000830
:1000C000FB010008FB010008FB010008FB01000820
:1000D000FB010008FB010008FB010008B1CE00088D
:1000E000FB010008FB010008FB010008FB01000800
:1000F000FB010008FB010008FB010008FB010008F0
:10010000FB01000841B80008FB010008FB010008E2
:10011000FB010008FB010008FB010008FB010008CF
:10012000FB010008FB010008FB010008052800088E
:10013000FB010008FB010008FB010008FB010008AF
:10014000FB010008FB010008FB010008FB0100089F
:10015000FB010008FB010008FB010008FB0100088F
:10016000FB010008FB010008FB010008FB0100087F
:10017000FB010008FB010008FB010008FB0100086F
:10018000FB010008FB010008FB010008FB0100085F
:10019000FB010008FB010008FB010008FB0100084F
:1001A000797F0008FB010008F9270008DFF80CD070
:1001B00000F066FB00480047D18A0108B81501200D
:1001C000DFF83800016841F470010160BFF34F8F20
:1001D000DFF82C00016821F040410160BFF36F8F10
:1001E0000848804708480047FEE7FEE7FEE7FEE7CD
:1001F000FEE7FEE7FEE7FEE7FEE7FEE788ED00E04C
:1002000034EF00E059CB0008AD01000872B670472A
:1002100062B67047EFF3108072B6704780F31088B3
:10022000704730BF704720BF7047B0FA80F070470A
:1002300090FAA0F0B0FA80F0704790FAA0F0704702
:100240002DE9F05F0546002092469B46884606460B
:10025000814640241BE0284641464746224600F09E
:1002600061FA53465A46C01A914110D311461846B6
:10027000224600F048FA2D1A67EB01084F46224645
:100280000120002100F03FFA17EB00094E41201E2B
:10029000A4F10104DFDC484631462A464346BDE866
:1002A000F09F10B5441A0346944209D284181144B1
:1002B00003E011F8013D04F8013D521EF9D210BDD2
:1002C00040EA0104A40703D009E010C9121F10C3BB
:1002D000042AFAD203E011F8014B03F8014B521E35
:1002E000F9D210BDD2B201E000F8012B491EFBD2B9
:1002F00070470022F6E710B513460A460446194631
:10030000FFF7F0FF204610BD10B5002200E0521CA0
:10031000835C8C5CA34201D1002BF8D1D8B2E1B24E
:10032000401A10BD2DE9FE4F804681EA0300C00F40
:100330000C46009021F0004123F00045B8EB02008C
:10034000A94105D24046214690461C460B4602462E
:1003500023F00040104347D0270DC7F30A00C3F332
:100360000A510290401A019040286BDAC3F313003F
:1003700040F4801B0098924620B10023D2EB030A80
:1003800063EB0B0B01985946C0F14002504600F058
:10039000BAF906460D4650465946019A00F0D2F980
:1003A00010EB08006141002487EA115284EAE773E8
:1003B0001A4340D0009A62B3019A012A4FEA0752C9
:1003C00015DC001B61EB02014FF0004202EA07520C
:1003D000CDE90042001C41F5801132462B4600F069
:1003E000D2F903B0BDE8F08F40462146F9E7001B83
:1003F00061EB0201001C41F5801300185B412018DD
:10040000A2F5001747EB030140EAD570B6196D411C
:1004100011E06D084FEA360645EAC0754FEA07520B
:10042000001B61EB0201001C41F5801149084FEAF5
:1004300030000019514132462B4603B0BDE8F04F61
:1004400000F092B90098012240000023D0EB020294
:1004500063EBE073009821464FEAE074B8EB0000CC
:1004600061EB0401E9E783F000435BE781F00041C1
:1004700058E72DE9FE4F81EA030404F0004421F01F
:10048000004100944FF0000B23F0004350EA0104B8
:100490005ED052EA03045BD0C3F30A54C1F30A5599
:1004A0002C44A4F2F3340194A0FB0254C1F31301D1
:1004B00041F48011C3F3130343F4801301FB02449E
:1004C00000FB034E840A970A44EA815447EA8357A3
:1004D000A4FB076802958D0A05FB07854FEA932C5C
:1004E00004FB0C542705029D4FEA065847EA1637CD
:1004F000B5EB08056EEB070C870E920E47EA8117E5
:1005000042EA8312A7FB0201B6EB0B0164EB000485
:100510002B0D43EA0C335E1844EB1C50DA4651466F
:10052000E7FB0201C5F313044FEA0B3343EA14530C
:100530004FEA0432019C43EA0603A4F10C0402943E
:10054000009CCDE900B400F01EF903B0BDE8F08FC7
:1005500000200146F9E72DE9F04D81EA030404F09B
:10056000004B21F0004514464FF0000A23F00041F3
:1005700050EA050220D054EA01021DD0C5F30A5703
:100580000246C5F31303C1F31300C1F30A5640F446
:10059000801543F48013A7EB0608101BD64608F21B
:1005A000FD3873EB050002D308F1010801E0921851
:1005B0005B41B8F1000F03DA00200146BDE8F08D81
:1005C00000204FF48011064684460EE0171B73EBA3
:1005D000050705D3121B63EB050306434CEA010C28
:1005E00049084FEA300092185B4150EA0107EDD10B
:1005F00052EA030012D082EA040083EA05010843AC
:1006000005D0101BAB4106D20122002306E00022D8
:100610004FF0004302E06FF0010253101AEB0600A6
:100620004CEB085110EB0A0041EB0B01BDE8F04D1B
:1006300000F09AB80EB5C10F80EAE0700844CA070E
:10064000002140F233438DE80E000A460B4600F0CD
:100650009AF803B000BD0EB540F23341029100217B
:10066000CDE900110A460B4600F08DF803B000BD3D
:1006700070B5C1F30A5201F000450024C1F3130123
:1006800040F2FF3341F480119A4201DA002070BD3C
:1006900040F233439A42A2F2334203DC524200F06A
:1006A00041F800E090402C43F1D0404270BDC1F3CE
:1006B0000A5210B5C1F3130140F2FF3341F4801127
:1006C0009A4201DA002010BD40F233439A42A2F26E
:1006D000334203DC524200F025F810BD904010BDBB
:1006E00000F0004230F000400AD0C10D01F5607109
:1006F000C0F3160042EA0151C20840071143704797
:10070000002001467047202A04DB203A00FA02F15B
:10071000002070479140C2F1200320FA03F31943EF
:1007200090407047202A04DB203A21FA02F0002191
:10073000704721FA02F3D040C2F1200291400843F1
:1007400019467047202A06DBCB17203A41FA02F0FF
:1007500043EAE07306E041FA02F3D040C2F120021E
:10076000914008431946704710B5141E73F10004F8
:1007700008DA401C41F1000192185B411A4301D193
:1007800020F0010010BD2DE9F04D92469B4611B1BD
:10079000B1FA81F202E0B0FA80F220329046FFF71F
:1007A000B2FF04460F4640EA0A0041EA0B015346F5
:1007B0005A46084313D0114653EA010019D0C8F134
:1007C00040025046FFF7AEFF05460E4650465946DA
:1007D0004246FFF798FF084305D0012004E0204679
:1007E0003946BDE8F08D0020054346EAE0762C430B
:1007F00037430A986305E40AA0EB08000022FD0ACB
:1008000044EA47540A3002D500200146E9E70105D1
:1008100010196941DDE9084500196941BDE8F04D4D
:10082000A2E770B521F0004303430CD0C1F30A5591
:100830000024D5EB040564EB0403D617AD1AB341CD
:1008400002DB0020014670BD201841EB025170BD53
:1008500030B5041E71F1000404DB4FF00044404247
:1008600064EB0101141E73F1000405DB1C464FF01C
:100870000043524263EB0403994208BF904230BDEB
:10088000064C074D06E0E06840F0010394E80700DD
:1008900098471034AC42F6D3FFF78CFC787A040802
:1008A000987A04082DE9F04D00231A461B1A8A4154
:1008B00003DB00200146BDE8F08DC1F30A52C1F30D
:1008C000130141F480154FF0000BD10702D100183D
:1008D0006D41521E0027044640F2FF11384601EBDD
:1008E000620A3E468046024600204FF48011FFF720
:1008F00019FFC2197141BB1846EB0100B4EB030CA0
:1009000075EB000C04D3E41A65EB000517460E46A0
:10091000241908F101006D4180463428E3DDF919FE
:1009200046EB0600091BA84103D24FF0FF321346E5
:1009300001E0002213461BEB070046EB0A51BDE81D
:10094000F04DFFF711BF70B58C1810F8015B15F072
:10095000070301D110F8013B2A1106D110F8012B31
:1009600003E010F8016B01F8016B5B1EF9D12B0756
:1009700005D40023521E0DD401F8013BFAE710F80C
:10098000013BCB1A921C03E013F8015B01F8015BF9
:10099000521EF9D5A142D8D3002070BDEFF30981D2
:1009A00041B1F1EE101A40F8041D20ED200A3E4935
:1009B0000A6810607047B0EC200A02C8E1EE101A15
:1009C0003A490A681060704772B64EF62250CEF26D
:1009D000000040F2FF01C0F2000101704FF0000082
:1009E00080F3098808F0E8FE40F26410C2F20000CB
:1009F000016881F3088840F2DE00C2F2000040F294
:100A0000DF01C2F200010A78027040F25C15C2F206
:100A1000000540F26011C2F200010A682A60106805
:100A200080F30988EFF3148040F0020080F314880B
:100A3000BFF36F8FBDE8F00F0FBCBDE8005006BCE0
:100A400062B608471A484FF0805101607047184855
:100A50004FF080510160704772B6EFF3098020E9D2
:100A6000F00F40F25C15C2F200052E68306074464B
:100A700008F0A2FE40F2DE00C2F2000040F2DF0108
:100A8000C2F200010A78027040F26011C2F2000165
:100A90000A682A6044F0F40E1068B0E8F00F80F3A2
:100AA000098862B6704700005C01002060010020E8
:100AB00004ED00E0002904D0816841F0010181606B
:100AC0007047816821F0010181607047084A116810
:100AD000084B1940D0F804C0036843EA0C03D0F86F
:100AE00008C0C0684CEA0000184308431060704713
:100AF00004230140E030FCFF002904D0816841F468
:100B0000807181607047816821F4807181607047D5
:100B1000002904D0816841F40071816070478168C8
:100B200021F400718160704710B4426822F4807231
:100B300022F0407291F804C00B6842EA0C221A437A
:100B4000426082680D4B1A40D1F80CC00B694C7999
:100B500043EA0C03D1F808C04CEA440C43EA0C0306
:100B60001A438260C26A22F47002097D491EC9B22A
:100B700042EA0151C16210BC70470000FDF7FFC09E
:100B800030B4072509290CD9C468A1F10A0C0CEB73
:100B90004C0C05FA0CF5AC4303FA0CF32343C36089
:100BA00009E0046901EB410C05FA0CF5AC4303FACA
:100BB0000CF3234303614FF01F0C072A0CD2436B45
:100BC000521E02EB82020CFA02FC23EA0C03914053
:100BD0001943416330BC70470D2A0CD2036BD21FFE
:100BE00002EB82020CFA02FC23EA0C039140194347
:100BF000016330BC7047C36A0D3A02EB82020CFA03
:100C000002FC23EA0C0391401943C16230BC7047D7
:100C1000816841F08041816070470021016001716D
:100C200041718160C1600161012101757047002837
:100C300000DC40427047000082B0064C206880F41F
:100C40000050206001AA00214FF4FA6008F0F2FD84
:100C5000F4E700001408024086B021A0006802906A
:100C6000204E9DF80870002505AC03A904A801F0EA
:100C700056FD00282AD1BDF810004CF6CD4148435E
:100C8000C00C0490BDF80C004843C00C03903946DA
:100C900030460CF0F8F9BDF8101030460CF000FAB0
:100CA0009DF8091030460CF0EEF9BDF80C103046F6
:100CB0000CF0F6F99DF80A1030460CF0E4F9BDF896
:100CC0001020BDF80C1008A001F03AFF00230A2202
:100CD000194618460095019408F0EEFDC5E700009E
:100CE00054480D000010014068756D203D202564BA
:100CF0000A74656D3D2025640A0000002DED048B0B
:100D000084B00024DFF8AC80DFED2B8A9FED2B9AB6
:100D10002B4D002603AFB8F8020000EE100AB8EE23
:100D2000400A20EE280A20EE098A18EE100AFFF782
:100D3000D7FC41EC100B23A053EC102B01F000FF6B
:100D400018EE100AA84225DB002C23D103A929485C
:100D500008F026FD03A9284808F022FD03A927482A
:100D600008F01EFD26A015F037F800230A221946C8
:100D700018460197009608F09FFD03A91D4808F04A
:100D80000DFB03A91C4808F009FB03A91B4808F048
:100D900007FD012418EE100AA84202DA012C00D146
:100DA000002400230222194618460197009608F0F5
:100DB00083FDB0E73C00002000008039333353400E
:100DC000CDCC2C400D0A2054686520637572726585
:100DD0006E74204C696768745F4144435F566F6C62
:100DE0002076616C7565203D2025662056200D0A11
:100DF00000000000D41600201419002094170020D1
:100E00004054657874546F53706565636823CCEC07
:100E1000D4F5C3B4CDBBC8BBBADAC1CB2400000043
:100E20002DED048B84B00024224EDFED238A9FED4C
:100E3000239A234FDFF88C8003AD308800EE100A30
:100E4000B8EE400A20EE280A20EE098A18EE100AB1
:100E5000FFF746FC41EC100B1BA053EC102B01F0EC
:100E60006FFE18EE100AB8421BDC98F8000000284C
:100E700017D103A91D4808F093FC002211461CA0BD
:100E800014F088F91EA014F0A7FF002303221946CE
:100E900018460195009408F00FFD03A9134808F0C7
:100EA0007DFA00231A46052118460195009408F0A2
:100EB00003FDC2E73C00002000008039CDCC544146
:100EC00000002041790000200D0A2054686520634D
:100ED000757272656E742041442076616C75652070
:100EE0003D2025662056200D0A000000D416002063
:100EF000303A6D65696469616E2E6A706700000042
:100F00004054657874546F53706565636823BFEC13
:100F1000C3BBB5E7C1CBA3ACD2AAB8F8CED2B3E479
:100F2000B5E7BFA9A3A1240084B0DFF8A083DFF850
:100F3000A093002603AF0AF0EDFAA8FB00214908B0
:100F4000A1EB81010144CCB2A9FB0021C9086FF0DB
:100F50000A0201FB0200C5B22946DEA001F0F0FD45
:100F600065B900221146DFA014F014F900231922FC
:100F7000194618460197009608F09EFC012D0CD1E9
:100F800000221146DAA014F005F9002319221946AF
:100F900018460197009608F08FFC022D0CD1002214
:100FA0001146D6A014F0F6F8002319221946184667
:100FB0000197009608F080FC032D27D1012004F052
:100FC0002DFD002004F046FD02F0FEFF03AA0021E3
:100FD000322008F02FFC052301220221CAA014F0C0
:100FE00041F824B900221146BEA014F0D3F8012C18
:100FF0000FD000221146C1A014F0CCF80023192212
:10100000194618460197009608F056FC042D06D0A4
:101010002DE000221146B6A014F0BCF8EEE7012046
:1010200004F0FCFC002004F015FD02F0CDFF03AA43
:101030000021322008F0FEFB052301220221B6A088
:1010400014F010F824B900221146A6A014F0A2F85A
:10105000012C0FD000221146A8A014F09BF8002309
:101060001922194618460197009608F025FC052D0F
:1010700006D02DE0002211469DA014F08BF8EEE77B
:10108000012004F0CBFC002004F0E4FC02F09CFF03
:1010900003AA0021322008F0CDFB05230122022102
:1010A000A1A013F0DFFF24B9002211468DA014F097
:1010B00071F8012C0FD00022114690A014F06AF8AC
:1010C00000231922194618460197009608F0F4FBF0
:1010D000062D06D02DE00022114685A014F05AF806
:1010E000EEE7012004F09AFC002004F0B3FC02F0CB
:1010F0006BFF03AA0021322008F09CFB052301228C
:1011000002218DA013F0AEFF24B90022114675A074
:1011100014F040F8012C0FD00022114677A014F0F3
:1011200039F800231922194618460197009608F04D
:10113000C3FB072D06D02DE0002211466CA014F051
:1011400029F8EEE7012004F069FC002004F082FC9D
:1011500002F03AFF03AA0021322008F06BFB0523BE
:101160000122022178A013F07DFF24B9002211464C
:101170005CA014F00FF8012C0FD0002211465FA0E4
:1011800014F008F800231922194618460197009612
:1011900008F092FB082D06D02DE00022114654A045
:1011A00013F0F8FFEEE7012004F038FC002004F013
:1011B00051FC02F009FF03AA0021322008F03AFB9B
:1011C00005230122022164A013F04CFF24B9002260
:1011D000114644A013F0DEFF012C0FD0002211466F
:1011E00046A013F0D7FF002319221946184601978D
:1011F000009608F061FB092D06D02DE00022114673
:101200003BA013F0C7FFEEE7012004F007FC00202D
:1012100004F020FC02F0D8FE03AA0021322008F0DE
:1012200009FB0523012202214FA013F01BFF24B963
:10123000002211462BA013F0ADFF012C24D0002278
:1012400011462EA013F0A6FF0023192219461846B6
:101250000197009608F030FB0A2D7FF46CAE012058
:1012600004F0DCFB002004F0F5FB02F0ADFE03AA65
:101270000021322008F0DEFA0523012202213EA0DF
:1012800013F0F0FE34B10AE00022114618A013F06A
:1012900081FFD9E70022114612A013F07BFF012C39
:1012A0000DD00022114615A013F074FF002319225F
:1012B000194618460197009608F0FEFA3BE6002210
:1012C00011460BA013F066FFF0E70000ABAAAAAA34
:1012D000A38B2EBA52616E6444617461203D202557
:1012E000640A0000303A70632E6A706700000000E4
:1012F000303A7063322E6A7067000000303A7063D3
:10130000332E6A7067000000303A7869616F6A694D
:10131000332E676966000000303A7869616F6A6948
:10132000342E676966000000303A7869616F6A6937
:10133000352E676966000000303A7869616F6A6926
:10134000362E676966000000303A7869616F6A6915
:10135000372E676966000000303A7869616F6A6904
:10136000382E676966000000303A7869616F6A69F3
:10137000392E676966000000303A7869616F6A69E2
:1013800031302E67696600002DE9F04F8BB000F018
:1013900080FE00F05FFD00F0DBFD06F015FF01228E
:1013A00064A1654816F044FD644948700AA807F036
:1013B00067FDFEF72FFF8346614A0AAD4FF0040A2E
:1013C000462360A1A2F12000CDF800A0019507F00E
:1013D000EFF8002405274FF42F784FF046095D48B9
:1013E000069403260594CDF80890CDF80C80019062
:1013F00004972346584A59A1009707960895A0F5E7
:10140000006007F09FFD80200895039005940C2153
:10141000564A07960694092001920291009004977B
:101420000023534A53A1574807F08CFD56480694B1
:10143000019005940620CDF80890CDF80C8000901E
:101440000497079608950023504A51A1544807F085
:1014500079FD4FF496700895039005941E21514A2A
:1014600007960694072001920291009004970023AA
:101470004D4A4EA1514807F065FD51480694019030
:1014800005944FF400784FF033090A20CDF8089006
:10149000CDF80C8000900497079608950023494AE0
:1014A00049A14D4807F04EFD4C4806940190059423
:1014B0000B20CDF80890CDF80C800090049707968B
:1014C00008950023464A47A14A4807F03BFD4A4891
:1014D000069405940796CDF80C8001900023474AA6
:1014E00047A1CDF80890049700960895494807F061
:1014F00029FD494806940594CDF80890CDF80C8054
:1015000001900023454A46A1CDF800A00497079614
:101510000895474807F016FD0AA93E4808F040F92B
:101520000AA9444807F0D0FD5846FEF777FE0BB0F5
:10153000BDE8F08F303A0000AC04002079000020B4
:10154000FC1400204D656D20466F72205465737445
:1015500000000000D41E0020290F000841707020F8
:101560005461736B2053686F77425100C439002077
:10157000390C0008417070205461736B204C656415
:101580003100000054180020C43B0020B9170008A7
:10159000417070205461736B2074616C6B000000AB
:1015A00014190020B4460020590C00084170702026
:1015B0005461736B204C656433000000D419002023
:1015C000C4290020210E0008417070205461736B03
:1015D00020506F776572000094170020C4310020FE
:1015E000FD0C0008417070205461736B204C6967DA
:1015F00068740000141C0020644B0020DD160008F5
:10160000417070205461736B20546F75636853632D
:10161000616E0000941A00206453002039160008FF
:10162000417070205461736B20546F7563680000C3
:10163000541B00201416002084B000240125144EF1
:1016400000270DF10C08716800208847012804D19B
:1016500010A001F075FA601CC4B2052C05D3012D51
:1016600003D10EA014F0B8FB0025082C05D325B932
:1016700012A014F0B1FB0024012500224FF4E17305
:1016800011461046CDF80480009708F015F9DAE706
:1016900044000020746F7563680A00004054657848
:1016A00074546F53706565636823BAC3D1F7B0A1F2
:1016B0002CB1F0C3FECED2C1CB24000040546578DB
:1016C00074546F53706565636823D4D9C0B4A3ACF8
:1016D000CED2D2AAD2A7C4E3C1CB240088B0DFF80F
:1016E000CC904FF0010A02AF4FF6FF784FF0000B9D
:1016F000D9F8041000208847002499F820000AFA3D
:1017000004F1084241D009EB4405A889B0F5F07F07
:101710003DD2E98AB1F5887F39D237F82420424595
:1017200004D127F8240007EB84004180012004F055
:1017300075F94FF47F0004F098F907EB8406EB8A03
:10174000AA89718837F8240002F02EFEA88927F8AC
:101750002400E98A7180B0F5E47F18D9282916D2CF
:10176000012004F05BF9002004F074F902F02CFC75
:101770000F4804F091F9FF2004F077F90A224FF4A2
:10178000E4710CA002F0F6FD01E027F8248007A820
:101790000022019005231146CDF800B0104608F054
:1017A0008BF8601CC4B2052CA7D3A1E7440000202D
:1017B000846A04085253540086B000250024DFF8E0
:1017C0000CA4DFF80C9405AEA046002302AA19462B
:1017D0001846009607F016FD0746FEA0398801F06E
:1017E000AFF9012089F8000038880F2800F0BF8089
:1017F00011DC062837D007DC012816D0022822D0B9
:10180000042840F0088323E009286BD00C2840F01E
:10181000028300F0BEB81438072880F0FC82DFE8AD
:1018200000F0E1FDFCFBFAF9F800EFA001F088F907
:1018300005AA00214FF4FA6007F0FCFFECA014F0B9
:10184000CBFA00F0E8BAE8A001F07AF900F0E3BAC8
:10185000EFA001F075F905AA00214FF47A7007F0A6
:10186000E9FF00F0D8BAECA001F06AF903A904A8D6
:1018700000F055FF40B1EAA014F0AEFA05A9F24815
:1018800007F08CFD00F0C7BABDF810004CF6CD4152
:101890004843C00C0490BDF80C004843C00C0390B2
:1018A00005A9E94807F07CFF00221146E7A013F0E4
:1018B00071FCBDF810101C2908D3E7A014F08CFAB5
:1018C00000221146ECA013F065FC04E0BDF80C20EA
:1018D000ECA014F081FA05AA002144F6206007F07C
:1018E000A9FFCBE7F5A001F02BF905A9D64807F031
:1018F00057FF012004F092F8002004F0ABF802F04A
:1019000063FB0022322311461046CDF80080019679
:1019100007F0D2FFEB4814F05FFA03230222012103
:10192000E9A013F09FFB032302220121E9A013F099
:1019300099FB032302220121E9A013F093FB032367
:1019400002220121E9A013F08DFB032302220121D1
:10195000E9A013F087FB032302220121E9A013F081
:1019600081FB05A9B84807F019FD00F054BAE8A0BA
:1019700001F0E6F805A9B44807F012FF002211466D
:10198000E5A013F007FC05A9AF4807F007FD00F03C
:1019900042BAE4A001F0D4F805A9AB4807F000FF73
:1019A00000221146E1A013F0F5FB14B9E34814F04E
:1019B00013FA012C02D1E24814F00EFA0023192286
:1019C00019461846CDF80080019607F075FF601C97
:1019D000C4B2022C00D3002405A99B4807F0DEFC0A
:1019E00000F019BAD7A001F0ABF805A9964807F0A6
:1019F000D7FE012004F012F8002004F02BF802F0CA
:101A0000E3FA00221146C4A013F0C4FB05A98E48D6
:101A100005E0C0E0A1E07AE048E004E09CE007F0E7
:101A2000BDFC00F0F8B9C9A001F08AF8012505A9AC
:101A3000854807F0B5FE0022642311461046CDF814
:101A40000080019607F038FF05A9C24807F0A8FEFC
:101A50000022642311461046CDF80080019607F05D
:101A60002BFF05A9BC4807F099FC012003F0D6FF25
:101A7000002003F0EFFF02F0A7FAB84804F00CF8DA
:101A8000FF2003F0F2FF0A224FF4E471B4A002F049
:101A900071FC0022642311461046CDF800800196A7
:101AA00007F00AFFAFA014F097F9B4E1B8A001F075
:101AB00047F8012D50D105A9634807F06FFC0022BB
:101AC000642311461046CDF80080019607F0F4FE1D
:101AD00005A9A14807F064FE0022642311461046C0
:101AE000CDF80080019607F0E7FE05A9994807F0B8
:101AF00055FC0022642311461046CDF80080019663
:101B000007F0DAFEA5A014F067F9002583E1AAA08A
:101B100001F016F8012D1FD1012003F07FFF0020F6
:101B200003F098FF02F050FA8C4803F0B5FFFF2055
:101B300003F09BFF0A224FF4E47189A002F01AFC23
:101B40000022322311461046CDF80080019607F09E
:101B5000B3FE9BA014F040F95DE1A3A000F0F0FFFC
:101B60004FF0010B442150460BF08DFA5946504678
:101B70000BF096FA0D2150460BF085FA0022322325
:101B800011461046CDF80080019607F095FE98A00A
:101B900014F022F93FE19CA000F0D2FF4FF0020BBD
:101BA000442150460BF06FFA594650460BF078FA34
:101BB0000D2150460BF067FA0022322311461046E1
:101BC000CDF80080019607F077FE21E1001001407A
:101BD000790000205265636569766544617461200F
:101BE0003D2025640A000000C4E3BAC30A000000D7
:101BF0004054657874546F53706565636823D3D01F
:101C0000CAB2C3B4CED2C4DCB0EFC4E3B5C42400BE
:101C1000D0D4B1F00A000000CEC2B6C80A0000005D
:101C20004054657874546F53706565636823B0A140
:101C3000D1BDCED2B5C4CEC2B6C8B4ABB8D0C6F74B
:101C4000BBB5C1CB24000000D4160020303A78691F
:101C5000616F2E6A706700004054657874546F534A
:101C6000706565636823D5E2D5E6B5C4CCABC8C85A
:101C7000C1CBA3A124000000303A6B752E6A7067B7
:101C8000000000004054657874546F5370656563BC
:101C90006823CFD6D4DAB5C4CEC2B6C8CAC75B6E85
:101CA000325D2564A3ACCAAAB6C8CAC7B0D9B7D634
:101CB000D6AE5B6E325D256424000000CCFDB8E832
:101CC0000A000000187A0408303A67312E67696606
:101CD00000000000303A67322E676966000000009D
:101CE000303A67332E67696600000000303A673487
:101CF0002E67696600000000303A67352E67696616
:101D000000000000303A67362E6769660000000068
:101D1000C9FAC6F80A000000303A666168756F2E8D
:101D20006A706700D0A6BBB00A000000303A686154
:101D30006E7869616F2E6A7067000000747904081C
:101D4000EC780408B1BFB5B00A000000BBADBBAD74
:101D50000A000000541B0020941A0020846A040822
:101D6000525354004054657874546F5370656563E2
:101D70006823BFAACABCBBADB0C9A3ACC7EBCBB587
:101D8000CDCBB3F6BBADBBADCDCBB3F624000000DD
:101D9000CDCBB3F6BBADBBAD0A00000040546578B7
:101DA00074546F53706565636823C4E3BBADB5C4F9
:101DB000D5E6C4D1BFB42400C7E5C6C10A000000FF
:101DC0004054657874546F53706565636823BAC373
:101DD000C1CBC4E3BFC9D2D4D6D8D0C2BFAACABC73
:101DE000BBADC1CB24000000BFAAB5C60A000000ED
:101DF0004054657874546F53706565636823D2D11D
:101E0000BFAAB5C624000000B9D8B5C60A000000B4
:101E100005A013F0E1FF89F8008005AA39460848BB
:101E200006F045FCD1E400004054657874546F53CB
:101E3000706565636823D2D1B9D8B5C624000000A7
:101E4000DC14002000B585B0684609F091FA0198CD
:101E500005B000BD10B50121080309F035FA4FF4B3
:101E6000A06006F06BFA00F01FFE00F07FF800F0B3
:101E7000D1F809F00FFB1D4800F062FE1C4800F08D
:101E80005FFE1C4800F05CFE194800F059FE174840
:101E900000F056FE06F02CF809F0F2FE16A000F055
:101EA0004FFE05F030FB0AF089FE02F025FE15A07A
:101EB00000F046FE09F0D6FB17A000F041FE00F04E
:101EC0007DFC78B119A000F03BFE09F009FB012070
:101ED00003F0A4FD6FF07F4003F0BCFDBDE81040AF
:101EE00002F072B817A000F02BFEEEE7A878040805
:101EF0002078040864780408534452414D204F4B25
:101F0000210A00004755495F496E69742053756383
:101F1000657373210A00000041445F496E697420B3
:101F2000537563657373210A00000000486176658C
:101F3000206E6F742066696E642044485432320A01
:101F4000000000004448543232204F4B210A000068
:101F500010B5FFF777FF04490968B0FBF1F0BDE861
:101F6000104007F093BD00004891010870B586B09D
:101F70000121022009F0A8F90121880409F0CEF915
:101F8000224E07220B21304601F015FB07220A21C1
:101F9000304601F010FB00248DF8164001218DF829
:101FA000171002258DF81450890204918DF81550F0
:101FB00004A9304601F0B4FA8DF81450A802049038
:101FC00004A9304601F0ACFA4FF4E1300090ADF8CE
:101FD0000440ADF80640ADF80840ADF80C400C20C8
:101FE000ADF80A000A4C694620460AF0DBFF06F00D
:101FF0005CF9012240F2255120460AF0B6FF01218A
:1020000020460AF07BFF06B070BD000000040240CD
:102010000048004030B587B00121402009F054F954
:102020000121202009F088F9174D08220E212846A9
:1020300001F0C1FA00248DF8164001218DF8171027
:1020400002218DF814104A0304928DF8151004A98A
:10205000284601F065FA4FF4E1300090ADF80440F5
:10206000ADF80640ADF80840ADF80C400820ADF8DA
:102070000A00064C694620460AF094FF01212046DA
:102080000AF03CFF07B030BD0018024000140140C8
:10209000FEE710B500F018F8BDE8104000F010B8E9
:1020A00010B5FEF7B7F804461021044806F087F88B
:1020B0002046BDE81040FEF7B1B80000ACBB0020E0
:1020C000FFF7EEBFFEE7000002490020086000F0C5
:1020D00009B8000094000020014908607047000022
:1020E0009400002010B5FFF7ADFE08490A6842F0E1
:1020F00080720A60064900224A600A6842F00102C2
:102100000A60BDE81040FFF7E7BF0000FCED00E00B
:10211000001000E00148406870470000001000E037
:10212000022015F051B8000070B50B4D00242C6052
:102130000A48016821F0C0010160016841F04001D6
:10214000016007480460FFF7EBFF01202860FFF7FC
:10215000E7FF2C6070BD00009882434200200240DF
:102160008C02444210B582B00121802009F0ACF805
:102170000121080209F0A8F84020009001248DF800
:10218000044000208DF806008DF8074002208DF8ED
:1021900005006946074801F0C3F908200090694628
:1021A000054801F0BDF9054804600548C0F89842AB
:1021B00002B010BD001C0240002002408C024442CC
:1021C0000080434270B50B4E002434600A48016819
:1021D00021F0C0010160016841F040010160074841
:1021E00001250560FFF79CFF3560FFF799FF34601C
:1021F00070BD000098824342002002408C0244429D
:102200002DE9F047824600241748016821F0C001FB
:102210000160016801601E2014F0D6FF0025134FF5
:10222000DFF84C9000264FF00108C7F89862FFF7DE
:1022300077FFC7F898826006040ED9F80C0208B13F
:10224000601CC4B2FFF76CFF681CC5B2082DECD34C
:10225000BAF1000F04D0FFF767FF2046BDE8F08712
:10226000FFF7B0FFF9E70000002002400080434282
:10227000000044422DE9F04705461348016821F06B
:10228000C0010160016841F0400101600F4E4FF054
:102290000008C6F898820024DFF834900127E80986
:1022A000C9F88C026806050EFFF73AFFC6F8987267
:1022B000FFF736FFC6F89882FFF732FF601CC4B202
:1022C000082CECD3BDE8F087002002400080434298
:1022D0000000444270B50B48016821F0C001016064
:1022E000016841F040010160074D01202860074E60
:1022F00030601E2014F068FF00242C60FFF710FFF0
:10230000346070BD002002408C02444298824342F7
:1023100070B50B48016821F0C0010160016841F00F
:1023200040010160074D00202860074E30601E20EC
:1023300014F04AFF01242C60FFF7F2FE346070BDF8
:1023400000200240988243428C02444270B500242F
:102350001248016821F0C001016001680160104D60
:102360000120C5F88C020F4EC6F89802FFF7D8FE80
:10237000D5F80C0268B1601CC4B2FA2C03D9FFF77F
:10238000C7FF012070BDFFF7CBFED5F80C02002877
:10239000F1D10020C6F8980270BD00000020024074
:1023A000000044420080434270B500254FF4803461
:1023B00000E0641E24B1802009F01CFA0028F8D047
:1023C0002CB140F2FF5009F0D1F9284670BD03202E
:1023D00070BD000070B5054600244749086810F03C
:1023E000450F03D1086810F0450FFBD010F0040F23
:1023F00005D00324042009F0B9F9204670BD10F07F
:10240000010F05D00124012009F0B0F9204670BD6C
:1024100009F0EAF9A84201D0102070BD40F2FF5047
:1024200009F0A4F9002009F001FA3449084201D169
:10243000204670BD10F0004F01D01C2070BD10F080
:10244000804F01D0092070BD10F0005F01D00A203C
:1024500070BD10F0805F01D00B2070BD10F0006FD8
:1024600001D00C2070BD10F0806F01D00D2070BD28
:1024700010F0807F01D00E2070BD10F4000F01D04D
:102480000F2070BD10F4800F01D0102070BD10F42B
:10249000001F01D0112070BD10F4801F01D0122048
:1024A00070BD10F4002F01D0132070BD10F4802FE8
:1024B00001D0142070BD10F4003F01D0152070BD74
:1024C00010F4803F01D0162070BD10F4004F01D0F1
:1024D000172070BD10F4804F01D0182070BD10F48B
:1024E000005F01D0192070BD10F0080F01D01A2034
:1024F00070BD204670BD0000342C014008E0FFFD97
:1025000010B50024104A116811F0450F03D111686D
:1025100011F0450FFBD011F0040F05D00324042067
:1025200009F024F9204610BD11F0010F05D0012457
:10253000012009F01BF9204610BD40F2FF5009F0C0
:1025400015F9204610BD0000342C014010B50024C0
:102550000B4A116811F0450F03D1116811F0450FB6
:10256000FBD011F0040F05D00324042009F0FEF87D
:10257000204610BD40F2FF5009F0F8F8204610BD8B
:10258000342C014070B506460C4600251F4A1068E1
:1025900010F0450F03D1106810F0450FFBD010F07C
:1025A000040F05D00324042009F0E0F8204670BD94
:1025B00010F0010F05D00124012009F0D7F82046C2
:1025C00070BD09F011F9B04201D0102070BD40F289
:1025D000FF5009F0CBF8002009F028F910F4604F03
:1025E00004D010F4005F05D0132070BD000C2080D3
:1025F000284670BD10F4804F01D0102070BD10F43B
:10260000004F01D00F2070BD284670BD342C014012
:1026100010B500204FF480310E4B1A6801E0491EBE
:102620001A6812F0450F01D10029F8D111B112F04A
:10263000040F05D00324042009F098F8204610BDAB
:1026400012F0400FFBD00024402009F08FF8204604
:1026500010BD0000342C014070B5002414480168FE
:1026600021F00C01016001680160124D04E0601C62
:10267000C4B2012014F0A8FDD5F8040208B1642CFE
:10268000F5D3642C01D3012070BD002404E0601C4C
:10269000C4B2012014F098FDD5F8040208B9642CE6
:1026A000F5D3642C01D3012070BD002070BD000063
:1026B000000802400000414270B50024104D04E0C3
:1026C000601CC4B2012014F07FFDD5F8040208B1EB
:1026D000642CF5D3002404E0601CC4B2012014F083
:1026E00073FDD5F8040208B9642CF5D31E2014F04C
:1026F0006BFDD5F8040208B1012070BD002070BD4B
:102700000000414270B5002000244006050EFFF78E
:10271000D3FF2843611CCCB2082CF6D370BDF0B5B2
:1027200083B006460F4600F02DF8FFF795FF10B175
:1027300003B00120F0BD002401ADFFF7E3FF2855F1
:10274000601CC4B2052CF8D39DF804009DF8051058
:102750009DF8072008449DF80610114408449DF890
:10276000081088420BD101A80AF09AFB14F03CFE35
:102770003880A81C0AF094FB14F036FE308003B0B9
:102780000020F0BD10B50B48016821F00C0101607C
:10279000016841F004010160074C00202060142012
:1027A00014F00DFD01202060BDE810401E2014F043
:1027B0000BBD0000000802408402414200B583B016
:1027C0000121042008F080FD0220009001218DF8F5
:1027D000041000228DF806208DF807108DF80500F2
:1027E0006946044800F09CFEFFF7CCFFFFF734FF7A
:1027F00003B000BD00080240014902208860704714
:1028000000B0024009F018BF074A904201D20748C1
:1028100000E00748074A11F0005F01EA020101D019
:10282000C1607047816070471064024000600240E0
:10283000006402407D0F7D0F002904D0016841F043
:10284000010101607047016821F0010101607047DA
:102850002DE9F003016821F0010101600021016010
:1028600041608160C160016121214161444A454963
:102870004FF03D08904204D1C1F80880BDE8F00354
:102880007047414A4FF47464904203D18C60BDE8B4
:10289000F00370473D4A4FF47415904203D18D60A8
:1028A000BDE8F00370473A4A4FF07466904203D196
:1028B0008E60BDE8F0037047364B374A984203D12B
:1028C000CA60BDE8F0037047DFF8D0C0344B604504
:1028D00003D1CB60BDE8F0037047324FDFF8C8C0CA
:1028E000B84204D1C1F80CC0BDE8F0037047DFF86E
:1028F000BC904FF03D57484503D1CF60BDE8F00391
:102900007047DFF8AC902B49484504D1C1F80080EE
:10291000BDE8F0037047DFF8A080404503D10C60AC
:10292000BDE8F0037047254CA04203D10D60BDE81F
:10293000F0037047224CA04203D10E60BDE8F003C3
:102940007047204C2049A04203D10A60BDE8F00343
:1029500070471E4A904203D10B60BDE8F0037047F8
:102960001B4A904204D1C1F800C0BDE8F003704793
:10297000184A9042F9D10F60BDE8F003704700009B
:102980001060024000600240286002404060024047
:1029900058600240706002403D00002088600240A4
:1029A000400F0020A060024000003D20B8600240BF
:1029B00010640240086402402864024040640240FF
:1029C00058640240706402400C6402408864024013
:1029D000A0640240B8640240002904D0016841F0BC
:1029E000200101607047016821F0200101607047FB
:1029F00011F0800F09D022B1436943F08003436195
:102A000003E0436923F080034361802905D001F08E
:102A10001E011AB10268114301607047026822EA80
:102A2000010101607047000010B402681C4B1A409D
:102A3000D1F80CC00B688C6943EA0C03D1F814C0C0
:102A40004CEA040C43EA0C03D1F81CC043EA0C0323
:102A5000D1F820C043EA0C03D1F824C043EA0C03A8
:102A6000D1F828C043EA0C03D1F834C043EA0C0380
:102A7000D1F838C043EA0C031A430260426922F0DD
:102A80000702D1F830C0CB6A43EA0C031A43426113
:102A90000A6942604A6882608968C16010BC7047F8
:102AA0003F801CF07047000070B586B001210846D9
:102AB00008F00AFC0121102008F03EFC1E4E0722FF
:102AC0000A21304600F077FD07220921304600F048
:102AD00072FD00248DF8164001218DF81710022593
:102AE0008DF81450490204918DF8155004A9304610
:102AF00000F016FD8DF814506802049004A93046C9
:102B000000F00EFD4FF4E1300090ADF80440ADF858
:102B10000640ADF80840ADF80C400C20ADF80A00B6
:102B2000064C694620460AF03DFA012120460AF08B
:102B3000E5F906B070BD0000000002400010014041
:102B40000FB438B505A80090049C2078002808D060
:102B50002078252808D0641C16F03CF8207800283E
:102B6000F6D138BC5DF814FB14F8010F64281ED0B0
:102B70000CDC58283AD004DC25283ED042283FD12E
:102B80002DE062282BD063283AD108E0662815D0C2
:102B900069280CD073281BD0782831D126E0009802
:102BA00010F8041B0090C8B216F014F828E0009941
:102BB00051F8040B009116F013F821E00098C01DA5
:102BC00020F00700B0EC020B009016F02DF817E093
:102BD000009951F8040B009116F078F810E0009974
:102BE00051F8040B009115F0DBFF09E0009951F852
:102BF000040B009116F048F802E0252015F0EAFFDA
:102C0000641CABE700234FF0204210280BD0B0F536
:102C1000807F0AD0B0F5805F0AD0D2F8580131EA3F
:102C2000000009D107E0506EF9E7D2F88400F6E71A
:102C3000D2F8A400F3E70123184670474268016800
:102C400011438268C068521E520142EA4020084384
:102C50000149086070470000500100A030B40368CB
:102C60009900A1F1C041D1F840116FF30E01D0F8E5
:102C700008C04268046942EA0C02D0F80CC04CEA71
:102C8000040C42EA0C02D0F814C042EA0C02D0F85C
:102C900018C042EA0C0CC2694CEA0204D0F820C009
:102CA00044EA0C05446A254329434FF02045002B94
:102CB00048D0D5F840316FF30E0342EA0C022343AB
:102CC0001A43C5F8402102689200A2F1C042C2F83E
:102CD00040110168A9B38900A1F1C041D1F84811A0
:102CE00001F07042816A0B68D1F804C05B1EACF140
:102CF000010C43EA0C13D1F808C0ACF1010C43EA13
:102D00000C23B1F810C0ACF1010C43EA0C431A4398
:102D1000D5F8483103F07043D1F80CC0898AACF182
:102D2000010C4FEA0C3C491E4CEA01511943C5F80D
:102D3000481100688000A0F1C040C0F8482130BCB4
:102D4000704702E0C5F84011C3E7D5F8481101F01B
:102D50007041806A02684368521E5B1E42EA031299
:102D600083685B1E42EA0322C3685B1E42EA0332A9
:102D7000038A5B1E42EA0342838A007E5B1E42EAAC
:102D80000352401E42EA00600843C5F8480130BCC7
:102D90007047000002490A6842EA40000860704734
:102DA000540100A02DE9F04782B00E460024002512
:102DB000009501955D4F4FF00809C7F8009010206D
:102DC00078604FF04008C7F80880FD604FF4806AD3
:102DD000C7F810A0384608F069FD1020FFF7FAFA8E
:102DE000002834D1524800890004386037207860C8
:102DF000C7F80880FD60C7F810A0384608F056FDF7
:102E00003720FFF7E7FA002821D1411E07F114000F
:102E10000160C0F80490302181600221C160056129
:102E20000121416108F0BAFC3D6033207860C7F8A9
:102E30000880FD60C7F810A0384608F037FD332041
:102E4000FFF7C8FA8146B9F1000F03D0484602B037
:102E5000BDE8F087374F386840F22A6810EA080F5B
:102E60000ED16D464FF4001008F0C4FC20B108F0FC
:102E700017FD45F82400641C386810EA080FF1D0EB
:102E8000082008F0B7FC30B1082008F06FFC0420DF
:102E900002B0BDE8F087022008F0ACFC30B102209F
:102EA00008F064FC022002B0BDE8F087202008F0A2
:102EB000A1FC30B1202008F059FC062002B0BDE88A
:102EC000F0874FF4007008F095FC38B14FF40070B3
:102ED00008F04CFC072002B0BDE8F08740F2FF503C
:102EE00008F044FC00980099000601F47F4140EA94
:102EF0000120009901F47F0140EA1120009940EA85
:102F00001160706001980199000601F47F4140EA68
:102F10000120019901F47F0140EA1120019940EA62
:102F20001160306002B04846BDE8F08780040020A0
:102F300024000020342C01401CB50024019401AC75
:102F4000009400F0E7F81CBD2DE9FF4F83B08146E7
:102F500006988A46A0EB0A08109E00200090A2EB7B
:102F600009043568934654EA080018D02046FDF756
:102F70005EFE07464046FDF75AFE87420BDA2046C2
:102F8000444680464846D14682465846DDF818B049
:102F9000069001200090002C07DD204606E007B0D7
:102FA0004846BDE8F04F00F03BB96042A0420AD06D
:102FB0004846D9466442C8F1000883464FF0FF37BF
:102FC000DDF818A000E001275148B8F1000F11D03A
:102FD00004EBD4714FEA610B01DACBF1000B4C48E2
:102FE0000068807E88B3002F02DA306820443060A9
:102FF00000257BE000990029016821D0897E11B16C
:103000000027804615E007B05A4649465046BDE8BD
:10301000F04F03F0C5BF28466D1C11F04DFE38B9C6
:10302000D8F8000009EB0701406E4268504690470F
:103030007F1CA742EFDD6D1E356007B0BDE8F08F45
:103040008A7E1AB10027804617E019E0486E5A467A
:103050005146036807B04846BDE8F04F1847284678
:103060006D1C11F029FE38B9D8F8001009EB0700E3
:10307000496E4A68514690477F1CA742EFDDDAE768
:1030800000250FE008FB05B090FBF4F101EB0A000E
:10309000009951B11E4A09EB05011268526E52683F
:1030A00090476D1CA542EDDDC7E7194909EB050303
:1030B0000968496E4A6801461846F1E708FB05B001
:1030C00090FBF4F101EB0A00019030683844306065
:1030D00011F0F2FD48B9009890B10D4809EB0501D7
:1030E0000068406E4268019890476D1CA542E5DD7E
:1030F0003068002F01DA20443060C01B30609CE74C
:10310000034909EB05000968496E4A680199EBE734
:10311000140200202DE9FF470F464049164680461D
:1031200009680C981D460A7E012A1CD0A8EB0600EF
:10313000791B50EA01031CD0A2F1010913F082FDB2
:1031400000F58060824603F02DFD00FB09F4504637
:1031500003F02CFD00FB09F1002C0CDAC4F5007023
:10316000801240420AE00090324639464046FFF75E
:10317000EBFEBDE8FF8704F50074A012002904DA15
:10318000C1F5007189124C4202E001F500718C1208
:10319000002804DD411C01EBD171491003E000EB74
:1031A000D0714910401E00EBD0704210002C04DD9D
:1031B000601C00EBD070401003E004EBD4704010B2
:1031C000641E04EBD47308EB0104ADF800403C1816
:1031D000ADF80240A8EB02045B10B21AADF804404F
:1031E000ADF808203144FC1AEA1AADF80C10284456
:1031F000ADF80A20ADF80E000023ADF806401A46DF
:103200000421684600F07AF8394640460EF02CFB5F
:10321000294630460EF028FBABE7000014020020E0
:10322000064A13681A7E012A05D0521E02EBD2729A
:10323000521000F005B85A6E526810471402002070
:103240002DE9F05F0646884640F2C32002FB00F1FC
:103250004FF47A7091FBF0F702FB02F102EBD270AF
:1032600001EB600B1446B118234A301B7F1C126817
:10327000526E13680A4641469847012538E000BF60
:1032800005FB05F004FB040159451CDDBC4219DDBA
:10329000194B06EB050AA6EB05091B68AAF101020A
:1032A00008EB04015B6E09F101001B689847124BA3
:1032B000AAF10102A8EB04011B6809F101005B6E91
:1032C0001B689847641E0C4B3219301B1B689246D2
:1032D00008EB05015B6E81461B689847064B52461A
:1032E000A8EB05011B6848465B6E1B6898476D1C80
:1032F000BD42C5DDBDE8F09F140200202DE9FF4F5F
:1033000043F6FF740F46664283B09B468146002118
:103310000BE000BF09EB8100B0F90200A04200DA27
:103320000446B04200DD0646491CB942F2DB67485C
:103330000068406900280DD0B0F906101A46A1EBCC
:103340000B01B14200DA0E46B0F90200801AA04229
:1033500000DD0446B4E0DFF878A100200546CAF895
:10336000000088E0781E854201DA6B1C00E0002333
:1033700009EB850C09EB8302BCF90200B2F90210DB
:10338000A04244D1A14215D139F92330059A39F927
:10339000251003EB020C4D4A05981268084404EB13
:1033A0000B01526E6045136801DA62462AE002465C
:1033B000604627E02846A4464FF000087A1E0BE03E
:1033C00008B1401E00E0781E09EB8003B3F902301B
:1033D000634504D108F101089045F1DB2346A3427F
:1033E00048D01A1B39F92500A1EB040C059B92EA81
:1033F0000C0F09D4354A184404EB0B011268526EC5
:1034000013680246984735E00AF0E6FE32E0A14232
:1034100030D001DBA04203DDA0422BDBA14229DC3E
:10342000E04688420ADC0346A04223DC0846A1426B
:1034300020DBB8F900C0B2F9001008E00B46A14249
:1034400018DCA04216DBB2F900C0B8F90010E21A8D
:10345000A1EB0C0151430029A0EB030202DD01EBBB
:10346000620102E0A1EB6201491CC01A91FBF0F07D
:103470006044C9E76D1CBD42FFF674AF059800902B
:1034800004EB0B00019000208046054613E0114933
:10349000B8F1000F31F915A009D0009901EB0A022B
:1034A00008440A490968496E0B680199984788F0F1
:1034B000010850466D1C064909688D42E7DB641C13
:1034C000B4427FF748AF07B0BDE8F08F1402002088
:1034D000E0020020E4F400200E4810B5006802F07D
:1034E000B9FA0D48006802F0C0FA012002F028FB8A
:1034F000002002F033FB002002F040FB002002F02D
:10350000BFFA0648006802F0C7FABDE81040002084
:1035100002F0E8BA100200200C020020080200208D
:103520002DE9F00100220126032706FA02FC0B68B0
:1035300003EA0C03634538D10568530007FA03F426
:10354000A54305600D79D0F800809D4045EA080547
:1035500005600D79012D01D0022D17D18568A54395
:1035600085604D79D0F808809D4045EA0805856062
:10357000456825EA0C0CC0F804C0D0F804C08D7969
:103580009540ADB24CEA050CC0F804C0D0F80CC0B0
:103590002CEA040CC0F80CC091F807C00CFA03F335
:1035A000D0F80CC043EA0C03C360521C102ABCD3F1
:1035B000BDE8F00170474B07DB0E9A40C90800EBED
:1035C0008100016A4FF00F0C0CFA03F3994301627A
:1035D000016A11430162704741837047018370475C
:1035E0002DE9F04385B00121802007F06DFE012117
:1035F000080207F069FE4FF08008CDF80080002433
:103600008DF8044001268DF8076002278DF80570BB
:10361000DFF8C49069464846FFF782FF3002009009
:103620008DF804608DF8064069462C48FFF778FF56
:10363000FEF798FD2A4D2C600A2013F0C0FD2E6085
:103640000A2013F0BCFDCDF800808DF804408DF801
:1036500007408DF8057069464846FFF761FF642012
:1036600013F0ADFD042202A948F2401000F04EF81C
:103670008DF80C4002A91BA012F0AEFB1CA102A801
:10368000FCF742FE18B105B00120BDE8F0838DF8CB
:103690000870012202A948F2400000F03BF9012223
:1036A00002A948F2470000F031F89DF8081060299F
:1036B00002D211A012F090FB0A2013F080FD8DF8C9
:1036C0000840012202A948F2400000F023F905B0A9
:1036D0000020BDE8F0830000001C024000200240F2
:1036E000A00244424354502049443A25730D0A0035
:1036F000393134370000000044656661756C742010
:103700005665723A25640D0A000000002DE9F0416B
:1037100004460E461546FEF7DDFD2820FEF7AAFDFD
:10372000FEF714FE200AFEF7A5FDFEF70FFEE0B23D
:10373000FEF7A0FDFEF70AFEFEF7CCFD2920FEF7FE
:1037400099FDFEF703FE0024002D0CD96F1EBC422C
:1037500001D0012000E00020FEF752FD3055601C32
:10376000C4B2AC42F3D3BDE8F041FEF7D1BD0000D6
:103770002DE9F14783B00024A146624D2878401C12
:10378000C1B229706048614FA0FB0120C0084042CF
:1037900000EB800011EB400001D00A297ED201220B
:1037A00003A948F24E10FFF7B1FF9DF80C004FF04F
:1037B000000810F0800F0BD000F00F00062807D291
:1037C000CDF80480012201A948F24E1000F0A2F8C1
:1037D0009DF80C0010F00F0F73D000F00F000628BA
:1037E0006FD2FF2101FA00F0019097F82060C043EA
:1037F00040F0C00087F82000B889B882F88AF883C2
:10380000DFF80CA14FF0010997F8200009FA04F144
:1038100008422DD03AF81400042202A9FFF776FFDF
:1038200097F8300010F0010F10D09DF808009DF8B7
:10383000091000EB012107EB440081819DF80A107B
:103840009DF80B2001EB0221C18211E09DF80800D8
:103850009DF8091000EB012107EB4400C1829DF89F
:103860000A109DF80B2001EB0221C1F588718181BE
:10387000601CC4B2052CC7D34FF00109B989384682
:10388000B1F5F07F03D8C18AB1F5887F17D99DF8CB
:103890000C1001F00F01012908D900E011E0C189E5
:1038A0008181018BC18285F800800AE0818A818153
:1038B000C18BC1828021039180F8206001E085F8EE
:1038C00000809DF80C0000F08F00802811D197F83F
:1038D000200010F0800F04D020F0800087F8200036
:1038E00007E04FF6FF71B981F98200F0E00087F838
:1038F00020002878F02801D90A20287004B0484612
:10390000BDE8F08778000020CDCCCCCC440000206E
:103910000A9101082DE9F04104460E46154600279C
:10392000FEF7D8FC2820FEF7A5FCFEF70FFD200AC5
:10393000FEF7A0FCFEF70AFDE0B2FEF79BFCFEF7E7
:1039400005FD0024002D0BD9305DFEF793FCFEF73A
:10395000FDFC0746380003D1601CC4B2AC42F3D36F
:10396000FEF7D6FC3846BDE8F0810000014AC2E906
:1039700000017047B8010020014AC2E90001704708
:10398000C0010020014AC2E900017047A4020020E2
:10399000014AC2E900017047C8010020014AC2E99A
:1039A00000017047AC0200202DE9F04FDFF828B18C
:1039B00091B04FF0FF35DBF80030B3F922100691DB
:1039C000DE69B3F92490F469A189814206D8E289BD
:1039D000824203D3471AD4F8008012E0D4E901816F
:1039E00000296FD00A8882426CD84D88854269D3FD
:1039F000801A82B2486800EB8200B0F90070B0F91A
:103A00000250781C5ED0307EA17C10FB01FA217C34
:103A1000CDE90701B3F92A60304603F05BFFC0B27D
:103A20000E90DBF8000007FB0A81A37C826B012764
:103A3000CDE90412CDE90273C069089AC17E807E87
:103A4000CDE90001DDE90603494603F047F9681CAA
:103A500018D046F0020003F03DFFDBF80000A37C25
:103A600005FB0A81826BCDE90273CDE90412C069BE
:103A7000089AC17E807ECDE90001DDE90603494652
:103A800003F02CF9DBF800005D46C069417E007E42
:103A9000814214D9022E12D086F0040003F01AFFDE
:103AA0002868C069027EC37E12FB0391437E857E37
:103AB000089A06984B4412FB050203F09BFA0E98F5
:103AC00003F008FFDBF80000627C418C1144418464
:103AD00011B0BDE8F08F0000140200200448006817
:103AE000C069C06909B1027C0A60407C704700006F
:103AF00014020020022008807047C06982898A422F
:103B000002D8C2898A4210D2806880B102888A4273
:103B10000DD843888B420AD3406800EB8100A0EBAC
:103B20008200B0F90000002801DB0120704700206E
:103B3000704700002DE9F043304C034687B0206801
:103B40001946B0F92A60C069C06900F086F80028FB
:103B500050D041680088181A01EBC0053046AF7894
:103B600003F0B8FE814620686A680123816BCDE9C5
:103B70000237CDE90421C169CB7E8A7ECDE90023DD
:103B80000B7EB0F924102A78B0F9220003F0A6F8D1
:103B90002068C069417E027E91421FD9C07E11FB20
:103BA00000F812FB00F7022E18D000F01DFF0646A9
:103BB00000F0E8FE01F059FF21682A78CB69B1F9DD
:103BC0002200DB7E12FB0302B1F9241001EB080393
:103BD000394403F00FFA304601F047FF484603F03E
:103BE00079FE20686A78C369B0F922109B7E12FBC7
:103BF0000311418407B0BDE8F083000014020020E7
:103C000030B50F4C05460B4620682946C069C0698F
:103C100000F023F8002812D04168008824682A1A8E
:103C20000120E46900EBC200085CA47E10FB04F0F4
:103C3000002B04D011F8321011FB04F1196030BDD3
:103C40001402002001200880704700B5C06900F010
:103C500004F8002800D0012000BD06E002888A4256
:103C600002D842888A4202D280680028F6D1704782
:103C70002DE9F0410025154E154C18E02069C5EBE3
:103C8000051700EBC7007022001D3168FCF709FB27
:103C90002069002140F8371000EBC70000F10C014B
:103CA0008161011D0A1DC0E90F126D1C4164A068ED
:103CB0008542E3DB0FF0B2F82169C0EB001001EBA5
:103CC000C000001D3060BDE8F0810000140200203B
:103CD000F402002070B510490E480860084602F052
:103CE00013FF0D4C143CA068C0EB0010C500284623
:103CF00000F06CF8094B20612A461B6800219847A8
:103D00004FF0FF30206002F029F9BDE870400FF05D
:103D100085B800001945010808030020D4020020DE
:103D200010B5040009D001F0F9F920460AF0BAFAFA
:103D3000044602F0C7F8204610BD002010BD000068
:103D400038B5054601F0EAF92846FFF7E9FF040017
:103D50000AD000F0BBF8064B00902A461B680021F1
:103D60009847684600F0F0F802F0ACF8204638BDFD
:103D7000D4020020024A106021F003005060704716
:103D800068F3002010B5040011D001F0C7F908480D
:103D9000042101EBC401406B415848680AF03AFA2B
:103DA000204610F015FDBDE8104002F08BB810BDA4
:103DB000A8F20020002805D0034AD16B016001B1B0
:103DC0004860D06370470000A8F200202DE9F04160
:103DD00004460FF0CDFD2848E41C24F00305016CD7
:103DE0002D1DA94200D90D46C46B13E054F8042CD4
:103DF000AA420ED184B1216809B162684A60616843
:103E000009B122680A60C26BA24231D12168C16344
:103E10002EE02468002CE9D18046816BC0680F1821
:103E200057F8040C3E1A306838B1002010F044FEF8
:103E300057F8040C3E1A3068D0B97068A84217DBF6
:103E40003044441B3046241D10F0EEFDD8F80C1011
:103E5000491BC8F80C10D8F814102944C8F81410DD
:103E60007068401B02D031460AF0D4F944F8045C73
:103E70002046BDE8F0810000A8F2002010B5002423
:103E80000FF076FD0C490F2001EBC002526C1AB105
:103E900001EBC000406C08E0401EF5D508E0416829
:103EA000A14200D90C46806810B180680028F6D184
:103EB000A4F10C0010BD0000A8F2002002488169A6
:103EC000491C816170470000A8F200200549CA69B9
:103ED000521CCA61496B01EBC0010A78521C0A707E
:103EE00000F04AB8A8F2002010B501F017F9FFF76A
:103EF000C5FF64220849B0F5800F04D990FBF2F4A5
:103F0000086A444303E0096A4143B1FBF2F401F05B
:103F1000D9FF204610BD0000A8F200200549102856
:103F200005D94A68B0EB520F02D3500800E01020C8
:103F30008860704768F3002002488169491E8161EA
:103F400070470000A8F200200A4902684B6B52F843
:103F5000082C03EBC2021378022B03D3CB690BB1FD
:103F60005B1ECB611178491E11700021016008466B
:103F700070470000A8F200200349042202EBC000B1
:103F8000496B085808307047A8F2002010B5C2B23B
:103F9000CBB2D21A00D5524293B25B43C0F3072290
:103FA000C1F30724121B00D55242000C92B2A0EBC1
:103FB000114002FB023200B2002801DA404200B296
:103FC00080B200FB002010BD10B50021084600F0B3
:103FD00083FD43F6FF725042BDE810401346014690
:103FE000AFF300802DE9FC411C4615460E460746FE
:103FF00001F094F8042003F06DFC804612484069FB
:10400000C16C006D0F4406440D440444ADF80070CB
:10401000ADF80450ADF80260ADF80640684609F00E
:104020007FFD07E023462A463146384602F0E2FF8C
:1040300009F038FD0028F5D1404603F04BFC01F0B3
:1040400041FFBDE8FC810000000200202DE9F041A5
:104050001C4616460D460746022B02DB0020BDE833
:10406000F0811C20FFF7B2FE0028F8D00DB10561E9
:104070000AE0094A52F8241009B905E011460A6815
:10408000002AFBD1096901618461868200210160F7
:104090004160C0E90217E2E74002002070B51D460A
:1040A000FFF7D4FF040009D000F00EF8E0680068C4
:1040B00020B90348006800EB85008465204670BD88
:1040C00014020020FFF776BE70B5C0B38269022AE1
:1040D00036DA2149531C0C789C4200DA0B701F4CD5
:1040E00054F8221019B944F8220032E019464B68FE
:1040F000002BFBD106E0CB68C5681B682D68AB427E
:1041000003DD09680029F6D11AE0C1B1CB68C668A1
:104110001B683668B3420CD1838A012B05D008E0B6
:104120001946DB681B68AB4203DB0B68002BF7D139
:1041300029B14B6833B118604A68426004E0FFE778
:10414000012070BD44F822004860884200D100215F
:104150000160002070BD00006602002040020020C7
:1041600010B503E00468FFF7AFFF20460028F9D13F
:1041700010BD000010B50C4B8269002153F822409D
:10418000844205D1046843F82240026802B15160BC
:1041900042680AB10368136002680AB14368536059
:1041A0000160416010BD0000400200200020704707
:1041B000022801DB00207047054951F8200004E087
:1041C000C16809680029F6D000680028F8D1704756
:1041D000400200202DE9F041044601F0ABFE061933
:1041E000164F1FE000F004F93868844200DD0446F1
:1041F000A04600F093FF12480568FFF75FFE2C0011
:1042000017D000BF01F05EFE641EFBD1404601F0F6
:1042100075FE1DB100F082FF6D1EFBD1FFF78CFE15
:1042200001F050FE01F086FE341A002CDADCBDE805
:10423000F081404601F062FEF0E70000A00200209D
:10424000000300202DE9FC4706005FD000F066FF68
:1042500000F0E2FB3C4C81462068B0F9228000F07F
:104260000DFC216807468A8CD01B888441E000BF82
:1042700047F6FF71304602F0F1FA824601463046B9
:1042800002F0C2FA2168054691F82C0000F0030004
:10429000012841D002283BD000204A8C101A4884C3
:1042A000ADF800006A1E1044ADF80400888CADF82B
:1042B0000200A9F101010844ADF806006A46514622
:1042C000304602F005F82168BDF8020088845146A6
:1042D000304601F0E5FC064430780A281ED00D284F
:1042E0001CD0BDF80000216828444884307818B1FB
:1042F000761C30780028BBD12068818C39448184B9
:10430000818D21F00301818501F0DCFDBDE8FC8792
:1043100005EBD5704010C0E72846BEE7206890F84E
:104320002C1001F0030101290BD0022909D0018CC6
:10433000418431780A29D9D1828C02EB0901818428
:10434000D4E7A0F82280F4E71402002070B51446E8
:104350000D46064600F0E2FE054800684584848468
:104360003046FFF76FFFBDE8704001F0ABBD0000C5
:10437000140200202DE9F04107460A4815460E4672
:104380000068B0F92C0040F0020001F0E7FB0446A1
:104390002A4631463846FFF7D9FF2046BDE8F041AE
:1043A00001F0DCBB140200202DE9F0411C4615464B
:1043B0000E46074600F0B2FE0C480168C86C096D55
:1043C000074405440E440C44002009F0A9FB07E013
:1043D00023462A4631463846FEF7AEFD09F062FB19
:1043E0000028F5D1BDE8F04101F06CBD14020020B9
:1043F00010B5002400E0012400F004F80028FAD1F0
:10440000204610BD0B4810B50068002410B180474D
:1044100000B1012409F016F800B101240648006833
:1044200010B1804700B101240448006800B1804702
:10443000204610BD200200204C020020480200202F
:1044400070B586B00DF1280C9CE87000CDE9030131
:104450008DE8700003A9024800F004F806B070BDB2
:104460005F4700082DE9FF4F89B08846DDE91765F1
:10447000044600F053FE44F20810FFF761FC5FEAC7
:1044800000094FF0010755D0FFF720FD0490C0E967
:104490000248012303AA0A2100F052FA0398801D62
:1044A000039003A802F026FB834603A802F022FB38
:1044B000824602F0F5FE0890214801680B98CA6C0C
:1044C000096D02EB00080C98ADF814800C180BFB7A
:1044D00006F0B0FBF5F101EB0800401EADF8180046
:1044E0000AFB06F0B0FBF5F02044401EADF81A00C0
:1044F000ADF8164005A809F013FB90B1DFF844A011
:10450000DFF844B0CDE902BACDE900652246414664
:10451000169B049800F074F8074609F0C3FA0028C7
:10452000F0D1089803F0AEF904A8FFF70DFD484656
:10453000FFF728FC01F0C6FC0DB03846BDE8F08F4F
:104540001402002027E60008AD1601081CB5CDE9CD
:1045500000016946014800F003F81CBD5F470008F0
:104560002DE9F843984691460D460646012700F08E
:10457000D5FD44F20810FFF7E3FB04000FD0FFF76E
:10458000A5FC0090C0E90265424649460EF050F98C
:1045900007466846FFF7D8FC2046FFF7F3FB01F01B
:1045A00091FC3846BDE8F8831CB5CDE900016946A9
:1045B000014800F003F81CBD5F4700082DE9F843EF
:1045C00090460D460646012700F0A8FD44F208106B
:1045D000FFF7B6FB04000ED0FFF778FC0090C0E9AF
:1045E000026541460EF0B5F807466846FFF7ACFC99
:1045F0002046FFF7C7FB01F065FC3846BDE8F883AD
:104600002DE9FF4F95B00020DDE92276DDE9249801
:104610008DF810009A46934618210CA8FBF769FE06
:10462000142107A8FBF765FE0024601E059011AB5E
:1046300013AA12A915980EF0BFFB8BE0002306AA5F
:104640000121159800F07CF9002860D106980578C2
:10465000212D70D02C2D02D03B2D7ED168E000237F
:1046600006AA0921159800F06BF9002875D106A853
:1046700002F040FA0C9006A802F03CFA0D9006A851
:1046800002F038FA0E9006A802F034FA0F9006985D
:104690000078109000060AD5109800F0070102205B
:1046A000884001461190159810F0A6F878BBAAF141
:1046B0000100844207D10C9807900D9808900E983D
:1046C00009900F980A90A24522D19DF81000022867
:1046D00006D1CDE9007607AB0CAA59461698C0471B
:1046E0009DF810000599CDE90010CDE90276DDE9CD
:1046F00015025B460CA9C84748B9002306AA012148
:10470000159800F01DF910B919B0BDE8F08F24E03C
:10471000002306AA0121159800F012F9E8B900213A
:1047200015980DF017FF0028F9DC641C3B2D85D18E
:104730000020E9E7FFE7A24501D104AB01E04FF01B
:10474000000301D107AA01E04FF0000205A9159866
:1047500010F074F800283FF471AF0120D4E730B5B1
:1047600005464068C41A0020002C07DD944201DD94
:10477000104600E020462A681A440A6030BD000056
:104780002DE9F041054643F216104FF480572E18DC
:1047900005F54054B1E000BFD4F8F81C814235D192
:1047A000B94203DB4FF0FF30BDE8F081564B4FF4C8
:1047B000005200211B6805F58B709847002005E02A
:1047C000291801F5005181F81601401CD4F8F81C95
:1047D0008142F5DCD4F8EC0C401CC4F8E80C084627
:1047E000C4F8D06C490004F54D64801CC4E908018C
:1047F000A4F54D6428460EF0E7F8C4F8000DD4F88F
:10480000F81C8842F6D0C4F8040DCDE7D4F8FC1C9F
:10481000814202D16FF00100C6E7D4F8F01C0246D5
:10482000814209DCD4F8D00C94F8003D411CC4F856
:10483000D01C0370D4F8040D40F6B833D4F8F81C3B
:1048400081421EDC291801F5005191F816C1D4F8F7
:10485000D01C01F1010EC4F8D0EC81F800C005EBCA
:104860004001B1F9161181429ED0D4F8D0CCACEB06
:10487000050CACF5405CACF58B7C9C4594D20846AD
:10488000DCE7284400F5005090F81631C4F8003DEC
:10489000D4F8D00C411CC4F8D01C0370D4F8F00C30
:1048A000B8421FDA05EB4003B4F8041D2844A3F80E
:1048B000161100F5005094F8001D80F81611D4F878
:1048C000F00C401CC4F8F00CD4F8F41C884209DB4E
:1048D000B94207DA4800C4F8F40CD4F8E80C401CDC
:1048E000C4F8E80CC4F8042DD4F8D00CB04204D9B4
:1048F000401EC4F8D00C007856E728460EF064F845
:104900000028BFF649AF4FE7D402002010B500F5EC
:10491000405202F54D624B1CC2E90631012404FAF3
:1049200001F3591CC2E90A31991C11625900516204
:104930000221C2E9041443F216110844106010BDAC
:104940002DE9F04117460D4604460BB100202061C9
:10495000D4E903030A46A6683946B047A84202D004
:104960000120BDE8F0812069284420610020F8E79B
:10497000034951F82000C1688A6A082110470000E5
:104980004002002010B500F0C9FB02F081FC02F0EB
:1049900049FD044601F096FA204610BD10B50446C4
:1049A00000F0BCFB054800210068C0694268204651
:1049B0009047044601F086FA204610BD14020020FC
:1049C00070B50C46054600F0A9FB06482146006874
:1049D000C069426828469047044601F073FA2046B1
:1049E00070BD00001402002010B500F097FB02F02B
:1049F00057FC02F017FD044601F064FA204610BD92
:104A000010B500F08BFB03480068047C01F05AFAF3
:104A1000204610BD1402002010B500F07FFB0448B2
:104A20000068C069447E01F04DFA204610BD0000C8
:104A30001402002070B515460E46044600F06EFBC9
:104A40002A463146204602F071FC040002D00020C4
:104A50003060286001F036FA204670BD70B50C4613
:104A6000054600F05BFB2146284601F013FFBDE838
:104A7000704001F027BA01F05DBA000010B50024C3
:104A800000F04CFB0B48006890F82C1001F00C0172
:104A9000042904D0082906D00C2907D103E0C069F5
:104AA000047E641E02E0C069007E440801F00AFA38
:104AB000204610BD14020020024951F82000006970
:104AC0000068704740020020024951F82000006948
:104AD000406870474002002070B50C46054600F063
:104AE0001DFB044800684584848401F0EBF9002034
:104AF00070BD0000140200202DE9F0411D4801683E
:104B000021F0010101601C480126866081680029AE
:104B1000FCD11A49016000681949884200D0FEE7BB
:104B200001F006FB174C2E20207001F009FA164800
:104B30000EF0EEFD13F008F9074602F021FC10B16B
:104B400002F032FC38B902F038FC054602F021FCD4
:104B5000294602F0B9FE0021084600F0D1FF08F016
:104B6000E5FCFFF785F8A06900B18047A6703846DC
:104B7000BDE8F081002000E000300240C2A507F44B
:104B8000CDB5E8B50002002074F300201CB5CDE9D6
:104B900000016946014800F003F81CBD1B4F0008E6
:104BA0002DE9F8431E46174688468146012500F048
:104BB000B5FA48F2BC40FFF7C3F8040009D03B4601
:104BC0004246494600960BF021FB05462046FFF77A
:104BD000D9F801F077F92846BDE8F8831CB5CDE98E
:104BE00000016946014800F003F81CBD1B4F000896
:104BF0002DE9F84390460D460646012700F08EFA4F
:104C000048F2BC40FFF79CF804000FD0FFF75EF9B4
:104C10000090C0E901656846FFF796F941462046D5
:104C200000F08BF907462046FFF7ACF801F04AF98F
:104C30003846BDE8F883F8B50546FFF747F9009018
:104C400000F5E04090F81C636846FFF77DF900240A
:104C500010E0012322461946284609F0BFFD30B96D
:104C6000082322460221284609F0B8FD08B1012098
:104C7000F8BD641CB442ECDB0020F8BD2DE9F04720
:104C800000F5E0448246DFF86491D4F88804A2B0CD
:104C90004FF00108002538B194F80804F0B300BFC4
:104CA000D4F8800430B32BE094F80904002850466F
:104CB00003D00FF08FFA90B915E00BF021F870B91E
:104CC000D4F82014D4F8840488420CDC6946504699
:104CD0000FF0F6FD18B99DF80000D92803D0012087
:104CE00022B0BDE8F08784F80884D4F82004C4F822
:104CF0008804D5E7D4F87C04FFF7E8F8C4F880040A
:104D00000746D4F87404FFF7E1F82090C0B10026FC
:104D1000D4F81804B04210DD209800E012E000EB57
:104D2000C611D9F80030802268469847394668464F
:104D30000EF006F9761C4037EAE720A8FFF704F9E1
:104D400084F8085494F80A0405281CD2DFE800F01F
:104D50002B270B0F030094F88804C0070BD1504693
:104D60000AF078F90DE050460AF0F2F809E094F8FC
:104D70008804C00702D084F8948404E050460AF006
:104D800059F884F89454D4F88804401EC4F8880470
:104D9000D4F88404401EC4F884040020A0E75046E0
:104DA00009F0F4FFEDE7D4F88814D4F82004461A8B
:104DB000D4F88C04FFF78AF880460090D4F8800479
:104DC00000EBC607D4F80C6409E0D9F800300822DB
:104DD000394640469847761E08F108084037002EAD
:104DE000F3DC6846FFF7B0F8CBE70000D8020020FC
:104DF00070B500F5E044054694F81C03042834D04F
:104E000028460EF009FE28B194F81C0384F82D03FF
:104E1000002132E094F874232AB1002194F877330A
:104E20001BB1012002E00121F8E7002094F875632E
:104E3000B2421AD809B1C6B903E094F82D23012A69
:104E400013D118B194F876239A420ED121B108B14A
:104E50000E4905E00E4903E008B10E4900E00E4995
:104E600028460BF0CFF80028CAD0012070BD681882
:104E700000F5E04080F82E13491C94F82D03884279
:104E8000F5DC284609F0BEFA002070BDB5FC00082C
:104E9000CDFB000825FB0008ADF800082DE9F04126
:104EA00000F5E0440546D4F8800418B105F5E94062
:104EB000FFF74AF8D4F88C0408B1FEF763FFD4F882
:104EC000900408B1FEF75EFFD4F8740408B1FEF751
:104ED00059FFD4F87C0408B1FEF754FF00260EE019
:104EE00005EB061707F5E047D7F8C40308B1FEF74E
:104EF00049FFD7F8840308B1FEF744FF761C94F805
:104F00001C03B042ECDCD4F87804002803D0BDE8E0
:104F1000F041FEF737BFBDE8F08130B5054600200F
:104F20006C68E41A002C07DD944201DD104600E0B5
:104F300020462A681A440A6030BDF8B50C46064679
:104F400000F03CF805465CB13046FEF7BFFF00902C
:104F5000008A20600098408A60606846FEF7F4FF8F
:104F60002846F8BD38B5054600F028F8040023D1DE
:104F700028460EF003FC04001ED12846FEF7A6FFCB
:104F800047F209410090095C81B109F0E7F904009A
:104F90000FD1009800F5004090F8980448B9684691
:104FA000FEF7D2FF28460AF0ADFF38BD0EF034FD03
:104FB00004466846FEF7C8FF204638BD7FB5002589
:104FC000FEF784FF01260090044606771A48206009
:104FD0000020A06102A920460DF055FF20BB2268E9
:104FE00003A920469047F8B99DF80800FF281BD177
:104FF0009DF80C00D82817D18DF8040001A900985D
:105000000FF05EFC80B99DF80400C02808D0C128CC
:1050100006D0C22809D1009800F5E04080F8096464
:1050200000980DF0E2FD00B101256846FEF78CFF07
:1050300004B0284670BD0000872E01082DE9F84312
:1050400000F500410446D1F8A024D1F8A40404F5E9
:10505000E0451044C1F8A404002015E095F81D2394
:10506000D1F8A434022A08D1221802F5E04292F8BD
:105070002123C2F1030293FBF2F304EB800202F559
:105080000042401CC2F8A83495F81C238242E5DC9B
:105090000026DFF884902AE004EB061847F2783106
:1050A00008EB0107F868FEF711FF0090BA6839684D
:1050B000D9F800304A4379684A4300219847684646
:1050C000FEF742FF47F2B83108EB0107F868FEF738
:1050D000FDFE0090BA683968D9F800304A43796813
:1050E0004A43002198476846FEF72EFF761C95F844
:1050F0001C03B042D0DC102247F2F830D9F800305F
:10510000002120449847608AC5F884040020C5F82F
:105110008804BDE8F8830000D402002070B5184C64
:10512000E06820B100F0FEFE6168884204D000F023
:1051300031FF00F0F7FE6060E068401CE06001288D
:105140001CD10DF06BFE05462068854216D0002864
:1051500013DBFFF72BF801462068C0EB0012206933
:1051600000EBC2025167C5EB0511064A00EBC10016
:10517000011D1160406FFEF7F3FF256070BD000058
:10518000F4020020140200201CB5040004D10E48D3
:105190000068046E002C16D0FFF7C0FF2046FEF713
:1051A00095FE009044696846FEF7CEFE4CB120465D
:1051B000FEF78CFE019081688968884701A8FEF798
:1051C000C3FE00F07FFE1CBD1402002001490A4608
:1051D00000F002B801F0FFFF2DE9F04387B015465B
:1051E0000C465FEA000846D0FFF798FF002000F069
:1051F00047FC814621480068066E4046FEF766FE81
:1052000000900068806900F009FC074640F6FF70D6
:10521000C44204D10098B0F90440B0F90650009897
:10522000611E0289ADF804401144ADF808104189AF
:10523000681E0844ADF80650ADF80A0007F04EFFAE
:105240006846FEF781FE01A808F06AFC06E02A46DF
:105250002146404600F0D0FA08F024FC0028F6D1A0
:10526000384600F0DBFB304600F090F9484600F08D
:1052700007FC00F027FE07B0BDE8F0831402002011
:105280002DE9FE4F984691468A46834600270C9E9C
:10529000FFF744FF184819490068407C51F8204046
:1052A000E1680968042903D02468002CF8D100E0E3
:1052B0001CB9FEF77DFF041E1BD0E0680121C26A05
:1052C00020469047050011D02469A0688047401C03
:1052D00002D10B4C46F001060096CDE9015443463D
:1052E0004A465146584600F0E5F9074600F0EAFD07
:1052F0003846BDE8FE8F0000140200204002002066
:10530000586E040838B504001CD0FFF707FF0E489C
:105310000068006EA04201D100F072FB2046FEF74B
:10532000D5FD0090406908B100F0B5FD0098006817
:10533000FEF7C8FE6846FEF707FE2046FEF722FD90
:1053400000F0C0FD38BD0000140200202DE9FF4F21
:1053500083B09A468B460746FFF7E0FEDFF83891A8
:10536000D9F80000447C4D4800570128204606DD4E
:1053700002F00CF80546204602F01CF805E001F0AA
:10538000EEFF0546204601F0F0FF04461FB302A9D8
:1053900001A8FFF763FBB7F90000002800DA00203E
:1053A000B7F902608046002E00DA00260198411904
:1053B000B7F90400491E0FF00AF8054602980119D2
:1053C000B7F90600491E0FF002F8A5EB0802841B8E
:1053D000521C641C03E04FF0000846462A46BAF10E
:1053E000000F01D1C4F1000A002A51DD002C4FDD6D
:1053F00010980090534631464046FFF741FF5FEA60
:10540000000A10D000F07CF80746A04206D0D9F878
:105410000000806C10B1322108F056FE504600F0BA
:10542000B5F8002523E059460598884700F04AFD65
:10543000012007B0BDE8F08F611BB94202DA504687
:1054400000F088F83DB172194146504600F0C6F8A8
:105450005046FFF799FE594605988847104801685D
:1054600009B1002088475046FFF7B0FE3D44A542F1
:10547000E2DB5046FFF746FF002000F087F8A74226
:1054800006D0D9F80000806C10B1332108F01CFE62
:1054900000F018FD0020CCE7140200206402002078
:1054A000B403002038B505004FF0000411D0FFF719
:1054B00035FE2846FEF70AFD009000680069806806
:1054C000804702F0FBFC04466846FEF73DFD00F015
:1054D000F9FC204638BD38B504000ED0FFF71EFE9B
:1054E0002046FEF7F3FC00F1180400906846FEF732
:1054F0002BFD00F0E7FC204638BD002038BD000041
:1055000038B504460025FFF709FE1CB908480068B5
:10551000046E44B12046FEF7D9FC0090B0F90A5061
:105520006846FEF711FD00F0CDFC284638BD0000AE
:105530001402002070B505460024284609F020FF1B
:10554000641C18B1BDE8704000F07AB8052CF4DB9B
:1055500070BD000038B50C46050004D10A4800684B
:10556000056E002D0FD0FFF7D9FD2846FEF7AEFCE3
:105570000090B0F90A10A14200DD44816846FEF7B0
:10558000E3FC00F09FFC38BD14020020F8B505468E
:10559000FFF7C4FD104E3068046ECDB10CB100F0C1
:1055A0002FFA07F08FFE2846FEF790FC0090316836
:1055B0000D660068FEF788FD6846FEF7C5FC02F040
:1055C0000BFA02F04BF900BF00F07CFC2046F8BD5E
:1055D00000F016FAF8E70000140200207CB515462A
:1055E0000E46040004D115480068046E002C24D037
:1055F000FFF794FD2046FEF769FC2DB20090C580B0
:1056000034B2848002F02AF90098406980B1FEF734
:105610005DFC009A0190B2F908108180B2F90A206D
:10562000C28011B10AB10480458001A8FEF78CFC4C
:105630006846FEF789FC00F045FC7CBD14020020A2
:1056400001490A4600F002B801F0FFFF7FB5154698
:105650000C4606002DD0FFF761FD3046FEF736FC04
:1056600040F6FF710190CC4203D1B0F90440B0F98B
:1056700006500289611E1144ADF80840ADF80C10C7
:105680004189681E0844ADF80E00ADF80A5001A823
:10569000FEF75AFC02A808F043FA06E02A46214623
:1056A000304600F091F808F0FDF90028F6D100F03E
:1056B00009FC7FBD2DE9FF4FDFF8E8B083B01C4641
:1056C000DBF80010DDE9106092464FF000084B7CDB
:1056D00042461299FEF7BAFC050060D0286980683E
:1056E000804702F0EBFB81460AFB09F1C91DCF0898
:1056F000FEF7FAFBF10705D1C11700EB917080109E
:1057000000EB4000002C09DC1FB11838B0FBF7F0AB
:1057100000E000206442A04200DC0446F00707D10C
:105720000090DDE903012346524600F039FB804634
:10573000002C03DC2846FEF7C5FC30E004FB07F034
:105740001830F10702D0FEF7EBFA01E0FEF7F8FAA5
:1057500006001CD0FEF7BAFB01900560039981801A
:105760000499C180A0F808A04481C0F81480C0E961
:10577000037901A8FEF7E8FB1298AE602861DBF818
:105780000000407CA861304607B0BDE8F08F284695
:10579000FEF798FCB8F1000001D0FEF7F3FA002004
:1057A000F2E7000014020020054B30B41B68054CE2
:1057B0005B7C54F823301B6930BC0FF065BE0000E1
:1057C0001402002040020020F8B515460E46074698
:1057D000FEF77CFB009000681621C068426A00203A
:1057E000904704466846FEF7AFFB002C03D02A46DC
:1057F00031463846A047F8BDF8B516460F460500B5
:1058000012D0FEF763FB009044696846FEF79CFBEC
:105810002846FFF747FE0346082800DD2CB1324634
:10582000394628460FF0F0FEF8BD32463946284684
:1058300010F08AF8F8BD000070B5044609480D461E
:10584000016819B90849016001F05EF90548001FB7
:10585000006800B10024002D00DC01250348055537
:1058600070BD000078020020B944010864020020E5
:10587000094A126802B10020074A243252F8203047
:10588000002B07DBA2F1180343F820104FF0FF3183
:1058900042F82010704700007402002010B5002864
:1058A00021D009B30AB3B1F90040B2F900309C42EB
:1058B00000DA23460380B1F90240B2F902309C427B
:1058C00000DA23464380B1F90440B2F904309C4227
:1058D00000DD23468380B1F90610B2F9062091421B
:1058E00000DC1146C18010BD11460A68026049689B
:1058F000416010BD00280BD003880B4403808388CF
:1059000019448180418811444180C1881144C1807B
:105910007047000070B50025FFF700FC094CD4E982
:10592000002082420AD0D2E9005610460DF00CFD4C
:1059300020603146284607F0EDFE012500F0C2FA4E
:10594000284670BDE40200202DE9FC41154DDDE93B
:1059500008742D68B5F90860864200DD3046B5F957
:105960000C60964200DA3246824219DBB5F90A60D1
:105970008E4200DD3146B5F90E509D4200DA2B46CD
:105980008B420DDB00E02C46E5682D6825B1042D27
:1059900002D02568002DF6D1CDE9007401F048FE53
:1059A000BDE8FC8114020020B0F90220B1F90630F4
:1059B0009A4213DCB1F90220B0F906309A420DDCAC
:1059C000B0F90020B1F904309A4207DCB1F90010B7
:1059D000B0F90400814201DC0120704700207047CB
:1059E0000146024870220068FAF75BBC14020020EE
:1059F000024970220968FAF754BC00001402002022
:105A000010B5FFF78BFB01F0DFFE01F0E5FF07F0BB
:105A100065FBBDE8104000F055BA000070B50B4DB5
:105A200004462868467CFFF779FB022C09D2204601
:105A3000FEF7BEFB28B128684474FFF7E1FF044875
:105A4000046000F03FFA304670BD000014020020F0
:105A50003003002010B50446FFF760FB204601F03C
:105A6000D3FEBDE8104000F02DBA10B50446FFF794
:105A700055FB204601F000FFBDE8104000F022BABF
:105A800010B50446FFF74AFB204601F023FF044609
:105A900000F018FA204610BD70B50446FFF73EFB33
:105AA00004480068C56904B1C46100F00BFA2846D7
:105AB00070BD0000140200200249CA69C861104686
:105AC00070470000D0010020014948607047000085
:105AD0000002002002494A684860104670470000F2
