:020000040800F2
:1000000030FE0020C1010008C9520008153E00085A
:10001000DD5100081D160008819F00080000000047
:10002000000000000000000000000000A999000886
:10003000A91D0008000000003D0A00086D6A0008C4
:10004000FB010008FB010008FB010008FB010008A0
:10005000FB010008FB010008FB010008FB01000890
:10006000FB010008FB010008FB010008FB01000880
:10007000FB010008FB010008FB010008FB01000870
:10008000FB010008FB010008FB010008FB01000860
:10009000FB010008FB010008FB010008FB01000850
:1000A000FB010008FB010008FB010008FB01000840
:1000B000FB010008FB010008FB010008FB01000830
:1000C000FB010008FB010008FB010008FB01000820
:1000D000FB010008FB010008FB010008AD9D0008C2
:1000E000FB010008FB010008FB010008FB01000800
:1000F000FB010008FB010008FB010008FB010008F0
:10010000FB01000879870008FB010008FB010008DB
:10011000FB010008FB010008FB010008FB010008CF
:10012000FB010008FB010008FB010008091B000897
:10013000FB010008FB010008FB010008FB010008AF
:10014000FB010008FB010008FB010008FB0100089F
:10015000FB010008FB010008FB010008FB0100088F
:10016000FB010008FB010008FB010008FB0100087F
:10017000FB010008FB010008FB010008FB0100086F
:10018000FB010008FB010008FB010008FB0100085F
:10019000FB010008FB010008FB010008FB0100084F
:1001A000994F0008FB010008FD1A0008DFF80CD089
:1001B00000F058FB00480047D935010830FE002008
:1001C000DFF83800016841F470010160BFF34F8F20
:1001D000DFF82C00016821F040410160BFF36F8F10
:1001E0000848804708480047FEE7FEE7FEE7FEE7CD
:1001F000FEE7FEE7FEE7FEE7FEE7FEE788ED00E04C
:1002000034EF00E03D9D0008AD01000872B6704774
:1002100062B67047EFF3108072B6704780F31088B3
:10022000704730BF704720BF7047B0FA80F070470A
:1002300090FAA0F0B0FA80F0704790FAA0F0704702
:100240002DE9F05F0546002092469B46884606460B
:10025000814640241BE0284641464746224600F09E
:10026000E4F953465A46C01A914110D31146184634
:10027000224600F0CBF92D1A67EB01084F462246C3
:100280000120002100F0C2F917EB00094E41201EA9
:10029000A4F10104DFDC484631462A464346BDE866
:1002A000F09F10B5441A0346944209D284181144B1
:1002B00003E011F8013D04F8013D521EF9D210BDD2
:1002C00040EA0104A40703D009E010C9121F10C3BB
:1002D000042AFAD203E011F8014B03F8014B521E35
:1002E000F9D210BDD2B201E000F8012B491EFBD2B9
:1002F00070470022F6E710B513460A460446194631
:10030000FFF7F0FF204610BD2DE9FE4F804681EA41
:100310000300C00F0C46009021F0004123F000457F
:10032000B8EB0200A94105D24046214690461C4642
:100330000B46024623F00040104347D0270DC7F379
:100340000A00C3F30A510290401A019040286BDA68
:10035000C3F3130040F4801B0098924620B10023A1
:10036000D2EB030A63EB0B0B01985946C0F1400234
:10037000504600F04BF906460D4650465946019A44
:1003800000F063F910EB08006141002487EA115284
:1003900084EAE7731A4340D0009A62B3019A012AB3
:1003A0004FEA075215DC001B61EB02014FF00042DF
:1003B00002EA0752CDE90042001C41F580113246A5
:1003C0002B4600F063F903B0BDE8F08F40462146AC
:1003D000F9E7001B61EB0201001C41F580130018D6
:1003E0005B412018A2F5001747EB030140EAD570E6
:1003F000B6196D4111E06D084FEA360645EAC07541
:100400004FEA0752001B61EB0201001C41F580110D
:1004100049084FEA30000019514132462B4603B0DB
:10042000BDE8F04F00F023B90098012240000023FE
:10043000D0EB020263EBE073009821464FEAE074D0
:10044000B8EB000061EB0401E9E783F000435BE7F0
:1004500081F0004158E72DE9FE4F81EA030404F0E2
:10046000004421F0004100944FF0000B23F00043C2
:1004700050EA01045ED052EA03045BD0C3F30A548D
:10048000C1F30A552C44A4F2F3340194A0FB0254A6
:10049000C1F3130141F48011C3F3130343F4801338
:1004A00001FB024400FB034E840A970A44EA81548C
:1004B00047EA8357A4FB076802958D0A05FB078569
:1004C0004FEA932C04FB0C542705029D4FEA065873
:1004D00047EA1637B5EB08056EEB070C870E920E50
:1004E00047EA811742EA8312A7FB0201B6EB0B0130
:1004F00064EB00042B0D43EA0C335E1844EB1C50F4
:10050000DA465146E7FB0201C5F313044FEA0B3309
:1005100043EA14534FEA0432019C43EA0603A4F170
:100520000C040294009CCDE900B400F0AFF803B0D5
:10053000BDE8F08F00200146F9E70EB5C10F80EA53
:10054000E0700844CA07002140F233438DE80E00F2
:100550000A460B4600F09AF803B000BD0EB540F213
:10056000334102910021CDE900110A460B4600F00B
:100570008DF803B000BD70B5C1F30A5201F000451B
:100580000024C1F3130140F2FF3341F480119A4279
:1005900001DA002070BD40F233439A42A2F23342A6
:1005A00003DC524200F041F800E090402C43F1D0CF
:1005B000404270BDC1F30A5210B5C1F3130140F2BD
:1005C000FF3341F480119A4201DA002010BD40F25D
:1005D00033439A42A2F2334203DC524200F025F840
:1005E00010BD904010BD00F0004230F000400AD035
:1005F000C10D01F56071C0F3160042EA0151C20855
:10060000400711437047002001467047202A04DB51
:10061000203A00FA02F1002070479140C2F1200315
:1006200020FA03F3194390407047202A04DB203A54
:1006300021FA02F00021704721FA02F3D040C2F102
:1006400020029140084319467047202A06DBCB1749
:10065000203A41FA02F043EAE07306E041FA02F37D
:10066000D040C2F12002914008431946704710B5AE
:10067000141E73F1000408DA401C41F100019218C5
:100680005B411A4301D120F0010010BD2DE9F04D6E
:1006900092469B4611B1B1FA81F202E0B0FA80F2C3
:1006A00020329046FFF7B2FF04460F4640EA0A00A8
:1006B00041EA0B0153465A46084313D0114653EA08
:1006C000010019D0C8F140025046FFF7AEFF0546C1
:1006D0000E46504659464246FFF798FF084305D05C
:1006E000012004E020463946BDE8F08D0020054396
:1006F00046EAE0762C4337430A986305E40AA0EB08
:1007000008000022FD0A44EA47540A3002D50020BE
:100710000146E9E7010510196941DDE908450019BD
:100720006941BDE8F04DA2E72DE9F04D81EA0304EF
:1007300004F0004B21F0004514464FF0000A23F06E
:10074000004150EA050220D054EA01021DD0C5F351
:100750000A570246C5F31303C1F31300C1F30A5647
:1007600040F4801543F48013A7EB0608101BD6460F
:1007700008F2FD3873EB050002D308F1010801E02F
:1007800092185B41B8F1000F03DA00200146BDE882
:10079000F08D00204FF48011064684460EE0171BB2
:1007A00073EB050705D3121B63EB050306434CEA05
:1007B000010C49084FEA300092185B4150EA0107EA
:1007C000EDD152EA030012D082EA040083EA050167
:1007D000084305D0101BAB4106D20122002306E0DE
:1007E00000224FF0004302E06FF0010253101AEBB9
:1007F00006004CEB085110EB0A0041EB0B01BDE881
:10080000F04DFFF734BF70B521F0004303430CD027
:10081000C1F30A550024D5EB040564EB0403D61795
:10082000AD1AB34102DB0020014670BD201841EB38
:10083000025170BD30B5041E71F1000404DB4FF0AD
:100840000044404264EB0101141E73F1000405DB17
:100850001C464FF00043524263EB0403994208BF29
:10086000904230BD064C074D06E0E06840F00103C1
:1008700094E8070098471034AC42F6D3FFF79AFC8F
:1008800048110408681104082DE9F04D00231A46A8
:100890001B1A8A4103DB00200146BDE8F08DC1F33D
:1008A0000A52C1F3130141F480154FF0000BD10738
:1008B00002D100186D41521E0027044640F2FF117C
:1008C000384601EB620A3E468046024600204FF45D
:1008D0008011FFF7AAFEC2197141BB1846EB010057
:1008E000B4EB030C75EB000C04D3E41A65EB0005C4
:1008F00017460E46241908F101006D418046342840
:10090000E3DDF91946EB0600091BA84103D24FF0BD
:10091000FF32134601E0002213461BEB070046EBB3
:100920000A51BDE8F04DFFF7A2BE70B58C1810F863
:10093000015B15F0070301D110F8013B2A1106D124
:1009400010F8012B03E010F8016B01F8016B5B1E3E
:10095000F9D12B0705D40023521E0DD401F8013B19
:10096000FAE710F8013BCB1A921C03E013F8015B85
:1009700001F8015B521EF9D5A142D8D3002070BD09
:10098000EFF3098141B1F1EE101A40F8041D20ED9A
:10099000200A3E490A6810607047B0EC200A02C87D
:1009A000E1EE101A3A490A681060704772B64EF6C6
:1009B0002250CEF2000040F2FF01C0F200010170AF
:1009C0004FF0000080F3098805F006FF40F2281080
:1009D000C2F20000016881F3088840F2A200C2F26E
:1009E000000040F2A301C2F200010A78027040F256
:1009F0002015C2F2000540F22411C2F200010A687B
:100A00002A60106880F30988EFF3148040F0020038
:100A100080F31488BFF36F8FBDE8F00F0FBCBDE803
:100A2000005006BC62B608471A484FF0805101607A
:100A3000704718484FF080510160704772B6EFF36D
:100A4000098020E9F00F40F22015C2F200052E685F
:100A50003060744605F0C0FE40F2A200C2F2000011
:100A600040F2A301C2F200010A78027040F22411A0
:100A7000C2F200010A682A6044F0F40E1068B0E87F
:100A8000F00F80F3098862B6704700002001002053
:100A90002401002004ED00E0002904D0816841F029
:100AA000010181607047816821F001018160704718
:100AB000084A1168084B1940D0F804C0036843EA9B
:100AC0000C03D0F808C0C0684CEA00001843084383
:100AD0001060704704230140E030FCFF002904D07F
:100AE000816841F4807181607047816821F4807170
:100AF00081607047002904D0816841F400718160F1
:100B00007047816821F400718160704710B44268B9
:100B100022F4807222F0407291F804C00B6842EA1D
:100B20000C221A43426082680D4B1A40D1F80CC067
:100B30000B694C7943EA0C03D1F808C04CEA440C29
:100B400043EA0C031A438260C26A22F47002097DF0
:100B5000491EC9B242EA0151C16210BC704700008F
:100B6000FDF7FFC030B4072509290CD9C468A1F1ED
:100B70000A0C0CEB4C0C05FA0CF5AC4303FA0CF325
:100B80002343C36009E0046901EB410C05FA0CF54D
:100B9000AC4303FA0CF3234303614FF01F0C072A05
:100BA0000CD2436B521E02EB82020CFA02FC23EAC7
:100BB0000C0391401943416330BC70470D2A0CD29D
:100BC000036BD21F02EB82020CFA02FC23EA0C0335
:100BD00091401943016330BC7047C36A0D3A02EB80
:100BE00082020CFA02FC23EA0C0391401943C16211
:100BF00030BC7047816841F08041816070470021BE
:100C00000160017141718160C16001610121017563
:100C10007047000084B000240025DFF87880DFF8FA
:100C20007890002703AED8F8300201281DD199F83A
:100C30000000002819D103A9184805F0C1FD03A937
:100C4000174805F0BDFD012455B916A00FF0ACFE04
:100C500000230522194618460097019605F03CFE30
:100C6000E843C5B21AA012F01EFD012C08D103A959
:100C70000A4805F0A3FB03A9094805F09FFB0024DF
:100C80000022FA23114610460097019605F024FE33
:100C9000C9E70000000043423E0000202416002067
:100CA000191100084054657874546F53706565637A
:100CB0006823C4E3BAC3A3ACD3D0CAB2C3B4CED200
:100CC000BFC9D2D4B0EFC4E3B5C4C2F0A3BF2400FF
:100CD0006F6E0A0082B0064C206880F400502060DD
:100CE00001AA00214FF47A7005F0B4FDF4E700008A
:100CF0001408024086B0164E002505AC03A904A8CE
:100D000000F08FFED8B9BDF810004CF6CD41484335
:100D1000C10C0491BDF80C004CF6CD425043C00C00
:100D20000390304609F03AF905AA00214FF47A7091
:100D300005F090FDBDF80C10304609F02FF90023A6
:100D40000A22194618460095019405F0C5FDD5E71D
:100D5000001001402DED048B84B000271A4CDFED0C
:100D60001B8A9FED1B9A1B4D1B4E0DF10C08208812
:100D700000EE100AB8EE400A20EE280A20EE098A9A
:100D800018EE100AFFF72FFC41EC100B13A053ECE8
:100D9000102B12F088FC18EE100AA84209DC3078FB
:100DA00038B90022114616A00FF070F918A00FF004
:100DB000FBFD00231A4605211846CDF80480009754
:100DC00005F08AFDD3E700003C00002000008039D8
:100DD000CDCC5441000020413E0000200D0A20549B
:100DE00068652063757272656E7420414420766177
:100DF0006C7565203D2025662056200D0A000000F8
:100E0000303A6D65696469616E2E6A706700000032
:100E10004054657874546F53706565636823BFEC04
:100E2000C3BBB5E7C1CBA3ACD2AAB8F8CED2BBBB8B
:100E3000B5E7B3D8BFA9A3A12400000084B0012462
:100E4000002603AD012C04D1002211460FA00FF0A3
:100E50001DF9022C04D1002211460FA00FF016F943
:100E6000032C04D1002211460EA00FF00FF900232D
:100E70001422194618460096019505F02DFD601CB8
:100E8000C4B2042CDED30124DCE70000303A7063E6
:100E90002E6A706700000000303A7063322E6A706C
:100EA00067000000303A7063332E6A7067000000FC
:100EB0002DE9F0478AB000F0B2FB00F095FA00F09F
:100EC0000DFB04F091F9012256A1574811F034FDB1
:100ED0005649487009A804F0E3FF554A09AD4FF0A0
:100EE0000408462353A1A2F12000CDF8008001950B
:100EF00004F06EFB002403264FF42F79514806942A
:100F0000059405274FF0460A0796CDF80C900190FE
:100F100023464D4A4DA1CDF808A0049700960895A8
:100F2000A0F5E86005F01EF8802008950390059470
:100F30000C214A4A079606940720019202910090DC
:100F400004970023464A47A14A4805F00BF84A484F
:100F500006940594CDF808A0CDF80C9001900023DC
:100F6000464A47A1CDF8008004970796089548485F
:100F700004F0F8FF4FF496701E21464A0796089534
:100F80000694059401920291039004970023009720
:100F9000414A42A1454804F0E5FF4FF4007008952E
:100FA000039005943321424A079606940820019243
:100FB00002910090049700233E4A3FA1424804F06A
:100FC000D1FF42480694019005944FF064084FF019
:100FD0000A090620CDF80890CDF80C8000900497FF
:100FE0000796089500233A4A3AA1404804F0BAFF10
:100FF0003F480694019005940920CDF80890CDF85B
:101000000C8000900796089504940023394A3AA171
:101010003F4804F0A7FF09A93E4805F065F80AB06B
:10102000BDE8F087303A0000FC0300203E000020BD
:101030004C1400204D656D20466F7220546573740A
:1010400000000000641D00203D0E0008417070206B
:101050005461736B2053686F774251005430002005
:10106000D50C0008417070205461736B204C65648E
:1010700031000000A417002054320020191100088C
:10108000417070205461736B2074616C6B000000C0
:1010900064180020443D0020F50C000841707020C9
:1010A0005461736B204C65643300000024190020E8
:1010B00054280020550D0008417070205461736B56
:1010C00020506F7765720000E4160020F441002084
:1010D000150C0008417070205461736B20436865E3
:1010E000636B50656F706C6500000000E4190020B0
:1010F00084430020919A000853797374656D4461AC
:1011000074617342726F6164636173740000000004
:10111000A41A00206415002086B00024614F4FF00F
:10112000010905AEA046002302AA194618460096FA
:1011300005F078F805465CA0298812F0B4FA87F823
:1011400000902A88062A2ED007DC012A0ED0022A17
:101150001AD0042A40F099801BE00C2A65D00F2A8F
:1011600056D0142A40F0918000F083B853A012F0BA
:101170009AFA05AA00214FF4FA6005F06BFB51A022
:101180000FF012FC00F081B856A012F08CFA00F0BB
:101190007CB856A012F087FA05AA00214FF47A70A5
:1011A00005F058FB71E053A012F07DFA03A904A8E2
:1011B00000F037FC18B151A00FF0F6FB65E0BDF868
:1011C0000C004CF6CD414843C20CBDF8100048431A
:1011D000C10C54A00FF0E8FB05A9604805F0F0FA37
:1011E000002211465EA00EF051FFBDF810001C2831
:1011F00007D35EA00FF0D8FB0022114663A00EF0CB
:1012000045FF05AA002144F6206005F023FB3CE0E1
:1012100061A012F048FA05A9504805F0D1FA002261
:1012200011465FA00EF032FF2FE060A012F03BFAF3
:1012300005A94A4805F0C4FA002211465DA00EF047
:1012400025FF14B95F480FF0AFFB012C02D15E48B7
:101250000FF0AAFB0023192219461846CDF800808A
:10126000019605F039FB601CC4B2022C0DD300249A
:101270000BE056A012F017FA05A9384805F0A0FABD
:101280000022114646A00EF001FF05A9334805F0E3
:1012900095F887F8008005AA29464E4804F017FA09
:1012A00041E700003E0000205265636569766544B1
:1012B000617461203D2025640A000000C4E3BAC3C4
:1012C0000A0000004054657874546F53706565637C
:1012D0006823D3D0CAB2C3B4CED2C4DCB0EFC4E367
:1012E000B5C42400C3FBD7D60A000000D0D4B1F0A7
:1012F0000A000000CEC2B6C80A000000405465785B
:1013000074546F53706565636823B0A1D1BDCED2AC
:10131000B5C4CEC2B6C8B4ABB8D0C6F7BBB5C1CBA6
:10132000240000004054657874546F537065656301
:101330006823CFD6D4DAB5C4CEC2B6C8CAC75B6EEE
:10134000325D2564A3ACCAAAB6C8CAC7B0D9B7D69D
:10135000D6AE5B6E325D25642400000024160020AA
:10136000303A7869616F2E6A706700004054657882
:1013700074546F53706565636823D5E2D5E6B5C4D0
:10138000CCABC8C8C1CBA3A124000000303A6B7518
:101390002E6A706700000000C9FAC6F80A00000053
:1013A000303A666168756F2E6A706700D0A6BBB070
:1013B0000A000000303A68616E7869616F2E6A70C9
:1013C00067000000A41004081C100408B1BFB5B0E9
:1013D0000A0000002C14002000B585B0684606F015
:1013E000BBFF019805B000BD10B50121080306F050
:1013F0006DFF4FF4A06003F0B1FF00F0D7FC00F0E8
:101400007BF800F0CDF807F039F81B4812F04BF9E3
:101410001A4812F048F91A4812F045F9174812F024
:1014200042F9154812F03FF903F072FD07F0C4FBD2
:1014300014A012F038F903F042F901F0CDFA14A02B
:1014400012F031F907F0AAF816A012F02CF900F00A
:1014500037FB68B118A012F026F9012002F03CF821
:101460006FF07F4002F054F8BDE8104001F064B91D
:1014700017A012F018F9F0E7D80F0408500F04086D
:10148000940F0408534452414D204F4B210A000051
:101490004755495F496E69742053756365737321BD
:1014A0000A00000041445F496E697420537563650A
:1014B0007373210A0000000048617665206E6F7426
:1014C0002066696E642044485432320A00000000ED
:1014D0004448543232204F4B210A000010B5FFF728
:1014E0007BFF04490968B0FBF1F0BDE8104005F04E
:1014F000CFBA0000483C010870B586B00121022037
:1015000006F0E4FE0121880406F0FCFE224E0722CC
:101510000B21304600F07BFE07220A21304600F006
:1015200076FE00248DF8164001218DF81710022553
:101530008DF81450890204918DF8155004A9304695
:1015400000F01AFE8DF81450A802049004A9304649
:1015500000F012FE4FF4E1300090ADF80440ADF819
:101560000640ADF80840ADF80C400C20ADF80A007C
:101570000A4C6946204608F093FC03F0A6FE0122BF
:1015800040F22551204608F06EFC0121204608F06B
:1015900033FC06B070BD000000040240004800406B
:1015A00030B587B00121402006F090FE01212020B7
:1015B00006F0B6FE174D08220E21284600F027FE41
:1015C00000248DF8164001218DF8171002218DF8A6
:1015D00014104A0304928DF8151004A9284600F04F
:1015E000CBFD4FF4E1300090ADF80440ADF806407B
:1015F000ADF80840ADF80C400820ADF80A00064CE4
:101600006946204608F04CFC0121204608F0F4FB16
:1016100007B030BD0018024000140140FEE710B5CD
:1016200000F018F8BDE8104000F010B810B5FEF753
:10163000F1FD04461021044803F0D1FD2046BDE829
:101640001040FEF7EBBD00003CA50020FFF7EEBF09
:10165000FEE7000002490020086000F009B8000021
:101660005800002001490860704700005800002021
:1016700010B5FFF7B1FE08490A6842F080720A60AF
:10168000064900224A600A6842F001020A60BDE889
:101690001040FFF7E7BF0000FCED00E0001000E0A5
:1016A0000148406870470000001000E070B5002558
:1016B0004FF4803400E0641E24B1802007F036F837
:1016C0000028F8D02CB140F2FF5006F0EBFF28467E
:1016D00070BD032070BD000070B505460024474969
:1016E000086810F0450F03D1086810F0450FFBD0D3
:1016F00010F0040F05D00324042006F0D3FF204689
:1017000070BD10F0010F05D00124012006F0CAFFC2
:10171000204670BD07F004F8A84201D0102070BD2B
:1017200040F2FF5006F0BEFF002007F01BF83449DE
:10173000084201D1204670BD10F0004F01D01C209E
:1017400070BD10F0804F01D0092070BD10F0005F17
:1017500001D00A2070BD10F0805F01D00B2070BD59
:1017600010F0006F01D00C2070BD10F0806F01D020
:101770000D2070BD10F0807F01D00E2070BD10F4E0
:10178000000F01D00F2070BD10F4800F01D0102089
:1017900070BD10F4001F01D0112070BD10F4801F27
:1017A00001D0122070BD10F4002F01D0132070BDA5
:1017B00010F4802F01D0142070BD10F4003F01D030
:1017C000152070BD10F4803F01D0162070BD10F4BC
:1017D000004F01D0172070BD10F4804F01D01820A9
:1017E00070BD10F4005F01D0192070BD10F0080F1B
:1017F00001D01A2070BD204670BD0000342C01407D
:1018000008E0FFFD10B50024104A116811F0450FE3
:1018100003D1116811F0450FFBD011F0040F05D072
:101820000324042006F03EFF204610BD11F0010FF6
:1018300005D00124012006F035FF204610BD40F2FE
:10184000FF5006F02FFF204610BD0000342C014051
:1018500010B500240B4A116811F0450F03D111682F
:1018600011F0450FFBD011F0040F05D00324042024
:1018700006F018FF204610BD40F2FF5006F012FFA0
:10188000204610BD342C014070B506460C4600259C
:101890001F4A106810F0450F03D1106810F0450F73
:1018A000FBD010F0040F05D00324042006F0FAFE4C
:1018B000204670BD10F0010F05D00124012006F074
:1018C000F1FE204670BD06F02BFFB04201D0102083
:1018D00070BD40F2FF5006F0E5FE002006F042FF2A
:1018E00010F4604F04D010F4005F05D0132070BDD9
:1018F000000C2080284670BD10F4804F01D01020CD
:1019000070BD10F4004F01D00F2070BD284670BD8F
:10191000342C014010B500204FF480310E4B1A6872
:1019200001E0491E1A6812F0450F01D10029F8D1D3
:1019300011B112F0040F05D00324042006F0B2FE0A
:10194000204610BD12F0400FFBD00024402006F0CE
:10195000A9FE204610BD0000342C014070B50024C3
:101960001448016821F00C01016001680160124D0A
:1019700004E0601CC4B2012010F0AAF9D5F80402FA
:1019800008B1642CF5D3642C01D3012070BD002470
:1019900004E0601CC4B2012010F09AF9D5F80402EA
:1019A00008B9642CF5D3642C01D3012070BD00204C
:1019B00070BD0000000802400000414270B50024E4
:1019C000104D04E0601CC4B2012010F081F9D5F87C
:1019D000040208B1642CF5D3002404E0601CC4B2F6
:1019E000012010F075F9D5F8040208B9642CF5D37C
:1019F0001E2010F06DF9D5F8040208B1012070BD69
:101A0000002070BD0000414270B500200024400657
:101A1000050EFFF7D3FF2843611CCCB2082CF6D388
:101A200070BDF0B583B006460F4600F02DF8FFF705
:101A300095FF10B103B00120F0BD002401ADFFF708
:101A4000E3FF2855601CC4B2052CF8D39DF80400B0
:101A50009DF805109DF8072008449DF806101144D4
:101A600008449DF8081088420BD101A808F096F9A7
:101A700010F03EFA3880A81C08F090F910F038FAFF
:101A8000308003B00020F0BD10B50B48016821F094
:101A90000C010160016841F004010160074C002065
:101AA0002060142010F00FF901202060BDE81040E4
:101AB0001E2010F00DB900000008024084024142CF
:101AC00000B583B00121042006F000FC0220009044
:101AD00001218DF8041000228DF806208DF80710E2
:101AE0008DF805006946044800F046FBFFF7CCFF7F
:101AF000FFF734FF03B000BD000802400149022097
:101B00008860704700B0024007F032BD074A90423B
:101B100001D2074800E00748074A11F0005F01EAD8
:101B2000020101D0C16070478160704710640240BB
:101B300000600240006402407D0F7D0F002904D048
:101B4000016841F0010101607047016821F0010165
:101B5000016070472DE9F003016821F00101016087
:101B60000021016041608160C1600161212141610A
:101B7000444A45494FF03D08904204D1C1F80880DD
:101B8000BDE8F0037047414A4FF47464904203D1BA
:101B90008C60BDE8F00370473D4A4FF474159042E5
:101BA00003D18D60BDE8F00370473A4A4FF0746688
:101BB000904203D18E60BDE8F0037047364B374A40
:101BC000984203D1CA60BDE8F0037047DFF8D0C087
:101BD000344B604503D1CB60BDE8F0037047324F12
:101BE000DFF8C8C0B84204D1C1F80CC0BDE8F003AA
:101BF0007047DFF8BC904FF03D57484503D1CF60A8
:101C0000BDE8F0037047DFF8AC902B49484504D19C
:101C1000C1F80080BDE8F0037047DFF8A0804045C0
:101C200003D10C60BDE8F0037047254CA04203D1FE
:101C30000D60BDE8F0037047224CA04203D10E6056
:101C4000BDE8F0037047204C2049A04203D10A6050
:101C5000BDE8F00370471E4A904203D10B60BDE817
:101C6000F00370471B4A904204D1C1F800C0BDE8A0
:101C7000F0037047184A9042F9D10F60BDE8F003B5
:101C8000704700001060024000600240286002407F
:101C90004060024058600240706002403D000020F9
:101CA00088600240400F0020A060024000003D20FC
:101CB000B860024010640240086402402864024098
:101CC0004064024058640240706402400C64024068
:101CD00088640240A0640240B8640240002904D035
:101CE000016841F0200101607047016821F0200186
:101CF0000160704711F0800F09D022B1436943F0B1
:101D00008003436103E0436923F08003436180293A
:101D100005D001F01E011AB102681143016070473D
:101D2000026822EA010101607047000010B40268F5
:101D30001C4B1A40D1F80CC00B688C6943EA0C03A9
:101D4000D1F814C04CEA040C43EA0C03D1F81CC0CF
:101D500043EA0C03D1F820C043EA0C03D1F824C0B5
:101D600043EA0C03D1F828C043EA0C03D1F834C08D
:101D700043EA0C03D1F838C043EA0C031A4302606B
:101D8000426922F00702D1F830C0CB6A43EA0C0363
:101D90001A4342610A6942604A6882608968C16088
:101DA00010BC70473F801CF07047000070B586B0D3
:101DB0000121084606F08AFA0121102006F0B0FA47
:101DC0001E4E07220A21304600F021FA072209217F
:101DD000304600F01CFA00248DF8164001218DF8E1
:101DE000171002258DF81450490204918DF81550F2
:101DF00004A9304600F0C0F98DF814506802049030
:101E000004A9304600F0B8F94FF4E1300090ADF885
:101E10000440ADF80640ADF80840ADF80C400C2089
:101E2000ADF80A00064C6946204608F039F8012151
:101E3000204607F0E1FF06B070BD00000000024040
:101E40000010014000234FF0204210280BD0B0F5C5
:101E5000807F0AD0B0F5805F0AD0D2F8580131EA0D
:101E6000000009D107E0506EF9E7D2F88400F6E7E8
:101E7000D2F8A400F3E701231846704742680168CE
:101E800011438268C068521E520142EA4020084352
:101E90000149086070470000500100A030B4036899
:101EA0009900A1F1C041D1F840116FF30E01D0F8B3
:101EB00008C04268046942EA0C02D0F80CC04CEA3F
:101EC000040C42EA0C02D0F814C042EA0C02D0F82A
:101ED00018C042EA0C0CC2694CEA0204D0F820C0D7
:101EE00044EA0C05446A254329434FF02045002B62
:101EF00048D0D5F840316FF30E0342EA0C02234379
:101F00001A43C5F8402102689200A2F1C042C2F80B
:101F100040110168A9B38900A1F1C041D1F848116D
:101F200001F07042816A0B68D1F804C05B1EACF10D
:101F3000010C43EA0C13D1F808C0ACF1010C43EAE0
:101F40000C23B1F810C0ACF1010C43EA0C431A4366
:101F5000D5F8483103F07043D1F80CC0898AACF150
:101F6000010C4FEA0C3C491E4CEA01511943C5F8DB
:101F7000481100688000A0F1C040C0F8482130BC82
:101F8000704702E0C5F84011C3E7D5F8481101F0E9
:101F90007041806A02684368521E5B1E42EA031267
:101FA00083685B1E42EA0322C3685B1E42EA033277
:101FB000038A5B1E42EA0342838A007E5B1E42EA7A
:101FC0000352401E42EA00600843C5F8480130BC95
:101FD0007047000002490A6842EA40000860704702
:101FE000540100A02DE9F04782B00E4600240025E0
:101FF000009501955D4F4FF00809C7F8009010203B
:1020000078604FF04008C7F80880FD604FF4806AA0
:10201000C7F810A0384606F0E5FB1020FFF75CFB80
:10202000002834D152480089000438603720786095
:10203000C7F80880FD60C7F810A0384606F0D2FB4C
:102040003720FFF749FB002821D1411E07F114007A
:102050000160C0F80490302181600221C1600561F7
:102060000121416106F036FB3D6033207860C7F8FE
:102070000880FD60C7F810A0384606F0B3FB332097
:10208000FFF72AFB8146B9F1000F03D0484602B0A2
:10209000BDE8F087374F386840F22A6810EA080F29
:1020A0000ED16D464FF4001006F040FB20B106F053
:1020B00093FB45F82400641C386810EA080FF1D03F
:1020C000082006F033FB30B1082006F0EBFA0420BC
:1020D00002B0BDE8F087022006F028FB30B10220F4
:1020E00006F0E0FA022002B0BDE8F087202006F0FA
:1020F0001DFB30B1202006F0D5FA062002B0BDE865
:10210000F0874FF4007006F011FB38B14FF4007007
:1021100006F0C8FA072002B0BDE8F08740F2FF5091
:1021200006F0C0FA00980099000601F47F4140EAE9
:102130000120009901F47F0140EA1120009940EA52
:102140001160706001980199000601F47F4140EA36
:102150000120019901F47F0140EA1120019940EA30
:102160001160306002B04846BDE8F087D00300201F
:1021700024000020342C01402DE9F001002201262A
:10218000032706FA02FC0B6803EA0C03634538D107
:102190000568530007FA03F4A54305600D79D0F8EC
:1021A00000809D4045EA080505600D79012D01D0AC
:1021B000022D17D18568A54385604D79D0F8088038
:1021C0009D4045EA08058560456825EA0C0CC0F885
:1021D00004C0D0F804C08D799540ADB24CEA050C2E
:1021E000C0F804C0D0F80CC02CEA040CC0F80CC035
:1021F00091F807C00CFA03F3D0F80CC043EA0C03C3
:10220000C360521C102ABCD3BDE8F00170474B07D5
:10221000DB0E9A40C90800EB8100016A4FF00F0CF9
:102220000CFA03F399430162016A1143016270479A
:102230004183704701837047014AC2E9000170473A
:102240007C010020014AC2E900017047840100209E
:10225000014AC2E90001704748020020014AC2E970
:10226000000170478C010020014AC2E9000170475B
:10227000500200202DE9F04FDFF828B191B04FF067
:10228000FF35DBF80030B3F922100691DE69B3F9AF
:102290002490F469A189814206D8E289824203D35D
:1022A000471AD4F8008012E0D4E9018100296FD0E8
:1022B0000A8882426CD84D88854269D3801A82B2DE
:1022C000486800EB8200B0F90070B0F90250781C49
:1022D0005ED0307EA17C10FB01FA217CCDE90701A4
:1022E000B3F92A60304602F005FBC0B20E90DBF86D
:1022F000000007FB0A81A37C826B0127CDE9041251
:10230000CDE90273C069089AC17E807ECDE90001E3
:10231000DDE90603494601F0B9FD681C18D046F016
:10232000020002F0E7FADBF80000A37C05FB0A815B
:10233000826BCDE90273CDE90412C069089AC17EAF
:10234000807ECDE90001DDE90603494601F09EFDEE
:10235000DBF800005D46C069417E007E814214D9F1
:10236000022E12D086F0040002F0C4FA2868C06978
:10237000027EC37E12FB0391437E857E089A0698F7
:102380004B4412FB050201F0E3FE0E9802F0B2FA94
:10239000DBF80000627C418C1144418411B0BDE83F
:1023A000F08F0000D801002004480068C069C069AF
:1023B00009B1027C0A60407C70470000D80100200F
:1023C000022008807047C06982898A4202D8C28987
:1023D0008A4210D2806880B102888A420DD8438830
:1023E0008B420AD3406800EB8100A0EB8200B0F979
:1023F0000000002801DB012070470020704700002A
:102400002DE9F0410025154E154C18E02069C5EB6B
:10241000051700EBC7007022001D3168FDF741FF72
:102420002069002140F8371000EBC70000F10C01D3
:102430008161011D0A1DC0E90F126D1C4164A06875
:102440008542E3DB0BF0FCFE2169C0EB001001EBE1
:10245000C000001D3060BDE8F0810000D801002000
:102460009002002070B510490E480860084601F03F
:1024700083FC0D4C143CA068C0EB0010C50028463E
:1024800000F06CF8094B20612A461B680021984730
:102490004FF0FF30206001F0C7F9BDE870400BF04D
:1024A000CFBE000079F80008A402002078020020C6
:1024B00010B5040009D000F0A1FD204608F068FA2C
:1024C000044601F075F9204610BD002010BD000043
:1024D00038B5054600F092FD2846FFF7E9FF0400F5
:1024E0000AD000F0B3F8064B00902A461B68002182
:1024F0009847684600F0E0F801F05AF9204638BDE8
:1025000078020020024A106021F0030050607047FA
:10251000F8DC002010B5040011D000F06FFD084871
:10252000042101EBC401406B4158486808F0E8F908
:1025300020460DF057FABDE8104001F039B910BD42
:1025400038DC0020002805D0034AD16B016001B1BE
:102550004860D0637047000038DC00202DE9F0416E
:1025600004460CF005FC2848E41C24F00305016C2B
:102570002D1DA94200D90D46C46B13E054F8042C5C
:10258000AA420ED184B1216809B162684A606168CB
:1025900009B122680A60C26BA24231D12168C163CD
:1025A0002EE02468002CE9D18046816BC0680F18AA
:1025B00057F8040C3E1A306838B100200DF0F4FAD8
:1025C00057F8040C3E1A3068D0B97068A84217DB7F
:1025D0003044441B3046241D0DF0CCFAD8F80C10C2
:1025E000491BC8F80C10D8F814102944C8F8141066
:1025F0007068401B02D0314608F082F944F8045C50
:102600002046BDE8F081000038DC002010B5002431
:102610000CF0AEFB0C490F2001EBC002526C1AB15A
:1026200001EBC000406C08E0401EF5D508E04168B1
:10263000A14200D90C46806810B180680028F6D10C
:10264000A4F10C0010BD000038DC00200549CA6967
:10265000521CCA61496B01EBC0010A78521C0A7016
:1026600000F042B838DC002010B500F0C7FCFFF7DE
:10267000CDFF64220849B0F5800F04D990FBF2F435
:10268000086A444303E0096A4143B1FBF2F401F0F4
:102690008FF8204610BD000038DC002005491028C6
:1026A00005D94A68B0EB520F02D3500800E0102061
:1026B00088607047F8DC00200A4902684B6B52F8CA
:1026C000082C03EBC2021378022B03D3CB690BB1A6
:1026D0005B1ECB611178491E117000210160084614
:1026E0007047000038DC00200349042202EBC000E0
:1026F000496B08580830704738DC002010B5C2B26A
:10270000CBB2D21A00D5524293B25B43C0F3072238
:10271000C1F30724121B00D55242000C92B2A0EB69
:10272000114002FB023200B2002801DA404200B23E
:1027300080B200FB002010BD10B50021084600F05B
:102740003BF943F6FF725042BDE810401346014684
:10275000AFF300802DE9FC411C4615460E460746A6
:1027600000F04CFC042002F0C5F880461248406995
:10277000C16C006D0F4406440D440444ADF8007074
:10278000ADF80450ADF80260ADF80640684607F0B9
:1027900041FF07E023462A463146384601F0D8FC7F
:1027A00007F0FAFE0028F5D1404602F0A3F800F049
:1027B000FFFFBDE8FC810000C40100202DE9F041CD
:1027C0001C4616460D460746022B02DB0020BDE8DC
:1027D000F0811C20FFF7C2FE0028F8D00DB1056182
:1027E0000AE0094A52F8241009B905E011460A68BE
:1027F000002AFBD1096901618461868200210160A0
:102800004160C0E90217E2E70402002070B51D46EE
:10281000FFF7D4FF040009D000F00EF8E06800686C
:1028200020B90348006800EB85008465204670BD30
:10283000D8010020FFF786BE70B5C0B38269022AB6
:1028400036DA2149531C0C789C4200DA0B701F4C7D
:1028500054F8221019B944F8220032E019464B68A6
:10286000002BFBD106E0CB68C5681B682D68AB4226
:1028700003DD09680029F6D11AE0C1B1CB68C6684A
:102880001B683668B3420CD1838A012B05D008E05F
:102890001946DB681B68AB4203DB0B68002BF7D1E2
:1028A00029B14B6833B118604A68426004E0FFE721
:1028B000012070BD44F822004860884200D1002108
:1028C0000160002070BD00000E0200200402002004
:1028D00010B503E00468FFF7AFFF20460028F9D1E8
:1028E00010BD000010B50C4B8269002153F8224046
:1028F000844205D1046843F82240026802B1516065
:1029000042680AB10368136002680AB14368536001
:102910000160416010BD00000402002000207047EB
:10292000022801DB00207047054951F8200004E02F
:10293000C16809680029F6D000680028F8D17047FE
:1029400004020020034951F82000C1688A6A082166
:10295000104700000402002010B500F04FFB0348B0
:102960000068047C00F024FF204610BDD801002040
:1029700070B515460E46044600F040FB2A46314627
:10298000204601F0C7FD040002D00020306028601E
:1029900000F00EFF204670BD024951F8200000698A
:1029A0000068704704020020024951F820000069C5
:1029B000406870470402002070B50C46054600F0E0
:1029C0001DFB044800684584848400F0F1FE00206B
:1029D00070BD0000D80100202DE9F0411D480168BC
:1029E00021F0010101601C480126866081680029F0
:1029F000FCD11A49016000681949884200D0FEE7FD
:102A000000F0DEFF174C2E20207000F0FFFE16486D
:102A10000CF07EF80FF01CFF074601F095FD10B199
:102A200001F09EFD38B901F0A4FD054601F095FDC9
:102A3000294601F059FF0021084600F08BFD07F000
:102A400019FCFFF7DDFCA06900B18047A67038468D
:102A5000BDE8F081002000E000300240C2A507F48C
:102A6000CDB5E8B5C401002004DD00201CB5CDE9DA
:102A700000016946014800F003F81CBDFB2D000869
:102A80002DE9F8431E46174688468146012500F089
:102A9000B5FA48F2BC40FFF71BFD040009D03B46E5
:102AA00042464946009609F097FD05462046FFF745
:102AB00031FD00F07DFE2846BDE8F8831CB5CDE968
:102AC00000016946014800F003F81CBDFB2D000819
:102AD0002DE9F84390460D460646012700F08EFA90
:102AE00048F2BC40FFF7F4FC04000FD0FFF7AEFD46
:102AF0000090C0E901656846FFF7DEFD41462046CB
:102B000000F08BF907462046FFF704FD00F050FE69
:102B10003846BDE8F883F8B50546FFF797FD009005
:102B200000F5E04090F81C636846FFF7C5FD0024FF
:102B300010E0012322461946284608F02FF930B943
:102B4000082322460221284608F028F908B101206E
:102B5000F8BD641CB442ECDB0020F8BD2DE9F04761
:102B600000F5E0448246DFF86491D4F88804A2B00E
:102B70004FF00108002538B194F80804F0B300BF05
:102B8000D4F8800430B32BE094F8090400285046B0
:102B900003D00CF01FFD90B915E009F0E9FA70B907
:102BA000D4F82014D4F8840488420CDC69465046DA
:102BB0000CF02CFF18B99DF80000D92803D0012093
:102BC00022B0BDE8F08784F80884D4F82004C4F863
:102BD0008804D5E7D4F87C04FFF738FDC4F88004F6
:102BE0000746D4F87404FFF731FD2090C0B10026E9
:102BF000D4F81804B04210DD209800E012E000EB99
:102C0000C611D9F800308022684698473946684690
:102C10000BF0A8FB761C4037EAE720A8FFF74CFD35
:102C200084F8085494F80A0405281CD2DFE800F060
:102C30002B270B0F030094F88804C0070BD15046D4
:102C400008F0E8FC0DE0504608F062FC09E094F85A
:102C50008804C00702D084F8948404E0504608F049
:102C6000C9FB84F89454D4F88804401EC4F888043E
:102C7000D4F88404401EC4F884040020A0E7504621
:102C800008F064FBEDE7D4F88814D4F82004461A61
:102C9000D4F88C04FFF7DAFC80460090D4F8800466
:102CA00000EBC607D4F80C6409E0D9F8003008221C
:102CB000394640469847761E08F108084037002EEE
:102CC000F3DC6846FFF7F8FCCBE700007C0200204D
:102CD00070B500F5E044054694F81C03042834D090
:102CE00028460CF099F828B194F81C0384F82D03B9
:102CF000002132E094F874232AB1002194F877334C
:102D00001BB1012002E00121F8E7002094F875636F
:102D1000B2421AD809B1C6B903E094F82D23012AAA
:102D200013D118B194F876239A420ED121B108B18B
:102D30000E4905E00E4903E008B10E4900E00E49D6
:102D4000284609F097FB0028CAD0012070BD6818FA
:102D500000F5E04080F82E13491C94F82D038842BA
:102D6000F5DC284607F0C4FE002070BD25C1000830
:102D70003DC0000895BF00081DBD00082DE9F041C9
:102D800000F5E0440546D4F8800418B105F5E940A3
:102D9000FFF792FCD4F88C0408B1FFF7BBFBD4F822
:102DA000900408B1FFF7B6FBD4F8740408B1FFF73C
:102DB000B1FBD4F87C0408B1FFF7ACFB00260EE0B1
:102DC00005EB061707F5E047D7F8C40308B1FFF78E
:102DD000A1FBD7F8840308B1FFF79CFB761C94F89D
:102DE0001C03B042ECDCD4F87804002803D0BDE822
:102DF000F041FFF78FBBBDE8F08130B505460020FC
:102E00006C68E41A002C07DD944201DD104600E0F6
:102E100020462A681A440A6030BDF8B50C460646BA
:102E200000F03CF805465CB13046FFF70FFC00901F
:102E3000008A20600098408A60606846FFF73CFC8A
:102E40002846F8BD38B5054600F028F8040023D11F
:102E500028460BF093FE04001ED12846FFF7F6FB30
:102E600047F209410090095C81B107F0EDFD0400D3
:102E70000FD1009800F5004090F8980448B96846D2
:102E8000FFF71AFC284609F075FA38BD0BF0C4FFAD
:102E900004466846FFF710FC204638BD7FB5002584
:102EA000FFF7D4FB01260090044606771A482060FD
:102EB0000020A06102A920460BF0F7F920BB226890
:102EC00003A920469047F8B99DF80800FF281BD1B8
:102ED0009DF80C00D82817D18DF8040001A900989E
:102EE0000CF094FD80B99DF80400C02808D0C128DA
:102EF00006D0C22809D1009800F5E04080F80964A6
:102F000000980BF0A4F800B101256846FFF7D4FB48
:102F100004B0284670BD0000ABE200082DE9F8437C
:102F200000F500410446D1F8A024D1F8A40404F52A
:102F3000E0451044C1F8A404002015E095F81D23D5
:102F4000D1F8A434022A08D1221802F5E04292F8FE
:102F50002123C2F1030293FBF2F304EB800202F59A
:102F60000042401CC2F8A83495F81C238242E5DCDC
:102F70000026DFF884902AE004EB061847F2783147
:102F800008EB0107F868FFF761FB0090BA68396841
:102F9000D9F800304A4379684A4300219847684687
:102FA000FFF78AFB47F2B83108EB0107F868FFF733
:102FB0004DFB0090BA683968D9F800304A43796807
:102FC0004A43002198476846FFF776FB761C95F840
:102FD0001C03B042D0DC102247F2F830D9F80030A0
:102FE000002120449847608AC5F884040020C5F871
:102FF0008804BDE8F88300007802002070B5184C02
:10300000E06820B100F0FAFB6168884204D000F06B
:1030100027FC00F0F3FB6060E068401CE0600128E2
:103020001CD10BF00DF905462068854216D000280A
:1030300013DBFFF773FC01462068C0EB0012206928
:1030400000EBC2025167C5EB0511064A00EBC10057
:10305000011D1160406FFFF73BFC256070BD000053
:1030600090020020D80100202DE9FE4F984691469D
:103070008A46834600270C9EFFF7C0FF184819496F
:103080000068407C51F82040E1680968042903D0B9
:103090002468002CF8D100E01CB9FFF741FC041EA5
:1030A0001BD0E0680121C26A20469047050011D07C
:1030B0002469A0688047401C02D10B4C46F00106F1
:1030C0000096CDE9015443464A465146584600F021
:1030D000BBF8074600F06CFB3846BDE8FE8F0000E9
:1030E000D801002004020020FC05040838B50400C3
:1030F0001CD0FFF783FF0E480068006EA04201D18C
:1031000000F0DDF92046FFF7A1FA0090406908B110
:1031100000F037FB00980068FFF78CFB6846FFF76C
:10312000CBFA2046FFF7F6F900F042FB38BD00006D
:10313000D801002038B505004FF0000411D0FFF78A
:103140005DFF2846FFF782FA0090006800698068FA
:10315000804701F0C3FE04466846FFF7ADFA00F071
:1031600027FB204638BD38B504000ED0FFF746FFD8
:103170002046FFF76BFA00F1180400906846FFF74D
:103180009BFA00F015FB204638BD002038BD00003A
:10319000F8B50546FFF732FF104E3068046ECDB12A
:1031A0000CB100F08CF907F00BF82846FFF74EFA47
:1031B000009031680D660068FFF73EFB6846FFF738
:1031C0007BFA01F019FC01F059FB00BF00F0F0FAA6
:1031D0002046F8BD00F073F9F8E70000D8010020A0
:1031E0007FB515460C4606002DD0FFF707FF304689
:1031F000FFF72CFA40F6FF710190CC4203D1B0F9F1
:103200000440B0F906500289611E1144ADF808402F
:10321000ADF80C104189681E0844ADF80E00ADF8F9
:103220000A5001A8FFF748FA02A807F0F3F906E0F0
:103230002A462146304600F081F807F0ADF9002813
:10324000F6D100F0B5FA7FBD2DE9FF4FDFF8E8B009
:1032500083B01C46DBF80010DDE9106092464FF0A9
:1032600000084B7C42461299FFF7A8FA050060D08F
:1032700028698068804701F031FE81460AFB09F128
:10328000C91DCF08FFF7F0F9F10705D1C11700EB11
:103290009170801000EB4000002C09DC1FB1183841
:1032A000B0FBF7F000E000206442A04200DC0446DE
:1032B000F00707D10090DDE903012346524600F0F4
:1032C000E5F98046002C03DC2846FFF7B3FA30E02E
:1032D00004FB07F01830F10702D0FFF7E9F801E02E
:1032E000FFF7F6F806001CD0FFF7B0F90190056073
:1032F000039981800499C180A0F808A04481C0F896
:103300001480C0E9037901A8FFF7D6F91298AE60DE
:103310002861DBF80000407CA861304607B0BDE8BA
:10332000F08F2846FFF786FAB8F1000001D0FFF7CA
:10333000F1F80020F2E70000D8010020F8B51546AA
:103340000E460746FFF782F9009000681621C06814
:10335000426A0020904704466846FFF7ADF9002C0A
:1033600003D02A4631463846A047F8BDF8B5164680
:103370000F46050012D0FFF769F9009044696846CE
:10338000FFF79AF92846FFF7D5FE0346082800DD27
:103390002CB13246394628460CF068FFF8BD32465B
:1033A000394628460DF002F9F8BD000070B5044614
:1033B00009480D46016819B90849016000F0DCFCB4
:1033C0000548001F006800B10024002D00DC012525
:1033D0000348055570BD00002002002019F80008C0
:1033E0000C020020094A126802B10020074A243268
:1033F00052F82030002B07DBA2F1180343F820100D
:103400004FF0FF3142F82010704700001C020020EE
:1034100010B5002821D009B30AB3B1F90040B2F9C0
:1034200000309C4200DA23460380B1F90240B2F931
:1034300002309C4200DA23464380B1F90440B2F9DD
:1034400004309C4200DD23468380B1F90610B2F9B6
:103450000620914200DC1146C18010BD11460A6869
:1034600002604968416010BD00280BD003880B44FE
:103470000380838819448180418811444180C18838
:103480001144C1807047B0F90220B1F906309A4268
:1034900013DCB1F90220B0F906309A420DDCB0F924
:1034A0000020B1F904309A4207DCB1F90010B0F9FC
:1034B0000400814201DC012070470020704710B5F4
:1034C000FFF79CFD01F090F901F096FA06F084FDFB
:1034D000BDE8104000F06CB970B50B4D044628688B
:1034E000467CFFF78BFD022C09D22046FFF718FA25
:1034F00028B128684474FFF7E2FF0448046000F034
:1035000057F9304670BD0000D8010020CC020020E1
:1035100010B50446FFF772FD204601F085F9BDE8BD
:10352000104000F045B900000249CA69C861104660
:103530007047000094010020014948607047000076
:10354000C401002002494A684860104670470000E4
:103550009401002070B50C460546FFF74FFD094861
:10356000224605800848048008480068417C0848D5
:1035700050F82100C1680B6A29469847BDE87040A1
:1035800000F016B9180200201A020020D80100200D
:103590000402002002480068002800D0004770475D
:1035A000AC02002002498A6802B98860FFF7F2BFC6
:1035B000800200202DE9F0411E46069C17468846F1
:1035C00005463A46A8687F1C3346D0F804C04146F9
:1035D0002846E047641EF4D1BDE8F08170B5B0F92B
:1035E0000040091BB0F904408C422CDD00F11404AA
:1035F000B0F902500069521B02FB0040CA1800EBF0
:10360000E104521ED010B0EBE10501F007034FF0CA
:10361000FF0102F0070221FA03F0C2F1070201FAEA
:1036200002F1CEB221780FD001436D1E04F8011BC8
:10363000002D05DDFF2229462046FCF753FE2C44D1
:1036400020783043207070BD30400143217070BD40
:1036500010B5B0F90030B0F90240C91A00F11403F6
:103660000069121B02FB003000EBE10001F00703D0
:1036700002788021D9400A43027010BDB0F90610CB
:10368000026951431430FCF734BE00002DE9F843C1
:10369000804602F10F000011470003FB07F01C46B3
:1036A000154689461430FEF713FF060018D0FFF7C1
:1036B000A5FC3046FEF7CAFF0090A0F80080A0F8F5
:1036C00002908580C4800749816001218181076162
:1036D0006846FEF7F1FF00F06BF83046BDE8F8836E
:1036E0000020FBE7A00E040870B5B0F90660B0F941
:1036F00004400B6800F1140596421BDD0069A342EB
:1037000002FB005000EBE30214DA641EE010A0EBB1
:10371000E30512F8010B03F00704A040C4B206E071
:1037200045B1083312F8014B23F007036D1E002C3E
:10373000F6D004E0002070BD6006040E5B1C20067D
:10374000FAD5FF2C07D0184602E06406240E401C70
:103750006606FAD400E0D81DC443640705D006E02D
:1037600012F8014BFF2C09D108306D1EF8D5C01A94
:10377000401C0B6070BD6206140E401C2206FAD479
:10378000F5E738B50546FFF739FC2846FEF75EFF3A
:1037900000908189491E0CB284816846FEF78CFF37
:1037A00014B92846FEF7B6FE00F002F838BD000056
:1037B0000348C168491EC16001D100F05FB870477D
:1037C0009002002010B50749054808604FF4000139
:1037D000FEF798FEBDE810408020FEF75FBF0000B6
:1037E000000080C03801002008B56A46002103F0BF
:1037F00031F808BD0120FFF7F7BF0000024800685C
:1038000090F83700704700002001002008B56B4693
:10381000002202A1034802F0ADF908BD4B657953BF
:10382000656D000010DC002008B56B46012205A183
:10383000064802F09FF96B46002205A1074802F0F6
:1038400099F908BD4469737053656D00C0DB0020B1
:103850004576656E7453656D00000000E8DB00205E
:1038600000B583B002A8002300901A46194602480A
:1038700002F0ACF903B000BDC0DB002008B56A4619
:103880000021024802F04AFA08BD0000C0DB002017
:1038900010B5082A0EDC0346012A18D0022A56D099
:1038A000042A76D010F8042B03F8012B491EF9D115
:1038B000012010BD102A08DC4FEA000230F8043B5A
:1038C00022F8023B491EF9D1F2E7002010BD10F8A2
:1038D000042BD207120E491E34D010F8044B491E97
:1038E00004F0010442EA84122CD010F8044B491E63
:1038F00004F0010442EA441224D010F8044B491E9B
:1039000004F0010442EA04121CD010F8044B491ED2
:1039100004F0010442EAC40214D010F8044B491E1A
:1039200004F0010442EA84020CD010F8044B491E52
:1039300004F0010442EA440204D010F8044B04F0FD
:103940000104224303F8012B0029C0D1B0E710F88D
:10395000042B9207120E491E15D010F8044B491E75
:1039600004F0030442EA04120DD010F8044B491E7F
:1039700004F0030442EA840205D010F8044B04F07A
:1039800003042243491E03F8012B0029DFD18FE7EE
:10399000FFE710F8042B1207120E491E05D010F88D
:1039A000044B04F00F042243491E03F8012B0029A5
:1039B000EFD17DE738B50024009400F01DF838BD44
:1039C0000B4810B5416B002910D101214163FFF76D
:1039D000F9FEFEF747FD01F021F8054905483831A9
:1039E0000860BDE81040084600F0C6B910BD0000F0
:1039F000C4010020E1F700082DE9F0410D460699C9
:103A0000044601B901461F68082A09DC0E46012A4E
:103A10001AD0022A5BD0042A7DD0082A13D18DE067
:103A2000102A07DCD3F810C00E46BCF1000F04D0FA
:103A3000022389E00020BDE8F08101CCB84726F8D8
:103A4000020B6D1EF9D189E001CCB847C0074FEADF
:103A500010686D1E36D001CCB84748EA801000F0DF
:103A6000FF086D1E2ED001CCB84748EA401000F088
:103A7000FF086D1E26D001CCB84748EA001000F0C0
:103A8000FF086D1E1ED001CCB84748EAC00000F008
:103A9000FF086D1E16D001CCB84748EA800000F040
:103AA000FF086D1E0ED001CCB84748EA400000F078
:103AB000FF086D1E06D001CCB84740EA080000F0B0
:103AC000FF086D1E06F8018B002DBDD146E001CC2C
:103AD000B84780074FEA10686D1E16D001CCB84772
:103AE00048EA001000F0FF086D1E0ED001CCB84768
:103AF00048EA800000F0FF086D1E06D001CCB847F0
:103B000040EA080000F0FF086D1E06F8018B002D4A
:103B1000DDD123E0FFE701CCB84700074FEA10688A
:103B20006D1E06D001CCB84740EA080000F0FF083F
:103B30006D1E06F8018B002DEDD10FE0D3F810C0FB
:103B4000BCF1000F04D001232A462046E04705E0DF
:103B500001CCB84706F8010B6D1EF9D101206AE7C8
:103B6000F0B500EB8103082A0ADC01254C1E092A66
:103B700010D2DFE802F00F10263E3E555555550095
:103B8000102A07DC00EB4100491E30F8022D43F8F3
:103B9000042DF9D1F0BD04F00702C2F1070200EBD9
:103BA000E40005FA02F604783440D440521C43F88D
:103BB000044DA0EBE20022F007042241491EF0D19F
:103BC000F0BD04F0030200EBA400C2F103020324E1
:103BD0000578560004FA06F73D40F540521C43F8BC
:103BE000045DA0EBA20022F003052A41491EEFD19B
:103BF000F0BD8D4300EB6400C5F101020F24057890
:103C0000960004FA06F73D40F540521C43F8045D67
:103C1000A0EB620022F001052A41491EEFD1F0BD60
:103C200000EB0100491E10F8012D43F8042DF9D1D5
:103C3000F0BDB0F90030B1F90020934200DA028003
:103C4000B0F90230B1F90220934200DA4280B0F9B3
:103C50000430B1F90420934200DD8280B0F90620DF
:103C6000B1F906108A4200DDC180704770B5B1F924
:103C70000040B2F900309C4200DD23460380B1F9D8
:103C80000250B2F90240A54200DD2C464480B1F951
:103C90000460B2F90450AE4200DA35468580B1F9CD
:103CA0000610B2F90620914200DB1146C1809D4208
:103CB00001DBA14201DA002070BD012070BD30B5EA
:103CC00081F07F43FF2480F07F4094EA116101D1AD
:103CD00020F07F43010E11FB02F1B1FBF4F100F083
:103CE000FF15C1F1FF0203F0FF14544301FB05442B
:103CF0004FF0FF15240A05EA1323C0F307205343AE
:103D000040F0807001FB003104F0FF1001F0FF2152
:103D1000084380F07F4030BD2DE9F05F0646DDF8B6
:103D2000389015460C4600200D99804688421ED2D8
:103D3000DFF840B00C9F4FF0FF0A02CE08CCAAEB90
:103D4000116202FB09F2B2FBFAF0C2B221F07F402D
:103D50001946DBF80030984720F07F4001C57F1EF0
:103D6000EBD10A9804EB800408F10100DCE7BDE820
:103D7000F09F00009401002002490A6B4260086332
:103D800070470000C401002030B50346CCB202E009
:103D900003F8014B521E0AB19907F9D1910818D0C6
:103DA00004EB044502F0030205EB052506E020C301
:103DB000091F20C343F8085B43F8045C0429F6DAC2
:103DC00001E020C3491E0029FBD102E003F8014BAA
:103DD000521E002AFAD130BD10B5830702D520F853
:103DE000021B521E530811D001EB0144042B09DBC6
:103DF00010C01B1F10C0042B40F8084B40F8044CA7
:103E0000F6DA01E010C05B1E002BFBD1D20700D018
:103E1000018010BDFEE700000449054A0968497C9D
:103E200052F821100969096808470000D8010020EC
:103E300004020020C1B2C0F30722C0F30740914240
:103E400007D1824205D111200831B1FBF0F0783062
:103E5000704701EB8103FF2100EB800002EB82023F
:103E60007F307F337F32B0FBF1F0B3FBF1F3B2FB75
:103E7000F1F202EB420103EB410100EBC00001EB68
:103E800080006C28E4D32830704700002DE9F04F03
:103E900005468DB07B48DDF860901A9C00681E4690
:103EA00017464FF0000A78B11B9B199ACDF808907D
:103EB0000593CDE90324DDE91623CDE90023046849
:103EC00033463A46284680E0DDE9160201EB060853
:103ED00005EB070C1043A8F10108ACF1010C012817
:103EE00006D0C9F108000590002002910990C6E0B3
:103EF00065480268B2F90A30581A002806DD361AF9
:103F0000002E63DD1946199B00FB0344B2F90E0035
:103F1000A8EB0000002802DD361A002E56DDB2F9AB
:103F20000C00ACEB0000002800DD3F1AB2F90830AD
:103F30000020AB4235DD581B3F1A4B46B9F1080F44
:103F400026D006DC012B0BD0022B11D0042B28D15C
:103F500016E0102B1ED0182B1FD0202B21D11CE0D7
:103F600020F0070304EBE0041D4400F0070018E014
:103F700020F0030304EBA0041D4400F0030010E054
:103F800020F0010304EB60041D4400F0010008E090
:103F9000044404E004EB400401E004EB8004054425
:103FA0000020002F12DD1B9BDDF864C0CDE9040367
:103FB000CDE90069CDE902C4527C34483B4650F853
:103FC0002200C26854680A462946A0470DB0BDE8E1
:103FD000F08F1799029808440C902B49401E0090CE
:103FE0000A68B2F90A30834241DCB2F90E10029835
:103FF00081423CDB4FF0000BD84603950A9434E035
:10400000BBF1000F05D10A984FF0080B10F801AB77
:104010000A900599ABEB090B3AFA01F00AFA09F19B
:1040200001F0FF0A04D118490968097C890716D4F0
:1040300015490968C96B0A680B921B9A0AB152F8B4
:104040002000086016990398009B4218521E02999E
:1040500000F07EF80C490B980968C96B0860039959
:10406000169808F1010808440390B845C8DB099880
:10407000401C09900C980290199804440998B04289
:10408000A7DBA3E714020020D801002004020020CF
:10409000F0B40C4612490968B1F90A30A3421CDC9D
:1040A000B1F90E30A34218DBB1F90830834200DDCC
:1040B0001846B1F90C30934200DA1A4682420CDB02
:1040C0004B7C084951F8235013462246E9688E6814
:1040D00001462846B446F0BC6047F0BC704700007B
:1040E000D8010020040200200A46174930B40968AC
:1040F000B1F90A30934225DCB1F90E30934221DB4D
:10410000B1F9083083421DDCB1F90C30834219DB70
:104110000B7C0E4CDB0709D0497C54F82130D96860
:10412000CC690146A44630BC18466047CB6B497C3D
:104130001B6854F82140E1688D6901462046AC4671
:1041400030BC604730BC7047D8010020040200201A
:1041500038B5134C2468B4F90850854200DD284670
:10416000B4F90C50954200DA2A46824217DBB4F9C2
:104170000A508D4200DD2946B4F90E509D4200DA06
:104180002B468B420BDB0093647C064B53F8244098
:10419000E3681D6913460A4601462046A84738BD14
:1041A000D8010020040200202DE9F04F83B0012146
:1041B0004FF4FD7004F08AF80425009502208DF874
:1041C00005008DF8040000208DF806008DF807002A
:1041D000DFF8808269464046FDF7CEFF0E220221BD
:1041E0004046FEF714F80820009069464046FDF767
:1041F000C3FF0E2203214046FEF709F8A8010090F4
:1042000069464046FDF7B8FF0E2208214046FDF7FB
:10421000FEFF4FF40079CDF8009069464046FDF767
:10422000ABFF0E2209214046FDF7F1FF2E0200965A
:1042300069464046FDF7A0FF0E220A214046FDF7E1
:10424000E6FF4FF4006ACDF800A069464046FDF74E
:1042500093FF0E220B214046FDF7D9FFA8020090E4
:1042600069464046FDF788FF0E220C214046FDF7C7
:10427000CEFF4024009469467748FDF77DFF0E226B
:1042800006217548FDF7C3FF20270097DFF8CCB162
:1042900069465846FDF770FF0E2205215846FDF786
:1042A000B6FF009469465846FDF766FF0E220621C8
:1042B0005846FDF7ACFFE001009069464046FDF727
:1042C0005BFF0E220D214046FDF7A1FF200200906A
:1042D00069464046FDF750FF0E2211464046FDF765
:1042E00096FF6002009069464046FDF745FF0E22AA
:1042F0000F214046FDF78BFF4FF00108CDF80080FD
:1043000069465748FDF738FF0E2200215448FDF753
:104310007EFF0220009069465148FDF72DFF0E22D6
:1043200001214F48FDF773FF009569464C48FDF7A2
:1043300023FF0E2202214A48FDF769FF1025009550
:1043400069465846FDF718FF0E2204215846FDF72E
:104350005EFF0094DFF80CB169465846FDF70CFF8C
:104360000E2206215846FDF752FFCDF800A06946FF
:104370003948FDF701FF0E220B213748FDF747FFB3
:10438000009569463648FDF7F7FE0E2204213448B1
:10439000FDF73DFF009769463148FDF7EDFE0E221F
:1043A00005212F48FDF733FF009469462C48FDF79F
:1043B000E3FE0E2206212A48FDF729FF80240094FF
:1043C00069462748FDF7D8FE0E2207212448FDF74D
:1043D0001EFF009469462048FDF7CEFE0E220721FD
:1043E0001D48FDF714FF009669461D48FDF7C4FE01
:1043F0000E220A211A48FDF70AFFCDF800906946FF
:104400001748FDF7B9FE0E2209211548FDF7FFFEFA
:104410000096154C69462046FDF7AEFE0E220A2195
:104420002046FDF7F4FE02208DF805008DF804808B
:1044300000208DF806008DF8078000970B4C694628
:104440002046FDF799FE20212046FDF7F3FE03B03C
:10445000BDE8F08F001C024000180240001002402E
:1044600000200240000C0240001402400004024000
:10447000024808210068407C09F0B2BCD801002045
:10448000082109F0ADBC000002480068C06B00685C
:1044900070470000D8010020044B03EB800253F862
:1044A0002000C068436A104618470000040200203C
:1044B0000C2109F095BC0D2109F092BC024809219C
:1044C0000068407C09F08CBCD8010020092109F06B
:1044D00087BC70B500252C462046FEF721FA00B1B6
:1044E0006D1C641C022CF7DB284670BD0248006876
:1044F000407C00F003B80000D801002010B5FEF7A2
:104500000FFA002805D0C168CA6ABDE81040022130
:10451000104710BDF8B515460E460124FEF700FA07
:10452000009058B1C0680421426A68469047030071
:1045300004D02A4631460098984700242046F8BD0A
:104540000E2109F04DBC00000148006870470000D2
:1045500070020020012109F043BC012009F0D4BC05
:10456000014840687047000070020020022109F0F5
:1045700037BC022009F0C8BC00F002B8AFF30080DD
:104580002DE9F041060008D0B76837B112488168BC
:1045900019B13468B4F5807F02DD0020BDE8F081F8
:1045A00001688C4200DD0C460025804609E000BF12
:1045B00057F82500FFF730FCD8F8081041F825001F
:1045C0006D1CA542F4DBD8F80410444609B130460E
:1045D0008847A068E2E700005C0200200449054A21
:1045E0000968497C52F821100969496808470000A8
:1045F000D80100200402002010B5A0F17801102994
:1046000006D201EB011000EB012000EB003010BDE1
:104610006C2804D3942801D2002010BD283806212C
:10462000B0FBF1F3B0FBF1F2B3FBF1F401FB1202CA
:1046300001FB14312423B0FBF3F002EB021201EB77
:10464000011102EB420201EB410100EB001000EB13
:10465000400002EB012101EB004010BD704700005B
:1046600010B500F01F01074A074BC0F34514C0F313
:10467000C4201B5D105C515C00EB032000EB01408B
:1046800010BD000074020408940204080106C0F37F
:104690000723C0F30742080A40EA0320104370478B
:1046A00010B54FF07F410406C0F30723C0F3074263
:1046B0008143200A40EA03201043084310BD10B58F
:1046C00090B00121880603F02BFE0121C80503F0FC
:1046D000FDFDFFF769FD0024019402940394049406
:1046E0000D940E940F94042207214FF4907003F060
:1046F000BBFE4FF4003003F0A7FE012003F0AEFE36
:104700003D2003F083FE0028FAD00594069428206B
:104710000790082008904FF4027009904FF48C70B5
:104720000A9040F20D200B904FF490700C9001A86D
:1047300000F08AFC10B010BD10B50A4CA06860B93A
:1047400020688000FDF70AFFA06040B104F10C0171
:10475000054808600846FFF70FFB002010BD012048
:1047600010BD00005C02002061F800082DE9F04750
:10477000FFF7AFFE07460024DFF860802AE02046FE
:10478000FEF7CEF828B3D8F8000090F811904474E2
:104790002046FFF775FE082817DC1148114950F82C
:1047A00024000069884210D02046FFF78FFE06469D
:1047B000002508E0E8B2FFF711FF0246E9B2204603
:1047C00000F09EF86D1CB542F4DBD8F8001081F8BB
:1047D0001190641CBC42D2DBBDE8F087D8010020F8
:1047E00004020020E405040810B50D4C0D492068B2
:1047F000407C51F8200048B1C16811B10968042912
:1048000001D00068F7E708B1FEF76CF820680021D6
:10481000016600F108014161BDE8104000F02EB8CA
:10482000D8010020040200200149096849680847AE
:1048300058020020044909680A7C520701D5C96B57
:1048400000E0896B08607047D80100207CB5094CF6
:1048500005462068417C084850F82100C1680A6B71
:104860006946904720686A4629460830FFF7FEF9F6
:104870007CBD0000D801002004020020044801682B
:1048800004484A7C083150F82200C268126B104775
:10489000D80100200402002001490968096808477E
:1048A00058020020044909680A7C520701D5896B27
:1048B00000E0C96B08607047D8010020F8B51546C4
:1048C0000E460124FEF72CF8009058B1C06816215E
:1048D000426A68469047030004D02A463146009851
:1048E000984700242046F8BD014AC2E900017047FC
:1048F00070020020014909688968084758020020B1
:10490000F8B515460E460124FEF70AF8009058B196
:10491000C0681021426A68469047030004D02A46C6
:1049200031460098984700242046F8BD13460A46B1
:104930000F4930B40968B1F90840844216DCB1F976
:104940000C40844212DBB1F90A4094420EDCB1F90A
:104950000E4094420ADB4C7C064951F82440E16841
:104960008D6901462046AC4630BC604730BC70477C
:10497000D801002004020020F8B515460E46012497
:10498000FDF7CEFF009058B1C0680B21426A68461F
:104990009047030004D02A463146009898470024E7
:1049A0002046F8BD38B50D460124FDF7B9FF00904B
:1049B00050B1C0680921426A68469047020003D09E
:1049C0002946009890470024204638BDF8B5154682
:1049D0000E460124FDF7A4FF009058B1C0680A21DB
:1049E000426A68469047030004D02A463146009840
:1049F000984700242046F8BD10B5074C2068006B8E
:104A0000FFF70AFAFFF74EFF2068406BFFF704FA42
:104A1000BDE81040FFF70EBFD80100202DE9F0419E
:104A2000002403212046FEF7C1FC641C022CF8DBA5
:104A300000231A4643494448FDF7E8FE4FF48872C4
:104A40004FF4F0710020FFF797FF4FF488724FF496
:104A5000F0710020FFF7BAFF012300223B493A48DA
:104A6000FDF7D4FE4FF488724FF4F0710120FFF788
:104A700083FF4FF488724FF4F0710120FFF7A6FF17
:104A80000024334E334F651E06F1200846F82450AB
:104A900057F824102046FFF785FF2046FFF7F0FC6B
:104AA000C01048F824002C4A21212046FFF706FFB9
:104AB0002A4A23212046FFF701FF204609F052FA37
:104AC000042809D8264A19212046FFF7F7FE254A6F
:104AD00025212046FFF7F2FE204609F043FA02287E
:104AE00004D1214A24212046FFF7E8FE204609F0A0
:104AF00039FA20B91D4A28212046FFF7DFFE1C495C
:104B00001C48FDF799FB1C491C48FDF7A1FB1C49FB
:104B10001C48FDF797FB1C491C48FDF7A5FB1C49E9
:104B20001C48FDF79BFB1C48FEF7FEFC1B48FEF7EC
:104B300003FD1B48FEF706FD641C022CA6DBBDE846
:104B4000F0810000DC01040818020408BCED030831
:104B5000540100206CED030881EF0008D5EF000838
:104B6000C5F1000851F1000871F00008E1F00008FB
:104B7000D9E80008FDAF00085DE900087DB0000835
:104B800049E900086DB00008C9E90008E1B0000873
:104B9000B5E90008D1B0000841B900086DF200087D
:104BA00041F4000870B582B00446154600260F296E
:104BB0007CD2DFE801F07B087B0C262C2F464032AC
:104BC000597B5E69210020460AF07CFB70E03A497F
:104BD00068683B4A51F824104843384952F8242069
:104BE00051F8241000FB0120364951F82410886246
:104BF000022000F0EDFA5BE03349286841F8240018
:104C000056E02A79204629680AF07EFC50E00AF036
:104C100023FA4DE00AF014FA4AE0286808B10121AD
:104C200000E00021274850F8240000F075FA012028
:104C300000F0CEFA3CE020466A6829680AF096FC4B
:104C400036E06A4601A92046FDF792FE1A49286817
:104C500041F824000831686841F824002046009A91
:104C600001990AF083FC23E0204629680AF06AFCD7
:104C70001EE0286808B1012100E00021114850F829
:104C800024000AF01DFC13E02868C0F3074100F47B
:104C90007F421143C0B241EA00400A4951F8241052
:104CA000C860022000F094FA02E0FFE74FF0FF3600
:104CB00002B0304670BD0000640100207401002085
:104CC0006CED030844010020540100202DE9FF4F42
:104CD0008DB01746674ADDF870901E9E20981268C6
:104CE0001D4600248AB11D9B1F98CDE90293CDE992
:104CF0000460DDE91A03CDE9000314682B463A4647
:104D00000D98A04711B0BDE8F08F0D9A01EB050892
:104D100002EB070CDDE91A231A43A8F10108ACF1F4
:104D2000010C012A06D0C9F108004FF0000B0291D6
:104D300005909CE0504A1268B2F90A40631A002BB1
:104D400006DDED1A002DDDDD21461D9C03FB04660A
:104D5000B2F90E30A8EB0303002B02DDED1A002D93
:104D6000D0DDB2F90C30ACEB0303002B00DDFF1AF1
:104D70000D9B1C1AB2F90830A3420DDDA3EB040C05
:104D80000CEB0003181A20F007000444A7EB0C07F3
:104D900006EBE30603F00700002FB3DDDDF874C077
:104DA0001F9BCDE902C6CDE90403CDE90059527C31
:104DB00032483B4650F82200C26855680A462146F0
:104DC000A8479FE71B99029808440C902A49401E67
:104DD00000900A68B2F90A30834242DCB2F90E1040
:104DE000029881423DDB4FF0000A0D980A96D046AA
:104DF000039034E0BAF1000F05D10A984FF0080A89
:104E000010F8014B0A900599AAEB090A34FA01F04F
:104E100004FA09F4E4B204D117490968097C890746
:104E200017D415490968C96B0A680B921F9A0AB111
:104E300052F82000086003991A98009B0A18DDE9CF
:104E40000210521EFFF784F90B490B980968C96BD1
:104E5000086003991A9808F1010808440390B845BE
:104E6000C8DB0C9802901D980BF1010B0644AB4572
:104E7000A8DB47E714020020D8010020040200202C
:104E8000002818D0410817D0810817D0C10817D0C2
:104E9000010917D0410917D0010A17D0410A17D0CC
:104EA000010B15D0C10B13D0010C11D0810C11D006
:104EB000000E11D02020704701207047022070475B
:104EC0000320704704207047052070470820704772
:104ED00010207047122070471820704700B500223C
:104EE000FFF7CEFF012804D0811E062903D808222F
:104EF0000BE0012209E0A0F10901072901D81022E5
:104F000003E011380F2800D82022104600BD000011
:104F1000F0B583B00121842003F0D8F94FF4005696
:104F2000009601208DF8040000218DF806108DF800
:104F300007008DF8051069460B48FDF71DF9B510FF
:104F400000950A4F69463846FDF716F96C00009443
:104F500069463846FDF710F9054806800548058082
:104F6000048003B0F0BD000000080240001C0240B5
:104F700018080240181C02400649002804D008689E
:104F800040F0010008607047086820F001000860E8
:104F900070470000186801402DE9F05FFBF73AF90F
:104FA000044600F0AFFA2046FBF738F91C4901200F
:104FB000086000241B4DDFF870B0002705F11008D1
:104FC00005F1180905F1200AA5F1100655F824008D
:104FD00000281EDB58F8241059F8242051435AF8B1
:104FE000242050435BF8242001FB002156F82400C4
:104FF000826A876256F824008162012000F0E8F896
:1050000055F824102046FEF7EDF94FF0FF3045F833
:105010002400641C022CD9DBBDE8F05F00F082BAEA
:105020003C680140540100206CED0308054A00294A
:1050300003D01168084310607047116821EA00002E
:10504000106070473468014010B42F4A13682F492C
:105050000B401360038A1B04D2F800C044694CEA79
:10506000040C4CEA03031360121D13680B40136019
:10507000038B1B04D2F800C0C4694CEA040C4CEA50
:1050800003031360121D13680B401360038C1B0491
:10509000D2F800C0446A4CEA040C4CEA03031360E3
:1050A000121D136819401160018D09041368D0F8AE
:1050B0002CC043EA0C0319431160111D0A68144BFC
:1050C0001A400A6043680268D0F80CC01A4383682B
:1050D00043EA0C031A430B681A430A60416B0A0245
:1050E000018E0B040B49D1F800C00CF07F4CC1F8C5
:1050F00000C0D1F800C0806B1A434CEA0000104396
:10510000086010BC704700000868014000F800F01B
:105110008F88FE0F2C680140002904D0016841F0FF
:10512000010101607047016821F0010101607047D1
:1051300030B48A881204436803F4704343600B68F8
:105140001A4342608A891204836803F470438360BF
:105150008B681A438260026922F0070202610A69C1
:105160000261CA6912020B8C1B0491F824C04FEA39
:105170000C6C8469002484618D6943EA0C032A4322
:105180001A438261426922F0FF0242614A69426128
:10519000C26922F0070222F4E062C261CB6A8A6A25
:1051A0001A43C261826A84620A6B82620A8F1204A5
:1051B000C36A03F0E023C3624B6B1A43C262026B03
:1051C0006FF30A020263C96B016330BC70470000D1
:1051D000014908607047000024680140FEE70A4664
:1051E000002100F04DB8000000B583B00C4900204C
:1051F00008600C4A02A80121009101904FF440631D
:1052000002F5406108A000F013F8BDF80800A0F511
:105210001C51103901D0FCF71BFA03B000BD00008F
:105220005C0000204CA50020486561700000000073
:105230002DE9F84F0746884691461D460A9E0B9C6D
:10524000FAF7E8FF824633464A464146384600951B
:1052500000F008F85046FAF7E1FF42F210702080A3
:10526000BDE8F88F00980A601044401E48608A60CC
:1052700002480268CA600B61016070475C00002050
:105280004FF0000C00234FEA0C2C4CEA010C5B1C85
:10529000042BF8D300F0030323B906E000F8011B48
:1052A000521E5B1C0AB1042BF8D3042A04D340F825
:1052B00004CB121F042AFAD2002A04D000F8011BE2
:1052C000521E002AFAD17047704708B527208DF882
:1052D000000001208DF801008DF802008DF8030018
:1052E000684600F001F808BD10B44FF00F0CC2780A
:1052F00001240178002A23D0174A126802F4E062E0
:10530000C2F5E062C2F30722C2F104032CFA02FCE8
:1053100042789A40837803EA0C031A43120101F1A0
:10532000E02181F80024007800F01F0104FA01F167
:105330004009800000F1E020C0F8001110BC704767
:1053400001F01F0004FA00F04909890001F1E02191
:10535000C1F8800110BC70470CED00E0034940F03B
:10536000FD7040F080600860704700000CED00E0C8
:105370007047000002480068002800D000477047CE
:105380007400002010B5044600F0AAF83F4800223F
:1053900002703F4802703F4802703F4802603F4839
:1053A00002603F4802703F4802703F4802703F4829
:1053B00002603F4802603F4802603F49086840B1D0
:1053C0003E48006828B10968491E0260001D002996
:1053D000FAD13B4802603B4802603B4802603B48D0
:1053E00002603B4802603B4802603B4802603B4829
:1053F000027001F0D5FE01F00FFF204601F05EFBC8
:105400002088002841D1204601F0BAFB20880028DE
:105410003BD1204601F0C0FB2088002835D1204632
:1054200001F01AFD208800282FD1204601F0E8FE67
:105430002088002829D1204601F0BAFF20880028C2
:1054400023D1204602F02EFA208800281DD12046C4
:1054500001F054FB2088002817D1204602F0B6FD49
:105460002088002811D1204602F00AF9208800285F
:105470000BD1204602F010FE2088002805D101F053
:105480001BFBBDE81040FFF773BF10BD8800002074
:1054900089000020BC000020200100202401002001
:1054A000A2000020A3000020A4000020B0000020E3
:1054B000B4000020B8000020243C0108203C010872
:1054C000680000206C0000207000002074000020A4
:1054D000780000207C00002080000020EA000020EE
:1054E000054806490068096800EB8100044920F07E
:1054F0000700086070470000203C0108243C0108B8
:105500002801002005480078012805D104490878C1
:10551000FA2801D2401C0870704700008900002062
:105520008800002010B52248007801283FD1FAF702
:1055300071FE04461F49087840B1401EC0B2087091
:1055400048B12046BDE81040FAF768BE2046BDE8E5
:105550001040FAF763BE1848007820B12046BDE835
:105560001040FAF75BBE01F005FE144908701449BB
:1055700000EB400051F82000124908601249096808
:10558000884204D12046BDE81040FAF747BED0F863
:105590008C10491CC0F88C100C480168491C016033
:1055A000FBF747FA2046BDE81040FAF737BE10BDBA
:1055B0008900002088000020BC000020A3000020FB
:1055C000ACBF00202401002020010020E0000020CA
:1055D0002DE9F05F0546DDF828800B9E8A461746C8
:1055E000994645F2BB61002F06D0B9F1020F06D2F1
:1055F000481C3080BDE8F09F3180BDE8F09F45F247
:10560000C160B8F1040F02D23080BDE8F09F17F0FE
:10561000030F02D03180BDE8F09F18F0030F02D0D5
:105620003080BDE8F09F39460C46A9F1010082B2F6
:105630000020002A06D944440C602146401C80B258
:105640009042F8D300240C60FAF7E4FD83460C483E
:105650002860C5F808A06F60EF60A5F81490A5F861
:105660001290A5F81080284601F07CFA05480188C0
:10567000491C01805846FAF7D1FD3480BDE8F09FFF
:105680004D454D209800002070B504460D46002C75
:1056900010D0FAF7BFFD0146A08A80B1E6683268F3
:1056A000E260401EA0820846FAF7B8FD002028807C
:1056B000304670BD45F2BF602880002070BD0846AE
:1056C000FAF7ACFD45F2C2602880002070BD70B5CD
:1056D00004460E461546002C0CD07EB1FAF79AFD12
:1056E000A18A628A91420DD3FAF798FD45F2BA6019
:1056F000288070BD45F2BF60288070BD45F2BE6055
:10570000288070BDE1683160E660A18A491CA182F1
:10571000FAF784FD0020288070BD00002DE9F041DB
:1057200004460D461646002C1CD0FAF773FD0746BA
:105730000F482060656000252562656284F8285066
:10574000E56204F1080001F02BFC204601F01CFB8F
:1057500008480188491C01803846FAF75FFD35800A
:10576000BDE8F08145F6C3503080BDE8F08100000F
:105770004D555458A00000202DE9F04F89B0064641
:10578000129D8A4617461C46002E09D077B1B7F500
:10579000004F0BD045F62560288009B0BDE8F08F9A
:1057A00045F6C350288009B0BDE8F08F4D493068F8
:1057B000884205D045F6C450288009B0BDE8F08F76
:1057C0004FF000080CB1C4F80080FAF723FD8346BF
:1057D00096F82820DFF810919AB1706AD9F8001075
:1057E000884224D1501C86F828000CB1F06A206051
:1057F0005846FAF713FD45F28270288009B0BDE8DB
:10580000F08FD9F800007062012086F828000CB1F2
:10581000F06A20603146D9F8000001F0C7FA584616
:10582000FAF7FCFCA5F8008009B0BDE8F08F17F48A
:10583000004F08D05846FAF7F1FC46F2B010288025
:1058400009B0BDE8F08F294A127842B15846FAF7FC
:10585000E5FC46F66350288009B0BDE8F08F90F86B
:10586000372091F837108A4201D901F089FF534659
:1058700004223146684601F0FBFA5846FAF7CEFC9E
:1058800000F0E6F8FAF7C6FCD9F8002092F83510D7
:1058900069B1012911D002291DD0032914D046F67F
:1058A0002E612980FAF7BAFC09B0BDE8F08F0CB17F
:1058B000916C2160A5F80080F4E70CB1916C216037
:1058C00046F2A9112980EDE70CB1C4F8008047F237
:1058D000D9212980E6E70CB1916C216045F6C251CF
:1058E0002980DFE74D55545820010020BC000020DE
:1058F0002DE9F04F83B0044688461546002C0BD0A6
:10590000B8F1000F0ED0B8F5004F0BD045F625606A
:10591000288003B0BDE8F08F45F6C350288003B05F
:10592000BDE8F08F47492068884205D045F6C4504D
:10593000288003B0BDE8F08FFAF76CFC0290DFF826
:1059400008A1606ADAF80010884208D00298FAF7D5
:1059500065FC45F28170288003B0BDE8F08FFBF74D
:105960009FFE8146C4F82C9094F82800401EC0B2D7
:1059700084F8280040B10298FAF750FC45F2837091
:10598000288003B0BDE8F08F2146DAF8000001F06E
:1059900056FA04F108074FF0000B3889E8B3DAF83B
:1059A000000090F8371090F8382091421CD001F098
:1059B00031FA0146DAF8000090F838608E4200D3E0
:1059C0000E4690F83710B1420ED201F089FCDAF899
:1059D000000080F83760304601F0EEFBDAF8000096
:1059E00001F062FC1948067038688668666201201A
:1059F00084F828002146304601F0D8F900231A46E1
:105A000031462046CDF8009001F038FB0298FAF7B5
:105A100005FC18F4004F0DD00EE0FFE7C4F824B0E9
:105A200084F828B00298FAF7F9FBA5F800B003B0A3
:105A3000BDE8F08F00F00CF8A5F800B003B0BDE8A9
:105A4000F08F00004D55545820010020A200002086
:105A500010B51848007800282AD117480078002887
:105A600026D1FAF7D7FB044601F084FB13490870EE
:105A700000EB4001124850F8210012490860124919
:105A80000968884204D12046BDE81040FAF7C6BB39
:105A9000D0F88C10491CC0F88C100C480168491CC7
:105AA0000160FAF7C1FF2046FAF7B8FBBFF36F8F2A
:105AB00010BD000088000020BC000020A3000020D2
:105AC000ACBF00202401002020010020E0000020C5
:105AD00070B504460E480078012803D045F6896069
