:020000040800F2
:10000000A0220120C1010008E5B50008699200089E
:10001000F9B400086D260008F50F01080000000083
:100020000000000000000000000000001D080108A2
:10003000FB38000800000000950A0008A5CD000864
:10004000FB010008FB010008FB010008FB010008A0
:10005000FB010008FB010008FB010008FB01000890
:10006000FB010008FB010008FB010008FB01000880
:10007000FB010008FB010008FB010008FB01000870
:10008000FB010008FB010008FB010008FB01000860
:10009000FB010008FB010008FB010008FB01000850
:1000A000FB010008FB010008FB010008FB01000840
:1000B000FB010008FB010008FB010008FB01000830
:1000C000FB010008FB010008FB010008FB01000820
:1000D000FB010008FB010008FB010008210E0108DC
:1000E000FB010008FB010008FB010008FB01000800
:1000F000FB010008FB010008FB010008FB010008F0
:10010000FB010008EDF50008FB010008FB010008F9
:10011000FB010008FB010008FB010008FB010008CF
:10012000FB010008FB010008FB010008112E00087C
:10013000FB010008FB010008FB010008FB010008AF
:10014000FB010008FB010008FB010008FB0100089F
:10015000FB010008FB010008FB010008FB0100088F
:10016000FB010008FB010008FB010008FB0100087F
:10017000FB010008FB010008FB010008FB0100086F
:10018000FB010008FB010008FB010008FB0100085F
:10019000FB010008FB010008FB010008FB0100084F
:1001A00049B20008FB010008052E0008DFF80CD05A
:1001B00000F084FB0048004789080208A0220120C3
:1001C000DFF83800016841F470010160BFF34F8F20
:1001D000DFF82C00016821F040410160BFF36F8F10
:1001E0000848804708480047FEE7FEE7FEE7FEE7CD
:1001F000FEE7FEE7FEE7FEE7FEE7FEE788ED00E04C
:1002000034EF00E005090108AD01000872B670473F
:1002100062B67047EFF3108072B6704780F31088B3
:10022000704730BF704720BF7047B0FA80F070470A
:1002300090FAA0F0B0FA80F0704790FAA0F0704702
:100240002DE9F05F0546002092469B46884606460B
:10025000814640241BE0284641464746224600F09E
:100260007EFA53465A46C01A914110D31146184699
:10027000224600F065FA2D1A67EB01084F46224628
:100280000120002100F05CFA17EB00094E41201E0E
:10029000A4F10104DFDC484631462A464346BDE866
:1002A000F09F10B5441A0346944209D284181144B1
:1002B00003E011F8013D04F8013D521EF9D210BDD2
:1002C00040EA0104A40703D009E010C9121F10C3BB
:1002D000042AFAD203E011F8014B03F8014B521E35
:1002E000F9D210BDD2B201E000F8012B491EFBD2B9
:1002F00070470022F6E710B513460A460446194631
:10030000FFF7F0FF204610BD421C10F8011B00292A
:10031000FBD1801A704710B5002200E0521C835CAC
:100320008C5CA34201D1002BF8D1D8B2E1B2401AC3
:1003300010BD30B504460020034600E05B1C93422C
:1003400003D2E05CCD5C401BF8D030BD034611F811
:10035000012B00F8012B002AF9D1184670472DE92E
:10036000FE4F804681EA0300C00F0C46009021F04A
:10037000004123F00045B8EB0200A94105D24046F8
:10038000214690461C460B46024623F0004010438F
:1003900047D0270DC7F30A00C3F30A510290401A51
:1003A000019040286BDAC3F3130040F4801B0098DF
:1003B000924620B10023D2EB030A63EB0B0B0198AA
:1003C0005946C0F14002504600F0BAF906460D46C3
:1003D00050465946019A00F0D2F910EB08006141ED
:1003E000002487EA115284EAE7731A4340D0009A46
:1003F00062B3019A012A4FEA075215DC001B61EB38
:1004000002014FF0004202EA0752CDE90042001C0F
:1004100041F5801132462B4600F0D2F903B0BDE819
:10042000F08F40462146F9E7001B61EB0201001CFA
:1004300041F5801300185B412018A2F5001747EB27
:10044000030140EAD570B6196D4111E06D084FEA1D
:10045000360645EAC0754FEA0752001B61EB020100
:10046000001C41F5801149084FEA30000019514144
:1004700032462B4603B0BDE8F04F00F092B9009829
:10048000012240000023D0EB020263EBE0730098EE
:1004900021464FEAE074B8EB000061EB0401E9E7A4
:1004A00083F000435BE781F0004158E72DE9FE4F00
:1004B00081EA030404F0004421F0004100944FF06D
:1004C000000B23F0004350EA01045ED052EA03041B
:1004D0005BD0C3F30A54C1F30A552C44A4F2F3349D
:1004E0000194A0FB0254C1F3130141F48011C3F342
:1004F000130343F4801301FB024400FB034E840A00
:10050000970A44EA815447EA8357A4FB0768029597
:100510008D0A05FB07854FEA932C04FB0C54270535
:10052000029D4FEA065847EA1637B5EB08056EEB11
:10053000070C870E920E47EA811742EA8312A7FB47
:100540000201B6EB0B0164EB00042B0D43EA0C3304
:100550005E1844EB1C50DA465146E7FB0201C5F336
:1005600013044FEA0B3343EA14534FEA0432019C5D
:1005700043EA0603A4F10C040294009CCDE900B404
:1005800000F01EF903B0BDE8F08F00200146F9E746
:100590002DE9F04D81EA030404F0004B21F0004501
:1005A00014464FF0000A23F0004150EA050220D023
:1005B00054EA01021DD0C5F30A570246C5F31303DE
:1005C000C1F31300C1F30A5640F4801543F48013BD
:1005D000A7EB0608101BD64608F2FD3873EB0500A2
:1005E00002D308F1010801E092185B41B8F1000F55
:1005F00003DA00200146BDE8F08D00204FF48011A1
:10060000064684460EE0171B73EB050705D3121B45
:1006100063EB050306434CEA010C49084FEA30003E
:1006200092185B4150EA0107EDD152EA030012D063
:1006300082EA040083EA0501084305D0101BAB41A0
:1006400006D20122002306E000224FF0004302E020
:100650006FF0010253101AEB06004CEB085110EB3F
:100660000A0041EB0B01BDE8F04D00F09AB80EB561
:10067000C10F80EAE0700844CA07002140F233430A
:100680008DE80E000A460B4600F09AF803B000BD54
:100690000EB540F2334102910021CDE900110A4626
:1006A0000B4600F08DF803B000BD70B5C1F30A52DF
:1006B00001F000450024C1F3130140F2FF3341F47F
:1006C00080119A4201DA002070BD40F233439A4211
:1006D000A2F2334203DC524200F041F800E09040C5
:1006E0002C43F1D0404270BDC1F30A5210B5C1F3A2
:1006F000130140F2FF3341F480119A4201DA0020E5
:1007000010BD40F233439A42A2F2334203DC52421C
:1007100000F025F810BD904010BD00F0004230F010
:1007200000400AD0C10D01F56071C0F3160042EA25
:100730000151C2084007114370470020014670472D
:10074000202A04DB203A00FA02F100207047914091
:10075000C2F1200320FA03F3194390407047202A86
:1007600004DB203A21FA02F00021704721FA02F35B
:10077000D040C2F120029140084319467047202A18
:1007800006DBCB17203A41FA02F043EAE07306E0B9
:1007900041FA02F3D040C2F12002914008431946C9
:1007A000704710B5141E73F1000408DA401C41F1C3
:1007B000000192185B411A4301D120F0010010BDE5
:1007C0002DE9F04D92469B4611B1B1FA81F202E05B
:1007D000B0FA80F220329046FFF7B2FF04460F468F
:1007E00040EA0A0041EA0B0153465A46084313D037
:1007F000114653EA010019D0C8F140025046FFF7F4
:10080000AEFF05460E46504659464246FFF798FF52
:10081000084305D0012004E020463946BDE8F08DAC
:100820000020054346EAE0762C4337430A986305E7
:10083000E40AA0EB08000022FD0A44EA47540A300B
:1008400002D500200146E9E7010510196941DDE9FB
:10085000084500196941BDE8F04DA2E770B521F0E7
:10086000004303430CD0C1F30A550024D5EB040523
:1008700064EB0403D617AD1AB34102DB0020014636
:1008800070BD201841EB025170BD000030B5041E50
:1008900071F1000404DB4FF00044404264EB0101BD
:1008A000141E73F1000405DB1C464FF00043524256
:1008B00063EB0403994208BF904230BD064C074DDC
:1008C00006E0E06840F0010394E807009847103420
:1008D000AC42F6D3FFF76EFCC4800508E48005083F
:1008E0002DE9F04D00231A461B1A8A4103DB002034
:1008F0000146BDE8F08DC1F30A52C1F3130141F482
:1009000080154FF0000BD10702D100186D41521E27
:100910000027044640F2FF11384601EB620A3E46CA
:100920008046024600204FF48011FFF718FFC219DD
:100930007141BB1846EB0100B4EB030C75EB000CE6
:1009400004D3E41A65EB000517460E46241908F196
:1009500001006D4180463428E3DDF91946EB0600BD
:10096000091BA84103D24FF0FF32134601E00022D9
:1009700013461BEB070046EB0A51BDE8F04DFFF7AD
:1009800010BF70B58C1810F8015B15F0070301D18A
:1009900010F8013B2A1106D110F8012B03E010F8E2
:1009A000016B01F8016B5B1EF9D12B0705D4002305
:1009B000521E0DD401F8013BFAE710F8013BCB1AA7
:1009C000921C03E013F8015B01F8015B521EF9D59C
:1009D000A142D8D3002070BDEFF3098141B1F1EEFF
:1009E000101A40F8041D20ED200A3E490A681060E4
:1009F0007047B0EC200A02C8E1EE101A3A490A68C2
:100A00001060704772B64EF62250CEF2000040F2EF
:100A1000FF01C0F2000101704FF0000080F309886F
:100A20000CF068F840F26810C2F20000016881F32F
:100A3000088840F2E200C2F2000040F2E301C2F294
:100A400000010A78027040F26015C2F2000540F21F
:100A50006411C2F200010A682A60106880F30988F4
:100A6000EFF3148040F0020080F31488BFF36F8F1F
:100A7000BDE8F00F0FBCBDE8005006BC62B60847E9
:100A80001A484FF080510160704718484FF080516C
:100A90000160704772B6EFF3098020E9F00F40F271
:100AA0006015C2F200052E68306074460CF022F822
:100AB00040F2E200C2F2000040F2E301C2F20001A3
:100AC0000A78027040F26411C2F200010A682A60DA
:100AD00044F0F40E1068B0E8F00F80F3098862B6B5
:100AE00070470000600100206401002004ED00E078
:100AF000002904D0816841F001018160704781685C
:100B000021F0010181607047084A1168084B1940C3
:100B1000D0F804C0036843EA0C03D0F808C0C068EA
:100B20004CEA00001843084310607047042301405A
:100B3000E030FCFF002904D0816841F480718160BD
:100B40007047816821F4807181607047002904D06A
:100B5000816841F4007181607047816821F40071FF
:100B60008160704710B4426822F4807222F04072B3
:100B700091F804C00B6842EA0C221A434260826872
:100B80000D4B1A40D1F80CC00B694C7943EA0C03A9
:100B9000D1F808C04CEA440C43EA0C031A438260C3
:100BA000C26A22F47002097D491EC9B242EA0151AB
:100BB000C16210BC70470000FDF7FFC030B40725CC
:100BC00009290CD9C468A1F10A0C0CEB4C0C05FAEC
:100BD0000CF5AC4303FA0CF32343C36009E004694A
:100BE00001EB410C05FA0CF5AC4303FA0CF323437B
:100BF00003614FF01F0C072A0CD2436B521E02EB0D
:100C000082020CFA02FC23EA0C039140194341636F
:100C100030BC70470D2A0CD2036BD21F02EB82024C
:100C20000CFA02FC23EA0C0391401943016330BC27
:100C30007047C36A0D3A02EB82020CFA02FC23EA07
:100C40000C0391401943C16230BC7047816841F088
:100C500080418160704700210160017141718160B4
:100C6000C1600161012101757047002800DC40422C
:100C70007047000082B0064C206880F4005020606D
:100C800001AA00214FF4FA600BF072FFF4E70000B4
:100C90001408024086B021A000680290204E9DF802
:100CA0000870002505AC03A904A802F03EF800284E
:100CB0002AD1BDF810004CF6CD414843C00C049039
:100CC000BDF80C004843C00C03903946304610F084
:100CD00092F9BDF81010304610F09AF99DF80910FD
:100CE000304610F088F9BDF80C10304610F090F93D
:100CF0009DF80A10304610F07EF9BDF81020BDF8BE
:100D00000C1008A002F046FE00230A2219461846DD
:100D1000009501940BF06EFFC5E7000054480D00EC
:100D20000010014068756D203D2025640A74656DD2
:100D30003D2025640A0000002DED048B84B00024C2
:100D4000DFF8AC80DFED2B8A9FED2B9A2B4D002630
:100D500003AFB8F8020000EE100AB8EE400A20EE29
:100D6000280A20EE098A18EE100AFFF7D6FC41EC9B
:100D7000100B23A053EC102B02F00CFE18EE100AFF
:100D8000A84225DB002C23D103A929480BF0A6FE9D
:100D900003A928480BF0A2FE03A927480BF09EFEEA
:100DA00026A01CF0D5FA00230A22194618460197FE
:100DB00000960BF01FFF03A91D480BF08DFC03A943
:100DC0001C480BF089FC03A91B480BF087FE01248B
:100DD00018EE100AA84202DA012C00D100240023E8
:100DE000022219461846019700960BF003FFB0E760
:100DF0003C0000200000803933335340CDCC2C40E0
:100E00000D0A205468652063757272656E74204CFB
:100E1000696768745F4144435F566F6C2076616C0C
:100E20007565203D2025662056200D0A0000000033
:100E3000141A0020541C0020D41A00204054657855
:100E400074546F53706565636823CCECD4F5C3B4F8
:100E5000CDBBC8BBBADAC1CB240000002DED048B9A
:100E600084B00024224EDFED238A9FED239A234F86
:100E7000DFF88C8003AD308800EE100AB8EE400A2F
:100E800020EE280A20EE098A18EE100AFFF745FC2A
:100E900041EC100B1BA053EC102B02F07BFD18EE65
:100EA000100AB8421BDC98F80000002817D103A9EB
:100EB0001D480BF013FE002211461CA01BF034FB52
:100EC0001EA01CF045FA002303221946184601957E
:100ED00000940BF08FFE03A913480BF0FDFB0023D9
:100EE0001A4605211846019500940BF083FEC2E7CF
:100EF0003C00002000008039CDCC5441000020414E
:100F0000790000200D0A20546865206375727265AF
:100F10006E742041442076616C7565203D20256605
:100F20002056200D0A000000141A0020303A6D658A
:100F3000696469616E2E6A706700000040546578CC
:100F400074546F53706565636823BFECC3BBB5E72A
:100F5000C1CBA3ACD2AAB8F8CED2B3E4B5E7BFA94F
:100F6000A3A1240084B00025B64EB74F0DF10C08A4
:100F70000DF0F0FEA6FB00214908A1EB8101014420
:100F8000CCB2A7FB0021C9086FF00A0201FB0200E6
:100F900000F0FF094946ADA002F0FCFCB9F10B0FCF
:100FA00080F04081DFE809F0060D141B41678DB326
:100FB000D7FDF50000221146A8A01BF0B5FA00F0FD
:100FC00031B900221146A8A01BF0AEFA00F02AB9F0
:100FD00000221146A7A01BF0A7FA00F023B90020B9
:100FE00006F012FA04F0CEF803AA002132200BF02A
:100FF000BFFD052301220221A1A01BF0FFF924B9A6
:101000000022114695A01BF08FFA012C06D0002279
:10101000114698A01BF088FA00F004B9002211468E
:1010200091A01BF081FA00F0FDB8002006F0ECF969
:1010300004F0A8F803AA002132200BF099FD052343
:101040000122022192A01BF0D9F924B900221146F5
:1010500082A01BF069FA012C06D00022114685A05F
:101060001BF062FA00F0DEB8002211467EA01BF0F1
:101070005BFA00F0D7B8002006F0C6F904F082F859
:1010800003AA002132200BF073FD05230122022167
:1010900083A01BF0B3F924B9002211466FA01BF006
:1010A00043FA012C06D00022114672A01BF03CFA34
:1010B00000F0B8B8002211466BA01BF035FA00F022
:1010C000B1B8002006F0A0F904F05CF803AA0021F2
:1010D00032200BF04DFD05230122022174A01BF0EC
:1010E0008DF924B9002211465CA01BF01DFA012CD9
:1010F00006D0002211465FA01BF016FA00F092B84D
:101100000022114658A01BF00FFA00F08BB8002007
:1011100006F07AF904F036F803AA002132200BF029
:1011200027FD05230122022165A01BF067F924B9E0
:101130000022114649A01BF0F7F9012C05D000222E
:1011400011464CA01BF0F0F96CE00022114646A0BD
:101150001BF0EAF966E0002006F056F904F012F8F8
:1011600003AA002132200BF003FD052301220221F6
:1011700057A01BF043F924B90022114637A01BF0F9
:10118000D3F9012C07D0002211463AA01BF0CCF96C
:1011900048E02AE005E00022114633A01BF0C4F924
:1011A00040E0002006F030F903F0ECFF03AA002134
:1011B00032200BF0DDFC05230122022148A01BF0A8
:1011C0001DF924B90022114624A01BF0ADF9012C11
:1011D00005D00022114627A01BF0A6F922E000222C
:1011E000114621A01BF0A0F91CE0002006F00CF92C
:1011F00003F0C8FF03AA002132200BF0B9FC05233D
:10120000012202213AA01BF0F9F824B9002211466C
:1012100012A01BF089F9012C0ED00022114615A056
:101220001BF082F90023192219461846CDF80480D4
:1012300000950BF0DFFC9BE6002211460AA01BF094
:1012400073F9EFE7ABAAAAAAA38B2EBA52616E6418
:1012500044617461203D2025640A0000303A7063C7
:101260002E6A706700000000303A7063322E6A7098
:1012700067000000303A7063332E6A706700000028
:10128000303A7869616F6A69332E676966000000D9
:10129000303A7869616F6A69342E676966000000C8
:1012A000303A7869616F6A69352E676966000000B7
:1012B000303A7869616F6A69362E676966000000A6
:1012C000303A7869616F6A69372E67696600000095
:1012D000303A7869616F6A69382E67696600000084
:1012E000303A7869616F6A69392E67696600000073
:1012F000303A7869616F6A6931302E67696600003B
:101300002DE9F04F8BB00024022701F0B0F900F076
:1013100075FE00F0EBFE0AF0F5F8012294A1954865
:101320001EF062FC9449C8700AA80AF047FF002228
:10133000114692A01BF0F8F86FF07F4006F064F8B9
:10134000002006F06CF8904806F080F8DC220021BE
:101350008EA004F061F9DC22AF2191A004F05CF9C9
:101360003B46DC229621204604F0C0F8F122002101
:101370008CA004F051F94FF4FA601DF0FAFD00253D
:10138000082606EBC501F12296A004F045F93B467C
:10139000DC229621204604F0A9F8A01CC4B2642CDB
:1013A00001D36424032764201DF0E3FD681CC5B24B
:1013B0003A2DE6D34FF4FA601DF0DBFDFEF72AFF6D
:1013C0000990894A0AAD4FF0040A462387A1A2F189
:1013D0002000CDF800A001950AF088FA0024052726
:1013E0004FF42F784FF0460984480694032605945D
:1013F000CDF80890CDF80C80019004972346804AE0
:1014000080A1009707960895A0F50C600AF038FFB8
:1014100080200895039005944FF00C0B7D490694AD
:101420000920CDF808B00191009004970796002399
:10143000794A7AA17D480AF023FF7D4806940190FD
:1014400005940620CDF80890CDF80C800090049704
:10145000079608950023774A77A17B480AF010FF8A
:101460004FF496700895039005941E21774A0796CD
:101470000694072001920291009004970023744A79
:1014800074A178480AF0FCFE774806940190059410
:101490004FF400784FF033090A20CDF80890CDF8CA
:1014A0000C80009004970796089500236F4A70A15E
:1014B00073480AF0E5FE73480694019005940B20EA
:1014C000CDF80890CDF80C80009004970796089509
:1014D00000236D4A6DA171480AF0D2FE704806944F
:1014E00005940796CDF80C80019000236D4A6EA1FB
:1014F000CDF8089004970096089570480AF0C0FE51
:101500006F4806940594CDF80890CDF80C800190B2
:1015100000236C4A6CA1CDF800A0049707960895AB
:101520006D480AF0ADFE6D4806940594CDF808901C
:10153000CDF80C8001900023694A6AA1CDF800B073
:101540000497079608956B480AF09AFE0AA95B482B
:101550000BF0C4FA0AA967480BF0C0FA0AA966485A
:101560000AF050FF0998FEF759FE0BB0BDE8F08F66
:10157000303A0000EC07002079000020303A6B611F
:10158000696A692E6A706700283A0508537973748E
:10159000656D205374617274696E672E2E2E000083
:1015A000250000005B2E2E2E2E2E2E2E2E2E2E2EC1
:1015B0002E2E2E2E2E2E2E2E2E2E2E2E2E2E2E2E4B
:1015C0002E2E2E2E2E2E2E2E2E2E2E2E2E2E2E2E3B
:1015D0002E2E2E2E2E2E2E2E2E2E2E2E2E2E2E5DFC
:1015E000000000003D0000003C1800204D656D200B
:1015F000466F72205465737400000000D4220020EE
:10160000650F0008417070205461736B2053686F40
:1016100077425100C43D0020750C000841707020D5
:101620005461736B204C656431000000941B0020F2
:10163000C43F00201D190008417070205461736B75
:101640002074616C6B000000541C0020B44A002020
:10165000950C0008417070205461736B204C6564D8
:1016600033000000141D0020C42D00205D0E000872
:10167000417070205461736B20506F776572000069
:10168000D41A0020C4350020390D000841707020A4
:101690005461736B204C696768740000541F00200C
:1016A000644F002021180008417070205461736B52
:1016B00020546F7563685363616E0000D41D002071
:1016C00064570020FD160008417070205461736B50
:1016D00020546F7563680000941E0020645F002032
:1016E000F1180008417070205461736B2057696EC7
:1016F000646F7700142000205419002084B0002467
:101700000125DFF8B480DFF8B490002603AF98F825
:101710000100002845D0D9F804100020884701288E
:1017200004D127A002F036F9601CC4B2082C05D3FE
:10173000012D03D124A01BF00BFE0025102C26D375
:10174000002D24D128A01BF003FE03A92E480BF086
:10175000C5F903A92D480BF0C1F9002005F054FE8E
:1017600003F010FD03AA002132200BF001FA03233D
:101770000222012126A01AF041FE0024012503A91E
:1017800021480AF0A9FF03A920480AF0A5FF00227A
:101790004FF4F07311461046019700960BF02AFAA9
:1017A000B5E706F0E9FA00220A2311461046019730
:1017B00000960BF01FFAAAE77900002044000020F1
:1017C000746F7563680A00004054657874546F53F1
:1017D000706565636823BAC3D1F7B0A12CB1F0C3BB
:1017E000FECED2C1CB2400004054657874546F53B0
:1017F000706565636823D4D9C0B4A3ACCED2D2AA35
:10180000D2A7C4E3C1CB2400141A0020541C00202A
:10181000303A79616F72656E2E676966000000006C
:1018200088B0DFF8C0904FF0010A02AF4FF6FF78A2
:101830004FF0000BD9F8041000208847002499F8D5
:1018400020000AFA04F108423BD009EB4405A889BC
:10185000B0F5F07F37D2E98AB1F5887F33D237F817
:101860002420424504D127F8240007EB840041805E
:101870004FF47F0005F0D3FD07EB8406EB8AAA89BD
:10188000718837F8240004F0ABF8A88927F8240001
:10189000E98A7180B0F5E47F15D9282913D2002098
:1018A00005F0B2FD03F06EFC0F4805F0CFFDFF2000
:1018B00005F0B5FD0A224FF4E4710CA003F0C0FE60
:1018C00001E027F8248007A8002201900523114693
:1018D000CDF800B010460BF08DF9601CC4B2052C99
:1018E000ADD3A7E744000020E04C05085253540054
:1018F00084B0002503AC07A002F04CF809F0C6FD47
:1019000000224FF4E17311461046009501940BF04C
:1019100071F9F0E768656C6C6F0A000086B000250D
:101920000024DFF8F0934FF0010A0DF114080026AF
:10193000002302AA19461846CDF800800AF000FEDE
:101940000746F5A0398802F025F889F800A0388804
:101950001C2880F02D83DFE800F0F10E1CF121F14E
:101960002CF1F16DF1F1C1F1F1AFF1F1F1F1F2F121
:10197000EFEEEDECEBEAEDA002F00CF805AA002189
:101980004FF4FA600BF0F4F8EAA01BF0E1FC00F071
:101990000FBBE6A001F0FEFF00F00ABBEDA001F0D6
:1019A000F9FF05AA00214FF47A700BF0E1F800F07E
:1019B000FFBAEAA001F0EEFF03A904A801F0B5F90F
:1019C00040B1E8A01BF0C4FC05A9F0480AF084FE71
:1019D00000F0EEBABDF810004CF6CD414843C00C03
:1019E0000490BDF80C004843C00C039005A9E748DB
:1019F0000BF074F8BDF810101C2908D3E4A01BF0FC
:101A0000A7FC00221146EFA01AF08EFDDCE70022B1
:101A10001146EFA01AF088FDBDF80C20BDF810109B
:101A2000EEA01BF095FC05AA002144F620600BF007
:101A30009FF8C9E7F7A001F0ADFF05A9D3480BF067
:101A40004DF8002005F0E0FC03F09CFB002232235F
:101A500011461046CDF8048000960BF0CBF8EF4805
:101A60001BF076FC032302220121EDA01AF0C6FC34
:101A7000032302220121EDA01AF0C0FC032302225D
:101A80000121EDA01AF0BAFC032302220121EDA0EE
:101A90001AF0B4FC032302220121EDA01AF0AEFCDF
:101AA000032302220121EDA01AF0A8FC05A9B748E2
:101AB0000AF012FE00F07CBAEBA001F06BFF05A962
:101AC000B2480BF00BF800221146E9A01AF02CFDE9
:101AD00005A9AE480AF000FE00F06ABAE7A001F0DE
:101AE00059FF05A9A9480AF0F9FF00221146E5A00F
:101AF0001AF01AFD14B9E7481BF02AFC012C02D198
:101B0000E5481BF025FC0023192219461846CDF89C
:101B1000048000960BF06EF8601CC4B2022C00D357
:101B2000002405A999480AF0D7FD00F041BA39E22E
:101B30001AE2CFE096E063E018E000E0E8E0D7A02A
:101B400001F028FF05A991480AF0C8FF002005F020
:101B50005BFC03F017FB00221146C5A01AF0E4FC61
:101B600005A98A480AF0B8FD00F022BACDA001F01C
:101B700011FF012505A985480AF0B0FF0022642362
:101B800011461046CDF8048000960BF033F805A9F5
:101B9000C6480AF0A3FF0022642311461046CDF880
:101BA000048000960BF026F805A9C1480AF094FDC0
:101BB0000022642311461046CDF8048000960BF0F5
:101BC00019F8002005F020FC03F0DCFAB94805F014
:101BD0003DFCFF2005F023FC0A224FF4E471B6A07F
:101BE00003F02EFD0022642311461046CDF8048038
:101BF00000960AF0FFFFB1A01BF0AAFB00F0D8B9D5
:101C0000B9A001F0C7FE012D40F0D28105A95F48BF
:101C10000AF062FD0022642311461046CDF80480CC
:101C200000960AF0E7FF05A9A1480AF057FF002235
:101C3000642311461046CDF8048000960AF0DAFFBE
:101C400005A99A480AF048FD00226423114610466F
:101C5000CDF8048000960AF0CDFFA6A01BF078FB1B
:101C60000025A5E1AAA001F095FE05A947480AF0C4
:101C700035FF0022642311461046CDF804800096FB
:101C80000AF0B8FF89F8016089F802A005A9A24806
:101C90000AF022FD012D3BD1002005F0B5FB03F039
:101CA00071FA844805F0D2FBFF2005F0B8FB0A2248
:101CB0004FF4E47180A003F0C3FC002232231146EC
:101CC0001046CDF8048000960AF094FF93A01BF014
:101CD0003FFB6DE19BA001F05DFE4FF0010B442145
:101CE0009A480FF088F9594698480FF091F90D215C
:101CF00096480FF080F90022322311461046CDF8A5
:101D0000048000960AF076FF91A01BF021FB4FE1C2
:101D10004EE10000790000205265636569766544F4
:101D2000617461203D2025640A000000C4E3BAC349
:101D30000A0000004054657874546F537065656301
:101D40006823D3D0CAB2C3B4CED2C4DCB0EFC4E3EC
:101D5000B5C42400D0D4B1F00A000000CEC2B6C889
:101D60000A0000004054657874546F5370656563D1
:101D70006823B0A1D1BDCED2B5C4CEC2B6C8B4AB73
:101D8000B8D0C6F7BBB5C1CB24000000141A0020A0
:101D90004054657874546F53706565636823D5E269
:101DA000D5E6B5C4CCABC8C8C1CBA3A1CEC2B6C81A
:101DB000B6BCB5BD5B6E325D256444B6C8C1CB24EC
:101DC00000000000303A6B752E6A7067000000005A
:101DD000303A7869616F2E6A706700004054657808
:101DE00074546F53706565636823CFD6D4DAB5C475
:101DF000CEC2B6C8CAC75B6E325D2564A3ACCAAAA0
:101E0000B6C8CAC7B0D9B7D6D6AE5B6E325D256448
:101E100024000000CCFDB8E80A000000208005087E
:101E2000303A67312E67696600000000303A673249
:101E30002E67696600000000303A67332E676966D6
:101E400000000000303A67342E6769660000000029
:101E5000303A67352E67696600000000303A673611
:101E60002E67696600000000C9FAC6F80A00000083
:101E7000303A666168756F2E6A706700D0A6BBB095
:101E80000A000000303A68616E7869616F2E6A70EE
:101E9000670000007C7F0508F47E0508B1BFB5B07F
:101EA0000A000000BBADBBAD0A000000941E00207C
:101EB000D41D0020E04C050852535400405465786E
:101EC00074546F53706565636823BFAACABCBBAD09
:101ED000B0C9A3ACC7EBCBB5CDCBB3F6BBADBBADF7
:101EE000CDCBB3F624000000CDCBB3F6BBADBBAD7C
:101EF0000A0000004054657874546F537065656340
:101F00006823C4E3BBADB5C4D5E6C4D1BFB42400D7
:101F1000C7E5C6C10A0000001420002040546578BF
:101F200074546F53706565636823BAC3C1CBC4E34F
:101F3000BFC9D2D4D6D8D0C2BFAACABCBBADC1CB50
:101F400024000000BFAAB5C60A000000001001402E
:101F50004054657874546F53706565636823D2D1BB
:101F6000BFAAB5C62400000015A001F013FD4FF074
:101F7000020B442114480FF03EF8594612480FF066
:101F800047F80D2110480FF036F800223223114691
:101F90001046CDF8048000960AF02CFE0BA01BF032
:101FA000D7F905E089F8016005A90E480AF094FB0D
:101FB00089F8006005AA39460B4809F016FDB7E418
:101FC000B9D8B5C60A000000001001404054657839
:101FD00074546F53706565636823D2D1B9D8B5C6A0
:101FE00024000000142000201C18002000B585B03B
:101FF00068460CF061FB019805B000BD10B50121E9
:1020000008030CF005FB4FF4A06009F035FB01F06C
:1020100075FC00F079F800F0CBF80CF005FC1A48DC
:1020200001F0B8FC194801F0B5FC194801F0B2FC08
:10203000164801F0AFFC144801F0ACFC08F09CFA23
:102040000DF0F4FC13A001F0A5FC07F08EFD0EF0DE
:102050006DFD04F0B3F912A001F09CFC0CF022FF1E
:1020600014A001F097FC00F0AFFE40B116A001F003
:1020700091FC0CF0FFFBBDE810400CF02BBC18A04D
:1020800001F088FCF5E70000B07E0508287E050811
:102090006C7E0508534452414D204F4B210A0000ED
:1020A0004755495F496E69742053756365737321A1
:1020B0000A00000041445F496E69742053756365EE
:1020C0007373210A0000000048617665206E6F740A
:1020D0002066696E642044485432320A00000000D1
:1020E0004448543232204F4B210A000010B5FFF70C
:1020F0007DFF04490968B0FBF1F0BDE810400AF02B
:1021000063BE0000000F020870B586B001210220F6
:102110000CF07EFA012188040CF0A4FA224E07226A
:102120000B21304602F071F907220A21304602F0F5
:102130006CF900248DF8164001218DF81710022546
:102140008DF81450890204918DF8155004A9304679
:1021500002F010F98DF81450A802049004A930463A
:1021600002F008F94FF4E1300090ADF80440ADF80A
:102170000640ADF80840ADF80C400C20ADF80A0060
:102180000A4C694620460EF0C5FE09F02CFA0122E1
:1021900040F2255120460EF0A0FE012120460EF00F
:1021A00065FE06B070BD000000040240004800401B
:1021B00030B587B0012140200CF02AFA01212020FF
:1021C0000CF05EFA174D08220E21284602F01DF988
:1021D00000248DF8164001218DF8171002218DF88A
:1021E00014104A0304928DF8151004A9284602F031
:1021F000C1F84FF4E1300090ADF80440ADF806406E
:10220000ADF80840ADF80C400820ADF80A00064CC7
:10221000694620460EF07EFE012120460EF026FE85
:1022200007B030BD001802400014014038B54568C1
:102230000446014628460EF022FF00282BD02068D5
:10224000304A11280DD006DC0B2825D00E2833D0BB
:102250000F2852D112E0282849D0B0F5107F4CD178
:1022600008E09268002A16D02146284601B0BDE851
:1022700030401047214628465268F7E7284602F0CA
:102280009DFD0090406E0468684602F003FE002C3D
:1022900001D02846A04738BD284602F08FFD0090A7
:1022A000683002F0E1FC009803216C3002F0EAFC97
:1022B000684602F0EFFD20E0E168486809680D29F2
:1022C00002D0202913D105E0002810DD284618F09F
:1022D00096FC06E0002804DD2846BDE8384018F0EA
:1022E0008EBC2846BDE83840022118F09EBCE0684C
:1022F00018B90021284600F083F92046BDE838408F
:102300000FF05ABA0C030020F0B5044685B080697E
:10231000B4F90850668A0027CDE90265CDE90017B7
:102320000490B4F90C00B4F91060C118B4F90A00B3
:10233000B4F90E50104433462A4600F007F805461B
:10234000616800F066F905B02846F0BD2DE9F04F50
:1023500085B01F46DDE911B4DDE90E569046894689
:10236000824604F03DFB16484C34CDE90204CDE929
:1023700000563B464246494650460FF065F9040078
:1023800018D002F01BFD1022594604900EF0C2FF37
:10239000049830220B493430FDF783FF094D04992E
:1023A0000C3D2868486604A802F074FD286841685E
:1023B0002046884705F0DCFE05B02046BDE8F08FDA
:1023C0002D22000818030020F0B5044680688B49D0
:1023D00089B051F82050606800287DD0052804D0CD
:1023E00006287AD0122879D1AEE0E86900284FD0CB
:1023F00095E80E008DE80F0004F110010FC906F0FA
:10240000C5FA002655F8260005F009F8A169E86923
:102410000A1A216901446069304403F0B5FAA169E0
:10242000E8690A1A21690144E069801B03F0ACFAEB
:10243000E169E8690A1A616901442069304403F0DE
:1024400059FBE169E8690A1A61690144A069801BC6
:1024500003F050FB761C022ED4DBA86804F0DFFFEB
:10246000E069E9696669431A206942183144801CB1
:10247000521E03F0A1FBE169E869A2690B1A6169C8
:102480000144101A401C921E03F096FBEE6913E003
:102490005FF0000655F8260004F0C1FFE069831BD9
:1024A000A069821B606981192069304403F0E2FA57
:1024B000761C022EEEDB0226D5E90301CDE90001F0
:1024C0006169E06908444310A069891C821B206986
:1024D000304403F01DFA02E089E012E08AE0D5E919
:1024E0000501CDE90001E36960690121184401EBB0
:1024F0006001A0699B1E821B2069304403F008FA2A
:1025000078E0206802F05AFC0490206810F0F6FC95
:1025100040B1A06808B1002008E00498006F28B11D
:10252000012003E00498406F00B10220049901EB00
:102530008000C56E04A802F0ADFC00231A462846B0
:10254000216802F085FF55E0206802F037FC049016
:10255000866EEEB3B0F95C70A168D1B3032942D0A6
:102560005FF0000100EB8101406D0C6C04F06EFF28
:10257000204604F054FF05A803F06EFEBDF81410C9
:10258000A88B0144ADF81410BDF81810081AADF866
:102590001800BDF81600801CADF81600BDF81A0032
:1025A000801EADF81A000498B0F96020B0F95E10F2
:1025B00005A804F01DFE04A802F06CFC022004F043
:1025C000C7FF304602F0FAFB3A4605A9079001E042
:1025D0000BE006E003F04EF80DF11C0002F05AFC8F
:1025E00008E00121BEE70221BCE704A8F6E7206865
:1025F00010F0C0F809B00020F0BD000058750508C3
:102600004FF480720029114601D00EF0CDBD0EF0BE
:102610001DBD2DE9FF410E4605004FF0010421D0FC
:1026200004F0DEF9284602F0C9FB0190876E01A88C
:10263000009702F02FFC3146684606F0EFFC78B1B7
:1026400000980024B84208D0284602F0B7FB019059
:102650000099816601A802F01DFC28460FF000FEDB
:1026600005F086FD04B02046BDE8F081FEE710B518
:1026700000F018F8BDE8104000F010B810B5FDF7F4
:10268000C9FD04461021044808F037FF2046BDE884
:102690001040FDF7C3BD0000ACC70020FFF7EEBF40
:1026A000FEE7000002490020086000F009B80000C1
:1026B0009800002001490860704700009800002041
:1026C00010B5FFF793FC08490A6842F080720A606F
:1026D000064900224A600A6842F001020A60BDE829
:1026E0001040FFF7E7BF0000FCED00E0001000E045
:1026F0000148406870470000001000E002201CF014
:102700003DBC000070B50B4D00242C600A480168E8
:1027100021F0C0010160016841F0400101600748FB
:102720000460FFF7EBFF01202860FFF7E7FF2C6054
:1027300070BD000098824342002002408C02444257
:1027400010B582B0012180200BF062FF0121080248
:102750000BF05EFF4020009001248DF80440002023
:102760008DF806008DF8074002208DF805006946B7
:10277000074801F0FFFD082000906946054801F078
:10278000F9FD054804600548C0F8984202B010BD44
:10279000001C0240002002408C0244420080434260
:1027A00070B50B4E002434600A48016821F0C00166
:1027B0000160016841F040010160074801250560A2
:1027C000FFF79CFF3560FFF799FF346070BD000094
:1027D00098824342002002408C0244422DE9F04797
:1027E000824600241748016821F0C0010160016899
:1027F00001601E201CF0C2FB0025134FDFF84C9037
:1028000000264FF00108C7F89862FFF777FFC7F876
:1028100098826006040ED9F80C0208B1601CC4B29C
:10282000FFF76CFF681CC5B2082DECD3BAF1000F9E
:1028300004D0FFF767FF2046BDE8F087FFF7B0FF41
:10284000F9E70000002002400080434200004442BB
:102850002DE9F04705461348016821F0C0010160E9
:10286000016841F0400101600F4E4FF00008C6F8CA
:1028700098820024DFF834900127E809C9F88C0217
:102880006806050EFFF73AFFC6F89872FFF736FFA5
:10289000C6F89882FFF732FF601CC4B2082CECD354
:1028A000BDE8F0870020024000804342000044421F
:1028B00070B50B48016821F0C0010160016841F06A
:1028C00040010160074D01202860074E30601E2046
:1028D0001CF054FB00242C60FFF710FF346070BD27
:1028E000002002408C0244429882434270B50B485B
:1028F000016821F0C0010160016841F04001016000
:10290000074D00202860074E30601E201CF036FB6B
:1029100001242C60FFF7F2FE346070BD00200240FD
:10292000988243428C02444270B5002412480168E8
:1029300021F0C001016001680160104D0120C5F85F
:102940008C020F4EC6F89802FFF7D8FED5F80C029D
:1029500068B1601CC4B2FA2C03D9FFF7C7FF01208D
:1029600070BDFFF7CBFED5F80C020028F1D1002096
:10297000C6F8980270BD00000020024000004442EA
:102980000080434270B500254FF4803400E0641E9F
:1029900024B180200CF004FE0028F8D02CB140F2C5
:1029A000FF500CF0B9FD284670BD032070BD00003B
:1029B00070B5054600244749086810F0450F03D15B
:1029C000086810F0450FFBD010F0040F05D0032469
:1029D00004200CF0A1FD204670BD10F0010F05D0C1
:1029E000012401200CF098FD204670BD0CF0D2FDB2
:1029F000A84201D0102070BD40F2FF500CF08CFDB9
:102A000000200CF0E9FD3449084201D1204670BD98
:102A100010F0004F01D01C2070BD10F0804F01D08D
:102A2000092070BD10F0005F01D00A2070BD10F0C9
:102A3000805F01D00B2070BD10F0006F01D00C2022
:102A400070BD10F0806F01D00D2070BD10F0807F40
:102A500001D00E2070BD10F4000F01D00F2070BD0A
:102A600010F4800F01D0102070BD10F4001F01D0B1
:102A7000112070BD10F4801F01D0122070BD10F421
:102A8000002F01D0132070BD10F4802F01D014202E
:102A900070BD10F4003F01D0152070BD10F4803FD0
:102AA00001D0162070BD10F4004F01D0172070BD6A
:102AB00010F4804F01D0182070BD10F4005F01D0D9
:102AC000192070BD10F0080F01D01A2070BD2046EB
:102AD00070BD0000342C014008E0FFFD10B500245B
:102AE000104A116811F0450F03D1116811F0450F1C
:102AF000FBD011F0040F05D0032404200CF00CFDD2
:102B0000204610BD11F0010F05D0012401200CF06A
:102B100003FD204610BD40F2FF500CF0FDFC2046A6
:102B200010BD0000342C014010B500240B4A116880
:102B300011F0450F03D1116811F0450FFBD011F0D2
:102B4000040F05D0032404200CF0E6FC204610BD41
:102B500040F2FF500CF0E0FC204610BD342C014048
:102B600070B506460C4600251F4A106810F0450F48
:102B700003D1106810F0450FFBD010F0040F05D002
:102B8000032404200CF0C8FC204670BD10F0010F97
:102B900005D0012401200CF0BFFC204670BD0CF0D4
:102BA000F9FCB04201D0102070BD40F2FF500CF093
:102BB000B3FC00200CF010FD10F4604F04D010F4B2
:102BC000005F05D0132070BD000C2080284670BD2A
:102BD00010F4804F01D0102070BD10F4004F01D0D0
:102BE0000F2070BD284670BD342C014010B5002068
:102BF0004FF480310E4B1A6801E0491E1A6812F03A
:102C0000450F01D10029F8D111B112F0040F05D000
:102C1000032404200CF080FC204610BD12F0400F6D
:102C2000FBD0002440200CF077FC204610BD0000B3
:102C3000342C014010B582B00EF0F0FE00240346A3
:102C40000094054A0D210548019402F0E7FA044971
:102C50000C7002B010BD000091E201082CC0040805
:102C60007B00002070B500241448016821F00C019D
:102C7000016001680160124D04E0601CC4B20120D3
:102C80001CF07CF9D5F8040208B1642CF5D3642C4F
:102C900001D3012070BD002404E0601CC4B20120F7
:102CA0001CF06CF9D5F8040208B9642CF5D3642C37
:102CB00001D3012070BD002070BD0000000802405B
:102CC0000000414270B50024104D04E0601CC4B205
:102CD00001201CF053F9D5F8040208B1642CF5D397
:102CE000002404E0601CC4B201201CF047F9D5F8B0
:102CF000040208B9642CF5D31E201CF03FF9D5F866
:102D0000040208B1012070BD002070BD00004142E6
:102D100070B5002000244006050EFFF7D3FF2843BE
:102D2000611CCCB2082CF6D370BDF0B583B006465A
:102D30000F4600F02DF8FFF795FF10B103B001200A
:102D4000F0BD002401ADFFF7E3FF2855601CC4B2BD
:102D5000052CF8D39DF804009DF805109DF8072078
:102D600008449DF80610114408449DF80810884254
:102D70000BD101A80EF04CF81CF012FA3880A81CF8
:102D80000EF046F81CF00CFA308003B00020F0BDC5
:102D900010B50B48016821F00C010160016841F099
:102DA00004010160074C0020206014201CF0E1F8B1
:102DB00001202060BDE810401E201CF0DFB800009C
:102DC000000802408402414200B583B00121042082
:102DD0000BF01EFC0220009001218DF8041000224F
:102DE0008DF806208DF807108DF805006946044817
:102DF00001F0C0FAFFF7CCFFFFF734FF03B000BDCE
:102E000000080240014902208860704700B002407B
:102E10000DF0E8BA074A904201D2074800E007489F
:102E2000074A11F0005F01EA020101D0C16070475A
:102E300081607047106402400060024000640240FC
:102E40007D0F7D0F002904D0016841F00101016070
:102E50007047016821F00101016070472DE9F0031E
:102E6000016821F001010160002101604160816081
:102E7000C160016121214161444A45494FF03D084B
:102E8000904204D1C1F80880BDE8F0037047414A80
:102E90004FF47464904203D18C60BDE8F003704736
:102EA0003D4A4FF47415904203D18D60BDE8F003A4
:102EB00070473A4A4FF07466904203D18E60BDE885
:102EC000F0037047364B374A984203D1CA60BDE8D9
:102ED000F0037047DFF8D0C0344B604503D1CB60BE
:102EE000BDE8F0037047324FDFF8C8C0B84204D1E4
:102EF000C1F80CC0BDE8F0037047DFF8BC904FF09C
:102F00003D57484503D1CF60BDE8F0037047DFF877
:102F1000AC902B49484504D1C1F80080BDE8F003CE
:102F20007047DFF8A080404503D10C60BDE8F00396
:102F30007047254CA04203D10D60BDE8F0037047F7
:102F4000224CA04203D10E60BDE8F0037047204C34
:102F50002049A04203D10A60BDE8F00370471E4A31
:102F6000904203D10B60BDE8F00370471B4A9042CA
:102F700004D1C1F800C0BDE8F0037047184A904280
:102F8000F9D10F60BDE8F003704700001060024007
:102F900000600240286002404060024058600240E9
:102FA000706002403D00002088600240400F002019
:102FB000A060024000003D20B86002401064024062
:102FC00008640240286402404064024058640240A1
:102FD000706402400C64024088640240A0640240B5
:102FE000B8640240002904D0016841F0200101606A
:102FF0007047016821F020010160704711F0800FD7
:1030000009D022B1436943F08003436103E043697F
:1030100023F080034361802905D001F01E011AB11D
:103020000268114301607047026822EA01010160F1
:103030007047000010B402681C4B1A40D1F80CC055
:103040000B688C6943EA0C03D1F814C04CEA040CF9
:1030500043EA0C03D1F81CC043EA0C03D1F820C0AA
:1030600043EA0C03D1F824C043EA0C03D1F828C08A
:1030700043EA0C03D1F834C043EA0C03D1F838C05A
:1030800043EA0C031A430260426922F00702D1F8B6
:1030900030C0CB6A43EA0C031A4342610A694260BA
:1030A0004A6882608968C16010BC70473F801CF02C
:1030B0002DE9FC410C46050038D003F091FC112CA1
:1030C00014D0132C28460ED001F078FE009000F0AA
:1030D000FCFB0646684601F0DDFE204619F067FB62
:1030E000074600241CE000F006FB1BE0284600F029
:1030F00087F917E02146284600F0EAFB019070B1FD
:10310000007819F054FB00F0FF0801A801F0C2FE9E
:10311000B84504D12146284600F08EFB02E0641C2D
:10312000B442E7DBBDE8FC4105F022B8BDE8FC8114
:10313000F8B50C46050018D0002C16D003F050FC52
:10314000284601F03BFE0090C66B684601F0A2FEE7
:103150002046FDF7D9F8421C2146304601F0BCFE5E
:1031600028460FF07DF805F003F8F8BD2DE9FF4182
:1031700045680446284601F021FE0190D0F8886099
:1031800001A801F087FE0EB1012700E000272146CB
:1031900028460DF074FF002856D02068112844D02E
:1031A00006DC0B2863D00E2878D00F282BD14FE0F7
:1031B000212805D026281AD0B0F5107F23D139E078
:1031C000E068416800291EDD00680D281BD13046EB
:1031D00007F019FC002806DB304607F014FC014616
:1031E000284600F029FB284600F07EF875E0E068EC
:1031F000012809D00A2802D00B2871D111E00A2138
:1032000028460FF0B1F86BE0304607F0FCFB0028D1
:1032100066DB304607F0F7FB0146284600F00CFB62
:103220005BE0284600F060F85AE0FFB9E068007AF9
:1032300098BB55E0E06848B1007A08B1012100E090
:10324000022128460FF090F8BDE8FF810321F8E73E
:103250002E46284601F0B2FD0290D0F884000568A1
:1032600002A801F017FE0DB13046A84738E0284605
:1032700001F0A4FD0090C06B01F06EFE0098D0F844
:1032800088000EF0D1FA0098D0F8940001F0C8FC44
:10329000684601F0FFFD23E000E016E0E0684168C9
:1032A00000291DDD016820290FD006DC092910D076
:1032B0000A2915D01B2904D112E0212910D0222976
:1032C0000ED02846FFF7F4FEBEE7284600F0FAF8D5
:1032D00006E00EF0FFFBB04202D128460FF09EF947
:1032E00020460EF069FAAFE738B5040016D003F0B7
:1032F00077FB204601F062FD0090D0F8880040B1D5
:103300000EF092FA00990020C1F8880020460EF0D5
:10331000A7FF684601F0BEFD04F02AFF38BDF0B5F6
:1033200085B0B0F90850468A84690296CDE9035405
:103330000027CDE90017B0F90C10B0F91050B0F922
:103340000E40B0F90A00194410442B46224600F002
:1033500003F805B0F0BD00002DE9FF5F1D46DDE973
:103360000F8691468A4683460E9F129C03F038FBD7
:1033700021496C34CDE90214CDE900784FF0FF33D8
:103380004A46514658460EF05FF904002DD001F030
:1033900015FD1022009011990DF0BCFF0098382205
:1033A000164980F88C604C30FCF77BFF134E009878
:1033B000361F3168C0F88410002180F89010C5864F
:1033C000204600F061FA684601F064FD01F0C1FD9D
:1033D0000546204601F0F2FC0090C563684601F006
:1033E00059FD306841682046884704F0C1FE04B0AA
:1033F0002046BDE8F09F00006D3100084C0300201E
:1034000010B5044600F063F9010000D0411E2046CB
:10341000BDE8104000F010BAF8B50546006801F0AC
:10342000CDFC0090448ED0F88860684601F032FDF3
:1034300006B1012604F0010428680FF05FFD0EB10B
:10344000002006E00CB1012003E008B1022000E0FA
:1034500003201B4951F82010686858B302280CD08B
:10346000052802D0122828D103E0284612F010FBCC
:1034700023E0284614F01DF91FE06A69E8694FF05F
:10348000FF33801AA0F1080203EB6204421CAB690F
:10349000001B4510A3EB6206C86903F0C0FF06E0FD
:1034A0003219311B284602F06FFA641E6D1C002C85
:1034B000F6DA02E028680FF05DF90020F8BD0000A0
:1034C000687505082DE9F14F9EB01E9800287DD043
:1034D00003F086FA1E9801F071FC0B901E980EF016
:1034E000F7FB03900B98B0F9367090F89010189194
:1034F000C16B0A9190F88C90B0F93410159100F0DE
:10350000E4F982460B9804ACB0F88E101491B0F92F
:1035100082101391C16C1291D0E90012CDE90C1206
:10352000D0F894B0002100BF00EB8102126D44F886
:103530002120491C0329F7D3002107AD00EB8102AC
:10354000D26D45F82120491C0329F7D300210EAE86
:1035500000EB8102126F46F82120491C0329F7D3A2
:103560000BA801F097FC1E980EF044FB01F026FC1E
:103570001190D0F8008011A801F08CFC4FEA28408F
:1035800042420FFA88F041420CA803F031FE5FEA94
:10359000897003D5BDF83200C01B01E0BDF83600CC
:1035A000ADF832001E980EF025FB0146039802226A
:1035B000CDE900070292BDF93230BDF9302000207C
:1035C00007F0B1F980465FEAC97000E07CE007D0FF
:1035D0004046189907F065FC0121404607F086FB3C
:1035E000002708E039460A9801F0EAFC0146404607
:1035F00007F054F87F1C5745F4D30027394654F898
:103600002720404607F09CFB7F1C032FF6D30024A5
:10361000214655F82420404607F0DCFC641C032CAE
:10362000F6D30024214656F82420404607F019FC22
:10363000641C032CF6D3BBF100001FD001F0BEFBCD
:10364000169030F8025B00240646012711E000BF07
:1036500006EBD40004F00701007807FA01F10842F4
:1036600001D0012200E000222146404607F09AFBEB
:10367000641CAC42ECDB16A801F00CFC404614992B
:1036800007F0C3FB4046129907F073FB40461399BD
:1036900007F08BFC40460EF0C1FF40461E9907F034
:1036A000CBFB4046159907F019FC01211E980EF03E
:1036B0005BFE1E9801F082FB0B90C0F888800BA87F
:1036C00001F0E8FB04F054FD1FB0BDE8F08F38B501
:1036D00005004FF000040CD003F082F9284601F0F9
:1036E0006DFB0090B0F93440684601F0D3FB04F064
:1036F0003FFD204638BD10B50446FFF7E8FF411CEA
:103700002046BDE8104000F097B8F8B50E4604001A
:1037100021D003F065F9204601F050FB009090F8AD
:103720008C10D0F8885021F001040EB144F001044F
:10373000A1420BD080F88C40684601F0ABFB45B14C
:1037400004F00101284607F0D1FA02E0684601F0D2
:10375000A1FB04F00DFDF8BDF8B50C46060028D01D
:1037600003F03EF9304601F029FB0090D0F8885074
:10377000C06C02F001FE07460098C464684601F080
:1037800089FB304600F080F830460EF069FD75B1D7
:10379000204602F0F1FDB84205D03046FFF7A4FD07
:1037A0003046FFF78FFE2146284607F0E2FA04F084
:1037B000DFFCF8BDF8B50C4605004FF0000618D048
:1037C00003F00EF9284601F0F9FA0090B0F93660DE
:1037D000D0F88850C486684601F05CFB3DB12846AD
:1037E0000EF076FA0146224628460FF018F804F04B
:1037F000BFFC3046F8BD38B50C4605001BD003F0C1
:10380000EFF8284601F0DAFA009090F89010D0F81E
:1038100088508C420AD080F89040684601F03AFB0C
:103820003DB12146284607F03CFB02E0684601F026
:1038300031FB04F09DFC38BD38B50C46050022D0A4
:1038400003F0CEF8284601F0B9FA009000F03DF8F8
:1038500000B1401E844200DD04460098B0F93410E7
:10386000A1420BD08486684601F014FB28460EF076
:10387000F7FC042128460EF077FD02E0684601F0CF
:1038800009FB04F075FC38BDF8B5044601F096FA62
:1038900001460090B0F9380010B9C86C02F06CFD18
:1038A0000099CA6AB1F98030126800EB430016181B
:1038B00008460FF0A7F90546684601F0EBFA3246D4
:1038C000294620460EF0ABFFF8BDC06B01F06CBB83
:1038D00038B50D46002401F071FA0090C06B2946FE
:1038E00001F06EFB0546684601F0D4FA1DB128468A
:1038F00001F064FA0446204638BD704770B586B0C2
:10390000012108460AF084FE012110200AF0B8FEC9
:103910001E4E07220A21304600F077FD07220921BA
:10392000304600F072FD00248DF8164001218DF81C
:10393000171002258DF81450490204918DF8155086
:1039400004A9304600F016FD8DF81450680204906A
:1039500004A9304600F00EFD4FF4E1300090ADF8C0
:103960000440ADF80640ADF80840ADF80C400C201E
:10397000ADF80A00064C694620460DF0CBFA01214D
:1039800020460DF073FA06B070BD00000000024042
:10399000001001400FB438B505A80090049C2078B1
:1039A000002808D02078252808D0641C1CF0EEFFE1
:1039B00020780028F6D138BC5DF814FB14F8010F0C
:1039C00064281ED00CDC58283AD004DC25283ED0D0
:1039D00042283FD12DE062282BD063283AD108E05D
:1039E000662815D069280CD073281BD0782831D1CF
:1039F00026E0009810F8041B0090C8B21CF0C6FF27
:103A000028E0009951F8040B00911CF0C5FF21E05B
:103A10000098C01D20F00700B0EC020B00901CF0D5
:103A2000DFFF17E0009951F8040B00911DF02AF810
:103A300010E0009951F8040B00911CF08DFF09E093
:103A4000009951F8040B00911CF0FAFF02E02520C8
:103A50001CF09CFF641CABE700234FF020421028B1
:103A60000BD0B0F5807F0AD0B0F5805F0AD0D2F8D5
:103A7000580131EA000009D107E0506EF9E7D2F8A9
:103A80008400F6E7D2F8A400F3E701231846704754
:103A90004268016811438268C068521E520142EABE
:103AA000402008430149086070470000500100A011
:103AB00030B403689900A1F1C041D1F840116FF30F
:103AC0000E01D0F808C04268046942EA0C02D0F83E
:103AD0000CC04CEA040C42EA0C02D0F814C042EAD2
:103AE0000C02D0F818C042EA0C0CC2694CEA02047D
:103AF000D0F820C044EA0C05446A254329434FF01E
:103B00002045002B48D0D5F840316FF30E0342EA30
:103B10000C0223431A43C5F8402102689200A2F127
:103B2000C042C2F840110168A9B38900A1F1C041A7
:103B3000D1F8481101F07042816A0B68D1F804C0D5
:103B40005B1EACF1010C43EA0C13D1F808C0ACF1D8
:103B5000010C43EA0C23B1F810C0ACF1010C43EAAC
:103B60000C431A43D5F8483103F07043D1F80CC028
:103B7000898AACF1010C4FEA0C3C491E4CEA015118
:103B80001943C5F8481100688000A0F1C040C0F892
:103B9000482130BC704702E0C5F84011C3E7D5F8B2
:103BA000481101F07041806A02684368521E5B1E32
:103BB00042EA031283685B1E42EA0322C3685B1E6B
:103BC00042EA0332038A5B1E42EA0342838A007E92
:103BD0005B1E42EA0352401E42EA00600843C5F8F9
:103BE000480130BC7047000002490A6842EA4000C0
:103BF00008607047540100A02DE9F04782B00E46DE
:103C000000240025009501955D4F4FF00809C7F885
:103C10000090102078604FF04008C7F80880FD60E1
:103C20004FF4806AC7F810A038460BF015FD10203D
:103C3000FEF7BEFE002834D15248008900043860E7
:103C400037207860C7F80880FD60C7F810A03846B4
:103C50000BF002FD3720FEF7ABFE002821D1411EFC
:103C600007F114000160C0F8049030218160022146
:103C7000C1600561012141610BF066FC3D603320AC
:103C80007860C7F80880FD60C7F810A038460BF0D0
:103C9000E3FC3320FEF78CFE8146B9F1000F03D020
:103CA000484602B0BDE8F087374F386840F22A68CE
:103CB00010EA080F0ED16D464FF400100BF070FCA7
:103CC00020B10BF0C3FC45F82400641C386810EAEE
:103CD000080FF1D008200BF063FC30B108200BF086
:103CE0001BFC042002B0BDE8F08702200BF058FC5A
:103CF00030B102200BF010FC022002B0BDE8F087CA
:103D000020200BF04DFC30B120200BF005FC0620EC
:103D100002B0BDE8F0874FF400700BF041FC38B101
:103D20004FF400700BF0F8FB072002B0BDE8F087FD
:103D300040F2FF500BF0F0FB00980099000601F4F0
:103D40007F4140EA0120009901F47F0140EA1120FF
:103D5000009940EA1160706001980199000601F431
:103D60007F4140EA0120019901F47F0140EA1120DE
:103D7000019940EA1160306002B04846BDE8F08722
:103D8000A807002024000020342C01401CB500248A
:103D9000019401AC009400F0E7F81CBD2DE9FF4F41
:103DA00083B0814606988A46A0EB0A08109E002040
:103DB0000090A2EB09043568934654EA080018D035
:103DC0002046FCF752FF07464046FCF74EFF87426D
:103DD0000BDA2046444680464846D146824658463D
:103DE000DDF818B0069001200090002C07DD204679
:103DF00006E007B04846BDE8F04F00F03BB960422E
:103E0000A0420AD04846D9466442C8F10008834619
:103E10004FF0FF37DDF818A000E001275148B8F156
:103E2000000F11D004EBD4714FEA610B01DACBF132
:103E3000000B4C480068807E88B3002F02DA30689F
:103E40002044306000257BE000990029016821D0E2
:103E5000897E11B10027804615E007B05A464946D1
:103E60005046BDE8F04F05F0CDBB28466D1C17F05D
:103E700097FE38B9D8F8000009EB0701406E426898
:103E8000504690477F1CA742EFDD6D1E356007B09E
:103E9000BDE8F08F8A7E1AB10027804617E019E04E
:103EA000486E5A465146036807B04846BDE8F04F91
:103EB000184728466D1C17F073FE38B9D8F8001063
:103EC00009EB0700496E4A68514690477F1CA7429C
:103ED000EFDDDAE700250FE008FB05B090FBF4F119
:103EE00001EB0A00009951B11E4A09EB0501126865
:103EF000526E526890476D1CA542EDDDC7E7194927
:103F000009EB05030968496E4A6801461846F1E75E
:103F100008FB05B090FBF4F101EB0A00019030685A
:103F20003844306017F03CFE48B9009890B10D4815
:103F300009EB05010068406E4268019890476D1CCE
:103F4000A542E5DD3068002F01DA20443060C01B57
:103F500030609CE7034909EB05000968496E4A682F
:103F60000199EBE7080200202DE9FF470F46404981
:103F70001646804609680C981D460A7E012A1CD008
:103F8000A8EB0600791B50EA01031CD0A2F101093D
:103F90001AF014F900F58060824605F034F900FB50
:103FA00009F4504605F034F900FB09F1002C0CDA55
:103FB000C4F50070801240420AE000903246394653
:103FC0004046FFF7EBFEBDE8FF8704F50074A01242
:103FD000002904DAC1F5007189124C4202E001F5B2
:103FE00000718C12002804DD411C01EBD1714910D5
:103FF00003E000EBD0714910401E00EBD07042107E
:10400000002C04DD601C00EBD070401003E004EBDA
:10401000D4704010641E04EBD47308EB0104ADF8B7
:1040200000403C18ADF80240A8EB02045B10B21A45
:10403000ADF80440ADF808203144FC1AEA1AADF896
:104040000C102844ADF80A20ADF80E000023ADF89E
:1040500006401A460421684600F07AF83946404680
:1040600013F02AFA2946304613F026FAABE700008F
:1040700008020020064A13681A7E012A05D0521E43
:1040800002EBD272521000F005B85A6E5268104717
:10409000080200202DE9F05F0646884640F2C32062
:1040A00002FB00F14FF47A7091FBF0F702FB02F192
:1040B00002EBD27001EB600B1446B118234A301B9F
:1040C0007F1C1268526E13680A46414698470125C4
:1040D00038E000BF05FB05F004FB040159451CDD79
:1040E000BC4219DD194B06EB050AA6EB05091B6856
:1040F000AAF1010208EB04015B6E09F101001B68E3
:104100009847124BAAF10102A8EB04011B6809F1C0
:1041100001005B6E1B689847641E0C4B3219301B04
:104120001B68924608EB05015B6E81461B68984749
:10413000064B5246A8EB05011B6848465B6E1B68A0
:1041400098476D1CBD42C5DDBDE8F09F0802002008
:104150002DE9FF4F43F6FF740F46664283B09B463E
:10416000814600210BE000BF09EB8100B0F902009D
:10417000A04200DA0446B04200DD0646491CB942BE
:10418000F2DB67480068406900280DD0B0F90610DE
:104190001A46A1EB0B01B14200DA0E46B0F902005B
:1041A000801AA04200DD0446B4E0DFF878A10020C8
:1041B0000546CAF8000088E0781E854201DA6B1CCB
:1041C00000E0002309EB850C09EB8302BCF9020037
:1041D000B2F90210A04244D1A14215D139F92330DD
:1041E000059A39F9251003EB020C4D4A059812681F
:1041F000084404EB0B01526E6045136801DA624615
:104200002AE00246604627E02846A4464FF0000810
:104210007A1E0BE008B1401E00E0781E09EB800317
:10422000B3F90230634504D108F101089045F1DB90
:104230002346A34248D01A1B39F92500A1EB040CF0
:10424000059B92EA0C0F09D4354A184404EB0B0184
:104250001268526E13680246984735E00FF03EF937
:1042600032E0A14230D001DBA04203DDA0422BDBD3
:10427000A14229DCE04688420ADC0346A04223DC56
:104280000846A14220DBB8F900C0B2F9001008E0EE
:104290000B46A14218DCA04216DBB2F900C0B8F907
:1042A0000010E21AA1EB0C0151430029A0EB03021C
:1042B00002DD01EB620102E0A1EB6201491CC01AC0
:1042C00091FBF0F06044C9E76D1CBD42FFF674AF8E
:1042D0000598009004EB0B000190002080460546F5
:1042E00013E01149B8F1000F31F915A009D0009978
:1042F00001EB0A0208440A490968496E0B680199F2
:10430000984788F0010850466D1C064909688D429F
:10431000E7DB641CB4427FF748AF07B0BDE8F08F1D
:104320000802002038040020140101200E4810B5B6
:10433000006803F069F80D48006803F070F8012088
:1043400003F0E8F8002003F0F3F8002003F000F990
:10435000002003F06FF80648006803F077F8BDE826
:104360001040002003F0A8B8040200200002002042
:10437000FC0100202DE9F00100220126032706FAA6
:1043800002FC0B6803EA0C03634538D1056853004F
:1043900007FA03F4A54305600D79D0F800809D402D
:1043A00045EA080505600D79012D01D0022D17D1D0
:1043B0008568A54385604D79D0F808809D4045EA21
:1043C00008058560456825EA0C0CC0F804C0D0F8E3
:1043D00004C08D799540ADB24CEA050CC0F804C01C
:1043E000D0F80CC02CEA040CC0F80CC091F807C03F
:1043F0000CFA03F3D0F80CC043EA0C03C360521C60
:10440000102ABCD3BDE8F00170474B07DB0E9A4081
:10441000C90800EB8100016A4FF00F0C0CFA03F39E
:1044200099430162016A11430162704741837047F9
:10443000018370472DE9F04385B0012180200AF007
:10444000E7F8012108020AF0E3F84FF08008CDF800
:10445000008000248DF8044001268DF807600227B3
:104460008DF80570DFF8C49069464846FFF782FF73
:10447000300200908DF804608DF8064069462C48A3
:10448000FFF778FFFEF75CF92A4D2C600A201AF03E
:1044900070FD2E600A201AF06CFDCDF800808DF8BA
:1044A00004408DF807408DF8057069464846FFF7CF
:1044B00061FF64201AF05DFD042202A948F2401059
:1044C00000F04EF88DF80C4002A91BA018F040FF38
:1044D0001CA102A8FBF71FFF18B105B00120BDE821
:1044E000F0838DF80870012202A948F2400000F024
:1044F0003BF9012202A948F2470000F031F89DF88B
:104500000810602902D211A018F022FF0A201AF028
:1045100030FD8DF80840012202A948F2400000F069
:1045200023F905B00020BDE8F0830000001C024024
:1045300000200240A00244424354502049443A25FE
:10454000730D0A003931343700000000446566619C
:10455000756C74205665723A25640D0A00000000DF
:104560002DE9F04104460E461546FEF7A1F9282034
:10457000FEF76EF9FEF7D8F9200AFEF769F9FEF7A3
:10458000D3F9E0B2FEF764F9FEF7CEF9FEF790F941
:104590002920FEF75DF9FEF7C7F90024002D0CD99C
:1045A0006F1EBC4201D0012000E00020FEF716F98A
:1045B0003055601CC4B2AC42F3D3BDE8F041FEF705
:1045C00095B900002DE9F14783B00024A146624D62
:1045D0002878401CC1B229706048614FA0FB0120BF
:1045E000C008404200EB800011EB400001D00A29D6
:1045F0007ED2012203A948F24E10FFF7B1FF9DF8C9
:104600000C004FF0000810F0800F0BD000F00F00EE
:10461000062807D2CDF80480012201A948F24E10E5
:1046200000F0A2F89DF80C0010F00F0F73D000F00E
:104630000F0006286FD2FF2101FA00F0019097F8D1
:104640002060C04340F0C00087F82000B889B882DD
:10465000F88AF883DFF80CA14FF0010997F82000E1
:1046600009FA04F108422DD03AF81400042202A9F4
:10467000FFF776FF97F8300010F0010F10D09DF88B
:1046800008009DF8091000EB012107EB440081812F
:104690009DF80A109DF80B2001EB0221C18211E068
:1046A0009DF808009DF8091000EB012107EB44007C
:1046B000C1829DF80A109DF80B2001EB0221C1F583
:1046C00088718181601CC4B2052CC7D34FF00109E9
:1046D000B9893846B1F5F07F03D8C18AB1F5887F32
:1046E00017D99DF80C1001F00F01012908D900E03D
:1046F00011E0C1898181018BC18285F800800AE0C7
:10470000818A8181C18BC1828021039180F82060E0
:1047100001E085F800809DF80C0000F08F008028F3
:1047200011D197F8200010F0800F04D020F0800005
:1047300087F8200007E04FF6FF71B981F98200F099
:10474000E00087F820002878F02801D90A20287096
:1047500004B04846BDE8F08778000020CDCCCCCC32
:1047600044000020C20E02082DE9F04104460E4626
:1047700015460027FEF79CF82820FEF769F8FEF79B
:10478000D3F8200AFEF764F8FEF7CEF8E0B2FEF7A1
:104790005FF8FEF7C9F80024002D0BD9305DFEF755
:1047A00057F8FEF7C1F80746380003D1601CC4B2C1
:1047B000AC42F3D3FEF79AF83846BDE8F08100002A
:1047C000014AC2E900017047AC010020014AC2E978
:1047D00000017047B4010020014AC2E9000170479E
:1047E000D8020020014AC2E900017047BC01002044
:1047F000014AC2E900017047E00200202DE9F04FB4
:10480000DFF828B191B04FF0FF35DBF80030B3F995
:1048100022100691DE69B3F92490F469A1898142DE
:1048200006D8E289824203D3471AD4F8008012E006
:10483000D4E9018100296FD00A8882426CD84D8862
:10484000854269D3801A82B2486800EB8200B0F9D1
:104850000070B0F90250781C5ED0307EA17C10FB55
:1048600001FA217CCDE90701B3F92A60304605F051
:1048700063FBC0B20E90DBF8000007FB0A81A37C4B
:10488000826B0127CDE90412CDE90273C069089A51
:10489000C17E807ECDE90001DDE90603494604F0D2
:1048A0004FFD681C18D046F0020005F045FBDBF810
:1048B0000000A37C05FB0A81826BCDE90273CDE980
:1048C0000412C069089AC17E807ECDE90001DDE94D
:1048D0000603494604F034FDDBF800005D46C0697C
:1048E000417E007E814214D9022E12D086F004004F
:1048F00005F022FB2868C069027EC37E12FB03918B
:10490000437E857E089A06984B4412FB050204F00C
:10491000A3FE0E9805F010FBDBF80000627C418CD2
:104920001144418411B0BDE8F08F0000080200205E
:1049300004480068C069C06909B1027C0A60407C13
:104940007047000008020020022008807047C069FC
:1049500082898A4202D8C2898A4210D2806880B194
:1049600002888A420DD843888B420AD3406800EB04
:104970008100A0EB8200B0F90000002801DB0120DB
:1049800070470020704700002DE9F043304C03468B
:1049900087B020681946B0F92A60C069C06900F084
:1049A00086F8002850D041680088181A01EBC0052D
:1049B0003046AF7805F0C0FA814620686A68012366
:1049C000816BCDE90237CDE90421C169CB7E8A7EB6
:1049D000CDE900230B7EB0F924102A78B0F922002B
:1049E00004F0AEFC2068C069417E027E91421FD96E
:1049F000C07E11FB00F812FB00F7022E18D001F068
:104A000030FC064601F0F6FB02F009FD21682A7829
:104A1000CB69B1F92200DB7E12FB0302B1F924104D
:104A200001EB0803394404F017FE304602F0F7FCAE
:104A3000484605F081FA20686A78C369B0F9221007
:104A40009B7E12FB0311418407B0BDE8F083000098
:104A50000802002030B50F4C05460B462068294659
:104A6000C069C06900F023F8002812D041680088AE
:104A700024682A1A0120E46900EBC200085CA47EC5
:104A800010FB04F0002B04D011F8321011FB04F1DC
:104A9000196030BD0802002001200880704700B571
:104AA000C06900F004F8002800D0012000BD06E035
:104AB00002888A4202D842888A4202D2806800284C
:104AC000F6D170472DE9F0410025154E154C18E040
:104AD0002069C5EB051700EBC7007022001D316887
:104AE000FBF7DFFB2069002140F8371000EBC7001F
:104AF00000F10C018161011D0A1DC0E90F126D1C3E
:104B00004164A0688542E3DB14F074FB2169C0EBCB
:104B1000001001EBC000001D3060BDE8F081000016
:104B2000080200204C04002070B510490E480860AF
:104B3000084604F06BFA0D4C143CA068C0EB001062
:104B4000C500284600F0ACF8094B20612A461B68D6
:104B5000002198474FF0FF30206003F06BFBBDE869
:104B6000704014F047BB0000ADAD010860040020A8
:104B70001C040020F8B50C0005460ED001F030FFF3
:104B8000204600F01BF8060010D000F017F922466E
:104B9000009025B12946074B03E00020F8BD064BE5
:104BA00000211B689847684600F074F903F0E0FAAA
:104BB0003046F8BD200400201C04002010B504007D
:104BC00009D001F00DFF20460EF064FD044603F00D
:104BD000CFFA204610BD002010BD000038B50546B4
:104BE00001F0FEFE2846FFF7E9FF04000AD000F0BE
:104BF000E5F8064B00902A461B6800219847684656
:104C000000F048F903F0B4FA204638BD1C04002037
:104C1000024A106021F003005060704780FF0020BE
:104C200010B5040011D001F0DBFE0848042101EBAF
:104C3000C401406B415848680EF06EFC204616F0E7
:104C4000C9FCBDE8104003F093BA10BDC0FE0020BF
:104C5000002805D0034AD16B016001B14860D063E0
:104C600070470000C0FE002010B5044601F0B8FEF9
:104C70002068FFF7D5FF00202060BDE8104003F05A
:104C800077BA000070B50D460646002405E000BF67
:104C900006EB8400FFF7E8FF641CAC42F8DB70BD54
:104CA0002DE9F041044615F0D3F82848E41C24F01F
:104CB0000305016C2D1DA94200D90D46C46B13E0FC
:104CC00054F8042CAA420ED184B1216809B162685B
:104CD0004A60616809B122680A60C26BA24231D1A0
:104CE0002168C1632EE02468002CE9D18046816BE5
:104CF000C0680F1857F8040C3E1A306838B100200D
:104D000016F0EAFD57F8040C3E1A3068D0B9706806
:104D1000A84217DB3044441B3046241D16F094FD96
:104D2000D8F80C10491BC8F80C10D8F814102944F6
:104D3000C8F814107068401B02D031460EF0ECFB2E
:104D400044F8045C2046BDE8F0810000C0FE00206D
:104D500010B5002415F07CF80C490F2001EBC002BF
:104D6000526C1AB101EBC000406C08E0401EF5D552
:104D700008E04168A14200D90C46806810B1806803
:104D80000028F6D1A4F10C0010BD0000C0FE0020E8
:104D9000002138B10449042202EBC000496B0858D5
:104DA00041680C3908467047C0FE002002488169FE
:104DB000491C816170470000C0FE00200549CA6996
:104DC000521CCA61496B01EBC0010A78521C0A707F
:104DD00000F078B8C0FE00207CB506460C460846B8
:104DE000FFF7ECFE050021D006B33046FFF7D0FFF9
:104DF000A04200DA044601F0F3FD2846FFF7DEFF8B
:104E000000903046FFF7DAFF094B019001461B681E
:104E1000224600989847684600F03CF801A800F048
:104E200039F83046FFF7FCFE03F0A2F928467CBDB6
:104E30002004002010B501F0D3FDFFF789FF6422A4
:104E40000849B0F5800F04D990FBF2F4086A444396
:104E500003E0096A4143B1FBF2F403F089F920460B
:104E600010BD0000C0FE00200549102805D94A6881
:104E7000B0EB520F02D3500800E01020886070475A
:104E800080FF002002488169491E8161704700004F
:104E9000C0FE00200A4902684B6B52F8082C03EB55
:104EA000C2021378022B03D3CB690BB15B1ECB611B
:104EB0001178491E117000210160084670470000FA
:104EC000C0FE00200349042202EBC000496B0858D1
:104ED00008307047C0FE00202DE9FC414FF000066D
:104EE0000B465FEA000834462BD032B11146184613
:104EF000FFF740FE060000D101244046FFF75EFFA9
:104F00000090078845686846FFF7C4FFCCB9B90030
:104F10002846091DFFF760FF050015D0FFF74EFF7B
:104F2000019040F8276001A8FFF7B4FF4046FFF763
:104F300045FF009045600188491C01806846FFF7E5
:104F4000A9FF2046BDE8FC813046FFF769FE012439
:104F5000F7E70820FFF742BE7CB5050023D0FFF736
:104F60002DFF00904068C0B1FFF728FF002401909A
:104F700005E0019800EB8400FFF776FE641C0098C2
:104F80000088A042F5DC01A8FFF784FF0098001D0F
:104F9000FFF76AFE0099002008806846FFF77AFF55
:104FA0002846FFF73DFE7CBD38B5002430B1FFF741
:104FB00005FF009004886846FFF76CFF204638BD67
:104FC00038B50D46002448B1FFF7F8FE2946009099
:104FD00000F016F804466846FFF75CFF204638BD2F
:104FE00038B50D46002448B1FFF7E8FE2946009089
:104FF00000F018F804466846FFF74CFF204638BD1D
:1050000038B50D4601880024A94209D9406838B155
:10501000FFF7D4FE009050F825406846FFF73AFFAE
:10502000204638BD10B50024FFF7EAFF10B1FFF7A6
:10503000C5FE0446204610BDF0B52D271C68B0F112
:10504000004F08D0002600280DDA651C1D6027706F
:105050004042012408E0651C01261D606FF00040FD
:105060002770491E01E00024091BC9B22AB3491E5A
:10507000C9B222E00C46491EC9B2944205D1124C75
:1050800027781C68651C1D602770104C54F821504F
:1050900090FBF5F4E4B20A2C11D804FB150011B909
:1050A0000EB1641CE4B20A2C02D10124491CC9B21D
:1050B0001D686F1C30341F602C700029DAD119680C
:1050C00000200870F0BD0000F40100200819050858
:1050D00070B514460D46064601F082FC204601F0EC
:1050E000CDF80300174804EB840109D050F82100E3
:1050F00041688068711A2A1A184602F0CDF91CE03E
:1051000000EB8104A268B24201D0012200E000223B
:10511000E368AB4201D0012300E000231A430CD026
:10512000236943B150F82100816840686A1A311A36
:10513000184602F025F9C4E90265BDE8704003F0A5
:1051400017B80000FC01012010B5C2B2CBB2D21AD0
:1051500000D5524293B25B43C0F30722C1F3072448
:10516000121B00D55242000C92B2A0EB114002FB80
:10517000023200B2002801DA404200B280B200FBE5
:10518000002010BD10B50021084601F007F943F6D4
:10519000FF725042BDE8104013460146AFF3008055
:1051A0002DE9FC411C4615460E46074601F018FC49
:1051B000042004F0C1FE804612484069C16C006DB5
:1051C0000F4406440D440444ADF80070ADF804509B
:1051D000ADF80260ADF8064068460DF01BFD07E033
:1051E00023462A463146384604F036FA0DF0CCFC08
:1051F0000028F5D1404604F09FFE02F0B9FFBDE85B
:10520000FC810000F4010020B0F90630B0F9042060
:10521000B0F90210B0F90000FFF7C2BF2DE9F84362
:105220001C00DDE9089816460F46054602D10CF031
:10523000F5FB044600962E6843464A46214628461A
:10524000B047061E39D00CF0DEFB8146698A304635
:105250000BF0AAFF30460DF061FB48460DF05EFBF7
:105260004FF000080CE000BFCDF8008055F81CCFCF
:1052700000231A4649462846E04700B30DF04EFB8E
:105280007F1E002FF0DC1D2148460DF07EF9601CCA
:1052900012D001F0A5FB0CF01DFC30B1FFF712FE9F
:1052A0008469B44201D02000F8D1B44202D0304623
:1052B0000DF008FA02F05CFF3046BDE8F883304696
:1052C0000CF0B2FA0020F8E72DE9F0411C46164632
:1052D0000D460746022B02DB0020BDE8F0811C20B2
:1052E000FFF7DEFC0028F8D00DB105610AE0094A9D
:1052F00052F8241009B905E011460A68002AFBD1CA
:105300000969016184618682002101604160C0E910
:105310000217E2E73402002070B51D46FFF7D4FF04
:10532000040009D000F00EF8E068006820B90348D6
:10533000006800EB85008465204670BD08020020EF
:10534000FFF786BC70B5C0B38269022A36DA2149FC
:10535000531C0C789C4200DA0B701F4C54F822103E
:1053600019B944F8220032E019464B68002BFBD1F2
:1053700006E0CB68C5681B682D68AB4203DD096891
:105380000029F6D11AE0C1B1CB68C6681B6836683F
:10539000B3420CD1838A012B05D008E01946DB68A3
:1053A0001B68AB4203DB0B68002BF7D129B14B68BC
:1053B00033B118604A68426004E0FFE7012070BD25
:1053C00044F822004860884200D10021016000209A
:1053D00070BD00005A0200203402002010B503E026
:1053E0000468FFF7AFFF20460028F9D110BD000088
:1053F00010B50C4B8269002153F82240844205D13C
:10540000046843F82240026802B1516042680AB160
:105410000368136002680AB1436853600160416029
:1054200010BD00003402002000207047022801DB7C
:1054300000207047054951F8200004E0C168096860
:105440000029F6D000680028F8D170473402002007
:105450002DE9F8431D461646884604000CD0FFF798
:10546000ADFC0090006807686846FFF713FD2B4607
:10547000324641462046B847BDE8F8832DE9F04161
:10548000044602F0C3FE0619164F1FE000F06CFB45
:105490003868844200DD0446A04601F0A1FA1248B3
:1054A0000568FFF783FC2C0017D000BF02F060FEF8
:1054B000641EFBD1404602F08DFE1DB101F090FA52
:1054C0006D1EFBD1FFF7DEFC02F052FE02F09EFEE5
:1054D000341A002CDADCBDE8F081404602F07AFE96
:1054E000F0E700009C020020580400207FB51E4613
:1054F00014460D46CDF80CD003AB00223146FFF721
:105500009BFD22462946684600F086F87FBD0000D4
:105510002DE9FC4706005FD001F062FA00F0D2FEF0
:105520003C4C81462068B0F9228000F007FF2168DA
:1055300007468A8CD01B888441E000BF47F6FF7184
:10554000304603F0DDFB82460146304603F0AEFBF9
:105550002168054691F82C0000F00300012841D095
:1055600002283BD000204A8C101A4884ADF8000075
:105570006A1E1044ADF80400888CADF80200A9F151
:1055800001010844ADF806006A465146304603F072
:105590000BF82168BDF8020088845146304602F0BD
:1055A000D5FC064430780A281ED00D281CD0BDF842
:1055B0000000216828444884307818B1761C30787F
:1055C0000028BBD12068818C39448184818D21F0F1
:1055D0000301818502F0CCFDBDE8FC8705EBD570A9
:1055E0004010C0E72846BEE7206890F82C1001F074
:1055F000030101290BD0022909D0018C41843178A3
:105600000A29D9D1828C02EB09018184D4E7A0F860
:105610002280F4E70802002070B514460D460646C5
:1056200001F0DEF905480068458484843046FFF7C0
:105630006FFFBDE8704002F09BBD00000802002033
:105640002DE9F04107460A4815460E460068B0F9B4
:105650002C0040F0020001F06BFF04462A46314660
:105660003846FFF7D9FF2046BDE8F04101F060BFA2
:105670000802002047F6FF73AFF300802DE9FC41DC
:105680001F4690460D4606004FF000041AD001F068
:10569000A7F965B128460DF0E7F8040007D00246E7
:1056A0002946684603F0A0FB68460DF0DDF83B464E
:1056B00042462946304602F0CFFF20460DF0D4F88E
:1056C00002F056FDBDE8FC812DE9FF4F87B0904602
:1056D000894607007ED001F083F9D9F80040D9F857
:1056E000045021B228B2401A401C029000F0EAFD9A
:1056F000064618F00C0F1ED038460A9A029902F09E
:1057000041FD08F00C01042904D0082902D00C291D
:1057100011D104E0291400FB1610401C09E02114EB
:10572000C1EB254200FB1620401C00EBD07001EBC2
:10573000600060F31F4448460DF096F85FEA000BE6
:1057400009D00246494604A8CDE9044503F04CFBC4
:1057500004A80DF089F8A6F1010A38460A9A0299C0
:1057600003F0A0FC03900AEB244060F31F45CDE951
:1057700000453846039903F099FA18F003010FD059
:1057800001292DD002290FD1B9F90420B9F900104F
:10579000521A101A401C00EBD07001EB600001E0BF
:1057A000B9F80000ADF800006A463846039902F0E7
:1057B000FBFE38460A9A029903F06AFC074406EB9E
:1057C000244060F31F4438780028C6D158460DF0B5
:1057D0004BF800E001E002F0CBFC0BB0BDE8F08F2D
:1057E000B9F80410081A401CDCE700001CB50A4692
:1057F0000146684603F0FCFB01F0F2F82548BDF8CD
:105800000010006830F84C2F1144ADF80010BDF8BE
:10581000021082881144ADF80210BDF8041002880D
:105820001144ADF80410BDF8061080880844ADF8A6
:10583000060068460DF0EEF927E000BFBDF9004014
:105840000BE000BFBDF90210204603F0A7FEBDF932
:105850000610204603F0A2FEA41CBDF90400A042DD
:10586000F0DABDF902400AE0BDF90000214603F07C
:1058700095FEBDF90400214603F090FEA41CBDF97D
:105880000600A042F0DA0DF07FF90028D6D102F030
:105890006FFC1CBD080200202DE9F04F87B09B462D
:1058A000DDE9109892460C46054601F099F8164835
:1058B0000168C86C096D47190E1900EB0A0501EB68
:1058C0000B04ADF81070ADF81450ADF81260ADF8DF
:1058D000164004A80DF09EF988B1DFF830B04FF003
:1058E000000ACDE90098CDE902BA2B462246394696
:1058F000304611F089FC0DF047F90028F1D102F093
:1059000037FC07B0BDE8F08F0802002005960008BC
:105910002DE9F04F87B09B46DDE9109892460C4682
:10592000054601F05DF816480168C86C096D471915
:105930000E1900EB0A0501EB0B04ADF81070ADF881
:105940001450ADF81260ADF8164004A80DF062F9DD
:1059500088B1DFF830B04FF0010ACDE90098CDE909
:1059600002BA23462A463146384611F04DFC0DF066
:105970000BF90028F1D102F0FBFB07B0BDE8F08F76
:1059800008020020459500082DE9FC4114460D460B
:10599000064601F025F8114F3968C86C096D0544B9
:1059A00004440E44ADF80050ADF80440ADF8026078
:1059B000ADF8066068460DF02DF908E0386822461B
:1059C0003146406E0368284698470DF0DDF8002800
:1059D000F4D102F0CDFBBDE8FC81000008020020FC
:1059E0002DE9F0411C4615460E46074600F0F8FF2B
:1059F0000C480168C86C096D074405440E440C440A
:105A000000200DF007F907E023462A4631463846C4
:105A1000FEF7BCF90DF0B8F80028F5D1BDE8F0416B
:105A200002F0A6BB080200207CB50C46064600F03A
:105A3000D7FF0F4D2868C16C006D0E440444ADF8CB
:105A40000460ADF80060ADF80640ADF8024068466D
:105A50000DF0E0F807E028682146406E42683046C5
:105A600090470DF091F80028F5D102F081FB7CBD44
:105A7000080200202DE9FC411C4616460D4607464B
:105A800000F0AEFF1A480168087ECA6C096D174421
:105A90000D440C44401E391A1644ADF8001031185C
:105AA000ADF80410291A2044ADF80600ADF8021034
:105AB00068460DF0AFF815E032462946384603F047
:105AC00041FD32462146384603F03CFD621E691C0A
:105AD000384603F097FD621E691C304603F092FDC4
