:020000040800F2
:1000000058270120C101000869D700089DAA0008EF
:100010007DD60008C32A0008E5340108000000006E
:10002000000000000000000000000000DD2C0108BE
:10003000FB400008000000009D0B000829EF0008AD
:10004000FB010008FB010008FB010008FB010008A0
:10005000FB010008FB010008FB010008FB01000890
:10006000FB010008FB010008FB010008FB01000880
:10007000FB010008FB010008FB010008FB01000870
:10008000FB010008FB010008FB010008FB01000860
:10009000FB010008FB010008FB010008FB01000850
:1000A000FB010008FB010008FB010008FB01000840
:1000B000FB010008FB010008FB010008FB01000830
:1000C000FB010008FB010008FB010008FB01000820
:1000D000FB010008FB010008FB01000811330108C7
:1000E000FB010008FB010008FB010008FB01000800
:1000F000FB010008FB010008FB010008FB010008F0
:10010000FB01000871170108FB010008FB01000852
:10011000FB010008FB010008FB010008FB010008CF
:10012000FB010008FB010008FB0100081136000874
:10013000FB010008FB010008FB010008FB010008AF
:10014000FB010008FB010008FB010008FB0100089F
:10015000FB010008FB010008FB010008FB0100088F
:10016000FB010008FB010008FB010008FB0100087F
:10017000FB010008FB010008FB010008FB0100086F
:10018000FB010008FB010008FB010008FB0100085F
:10019000FB010008FB010008FB010008FB0100084F
:1001A000B5D00008FB01000805360008DFF80CD0C8
:1001B00000F008FC004800473D7502085827012060
:1001C000DFF83800016841F470010160BFF34F8F20
:1001D000DFF82C00016821F040410160BFF36F8F10
:1001E0000848804708480047FEE7FEE7FEE7FEE7CD
:1001F000FEE7FEE7FEE7FEE7FEE7FEE788ED00E04C
:1002000034EF00E0C52D0108AD01000872B670475B
:1002100062B67047EFF3108072B6704780F31088B3
:10022000704730BF704720BF7047B0FA80F070470A
:1002300090FAA0F0B0FA80F0704790FAA0F0704702
:100240002DE9F05F0546002092469B46884606460B
:10025000814640241BE0284641464746224600F09E
:10026000CBFA53465A46C01A914110D3114618464C
:10027000224600F0B2FA2D1A67EB01084F462246DB
:100280000120002100F0A9FA17EB00094E41201EC1
:10029000A4F10104DFDC484631462A464346BDE866
:1002A000F09F2DE9F0410024061B254671F1000660
:1002B00005DA01240027D0EB070067EB0101161EC9
:1002C00073F1000605DA0027D2EB0702012567EB80
:1002D0000303FFF7B5FF86460E4617469C46AC4221
:1002E00004D00025D0EB050E65EB010624B10020FB
:1002F000D2EB000760EB030C704631463A4663468A
:10030000BDE8F08110B5441A0346944209D284181E
:10031000114403E011F8013D04F8013D521EF9D2E9
:1003200010BD40EA0104A40703D009E010C9121F60
:1003300010C3042AFAD203E011F8014B03F8014B71
:10034000521EF9D210BDD2B201E000F8012B491EB5
:10035000FBD270470022F6E710B513460A46044662
:100360001946FFF7F0FF204610BD421C10F8011B94
:100370000029FBD1801A704710B5002200E0521C02
:10038000835C8C5CA34201D1002BF8D1D8B2E1B2DE
:10039000401A10BD30B504460020034600E05B1C47
:1003A000934203D2E05CCD5C401BF8D030BD0346E5
:1003B00011F8012B00F8012B002AF9D118467047DB
:1003C0002DE9FE4F804681EA0300C00F0C460090E5
:1003D00021F0004123F00045B8EB0200A94105D20D
:1003E0004046214690461C460B46024623F00040FC
:1003F000104347D0270DC7F30A00C3F30A510290F8
:10040000401A019040286BDAC3F3130040F4801BBC
:100410000098924620B10023D2EB030A63EB0B0B4A
:1004200001985946C0F14002504600F0D6F9064600
:100430000D4650465946019A00F0EEF910EB0800BF
:100440006141002487EA115284EAE7731A4340D0DD
:10045000009A62B3019A012A4FEA075215DC001B89
:1004600061EB02014FF0004202EA0752CDE900427F
:10047000001C41F5801132462B4600F025FA03B0EE
:10048000BDE8F08F40462146F9E7001B61EB020111
:10049000001C41F5801300185B412018A2F50017DD
:1004A00047EB030140EAD570B6196D4111E06D08C4
:1004B0004FEA360645EAC0754FEA0752001B61EB6A
:1004C0000201001C41F5801149084FEA3000001973
:1004D000514132462B4603B0BDE8F04F00F0E5B97C
:1004E0000098012240000023D0EB020263EBE0738E
:1004F000009821464FEAE074B8EB000061EB04017C
:10050000E9E783F000435BE781F0004158E72DE91C
:10051000FE4F81EA030404F0004421F000410094FE
:100520004FF0000B23F0004350EA01045ED052EA82
:1005300003045BD0C3F30A54C1F30A552C44A4F25C
:10054000F3340194A0FB0254C1F3130141F4801170
:10055000C3F3130343F4801301FB024400FB034E77
:10056000840A970A44EA815447EA8357A4FB076840
:1005700002958D0A05FB07854FEA932C04FB0C546A
:100580002705029D4FEA065847EA1637B5EB0805DE
:100590006EEB070C870E920E47EA811742EA831230
:1005A000A7FB0201B6EB0B0164EB00042B0D43EA41
:1005B0000C335E1844EB1C50DA465146E7FB02014F
:1005C000C5F313044FEA0B3343EA14534FEA0432E2
:1005D000019C43EA0603A4F10C040294009CCDE9BB
:1005E00000B400F071F903B0BDE8F08F00200146BF
:1005F000F9E72DE9F04D81EA030404F0004B21F006
:10060000004514464FF0000A23F0004150EA05026D
:1006100020D054EA01021DD0C5F30A570246C5F3A3
:100620001303C1F31300C1F30A5640F4801543F4D9
:100630008013A7EB0608101BD64608F2FD3873EBB3
:10064000050002D308F1010801E092185B41B8F1FE
:10065000000F03DA00200146BDE8F08D00204FF4C2
:100660008011064684460EE0171B73EB050705D381
:10067000121B63EB050306434CEA010C49084FEAE1
:10068000300092185B4150EA0107EDD152EA0300B5
:1006900012D082EA040083EA0501084305D0101B4A
:1006A000AB4106D20122002306E000224FF00043B6
:1006B00002E06FF0010253101AEB06004CEB0851F8
:1006C00010EB0A0041EB0B01BDE8F04D00F0EDB876
:1006D0000EB5C10F80EAE0700844CA07002140F25D
:1006E00033438DE80E000A460B4600F0EDF803B0E8
:1006F00000BD0EB540F2334102910021CDE9001159
:100700000A460B4600F0E0F803B000BD70B5C1F337
:100710000A5201F000450024C1F3130140F2FF33F7
:1007200041F480119A4201DA002070BD40F2334357
:100730009A42A2F2334203DC524200F05DF800E03C
:1007400090402C43F1D0404270BDC1F30A5210B525
:10075000C1F3130140F2FF3341F480119A4201DAF0
:10076000002010BD40F233439A42A2F2334203DC30
:10077000524200F041F810BD904010BD00F0004220
:1007800030F000400AD0C10D01F56071C0F31600D1
:1007900042EA0151C2084007114370470020014658
:1007A000704701F0004330B421F0004150EA0102EB
:1007B00006D00A0DA2F56072C1F31301002A02DC13
:1007C00030BC00207047440F44EAC104C100E01867
:1007D00030BC00EBC25000F031B8202A04DB203AD4
:1007E00000FA02F1002070479140C2F1200320FA84
:1007F00003F3194390407047202A04DB203A21FA82
:1008000002F00021704721FA02F3D040C2F1200229
:100810009140084319467047202A06DBCB17203A3F
:1008200041FA02F043EAE07306E041FA02F3D040F5
:10083000C2F1200291400843194670470029A8BF21
:100840007047401C490008BF20F00100704710B4F9
:10085000B0FA80FC00FA0CF050EA010404BF10BCAE
:10086000704749B1CCF1200421FA04F411FA0CF1DB
:1008700018BF012121430843A3EB0C01CB1D4FEA14
:1008800000614FEA102042BF002010BC704700EB0F
:10089000C35010440029A4BF10BC7047401C49003D
:1008A00008BF20F0010010BC704710B5141E73F192
:1008B000000408DA401C41F1000192185B411A4320
:1008C00001D120F0010010BD2DE9F04D92469B466C
:1008D00011B1B1FA81F202E0B0FA80F22032904612
:1008E000FFF77BFF04460F4640EA0A0041EA0B018E
:1008F00053465A46084313D0114653EA010019D013
:10090000C8F140025046FFF777FF05460E465046B5
:1009100059464246FFF761FF084305D0012004E035
:1009200020463946BDE8F08D0020054346EAE076D2
:100930002C4337430A986305E40AA0EB0800002221
:10094000FD0A44EA47540A3002D500200146E9E78F
:10095000010510196941DDE9084500196941BDE843
:10096000F04DA2E770B521F0004303430CD0C1F372
:100970000A550024D5EB040564EB0403D617AD1A21
:10098000B34102DB0020014670BD201841EB02514B
:1009900070BD000030B5041E71F1000404DB4FF09F
:1009A0000044404264EB0101141E73F1000405DBB6
:1009B0001C464FF00043524263EB0403994208BFC8
:1009C000904230BD064C074D06E0E06840F0010360
:1009D00094E8070098471034AC42F6D3FFF7EAFBDF
:1009E0004CC407086CC407082DE9F04D00231A46D3
:1009F0001B1A8A4103DB00200146BDE8F08DC1F3DC
:100A00000A52C1F3130141F480154FF0000BD107D6
:100A100002D100186D41521E0027044640F2FF111A
:100A2000384601EB620A3E468046024600204FF4FB
:100A30008011FFF7E1FEC2197141BB1846EB0100BE
:100A4000B4EB030C75EB000C04D3E41A65EB000562
:100A500017460E46241908F101006D4180463428DE
:100A6000E3DDF91946EB0600091BA84103D24FF05C
:100A7000FF32134601E0002213461BEB070046EB52
:100A80000A51BDE8F04DFFF710BF70B58C1810F893
:100A9000015B15F0070301D110F8013B2A1106D1C3
:100AA00010F8012B03E010F8016B01F8016B5B1EDD
:100AB000F9D12B0705D40023521E0DD401F8013BB8
:100AC000FAE710F8013BCB1A921C03E013F8015B24
:100AD00001F8015B521EF9D5A142D8D3002070BDA8
:100AE000EFF3098141B1F1EE101A40F8041D20ED39
:100AF000200A3E490A6810607047B0EC200A02C81C
:100B0000E1EE101A3A490A681060704772B64EF664
:100B10002250CEF2000040F2FF01C0F2000101704D
:100B20004FF0000080F309880EF0A6F840F2A01004
:100B3000C2F20000016881F3088840F21A10C2F284
:100B4000000040F21B11C2F200010A78027040F26C
:100B50009815C2F2000540F29C11C2F200010A6829
:100B60002A60106880F30988EFF3148040F00200D7
:100B700080F31488BFF36F8FBDE8F00F0FBCBDE8A2
:100B8000005006BC62B608471A484FF08051016019
:100B9000704718484FF080510160704772B6EFF30C
:100BA000098020E9F00F40F29815C2F200052E6886
:100BB000306074460EF060F840F21A10C2F2000085
:100BC00040F21B11C2F200010A78027040F29C113F
:100BD000C2F200010A682A6044F0F40E1068B0E81E
:100BE000F00F80F3098862B670470000980100207A
:100BF0009C01002004ED00E0002904D0816841F050
:100C0000010181607047816821F0010181607047B6
:100C1000084A1168084B1940D0F804C0036843EA39
:100C20000C03D0F808C0C0684CEA00001843084321
:100C30001060704704230140E030FCFF002904D01D
:100C4000816841F4807181607047816821F480710E
:100C500081607047002904D0816841F4007181608F
:100C60007047816821F400718160704710B4426858
:100C700022F4807222F0407291F804C00B6842EABC
:100C80000C221A43426082680D4B1A40D1F80CC006
:100C90000B694C7943EA0C03D1F808C04CEA440CC8
:100CA00043EA0C031A438260C26A22F47002097D8F
:100CB000491EC9B242EA0151C16210BC704700002E
:100CC000FDF7FFC030B4072509290CD9C468A1F18C
:100CD0000A0C0CEB4C0C05FA0CF5AC4303FA0CF3C4
:100CE0002343C36009E0046901EB410C05FA0CF5EC
:100CF000AC4303FA0CF3234303614FF01F0C072AA4
:100D00000CD2436B521E02EB82020CFA02FC23EA65
:100D10000C0391401943416330BC70470D2A0CD23B
:100D2000036BD21F02EB82020CFA02FC23EA0C03D3
:100D300091401943016330BC7047C36A0D3A02EB1E
:100D400082020CFA02FC23EA0C0391401943C162AF
:100D500030BC7047816841F080418160704700215C
:100D60000160017141718160C16001610121017502
:100D70007047002800DC40427047000084B0002427
:100D80000025DFF87880DFF87890002703AED8F8E8
:100D9000300201281DD199F80000002819D103A9BB
:100DA00018480DF05DFF03A917480DF059FF012405
:100DB00055B916A021F0D0F800230522194618468F
:100DC000009701960DF0D8FFE843C5B21AA003F0D2
:100DD000E1F9012CDBD103A90A480DF03FFD03A97D
:100DE00009480DF03BFD0024002301221946184656
:100DF000009701960DF0C0FFC9E7000000004342D4
:100E0000B10000207C1C0020BC1E002040546578EE
:100E100074546F53706565636823C4E3BAC3A3ACAD
:100E2000D3D0CAB2C3B4CED2BFC9D2D4B0EFC4E318
:100E3000B5C4C2F0A3BF24006F6E0A002DED028B73
:100E400084B02E4C9FED2E8AF2EE048A206880F446
:100E5000005020606A4601A902A826F00DFC002877
:100E600044D09DED010AB5EEC00AF1EE10FA1DD294
:100E7000B1EE400A8DED010ADDED000A20EE080A10
:100E800020A060EEA80ABDEEC00AFDEEE00A10EE5A
:100E9000101A10EE903ADDED020A60EE880AFDEEBF
:100EA000E00A10EE902A03F075F918E0DDED000A73
:100EB00020EE080A22A060EEA80ABDEEC00AFDEEF0
:100EC000E00A10EE101A10EE903ADDED020A60EE24
:100ED000880AFDEEE00A10EE902A03F05BF96A46FC
:100EE00001A902A826F0C8FB0028BAD103AA002154
:100EF0004FF4FA600DF0FEFEA8E70000140802406F
:100F00000000C842726F6C6C203D202D25642020AB
:100F10002020202020207069746368203D202564F3
:100F200020202020202020202020796177203D20B3
:100F30002564202020202020202020200A000000DE
:100F4000726F6C6C203D2025642020202020202002
:100F5000207069746368203D2025642020202020B3
:100F60002020202020796177203D2025642020202A
:100F7000202020202020200A0000000086B021A090
:100F800000680290204E9DF80870002505AC03A96A
:100F900004A802F0CAFA00282AD1BDF810004CF6C5
:100FA000CD414843C00C0490BDF80C004843C00C30
:100FB00003903946304612F096FABDF810103046CC
:100FC00012F09EFA9DF80910304612F08CFABDF826
:100FD0000C10304612F094FA9DF80A10304612F0C8
:100FE00082FABDF81020BDF80C1008A003F0D2F86A
:100FF00000230A2219461846009501940DF0BCFE04
:10100000C5E7000054480D000010014068756D20D0
:101010003D2025640A74656D3D2025640A000000AA
:101020002DED048B84B00024DFF8AC80DFED2B8A3B
:101030009FED2B9A2B4D002603AFB8F8020000EE6F
:10104000100AB8EE400A20EE280A20EE098A18EEAF
:10105000100AFFF793FB41EC100B23A053EC102B6D
:1010600003F098F818EE100AA84225DB002C23D1D3
:1010700003A929480DF0F4FD03A928480DF0F0FD5F
:1010800003A927480DF0ECFD26A020F065FF002302
:101090000A2219461846019700960DF06DFE03A925
:1010A0001D480DF0DBFB03A91C480DF0D7FB03A97D
:1010B0001B480DF0D5FD012418EE100AA84202DAF3
:1010C000012C00D100240023022219461846019762
:1010D00000960DF051FEB0E73C0000200000803982
:1010E00033335340CDCC2C400D0A20546865206327
:1010F000757272656E74204C696768745F41444311
:101100005F566F6C2076616C7565203D20256620EA
:1011100056200D0A000000007C1C0020BC1E002090
:101120003C1D00204054657874546F5370656563AE
:101130006823CCECD4F5C3B4CDBBC8BBBADAC1CB01
:10114000240000002DED048B84B00024224EDFED3E
:10115000238A9FED239A234FDFF88C8003AD3088DC
:1011600000EE100AB8EE400A20EE280A20EE098AA6
:1011700018EE100AFFF702FB41EC100B1BA053EC1A
:10118000102B03F007F818EE100AB8421BDC98F891
:101190000000002817D103A91D480DF061FD0022B1
:1011A00011461CA01FF084FF1EA020F0D5FE0023D6
:1011B000032219461846019500940DF0DDFD03A9A0
:1011C00013480DF04BFB00231A46052118460195E4
:1011D00000940DF0D1FDC2E73C00002000008039F2
:1011E000CDCC544100002041B10000200D0A205414
:1011F00068652063757272656E7420414420766163
:101200006C7565203D2025662056200D0A000000E3
:101210007C1C0020303A6D65696469616E2E6A70CD
:10122000670000004054657874546F5370656563BF
:101230006823BFECC3BBB5E7C1CBA3ACD2AAB8F857
:10124000CED2B3E4B5E7BFA9A3A1240084B00025A2
:10125000B64EB74F0DF10C080FF03EFEA6FB002175
:101260004908A1EB81010144CCB2A7FB0021C908C8
:101270006FF00A0201FB020000F0FF094946ADA031
:1012800002F088FFB9F10B0F80F04081DFE809F030
:10129000060D141B41678DB3D7FDF50000221146E2
:1012A000A8A01FF005FF00F031B900221146A8A048
:1012B0001FF0FEFE00F02AB900221146A7A01FF081
:1012C000F7FE00F023B9002007F06CFC05F02CFAC3
:1012D00003AA002132200DF00DFD05230122022179
:1012E000A1A01FF04FFE24B90022114695A01FF0C7
:1012F000DFFE012C06D00022114698A01FF0D8FE78
:1013000000F004B90022114691A01FF0D1FE00F0B8
:10131000FDB8002007F046FC05F006FA03AA0021FC
:1013200032200DF0E7FC05230122022192A01FF0DC
:1013300029FE24B90022114682A01FF0B9FE012C1B
:1013400006D00022114685A01FF0B2FE00F0DEB8E4
:10135000002211467EA01FF0ABFE00F0D7B800209F
:1013600007F020FC05F0E0F903AA002132200DF07F
:10137000C1FC05230122022183A01FF003FE24B932
:10138000002211466FA01FF093FE012C06D0002210
:10139000114672A01FF08CFE00F0B8B80022114672
:1013A0006BA01FF085FE00F0B1B8002007F0FAFB3B
:1013B00005F0BAF903AA002132200DF09BFC0523A9
:1013C0000122022174A01FF0DDFD24B90022114684
:1013D0005CA01FF06DFE012C06D0002211465FA01C
:1013E0001FF066FE00F092B80022114658A01FF0D0
:1013F0005FFE00F08BB8002007F0D4FB05F094F9F5
:1014000003AA002132200DF075FC052301220221E0
:1014100065A01FF0B7FD24B90022114649A01FF0B6
:1014200047FE012C05D0002211464CA01FF040FEC3
:101430006CE00022114646A01FF03AFE66E0002054
:1014400007F0B0FB05F070F903AA002132200DF07F
:1014500051FC05230122022157A01FF093FD24B95E
:101460000022114637A01FF023FE012C07D00022D6
:1014700011463AA01FF01CFE48E02AE005E00022D9
:10148000114633A01FF014FE40E0002007F08AFB55
:1014900005F04AF903AA002132200DF02BFC0523A8
:1014A0000122022148A01FF06DFD24B9002211463F
:1014B00024A01FF0FDFD012C05D00022114627A01D
:1014C0001FF0F6FD22E00022114621A01FF0F0FDE2
:1014D0001CE0002007F066FB05F026F903AA0021B6
:1014E00032200DF007FC0523012202213AA01FF053
:1014F00049FD24B90022114612A01FF0D9FD012C8C
:101500000ED00022114615A01FF0D2FD0023192293
:1015100019461846CDF8048000950DF02DFC9BE689
:10152000002211460AA01FF0C3FDEFE7ABAAAAAA4A
:10153000A38B2EBA52616E6444617461203D2025F4
:10154000640A0000303A70632E6A70670000000081
:10155000303A7063322E6A7067000000303A706370
:10156000332E6A7067000000303A7869616F6A69EB
:10157000332E676966000000303A7869616F6A69E6
:10158000342E676966000000303A7869616F6A69D5
:10159000352E676966000000303A7869616F6A69C4
:1015A000362E676966000000303A7869616F6A69B3
:1015B000372E676966000000303A7869616F6A69A2
:1015C000382E676966000000303A7869616F6A6991
:1015D000392E676966000000303A7869616F6A6980
:1015E00031302E67696600002DE9F04F8BB0002482
:1015F000022601F0E7FB00F0C7FE00F05DFF0CF0F3
:1016000043F80122A1A1A24824F0F2FCA149C8702C
:101610000AA80CF095FE002211469FA01FF048FD7D
:101620006FF07F4007F0BEFA002007F0C6FA9D4831
:1016300007F0ECFADC2200219BA005F0EFFADC2297
:10164000AF219EA005F0EAFA3346DC22962120461F
:1016500005F04EFAF122002199A005F0DFFA4FF4CF
:10166000FA6023F0C3F800254FF0080808EBC50125
:10167000F122A3A005F0D2FA3346DC2296212046BF
:1016800005F036FAA01CC4B2642C01D364240326EE
:10169000642023F0ABF8681CC5B23A2DE6D399A0BC
:1016A00020F05AFC4FF4FA6023F0A0F8FEF7B2FDE8
:1016B00009900420984A0AAD0090462397A101950D
:1016C000A2F120000CF0D4F9002405274FF42F7963
:1016D0004FF0460A9548069403260594CDF808A0D5
:1016E000CDF80C90019004972346914A91A1009760
:1016F00007960895A0F518600CF084FE0C2007965C
:101700000290059480218F4A089506940920019241
:1017100003910090049700238B4A8CA18F480CF012
:1017200071FE8F480694019005940620CDF808A01C
:10173000CDF80C9000900497079608950023894AED
:1017400089A18D480CF05EFE4FF4967008950390C9
:1017500005941E21894A079606940720019202915A
:10176000009004970023864A86A18A480CF04AFE1E
:101770004FF400794FF0330A8748069405944FF0F0
:101780000A0BCDF808A0CDF80C9001900023834AF5
:1017900083A1CDF800B004970796089584480CF013
:1017A00031FE84480694019005940B20CDF808A0E2
:1017B000CDF80C90009004970796089500237E4A78
:1017C0007EA182480CF01EFE642081490895069493
:1017D0000594CDF808B00191039000237D4ACDF81F
:1017E0000080049707967CA181480CF00BFE81488D
:1017F000069405940796CDF80C90019000237E4A3C
:101800007EA1CDF808A004970096089580480CF0BA
:10181000F9FD80480694019005940420CDF808A0B5
:10182000CDF80C90009004970796089500237A4A0B
:101830007AA17E480CF0E6FD7D480694019005945F
:101840000C20CDF808A0CDF80C90009004970796D6
:1018500008950023774A78A17B480CF0D3FD0AA9AC
:101860006B480DF0FDF90AA977480DF0F9F90AA9BE
:101870005F480DF0F5F90AA974480CF085FE099847
:10188000FEF7CCFC0BB0BDE8F08F0000303A000052
:10189000540A0020B1000020303A6B61696A692E59
:1018A0006A706700C85F070853797374656D2053C9
:1018B00074617274696E672E2E2E00002500000080
:1018C0005B2E2E2E2E2E2E2E2E2E2E2E2E2E2E2E0B
:1018D0002E2E2E2E2E2E2E2E2E2E2E2E2E2E2E2E28
:1018E0002E2E2E2E2E2E2E2E2E2E2E2E2E2E2E2E18
:1018F0002E2E2E2E2E2E2E2E2E2E2E5D0000000091
:101900003D00000040506C6179464C415348233003
:101910003032332400000000A41A00204D656D20F1
:10192000466F72205465737400000000FC2500208F
:101930004D120008417070205461736B2053686F22
:1019400077425100EC4000203D0E000841707020AD
:101950005461736B204C656431000000FC1D002055
:10196000EC420020B91C0008417070205461736B78
:101970002074616C6B000000BC1E0020DC4D002058
:101980007D0F0008417070205461736B204C6564BA
:10199000330000007C1F0020EC30002045110008BF
:1019A000417070205461736B20506F776572000036
:1019B0003C1D0020EC3800202110000841707020F0
:1019C0005461736B204C6967687400007C220020AE
:1019D0008C5200207D0D0008417070205461736BA3
:1019E00020436865636B50656F706C650000000094
:1019F0003C2000201C540020BD1B000841707020BA
:101A00005461736B20546F7563685363616E00009B
:101A1000FC2000201C5C0020511A0008417070203E
:101A20005461736B20546F7563680000BC21002003
:101A30001C6400208D1C0008417070205461736B81
:101A40002057696E646F77003C230020BC1B002088
:101A500084B0002401250126DFF8F4A03D4F4FF0AB
:101A6000020BA0460DF10C097878002862D0DAF854
:101A7000041000208847012804D137A002F08AFB17
:101A8000601CC4B2032C17D3B6B903A934480DF0B7
:101A9000E7F80022642311461046CDF80490CDF8F3
:101AA00000800DF069F987F802B0012687F80180FF
:101AB00003A92C480CF0D2FE082C05D3012D03D12C
:101AC00029A020F049FA0025102C27D3002D25D17C
:101AD0002DA020F041FA03A921480DF0C1F803A977
:101AE00031480DF0BDF8002007F05CF804F01CFE52
:101AF00003AA002132200DF0FDF803230222012168
:101B00002AA01FF03FFA00240125002603A914484B
:101B10000CF0A4FE03A924480CF0A0FE00224FF410
:101B2000F07311461046CDF80490CDF800800DF00A
:101B300023F999E707F000FD00220A231146104619
:101B4000CDF80490CDF800800DF016F98CE7000078
:101B500044000020B1000020746F7563680A000023
:101B60007C1C00203C2300204054657874546F5343
:101B7000706565636823BAC3D1F7B0A12CB1F0C317
:101B8000FECED2C1CB2400004054657874546F530C
:101B9000706565636823D4D9C0B4A3ACCED2D2AA91
:101BA000D2A7C4E3C1CB2400BC1E0020303A796127
:101BB0006F72656E2E6769660000000088B0DFF8FE
:101BC000C0904FF0010A02AF4FF6FF784FF0000BC4
:101BD000D9F8041000208847002499F820000AFA58
:101BE00004F108423BD009EB4405A889B0F5F07F29
:101BF00037D2E98AB1F5887F33D237F824204245BD
:101C000004D127F8240007EB840041804FF47F00C3
:101C100006F0D3FF07EB8406EB8AAA89718837F8B0
:101C2000240005F00BFAA88927F82400E98A7180BE
:101C3000B0F5E47F15D9282913D2002006F0B2FFB1
:101C400004F072FD0F4806F0E1FFFF2006F0B5FF3B
:101C50000A224FF4E4710CA004F0F4FF01E027F82D
:101C6000248007A80022019005231146CDF800B07A
:101C700010460DF081F8601CC4B2052CADD3A7E767
:101C800044000020508D07085253540084B00025B2
:101C900003AC07A002F07EFA0BF066FC00224FF4C2
:101CA000E17311461046009501940DF065F8F0E7D8
:101CB00068656C6C6F0A000086B000250024DFF8B0
:101CC00000A4DFF8009405AE0027002302AA1946FD
:101CD000184600960CF0F6FC8046FBA0B8F8001001
:101CE00002F058FA012089F80000B8F80000162820
:101CF00000F0168114DC062839D007DC012818D042
:101D0000022824D0042840F0288325E0092870D038
:101D10000C2800F0C1800F2840F01F8300F0AAB803
:101D20001738062880F01983DFE800F0F9F8F7F695
:101D3000F5DEEAA002F02EFA05AA00214FF4FA60BF
:101D40000CF0D8FFE7A020F007F900F006BBE3A0F5
:101D500002F020FA00F001BBEAA002F01BFA05AA8B
:101D600000214FF47A700CF0C5FF00F0F6BAE7A03E
:101D700002F010FA03A904A801F0D7FB40B1E5A0D6
:101D800020F0EAF805A9ED480CF068FD00F0E5BA8E
:101D9000BDF810004CF6CD414843C00C0490BDF88E
:101DA0000C004843C00C039005A9E4480CF058FF10
:101DB000BDF810101C2908D3E1A020F0CDF80022B6
:101DC0001146ECA01FF074F9DCE700221146ECA0EC
:101DD0001FF06EF9BDF80C20BDF81010EBA020F03C
:101DE000BBF805AA002144F620600CF083FFC9E788
:101DF000FFE7F4A002F0CEF905A9D0480CF030FFBF
:101E0000002006F0CFFE04F08FFC002232231146A2
:101E10001046009701960CF0AFFFEC4820F09CF8BC
:101E2000032302220121EAA01FF0ACF803230222BF
:101E30000121EAA01FF0A6F8032302220121EAA053
:101E40001FF0A0F8032302220121EAA01FF09AF854
:101E5000032302220121EAA01FF094F803230222A7
:101E60000121EAA01FF08EF805A9B4480CF0F6FC99
:101E700000F073BAE8A002F08DF905A9AF480CF0A4
:101E8000EFFE00221146E6A01FF012F905A9AB48AB
:101E90000CF0E4FC00F061BAE4A002F07BF905A9C3
:101EA000A6480CF0DDFE00221146E2A01FF000F96A
:101EB00014B9E44820F050F8012C02D1E24820F097
:101EC0004BF80023192219461846009701960CF08A
:101ED00053FF601CC4B2022C00D3002405A997480C
:101EE0000CF0BCFC00F039BAD8A002F053F905A9F7
:101EF00092480CF0B5FE002006F054FE04F014FCED
:101F000000221146C6A01FF0D3F805A98B480CF09B
:101F1000A5FC00F022BA0BE2B5E097E074E045E0E2
:101F2000CCA002F037F9012505A984480CF098FEF1
:101F30000022642311461046009701960CF01CFF06
:101F400005A9C6480CF08CFE0022642311461046F9
:101F5000009701960CF010FF05A9C1480CF07EFC1B
:101F60000022642311461046009701960CF004FFEE
:101F7000002006F017FE04F0D7FBBA4806F046FE34
:101F8000FF2006F01AFE0A224FF4E471B6A004F016
:101F900059FE0022642311461046009701960CF06A
:101FA000EBFEB2A01FF0D8FF00F0D7B9BAA002F044
:101FB000F1F8012D49D105A960480CF04FFC002231
:101FC000642311461046009701960CF0D5FE05A932
:101FD000A3480CF045FE00226423114610460097EA
:101FE00001960CF0C9FE05A99C480CF037FC0022B4
:101FF000642311461046009701960CF0BDFEA9A07F
:102000001FF0AAFF0025A8E1ADA002F0C3F8012D42
:102010001BD1002006F0C6FD04F086FB914806F0B7
:10202000F5FDFF2006F0C9FD0A224FF4E4718EA0F1
:1020300004F008FE00223223114610460097019654
:102040000CF09AFEA0A01FF087FF86E1A8A002F086
:10205000A1F84FF0010B4421504611F044FA5946C3
:10206000504611F04DFA0D21504611F03CFA002275
:10207000322311461046009701960CF07DFE9EA07B
:102080001FF06AFF69E1A2A002F084F84FF0020B92
:102090004421504611F027FA5946504611F030FAC3
:1020A0000D21504611F01FFA00223223114610462E
:1020B000009701960CF060FE97A01FF04DFF4CE1D9
:1020C00000100140B10000205265636569766544E7
:1020D000617461203D2025640A000000C4E3BAC396
:1020E0000A0000004054657874546F53706565634E
:1020F0006823D3D0CAB2C3B4CED2C4DCB0EFC4E339
:10210000B5C42400D0D4B1F00A000000CEC2B6C8D5
:102110000A0000004054657874546F53706565631D
:102120006823B0A1D1BDCED2B5C4CEC2B6C8B4ABBF
:10213000B8D0C6F7BBB5C1CB240000007C1C002082
:102140004054657874546F53706565636823D5E2B5
:10215000D5E6B5C4CCABC8C8C1CBA3A1CEC2B6C866
:10216000B6BCB5BD5B6E325D256444B6C8C1CB2438
:1021700000000000303A6B752E6A706700000000A6
:10218000303A7869616F2E6A706700004054657854
:1021900074546F53706565636823CFD6D4DAB5C4C1
:1021A000CEC2B6C8CAC75B6E325D2564A3ACCAAAEC
:1021B000B6C8CAC7B0D9B7D6D6AE5B6E325D256495
:1021C00024000000CCFDB8E80A000000F0C20708B7
:1021D000303A67312E67696600000000303A673296
:1021E0002E67696600000000303A67332E67696623
:1021F00000000000303A67342E6769660000000076
:10220000303A67352E67696600000000303A67365D
:102210002E67696600000000C9FAC6F80A000000CF
:10222000303A666168756F2E6A706700D0A6BBB0E1
:102230000A000000303A68616E7869616F2E6A703A
:10224000670000004CC20708C4C10708B1BFB5B0A1
:102250000A000000BBADBBAD0A000000BC2100209D
:10226000FC200020508D07085253540040546578DC
:1022700074546F53706565636823BFAACABCBBAD55
:10228000B0C9A3ACC7EBCBB5CDCBB3F6BBADBBAD43
:10229000CDCBB3F624000000CDCBB3F6BBADBBADC8
:1022A0000A0000004054657874546F53706565638C
:1022B0006823C4E3BBADB5C4D5E6C4D1BFB4240024
:1022C000C7E5C6C10A0000004054657874546F53D6
:1022D000706565636823BAC3C1CBC4E3BFC9D2D4F8
:1022E000D6D8D0C2BFAACABCBBADC1CB24000000A7
:1022F000BFAAB5C60A0000004054657874546F53F5
:10230000706565636823D2D1BFAAB5C624000000FA
:10231000B9D8B5C60A0000004054657874546F53AC
:10232000706565636823D2D1B9D8B5C624000000B2
:1023300005A90E480CF094FC0022642311461046B7
:10234000009701960CF018FD89F80170022089F8B9
:10235000020005A906480CF081FA89F8007005AA68
:10236000414604480BF003FCAFE400007C1C002055
:102370003C230020841A002000B585B068460EF08A
:102380005DFA019805B000BD08B5012108030EF003
:1023900001FA4FF4A0600BF031FA01F0AFFE00F04B
:1023A00099F800F0EBF80EF001FB274801F0F2FE7F
:1023B000264801F0EFFE264801F0ECFE234801F02C
:1023C000E9FE214801F0E6FE0AF00CF80FF0F0FB00
:1023D00020A001F0DFFE09F0FEFA10F01FFE05F06C
:1023E0002BFB1FA001F0D6FE0EF01EFE21A001F077
:1023F000D1FE01F0E9F810B323A001F0CBFE0EF0FE
:10240000FBFA0EF029FB08200A2312221421009067
:102410000EF0B0FC24F0E8FEC82022F0E7F90AF044
:102420008DFF0AF069FF25F0E3F900280BD025F0B5
:10243000DFF90146BDE8084019A001F0ABBE1BA0C2
:1024400001F0A8FEDBE708BDE8C0070860C0070888
:10245000A4C00708534452414D204F4B210A0000AD
:102460004755495F496E69742053756365737321DD
:102470000A00000041445F496E697420537563652A
:102480007373210A0000000048617665206E6F7446
:102490002066696E642044485432320A000000000D
:1024A000646D70203D2025640A00000044485432C9
:1024B00032204F4B210A000010B5FFF75DFF0449A1
:1024C0000968B0FBF1F0BDE810400CF03FBD000022
:1024D0009C99020870B586B0012102200EF05AF9CD
:1024E000012188040EF080F9224E07220B2130468C
:1024F00003F05DFA07220A21304603F058FA00245F
:102500008DF8164001218DF8171002258DF8145012
:10251000890204918DF8155004A9304603F0FCF9A6
:102520008DF81450A802049004A9304603F0F4F981
:102530004FF4E1300090ADF80440ADF80640ADF83E
:102540000840ADF80C400C20ADF80A000A4C694672
:10255000204610F057FF0BF008F9012240F22551F8
:10256000204610F032FF0121204610F0F7FE06B0A1
:1025700070BD0000000402400048004030B587B044
:10258000012140200EF006F9012120200EF03AF939
:10259000174D08220E21284603F009FA00248DF871
:1025A000164001218DF8171002218DF814104A03EE
:1025B00004928DF8151004A9284603F0ADF94FF4E4
:1025C000E1300090ADF80440ADF80640ADF80840A9
:1025D000ADF80C400820ADF80A00064C69462046CC
:1025E00010F010FF0121204610F0B8FE07B030BDFA
:1025F000001802400014014038B545680446014601
:10260000284610F0B4FF00282BD02068304A11284B
:102610000DD006DC0B2825D00E2833D00F2852D140
:1026200012E0282849D0B0F5107F4CD108E092681C
:10263000002A16D02146284601B0BDE83040104798
:10264000214628465268F7E7284603F089FE0090A5
:10265000406E0468684603F0EFFE002C01D0284667
:10266000A04738BD284603F07BFE0090683003F099
:10267000CDFD009803216C3003F0D6FD684603F0D1
:10268000DBFE20E0E168486809680D2902D02029B6
:1026900013D105E0002810DD28461CF0D6FB06E02B
:1026A000002804DD2846BDE838401CF0CEBB284693
:1026B000BDE8384002211CF0DEBBE06818B90021FB
:1026C000284600F093F92046BDE8384011F00ABBD7
:1026D00060030020F0B585B00AAC94E8E000002467
:1026E000CDE90246CDE90057049400F025F805B085
:1026F000F0BDF0B5044685B08069B4F90850668A2B
:102700000027CDE90265CDE900170490B4F90C006B
:10271000B4F91060C118B4F90A00B4F90E501044AD
:1027200033462A4600F008F80546616800F07DF956
:1027300005B02846F0BD00002DE9F04F85B01F46DA
:10274000DDE911B4DDE90E5690468946824605F072
:1027500085FC16484C34CDE90204CDE900563B46D1
:1027600042464946504611F005FA040018D003F0DD
:10277000F7FD10225946049011F062F804983022B7
:102780000B493430FDF7BEFD094D04990C3D286816
:10279000486604A803F050FE286841682046884730
:1027A00007F0C6F805B02046BDE8F08FF92500080F
:1027B0006C030020F0B5044680688B4989B051F85D
:1027C0002050606800287DD0052804D006287AD0E3
:1027D000122879D1AEE0E86900284FD095E80E00C4
:1027E0008DE80F0004F110010FC907F0E9FC002685
:1027F00055F8260006F0E1F9A169E8690A1A21698D
:1028000001446069304404F0EDFBA169E8690A1AEB
:1028100021690144E069801B04F0E4FBE169E86997
:102820000A1A616901442069304404F091FCE169AD
:10283000E8690A1A61690144A069801B04F088FCF8
:10284000761C022ED4DBA86806F0B7F9E069E969C6
:102850006669431A206942183144801C521E04F0F4
:10286000D9FCE169E869A2690B1A61690144101A8F
:10287000401C921E04F0CEFCEE6913E05FF00006EF
:1028800055F8260006F099F9E069831BA069821BC0
:10289000606981192069304404F01AFC761C022E0C
:1028A000EEDB0226D5E90301CDE900016169E069AB
:1028B00008444310A069891C821B2069304404F03D
:1028C00055FB02E089E012E08AE0D5E90501CDE997
:1028D0000001E36960690121184401EB6001A0690E
:1028E0009B1E821B2069304404F040FB78E0206886
:1028F00003F036FD0490206812F066FE40B1A06837
:1029000008B1002008E00498006F28B1012003E01E
:102910000498406F00B10220049901EB8000C56E5D
:1029200004A803F089FD00231A462846216804F014
:1029300091F855E0206803F013FD0490866EEEB325
:10294000B0F95C70A168D1B3032942D05FF00001F7
:1029500000EB8101406D0C6C06F058F9204606F042
:102960002CF905A804F0B0FFBDF81410A88B0144A1
:10297000ADF81410BDF81810081AADF81800BDF81D
:102980001600801CADF81600BDF81A00801EADF8C8
:102990001A000498B0F96020B0F95E1005A805F09F
:1029A000B9FF04A803F048FD022006F0B1F9304653
:1029B00003F0D6FC3A4605A9079001E00BE006E0DB
:1029C00004F05AF90DF11C0003F036FD08E0012176
:1029D000BEE70221BCE704A8F6E7206812F02AFA55
:1029E00009B00020F0BD000014B607084FF4807253
:1029F0000029114601D010F04FBE10F09FBD08B560
:102A00000023009300F001F808BD70B516460C468F
:102A1000054619463046049A03F0FEFF0246214659
:102A20002846BDE8704000F02DB82DE9FF410E4664
:102A300005004FF0010421D005F010FB284603F0FB
:102A40008FFC0190876E01A8009703F0F5FC3146DA
:102A5000684607F0FDFE78B100980024B84208D01F
:102A6000284603F07DFC01900099816601A803F0DF
:102A7000E3FC284611F0BAFE06F05AFF04B02046E7
:102A8000BDE8F081F8B515460C46060018D005F0F3
:102A9000E5FA304603F064FC0090032C0BD200EB07
:102AA00084006C3003F0B2FB009800EB8400C56634
:102AB000304611F09BFE684603F0BEFC06F038FF7E
:102AC000F8BDFEE7F8B5446805460146204610F01B
:102AD0004EFD002836D028680B2839D00E2805D0A6
:102AE0000F2821D0B0F5107F3CD12CE0204603F018
:102AF00037FC009010F8746F4778684603F09CFC30
:102B0000204612F061FD10B3E8684168002929DD14
:102B10000068202826D17F1CB7FBF6F006FB107159
:102B2000204600F01BF91DE02546204603F018FC66
:102B30000090006F0468684603F07EFC002C01D012
:102B40002846A047F8BD294620461CF05DFC09E058
:102B5000204603F005FC0090783003F057FB6846F0
:102B600003F06AFC2846BDE8F84011F0BBB8F0B5A8
:102B700085B0B0F90850468A84690296CDE90354BD
:102B80000027CDE90017B0F90C10B0F91050B0F9DA
:102B90000E40B0F90A00194410442B46224600F0BA
:102BA00003F805B0F0BD00002DE9F04F85B01D46DB
:102BB000DDE90E9716468A468346DDF8488005F023
:102BC0004DFA254C0EB135B10AE0206880680068E6
:102BD00080470646F7E7206880680068804705461A
:102BE0001D486FF07041001DC068884201D147F058
:102BF000010708F15400194ACDE90220CDE90097F8
:102C00002B4632465146584610F0B4FF05001CD002
:102C100003F0A6FB10220490119910F011FE0E494A
:102C200004983C22091D3430FDF76CFB04982168A0
:102C30000167022180F874100F21C16704A803F016
:102C4000FBFB206841682846884706F071FE05B006
:102C50002846BDE8F08F00009C030020C52A00082C
:102C60002DE9FF470446006810B112F0ADFC68B1D1
:102C70000022314850F8221060680A2841D007DC51
:102C8000F0B306280DD0072854D106E00122F0E762
:102C900012280AD019284DD137E0204615F052FCF1
:102CA00048E0204617F01EFC44E0206803F058FB83
:102CB0000290B0F9548090F85650476C466B02A8C9
:102CC00003F0BAFB206800F039F88146684611F03D
:102CD0001FF9BDF8001009EB05000844ADF800002D
:102CE000246A304605F092FF022006F011F83846BB
:102CF00005F063FF42466946204603F0BDFF19E038
:102D000007E0204617F0FFFC14E0886904B0BDE836
:102D1000F087206812F08EF8206803F021FB039002
:102D2000B0F90610B0F90220891A491CC16703A83E
:102D300003F082FB0020E9E78CB6070838B50446AB
:102D400005F08CF9204603F00BFB0090C46F684639
:102D500003F072FB06F0ECFD204638BD38B50C469A
:102D600005001BD005F07AF9284603F0F9FA009027
:102D700090F87410A1420CD980F87540684603F0B1
:102D80005BFB284611F032FD0521284611F0DFFDDE
:102D900002E0684603F050FB06F0CAFD38BD0000B3
:102DA00000B589B024216846FDF7D4FA19200190B6
:102DB00003480068806841686846884709B000BDDC
:102DC0009C03002010B500F019F8BDE8104000F099
:102DD00011B8000010B5FDF71DFA04461021044893
:102DE0000AF04DFC2046BDE81040FDF717BA000080
:102DF00064CC0020FFF7EEBFFEE700000249002090
:102E0000086000F009B80000D00000200149086007
:102E100070470000D000002010B5FFF7ADFA084958
:102E20000A6842F080720A60064900224A600A6815
:102E300042F001020A60BDE81040FFF7E7BF000062
:102E4000FCED00E0001000E0014840687047000021
:102E5000001000E0022021F0CFBC000070B50B4D47
:102E600000242C600A48016821F0C001016001685B
:102E700041F04001016007480460FFF7EBFF0120CB
:102E80002860FFF7E7FF2C6070BD00009882434286
:102E9000002002408C02444210B582B00121802003
:102EA0000DF078FC012108020DF074FC4020009028
:102EB00001248DF8044000208DF806008DF80740AD
:102EC00002208DF805006946074802F025FD08201C
:102ED00000906946054802F01FFD0548046005485A
:102EE000C0F8984202B010BD001C02400020024011
:102EF0008C0244420080434270B50B4E0024346083
:102F00000A48016821F0C0010160016841F04001F8
:102F10000160074801250560FFF79CFF3560FFF75A
:102F200099FF346070BD0000988243420020024047
:102F30008C0244422DE9F04782460024174801687C
:102F400021F0C0010160016801601E2021F054FCE5
:102F50000025134FDFF84C9000264FF00108C7F80A
:102F60009862FFF777FFC7F898826006040ED9F8D9
:102F70000C0208B1601CC4B2FFF76CFF681CC5B23C
:102F8000082DECD3BAF1000F04D0FFF767FF2046FD
:102F9000BDE8F087FFF7B0FFF9E70000002002402E
:102FA00000804342000044422DE9F04705461348A3
:102FB000016821F0C0010160016841F04001016039
:102FC0000F4E4FF00008C6F898820024DFF83490C6
:102FD0000127E809C9F88C026806050EFFF73AFFD9
:102FE000C6F89872FFF736FFC6F89882FFF732FFEF
:102FF000601CC4B2082CECD3BDE8F087002002406E
:10300000008043420000444270B50B48016821F043
:10301000C0010160016841F040010160074D0120DD
:103020002860074E30601E2021F0E6FB00242C6053
:10303000FFF710FF346070BD002002408C02444254
:103040009882434270B50B48016821F0C0010160CD
:10305000016841F040010160074D00202860074EE3
:1030600030601E2021F0C8FB01242C60FFF7F2FE27
:10307000346070BD00200240988243428C0244427A
:1030800070B500241248016821F0C0010160016898
:103090000160104D0120C5F88C020F4EC6F8980251
:1030A000FFF7D8FED5F80C0268B1601CC4B2FA2C48
:1030B00003D9FFF7C7FF012070BDFFF7CBFED5F89E
:1030C0000C020028F1D10020C6F8980270BD000063
:1030D00000200240000044420080434210B58CB002
:1030E000446803A900200DF041FD02A900200DF065
:1030F00019FD9DF80E0000909DF80D309DF80C20F4
:1031000010A104A81EF038FF40F60F01204610F071
:1031100043FF04A90FF03FFF9DF80A0000909DF8BF
:1031200009309DF80B200AA104A81EF025FF4FF4DA
:103130000161204610F030FF04A90FF02CFF0CB005
:1031400010BD000025643A25643A256400000000A3
:10315000323025642F25642F2564000070B50025CA
:103160004FF4803400E0641E24B180200EF0DAFABF
:103170000028F8D02CB140F2FF500EF08FFA28460C
:1031800070BD032070BD000070B50546002447499E
:10319000086810F0450F03D1086810F0450FFBD008
:1031A00010F0040F05D0032404200EF077FA204617
:1031B00070BD10F0010F05D0012401200EF06EFA51
:1031C000204670BD0EF0A8FAA84201D0102070BDB4
:1031D00040F2FF500EF062FA00200EF0BFFA3449C0
:1031E000084201D1204670BD10F0004F01D01C20D4
:1031F00070BD10F0804F01D0092070BD10F0005F4D
:1032000001D00A2070BD10F0805F01D00B2070BD8E
:1032100010F0006F01D00C2070BD10F0806F01D055
:103220000D2070BD10F0807F01D00E2070BD10F415
:10323000000F01D00F2070BD10F4800F01D01020BE
:1032400070BD10F4001F01D0112070BD10F4801F5C
:1032500001D0122070BD10F4002F01D0132070BDDA
:1032600010F4802F01D0142070BD10F4003F01D065
:10327000152070BD10F4803F01D0162070BD10F4F1
:10328000004F01D0172070BD10F4804F01D01820DE
:1032900070BD10F4005F01D0192070BD10F0080F50
:1032A00001D01A2070BD204670BD0000342C0140B2
:1032B00008E0FFFD10B50024104A116811F0450F19
:1032C00003D1116811F0450FFBD011F0040F05D0A8
:1032D000032404200EF0E2F9204610BD11F0010F86
:1032E00005D0012401200EF0D9F9204610BD40F28E
:1032F000FF500EF0D3F9204610BD0000342C0140E1
:1033000010B500240B4A116811F0450F03D1116864
:1033100011F0450FFBD011F0040F05D00324042059
:103320000EF0BCF9204610BD40F2FF500EF0B6F989
:10333000204610BD342C014070B506460C460025D1
:103340001F4A106810F0450F03D1106810F0450FA8
:10335000FBD010F0040F05D0032404200EF09EF9DA
:10336000204670BD10F0010F05D0012401200EF0A1
:1033700095F9204670BD0EF0CFF9B04201D0102073
:1033800070BD40F2FF500EF089F900200EF0E6F912
:1033900010F4604F04D010F4005F05D0132070BD0E
:1033A000000C2080284670BD10F4804F01D0102002
:1033B00070BD10F4004F01D00F2070BD284670BDC5
:1033C000342C014010B500204FF480310E4B1A68A8
:1033D00001E0491E1A6812F0450F01D10029F8D109
:1033E00011B112F0040F05D0032404200EF056F999
:1033F000204610BD12F0400FFBD0002440200EF0FC
:103400004DF9204610BD0000342C014010B582B0AB
:1034100010F0ACFD002403460094054A0D21054838
:10342000019403F0CDF904490C7002B010BD000006
:1034300085380208104B0508B300002000B583B0A2
:1034400010F094FD0021009103460191034A0421EC
:10345000034803F0B5F903B000BD00009140020835
:103460007C4C050870B500241448016821F00C015B
:10347000016001680160124D04E0601CC4B20120CB
:1034800021F0BAF9D5F8040208B1642CF5D3642C04
:1034900001D3012070BD002404E0601CC4B20120EF
:1034A00021F0AAF9D5F8040208B9642CF5D3642CEC
:1034B00001D3012070BD002070BD00000008024053
:1034C0000000414270B50024104D04E0601CC4B2FD
:1034D000012021F091F9D5F8040208B1642CF5D34C
:1034E000002404E0601CC4B2012021F085F9D5F865
:1034F000040208B9642CF5D31E2021F07DF9D5F81B
:10350000040208B1012070BD002070BD00004142DE
:1035100070B5002000244006050EFFF7D3FF2843B6
:10352000611CCCB2082CF6D370BDF0B583B0064652
:103530000F4600F02DF8FFF795FF10B103B0012002
:10354000F0BD002401ADFFF7E3FF2855601CC4B2B5
:10355000052CF8D39DF804009DF805109DF8072070
:1035600008449DF80610114408449DF8081088424C
:103570000BD101A80FF0C4FE21F04EFA3880A81C30
:103580000FF0BEFE21F048FA308003B00020F0BDFD
:1035900010B50B48016821F00C010160016841F091
:1035A00004010160074C00202060142021F01EF966
:1035B00001202060BDE810401E2021F01DB9000050
:1035C000000802408402414200B583B0012104207A
:1035D0000DF0E0F80220009001218DF80410002287
:1035E0008DF806208DF807108DF80500694604480F
:1035F00002F092F9FFF7CCFFFFF734FF03B000BDF4
:1036000000080240014902208860704700B0024073
:103610000EF0AABF074A904201D2074800E00748CF
:10362000074A11F0005F01EA020101D0C160704752
:1036300081607047106402400060024000640240F4
:103640007D0F7D0F002904D0016841F00101016068
:103650007047016821F00101016070472DE9F00316
:10366000016821F001010160002101604160816079
:10367000C160016121214161444A45494FF03D0843
:10368000904204D1C1F80880BDE8F0037047414A78
:103690004FF47464904203D18C60BDE8F00370472E
:1036A0003D4A4FF47415904203D18D60BDE8F0039C
:1036B00070473A4A4FF07466904203D18E60BDE87D
:1036C000F0037047364B374A984203D1CA60BDE8D1
:1036D000F0037047DFF8D0C0344B604503D1CB60B6
:1036E000BDE8F0037047324FDFF8C8C0B84204D1DC
:1036F000C1F80CC0BDE8F0037047DFF8BC904FF094
:103700003D57484503D1CF60BDE8F0037047DFF86F
:10371000AC902B49484504D1C1F80080BDE8F003C6
:103720007047DFF8A080404503D10C60BDE8F0038E
:103730007047254CA04203D10D60BDE8F0037047EF
:10374000224CA04203D10E60BDE8F0037047204C2C
:103750002049A04203D10A60BDE8F00370471E4A29
:10376000904203D10B60BDE8F00370471B4A9042C2
:1037700004D1C1F800C0BDE8F0037047184A904278
:10378000F9D10F60BDE8F0037047000010600240FF
:1037900000600240286002404060024058600240E1
:1037A000706002403D00002088600240400F002011
:1037B000A060024000003D20B8600240106402405A
:1037C0000864024028640240406402405864024099
:1037D000706402400C64024088640240A0640240AD
:1037E000B8640240002904D0016841F02001016062
:1037F0007047016821F020010160704711F0800FCF
:1038000009D022B1436943F08003436103E0436977
:1038100023F080034361802905D001F01E011AB115
:103820000268114301607047026822EA01010160E9
:103830007047000010B402681C4B1A40D1F80CC04D
:103840000B688C6943EA0C03D1F814C04CEA040CF1
:1038500043EA0C03D1F81CC043EA0C03D1F820C0A2
:1038600043EA0C03D1F824C043EA0C03D1F828C082
:1038700043EA0C03D1F834C043EA0C03D1F838C052
:1038800043EA0C031A430260426922F00702D1F8AE
:1038900030C0CB6A43EA0C031A4342610A694260B2
:1038A0004A6882608968C16010BC70473F801CF024
:1038B0002DE9FC410C46050038D004F0CFFB112C5B
:1038C00014D0132C28460ED002F04AFD009000F0D0
:1038D000FCFB0646684602F0AFFD20461DF02BFDBE
:1038E000074600241CE000F006FB1BE0284600F021
:1038F00087F917E02146284600F0EAFB019070B1F5
:1039000000781DF018FD00F0FF0801A802F094FDFA
:10391000B84504D12146284600F08EFB02E0641C25
:10392000B442E7DBBDE8FC4106F002B8BDE8FC812B
:10393000F8B50C46050018D0002C16D004F08EFB0C
:10394000284602F00DFD0090C66B684602F074FD3B
:103950002046FCF70AFD421C2146304602F08EFD4F
:10396000284610F043FF05F0E3FFF8BD2DE9FF41C5
:1039700045680446284602F0F3FC0190D0F88860C0
:1039800001A802F059FD0EB1012700E000272146F1
:1039900028460FF0ECFD002856D02068112844D0AE
:1039A00006DC0B2863D00E2878D00F282BD14FE0EF
:1039B000212805D026281AD0B0F5107F23D139E070
:1039C000E068416800291EDD00680D281BD13046E3
:1039D00008F04FFF002806DB304608F04AFF01469A
:1039E000284600F029FB284600F07EF875E0E068E4
:1039F000012809D00A2802D00B2871D111E00A2130
:103A0000284610F0A4FF6BE0304608F032FF002893
:103A100066DB304608F02DFF0146284600F00CFB1F
:103A20005BE0284600F060F85AE0FFB9E068007AF1
:103A300098BB55E0E06848B1007A08B1012100E088
:103A40000221284610F083FFBDE8FF810321F8E73B
:103A50002E46284602F084FC0290D0F884000568C7
:103A600002A802F0E9FC0DB13046A84738E028462C
:103A700002F076FC0090C06B02F040FD0098D0F898
:103A8000880010F067F90098D0F8940002F09AFBD3
:103A9000684602F0D1FC23E000E016E0E0684168EF
:103AA00000291DDD016820290FD006DC092910D06E
:103AB0000A2915D01B2904D112E0212910D022296E
:103AC0000ED02846FFF7F4FEBEE7284600F0FAF8CD
:103AD00006E010F0A7FAB04202D1284611F0FEF835
:103AE000204610F0FFF8AFE738B5040016D004F018
:103AF000B5FA204602F034FC0090D0F8880040B1BE
:103B000010F028F900990020C1F88800204610F034
:103B10006DFE684602F090FC05F00AFF38BDF0B576
:103B200085B0B0F90850468A84690296CDE90354FD
:103B30000027CDE90017B0F90C10B0F91050B0F91A
:103B40000E40B0F90A00194410442B46224600F0FA
:103B500003F805B0F0BD00002DE9FF5F1D46DDE96B
:103B60000F8691468A4683460E9F129C04F076FA91
:103B700021496C34CDE90214CDE900784FF0FF33D0
:103B80004A46514658460FF0F5FF04002DD002F08A
:103B9000E7FB1022009011990FF052FE0098382296
:103BA000164980F88C604C30FCF7ACFB134E009843
:103BB000361F3168C0F88410002180F89010C58647
:103BC000204600F061FA684602F036FC02F093FCF1
:103BD0000546204602F0C4FB0090C563684602F02B
:103BE0002BFC306841682046884705F0A1FE04B0F0
:103BF0002046BDE8F09F00006D390008E00300207A
:103C000010B5044600F063F9010000D0411E2046C3
:103C1000BDE8104000F010BAF8B50546006802F0A3
:103C20009FFB0090448ED0F88860684602F004FC48
:103C300006B1012604F00104286811F0C5FC0EB19C
:103C4000002006E00CB1012003E008B1022000E0F2
:103C500003201B4951F82010686858B302280CD083
:103C6000052802D0122828D103E0284614F096FC3B
:103C700023E0284617F0C0F91FE06A69E8694FF0B1
:103C8000FF33801AA0F1080203EB6204421CAB6907
:103C9000001B4510A3EB6206C86904F08EFF06E026
:103CA0003219311B284603F09DF9641E6D1C002C4F
:103CB000F6DA02E0286811F0BDF80020F8BD000037
:103CC00094B607082DE9F14F9EB01E9800287DD0CC
:103CD00004F0C4F91E9802F043FB0B901E9810F0FC
:103CE000ACFA03900B98B0F9367090F890101891D8
:103CF000C16B0A9190F88C90B0F93410159100F0D6
:103D0000E4F982460B9804ACB0F88E101491B0F927
:103D100082101391C16C1291D0E90012CDE90C12FE
:103D2000D0F894B0002100BF00EB8102126D44F87E
:103D30002120491C0329F7D3002107AD00EB8102A4
:103D4000D26D45F82120491C0329F7D300210EAE7E
:103D500000EB8102126F46F82120491C0329F7D39A
:103D60000BA802F069FB1E9810F0F9F902F0F8FABE
:103D70001190D0F8008011A802F05EFB4FEA2840B5
:103D800042420FFA88F041420CA804F0C3FD5FEAFA
:103D9000897003D5BDF83200C01B01E0BDF83600C4
:103DA000ADF832001E9810F0DAF9014603980222AD
:103DB000CDE900070292BDF93230BDF93020002074
:103DC00008F0E7FC80465FEAC97000E07CE007D0BD
:103DD0004046189908F09BFF0121404608F0BCFEC0
:103DE000002708E039460A9802F0BCFB014640462D
:103DF00008F08AFB7F1C5745F4D30027394654F856
:103E00002720404608F0D2FE7F1C032FF6D3002463
:103E1000214655F82420404609F012F8641C032C72
:103E2000F6D30024214656F82420404608F04FFFE0
:103E3000641C032CF6D3BBF100001FD002F090FAF3
:103E4000169030F8025B00240646012711E000BFFF
:103E500006EBD40004F00701007807FA01F10842EC
:103E600001D0012200E000222146404608F0D0FEA9
:103E7000641CAC42ECDB16A802F0DEFA4046149952
:103E800008F0F9FE4046129908F0A9FE4046139941
:103E900008F0C1FF404610F021FF40461E9908F08F
:103EA00001FF4046159908F04FFF01211E9810F0C0
:103EB0004EFD1E9802F054FA0B90C0F888800BA8B3
:103EC00002F0BAFA05F034FD1FB0BDE8F08F38B546
:103ED00005004FF000040CD004F0C0F8284602F0B2
:103EE0003FFA0090B0F93440684602F0A5FA05F0B8
:103EF0001FFD204638BD10B50446FFF7E8FF411C02
:103F00002046BDE8104000F097B8F8B50E46040012
:103F100021D004F0A3F8204602F022FA009090F895
:103F20008C10D0F8885021F001040EB144F0010447
:103F3000A1420BD080F88C40684602F07DFA45B172
:103F400004F00101284608F007FE02E0684602F08E
:103F500073FA05F0EDFCF8BDF8B50C46060028D064
:103F600004F07CF8304602F0FBF90090D0F888505D
:103F7000C06C03F039FD07460098C464684602F03F
:103F80005BFA304600F080F8304610F02FFC75B137
:103F9000204603F029FDB84205D03046FFF7A4FDC6
:103FA0003046FFF78FFE2146284608F018FE05F040
:103FB000BFFCF8BDF8B50C4605004FF0000618D060
:103FC00004F04CF8284602F0CBF90090B0F93660C6
:103FD000D0F88850C486684602F02EFA3DB12846D3
:103FE00010F02BF901462246284610F078FF05F024
:103FF0009FFC3046F8BD38B50C4605001BD004F0D8
:104000002DF8284602F0ACF9009090F89010D0F806
:1040100088508C420AD080F89040684602F00CFA32
:104020003DB12146284608F072FE02E0684602F0E3
:1040300003FA05F07DFC38BD38B50C46050022D0EA
:1040400004F00CF8284602F08BF9009000F03DF8DF
:1040500000B1401E844200DD04460098B0F93410DF
:10406000A1420BD08486684602F0E6F9284610F09B
:10407000BDFB0421284610F06AFC02E0684602F00D
:10408000DBF905F055FC38BDF8B5044602F068F9D7
:1040900001460090B0F9380010B9C86C03F0A4FCD8
:1040A0000099CA6AB1F98030126800EB4300161813
:1040B000084611F007F90546684602F0BDF9324698
:1040C0002946204610F00BFFF8BDC06B02F03EBA47
:1040D00038B50D46002402F043F90090C06B294624
:1040E00002F040FA0546684602F0A6F91DB12846DE
:1040F00002F036F90446204638BD704770B586B0E8
:10410000012108460CF046FB012110200CF07AFB3F
:104110001E4E07220A21304601F049FC07220921E0
:10412000304601F044FC00248DF8164001218DF842
:10413000171002258DF81450490204918DF815507E
:1041400004A9304601F0E8FB8DF814506802049091
:1041500004A9304601F0E0FB4FF4E1300090ADF8E7
:104160000440ADF80640ADF80840ADF80C400C2016
:10417000ADF80A00064C694620460FF043F90121CC
:1041800020460FF0EBF806B070BD000000000240C2
:10419000001001400FB438B505A80090049C2078A9
:1041A000002808D02078252808D0641C24F090FA34
:1041B00020780028F6D138BC5DF814FB14F8010F04
:1041C00064281ED00CDC58283AD004DC25283ED0C8
:1041D00042283FD12DE062282BD063283AD108E055
:1041E000662815D069280CD073281BD0782831D1C7
:1041F00026E0009810F8041B0090C8B224F068FA7A
:1042000028E0009951F8040B009124F067FA21E0AE
:104210000098C01D20F00700B0EC020B009024F0C5
:104220007FFA17E0009951F8040B009124F0CAFAC4
:1042300010E0009951F8040B009124F02FFA09E0E6
:10424000009951F8040B009124F09AFA02E025201D
:1042500024F03EFA641CABE700234FF02042102804
:104260000BD0B0F5807F0AD0B0F5805F0AD0D2F8CD
:10427000580131EA000009D107E0506EF9E7D2F8A1
:104280008400F6E7D2F8A400F3E70123184670474C
:104290004268016811438268C068521E520142EAB6
:1042A000402008430149086070470000500100A009
:1042B00030B403689900A1F1C041D1F840116FF307
:1042C0000E01D0F808C04268046942EA0C02D0F836
:1042D0000CC04CEA040C42EA0C02D0F814C042EACA
:1042E0000C02D0F818C042EA0C0CC2694CEA020475
:1042F000D0F820C044EA0C05446A254329434FF016
:104300002045002B48D0D5F840316FF30E0342EA28
:104310000C0223431A43C5F8402102689200A2F11F
:10432000C042C2F840110168A9B38900A1F1C0419F
:10433000D1F8481101F07042816A0B68D1F804C0CD
:104340005B1EACF1010C43EA0C13D1F808C0ACF1D0
:10435000010C43EA0C23B1F810C0ACF1010C43EAA4
:104360000C431A43D5F8483103F07043D1F80CC020
:10437000898AACF1010C4FEA0C3C491E4CEA015110
:104380001943C5F8481100688000A0F1C040C0F88A
:10439000482130BC704702E0C5F84011C3E7D5F8AA
:1043A000481101F07041806A02684368521E5B1E2A
:1043B00042EA031283685B1E42EA0322C3685B1E63
:1043C00042EA0332038A5B1E42EA0342838A007E8A
:1043D0005B1E42EA0352401E42EA00600843C5F8F1
:1043E000480130BC7047000002490A6842EA4000B8
:1043F00008607047540100A02DE9F04389B0984649
:1044000015460F4606004FF000042CD000F0A8FB24
:104410000446304600F08BFB814603F01FFE03A9E3
:10442000304600F079FCF80706D0BDF91C00822167
:10443000001B401B401C08E0B807BDF918002844C9
:1044400002D540F2022100E002210096CDE901816F
:1044500023461A464946FEF73DF9044600210FF06F
:1044600034F905F065FA09B02046BDE8F083000094
:1044700010B50523FFF7C0FF0446054A0021FEF7EB
:10448000BEFA0449204610F094FB204610BD0000FF
:10449000E1830108713802082DE9F04704464068BD
:1044A0008EB00027804601F05BFF0090B0F87CA042
:1044B000D0F86890D0F88060D0F88850C06D00B116
:1044C0000768684601F0B8FF05E06968204688473C
:1044D000002843D12D68002DF7D12068172853D02C
:1044E0000CDC0F283DD004DC0B2877D00D2825D11B
:1044F0008BE0112810D0142820D13BE0262846D08C
:1045000004DC1E2851D0202818D18AE02A2816D091
:10451000B0F5107F12D128E04046E56801F020FF99
:104520000290697A39B9297A012904D130F87C1FBF
:1045300041F48071018002A801F07EFF75E04046E1
:1045400001F00EFF0090E16811B1C0F8841002E0A4
:10455000D0F88400E060684601F06EFF0EB0BDE860
:10456000F087D7B34046B8475FE0214640461AF08F
:1045700081FFF3E705A9404600F0CEFBE06806990D
:10458000016007994160E9E7C4F80C90E6E7E0684C
:104590000228E3D1CDF83080E0680D9027200A9002
:1045A0000AA9A06811F00AFAD8E7E068012804D047
:1045B0000021404600F0F1FAD0E7304610F07FF9D4
:1045C00068B1304610F08AFB304610F03BF898B1E5
:1045D000012130460FF060F80EE026E02FE048465B
:1045E00010F0D0FB0646404601F0BAFE0090C0F83D
:1045F0008060684601F020FF0121404600F0CDFABE
:10460000002EABD10020E060A8E75FEA0A700CD46E
:10461000E068C06848B1007A38B1404610F05EFBEF
:1046200003E0214640461AF043FC214640460EF086
:104630009EFF002892D020460FF054FB8EE74046A4
:1046400001F08EFE0090703001F0E0FD684673E7E7
:10465000F0B587B0B0F908400DF10C0C0C9E8769DD
:1046600045688CE8F000448A0025CDE900150294E5
:10467000B0F90C10B0F91050B0F90E40B0F90A00C2
:10468000194410442B46224600F002F807B0F0BD52
:104690002DE9F04F8BB09846DDE9155691468A46D4
:1046A0008346149F1A9C03F0D9FC3348603445F4C8
:1046B0008055CDE90204CDE9007543464A4651468E
:1046C00058460FF057FA04004FD001F049FE30224F
:1046D000049017990FF0B4F8049828222749343031
:1046E000FBF710FE04981999244F4166A0F87C60EE
:1046F0000026C0F88060C666083FC0F88860796808
:10470000C16504A801F098FE05A9204600F004FB4D
:104710001B4841F2827103960094CDE90110BDF966
:104720001E00BDF91A10BDF91C20431ABDF918006E
:104730005B1C121A521C0FF01DFA0646786841687D
:1047400020468847204601F00BFE0490866604A8A8
:1047500001F072FE42F20400054202D120460FF041
:1047600071FB2046189900F05DFA05F0E1F80BB0F6
:104770002046BDE8F08F0000994400082004002086
:10478000215000082DE9F041044694B0006800F083
:10479000B7F908B1D94D01E0D84D2C35606815281E
:1047A0001ED00CDC0B281FD004DC00287ED005288E
:1047B0007DD12FE10E287BD01228F9D141E11628B6
:1047C00006D0172808D0182808D01C28F0D109E0F6
:1047D000E86914B0BDE8F081286AFAE7686AF8E78A
:1047E000A86AF6E76869F4E720680B901C200C9033
:1047F000206801F0B5FD0390016D0BA888470646BF
:1048000003A801F019FE022E0FDB95E807008DE8E2
:104810000700D4E904023346A16905F097FC20693A
:104820008719A069A0EB06082CE0286804F0C5F9F8
:104830002169E8690A18521E606902F0D3FBA26977
:10484000E869111A491C606902F0CCFBD4E904073D
:104850007F1C394602F016FC3946A06902F012FCB2
:10486000686804F0AAF920693946401C02F00AFC85
:10487000A0693946401E02F005FCA0692769A0F135
:104880000208BF1C286804F098F94246394660695E
:1048900002F0A8FB686804F090F960694246394666
:1048A000401C02F09FFB686A022802E015E1B0E0BC
:1048B00000E10BDDA86804F080F961696A6A881C70
:1048C0008B180146424638465B1E27E0296AB142F2
:1048D00026DD6069022E074600F1020801DB37443D
:1048E00001E007F10207206901DB304401E000F13B
:1048F000020022693B460A444146A2F1010202F04D
:1049000089FC022E02DBA069821B01E0A269921ED3
:10491000A069E9693B46401A4146401C02F07AFC16
:10492000022E02DB6069064401E06669B61CE76995
:1049300028687F1E04F041F93A463146206902F0AA
:1049400007FC3A463146A06902F002FCE769686854
:10495000BF1E04F032F920693A463146401C02F08D
:10496000F7FBA0693A463146401E02F0F1FBE869C8
:10497000022802DC286A022823DDA86A022802DD58
:10498000E1690F1A01E0E769BF1EA86804F015F994
:10499000E969022909DD20693B46421800F1020C51
:1049A00031466046521E02F035FC286A022808DDB6
:1049B000A269E8693B46101A3146401C921E02F07B
:1049C00029FC286804F0F9F8D4E90620216902F0EE
:1049D00009FB686804F0F1F8D4E906202169401E5B
:1049E000491C521E02F0FEFAA86A022811DDA169D4
:1049F0002669E469A1F10208271AA41EB61C7F1CCF
:104A0000A86804F0DAF8234642463946304602F0F8
:104A100001FC71E0208A00B2ADF81400A18A09B24D
:104A2000ADF81610228B12B2ADF81820A38B1BB272
:104A3000ADF81A302C69ED68CDE9005402F096FA11
:104A40005AE0208A298B0844ADF81400A08AADF8FA
:104A50001600208B298B401AADF81800A08BADF8FA
:104A60001A00206801F07CFC0390006FF0B1022076
:104A700004F04EF9039890F87C10C1F3C00100EBEC
:104A80008100006C04F099F80398406B04F0BEF8C4
:104A90000398006F01F064FC03990990B1F95A2062
:104AA00005A902F0E9F809A801F0C6FC03A801F085
:104AB000C3FC21E0208AADF81400A08AADF81600EE
:104AC000208BADF81800A08BADF81A00A86804F090
:104AD00074F805A802F0CAFB0EE0206801F040FC63
:104AE000039030F85A1F41F00C01018003A801F037
:104AF000A3FC206810F09EF900206AE690070020D1
:104B000038B505004FF000040FD003F0A7FA28468F
:104B100001F026FC009090F87C00000700D50124ED
:104B2000684601F089FC04F003FF204638BD38B523
:104B300005004FF0000411D003F090FA284601F070
:104B40000FFC0090C06D00218068026828469047E5
:104B50000446684601F070FC04F0EAFE204638BDC9
:104B600030B587B005004FF0000413D003F076FA9B
:104B700001A9284600F0D0F8284601F0F1FB00908A
:104B8000B0F95440684601F057FC0CB9BDF9044037
:104B900004F0CEFE07B0204630BD70B50D460400CF
:104BA00009D003F05BFA294620461BF03FFCBDE824
:104BB000704004F0BDBE70BD2DE9FC410D4680463D
:104BC00003F04CFAB8F1000028D001F0C9FB0190C5
:104BD000C16D8C6800F007F907460198456301A88C
:104BE00001F02AFC226801214046904706462268CF
:104BF00003214046904705462268002140469047E1
:104C00000446404600F0D5F92B4632463946404628
:104C1000009400F05EF940460FF0E8FD04F088FED5
:104C2000BDE8FC817CB50D4604001DD003F016FAEA
:104C3000204601F095FB0090006F0190684601F05E
:104C4000FBFB294601A805F003FE58B1204601F000
:104C500087FB009001990167684601F0EDFB204653
:104C60000FF0C4FD04F064FE7CBD38B50C460500B1
:104C700013D003F0F3F9284601F072FB0090B0F96D
:104C80005A10A14204D0A0F85A4028460FF0AEFDB9
:104C9000684601F0D1FB04F04BFE38BD2DE9FC471E
:104CA0000D465FEA00094FF0000432D003F0D6F958
:104CB000484601F055FB0190B0F95440A54223D07D
:104CC00000F091F8804601980121A0F85450C06D81
:104CD000856848462A68904707462A68032148465F
:104CE000904706462A6800214846904705464846B0
:104CF00000F05FF933463A4641464846009500F0D9
:104D0000E8F848460FF072FD01A801F095FB04F0A9
:104D10000FFE2046BDE8FC872DE9F34F85B0002744
:104D20000C46B846059801F01BFB0090C06D0121B0
:104D3000856805982A68904782462A680321059865
:104D4000904704902A6802210598904703902A68AA
:104D50000021059890470646009810F0B3FA834664
:104D6000009810F0B6FA8146009890F83210890643
:104D700001D5B0F9588000F036F805460098C06EAD
:104D800010B10FF071FA074625806780A4F804A0DF
:104D9000049AABEB020006EB0802401E2A44208175
:104DA0003A44E280039BA9EB0302521E6281A4F8FD
:104DB0000CA020827019E681401E6082684601F0D6
:104DC0003BFBB4F90C000190B4F91000029002AA68
:104DD00001A9059800F03AF80198A0810298208274
:104DE00007B0BDE8F08F10B50146002091F83220E1
:104DF000920607D5B1F95400002803D1486B02F0A0
:104E0000F5FD801C10BD70B58AB00C46054601F05A
:104E1000A7FA0990C06D866809A801F00DFB0095FE
:104E200034B1012C06D0022C0BD0032C04D10AE0A3
:104E3000182000E0162001907168684688470AB083
:104E400070BD1520F7E71720F5E700002DE9FC41BC
:104E500017468846044601F083FA0090C16D056844
:104E600068468E6801F0E8FA3268002120469047D3
:104E7000064620460FF0B8F827E000BF01F070FAB0
:104E80000190B0F900102AB2B0F90430891A9A1AC8
:104E9000B0F90230A3EB2543B34210D190F82800BB
:104EA000000605D53868884209DB491E396006E0EE
:104EB000D8F80000904202DC521CC8F8002001A87B
:104EC00001F0BAFA20460FF03DF90400D6D1BDE852
:104ED000FC812DE9FF4F83B00E460746DDF8409078
:104EE00001F03EFA0190C16D8D68FFF77CFF04462A
:104EF00001A801F0A1FA2A680121384690478346AB
:104F00002A6803213846904782462A68002138469D
:104F100090470546B44207D105998B4504D10699BF
:104F20008A4501D14D4541D0A41B0026B0463846E4
:104F30000FF05AF838E001F013FA0090806A010689
:104F400001D5800502E0810528D50006002825DB73
:104F500024B12246114638460FF037FD009890F8EC
:104F6000280000060AD50698A5EB0902A0EB0A0066
:104F700004FB16013846761C0FF0DAFC0098008D11
:104F800080050BD50599A5EB0902ABEB010004FBED
:104F9000080108F1010838460FF0CAFC684601F024
:104FA0004BFA38460FF0CEF80700C4D107B0BDE881
:104FB000F08F70B586B0064601F0D2F90590D0E9C1
:104FC0001A4505A801F038FA54EA050026D06946CA
:104FD0003046FFF7A1FEACB1BDF90620BDF90410C3
:104FE00020460FF078FCBDF90A00BDF90610421A00
:104FF000BDF90800BDF90410521C411A2046491C95
:105000000FF06DFF002D09D0BDF90600BDF90210AB
:10501000421ABDF9041028460FF05DFC06B070BDC1
:105020002DE9F0430446406889B005460FF097F833
:10503000814601F095F90290D0F84880D0F8807050
:10504000466E02A801F0F8F92068172853D008DC52
:105050000E283AD00F2811D014284CD015283DD155
:1050600049E01E281ED01F282AD0222840D03128EF
:1050700034D10020E06009B0BDE8F0836FF07041EA
:105080004046884503D006F027FE01F04DFB002E78
:10509000F1D0D4E902122068CDE90405CDE9061269
:1050A00004A81FE0E0680028E5D02FB1AF4203D08C
:1050B00038460FF013FEDEE728460FF063FEDAE70E
:1050C000214648460EF053FAD5E7E06841680029CA
:1050D00004DD00680928EFD00A2805D05EB120461B
:1050E000C4F80490B047C6E728460FF07FFEC2E739
:1050F000C4F80C80BFE720460EF0F4FDBBE70000CB
:105100002DE9F04782B00E46002400250095019558
:105110005D4F4FF00809C7F80090102078604FF0FD
:105120004008C7F80880FD604FF4806AC7F810A0F7
:1051300038460CF053FB1020FEF726F8002834D137
:10514000524800890004386037207860C7F808802A
:10515000FD60C7F810A038460CF040FB3720FEF782
:1051600013F8002821D1411E07F114000160C0F896
:105170000490302181600221C160056101214161FB
:105180000CF0A4FA3D6033207860C7F80880FD6019
:10519000C7F810A038460CF021FB3320FDF7F4FFD0
:1051A0008146B9F1000F03D0484602B0BDE8F08750
:1051B000374F386840F22A6810EA080F0ED16D4662
:1051C0004FF400100CF0AEFA20B10CF001FB45F8E2
:1051D0002400641C386810EA080FF1D008200CF095
:1051E000A1FA30B108200CF059FA042002B0BDE851
:1051F000F08702200CF096FA30B102200CF04EFA43
:10520000022002B0BDE8F08720200CF08BFA30B10C
:1052100020200CF043FA062002B0BDE8F0874FF4DE
:1052200000700CF07FFA38B14FF400700CF036FAD1
:10523000072002B0BDE8F08740F2FF500CF02EFAD4
:1052400000980099000601F47F4140EA012000998E
:1052500001F47F0140EA1120009940EA116070607A
:1052600001980199000601F47F4140EA012001996B
:1052700001F47F0140EA1120019940EA1160306099
:1052800002B04846BDE8F087000A00202400002054
:10529000342C01402DE9F0430446C56887B09046A0
:1052A0008946002003F0A6FC064625B1287910B1F6
:1052B00046F0020001E026F0020003F09BFC2069AA
:1052C000012558B1D4E902128DE8260003956388C0
:1052D0002288046841464846A0471EE0124F134BFF
:1052E000214638681B68427CE068984730B9E088FE
:1052F000012801D0002001E03868806BA288E38893
:10530000A1680095CDE90410CDE9023201956388CA
:1053100022884146484605F011FF07B03046BDE8F7
:10532000F04303F067BC0000500200204002002060
:105330001CB50024019401AC009400F0E7F81CBDFA
:105340002DE9FF4F83B0814606988A46A0EB0A08F4
:10535000109E00200090A2EB09043568934654EAA1
:10536000080018D02046FBF704FD07464046FBF72F
:1053700000FD87420BDA2046444680464846D14627
:1053800082465846DDF818B0069001200090002CA7
:1053900007DD204606E007B04846BDE8F04F00F0C4
:1053A0003BB96042A0420AD04846D9466442C8F19F
:1053B000000883464FF0FF37DDF818A000E0012712
:1053C0005148B8F1000F11D004EBD4714FEA610BD2
:1053D00001DACBF1000B4C480068807E88B3002FC7
:1053E00002DA30682044306000257BE00099002913
:1053F000016821D0897E11B10027804615E007B0F1
:105400005A4649465046BDE8F04F05F0F9BF2846D8
:105410006D1C1BF009F938B9D8F8000009EB070139
:10542000406E4268504690477F1CA742EFDD6D1EDC
:10543000356007B0BDE8F08F8A7E1AB1002780463C
:1054400017E019E0486E5A465146036807B04846CF
:10545000BDE8F04F184728466D1C1BF0E5F838B939
:10546000D8F8001009EB0700496E4A68514690478A
:105470007F1CA742EFDDDAE700250FE008FB05B04F
:1054800090FBF4F101EB0A00009951B11E4A09EBBF
:1054900005011268526E526890476D1CA542EDDD01
:1054A000C7E7194909EB05030968496E4A680146CF
:1054B0001846F1E708FB05B090FBF4F101EB0A0098
:1054C00001903068384430601BF0AEF848B900985D
:1054D00090B10D4809EB05010068406E42680198E3
:1054E00090476D1CA542E5DD3068002F01DA2044AD
:1054F0003060C01B30609CE7034909EB0500096878
:10550000496E4A680199EBE7500200202DE9FF47F8
:105510000F4640491646804609680C981D460A7E8B
:10552000012A1CD0A8EB0600791B50EA01031CD00D
:10553000A2F101091EF076F800F58060824605F0C0
:105540007CFA00FB09F4504605F07CFA00FB09F1F7
:10555000002C0CDAC4F50070801240420AE0009082
:10556000324639464046FFF7EBFEBDE8FF8704F5BB
:105570000074A012002904DAC1F5007189124C42AE
:1055800002E001F500718C12002804DD411C01EBE2
:10559000D171491003E000EBD0714910401E00EBBF
:1055A000D0704210002C04DD601C00EBD070401065
:1055B00003E004EBD4704010641E04EBD47308EBDA
:1055C0000104ADF800403C18ADF80240A8EB02041D
:1055D0005B10B21AADF80440ADF808203144FC1A53
:1055E000EA1AADF80C102844ADF80A20ADF80E0008
:1055F0000023ADF806401A460421684600F07AF808
:105600003946404615F084FB2946304615F080FBAC
:10561000ABE7000050020020064A13681A7E012AF8
:1056200005D0521E02EBD272521000F005B85A6E2D
:1056300052681047500200202DE9F05F0646884668
:1056400040F2C32002FB00F14FF47A7091FBF0F7B7
:1056500002FB02F102EBD27001EB600B1446B118B1
:10566000234A301B7F1C1268526E13680A4641465B
:105670009847012538E000BF05FB05F004FB040155
:1056800059451CDDBC4219DD194B06EB050AA6EB9A
:1056900005091B68AAF1010208EB04015B6E09F120
:1056A00001001B689847124BAAF10102A8EB040104
:1056B0001B6809F101005B6E1B689847641E0C4B68
:1056C0003219301B1B68924608EB05015B6E814660
:1056D0001B689847064B5246A8EB05011B684846D5
:1056E0005B6E1B6898476D1CBD42C5DDBDE8F09F31
:1056F000500200202DE9FF4F43F6FF740F4666422B
:1057000083B09B46814600210BE000BF09EB81007E
:10571000B0F90200A04200DA0446B04200DD0646BD
:10572000491CB942F2DB67480068406900280DD087
:10573000B0F906101A46A1EB0B01B14200DA0E4691
:10574000B0F90200801AA04200DD0446B4E0DFF8A0
:1057500078A100200546CAF8000088E0781E85423E
:1057600001DA6B1C00E0002309EB850C09EB8302D6
:10577000BCF90200B2F90210A04244D1A14215D1F5
:1057800039F92330059A39F9251003EB020C4D4AFB
:1057900005981268084404EB0B01526E60451368CB
:1057A00001DA62462AE00246604627E02846A4461F
:1057B0004FF000087A1E0BE008B1401E00E0781E92
:1057C00009EB8003B3F90230634504D108F1010805
:1057D0009045F1DB2346A34248D01A1B39F9250036
:1057E000A1EB040C059B92EA0C0F09D4354A18442E
:1057F00004EB0B011268526E13680246984735E0BD
:1058000010F0D2F932E0A14230D001DBA04203DD3A
:10581000A0422BDBA14229DCE04688420ADC034699
:10582000A04223DC0846A14220DBB8F900C0B2F94F
:10583000001008E00B46A14218DCA04216DBB2F9CA
:1058400000C0B8F90010E21AA1EB0C015143002985
:10585000A0EB030202DD01EB620102E0A1EB6201B9
:10586000491CC01A91FBF0F06044C9E76D1CBD42B1
:10587000FFF674AF0598009004EB0B000190002038
:105880008046054613E01149B8F1000F31F915A023
:1058900009D0009901EB0A0208440A490968496ED7
:1058A0000B680199984788F0010850466D1C06491D
:1058B00009688D42E7DB641CB4427FF748AF07B04C
:1058C000BDE8F08F5002002054050020CC050120D7
:1058D0000E4810B5006803F065F90D48006803F044
:1058E0006CF9012003F0F6F9002003F001FA002022
:1058F00003F00EFA002003F07DF90648006803F07B
:1059000085F9BDE81040002003F0B6B94C02002034
:1059100048020020440200202DE9F0010022012667
:10592000032706FA02FC0B6803EA0C03634538D12F
:105930000568530007FA03F4A54305600D79D0F814
:1059400000809D4045EA080505600D79012D01D0D4
:10595000022D17D18568A54385604D79D0F8088060
:105960009D4045EA08058560456825EA0C0CC0F8AD
:1059700004C0D0F804C08D799540ADB24CEA050C56
:10598000C0F804C0D0F80CC02CEA040CC0F80CC05D
:1059900091F807C00CFA03F3D0F80CC043EA0C03EB
:1059A000C360521C102ABCD3BDE8F00170474B07FE
:1059B000DB0E9A40C90800EB8100016A4FF00F0C22
:1059C0000CFA03F399430162016A114301627047C3
:1059D00041837047018370472DE9F04385B0012171
:1059E00080200AF0D7FE012108020AF0D3FE4FF012
:1059F0008008CDF8008000248DF8044001268DF841
:105A0000076002278DF80570DFF8C49069464846A4
:105A1000FFF782FF300200908DF804608DF8064099
:105A200069462C48FFF778FFFDF736FA2A4D2C60BF
:105A30000A201EF0DBFE2E600A201EF0D7FECDF8F5
:105A400000808DF804408DF807408DF80570694698
:105A50004846FFF761FF64201EF0C8FE042202A939
:105A600048F2401000F04EF88DF80C4002A91BA03F
:105A70001CF072FA1CA102A8FAF77EFC18B105B05E
:105A80000120BDE8F0838DF80870012202A948F2D8
:105A9000400000F03BF9012202A948F2470000F063
:105AA00031F89DF80810602902D211A01CF054FAB8
:105AB0000A201EF09BFE8DF80840012202A948F240
:105AC000400000F023F905B00020BDE8F08300009D
:105AD000001C024000200240A002444243545020D7
