:020000040800F2
:10000000B8FF0020C101000845660008594F0008EC
:10001000596500083D160008A1B100080000000065
:1000200000000000000000000000000041AD0008DA
:10003000C91D0008000000003D0A0008057E0008F8
:10004000FB010008FB010008FB010008FB010008A0
:10005000FB010008FB010008FB010008FB01000890
:10006000FB010008FB010008FB010008FB01000880
:10007000FB010008FB010008FB010008FB01000870
:10008000FB010008FB010008FB010008FB01000860
:10009000FB010008FB010008FB010008FB01000850
:1000A000FB010008FB010008FB010008FB01000840
:1000B000FB010008FB010008FB010008FB01000830
:1000C000FB010008FB010008FB010008FB01000820
:1000D000FB010008FB010008FB010008CDAF000890
:1000E000FB010008FB010008FB010008FB01000800
:1000F000FB010008FB010008FB010008FB010008F0
:10010000FB010008119B0008FB010008FB0100082F
:10011000FB010008FB010008FB010008FB010008CF
:10012000FB010008FB010008FB010008291B000877
:10013000FB010008FB010008FB010008FB010008AF
:10014000FB010008FB010008FB010008FB0100089F
:10015000FB010008FB010008FB010008FB0100088F
:10016000FB010008FB010008FB010008FB0100087F
:10017000FB010008FB010008FB010008FB0100086F
:10018000FB010008FB010008FB010008FB0100085F
:10019000FB010008FB010008FB010008FB0100084F
:1001A00015630008FB0100081D1B0008DFF80CD0D8
:1001B00000F058FB00480047E1690108B8FF002043
:1001C000DFF83800016841F470010160BFF34F8F20
:1001D000DFF82C00016821F040410160BFF36F8F10
:1001E0000848804708480047FEE7FEE7FEE7FEE7CD
:1001F000FEE7FEE7FEE7FEE7FEE7FEE788ED00E04C
:1002000034EF00E05DAF0008AD01000872B6704742
:1002100062B67047EFF3108072B6704780F31088B3
:10022000704730BF704720BF7047B0FA80F070470A
:1002300090FAA0F0B0FA80F0704790FAA0F0704702
:100240002DE9F05F0546002092469B46884606460B
:10025000814640241BE0284641464746224600F09E
:10026000E4F953465A46C01A914110D31146184634
:10027000224600F0CBF92D1A67EB01084F462246C3
:100280000120002100F0C2F917EB00094E41201EA9
:10029000A4F10104DFDC484631462A464346BDE866
:1002A000F09F10B5441A0346944209D284181144B1
:1002B00003E011F8013D04F8013D521EF9D210BDD2
:1002C00040EA0104A40703D009E010C9121F10C3BB
:1002D000042AFAD203E011F8014B03F8014B521E35
:1002E000F9D210BDD2B201E000F8012B491EFBD2B9
:1002F00070470022F6E710B513460A460446194631
:10030000FFF7F0FF204610BD2DE9FE4F804681EA41
:100310000300C00F0C46009021F0004123F000457F
:10032000B8EB0200A94105D24046214690461C4642
:100330000B46024623F00040104347D0270DC7F379
:100340000A00C3F30A510290401A019040286BDA68
:10035000C3F3130040F4801B0098924620B10023A1
:10036000D2EB030A63EB0B0B01985946C0F1400234
:10037000504600F04BF906460D4650465946019A44
:1003800000F063F910EB08006141002487EA115284
:1003900084EAE7731A4340D0009A62B3019A012AB3
:1003A0004FEA075215DC001B61EB02014FF00042DF
:1003B00002EA0752CDE90042001C41F580113246A5
:1003C0002B4600F063F903B0BDE8F08F40462146AC
:1003D000F9E7001B61EB0201001C41F580130018D6
:1003E0005B412018A2F5001747EB030140EAD570E6
:1003F000B6196D4111E06D084FEA360645EAC07541
:100400004FEA0752001B61EB0201001C41F580110D
:1004100049084FEA30000019514132462B4603B0DB
:10042000BDE8F04F00F023B90098012240000023FE
:10043000D0EB020263EBE073009821464FEAE074D0
:10044000B8EB000061EB0401E9E783F000435BE7F0
:1004500081F0004158E72DE9FE4F81EA030404F0E2
:10046000004421F0004100944FF0000B23F00043C2
:1004700050EA01045ED052EA03045BD0C3F30A548D
:10048000C1F30A552C44A4F2F3340194A0FB0254A6
:10049000C1F3130141F48011C3F3130343F4801338
:1004A00001FB024400FB034E840A970A44EA81548C
:1004B00047EA8357A4FB076802958D0A05FB078569
:1004C0004FEA932C04FB0C542705029D4FEA065873
:1004D00047EA1637B5EB08056EEB070C870E920E50
:1004E00047EA811742EA8312A7FB0201B6EB0B0130
:1004F00064EB00042B0D43EA0C335E1844EB1C50F4
:10050000DA465146E7FB0201C5F313044FEA0B3309
:1005100043EA14534FEA0432019C43EA0603A4F170
:100520000C040294009CCDE900B400F0AFF803B0D5
:10053000BDE8F08F00200146F9E70EB5C10F80EA53
:10054000E0700844CA07002140F233438DE80E00F2
:100550000A460B4600F09AF803B000BD0EB540F213
:10056000334102910021CDE900110A460B4600F00B
:100570008DF803B000BD70B5C1F30A5201F000451B
:100580000024C1F3130140F2FF3341F480119A4279
:1005900001DA002070BD40F233439A42A2F23342A6
:1005A00003DC524200F041F800E090402C43F1D0CF
:1005B000404270BDC1F30A5210B5C1F3130140F2BD
:1005C000FF3341F480119A4201DA002010BD40F25D
:1005D00033439A42A2F2334203DC524200F025F840
:1005E00010BD904010BD00F0004230F000400AD035
:1005F000C10D01F56071C0F3160042EA0151C20855
:10060000400711437047002001467047202A04DB51
:10061000203A00FA02F1002070479140C2F1200315
:1006200020FA03F3194390407047202A04DB203A54
:1006300021FA02F00021704721FA02F3D040C2F102
:1006400020029140084319467047202A06DBCB1749
:10065000203A41FA02F043EAE07306E041FA02F37D
:10066000D040C2F12002914008431946704710B5AE
:10067000141E73F1000408DA401C41F100019218C5
:100680005B411A4301D120F0010010BD2DE9F04D6E
:1006900092469B4611B1B1FA81F202E0B0FA80F2C3
:1006A00020329046FFF7B2FF04460F4640EA0A00A8
:1006B00041EA0B0153465A46084313D0114653EA08
:1006C000010019D0C8F140025046FFF7AEFF0546C1
:1006D0000E46504659464246FFF798FF084305D05C
:1006E000012004E020463946BDE8F08D0020054396
:1006F00046EAE0762C4337430A986305E40AA0EB08
:1007000008000022FD0A44EA47540A3002D50020BE
:100710000146E9E7010510196941DDE908450019BD
:100720006941BDE8F04DA2E72DE9F04D81EA0304EF
:1007300004F0004B21F0004514464FF0000A23F06E
:10074000004150EA050220D054EA01021DD0C5F351
:100750000A570246C5F31303C1F31300C1F30A5647
:1007600040F4801543F48013A7EB0608101BD6460F
:1007700008F2FD3873EB050002D308F1010801E02F
:1007800092185B41B8F1000F03DA00200146BDE882
:10079000F08D00204FF48011064684460EE0171BB2
:1007A00073EB050705D3121B63EB050306434CEA05
:1007B000010C49084FEA300092185B4150EA0107EA
:1007C000EDD152EA030012D082EA040083EA050167
:1007D000084305D0101BAB4106D20122002306E0DE
:1007E00000224FF0004302E06FF0010253101AEBB9
:1007F00006004CEB085110EB0A0041EB0B01BDE881
:10080000F04DFFF734BF70B521F0004303430CD027
:10081000C1F30A550024D5EB040564EB0403D61795
:10082000AD1AB34102DB0020014670BD201841EB38
:10083000025170BD30B5041E71F1000404DB4FF0AD
:100840000044404264EB0101141E73F1000405DB17
:100850001C464FF00043524263EB0403994208BF29
:10086000904230BD064C074D06E0E06840F00103C1
:1008700094E8070098471034AC42F6D3FFF79AFC8F
:1008800074460408944604082DE9F04D00231A46E6
:100890001B1A8A4103DB00200146BDE8F08DC1F33D
:1008A0000A52C1F3130141F480154FF0000BD10738
:1008B00002D100186D41521E0027044640F2FF117C
:1008C000384601EB620A3E468046024600204FF45D
:1008D0008011FFF7AAFEC2197141BB1846EB010057
:1008E000B4EB030C75EB000C04D3E41A65EB0005C4
:1008F00017460E46241908F101006D418046342840
:10090000E3DDF91946EB0600091BA84103D24FF0BD
:10091000FF32134601E0002213461BEB070046EBB3
:100920000A51BDE8F04DFFF7A2BE70B58C1810F863
:10093000015B15F0070301D110F8013B2A1106D124
:1009400010F8012B03E010F8016B01F8016B5B1E3E
:10095000F9D12B0705D40023521E0DD401F8013B19
:10096000FAE710F8013BCB1A921C03E013F8015B85
:1009700001F8015B521EF9D5A142D8D3002070BD09
:10098000EFF3098141B1F1EE101A40F8041D20ED9A
:10099000200A3E490A6810607047B0EC200A02C87D
:1009A000E1EE101A3A490A681060704772B64EF6C6
:1009B0002250CEF2000040F2FF01C0F200010170AF
:1009C0004FF0000080F3098807F0C4F840F22810C7
:1009D000C2F20000016881F3088840F2A200C2F26E
:1009E000000040F2A301C2F200010A78027040F256
:1009F0002015C2F2000540F22411C2F200010A687B
:100A00002A60106880F30988EFF3148040F0020038
:100A100080F31488BFF36F8FBDE8F00F0FBCBDE803
:100A2000005006BC62B608471A484FF0805101607A
:100A3000704718484FF080510160704772B6EFF36D
:100A4000098020E9F00F40F22015C2F200052E685F
:100A50003060744607F07EF840F2A200C2F2000057
:100A600040F2A301C2F200010A78027040F22411A0
:100A7000C2F200010A682A6044F0F40E1068B0E87F
:100A8000F00F80F3098862B6704700002001002053
:100A90002401002004ED00E0002904D0816841F029
:100AA000010181607047816821F001018160704718
:100AB000084A1168084B1940D0F804C0036843EA9B
:100AC0000C03D0F808C0C0684CEA00001843084383
:100AD0001060704704230140E030FCFF002904D07F
:100AE000816841F4807181607047816821F4807170
:100AF00081607047002904D0816841F400718160F1
:100B00007047816821F400718160704710B44268B9
:100B100022F4807222F0407291F804C00B6842EA1D
:100B20000C221A43426082680D4B1A40D1F80CC067
:100B30000B694C7943EA0C03D1F808C04CEA440C29
:100B400043EA0C031A438260C26A22F47002097DF0
:100B5000491EC9B242EA0151C16210BC704700008F
:100B6000FDF7FFC030B4072509290CD9C468A1F1ED
:100B70000A0C0CEB4C0C05FA0CF5AC4303FA0CF325
:100B80002343C36009E0046901EB410C05FA0CF54D
:100B9000AC4303FA0CF3234303614FF01F0C072A05
:100BA0000CD2436B521E02EB82020CFA02FC23EAC7
:100BB0000C0391401943416330BC70470D2A0CD29D
:100BC000036BD21F02EB82020CFA02FC23EA0C0335
:100BD00091401943016330BC7047C36A0D3A02EB80
:100BE00082020CFA02FC23EA0C0391401943C16211
:100BF00030BC7047816841F08041816070470021BE
:100C00000160017141718160C16001610121017563
:100C10007047000084B000240025DFF87880DFF8FA
:100C20007890002703AED8F8300201281DD199F83A
:100C30000000002819D103A9184806F07FFF03A976
:100C4000174806F07BFF012455B916A013F08AF867
:100C500000230522194618460097019606F0FAFF70
:100C6000E843C5B21AA015F022FF012C08D103A950
:100C70000A4806F061FD03A9094806F05DFD00245D
:100C80000022FA23114610460097019606F0E2FF73
:100C9000C9E70000000043423E0000208C160020FF
:100CA000191100084054657874546F53706565637A
:100CB0006823C4E3BAC3A3ACD3D0CAB2C3B4CED200
:100CC000BFC9D2D4B0EFC4E3B5C4C2F0A3BF2400FF
:100CD0006F6E0A0082B0064C206880F400502060DD
:100CE00001AA00214FF47A7006F072FFF4E70000C9
:100CF0001408024086B0164E002505AC03A904A8CE
:100D000000F09FFED8B9BDF810004CF6CD41484325
:100D1000C10C0491BDF80C004CF6CD425043C00C00
:100D2000039030460AF04AFA05AA00214FF47A707F
:100D300006F04EFFBDF80C1030460AF03FFA0023D3
:100D40000A22194618460095019406F083FFD5E75C
:100D5000001001402DED048B84B000271A4CDFED0C
:100D60001B8A9FED1B9A1B4D1B4E0DF10C08208812
:100D700000EE100AB8EE400A20EE280A20EE098A9A
:100D800018EE100AFFF72FFC41EC100B13A053ECE8
:100D9000102B15F08CFE18EE100AA84209DC3078F2
:100DA00038B90022114616A012F0BAF918A012F0B4
:100DB000D9FF00231A4605211846CDF80480009774
:100DC00006F048FFD3E700003C0000200000803917
:100DD000CDCC5441000020413E0000200D0A20549B
:100DE00068652063757272656E7420414420766177
:100DF0006C7565203D2025662056200D0A000000F8
:100E0000303A6D65696469616E2E6A706700000032
:100E10004054657874546F53706565636823BFEC04
:100E2000C3BBB5E7C1CBA3ACD2AAB8F8CED2BBBB8B
:100E3000B5E7B3D8BFA9A3A12400000084B0012462
:100E4000002603AD012C04D1002211460FA012F0A0
:100E500067F9022C04D1002211460FA012F060F9AC
:100E6000032C04D1002211460EA012F059F90023E0
:100E70001422194618460096019506F0EBFE601CF8
:100E8000C4B2042CDED30124DCE70000303A7063E6
:100E90002E6A706700000000303A7063322E6A706C
:100EA00067000000303A7063332E6A7067000000FC
:100EB0002DE9F0478AB000F0C2FB00F0A5FA00F07F
:100EC0001DFB05F04FFB012256A1574814F038FFD7
:100ED0005649487009A806F0A1F9554A09AD4FF0E6
:100EE0000408462353A1A2F12000CDF8008001950B
:100EF00005F02CFD002403264FF42F795148069469
:100F0000059405274FF0460A0796CDF80C900190FE
:100F100023464D4A4DA1CDF808A0049700960895A8
:100F2000A0F5E86006F0DCF98020089503900594B0
:100F30000C214A4A079606940720019202910090DC
:100F400004970023464A47A14A4806F0C9F94A488F
:100F500006940594CDF808A0CDF80C9001900023DC
:100F6000464A47A1CDF8008004970796089548485F
:100F700006F0B6F94FF496701E21464A079608957A
:100F80000694059401920291039004970023009720
:100F9000414A42A1454806F0A3F94FF40070089574
:100FA000039005943321424A079606940820019243
:100FB00002910090049700233E4A3FA1424806F068
:100FC0008FF942480694019005944FF064084FF061
:100FD0000A090620CDF80890CDF80C8000900497FF
:100FE0000796089500233A4A3AA1404806F078F956
:100FF0003F480694019005940920CDF80890CDF85B
:101000000C8000900796089504940023394A3AA171
:101010003F4806F065F909A93E4806F023FA0AB0F0
:10102000BDE8F087303A0000640400203E00002054
:10103000B41400204D656D20466F722054657374A2
:1010400000000000CC1D00203D0E00084170702003
:101050005461736B2053686F77425100BC3000209D
:10106000D50C0008417070205461736B204C65648E
:10107000310000000C180020BC32002019110008BB
:10108000417070205461736B2074616C6B000000C0
:10109000CC180020AC3D0020F50C000841707020F9
:1010A0005461736B204C6564330000008C19002080
:1010B000BC280020550D0008417070205461736BEE
:1010C00020506F77657200004C1700205C420020B2
:1010D000150C0008417070205461736B20436865E3
:1010E000636B50656F706C65000000004C1A002047
:1010F000EC43002029AE000853797374656D446198
:1011000074617342726F6164636173740000000004
:101110000C1B0020CC15002086B00024654F4FF03A
:10112000010905AEA046002302AA194618460096FA
:1011300006F036FA054660A0298815F0B8FC87F855
:1011400000902A88062A2FD007DC012A0ED0022A16
:101150001AD0042A40F0A2801BE00C2A66D00F2A85
:1011600057D0142A40F09A8000F084B857A015F0A8
:101170009EFC05AA00214FF4FA6006F029FD55A057
:1011800012F0F0FD00F08AB85AA015F090FC00F0C3
:1011900085B85AA015F08BFC05AA00214FF47A708F
:1011A00006F016FD00F07AB856A015F080FC03A9F1
:1011B00004A800F046FC18B154A012F0D3FD6DE075
:1011C000BDF80C004CF6CD414843C20CBDF81000F0
:1011D0004843C10C57A012F0C5FD05A9634806F0AD
:1011E000ADFC0022114662A011F09AFFBDF810007C
:1011F0001C2807D361A012F0B5FD0022114667A09C
:1012000011F08EFF05AA002144F6206006F0E0FCF4
:1012100044E065A015F04BFC05A9544806F08EFC8F
:101220000022114662A011F07BFF37E063A015F0A9
:101230003EFC05A94D4806F081FC0022114661A044
:1012400011F06EFF14B9634812F08CFD012C02D12D
:10125000614812F087FD0023192219461846CDF87F
:101260000080019606F0F6FC601CC4B2022C15D377
:10127000002413E059A015F01AFC05A93B4806F01C
:101280005DFC012002F084FE002002F09DFE01F0D2
:1012900097FA0122022153A011F0C6FE05A9334896
:1012A00006F04AFA87F8008005AA2946514805F059
:1012B000CCFB38E73E0000205265636569766544E3
:1012C000617461203D2025640A000000C4E3BAC3B4
:1012D0000A0000004054657874546F53706565636C
:1012E0006823D3D0CAB2C3B4CED2C4DCB0EFC4E357
:1012F000B5C42400C3FBD7D60A000000D0D4B1F097
:101300000A000000CEC2B6C80A000000405465784A
:1013100074546F53706565636823B0A1D1BDCED29C
:10132000B5C4CEC2B6C8B4ABB8D0C6F7BBB5C1CB96
:10133000240000004054657874546F5370656563F1
:101340006823CFD6D4DAB5C4CEC2B6C8CAC75B6EDE
:10135000325D2564A3ACCAAAB6C8CAC7B0D9B7D68D
:10136000D6AE5B6E325D2564240000008C16002032
:10137000303A7869616F2E6A706700004054657872
:1013800074546F53706565636823D5E2D5E6B5C4C0
:10139000CCABC8C8C1CBA3A124000000303A6B7508
:1013A0002E6A706700000000C9FAC6F80A00000043
:1013B000303A666168756F2E6A706700D0A6BBB060
:1013C0000A000000303A68616E7869616F2E6A70B9
:1013D00067000000D045040848450408B1BFB5B017
:1013E0000A000000303A72656E7A68752E67696689
:1013F000000000009414002000B585B0684608F095
:1014000077F9019805B000BD10B50121080308F077
:1014100029F94FF4A06005F05FF900F0D7FC00F067
:101420007BF800F0CDF808F0F5F91B4815F03FFB0C
:101430001A4815F03CFB1A4815F039FB174815F00F
:1014400036FB154815F033FB04F020FF08F080FD53
:1014500014A015F02CFB04F024FA01F007FE14A0F0
:1014600015F025FB08F066FA16A015F020FB00F039
:1014700037FB68B118A015F01AFB012002F088FDB7
:101480006FF07F4002F0A0FDBDE8104001F098B978
:1014900017A015F00CFBF0E7C0440408384404081A
:1014A0007C440408534452414D204F4B210A000014
:1014B0004755495F496E697420537563657373219D
:1014C0000A00000041445F496E69742053756365EA
:1014D0007373210A0000000048617665206E6F7406
:1014E0002066696E642044485432320A00000000CD
:1014F0004448543232204F4B210A000010B5FFF708
:101500007BFF04490968B0FBF1F0BDE8104006F02C
:101510008BBC00005870010870B586B00121022014
:1015200008F0A0F80121880408F0B8F8224E07223C
:101530000B21304600F09FFE07220A21304600F0C2
:101540009AFE00248DF8164001218DF8171002250F
:101550008DF81450890204918DF8155004A9304675
:1015600000F03EFE8DF81450A802049004A9304605
:1015700000F036FE4FF4E1300090ADF80440ADF8D5
:101580000640ADF80840ADF80C400C20ADF80A005C
:101590000A4C6946204609F093FD05F054F80122F3
:1015A00040F22551204609F06EFD0121204609F048
:1015B00033FD06B070BD000000040240004800404A
:1015C00030B587B00121402008F04CF801212020DF
:1015D00008F072F8174D08220E21284600F04BFE45
:1015E00000248DF8164001218DF8171002218DF886
:1015F00014104A0304928DF8151004A9284600F02F
:10160000EFFD4FF4E1300090ADF80440ADF8064036
:10161000ADF80840ADF80C400820ADF80A00064CC3
:101620006946204609F04CFD0121204609F0F4FCF2
:1016300007B030BD0018024000140140FEE710B5AD
:1016400000F018F8BDE8104000F010B810B5FEF733
:10165000E1FD04461021044804F07FFF2046BDE868
:101660001040FEF7DBBD0000C4A50020FFF7EEBF71
:10167000FEE7000002490020086000F009B8000001
:101680005800002001490860704700005800002001
:1016900010B5FFF7B1FE08490A6842F080720A608F
:1016A000064900224A600A6842F001020A60BDE869
:1016B0001040FFF7E7BF0000FCED00E0001000E085
:1016C0000148406870470000001000E070B5002538
:1016D0004FF4803400E0641E24B1802008F0F2F959
:1016E0000028F8D02CB140F2FF5008F0A7F92846A6
:1016F00070BD032070BD000070B505460024474949
:10170000086810F0450F03D1086810F0450FFBD0B2
:1017100010F0040F05D00324042008F08FF92046B0
:1017200070BD10F0010F05D00124012008F086F9EA
:10173000204670BD08F0C0F9A84201D0102070BD4D
:1017400040F2FF5008F07AF9002008F0D7F9344948
:10175000084201D1204670BD10F0004F01D01C207E
:1017600070BD10F0804F01D0092070BD10F0005FF7
:1017700001D00A2070BD10F0805F01D00B2070BD39
:1017800010F0006F01D00C2070BD10F0806F01D000
:101790000D2070BD10F0807F01D00E2070BD10F4C0
:1017A000000F01D00F2070BD10F4800F01D0102069
:1017B00070BD10F4001F01D0112070BD10F4801F07
:1017C00001D0122070BD10F4002F01D0132070BD85
:1017D00010F4802F01D0142070BD10F4003F01D010
:1017E000152070BD10F4803F01D0162070BD10F49C
:1017F000004F01D0172070BD10F4804F01D0182089
:1018000070BD10F4005F01D0192070BD10F0080FFA
:1018100001D01A2070BD204670BD0000342C01405C
:1018200008E0FFFD10B50024104A116811F0450FC3
:1018300003D1116811F0450FFBD011F0040F05D052
:101840000324042008F0FAF8204610BD11F0010F1F
:1018500005D00124012008F0F1F8204610BD40F227
:10186000FF5008F0EBF8204610BD0000342C01407A
:1018700010B500240B4A116811F0450F03D111680F
:1018800011F0450FFBD011F0040F05D00324042004
:1018900008F0D4F8204610BD40F2FF5008F0CEF812
:1018A000204610BD342C014070B506460C4600257C
:1018B0001F4A106810F0450F03D1106810F0450F53
:1018C000FBD010F0040F05D00324042008F0B6F874
:1018D000204670BD10F0010F05D00124012008F052
:1018E000ADF8204670BD08F0E7F8B04201D01020F6
:1018F00070BD40F2FF5008F0A1F8002008F0FEF89B
:1019000010F4604F04D010F4005F05D0132070BDB8
:10191000000C2080284670BD10F4804F01D01020AC
:1019200070BD10F4004F01D00F2070BD284670BD6F
:10193000342C014010B500204FF480310E4B1A6852
:1019400001E0491E1A6812F0450F01D10029F8D1B3
:1019500011B112F0040F05D00324042008F06EF832
:10196000204610BD12F0400FFBD00024402008F0AC
:1019700065F8204610BD0000342C014070B50024ED
:101980001448016821F00C01016001680160124DEA
:1019900004E0601CC4B2012013F09CFBD5F80402E3
:1019A00008B1642CF5D3642C01D3012070BD002450
:1019B00004E0601CC4B2012013F08CFBD5F80402D3
:1019C00008B9642CF5D3642C01D3012070BD00202C
:1019D00070BD0000000802400000414270B50024C4
:1019E000104D04E0601CC4B2012013F073FBD5F865
:1019F000040208B1642CF5D3002404E0601CC4B2D6
:101A0000012013F067FBD5F8040208B9642CF5D364
:101A10001E2013F05FFBD5F8040208B1012070BD51
:101A2000002070BD0000414270B500200024400637
:101A3000050EFFF7D3FF2843611CCCB2082CF6D368
:101A400070BDF0B583B006460F4600F02DF8FFF7E5
:101A500095FF10B103B00120F0BD002401ADFFF7E8
:101A6000E3FF2855601CC4B2052CF8D39DF8040090
:101A70009DF805109DF8072008449DF806101144B4
:101A800008449DF8081088420BD101A809F096FA85
:101A900013F032FC3880A81C09F090FA13F02CFCEB
:101AA000308003B00020F0BD10B50B48016821F074
:101AB0000C010160016841F004010160074C002045
:101AC0002060142013F001FB01202060BDE81040CD
:101AD0001E2013F0FFBA00000008024084024142B9
:101AE00000B583B00121042007F0BCFD0220009066
:101AF00001218DF8041000228DF806208DF80710C2
:101B00008DF805006946044800F06AFBFFF7CCFF3A
:101B1000FFF734FF03B000BD000802400149022076
:101B20008860704700B0024008F0EEBE074A90425D
:101B300001D2074800E00748074A11F0005F01EAB8
:101B4000020101D0C160704781607047106402409B
:101B500000600240006402407D0F7D0F002904D028
:101B6000016841F0010101607047016821F0010145
:101B7000016070472DE9F003016821F00101016067
:101B80000021016041608160C160016121214161EA
:101B9000444A45494FF03D08904204D1C1F80880BD
:101BA000BDE8F0037047414A4FF47464904203D19A
:101BB0008C60BDE8F00370473D4A4FF474159042C5
:101BC00003D18D60BDE8F00370473A4A4FF0746668
:101BD000904203D18E60BDE8F0037047364B374A20
:101BE000984203D1CA60BDE8F0037047DFF8D0C067
:101BF000344B604503D1CB60BDE8F0037047324FF2
:101C0000DFF8C8C0B84204D1C1F80CC0BDE8F00389
:101C10007047DFF8BC904FF03D57484503D1CF6087
:101C2000BDE8F0037047DFF8AC902B49484504D17C
:101C3000C1F80080BDE8F0037047DFF8A0804045A0
:101C400003D10C60BDE8F0037047254CA04203D1DE
:101C50000D60BDE8F0037047224CA04203D10E6036
:101C6000BDE8F0037047204C2049A04203D10A6030
:101C7000BDE8F00370471E4A904203D10B60BDE8F7
:101C8000F00370471B4A904204D1C1F800C0BDE880
:101C9000F0037047184A9042F9D10F60BDE8F00395
:101CA000704700001060024000600240286002405F
:101CB0004060024058600240706002403D000020D9
:101CC00088600240400F0020A060024000003D20DC
:101CD000B860024010640240086402402864024078
:101CE0004064024058640240706402400C64024048
:101CF00088640240A0640240B8640240002904D015
:101D0000016841F0200101607047016821F0200165
:101D10000160704711F0800F09D022B1436943F090
:101D20008003436103E0436923F08003436180291A
:101D300005D001F01E011AB102681143016070471D
:101D4000026822EA010101607047000010B40268D5
:101D50001C4B1A40D1F80CC00B688C6943EA0C0389
:101D6000D1F814C04CEA040C43EA0C03D1F81CC0AF
:101D700043EA0C03D1F820C043EA0C03D1F824C095
:101D800043EA0C03D1F828C043EA0C03D1F834C06D
:101D900043EA0C03D1F838C043EA0C031A4302604B
:101DA000426922F00702D1F830C0CB6A43EA0C0343
:101DB0001A4342610A6942604A6882608968C16068
:101DC00010BC70473F801CF07047000070B586B0B3
:101DD0000121084607F046FC0121102007F06CFCA9
:101DE0001E4E07220A21304600F045FA072209213B
:101DF000304600F040FA00248DF8164001218DF89D
:101E0000171002258DF81450490204918DF81550D1
:101E100004A9304600F0E4F98DF8145068020490EB
:101E200004A9304600F0DCF94FF4E1300090ADF841
:101E30000440ADF80640ADF80840ADF80C400C2069
:101E4000ADF80A00064C6946204609F039F901212F
:101E5000204609F0E1F806B070BD00000000024025
:101E60000010014000234FF0204210280BD0B0F5A5
:101E7000807F0AD0B0F5805F0AD0D2F8580131EAED
:101E8000000009D107E0506EF9E7D2F88400F6E7C8
:101E9000D2F8A400F3E701231846704742680168AE
:101EA00011438268C068521E520142EA4020084332
:101EB0000149086070470000500100A030B4036879
:101EC0009900A1F1C041D1F840116FF30E01D0F893
:101ED00008C04268046942EA0C02D0F80CC04CEA1F
:101EE000040C42EA0C02D0F814C042EA0C02D0F80A
:101EF00018C042EA0C0CC2694CEA0204D0F820C0B7
:101F000044EA0C05446A254329434FF02045002B41
:101F100048D0D5F840316FF30E0342EA0C02234358
:101F20001A43C5F8402102689200A2F1C042C2F8EB
:101F300040110168A9B38900A1F1C041D1F848114D
:101F400001F07042816A0B68D1F804C05B1EACF1ED
:101F5000010C43EA0C13D1F808C0ACF1010C43EAC0
:101F60000C23B1F810C0ACF1010C43EA0C431A4346
:101F7000D5F8483103F07043D1F80CC0898AACF130
:101F8000010C4FEA0C3C491E4CEA01511943C5F8BB
:101F9000481100688000A0F1C040C0F8482130BC62
:101FA000704702E0C5F84011C3E7D5F8481101F0C9
:101FB0007041806A02684368521E5B1E42EA031247
:101FC00083685B1E42EA0322C3685B1E42EA033257
:101FD000038A5B1E42EA0342838A007E5B1E42EA5A
:101FE0000352401E42EA00600843C5F8480130BC75
:101FF0007047000002490A6842EA400008607047E2
:10200000540100A02DE9F04782B00E4600240025BF
:10201000009501955D4F4FF00809C7F8009010201A
:1020200078604FF04008C7F80880FD604FF4806A80
:10203000C7F810A0384607F0A1FD1020FFF75CFBA1
:10204000002834D152480089000438603720786075
:10205000C7F80880FD60C7F810A0384607F08EFD6D
:102060003720FFF749FB002821D1411E07F114005A
:102070000160C0F80490302181600221C1600561D7
:102080000121416107F0F2FC3D6033207860C7F820
:102090000880FD60C7F810A0384607F06FFD3320B8
:1020A000FFF72AFB8146B9F1000F03D0484602B082
:1020B000BDE8F087374F386840F22A6810EA080F09
:1020C0000ED16D464FF4001007F0FCFC20B107F074
:1020D0004FFD45F82400641C386810EA080FF1D061
:1020E000082007F0EFFC30B1082007F0A7FC04201F
:1020F00002B0BDE8F087022007F0E4FC30B1022016
:1021000007F09CFC022002B0BDE8F087202007F019
:10211000D9FC30B1202007F091FC062002B0BDE8C8
:10212000F0874FF4007007F0CDFC38B14FF4007029
:1021300007F084FC072002B0BDE8F08740F2FF50B2
:1021400007F07CFC00980099000601F47F4140EA0A
:102150000120009901F47F0140EA1120009940EA32
:102160001160706001980199000601F47F4140EA16
:102170000120019901F47F0140EA1120019940EA10
:102180001160306002B04846BDE8F0873804002096
:1021900024000020342C01400E4810B5006801F0E6
:1021A00013FF0D48006801F01AFF012001F082FFC3
:1021B000002001F08DFF002001F09AFF002001F0C7
:1021C00019FF0648006801F021FFBDE8104000201B
:1021D00001F042BFD4010020D0010020CC0100203A
:1021E0002DE9F00100220126032706FA02FC0B6804
:1021F00003EA0C03634538D10568530007FA03F47A
:10220000A54305600D79D0F800809D4045EA08059A
:1022100005600D79012D01D0022D17D18568A543E8
:1022200085604D79D0F808809D4045EA08058560B5
:10223000456825EA0C0CC0F804C0D0F804C08D79BC
:102240009540ADB24CEA050CC0F804C0D0F80CC003
:102250002CEA040CC0F80CC091F807C00CFA03F388
:10226000D0F80CC043EA0C03C360521C102ABCD344
:10227000BDE8F00170474B07DB0E9A40C90800EB40
:102280008100016A4FF00F0C0CFA03F399430162CD
:10229000016A1143016270474183704701837047AF
:1022A000014AC2E9000170477C010020014AC2E9ED
:1022B0000001704784010020014AC2E90001704713
:1022C00060020020014AC2E9000170478C01002031
:1022D000014AC2E900017047680200202DE9F04F71
:1022E000DFF828B191B04FF0FF35DBF80030B3F9DB
:1022F00022100691DE69B3F92490F469A189814224
:1023000006D8E289824203D3471AD4F8008012E04B
:10231000D4E9018100296FD00A8882426CD84D88A7
:10232000854269D3801A82B2486800EB8200B0F916
:102330000070B0F90250781C5ED0307EA17C10FB9A
:1023400001FA217CCDE90701B3F92A60304603F098
:102350008FFCC0B20E90DBF8000007FB0A81A37C63
:10236000826B0127CDE90412CDE90273C069089A96
:10237000C17E807ECDE90001DDE90603494602F019
:1023800057FE681C18D046F0020003F071FCDBF821
:102390000000A37C05FB0A81826BCDE90273CDE9C5
:1023A0000412C069089AC17E807ECDE90001DDE992
:1023B0000603494602F03CFEDBF800005D46C069BA
:1023C000417E007E814214D9022E12D086F0040094
:1023D00003F04EFC2868C069027EC37E12FB0391A5
:1023E000437E857E089A06984B4412FB050202F054
:1023F00081FF0E9803F03CFCDBF80000627C418C0E
:102400001144418411B0BDE8F08F0000D8010020D4
:1024100004480068C069C06909B1027C0A60407C58
:1024200070470000D8010020022008807047C06972
:1024300082898A4202D8C2898A4210D2806880B1D9
:1024400002888A420DD843888B420AD3406800EB49
:102450008100A0EB8200B0F90000002801DB012020
:1024600070470020704700002DE9F0410025154E0F
:10247000154C18E02069C5EB051700EBC70070226A
:10248000001D3168FDF70DFF2069002140F837106D
:1024900000EBC70000F10C018161011D0A1DC0E9BC
:1024A0000F126D1C4164A0688542E3DB0EF0D4FC82
:1024B0002169C0EB001001EBC000001D3060BDE8D9
:1024C000F0810000D8010020A802002070B510495A
:1024D0000E480860084602F0F1FC0D4C143CA06860
:1024E000C0EB0010C500284600F06CF8094B2061D5
:1024F0002A461B68002198474FF0FF30206001F00A
:10250000B1FFBDE870400EF0A7BC000055250108E2
:10251000BC0200209002002010B5040009D001F098
:10252000B7F8204609F02EFF044601F059FF204677
:1025300010BD002010BD000038B5054601F0A8F818
:102540002846FFF7E9FF04000AD000F0BBF8064B6D
:1025500000902A461B6800219847684600F0F0F872
:1025600001F03EFF204638BD90020020024A106074
:1025700021F003005060704780DD002010B504009A
:1025800011D001F085F80848042101EBC401406B2B
:102590004158486809F0AEFE204610F037F9BDE812
:1025A000104001F01DBF10BDC0DC0020002805D088
:1025B000034AD16B016001B14860D06370470000ED
:1025C000C0DC00202DE9F04104460FF0EFF9284867
:1025D000E41C24F00305016C2D1DA94200D90D4611
:1025E000C46B13E054F8042CAA420ED184B12168C4
:1025F00009B162684A60616809B122680A60C26B09
:10260000A24231D12168C1632EE02468002CE9D1B7
:102610008046816BC0680F1857F8040C3E1A30686A
:1026200038B1002010F066FA57F8040C3E1A3068F2
:10263000D0B97068A84217DB3044441B3046241DD3
:1026400010F010FAD8F80C10491BC8F80C10D8F884
:1026500014102944C8F814107068401B02D0314689
:1026600009F048FE44F8045C2046BDE8F081000013
:10267000C0DC002010B500240FF098F90C490F20A1
:1026800001EBC002526C1AB101EBC000406C08E0D3
:10269000401EF5D508E04168A14200D90C4680688B
:1026A00010B180680028F6D1A4F10C0010BD000024
:1026B000C0DC002002488169491C8161704700002C
:1026C000C0DC00200549CA69521CCA61496B01EB94
:1026D000C0010A78521C0A7000F04AB8C0DC002021
:1026E00010B500F0D5FFFFF7C5FF64220849B0F52B
:1026F000800F04D990FBF2F4086A444303E0096AAE
:102700004143B1FBF2F401F06BFE204610BD000026
:10271000C0DC00200549102805D94A68B0EB520FEB
:1027200002D3500800E010208860704780DD002050
:1027300002488169491E816170470000C0DC0020A9
:102740000A4902684B6B52F8082C03EBC20213785B
:10275000022B03D3CB690BB15B1ECB611178491EF1
:10276000117000210160084670470000C0DC0020A5
:102770000349042202EBC000496B08580830704737
:10278000C0DC002010B5C2B2CBB2D21A00D5524282
:1027900093B25B43C0F30722C1F30724121B00D599
:1027A0005242000C92B2A0EB114002FB023200B286
:1027B000002801DA404200B280B200FB002010BDC8
:1027C00010B50021084600F041FC43F6FF7250426C
:1027D000BDE8104013460146AFF300802DE9FC41EF
:1027E0001C4615460E46074600F052FF042003F033
:1027F0003FFA804612484069C16C006D0F440644A0
:102800000D440444ADF80070ADF80450ADF802601A
:10281000ADF80640684609F011FA07E023462A465B
:102820003146384602F066FD09F0CAF90028F5D1B4
:10283000404603F01DFA01F0D3FDBDE8FC81000025
:10284000C40100202DE9F0411C4616460D460746FE
:10285000022B02DB0020BDE8F0811C20FFF7B2FE56
:102860000028F8D00DB105610AE0094A52F8241099
:1028700009B905E011460A68002AFBD1096901611E
:1028800084618682002101604160C0E90217E2E7AD
:102890000402002070B51D46FFF7D4FF040009D0E4
:1028A00000F00EF8E068006820B90348006800EB0B
:1028B00085008465204670BDD8010020FFF776BEF4
:1028C00070B5C0B38269022A36DA2149531C0C78EC
:1028D0009C4200DA0B701F4C54F8221019B944F8CE
:1028E000220032E019464B68002BFBD106E0CB6892
:1028F000C5681B682D68AB4203DD09680029F6D165
:102900001AE0C1B1CB68C6681B683668B3420CD107
:10291000838A012B05D008E01946DB681B68AB42AF
:1029200003DB0B68002BF7D129B14B6833B118607A
:102930004A68426004E0FFE7012070BD44F82200CD
:102940004860884200D100210160002070BD000075
:10295000220200200402002010B503E00468FFF703
:10296000AFFF20460028F9D110BD000010B50C4B78
:102970008269002153F82240844205D1046843F85B
:102980002240026802B1516042680AB103681360D4
:1029900002680AB1436853600160416010BD0000E5
:1029A0000402002000207047022801DB002070474D
:1029B000054951F8200004E0C16809680029F6D0F3
:1029C00000680028F8D17047040200202DE9F0418A
:1029D000044601F033FD0619164F1FE000F02EF8F3
:1029E0003868844200DD0446A04600F051FE1248DB
:1029F0000568FFF75FFE2C0017D000BF01F0F0FC68
:102A0000641EFBD1404601F007FD1DB100F040FE01
:102A10006D1EFBD1FFF78CFE01F0E2FC01F00EFD14
:102A2000341A002CDADCBDE8F081404601F0F4FCF9
:102A3000F0E700005C020020B402002010B5002482
:102A400000E0012400F004F80028FAD1204610BD6F
:102A50000B4810B50068002410B1804700B1012474
:102A600008F07EFD00B101240648006810B18047DF
:102A700000B101240448006800B18047204610BD21
:102A8000E4010020100200200C02002070B586B086
:102A90000DF1280C9CE87000CDE903018DE8700071
:102AA00003A9024800F004F806B070BDAB2D000881
:102AB0002DE9FF4F89B08846DDE91765044600F02F
:102AC000E7FD44F20810FFF737FD5FEA00094FF019
:102AD000010755D0FFF7F6FD0490C0E90248012335
:102AE00003AA0A2100F052FA0398801D039003A85C
:102AF00002F0DAF9834603A802F0D6F9824602F022
:102B00009DFD0890214801680B98CA6C096D02EB85
:102B100000080C98ADF814800C180BFB06F0B0FB05
:102B2000F5F101EB0800401EADF818000AFB06F0B5
:102B3000B0FBF5F02044401EADF81A00ADF8164089
:102B400005A809F07BF890B1DFF844A0DFF844B0A5
:102B5000CDE902BACDE9006522464146169B0498AC
:102B600000F074F8074609F02BF80028F0D1089817
:102B700003F056F804A8FFF7E3FD4846FFF7FEFC14
:102B800001F02EFC0DB03846BDE8F08FD8010020D2
:102B900007C70008FDF600081CB5CDE9000169462D
:102BA000014800F003F81CBDAB2D00082DE9F843E7
:102BB000984691460D460646012700F069FD44F20D
:102BC0000810FFF7B9FC04000FD0FFF77BFD009061
:102BD000C0E90265424649460DF048FE0746684690
:102BE000FFF7AEFD2046FFF7C9FC01F0F9FB3846C0
:102BF000BDE8F8831CB5CDE900016946014800F045
:102C000003F81CBDAB2D00082DE9F84390460D4696
:102C10000646012700F03CFD44F20810FFF78CFC4B
:102C200004000ED0FFF74EFD0090C0E9026541465A
:102C30000DF0ADFD07466846FFF782FD2046FFF721
:102C40009DFC01F0CDFB3846BDE8F8832DE9FF4F30
:102C500095B00020DDE92276DDE924988DF810009A
:102C60009A46934618210CA8FDF743FB142107A8A8
:102C7000FDF73FFB0024601E059011AB13AA12A9BB
:102C800015980EF0B7F88BE0002306AA01211598DD
:102C900000F07CF9002860D106980578212D70D0CD
:102CA0002C2D02D03B2D7ED168E0002306AA0921FD
:102CB000159800F06BF9002875D106A802F0F4F819
:102CC0000C9006A802F0F0F80D9006A802F0ECF8BF
:102CD0000E9006A802F0E8F80F9006980078109081
:102CE00000060AD5109800F007010220884001462E
:102CF000119015980FF09EFD78BBAAF10100844257
:102D000007D10C9807900D9808900E9809900F988D
:102D10000A90A24522D19DF81000022806D1CDE9E3
:102D2000007607AB0CAA59461698C0479DF81000CC
:102D30000599CDE90010CDE90276DDE915025B4683
:102D40000CA9C84748B9002306AA0121159800F02C
:102D50001DF910B919B0BDE8F08F24E0002306AAD0
:102D60000121159800F012F9E8B9002115980DF02D
:102D70000FFC0028F9DC641C3B2D85D10020E9E71D
:102D8000FFE7A24501D104AB01E04FF0000301D100
:102D900007AA01E04FF0000205A915980FF06CFD9D
:102DA00000283FF471AF0120D4E730B505464068F4
:102DB000C41A0020002C07DD944201DD104600E01B
:102DC00020462A681A440A6030BD00002DE9F0410F
:102DD000054643F216104FF480572E1805F540545F
:102DE000B1E000BFD4F8F81C814235D1B94203DB11
:102DF0004FF0FF30BDE8F081564B4FF400520021F8
:102E00001B6805F58B709847002005E0291801F52F
:102E1000005181F81601401CD4F8F81C8142F5DC01
:102E2000D4F8EC0C401CC4F8E80C0846C4F8D06C8C
:102E3000490004F54D64801CC4E90801A4F54D6403
:102E400028460DF0DFFDC4F8000DD4F8F81C8842C8
:102E5000F6D0C4F8040DCDE7D4F8FC1C814202D1B1
:102E60006FF00100C6E7D4F8F01C0246814209DC8D
:102E7000D4F8D00C94F8003D411CC4F8D01C037069
:102E8000D4F8040D40F6B833D4F8F81C81421EDCA7
:102E9000291801F5005191F816C1D4F8D01C01F1A0
:102EA000010EC4F8D0EC81F800C005EB4001B1F987
:102EB000161181429ED0D4F8D0CCACEB050CACF509
:102EC000405CACF58B7C9C4594D20846DCE72844FA
:102ED00000F5005090F81631C4F8003DD4F8D00C3D
:102EE000411CC4F8D01C0370D4F8F00CB8421FDAAF
:102EF00005EB4003B4F8041D2844A3F8161100F5AF
:102F0000005094F8001D80F81611D4F8F00C401C05
:102F1000C4F8F00CD4F8F41C884209DBB94207DA93
:102F20004800C4F8F40CD4F8E80C401CC4F8E80CD1
:102F3000C4F8042DD4F8D00CB04204D9401EC4F813
:102F4000D00C007856E728460DF05CFD0028BFF64F
:102F500049AF4FE79002002010B500F5405202F54E
:102F60004D624B1CC2E90631012404FA01F3591CDD
:102F7000C2E90A31991C1162590051620221C2E969
:102F8000041443F216110844106010BD2DE9F041FD
:102F900017460D4604460BB100202061D4E9030317
:102FA0000A46A6683946B047A84202D00120BDE8CB
:102FB000F0812069284420610020F8E7034951F896
:102FC0002000C1688A6A082110470000040200201E
:102FD00010B500F05DFB03480068047C01F000FAC6
:102FE000204610BDD801002070B515460E46044697
:102FF00000F04EFB2A463146204602F065FB0400F5
:1030000002D000203060286001F0EAF9204670BD4F
:1030100070B50C46054600F03BFB2146284601F002
:103020001FFEBDE8704001F0DBB90000024951F815
:10303000200000690068704704020020024951F82E
:1030400020000069406870470402002070B50C46FB
:10305000054600F01DFB044800684584848401F0A7
:10306000BFF9002070BD0000D80100202DE9F0411B
:103070001D48016821F0010101601C48012686609D
:1030800081680029FCD11A49016000681949884209
:1030900000D0FEE701F0D0FA174C2E20207001F08E
:1030A000D3F916480EF052FB12F0D6FD074602F097
:1030B00035FB10B102F046FB38B902F04CFB054677
:1030C00002F035FB294602F0CDFD0021084600F054
:1030D000D1FF08F0B9FAFFF7C7F9A06900B180473E
:1030E000A6703846BDE8F081002000E000300240C4
:1030F000C2A507F4CDB5E8B5C40100208CDD0020E1
:103100001CB5CDE900016946014800F003F81CBD7B
:103110008F3400082DE9F8431E461746884681463D
:10312000012500F0B5FA48F2BC40FFF705FA0400AB
:1031300009D03B464246494600960BF08FF80546BB
:103140002046FFF71BFA01F04BF92846BDE8F8834B
:103150001CB5CDE900016946014800F003F81CBD2B
:103160008F3400082DE9F84390460D4606460127A6
:1031700000F08EFA48F2BC40FFF7DEF904000FD0F1
:10318000FFF7A0FA0090C0E901656846FFF7D8FA9A
:103190004146204600F08BF907462046FFF7EEF93E
:1031A00001F01EF93846BDE8F883F8B50546FFF78B
:1031B00089FA009000F5E04090F81C636846FFF73C
:1031C000BFFA002410E0012322461946284609F0E0
:1031D00075FB30B9082322460221284609F06EFB10
:1031E00008B10120F8BD641CB442ECDB0020F8BD3E
:1031F0002DE9F04700F5E0448246DFF86491D4F809
:103200008804A2B04FF00108002538B194F80804F2
:10321000F0B300BFD4F8800430B32BE094F8090475
:103220000028504603D00EF0F3FF90B915E00AF0E5
:10323000D7FD70B9D4F82014D4F8840488420CDC8B
:10324000694650460FF05AFB18B99DF80000D9287E
:1032500003D0012022B0BDE8F08784F80884D4F8B8
:103260002004C4F88804D5E7D4F87C04FFF72AFAD0
:10327000C4F880040746D4F87404FFF723FA2090BA
:10328000C0B10026D4F81804B04210DD209800E048
:1032900012E000EBC611D9F800308022684698474A
:1032A000394668460DF06AFE761C4037EAE720A8EA
:1032B000FFF746FA84F8085494F80A0405281CD24B
:1032C000DFE800F02B270B0F030094F88804C007F9
:1032D0000BD1504609F02EFF0DE0504609F0A8FE34
:1032E00009E094F88804C00702D084F8948404E0CC
:1032F000504609F00FFE84F89454D4F88804401E18
:10330000C4F88804D4F88404401EC4F8840400205F
:10331000A0E7504609F0AAFDEDE7D4F88814D4F8E8
:103320002004461AD4F88C04FFF7CCF980460090AC
:10333000D4F8800400EBC607D4F80C6409E0D9F88F
:1033400000300822394640469847761E08F10808A2
:103350004037002EF3DC6846FFF7F2F9CBE70000B8
:103360009402002070B500F5E044054694F81C0373
:10337000042834D028460EF06DFB28B194F81C03C5
:1033800084F82D03002132E094F874232AB100213F
:1033900094F877331BB1012002E00121F8E7002007
:1033A00094F87563B2421AD809B1C6B903E094F82B
:1033B0002D23012A13D118B194F876239A420ED105
:1033C00021B108B10E4905E00E4903E008B10E49EC
:1033D00000E00E4928460AF085FE0028CAD00120E8
:1033E00070BD681800F5E04080F82E13491C94F871
:1033F0002D038842F5DC284609F074F8002070BDE2
:1034000095DD0008ADDC000805DC00088DD900085A
:103410002DE9F04100F5E0440546D4F8800418B1E8
:1034200005F5E940FFF78CF9D4F88C0408B1FFF7F3
:10343000A5F8D4F8900408B1FFF7A0F8D4F8740404
:1034400008B1FFF79BF8D4F87C0408B1FFF796F8B1
:1034500000260EE005EB061707F5E047D7F8C40392
:1034600008B1FFF78BF8D7F8840308B1FFF786F8A7
:10347000761C94F81C03B042ECDCD4F878040028E5
:1034800003D0BDE8F041FFF779B8BDE8F08130B571
:10349000054600206C68E41A002C07DD944201DD2B
:1034A000104600E020462A681A440A6030BDF8B58C
:1034B0000C46064600F03CF805465CB13046FFF786
:1034C00001F90090008A20600098408A6060684698
:1034D000FFF736F92846F8BD38B5054600F028F85C
:1034E000040023D128460EF067F904001ED12846B7
:1034F000FFF7E8F847F209410090095C81B108F054
:103500009DFF04000FD1009800F5004090F898044A
:1035100048B96846FFF714F928460AF063FD38BD3C
:103520000EF098FA04466846FFF70AF9204638BDBF
:103530007FB50025FFF7C6F8012600900446067700
:103540001A4820600020A06102A920460DF0B9FCB5
:1035500020BB226803A920469047F8B99DF80800CF
:10356000FF281BD19DF80C00D82817D18DF8040036
:1035700001A900980FF0C2F980B99DF80400C02895
:1035800008D0C12806D0C22809D1009800F5E04033
:1035900080F8096400980DF046FB00B101256846EB
:1035A000FFF7CEF804B0284670BD0000C30E010836
:1035B0002DE9F84300F500410446D1F8A024D1F8E4
:1035C000A40404F5E0451044C1F8A404002015E06B
:1035D00095F81D23D1F8A434022A08D1221802F547
:1035E000E04292F82123C2F1030293FBF2F304EBD1
:1035F000800202F50042401CC2F8A83495F81C2352
:103600008242E5DC0026DFF884902AE004EB06180D
:1036100047F2783108EB0107F868FFF753F800909C
:10362000BA683968D9F800304A4379684A430021BA
:1036300098476846FFF784F847F2B83108EB01076E
:10364000F868FFF73FF80090BA683968D9F8003099
:103650004A4379684A43002198476846FFF770F863
:10366000761C95F81C03B042D0DC102247F2F830EB
:10367000D9F80030002120449847608AC5F88404B6
:103680000020C5F88804BDE8F883000090020020FF
:1036900070B5184CE06820B100F0C8FE616888423F
:1036A00004D000F0FBFE00F0C1FE6060E068401C4A
:1036B000E06001281CD10DF0CFFB05462068854253
:1036C00016D0002813DBFFF76DF901462068C0EB28
:1036D0000012206900EBC2025167C5EB0511064AD2
:1036E00000EBC100011D1160406FFFF735F9256047
:1036F00070BD0000A8020020D80100201CB5040005
:1037000004D10E480068046E002C16D0FFF7C0FFED
:103710002046FEF7D7FF009044696846FFF710F88F
:103720004CB12046FEF7CEFF01908168896888473A
:1037300001A8FFF705F800F053FE1CBDD8010020DA
:1037400001490A4600F002B801F0FFFF2DE9F043FD
:1037500087B015460C465FEA000846D0FFF798FF91
:10376000002000F047FC814621480068066E404674
:10377000FEF7A8FF00900068806900F009FC07468A
:1037800040F6FF70C44204D10098B0F90440B0F98B
:1037900006500098611E0289ADF804401144ADF84E
:1037A00008104189681E0844ADF80650ADF80A00BB
:1037B00007F022FD6846FEF7C3FF01A808F03EFAB5
:1037C00006E02A462146404600F0D0FA08F0F8F913
:1037D0000028F6D1384600F0DBFB304600F090F9C7
:1037E000484600F007FC00F0FBFD07B0BDE8F083A1
:1037F000D80100202DE9FE4F984691468A4683461F
:1038000000270C9EFFF744FF184819490068407CC8
:1038100051F82040E1680968042903D02468002C8D
:10382000F8D100E01CB9FFF7BFF8041E1BD0E06818
:103830000121C26A20469047050011D02469A06882
:103840008047401C02D10B4C46F001060096CDE9A2
:10385000015443464A465146584600F0E5F90746AA
:1038600000F0BEFD3846BDE8FE8F0000D801002004
:10387000040200206C3A040838B504001CD0FFF79D
:1038800007FF0E480068006EA04201D100F072FBF5
:103890002046FEF717FF0090406908B100F089FD4F
:1038A00000980068FFF70AF86846FEF749FF2046CF
:1038B000FEF764FE00F094FD38BD0000D801002042
:1038C0002DE9FF4F83B09A468B460746FFF7E0FE8F
:1038D000DFF83891D9F80000447C4D4800570128A2
:1038E000204606DD01F020FF0546204601F030FFAE
:1038F00005E001F002FF0546204601F004FF044602
:103900001FB302A901A8FFF783FBB7F90000002845
:1039100000DA0020B7F902608046002E00DA0026A7
:1039200001984119B7F90400491E0EF06DFD0546D6
:1039300002980119B7F90600491E0EF065FDA5EBC6
:103940000802841B521C641C03E04FF0000846462A
:103950002A46BAF1000F01D1C4F1000A002A51DD54
:10396000002C4FDD10980090534631464046FFF73B
:1039700041FF5FEA000A10D000F07CF80746A04241
:1039800006D0D9F80000806C10B1322108F02AFC72
:10399000504600F0B5F8002523E0594605988847C1
:1039A00000F01EFD012007B0BDE8F08F611BB94299
:1039B00002DA504600F088F83DB17219414650468F
:1039C00000F0C6F85046FFF799FE5946059888471B
:1039D0001048016809B1002088475046FFF7B0FE43
:1039E0003D44A542E2DB5046FFF746FF002000F0D1
:1039F00087F8A74206D0D9F80000806C10B13321B7
:103A000008F0F0FB00F0ECFC0020CCE7D80100202F
:103A1000200200206803002038B505004FF00004A4
:103A200011D0FFF735FE2846FEF74CFE00900068E7
:103A300000698068804702F00FFC04466846FEF784
:103A40007FFE00F0CDFC204638BD38B504000ED016
:103A5000FFF71EFE2046FEF735FE00F11804009029
:103A60006846FEF76DFE00F0BBFC204638BD002026
:103A700038BD000038B504460025FFF709FE1CB923
:103A800008480068046E44B12046FEF71BFE009013
:103A9000B0F90A506846FEF753FE00F0A1FC284634
:103AA00038BD0000D801002070B505460024284626
:103AB00009F0D6FC641C18B1BDE8704000F07AB87B
:103AC000052CF4DB70BD000038B50C46050004D1B0
:103AD0000A480068056E002D0FD0FFF7D9FD284673
:103AE000FEF7F0FD0090B0F90A10A14200DD44811C
:103AF0006846FEF725FE00F073FC38BDD8010020B3
:103B0000F8B50546FFF7C4FD104E3068046ECDB120
:103B10000CB100F02FFA07F063FC2846FEF7D2FD47
:103B2000009031680D660068FEF7CAFE6846FEF731
:103B300007FE02F01FF902F05FF800BF00F050FC32
:103B40002046F8BD00F016FAF8E70000D801002082
:103B50007CB515460E46040004D115480068046E75
:103B6000002C24D0FFF794FD2046FEF7ABFD2DB2CC
:103B70000090C58034B2848002F03EF8009840691D
:103B800080B1FEF79FFD009A0190B2F90810818084
:103B9000B2F90A20C28011B10AB10480458001A89F
:103BA000FEF7CEFD6846FEF7CBFD00F019FC7CBDAC
:103BB000D801002001490A4600F002B801F0FFFFD9
:103BC0007FB515460C4606002DD0FFF761FD304647
:103BD000FEF778FD40F6FF710190CC4203D1B0F9B9
:103BE0000440B0F906500289611E1144ADF8084046
:103BF000ADF80C104189681E0844ADF80E00ADF810
:103C00000A5001A8FEF79CFD02A808F017F806E08C
:103C10002A462146304600F091F807F0D1FF0028EF
:103C2000F6D100F0DDFB7FBD2DE9FF4FDFF8E8B0F6
:103C300083B01C46DBF80010DDE9106092464FF0BF
:103C400000084B7C42461299FEF7FCFD050060D04F
:103C500028698068804702F0FFFA81460AFB09F173
:103C6000C91DCF08FEF73CFDF10705D1C11700EBD8
:103C70009170801000EB4000002C09DC1FB1183857
:103C8000B0FBF7F000E000206442A04200DC0446F4
:103C9000F00707D10090DDE903012346524600F00A
:103CA0000DFB8046002C03DC2846FEF707FE30E0C3
:103CB00004FB07F01830F10702D0FEF72DFC01E0FD
:103CC000FEF73AFC06001CD0FEF7FCFC01900560F4
:103CD000039981800499C180A0F808A04481C0F8AC
:103CE0001480C0E9037901A8FEF72AFD1298AE609E
:103CF0002861DBF80000407CA861304607B0BDE8D1
:103D0000F08F2846FEF7DAFDB8F1000001D0FEF78B
:103D100035FC0020F2E70000D8010020054B30B44C
:103D20001B68054C5B7C54F823301B6930BC0FF0DA
:103D300071BB0000D801002004020020F8B5154630
:103D40000E460746FEF7BEFC009000681621C068CC
:103D5000426A0020904704466846FEF7F1FC002CBA
:103D600003D02A4631463846A047F8BDF8B5164676
:103D70000F46050012D0FEF7A5FC00904469684686
:103D8000FEF7DEFC2846FFF747FE0346082800DD65
:103D90002CB13246394628460FF0FCFBF8BD3246BE
:103DA000394628460FF096FDF8BD000070B5044670
:103DB00009480D46016819B90849016001F07EF80B
:103DC0000548001F006800B10024002D00DC01251B
:103DD0000348055570BD000034020020F524010899
:103DE00020020020094A126802B10020074A24324A
:103DF00052F82030002B07DBA2F1180343F8201003
:103E00004FF0FF3142F820107047000030020020D0
:103E100010B5002821D009B30AB3B1F90040B2F9B6
:103E200000309C4200DA23460380B1F90240B2F927
:103E300002309C4200DA23464380B1F90440B2F9D3
:103E400004309C4200DD23468380B1F90610B2F9AC
:103E50000620914200DC1146C18010BD11460A685F
:103E600002604968416010BD00280BD003880B44F4
:103E70000380838819448180418811444180C1882E
:103E80001144C1807047000070B50025FFF700FCA9
:103E9000094CD4E9002082420AD0D2E900561046EB
:103EA0000DF070FA20603146284607F0C1FC01256C
:103EB00000F096FA284670BD980200202DE9FC41DA
:103EC000154DDDE908742D68B5F90860864200DDFE
:103ED0003046B5F90C60964200DA3246824219DB70
:103EE000B5F90A608E4200DD3146B5F90E509D42AB
:103EF00000DA2B468B420DDB00E02C46E5682D688E
:103F000025B1042D02D02568002DF6D1CDE900742D
:103F100001F05CFDBDE8FC81D8010020B0F9022071
:103F2000B1F906309A4213DCB1F90220B0F906303B
:103F30009A420DDCB0F90020B1F904309A4207DC56
:103F4000B1F90010B0F90400814201DC0120704792
:103F5000002070470146024870220068FCF7A1B9B2
:103F6000D8010020024970220968FCF79AB90000C4
:103F7000D801002010B5FFF78BFB01F0F3FD01F035
:103F8000F9FE07F039F9BDE8104000F029BA000049
:103F900070B50B4D04462868467CFFF779FB022C70
:103FA00009D22046FEF700FD28B128684474FFF7C7
:103FB000E1FF0448046000F013FA304670BD0000D1
:103FC000D8010020E402002010B50446FFF760FB92
:103FD000204601F0E7FDBDE8104000F001BA10B541
:103FE0000446FFF755FB204601F014FEBDE81040E3
:103FF00000F0F6B910B50446FFF74AFB204601F081
:1040000037FE044600F0ECF9204610BD70B50446BA
:10401000FFF73EFB04480068C56904B1C46100F0C5
:10402000DFF9284670BD0000D80100200249CA69A6
:10403000C8611046704700009401002001494860A3
:1040400070470000C401002002494A6848601046D9
:10405000704700009401002070B50546FFF718FB7B
:1040600003480068847E857600F0BAF9204670BD6A
:10407000D801002070B50C460546FFF709FB09483A
:10408000224605800848048008480068417C0848AA
:1040900050F82100C1680B6A29469847BDE8704076
:1040A00000F09EB92C0200202E020020D801002032
:1040B0000402002070B50546FFF7EAFA03480068DD
:1040C000047E057600F08CF9204670BDD8010020F2
:1040D00070B50446FFF7DCFA04480068B0F92C50CC
:1040E000848500F07DF9284670BD0000D8010020CD
:1040F00070B50446FFF7CCFA04480068B0F92A50BE
:10410000448500F06DF9284670BD0000D8010020FC
:1041100002480068002800D000477047C402002011
:1041200002498A6802B98860FFF7F2BF980200204E
:1041300010B504000ED0FFF7ABFA20460EF0ACFC31
:1041400020460FF0CBF82046FEF718FABDE81040E5
:1041500000F046B910BD38B50C46050011D0FFF788
:1041600097FA2846FEF7AEFA00908089204201D0E7
:10417000012400E000246846FEF7E2FA00F030F97E
:1041800000E00124204638BD38B5054600202860EF
:104190000648046844B12046FEF794FA009000698E
:1041A00028606846FEF7CCFA204638BD540300204C
:1041B00038B504004FF000000D46086011D02046CD
:1041C000FEF780FA0090846844B16846FEF7B8FABA
:1041D0002046FEF777FA0090006928606846FEF7EF
:1041E000AFFA204638BD2DE9F0411E46069C174621
:1041F000884605463A46A8687F1C3346D0F804C076
:1042000041462846E047641EF4D1BDE8F08170B510
:10421000B0F90040091BB0F904408C422CDD00F1DC
:104220001404B0F902500069521B02FB0040CA1886
:1042300000EBE104521ED010B0EBE10501F00703E2
:104240004FF0FF0102F0070221FA03F0C2F107026A
:1042500001FA02F1CEB221780FD001436D1E04F8AD
:10426000011B002D05DDFF2229462046FCF73AF808
:104270002C4420783043207070BD304001432170C1
:1042800070BD10B5B0F90030B0F90240C91A00F1A4
:1042900014030069121B02FB003000EBE10001F087
:1042A000070302788021D9400A43027010BDB0F99B
:1042B0000610026951431430FCF71BB82DE9F8438E
:1042C000804602F10F000011470003FB07F01C4677
:1042D000154689461430FEF72FF9060018D0FFF76F
:1042E000D7F93046FEF7EEF90090A0F80080A0F86C
:1042F00002908580C4800749816001218181076126
:104300006846FEF71DFA00F06BF83046BDE8F8830A
:104310000020FBE71043040870B5B0F90660B0F95F
:1043200004400B6800F1140596421BDD0069A342AE
:1043300002FB005000EBE30214DA641EE010A0EB75
:10434000E30512F8010B03F00704A040C4B206E035
:1043500045B1083312F8014B23F007036D1E002C02
:10436000F6D004E0002070BD6006040E5B1C200641
:10437000FAD5FF2C07D0184602E06406240E401C34
:104380006606FAD400E0D81DC443640705D006E0F1
:1043900012F8014BFF2C09D108306D1EF8D5C01A58
:1043A000401C0B6070BD6206140E401C2206FAD43D
:1043B000F5E738B50546FFF76BF92846FEF782F9B1
:1043C00000908189491E0CB284816846FEF7B8F9D5
:1043D00014B92846FEF7D2F800F002F838BD000004
:1043E0000348C168491EC16001D100F065B870473B
:1043F000A802002010B50749054808604FF40001E5
:10440000FEF7B4F8BDE810408020FEF783B9000045
:10441000000080C03801002008B56A46002103F082
:10442000D7FB08BD0120FFF7F7BF00000248006876
:1044300090F83700704700002001002008B568465A
:1044400003F0AAFC08BD000008B56B46002202A1DB
:10445000034802F04DFD08BD4B657953656D0000C2
:1044600098DC002008B56B46012205A1064802F041
:104470003FFD6B46002205A1074802F039FD08BD4B
:104480004469737053656D0048DC00204576656EA5
:104490007453656D0000000070DC002000B583B02F
:1044A00002A8002300901A461946024802F04CFD6B
:1044B00003B000BD48DC002008B56A460021024870
:1044C00002F0EAFD08BD000048DC00200EB508B18E
:1044D00002AA00E00022002301A9684600F072FB56
:1044E0000EBD0000074910B50C7818B10120087006
:1044F000801E03E0002008706FF07F4000F056FD42
:10450000204610BDC501002010B5082A0EDC034668
:10451000012A18D0022A56D0042A76D010F8042B8B
:1045200003F8012B491EF9D1012010BD102A08DC27
:104530004FEA000230F8043B22F8023B491EF9D151
:10454000F2E7002010BD10F8042BD207120E491E0E
:1045500034D010F8044B491E04F0010442EA8412DE
:104560002CD010F8044B491E04F0010442EA441216
:1045700024D010F8044B491E04F0010442EA04124E
:104580001CD010F8044B491E04F0010442EAC40296
:1045900014D010F8044B491E04F0010442EA8402CE
:1045A0000CD010F8044B491E04F0010442EA440206
:1045B00004D010F8044B04F00104224303F8012B4B
:1045C0000029C0D1B0E710F8042B9207120E491E43
:1045D00015D010F8044B491E04F0030442EA0412FB
:1045E0000DD010F8044B491E04F0030442EA840283
:1045F00005D010F8044B04F003042243491E03F8CD
:10460000012B0029DFD18FE7FFE710F8042B1207F9
:10461000120E491E05D010F8044B04F00F0422437B
:10462000491E03F8012B0029EFD17DE738B500249E
:10463000009400F01DF838BD0B4810B5416B0029FF
:1046400010D101214163FFF7D5FEFDF73FFF01F0D7
:10465000A3FB0549054838310860BDE8104008460D
:1046600000F02CBC10BD0000C4010020BD240108D6
:104670002DE9F0410D460699044601B901461F682F
:10468000082A09DC0E46012A1AD0022A5BD0042A25
:104690007DD0082A13D18DE0102A07DCD3F810C092
:1046A0000E46BCF1000F04D0022389E00020BDE8D3
:1046B000F08101CCB84726F8020B6D1EF9D189E0D4
:1046C00001CCB847C0074FEA10686D1E36D001CC48
:1046D000B84748EA801000F0FF086D1E2ED001CCCC
:1046E000B84748EA401000F0FF086D1E26D001CC04
:1046F000B84748EA001000F0FF086D1E1ED001CC3C
:10470000B84748EAC00000F0FF086D1E16D001CC83
:10471000B84748EA800000F0FF086D1E0ED001CCBB
:10472000B84748EA400000F0FF086D1E06D001CCF3
:10473000B84740EA080000F0FF086D1E06F8018B3C
:10474000002DBDD146E001CCB84780074FEA106884
:104750006D1E16D001CCB84748EA001000F0FF08E3
:104760006D1E0ED001CCB84748EA800000F0FF086B
:104770006D1E06D001CCB84740EA080000F0FF08E3
:104780006D1E06F8018B002DDDD123E0FFE701CC83
:10479000B84700074FEA10686D1E06D001CCB84735
:1047A00040EA080000F0FF086D1E06F8018B002D9E
:1047B000EDD10FE0D3F810C0BCF1000F04D00123FD
:1047C0002A462046E04705E001CCB84706F8010B31
:1047D0006D1EF9D101206AE72DE9FF4F8DB0002051
:1047E000DDF86CA0164600901D4604460246CAF845
:1047F000000008AB03A902A800F0E4F918B10020FA
:1048000011B0BDE8F08F0898854200DD0546624F83
:104810000B9562493868407C51F820100491096971
:104820000691FEF7CBFB05903868407CFEF706FC4E
:104830005B498146884204D05A49894501D001200C
:1048400000E000200A9001CE1A9988478346000EA6
:10485000079077D0009870BB0D9800EB04084E4885
:104860000068B0F90800404503DDA0EB080780466A
:1048700000E000270299049801EB840101EB870115
:10488000CDE900100B990D98421809920E9B4046F5
:104890001946521EFFF712FB0120009005981828B8
:1048A0000ADA0298DDE9052300EB840000EB8700BB
:1048B000E91B00F0E5F812E00A9880B1029800EBDD
:1048C000840000EB87070998A0EB08084946386880
:1048D000884701C7A8F101005FEA0008F6D1324B12
:1048E000D86980B3DDE9020700EB840007EB84029E
:1048F000CDE902022C4C361F3046E4692B46029962
:10490000A047FF203168B0EB116F02D1029909680E
:1049100004E0029A1268B0EB126F01D1039A1160A1
:10492000029906F10406091D02910399091D0391DC
:104930006D1EE7D10397DAF8000040F00100CAF8D5
:10494000000022E023E0FFE70798FF2813D0C0F122
:10495000FF0202981B6850F824102BF07F40984704
:10496000039941F8240000BFDAF8000040F001018B
:10497000CAF8001005E00298039950F8240041F8A5
:104980002400641C6D1E7FF45EAF039838E7039922
:1049900041F824B0E8E70000D8010020040200201C
:1049A000435800084158000894010020F0B500EB7E
:1049B0008103082A0ADC01254C1E092A10D2DFE8EF
:1049C00002F00F10263E3E5555555500102A07DCC3
:1049D00000EB4100491E30F8022D43F8042DF9D1B7
:1049E000F0BD04F00702C2F1070200EBE40005FA93
:1049F00002F604783440D440521C43F8044DA0EB36
:104A0000E20022F007042241491EF0D1F0BD04F07B
:104A1000030200EBA400C2F1030203240578560050
:104A200004FA06F73D40F540521C43F8045DA0EB44
:104A3000A20022F003052A41491EEFD1F0BD8D43AB
:104A400000EB6400C5F101020F240578960004FA1A
:104A500006F73D40F540521C43F8045DA0EB6200B0
:104A600022F001052A41491EEFD1F0BD00EB010003
:104A7000491E10F8012D43F8042DF9D1F0BD0000B6
:104A80002DE9F05F0C1E16DD5E68014600EB840523
:104A9000082A12DC611E012A26D0022A47D0042AE5
:104AA0006AD0082A07D1071917F8010DB04745F851
:104AB000040D641EF8D1BDE8F09F102AFBDC5F698D
:104AC0003FB12246BC46BDE8F04F02235DF804EB3F
:104AD000604701EB440700BF37F8020DB04745F8C7
:104AE000040D641EF8D1E6E700EBE10001F00707D2
:104AF00010F801A98146802020FA07F8B5F10405D5
:104B00000AEA0800C7F10701C840B04745F80409A0
:104B10003FB14FEA48604FEA10687F1E641EEFD134
:104B2000C9E719F801A907274FF00108F6E700EBDC
:104B3000A10001F0030710F801A981467900C02007
:104B400020FA01F84FF0060BB5F104050AEA080057
:104B5000ABEB4701C840B04745F804093FB14FEA05
:104B600088604FEA10687F1E641EEFD1A3E7032719
:104B700019F801A9B846F7E700EB6100012710F822
:104B800001A9A7438146B900F02020FA01F84FF0AF
:104B9000040B2D1F0AEA0800ABEB8701C840B047A1
:104BA00045F804093FB14FEA08704FEA10687F1ECC
:104BB000641EEFD17FE719F801A901274FF00F0814
:104BC000F6E700002DE9F047224C06461F46A06993
:104BD00090468946002540B90120A06104F12801D2
:104BE0001D480860084600F069F9606930B91B4843
:104BF0000068606110B900F083FD606107B1386042
:104C00004EB1A06830B960698000FDF7DBFCA060A0
:104C100000B901253060B9F1000F0AD0E06830B961
:104C200060698000FDF7CEFCE06000B90125C9F89D
:104C30000000B8F1000F0AD0206930B96069800027
:104C4000FDF7C0FC206100B90125C8F80000284626
:104C5000BDE8F08794010020952401081802002087
:104C6000044AB2F9002002600348B0F9000008606D
:104C7000704700002C0200202E020020B0F9003006
:104C8000B1F90020934200DA0280B0F90230B1F9A4
:104C90000220934200DA4280B0F90430B1F90420D6
:104CA000934200DD8280B0F90620B1F906108A42F5
:104CB00000DDC180704770B5B1F90040B2F9003035
:104CC0009C4200DD23460380B1F90250B2F9024054
:104CD000A54200DD2C464480B1F90460B2F90450CD
:104CE000AE4200DA35468580B1F90610B2F90620E9
:104CF000914200DB1146C1809D4201DBA14201DAF5
:104D0000002070BD012070BD014602480068407C53
:104D100000F002B8D80100202DE9F84301268946A9
:104D2000044602285DDA304F7A6802B190472E4D72
:104D30005FEA090005F1100532D0012803D0B9F16E
:104D4000020F4ED118E055F8240088B92046FDF72F
:104D50002BFE009018B3C0680D21426A6846904748
:104D600002003ED049460098904755F8240000269E
:104D7000401C45F8240034E02046FDF715FE009065
:104D800068B1C0680D21426A68469047040028D087
:104D9000386800B1804749460098A047002620E0C7
:104DA00055F82400A846012812D12046FDF7FCFD45
:104DB000009068B1C0680D21426A684690470500BE
:104DC00006D0386800B1804749460098A8470026B9
:104DD00058F8241009B1012200E00022891A48F88D
:104DE00024103046BDE8F8833C03002030B581F044
:104DF0007F43FF2480F07F4094EA116101D120F0CD
:104E00007F43010E11FB02F1B1FBF4F100F0FF153D
:104E1000C1F1FF0203F0FF14544301FB05444FF0BE
:104E2000FF15240A05EA1323C0F30720534340F07B
:104E3000807001FB003104F0FF1001F0FF210843F6
:104E400080F07F4030BD00002DE9F05F0646DDF8C0
:104E5000389015460C4600200D99804688421ED297
:104E6000DFF840B00C9F4FF0FF0A02CE08CCAAEB4F
:104E7000116202FB09F2B2FBFAF0C2B221F07F40EC
:104E80001946DBF80030984720F07F4001C57F1EAF
:104E9000EBD10A9804EB800408F10100DCE7BDE8DF
:104EA000F09F000094010020016811F8012B11F817
:104EB000013B016042EA03221046704702490A6B37
:104EC0004260086370470000C401002030B503460B
:104ED000CCB202E003F8014B521E0AB19907F9D196
:104EE000910818D004EB044502F0030205EB0525F8
:104EF00006E020C3091F20C343F8085B43F8045CA5
:104F00000429F6DA01E020C3491E0029FBD102E0A2
:104F100003F8014B521E002AFAD130BD10B58307A9
:104F200002D520F8021B521E530811D001EB014498
:104F3000042B09DB10C01B1F10C0042B40F8084BCA
:104F400040F8044CF6DA01E010C05B1E002BFBD1E8
:104F5000D20700D0018010BDFEE7000070B5FF232E
:104F6000104CB3EB116F05D12346050E1B680AD018
:104F7000FF2D14D00C4B02EB0212D2B21B689847E3
:104F80002168084070BD514201EB01114FF07F4292
:104F900020F07F4002EB01610843184070BD01EA38
:104FA000030070BD740300209401002002490A68C8
:104FB0000860104670470000740300200449054A49
:104FC0000968497C52F821100969096808470000FE
:104FD000D801002004020020C1B2C0F30722C0F3B0
:104FE0000740914207D1824205D111200831B1FB1F
:104FF000F0F07830704701EB8103FF2100EB800077
:1050000002EB82027F307F337F32B0FBF1F0B3FBE3
:10501000F1F3B2FBF1F202EB420103EB410100EBD1
:10502000C00001EB80006C28E4D3283070470000FA
:105030002DE9F04F05468DB07B48DDF860901A9C55
:1050400000681E4617464FF0000A78B11B9B199A5C
:10505000CDF808900593CDE90324DDE91623CDE9C9
:105060000023046833463A46284680E0DDE916020C
:1050700001EB060805EB070C1043A8F10108ACF1A1
:10508000010C012806D0C9F108000590002002910A
:105090000990C6E065480268B2F90A30581A00283B
:1050A00006DD361A002E63DD1946199B00FB03440A
:1050B000B2F90E00A8EB0000002802DD361A002E1F
:1050C00056DDB2F90C00ACEB0000002800DD3F1A01
:1050D000B2F908300020AB4235DD581B3F1A4B4671
:1050E000B9F1080F26D006DC012B0BD0022B11D012
:1050F000042B28D116E0102B1ED0182B1FD0202BEC
:1051000021D11CE020F0070304EBE0041D4400F073
:10511000070018E020F0030304EBA0041D4400F096
:10512000030010E020F0010304EB60041D4400F0D4
:10513000010008E0044404E004EB400401E004EB57
:10514000800405440020002F12DD1B9BDDF864C0A5
:10515000CDE90403CDE90069CDE902C4527C3448AD
:105160003B4650F82200C26854680A462946A047C8
:105170000DB0BDE8F08F1799029808440C902B49A8
:10518000401E00900A68B2F90A30834241DCB2F94D
:105190000E10029881423CDB4FF0000BD84603957D
:1051A0000A9434E0BBF1000F05D10A984FF0080BC8
:1051B00010F801AB0A900599ABEB090B3AFA01F034
:1051C0000AFA09F101F0FF0A04D118490968097CBB
:1051D000890716D415490968C96B0A680B921B9A8E
:1051E0000AB152F82000086016990398009B4218F3
:1051F000521E029900F07EF80C490B980968C96BA1
:1052000008600399169808F1010808440390B8450E
:10521000C8DB0998401C09900C9802901998044426
:105220000998B042A7DBA3E728020020D80100209C
:1052300004020020F0B40C4612490968B1F90A30A2
:10524000A3421CDCB1F90E30A34218DBB1F90830DF
:10525000834200DD1846B1F90C30934200DA1A4659
:1052600082420CDB4B7C084951F8235013462246FE
:10527000E9688E6801462846B446F0BC6047F0BC39
:1052800070470000D8010020040200200A46174998
:1052900030B40968B1F90A30934225DCB1F90E3017
:1052A000934221DBB1F9083083421DDCB1F90C30A7
:1052B000834219DB0B7C0E4CDB0709D0497C54F888
:1052C0002130D968CC690146A44630BC18466047F5
:1052D000CB6B497C1B6854F82140E1688D6901461D
:1052E0002046AC4630BC604730BC7047D801002037
:1052F0000402002038B5134C2468B4F908508542E4
:1053000000DD2846B4F90C50954200DA2A46824264
:1053100017DBB4F90A508D4200DD2946B4F90E506E
:105320009D4200DA2B468B420BDB0093647C064BDC
:1053300053F82440E3681D6913460A460146204697
:10534000A84738BDD8010020040200202DE9F04F05
:1053500083B001214FF4FD7004F084F90425009519
:1053600002208DF805008DF8040000208DF806005D
:105370008DF80700DFF8808269464046FCF730FF71
:105380000E2202214046FCF776FF08200090694675
:105390004046FCF725FF0E2203214046FCF76BFF39
:1053A000A801009069464046FCF71AFF0E2208212A
:1053B0004046FCF760FF4FF40079CDF80090694655
:1053C0004046FCF70DFF0E2209214046FCF753FF33
:1053D0002E02009669464046FCF702FF0E220A2183
:1053E0004046FCF748FF4FF4006ACDF800A069463C
:1053F0004046FCF7F5FE0E220B214046FCF73BFF32
:10540000A802009069464046FCF7EAFE0E220C21F5
:105410004046FCF730FF4024009469467748FCF78B
:10542000DFFE0E2206217548FCF725FF2027009796
:10543000DFF8CCB169465846FCF7D2FE0E220521B2
:105440005846FCF718FF009469465846FCF7C8FE1A
:105450000E2206215846FCF70EFFE0010090694637
:105460004046FCF7BDFE0E220D214046FCF703FF2F
:105470002002009069464046FCF7B2FE0E2211461B
:105480004046FCF7F8FE6002009069464046FCF793
:10549000A7FE0E220F214046FCF7EDFE4FF001085B
:1054A000CDF8008069465748FCF79AFE0E2200218D
:1054B0005448FCF7E0FE0220009069465148FCF792
:1054C0008FFE0E2201214F48FCF7D5FE009569465C
:1054D0004C48FCF785FE0E2202214A48FCF7CBFE21
:1054E0001025009569465846FCF77AFE0E220421E5
:1054F0005846FCF7C0FE0094DFF80CB169465846E8
:10550000FCF76EFE0E2206215846FCF7B4FECDF8DD
:1055100000A069463948FCF763FE0E220B2137488C
:10552000FCF7A9FE009569463648FCF759FE0E22A5
:1055300004213448FCF79FFE009769463148FCF788
:105540004FFE0E2205212F48FCF795FE0094694678
:105550002C48FCF745FE0E2206212A48FCF78BFE5C
:105560008024009469462748FCF73AFE0E22072162
:105570002448FCF780FE009469462048FCF730FE82
:105580000E2207211D48FCF776FE009669461D484D
:10559000FCF726FE0E220A211A48FCF76CFECDF815
:1055A000009069461748FCF71BFE0E22092115489A
:1055B000FCF761FE0096154C69462046FCF710FE8C
:1055C0000E220A212046FCF756FE02208DF8050027
:1055D0008DF8048000208DF806008DF80780009774
:1055E0000B4C69462046FCF7FBFD20212046FCF7CA
:1055F00055FE03B0BDE8F08F001C024000180240C9
:105600000010024000200240000C02400014024042
:1056100000040240024808210068407C0BF078B882
:10562000D801002008210BF073B800000248006880
:10563000806B006870470000D801002002480068B5
:10564000C06B006870470000D8010020044B03EBDA
:10565000800253F82000C068436A104618470000D3
:10566000040200200C210BF053B80D210BF050B8B0
:10567000024809210068407C0BF04AB8D80100209C
:1056800009210BF045B870B500252C462046FDF7E2
:105690008BF900B16D1C641C022CF7DB284670BD31
:1056A00002480068407C00F003B80000D8010020E8
:1056B00010B5FDF779F9002805D0C168CA6ABDE8C0
:1056C00010400221104710BDF8B515460E460124C2
:1056D000FDF76AF9009058B1C0680421426A684633
:1056E0009047030004D02A4631460098984700248A
:1056F0002046F8BD0E210BF00BB803210BF008B8C3
:1057000003200BF062B904210BF002B8024801211A
:105710000068407C0AF0FCBFD80100200148006806
:10572000704700008802002001210AF0F1BF01202B
:105730000BF04BB9024802210068407C0AF0E8BF38
:10574000D80100200148406870470000880200200E
:1057500002210AF0DDBF02200BF037B900F002B8D9
:10576000AFF300802DE9F041060008D0B76837B1EB
:105770001248816819B13468B4F5807F02DD0020D9
:10578000BDE8F08101688C4200DD0C4600258046B2
:1057900009E000BF57F82500FFF710FCD8F8081003
:1057A00041F825006D1CA542F4DBD8F804104446EE
:1057B00009B130468847A068E2E700007402002083
:1057C0000449054A0968497C52F821100969496869
:1057D00008470000D80100200402002010B5A0F105
:1057E0007801102906D201EB011000EB012000EB3B
:1057F000003010BD6C2804D3942801D2002010BDC5
:1058000028380621B0FBF1F3B0FBF1F2B3FBF1F461
:1058100001FB120201FB14312423B0FBF3F002EB75
:10582000021201EB011102EB420201EB410100EB1C
:10583000001000EB400002EB012101EB004010BD25
:105840007047704710B500F01F01074A074BC0F3BF
:105850004514C0F3C4201B5D105C515C00EB0320B9
:1058600000EB014010BD0000E436040804370408D2
:105870000106C0F30723C0F30742080A40EA0320E9
:105880001043704710B54FF07F410406C0F3072363
:10589000C0F307428143200A40EA03201043084333
:1058A00010BD10B590B00121880603F005FF01215D
:1058B000C80503F0D7FEFFF749FD002401940294C8
:1058C000039404940D940E940F94042207214FF432
:1058D000907003F095FF4FF4003003F081FF01203A
:1058E00003F088FF3D2003F05DFF0028FAD0059407
:1058F000069428200790082008904FF40270099021
:105900004FF48C700A9040F20D200B904FF4907081
:105910000C9001A800F056FD10B010BD10B50A4C57
:10592000A06860B920688000FCF74CFEA06040B120
:1059300004F10C01054808600846FFF7BFFA002093
:1059400010BD012010BD0000740200203D2501089B
:105950002DE9F047FFF797FE07460024DFF8608047
:105960002AE02046FDF720F828B3D8F8000090F888
:10597000119044742046FFF755FE082817DC1148A3
:10598000114950F824000069884210D02046FFF7E2
:1059900077FE0646002508E0E8B2FFF711FF024651
:1059A000E9B2204600F06AF96D1CB542F4DBD8F884
:1059B000001081F81190641CBC42D2DBBDE8F08776
:1059C000D801002004020020543A04082DE9FF4FBA
:1059D00083B01646DDE910408B46C0684769426ACD
:1059E0007AB1012111A8904705000AD00698CDE9A7
:1059F000000433465A4603991198A84707B0BDE8FA
:105A0000F08F57480068407CFDF7D8FA8246082896
:105A100001DC012005E0BAF1100F01DC022000E0FA
:105A200004208046002596E04046B8F1010F05D0DD
:105A3000022871D0B8F1040F25D17CE0BAF1090F2A
:105A400021D2DFE80AF08605213F3F595959590014
:105A5000039815E001465A461198B847C5F1070169
:105A600088404FF67F722178EA40114001436D1C57
:105A7000217004EBE50425F00700054109F1010060
:105A80008146B042E6DD64E0039817E001465A46DD
:105A90001198B8470621A1EB450188406B004FF6ED
:105AA0003F722178DA40114001436D1C217004EBF4
:105AB000A50425F00300054109F101008146B0422B
:105AC000E4DD46E0039813E001465A461198B847D2
:105AD0000421A1EB850188402178AB000F229A4078
