:020000040800F2
:10000000D0270120C101000851DB000895AE00088F
:1000100065DA0008D32A0008513D010800000000FD
:100020000000000000000000000000004935010849
:1000300087410008000000009D0B000811F3000834
:10004000FB010008FB010008FB010008FB010008A0
:10005000FB010008FB010008FB010008FB01000890
:10006000FB010008FB010008FB010008FB01000880
:10007000FB010008FB010008FB010008FB01000870
:10008000FB010008FB010008FB010008FB01000860
:10009000FB010008FB010008FB010008FB01000850
:1000A000FB010008FB010008FB010008FB01000840
:1000B000FB010008FB010008FB010008FB01000830
:1000C000FB010008FB010008FB010008FB01000820
:1000D000FB010008FB010008FB0100087D3B010853
:1000E000FB010008FB010008FB010008FB01000800
:1000F000FB010008FB010008FB010008FB010008F0
:10010000FB010008491F0108FB010008FB01000872
:10011000FB010008FB010008FB010008FB010008CF
:10012000FB010008FB010008FB0100089D360008E8
:10013000FB010008FB010008FB010008FB010008AF
:10014000FB010008FB010008FB010008FB0100089F
:10015000FB010008FB010008FB010008FB0100088F
:10016000FB010008FB010008FB010008FB0100087F
:10017000FB010008FB010008FB010008FB0100086F
:10018000FB010008FB010008FB010008FB0100085F
:10019000FB010008FB010008FB010008FB0100084F
:1001A000ADD40008FB01000891360008DFF80CD040
:1001B00000F008FC00480047F5870208D02701201E
:1001C000DFF83800016841F470010160BFF34F8F20
:1001D000DFF82C00016821F040410160BFF36F8F10
:1001E0000848804708480047FEE7FEE7FEE7FEE7CD
:1001F000FEE7FEE7FEE7FEE7FEE7FEE788ED00E04C
:1002000034EF00E031360108AD01000872B67047E6
:1002100062B67047EFF3108072B6704780F31088B3
:10022000704730BF704720BF7047B0FA80F070470A
:1002300090FAA0F0B0FA80F0704790FAA0F0704702
:100240002DE9F05F0546002092469B46884606460B
:10025000814640241BE0284641464746224600F09E
:10026000CBFA53465A46C01A914110D3114618464C
:10027000224600F0B2FA2D1A67EB01084F462246DB
:100280000120002100F0A9FA17EB00094E41201EC1
:10029000A4F10104DFDC484631462A464346BDE866
:1002A000F09F2DE9F0410024061B254671F1000660
:1002B00005DA01240027D0EB070067EB0101161EC9
:1002C00073F1000605DA0027D2EB0702012567EB80
:1002D0000303FFF7B5FF86460E4617469C46AC4221
:1002E00004D00025D0EB050E65EB010624B10020FB
:1002F000D2EB000760EB030C704631463A4663468A
:10030000BDE8F08110B5441A0346944209D284181E
:10031000114403E011F8013D04F8013D521EF9D2E9
:1003200010BD40EA0104A40703D009E010C9121F60
:1003300010C3042AFAD203E011F8014B03F8014B71
:10034000521EF9D210BDD2B201E000F8012B491EB5
:10035000FBD270470022F6E710B513460A46044662
:100360001946FFF7F0FF204610BD421C10F8011B94
:100370000029FBD1801A704710B5002200E0521C02
:10038000835C8C5CA34201D1002BF8D1D8B2E1B2DE
:10039000401A10BD30B504460020034600E05B1C47
:1003A000934203D2E05CCD5C401BF8D030BD0346E5
:1003B00011F8012B00F8012B002AF9D118467047DB
:1003C0002DE9FE4F804681EA0300C00F0C460090E5
:1003D00021F0004123F00045B8EB0200A94105D20D
:1003E0004046214690461C460B46024623F00040FC
:1003F000104347D0270DC7F30A00C3F30A510290F8
:10040000401A019040286BDAC3F3130040F4801BBC
:100410000098924620B10023D2EB030A63EB0B0B4A
:1004200001985946C0F14002504600F0D6F9064600
:100430000D4650465946019A00F0EEF910EB0800BF
:100440006141002487EA115284EAE7731A4340D0DD
:10045000009A62B3019A012A4FEA075215DC001B89
:1004600061EB02014FF0004202EA0752CDE900427F
:10047000001C41F5801132462B4600F025FA03B0EE
:10048000BDE8F08F40462146F9E7001B61EB020111
:10049000001C41F5801300185B412018A2F50017DD
:1004A00047EB030140EAD570B6196D4111E06D08C4
:1004B0004FEA360645EAC0754FEA0752001B61EB6A
:1004C0000201001C41F5801149084FEA3000001973
:1004D000514132462B4603B0BDE8F04F00F0E5B97C
:1004E0000098012240000023D0EB020263EBE0738E
:1004F000009821464FEAE074B8EB000061EB04017C
:10050000E9E783F000435BE781F0004158E72DE91C
:10051000FE4F81EA030404F0004421F000410094FE
:100520004FF0000B23F0004350EA01045ED052EA82
:1005300003045BD0C3F30A54C1F30A552C44A4F25C
:10054000F3340194A0FB0254C1F3130141F4801170
:10055000C3F3130343F4801301FB024400FB034E77
:10056000840A970A44EA815447EA8357A4FB076840
:1005700002958D0A05FB07854FEA932C04FB0C546A
:100580002705029D4FEA065847EA1637B5EB0805DE
:100590006EEB070C870E920E47EA811742EA831230
:1005A000A7FB0201B6EB0B0164EB00042B0D43EA41
:1005B0000C335E1844EB1C50DA465146E7FB02014F
:1005C000C5F313044FEA0B3343EA14534FEA0432E2
:1005D000019C43EA0603A4F10C040294009CCDE9BB
:1005E00000B400F071F903B0BDE8F08F00200146BF
:1005F000F9E72DE9F04D81EA030404F0004B21F006
:10060000004514464FF0000A23F0004150EA05026D
:1006100020D054EA01021DD0C5F30A570246C5F3A3
:100620001303C1F31300C1F30A5640F4801543F4D9
:100630008013A7EB0608101BD64608F2FD3873EBB3
:10064000050002D308F1010801E092185B41B8F1FE
:10065000000F03DA00200146BDE8F08D00204FF4C2
:100660008011064684460EE0171B73EB050705D381
:10067000121B63EB050306434CEA010C49084FEAE1
:10068000300092185B4150EA0107EDD152EA0300B5
:1006900012D082EA040083EA0501084305D0101B4A
:1006A000AB4106D20122002306E000224FF00043B6
:1006B00002E06FF0010253101AEB06004CEB0851F8
:1006C00010EB0A0041EB0B01BDE8F04D00F0EDB876
:1006D0000EB5C10F80EAE0700844CA07002140F25D
:1006E00033438DE80E000A460B4600F0EDF803B0E8
:1006F00000BD0EB540F2334102910021CDE9001159
:100700000A460B4600F0E0F803B000BD70B5C1F337
:100710000A5201F000450024C1F3130140F2FF33F7
:1007200041F480119A4201DA002070BD40F2334357
:100730009A42A2F2334203DC524200F05DF800E03C
:1007400090402C43F1D0404270BDC1F30A5210B525
:10075000C1F3130140F2FF3341F480119A4201DAF0
:10076000002010BD40F233439A42A2F2334203DC30
:10077000524200F041F810BD904010BD00F0004220
:1007800030F000400AD0C10D01F56071C0F31600D1
:1007900042EA0151C2084007114370470020014658
:1007A000704701F0004330B421F0004150EA0102EB
:1007B00006D00A0DA2F56072C1F31301002A02DC13
:1007C00030BC00207047440F44EAC104C100E01867
:1007D00030BC00EBC25000F031B8202A04DB203AD4
:1007E00000FA02F1002070479140C2F1200320FA84
:1007F00003F3194390407047202A04DB203A21FA82
:1008000002F00021704721FA02F3D040C2F1200229
:100810009140084319467047202A06DBCB17203A3F
:1008200041FA02F043EAE07306E041FA02F3D040F5
:10083000C2F1200291400843194670470029A8BF21
:100840007047401C490008BF20F00100704710B4F9
:10085000B0FA80FC00FA0CF050EA010404BF10BCAE
:10086000704749B1CCF1200421FA04F411FA0CF1DB
:1008700018BF012121430843A3EB0C01CB1D4FEA14
:1008800000614FEA102042BF002010BC704700EB0F
:10089000C35010440029A4BF10BC7047401C49003D
:1008A00008BF20F0010010BC704710B5141E73F192
:1008B000000408DA401C41F1000192185B411A4320
:1008C00001D120F0010010BD2DE9F04D92469B466C
:1008D00011B1B1FA81F202E0B0FA80F22032904612
:1008E000FFF77BFF04460F4640EA0A0041EA0B018E
:1008F00053465A46084313D0114653EA010019D013
:10090000C8F140025046FFF777FF05460E465046B5
:1009100059464246FFF761FF084305D0012004E035
:1009200020463946BDE8F08D0020054346EAE076D2
:100930002C4337430A986305E40AA0EB0800002221
:10094000FD0A44EA47540A3002D500200146E9E78F
:10095000010510196941DDE9084500196941BDE843
:10096000F04DA2E770B521F0004303430CD0C1F372
:100970000A550024D5EB040564EB0403D617AD1A21
:10098000B34102DB0020014670BD201841EB02514B
:1009900070BD000030B5041E71F1000404DB4FF09F
:1009A0000044404264EB0101141E73F1000405DBB6
:1009B0001C464FF00043524263EB0403994208BFC8
:1009C000904230BD064C074D06E0E06840F0010360
:1009D00094E8070098471034AC42F6D3FFF7EAFBDF
:1009E0006CD707088CD707082DE9F04D00231A466D
:1009F0001B1A8A4103DB00200146BDE8F08DC1F3DC
:100A00000A52C1F3130141F480154FF0000BD107D6
:100A100002D100186D41521E0027044640F2FF111A
:100A2000384601EB620A3E468046024600204FF4FB
:100A30008011FFF7E1FEC2197141BB1846EB0100BE
:100A4000B4EB030C75EB000C04D3E41A65EB000562
:100A500017460E46241908F101006D4180463428DE
:100A6000E3DDF91946EB0600091BA84103D24FF05C
:100A7000FF32134601E0002213461BEB070046EB52
:100A80000A51BDE8F04DFFF710BF70B58C1810F893
:100A9000015B15F0070301D110F8013B2A1106D1C3
:100AA00010F8012B03E010F8016B01F8016B5B1EDD
:100AB000F9D12B0705D40023521E0DD401F8013BB8
:100AC000FAE710F8013BCB1A921C03E013F8015B24
:100AD00001F8015B521EF9D5A142D8D3002070BDA8
:100AE000EFF3098141B1F1EE101A40F8041D20ED39
:100AF000200A3E490A6810607047B0EC200A02C81C
:100B0000E1EE101A3A490A681060704772B64EF664
:100B10002250CEF2000040F2FF01C0F2000101704D
:100B20004FF0000080F309880EF09AFA40F2A0100E
:100B3000C2F20000016881F3088840F21A10C2F284
:100B4000000040F21B11C2F200010A78027040F26C
:100B50009815C2F2000540F29C11C2F200010A6829
:100B60002A60106880F30988EFF3148040F00200D7
:100B700080F31488BFF36F8FBDE8F00F0FBCBDE8A2
:100B8000005006BC62B608471A484FF08051016019
:100B9000704718484FF080510160704772B6EFF30C
:100BA000098020E9F00F40F29815C2F200052E6886
:100BB000306074460EF054FA40F21A10C2F200008F
:100BC00040F21B11C2F200010A78027040F29C113F
:100BD000C2F200010A682A6044F0F40E1068B0E81E
:100BE000F00F80F3098862B670470000980100207A
:100BF0009C01002004ED00E0002904D0816841F050
:100C0000010181607047816821F0010181607047B6
:100C1000084A1168084B1940D0F804C0036843EA39
:100C20000C03D0F808C0C0684CEA00001843084321
:100C30001060704704230140E030FCFF002904D01D
:100C4000816841F4807181607047816821F480710E
:100C500081607047002904D0816841F4007181608F
:100C60007047816821F400718160704710B4426858
:100C700022F4807222F0407291F804C00B6842EABC
:100C80000C221A43426082680D4B1A40D1F80CC006
:100C90000B694C7943EA0C03D1F808C04CEA440CC8
:100CA00043EA0C031A438260C26A22F47002097D8F
:100CB000491EC9B242EA0151C16210BC704700002E
:100CC000FDF7FFC030B4072509290CD9C468A1F18C
:100CD0000A0C0CEB4C0C05FA0CF5AC4303FA0CF3C4
:100CE0002343C36009E0046901EB410C05FA0CF5EC
:100CF000AC4303FA0CF3234303614FF01F0C072AA4
:100D00000CD2436B521E02EB82020CFA02FC23EA65
:100D10000C0391401943416330BC70470D2A0CD23B
:100D2000036BD21F02EB82020CFA02FC23EA0C03D3
:100D300091401943016330BC7047C36A0D3A02EB1E
:100D400082020CFA02FC23EA0C0391401943C162AF
:100D500030BC7047816841F080418160704700215C
:100D60000160017141718160C16001610121017502
:100D70007047002800DC40427047000084B0002427
:100D80000025DFF87880DFF87890002703AED8F8E8
:100D9000300201281DD199F80000002819D103A9BB
:100DA00018480EF051F903A917480EF04DF9012427
:100DB00055B916A022F010F900230522194618464D
:100DC000009701960EF0CCF9E843C5B21AA003F0E3
:100DD00027FA012CDBD103A90A480DF033FF03A940
:100DE00009480DF02FFF0024002301221946184660
:100DF000009701960EF0B4F9C9E7000000004342E5
:100E0000B1000020F41C0020341F002040546578FD
:100E100074546F53706565636823C4E3BAC3A3ACAD
:100E2000D3D0CAB2C3B4CED2BFC9D2D4B0EFC4E318
:100E3000B5C4C2F0A3BF24006F6E0A002DED028B73
:100E400084B02E4C9FED2E8AF2EE048A206880F446
:100E5000005020606A4601A902A827F069FD002819
:100E600044D09DED010AB5EEC00AF1EE10FA1DD294
:100E7000B1EE400A8DED010ADDED000A20EE080A10
:100E800020A060EEA80ABDEEC00AFDEEE00A10EE5A
:100E9000101A10EE903ADDED020A60EE880AFDEEBF
:100EA000E00A10EE902A03F0BBF918E0DDED000A2D
:100EB00020EE080A22A060EEA80ABDEEC00AFDEEF0
:100EC000E00A10EE101A10EE903ADDED020A60EE24
:100ED000880AFDEEE00A10EE902A03F0A1F96A46B6
:100EE00001A902A827F024FD0028BAD103AA0021F5
:100EF0004FF4FA600EF0F2F8A8E700001408024080
:100F00000000C842726F6C6C203D202D25642020AB
:100F10002020202020207069746368203D202564F3
:100F200020202020202020202020796177203D20B3
:100F30002564202020202020202020200A000000DE
:100F4000726F6C6C203D2025642020202020202002
:100F5000207069746368203D2025642020202020B3
:100F60002020202020796177203D2025642020202A
:100F7000202020202020200A0000000086B021A090
:100F800000680290204E9DF80870002505AC03A96A
:100F900004A802F010FB00282AD1BDF810004CF67E
:100FA000CD414843C00C0490BDF80C004843C00C30
:100FB00003903946304612F0CCFEBDF81010304692
:100FC00012F0D4FE9DF80910304612F0C2FEBDF8B2
:100FD0000C10304612F0CAFE9DF80A10304612F08E
:100FE000B8FEBDF81020BDF80C1008A003F018F9E9
:100FF00000230A2219461846009501940EF0B0F815
:10100000C5E7000054480D000010014068756D20D0
:101010003D2025640A74656D3D2025640A000000AA
:101020002DED048B84B00024DFF89880DFED268A54
:101030009FED269A264F002503AEB8F8020000EE79
:10104000100AB8EE400A20EE280A20EE098A18EEAF
:10105000100AB84225DB002C23D103A91D480DF04E
:10106000F3FF03A91C480DF0EFFF03A91B480DF087
:10107000EBFF1BA021F0B0FF00230A2219461846FF
:10108000019600950EF06CF803A912480DF0DAFDF8
:1010900003A911480DF0D6FD03A910480DF0D4FFA7
:1010A000012418EE100AB84202DA012C00D1002403
:1010B0000023022219461846019600950EF050F8BA
:1010C000BBE700003C000020000080393333534070
:1010D000CDCC2C40F41C0020341F0020B41D002077
:1010E0004054657874546F53706565636823CCEC25
:1010F000D4F5C3B4CDBBC8BBBADAC1CB2400000061
:101100002DED048B84B00024224EDFED238A9FED69
:10111000239A234FDFF88C8003AD308800EE100A4D
:10112000B8EE400A20EE280A20EE098A18EE100ACE
:10113000FFF724FB41EC100B1BA053EC102B03F02A
:101140006FF818EE100AB8421BDC98F8000000286F
:1011500017D103A91D480DF077FF002211461CA0EE
:1011600020F0DEFF1EA021F037FF002303221946E6
:101170001846019500940DF0F3FF03A913480DF0F4
:1011800061FD00231A4605211846019500940DF0D3
:10119000E7FFC2E73C00002000008039CDCC54417D
:1011A00000002041B10000200D0A20546865206332
:1011B000757272656E742041442076616C7565208D
:1011C0003D2025662056200D0A000000F41C00205A
:1011D000303A6D65696469616E2E6A70670000005F
:1011E0004054657874546F53706565636823BFEC31
:1011F000C3BBB5E7C1CBA3ACD2AAB8F8CED2B3E497
:10120000B5E7BFA9A3A1240084B00025B64EB74F0F
:101210000DF10C0810F04CFAA6FB00214908A1EBD7
:1012200081010144CCB2A7FB0021C9086FF00A027A
:1012300001FB020000F0FF094946ADA002F0F0FFFB
:10124000B9F10B0F80F04081DFE809F0060D141BA7
:1012500041678DB3D7FDF50000221146A8A020F00C
:101260005FFF00F031B900221146A8A020F058FF1E
:1012700000F02AB900221146A7A020F051FF00F08B
:1012800023B9002007F01CFE05F0BAFA03AA0021DA
:1012900032200DF023FF052301220221A1A020F01E
:1012A000A9FE24B90022114695A020F039FF012C97
:1012B00006D00022114698A020F032FF00F004B9B9
:1012C0000022114691A020F02BFF00F0FDB8002075
:1012D00007F0F6FD05F094FA03AA002132200DF084
:1012E000FDFE05230122022192A020F083FE24B9F5
:1012F0000022114682A020F013FF012C06D000220C
:10130000114685A020F00CFF00F0DEB80022114647
:101310007EA020F005FF00F0D7B8002007F0D0FD38
:1013200005F06EFA03AA002132200DF0D7FE052346
:101330000122022183A020F05DFE24B90022114683
:101340006FA020F0EDFE012C06D00022114672A005
:1013500020F0E6FE00F0B8B8002211466BA020F0A5
:10136000DFFE00F0B1B8002007F0AAFD05F048FA52
:1013700003AA002132200DF0B1FE05230122022133
:1013800074A020F037FE24B9002211465CA020F0A2
:10139000C7FE012C06D0002211465FA020F0C0FE3F
:1013A00000F092B80022114658A020F0B9FE00F0DB
:1013B0008BB8002007F084FD05F022FA03AA002173
:1013C00032200DF08BFE05230122022165A020F0C2
:1013D00011FE24B90022114649A020F0A1FE012CE3
:1013E00005D0002211464CA020F09AFE6CE00022AD
:1013F000114646A020F094FE66E0002007F060FD54
:1014000005F0FEF903AA002132200DF067FE052346
:101410000122022157A020F0EDFD24B9002211463F
:1014200037A020F07DFE012C07D0002211463AA003
:1014300020F076FE48E02AE005E00022114633A0C5
:1014400020F06EFE40E0002007F03AFD05F0D8F9EC
:1014500003AA002132200DF041FE052301220221C2
:1014600048A020F0C7FD24B90022114624A020F096
:1014700057FE012C05D00022114627A020F050FE77
:1014800022E00022114621A020F04AFE1CE00020AC
:1014900007F016FD05F0B4F903AA002132200DF083
:1014A0001DFE0523012202213AA020F0A3FD24B94C
:1014B0000022114612A020F033FE012C0ED0002293
:1014C000114615A020F02CFE0023192219461846BB
:1014D000CDF8048000950DF043FE9BE600221146F6
:1014E0000AA020F01DFEEFE7ABAAAAAAA38B2EBA92
:1014F00052616E6444617461203D2025640A0000DD
:10150000303A70632E6A706700000000303A7063F2
:10151000322E6A7067000000303A7063332E6A70B2
:1015200067000000303A7869616F6A69332E676935
:1015300066000000303A7869616F6A69342E676925
:1015400066000000303A7869616F6A69352E676914
:1015500066000000303A7869616F6A69362E676903
:1015600066000000303A7869616F6A69372E6769F2
:1015700066000000303A7869616F6A69382E6769E1
:1015800066000000303A7869616F6A69392E6769D0
:1015900066000000303A7869616F6A6931302E6701
:1015A000696600002DE9F04F8BB00024022601F09F
:1015B0004FFC00F0F1FE00F087FF0CF059FA012219
:1015C000A1A1A24825F070FEA149C8700AA80DF09B
:1015D000ABF8002211469FA020F0A2FD6FF07F40E3
:1015E00007F06EFC002007F076FC9D4807F0A8FC91
:1015F000DC2200219BA005F07DFBDC22AF219EA018
:1016000005F078FB3346DC229621204605F0DCFA13
:10161000F122002199A005F06DFB4FF4FA6024F04F
:1016200041FA00254FF0080808EBC501F122A3A0FC
:1016300005F060FB3346DC229621204605F0C4FA13
:10164000A01CC4B2642C01D364240326642024F0BB
:1016500029FA681CC5B23A2DE6D399A021F0BCFC4A
:101660004FF4FA6024F01EFAFEF7D4FD099004202E
:10167000984A0AAD0090462397A10195A2F1200057
:101680000CF0EAFB002405274FF42F794FF0460AAF
:101690009548069403260594CDF808A0CDF80C9043
:1016A000019004972346914A91A1009707960895C7
:1016B000A0F518600DF09AF80C200796029005949A
:1016C00080218F4A08950694092001920391009089
:1016D000049700238B4A8CA18F480DF087F88F4820
:1016E0000694019005940620CDF808A0CDF80C9042
:1016F00000900497079608950023894A89A18D4890
:101700000DF074F84FF496700895039005941E211F
:10171000894A079606940720019202910090049747
:101720000023864A86A18A480DF060F84FF40079BC
:101730004FF0330A8748069405944FF00A0BCDF812
:1017400008A0CDF80C9001900023834A83A1CDF826
:1017500000B004970796089584480DF047F8844830
:101760000694019005940B20CDF808A0CDF80C90BC
:10177000009004970796089500237E4A7EA1824830
:101780000DF034F864208149089506940594CDF84D
:1017900008B00191039000237D4ACDF800800497A2
:1017A00007967CA181480DF021F8814806940594A4
:1017B0000796CDF80C90019000237E4A7EA1CDF8CB
:1017C00008A004970096089580480DF00FF880480F
:1017D0000694019005940420CDF808A0CDF80C9053
:1017E000009004970796089500237A4A7AA17E48CC
:1017F0000CF0FCFF7D480694019005940C20CDF878
:1018000008A0CDF80C900090049707960895002347
:10181000774A78A17B480CF0E9FF0AA96B480DF0E4
:1018200013FC0AA977480DF00FFC0AA95F480DF0D8
:101830000BFC0AA974480DF09BF80998FEF7EEFC22
:101840000BB0BDE8F08F0000303A0000CC0A002059
:10185000B1000020303A6B61696A692E6A706700D6
:10186000B872070853797374656D2053746172748C
:10187000696E672E2E2E0000250000005B2E2E2E96
:101880002E2E2E2E2E2E2E2E2E2E2E2E2E2E2E2E78
:101890002E2E2E2E2E2E2E2E2E2E2E2E2E2E2E2E68
:1018A0002E2E2E2E2E2E2E2E2E2E2E2E2E2E2E2E58
:1018B0002E2E2E2E2E2E2E5D000000003D0000004C
:1018C00040506C6179464C415348233030323324C8
:1018D000000000001C1B00204D656D20466F72202B
:1018E000546573740000000074260020091200087B
:1018F000417070205461736B2053686F77425100C0
:10190000644100203D0E0008417070205461736BEB
:10191000204C656431000000741E002064430020E8
:10192000CD1C0008417070205461736B2074616C91
:101930006B000000341F0020544E00207D0F000873
:10194000417070205461736B204C6564330000005B
:10195000F41F002064310020011100084170702044
:101960005461736B20506F7765720000B41D0020C6
:101970006439002021100008417070205461736B9D
:10198000204C696768740000F42200200453002092
:101990007D0D0008417070205461736B20436865B1
:1019A000636B50656F706C6500000000B420002010
:1019B00094540020D11B0008417070205461736B57
:1019C00020546F7563685363616E000074210020BA
:1019D000945C00200D1A0008417070205461736BF4
:1019E00020546F7563680000342200209464002046
:1019F000A11C0008417070205461736B2057696E00
:101A0000646F7700B4230020341C002084B00024CD
:101A100001261425DFF84091DFF840A14FF0020BBA
:101A200000270DF10C089AF8010000287ED0D9F8A3
:101A3000041000208847012801D1601CC4B2082C82
:101A400002D00F2C6CD155E045A021F0C5FA00233F
:101A5000022219461846CDF8048000970DF080FB4D
:101A60000024002D40D0681EC5B2D9F80410002013
:101A70008847012804D142A002F0D2FB601CC4B206
:101A8000032C26D343A021F0A7FA03A949480DF05F
:101A9000DBFA03A948480DF0D7FA002007F010FA46
:101AA00004F0AEFE03AA002132200DF017FB032341
:101AB0000222012141A020F09DFA03A93D480DF02A
:101AC000C1F803A93C480DF0BDF800250A24002602
:101AD00008E00022962311461046CDF804800097B6
:101AE0000DF03EFB002DBED114250EB1002417E0F1
:101AF000012615E003A92F480DF0A6FA0022642361
:101B000011461046CDF8048000970DF029FB8AF8A5
:101B100002B08AF80170002403A92C480DF092F855
:101B20000F2C00D900244FF4967300E008E0002247
:101B300011461046CDF8048000970DF011FB72E7B6
:101B400007F0BCFE00220A2311461046CDF804809F
:101B500000970DF005FB66E744000020B10000206F
:101B60004054657874546F53706565636823BAC3D5
:101B7000D1F7B0A12CB1F0C3FECED2C1CB2400006E
:101B8000746F756368A3A1A3A1A3A1A3A1A3A10AD4
:101B9000000000004054657874546F5370656563AD
:101BA0006823D4D9C0B4A3ACCED2D2AAD2A7C4E3FE
:101BB000C1CB2400F41C0020341F0020303A79618E
:101BC0006F72656E2E67696600000000B423002006
:101BD00088B0DFF8C0904FF0010A02AF4FF6FF78EF
:101BE0004FF0000BD9F8041000208847002499F822
:101BF00020000AFA04F108423BD009EB4405A88909
:101C0000B0F5F07F37D2E98AB1F5887F33D237F863
:101C10002420424504D127F8240007EB84004180AA
:101C20004FF47F0007F057F907EB8406EB8AAA8987
:101C3000718837F8240005F06DFAA88927F8240088
:101C4000E98A7180B0F5E47F15D9282913D20020E4
:101C500007F036F904F0D4FD0F4807F071F9FF20C2
:101C600007F039F90A224FF4E4710CA005F056F898
:101C700001E027F8248007A80022019005231146DF
:101C8000CDF800B010460DF06BFA601CC4B2052C04
:101C9000ADD3A7E74400002040A0070852535400EA
:101CA00084B0002503AC07A002F0BAFA0BF058FE8E
:101CB00000224FF4E17311461046009501940DF097
:101CC0004FFAF0E768656C6C6F0A000086B000257B
:101CD0000024DFF800B4DFF8009405AE00270023ED
:101CE00002AA1946184600960CF0E0FE8046FBA0BA
:101CF000B8F8001002F094FA4FF0010A89F800A039
:101D0000B8F80000162800F0168114DC062839D037
:101D100007DC012818D0022824D0042840F02683AC
:101D200025E0092870D00C2800F0C1800F2840F071
:101D30001D8300F0AAB81738062880F01783DFE863
:101D400000F0F9F8F7F6F5DEE9A002F069FA05AA65
:101D500000214FF4FA600DF0C1F9E7A021F03CF941
:101D600000F004BBE2A002F05BFA00F0FFBAEAA0C8
:101D700002F056FA05AA00214FF47A700DF0AEF980
:101D800000F0F4BAE6A002F04BFA03A904A801F0AF
:101D900012FC40B1E4A021F01FF905A9EC480CF0B9
:101DA00051FF00F0E3BABDF810004CF6CD414843B6
:101DB000C00C0490BDF80C004843C00C039005A96A
:101DC000E3480DF041F9BDF810101C2908D3E1A03B
:101DD00021F002F900221146EBA020F0A1F9DCE786
:101DE00000221146EBA020F09BF9BDF80C20BDF8B5
:101DF0001010EBA021F0F0F805AA002144F62060B5
:101E00000DF06CF9C9E7FFE7F3A002F009FA05A9A4
:101E1000CF480DF019F9002007F052F804F0F0FC5B
:101E20000022322311461046009701960DF098F9D2
:101E3000EB4821F0D1F8032302220121E9A020F090
:101E4000D9F8032302220121E9A020F0D3F80323CB
:101E500002220121E9A020F0CDF803230222012172
:101E6000E9A020F0C7F8032302220121E9A020F015
:101E7000C1F8032302220121E9A020F0BBF805A943
:101E8000B3480CF0DFFE00F071BAE8A002F0C8F928
:101E900005A9AF480DF0D8F800221146E5A020F0C2
:101EA0003FF905A9AA480CF0CDFE00F05FBAE4A006
:101EB00002F0B6F905A9A6480DF0C6F800221146B1
:101EC000E1A020F02DF914B9E34821F085F8012CA8
:101ED00002D1E24821F080F8002319221946184661
:101EE000009701960DF03CF9601CC4B2022C00D39F
:101EF000002405A996480CF0A5FE00F037BAD8A03A
:101F000002F08EF905A992480DF09EF8002006F027
:101F1000D7FF04F075FC00221146C6A020F000F99E
:101F200005A98B480CF08EFE00F020BA0AE2B4E05E
:101F300096E073E044E0CCA002F072F9012505A917
:101F400083480DF081F80022642311461046009763
:101F500001960DF005F905A9C5480DF075F80022A8
:101F6000642311461046009701960DF0F9F805A973
:101F7000C0480CF067FE002264231146104600970B
:101F800001960DF0EDF8002006F09AFF04F038FC01
:101F9000B94806F0D5FFFF2006F09DFF0A224FF456
:101FA000E471B6A004F0BAFE002264231146104684
:101FB000009701960DF0D4F8B1A021F00DF8D5E10D
:101FC000BAA002F02DF9012D49D105A960480CF005
:101FD00039FE0022642311461046009701960DF049
:101FE000BFF805A9A3480DF02FF80022642311467D
:101FF0001046009701960DF0B3F805A99C480CF027
:1020000021FE0022642311461046009701960DF030
:10201000A7F8A9A020F0E0FF0025A7E1ADA002F0FD
:10202000FFF8012D1BD1002006F04AFF04F0E8FB69
:10203000914806F085FFFF2006F04DFF0A224FF47D
:10204000E4718EA004F06AFE00223223114610468D
:10205000009701960DF084F8A0A020F0BDFF85E167
:10206000A8A002F0DDF84FF0010A4421584611F013
:1020700070FE5146584611F079FE0D21584611F078
:1020800068FE0022322311461046009701960DF09B
:1020900067F89EA020F0A0FF68E1A2A002F0C0F8BF
:1020A0004FF0020A4421584611F053FE514658465B
:1020B00011F05CFE0D21584611F04BFE0022322338
:1020C00011461046009701960DF04AF897A020F0AF
:1020D00083FF4BE100100140B100002052656365B1
:1020E00069766544617461203D2025640A00000022
:1020F000C4E3BAC30A0000004054657874546F53B7
:10210000706565636823D3D0CAB2C3B4CED2C4DCD1
:10211000B0EFC4E3B5C42400D0D4B1F00A0000008D
:10212000CEC2B6C80A0000004054657874546F539C
:10213000706565636823B0A1D1BDCED2B5C4CEC2EF
:10214000B6C8B4ABB8D0C6F7BBB5C1CB240000004D
:10215000F41C00204054657874546F5370656563B7
:102160006823D5E2D5E6B5C4CCABC8C8C1CBA3A122
:10217000CEC2B6C8B6BCB5BD5B6E325D256444B692
:10218000C8C1CB2400000000303A6B752E6A70671E
:1021900000000000303A7869616F2E6A70670000B5
:1021A0004054657874546F53706565636823CFD667
:1021B000D4DAB5C4CEC2B6C8CAC75B6E325D256478
:1021C000A3ACCAAAB6C8CAC7B0D9B7D6D6AE5B6EDA
:1021D000325D256424000000CCFDB8E80A00000050
:1021E00000D60708303A67312E67696600000000A4
:1021F000303A67322E67696600000000303A673374
:102200002E67696600000000303A67342E67696601
:1022100000000000303A67352E6769660000000054
:10222000303A67362E67696600000000C9FAC6F8C2
:102230000A000000303A666168756F2E6A706700A8
:10224000D0A6BBB00A000000303A68616E786961C0
:102250006F2E6A70670000005CD50708D4D40708A9
:10226000B1BFB5B00A000000BBADBBAD0A000000B5
:10227000342200207421002040A00708525354004B
:102280004054657874546F53706565636823BFAAC2
:10229000CABCBBADB0C9A3ACC7EBCBB5CDCBB3F615
:1022A000BBADBBADCDCBB3F624000000CDCBB3F6B8
:1022B000BBADBBAD0A0000004054657874546F5349
:1022C000706565636823C4E3BBADB5C4D5E6C4D10E
:1022D000BFB42400C7E5C6C10A00000040546578B9
:1022E00074546F53706565636823BAC3C1CBC4E38C
:1022F000BFC9D2D4D6D8D0C2BFAACABCBBADC1CB8D
:1023000024000000BFAAB5C60A000000405465784A
:1023100074546F53706565636823D2D1BFAAB5C684
:1023200024000000B9D8B5C60A0000004054657802
:1023300074546F53706565636823D2D1B9D8B5C63C
:102340002400000005A90D480CF07EFE0022642345
:1023500011461046009701960CF002FF89F80170B3
:1023600089F802A005A906480CF06CFC89F80070F9
:1023700005AA414603480BF0EEFDB0E4F41C002032
:10238000B4230020FC1A002000B585B068460EF08A
:1023900041FE019805B000BD08B5012108030EF00B
:1023A000E5FD4FF4A0600BF01DFC01F0EDFE00F028
:1023B00099F800F0EBF80EF0E5FE274801F030FF49
:1023C000264801F02DFF264801F02AFF234801F09E
:1023D00027FF214801F024FF0AF000FA0FF0D4FF94
:1023E00020A001F01DFF09F0F2FC11F04DFA05F0FC
:1023F000ABFB1FA001F014FF0FF002FA21A001F0C7
:102400000FFF01F027F910B323A001F009FF0EF030
:10241000DFFE0EF00DFF08200A2312221421009087
:102420000FF094F826F03CF8C82023F03BFB0BF0AB
:1024300081F90BF05DF926F037FB00280BD026F070
:1024400033FB0146BDE8084019A001F0E9BE1BA01E
:1024500001F0E6FEDBE708BDF8D3070870D30708F4
:10246000B4D30708534452414D204F4B210A00007A
:102470004755495F496E69742053756365737321CD
:102480000A00000041445F496E697420537563651A
:102490007373210A0000000048617665206E6F7436
:1024A0002066696E642044485432320A00000000FD
:1024B000646D70203D2025640A00000044485432B9
:1024C00032204F4B210A000010B5FFF75DFF044991
:1024D0000968B0FBF1F0BDE810400CF02BBF000024
:1024E00054AC020870B586B0012102200EF03EFD0A
:1024F000012188040EF064FD224E07220B21304694
:1025000003F0B3FA07220A21304603F0AEFA0024A2
:102510008DF8164001218DF8171002258DF8145002
:10252000890204918DF8155004A9304603F052FA3F
:102530008DF81450A802049004A9304603F04AFA1A
:102540004FF4E1300090ADF80440ADF80640ADF82E
:102550000840ADF80C400C20ADF80A000A4C694662
:10256000204611F085FB0BF0F4FA012240F22551D0
:10257000204611F060FB0121204611F025FB06B03A
:1025800070BD0000000402400048004030B587B034
:10259000012140200EF0EAFC012120200EF01EFD5A
:1025A000174D08220E21284603F05FFA00248DF80B
:1025B000164001218DF8171002218DF814104A03DE
:1025C00004928DF8151004A9284603F003FA4FF47D
:1025D000E1300090ADF80440ADF80640ADF8084099
:1025E000ADF80C400820ADF80A00064C69462046BC
:1025F00011F03EFB0121204611F0E6FA07B030BD94
:10260000001802400014014038B5456804460146F0
:10261000284611F0E2FB00282BD02068304A112810
:102620000DD006DC0B2825D00E2833D00F2852D130
:1026300012E0282849D0B0F5107F4CD108E092680C
:10264000002A16D02146284601B0BDE83040104788
:10265000214628465268F7E7284603F0DFFE00903F
:10266000406E0468684603F045FF002C01D0284600
:10267000A04738BD284603F0D1FE0090683003F033
:1026800023FE009803216C3003F02CFE684603F013
:1026900031FF20E0E168486809680D2902D020294F
:1026A00013D105E0002810DD28461DF050FB06E0A0
:1026B000002804DD2846BDE838401DF048BB284608
:1026C000BDE8384002211DF058BBE06818B9002170
:1026D000284600F093F92046BDE8384011F042BF8B
:1026E00064030020F0B585B00AAC94E8E000002453
:1026F000CDE90246CDE90057049400F025F805B075
:10270000F0BDF0B5044685B08069B4F90850668A1A
:102710000027CDE90265CDE900170490B4F90C005B
:10272000B4F91060C118B4F90A00B4F90E5010449D
:1027300033462A4600F008F80546616800F07DF946
:1027400005B02846F0BD00002DE9F04F85B01F46CA
:10275000DDE911B4DDE90E5690468946824605F062
:1027600005FD16484C34CDE90204CDE900563B4640
:1027700042464946504611F03DFE040018D003F091
:102780004DFE10225946049011F09AFC0498302214
:102790000B493430FDF7B6FD094D04990C3D28680E
:1027A000486604A803F0A6FE2868416820468847CA
:1027B00007F080FA05B02046BDE8F08F0926000832
:1027C00070030020F0B5044680688B4989B051F849
:1027D0002050606800287DD0052804D006287AD0D3
:1027E000122879D1AEE0E86900284FD095E80E00B4
:1027F0008DE80F0004F110010FC907F0D3FE002689
:1028000055F8260006F067FBA169E8690A1A2169F4
:1028100001446069304404F051FCA169E8690A1A76
:1028200021690144E069801B04F048FCE169E86922
:102830000A1A616901442069304404F0F5FCE16939
:10284000E8690A1A61690144A069801B04F0ECFC84
:10285000761C022ED4DBA86806F03DFBE069E9692E
:102860006669431A206942183144801C521E04F0E4
:102870004FFDE169E869A2690B1A61690144101A08
:10288000401C921E04F044FDEE6913E05FF0000668
:1028900055F8260006F01FFBE069831BA069821B28
:1028A000606981192069304404F07EFC761C022E98
:1028B000EEDB0226D5E90301CDE900016169E0699B
:1028C00008444310A069891C821B2069304404F02D
:1028D000B9FB02E089E012E08AE0D5E90501CDE923
:1028E0000001E36960690121184401EB6001A069FE
:1028F0009B1E821B2069304404F0A4FB78E0206812
:1029000003F08CFD0490206813F0D0FA40B1A06869
:1029100008B1002008E00498006F28B1012003E00E
:102920000498406F00B10220049901EB8000C56E4D
:1029300004A803F0DFFD00231A462846216804F0AE
:10294000F5F855E0206803F069FD0490866EEEB35B
:10295000B0F95C70A168D1B3032942D05FF00001E7
:1029600000EB8101406D0C6C06F0EAFA204606F09F
:10297000B2FA05A805F026F8BDF81410A88B01449A
:10298000ADF81410BDF81810081AADF81800BDF80D
:102990001600801CADF81600BDF81A00801EADF8B8
:1029A0001A000498B0F96020B0F95E1005A806F08E
:1029B0003FF904A803F09EFD022006F043FB3046D9
:1029C00003F02CFD3A4605A9079001E00BE006E074
:1029D00004F0BEF90DF11C0003F08CFD08E00121AC
:1029E000BEE70221BCE704A8F6E7206812F094FED7
:1029F00009B00020F0BD00001CC907084FF4807228
:102A00000029114601D011F07DBA11F0CDB908B5F9
:102A10000023009300F001F808BD70B516460C467F
:102A2000054619463046049A04F062F802462146EB
:102A30002846BDE8704000F02DB82DE9FF410E4654
:102A400005004FF0010421D005F090FB284603F06B
:102A5000E5FC0190876E01A8009703F04BFD31461D
:102A6000684608F0F1F878B100980024B84208D020
:102A7000284603F0D3FC01900099816601A803F079
:102A800039FD284612F0F2FA07F014F904B0204696
:102A9000BDE8F081F8B515460C46060018D005F0E3
:102AA00065FB304603F0BAFC0090032C0BD200EB20
:102AB00084006C3003F008FC009800EB8400C566CD
:102AC000304612F0D3FA684603F014FD07F0F2F82E
:102AD000F8BDFEE7F8B5446805460146204611F00A
:102AE0007CF9002836D028680B2839D00E2805D06C
:102AF0000F2821D0B0F5107F3CD12CE0204603F008
:102B00008DFC009010F8746F4778684603F0F2FC73
:102B1000204613F0CBF910B3E8684168002929DD9D
:102B20000068202826D17F1CB7FBF6F006FB107149
:102B3000204600F032F91DE02546204603F06EFCE9
:102B40000090006F0468684603F0D4FC002C01D0AC
:102B50002846A047F8BD294620461DF0D7FB09E0CE
:102B6000204603F05BFC0090783003F0ADFB684634
:102B700003F0C0FC2846BDE8F84011F0F3BCF0B506
:102B800085B0B0F90850468A84690296CDE90354AD
:102B90000027CDE90017B0F90C10B0F91050B0F9CA
:102BA0000E40B0F90A00194410442B46224600F0AA
:102BB00003F805B0F0BD00002DE9F04F85B01D46CB
:102BC000DDE90E9716468A468346DDF8488005F013
:102BD000CDFA254C0EB135B10AE020688068006856
:102BE00080470646F7E7206880680068804705460A
:102BF0001D486FF07041001DC068884201D147F048
:102C0000010708F15400194ACDE90220CDE90097E7
:102C10002B4632465146584611F0ECFB05001CD0BD
:102C200003F0FCFB10220490119911F049FA0E49AF
:102C300004983C22091D3430FDF764FB0498216898
:102C40000167022180F874100F21C16704A803F006
:102C500051FC206841682846884707F02BF805B0EA
:102C60002846BDE8F08F0000A0030020D52A000808
:102C70002DE9FF470446006810B113F017F968B159
:102C80000022314850F8221060680A2841D007DC41
:102C9000F0B306280DD0072854D106E00122F0E752
:102CA00012280AD019284DD137E0204616F062FAD2
:102CB00048E0204618F0B2FA44E0206803F0AEFB8A
:102CC0000290B0F9548090F85650476C466B02A8B9
:102CD00003F010FC206800F039F88146684611F0D6
:102CE00057FDBDF8001009EB05000844ADF80000E1
:102CF000246A304606F024F9022006F0A3F938468B
:102D000006F0E9F842466946204604F021F819E049
:102D100007E0204618F093FB14E0886904B0BDE892
:102D2000F087206812F0F8FC206803F077FB03902E
:102D3000B0F90610B0F90220891A491CC16703A82E
:102D400003F0D8FB0020E9E794C9070838B504462A
:102D500005F00CFA204603F061FB0090C46F684652
:102D600003F0C8FB06F0A6FF204638BD38B50C4678
:102D7000050011D005F0FAF9284603F04FFB00904A
:102D8000416BA14203D04463284612F06FF96846B4
:102D900003F0B0FB06F08EFF38BD38B50C460500D9
:102DA0001BD005F0E3F9284603F038FB009090F8BB
:102DB0007410A1420CD980F87540684603F09AFB64
:102DC000284612F053F90521284612F033FA02E0A2
:102DD000684603F08FFB06F06DFF38BDFEB50D466B
:102DE000040022D0002D20D005F0C0F9204603F0C9
:102DF00015FB0190866F01A8009603F07BFB294626
:102E0000684607F021FF70B10098B04208D0204614
:102E100003F004FB01900099816701A803F06AFBAD
:102E2000204612F023F906F045FFFEBD00B589B03B
:102E300024216846FDF78EFA1920019003480068A6
:102E4000806841686846884709B000BDA00300203B
:102E500010B500F019F8BDE8104000F011B80000FE
:102E600010B5FDF7D7F90446102104480AF0FBFD20
:102E70002046BDE81040FDF7D1B90000DCCC0020B1
:102E8000FFF7EEBFFEE7000002490020086000F0F7
:102E900009B80000D0000020014908607047000018
:102EA000D000002010B5FFF76FFA08490A6842F019
:102EB00080720A60064900224A600A6842F00102F4
:102EC0000A60BDE81040FFF7E7BF0000FCED00E03E
:102ED000001000E00148406870470000001000E06A
:102EE000022022F0E5BD000070B50B4D00242C60DF
:102EF0000A48016821F0C0010160016841F0400109
:102F0000016007480460FFF7EBFF01202860FFF72E
:102F1000E7FF2C6070BD0000988243420020024011
:102F20008C02444210B582B0012180200EF01EF8C0
:102F3000012108020EF01AF84020009001248DF8BB
:102F4000044000208DF806008DF8074002208DF81F
:102F500005006946074802F03DFD082000906946DB
:102F6000054802F037FD054804600548C0F898425E
:102F700002B010BD001C0240002002408C024442FE
:102F80000080434270B50B4E002434600A4801684B
:102F900021F0C0010160016841F040010160074873
:102FA00001250560FFF79CFF3560FFF799FF34604E
:102FB00070BD000098824342002002408C024442CF
:102FC0002DE9F047824600241748016821F0C0012E
:102FD0000160016801601E2022F06AFD0025134F88
:102FE000DFF84C9000264FF00108C7F89862FFF711
:102FF00077FFC7F898826006040ED9F80C0208B172
:10300000601CC4B2FFF76CFF681CC5B2082DECD37E
:10301000BAF1000F04D0FFF767FF2046BDE8F08744
:10302000FFF7B0FFF9E700000020024000804342B4
:10303000000044422DE9F04705461348016821F09D
:10304000C0010160016841F0400101600F4E4FF086
:103050000008C6F898820024DFF834900127E809B8
:10306000C9F88C026806050EFFF73AFFC6F8987299
:10307000FFF736FFC6F89882FFF732FF601CC4B234
:10308000082CECD3BDE8F0870020024000804342CA
:103090000000444270B50B48016821F0C001016096
:1030A000016841F040010160074D01202860074E92
:1030B00030601E2022F0FCFC00242C60FFF710FF83
:1030C000346070BD002002408C024442988243422A
:1030D00070B50B48016821F0C0010160016841F042
:1030E00040010160074D00202860074E30601E201F
:1030F00022F0DEFC01242C60FFF7F2FE346070BD8C
:1031000000200240988243428C02444270B5002461
:103110001248016821F0C001016001680160104D92
:103120000120C5F88C020F4EC6F89802FFF7D8FEB2
:10313000D5F80C0268B1601CC4B2FA2C03D9FFF7B1
:10314000C7FF012070BDFFF7CBFED5F80C020028A9
:10315000F1D10020C6F8980270BD000000200240A6
:10316000000044420080434210B58CB0446803A97B
:1031700000200EF0E7F802A900200EF0BFF89DF83D
:103180000E0000909DF80D309DF80C2010A104A8B1
:103190001FF032FF40F60F01204611F03DFB04A95D
:1031A00010F02FFB9DF80A0000909DF809309DF863
:1031B0000B200AA104A81FF01FFF4FF40161204655
:1031C00011F02AFB04A910F01CFB0CB010BD00008C
:1031D00025643A25643A25640000000032302564F5
:1031E0002F25642F2564000070B500254FF480342E
:1031F00000E0641E24B180200EF080FE0028F8D08C
:103200002CB140F2FF500EF035FE284670BD032071
:1032100070BD000070B5054600244749086810F0ED
:10322000450F03D1086810F0450FFBD010F0040FD4
:1032300005D0032404200EF01DFE204670BD10F0C2
:10324000010F05D0012401200EF014FE204670BDB0
:103250000EF04EFEA84201D0102070BD40F2FF508B
:103260000EF008FE00200EF065FE3449084201D140
:10327000204670BD10F0004F01D01C2070BD10F032
:10328000804F01D0092070BD10F0005F01D00A20EE
:1032900070BD10F0805F01D00B2070BD10F0006F8A
:1032A00001D00C2070BD10F0806F01D00D2070BDDA
:1032B00010F0807F01D00E2070BD10F4000F01D0FF
:1032C0000F2070BD10F4800F01D0102070BD10F4DD
:1032D000001F01D0112070BD10F4801F01D01220FA
:1032E00070BD10F4002F01D0132070BD10F4802F9A
:1032F00001D0142070BD10F4003F01D0152070BD26
:1033000010F4803F01D0162070BD10F4004F01D0A2
:10331000172070BD10F4804F01D0182070BD10F43C
:10332000005F01D0192070BD10F0080F01D01A20E5
:1033300070BD204670BD0000342C014008E0FFFD48
:1033400010B50024104A116811F0450F03D111681F
:1033500011F0450FFBD011F0040F05D00324042019
:103360000EF088FD204610BD11F0010F05D001249C
:1033700001200EF07FFD204610BD40F2FF500EF000
:1033800079FD204610BD0000342C014010B500240A
:103390000B4A116811F0450F03D1116811F0450F68
:1033A000FBD011F0040F05D0032404200EF062FDC1
:1033B000204610BD40F2FF500EF05CFD204610BDCF
:1033C000342C014070B506460C4600251F4A106893
:1033D00010F0450F03D1106810F0450FFBD010F02E
:1033E000040F05D0032404200EF044FD204670BDD8
:1033F00010F0010F05D0012401200EF03BFD204606
:1034000070BD0EF075FDB04201D0102070BD40F2CD
:10341000FF500EF02FFD00200EF08CFD10F4604FD9
:1034200004D010F4005F05D0132070BD000C208084
:10343000284670BD10F4804F01D0102070BD10F4EC
:10344000004F01D00F2070BD284670BD342C0140C4
:1034500010B500204FF480310E4B1A6801E0491E70
:103460001A6812F0450F01D10029F8D111B112F0FC
:10347000040F05D0032404200EF0FCFC204610BDF0
:1034800012F0400FFBD0002440200EF0F3FC204649
:1034900010BD0000342C014010B582B011F0A6F927
:1034A000002403460094054A0D210548019403F0C9
:1034B000F3F904490C7002B010BD0000914A0208F3
:1034C000C85D0508B300002000B583B011F08EF987
:1034D0000021009103460191034A0421034803F0AF
:1034E000DBF903B000BD00009D520208345F0508FF
:1034F00070B500241448016821F00C0101600168D6
:103500000160124D04E0601CC4B2012022F0D0FA28
:10351000D5F8040208B1642CF5D3642C01D3012042
:1035200070BD002404E0601CC4B2012022F0C0FA87
:10353000D5F8040208B9642CF5D3642C01D301201A
:1035400070BD002070BD0000000802400000414234
:1035500070B50024104D04E0601CC4B2012022F0BC
:10356000A7FAD5F8040208B1642CF5D3002404E0CE
:10357000601CC4B2012022F09BFAD5F8040208B9FD
:10358000642CF5D31E2022F093FAD5F8040208B17A
:10359000012070BD002070BD0000414270B50020C8
:1035A00000244006050EFFF7D3FF2843611CCCB270
:1035B000082CF6D370BDF0B583B006460F4600F078
:1035C0002DF8FFF795FF10B103B00120F0BD0024E6
:1035D00001ADFFF7E3FF2855601CC4B2052CF8D3FA
:1035E0009DF804009DF805109DF8072008449DF8FB
:1035F0000610114408449DF8081088420BD101A818
:1036000010F0B4FA22F064FB3880A81C10F0AEFA77
:1036100022F05EFB308003B00020F0BD10B50B48F7
:10362000016821F00C010160016841F004010160B2
:10363000074C00202060142022F034FA0120206082
:10364000BDE810401E2022F033BA000000080240FE
:103650008402414200B583B0012104200DF086FCB4
:103660000220009001218DF8041000228DF8062020
:103670008DF807108DF805006946044802F0AAF994
:10368000FFF7CCFFFFF734FF03B000BD0008024096
:10369000014902208860704700B002400FF050BB23
:1036A000074A904201D2074800E00748074A11F054
:1036B000005F01EA020101D0C1607047816070477C
:1036C0001064024000600240006402407D0F7D0FE4
:1036D000002904D0016841F00101016070470168D0
:1036E00021F00101016070472DE9F003016821F02C
:1036F000010101600021016041608160C1600161E0
:1037000021214161444A45494FF03D08904204D18E
:10371000C1F80880BDE8F0037047414A4FF4746473
:10372000904203D18C60BDE8F00370473D4A4FF4EE
:103730007415904203D18D60BDE8F00370473A4A9A
:103740004FF07466904203D18E60BDE8F00370477D
:10375000364B374A984203D1CA60BDE8F003704740
:10376000DFF8D0C0344B604503D1CB60BDE8F00337
:103770007047324FDFF8C8C0B84204D1C1F80CC05E
:10378000BDE8F0037047DFF8BC904FF03D57484567
:1037900003D1CF60BDE8F0037047DFF8AC902B4950
:1037A000484504D1C1F80080BDE8F0037047DFF858
:1037B000A080404503D10C60BDE8F0037047254C64
:1037C000A04203D10D60BDE8F0037047224CA04237
:1037D00003D10E60BDE8F0037047204C2049A042A1
:1037E00003D10A60BDE8F00370471E4A904203D13E
:1037F0000B60BDE8F00370471B4A904204D1C1F84A
:1038000000C0BDE8F0037047184A9042F9D10F603C
:10381000BDE8F00370470000106002400060024005
:1038200028600240406002405860024070600240E0
:103830003D00002088600240400F0020A060024050
:1038400000003D20B860024010640240086402405D
:1038500028640240406402405864024070640240A0
:103860000C64024088640240A0640240B8640240D4
:10387000002904D0016841F020010160704701680F
:1038800021F020010160704711F0800F09D022B1B2
:10389000436943F08003436103E0436923F08003FD
:1038A0004361802905D001F01E011AB1026811435D
:1038B00001607047026822EA010101607047000060
:1038C00010B402681C4B1A40D1F80CC00B688C690C
:1038D00043EA0C03D1F814C04CEA040C43EA0C038D
:1038E000D1F81CC043EA0C03D1F820C043EA0C0312
:1038F000D1F824C043EA0C03D1F828C043EA0C03F2
:10390000D1F834C043EA0C03D1F838C043EA0C03C1
:103910001A430260426922F00702D1F830C0CB6A34
:1039200043EA0C031A4342610A6942604A688260B2
:103930008968C16010BC70473F801CF02DE9FC41D4
:103940000C46050038D004F011FC112C14D0132CB7
:1039500028460ED002F062FD009000F0FCFB064607
:10396000684602F0C7FD20461EF01DFD07460024F4
:103970001CE000F006FB1BE0284600F087F917E08A
:103980002146284600F0EAFB019070B100781EF055
:103990000AFD00F0FF0801A802F0ACFDB84504D113
:1039A0002146284600F08EFB02E0641CB442E7DBAF
:1039B000BDE8FC4106F07EB9BDE8FC81F8B50C46D7
:1039C000050018D0002C16D004F0D0FB284602F0D9
:1039D00025FD0090C66B684602F08CFD2046FCF782
:1039E000C4FC421C2146304602F0A6FD284611F0D8
:1039F0003DFB06F05FF9F8BD2DE9FF41456804463F
:103A0000284602F00BFD0190D0F8886001A802F072
:103A100071FD0EB1012700E000272146284610F075
:103A2000DCF9002856D02068112844D006DC0B2889
:103A300063D00E2878D00F282BD14FE0212805D055
:103A400026281AD0B0F5107F23D139E0E06841680C
:103A500000291EDD00680D281BD1304609F005F94C
:103A6000002806DB304609F000F90146284600F040
:103A700029FB284600F07EF875E0E068012809D0AF
:103A80000A2802D00B2871D111E00A21284611F032
:103A9000D1FB6BE0304609F0E8F8002866DB3046E1
:103AA00009F0E3F80146284600F00CFB5BE02846ED
:103AB00000F060F85AE0FFB9E068007A98BB55E082
:103AC000E06848B1007A08B1012100E002212846EF
:103AD00011F0B0FBBDE8FF810321F8E72E46284630
:103AE00002F09CFC0290D0F88400056802A802F065
:103AF00001FD0DB13046A84738E0284602F08EFCA3
:103B00000090C06B02F058FD0098D0F8880010F0CB
:103B100061FD0098D0F8940002F0B2FB684602F014
:103B2000E9FC23E000E016E0E068416800291DDDC3
:103B3000016820290FD006DC092910D00A2915D0E8
:103B40001B2904D112E0212910D022290ED02846A9
:103B5000FFF7F4FEBEE7284600F0FAF806E010F0A2
:103B6000A1FEB04202D1284611F02AFD204610F0F5
:103B7000F9FCAFE738B5040016D004F0F7FA204698
:103B800002F04CFC0090D0F8880040B110F022FD0B
:103B900000990020C1F88800204611F067FA6846B5
:103BA00002F0A8FC06F086F838BDF0B585B0B0F993
:103BB0000850468A84690296CDE903540027CDE96E
:103BC0000017B0F90C10B0F91050B0F90E40B0F970
:103BD0000A00194410442B46224600F003F805B0B1
:103BE000F0BD00002DE9FF5F1D46DDE90F8691461F
:103BF0008A4683460E9F129C04F0B8FA21496C3421
:103C0000CDE90214CDE900784FF0FF334A46514622
:103C1000584610F0EFFB04002DD002F0FFFB1022FD
:103C20000090119910F04CFA00983822164980F84B
:103C30008C604C30FCF766FB134E0098361F3168E1
:103C4000C0F88410002180F89010C586204600F04E
:103C500061FA684602F04EFC02F0ABFC05462046D5
:103C600002F0DCFB0090C563684602F043FC30685C
:103C700041682046884706F01DF804B02046BDE89C
:103C8000F09F0000F9390008E403002010B5044655
:103C900000F063F9010000D0411E2046BDE810404D
:103CA00000F010BAF8B50546006802F0B7FB0090C6
:103CB000448ED0F88860684602F01CFC06B10126EC
:103CC00004F00104286812F0F1F80EB1002006E0BB
:103CD0000CB1012003E008B1022000E003201B49E1
:103CE00051F82010686858B302280CD0052802D07B
:103CF000122828D103E0284615F068FA23E0284668
:103D000018F016F81FE06A69E8694FF0FF33801A6F
:103D1000A0F1080203EB6204421CAB69001B4510D2
:103D2000A3EB6206C86905F0D6F806E03219311B2C
:103D3000284603F0C3F9641E6D1C002CF6DA02E07D
:103D4000286811F0E9FC0020F8BD00009CC90708B4
:103D50002DE9F14F9EB01E9800287DD004F006FAA0
:103D60001E9802F05BFB0B901E9810F0A6FE0390CD
:103D70000B98B0F9367090F890101891C16B0A91B9
:103D800090F88C90B0F93410159100F0E4F9824667
:103D90000B9804ACB0F88E101491B0F98210139106
:103DA000C16C1291D0E90012CDE90C12D0F894B098
:103DB000002100BF00EB8102126D44F82120491C54
:103DC0000329F7D3002107AD00EB8102D26D45F83E
:103DD0002120491C0329F7D300210EAE00EB8102FC
:103DE000126F46F82120491C0329F7D30BA802F0D3
:103DF00081FB1E9810F0F3FD02F010FB1190D0F83B
:103E0000008011A802F076FB4FEA284042420FFAE8
:103E100088F041420CA804F00BFF5FEA897003D5DB
:103E2000BDF83200C01B01E0BDF83600ADF832002D
:103E30001E9810F0D4FD014603980222CDE9000738
:103E40000292BDF93230BDF93020002008F09DFE0D
:103E500080465FEAC97000E07CE007D040461899D0
:103E600009F051F90121404609F072F8002708E0F5
:103E700039460A9802F0D4FB0146404608F040FD5E
:103E80007F1C5745F4D30027394654F82720404675
:103E900009F088F87F1C032FF6D30024214655F83B
:103EA0002420404609F0C8F9641C032CF6D30024F2
:103EB000214656F82420404609F005F9641C032CDD
:103EC000F6D3BBF100001FD002F0A8FA169030F82C
:103ED000025B00240646012711E000BF06EBD40078
:103EE00004F00701007807FA01F1084201D001222D
:103EF00000E000222146404609F086F8641CAC42EE
:103F0000ECDB16A802F0F6FA4046149909F0AFF877
:103F10004046129909F05FF84046139909F077F985
:103F2000404611F04DFB40461E9909F0B7F8404657
:103F3000159909F005F901211E9811F07BF91E98D9
:103F400002F06CFA0B90C0F888800BA802F0D2FA4D
:103F500005F0B0FE1FB0BDE8F08F38B505004FF09A
:103F600000040CD004F002F9284602F057FA009041
:103F7000B0F93440684602F0BDFA05F09BFE2046D9
:103F800038BD10B50446FFF7E8FF411C2046BDE8E8
:103F9000104000F097B8F8B50E46040021D004F0A8
:103FA000E5F8204602F03AFA009090F88C10D0F82C
:103FB000885021F001040EB144F00104A1420BD05D
:103FC00080F88C40684602F095FA45B104F0010192
:103FD000284608F0BDFF02E0684602F08BFA05F0C3
:103FE00069FEF8BDF8B50C46060028D004F0BEF80E
:103FF000304602F013FA0090D0F88850C06C03F0FD
:104000007BFD07460098C464684602F073FA3046A8
:1040100000F080F8304611F029F875B1204603F021
:104020006BFDB84205D03046FFF7A4FD3046FFF7E0
:104030008FFE2146284608F0CEFF05F03BFEF8BD76
:10404000F8B50C4605004FF0000618D004F08EF8C5
:10405000284602F0E3F90090B0F93660D0F88850B5
:10406000C486684602F046FA3DB1284610F025FDA8
:1040700001462246284611F0A4FB05F01BFE3046FF
:10408000F8BD38B50C4605001BD004F06FF8284683
:1040900002F0C4F9009090F89010D0F888508C424B
:1040A0000AD080F89040684602F024FA3DB12146DB
:1040B000284609F028F802E0684602F01BFA05F0ED
:1040C000F9FD38BD38B50C46050022D004F04EF895
:1040D000284602F0A3F9009000F03DF800B1401E20
:1040E000844200DD04460098B0F93410A1420BD0A0
:1040F0008486684602F0FEF9284610F0B7FF0421D6
:10410000284611F097F802E0684602F0F3F905F04E
:10411000D1FD38BDF8B5044602F080F901460090A3
:10412000B0F9380010B9C86C03F0E6FC0099CA6A0F
:10413000B1F98030126800EB43001618084611F000
:1041400033FD0546684602F0D5F932462946204639
:1041500011F037FBF8BDC06B02F056BA38B50D460A
:10416000002402F05BF90090C06B294602F058FA77
:104170000546684602F0BEF91DB1284602F04EF928
:104180000446204638BD704770B586B00121084608
:104190000CF0ECFE012110200CF020FF1E4E072237
:1041A0000A21304601F061FC07220921304601F066
:1041B0005CFC00248DF8164001218DF817100225B3
:1041C0008DF81450490204918DF8155004A9304619
:1041D00001F000FC8DF814506802049004A93046E8
:1041E00001F0F8FB4FF4E1300090ADF80440ADF879
:1041F0000640ADF80840ADF80C400C20ADF80A00C0
:10420000064C694620460FF033FD012120460FF091
:10421000DBFC06B070BD0000000002400010014051
:104220000FB438B505A80090049C2078002808D069
:104230002078252808D0641C25F0A6FB20780028CB
:10424000F6D138BC5DF814FB14F8010F64281ED0B9
:104250000CDC58283AD004DC25283ED042283FD137
:104260002DE062282BD063283AD108E0662815D0CB
:1042700069280CD073281BD0782831D126E000980B
:1042800010F8041B0090C8B225F07EFB28E00099CE
:1042900051F8040B009125F07DFB21E00098C01D32
:1042A00020F00700B0EC020B009025F095FB17E022
:1042B000009951F8040B009125F0E0FB10E0009903
:1042C00051F8040B009125F045FB09E0009951F8E5
:1042D000040B009125F0B0FB02E0252025F054FBF3
:1042E000641CABE700234FF0204210280BD0B0F540
:1042F000807F0AD0B0F5805F0AD0D2F8580131EA49
:10430000000009D107E0506EF9E7D2F88400F6E723
:10431000D2F8A400F3E70123184670474268016809
:1043200011438268C068521E520142EA402008438D
:104330000149086070470000500100A030B40368D4
:104340009900A1F1C041D1F840116FF30E01D0F8EE
:1043500008C04268046942EA0C02D0F80CC04CEA7A
:10436000040C42EA0C02D0F814C042EA0C02D0F865
:1043700018C042EA0C0CC2694CEA0204D0F820C012
:1043800044EA0C05446A254329434FF02045002B9D
:1043900048D0D5F840316FF30E0342EA0C022343B4
:1043A0001A43C5F8402102689200A2F1C042C2F847
:1043B00040110168A9B38900A1F1C041D1F84811A9
:1043C00001F07042816A0B68D1F804C05B1EACF149
:1043D000010C43EA0C13D1F808C0ACF1010C43EA1C
:1043E0000C23B1F810C0ACF1010C43EA0C431A43A2
:1043F000D5F8483103F07043D1F80CC0898AACF18C
:10440000010C4FEA0C3C491E4CEA01511943C5F816
:10441000481100688000A0F1C040C0F8482130BCBD
:10442000704702E0C5F84011C3E7D5F8481101F024
:104430007041806A02684368521E5B1E42EA0312A2
:1044400083685B1E42EA0322C3685B1E42EA0332B2
:10445000038A5B1E42EA0342838A007E5B1E42EAB5
:104460000352401E42EA00600843C5F8480130BCD0
:104470007047000002490A6842EA4000086070473D
:10448000540100A02DE9F04389B0984615460F4627
:1044900006004FF000042CD000F0A8FB0446304684
:1044A00000F08BFB814603F061FE03A9304600F06B
:1044B00092FCF80706D0BDF91C008221001B401BAE
:1044C000401C08E0B807BDF91800284402D540F2A6
:1044D000022100E002210096CDE9018123461A461F
:1044E0004946FEF7FFF8044600210FF02FFD05F0C6
:1044F000E1FB09B02046BDE8F083000010B50523BC
:10450000FFF7C0FF0446054A0021FEF780FA044980
:10451000204610F0C0FF204610BD00001190010899
:104520007D4A02082DE9F047044640688EB0002716
:10453000804601F073FF0090B0F87CA0D0F868903E
:10454000D0F88060D0F88850C06D00B10768684628
:1045500001F0D0FF05E0696820468847002843D174
:104560002D68002DF7D12068172853D00CDC0F28B8
:104570003DD004DC0B2877D00D2825D18BE0112805
:1045800010D0142820D13BE0262846D004DC1E2879
:1045900051D0202818D18AE02A2816D0B0F5107FF3
:1045A00012D128E04046E56801F038FF0290697AB0
:1045B00039B9297A012904D130F87C1F41F480717E
:1045C000018002A801F096FF75E0404601F026FF49
:1045D0000090E16811B1C0F8841002E0D0F88400C6
:1045E000E060684601F086FF0EB0BDE8F087D7B303
:1045F0004046B8475FE0214640461BF0BDFEF3E76A
:1046000005A9404600F0E7FBE068069901600799BC
:104610004160E9E7C4F80C90E6E7E0680228E3D1DE
:10462000CDF83080E0680D9027200A900AA9A06894
:1046300011F036FED8E7E068012804D0002140469A
:1046400000F0F1FAD0E7304610F079FD68B130465D
:1046500010F0B6FF304610F035FC98B1012130461D
:104660000FF050FC0EE026E02FE0484610F0FCFF73
:104670000646404601F0D2FE0090C0F880606846D1
:1046800001F038FF0121404600F0CDFA002EABD1F9
:104690000020E060A8E75FEA0A700CD4E068C06818
:1046A00048B1007A38B1404610F08AFF03E0214655
:1046B00040461BF07FFB214640460FF08EFB002852
:1046C00092D020460FF04EFF8EE7404601F0A6FE46
:1046D0000090703001F0F8FD684673E7F0B587B0E0
:1046E000B0F908400DF10C0C0C9E876945688CE808
:1046F000F000448A0025CDE900150294B0F90C10B1
:10470000B0F91050B0F90E40B0F90A001944104445
:104710002B46224600F002F807B0F0BD2DE9F04F1D
:104720008BB09846DDE9155691468A468346149F1C
:104730001A9C03F01BFD3348603445F48055CDE9E5
:104740000204CDE9007543464A46514658460FF0EB
:1047500051FE04004FD001F061FE30220490179901
:104760000FF0AEFC0498282227493430FBF7CAFD2D
:1047700004981999244F4166A0F87C600026C0F87F
:104780008060C666083FC0F888607968C16504A883
:1047900001F0B0FE05A9204600F01DFB1B4841F2C8
:1047A000827103960094CDE90110BDF91E00BDF998
:1047B0001A10BDF91C20431ABDF918005B1C121A0F
:1047C000521C0FF017FE064678684168204688475D
:1047D000204601F023FE0490866604A801F08AFEBC
:1047E00042F20400054202D120460FF06BFF204642
:1047F000189900F076FA05F05DFA0BB02046BDE896
:10480000F08F00002545000824040020DD5000083A
:104810002DE9F041044694B0006800F0B7F908B102
:10482000D94D01E0D84D2C35606815281ED00CDC20
:104830000B281FD004DC00287ED005287DD12FE175
:104840000E287BD01228F9D141E1162806D017286E
:1048500008D0182808D01C28F0D109E0E86914B065
:10486000BDE8F081286AFAE7686AF8E7A86AF6E71F
:104870006869F4E720680B901C200C90206801F018
:10488000CDFD0390016D0BA88847064603A801F0F3
:1048900031FE022E0FDB95E807008DE80700D4E912
:1048A00004023346A16905F043FE20698719A06917
:1048B000A0EB06082CE0286804F00DFB2169E869EC
:1048C0000A18521E606902F0F9FBA269E869111A20
:1048D000491C606902F0F2FBD4E904077F1C3946E9
:1048E00002F03CFC3946A06902F038FC686804F02C
:1048F000F2FA20693946401C02F030FCA0693946C2
:10490000401E02F02BFCA0692769A0F10208BF1C21
:10491000286804F0E0FA42463946606902F0CEFBAE
:10492000686804F0D8FA606942463946401C02F0D3
:10493000C5FB686A022802E015E1B0E000E10BDD8A
:10494000A86804F0C8FA61696A6A881C8B18014675
:10495000424638465B1E27E0296AB14226DD60697F
:10496000022E074600F1020801DB374401E007F19F
:104970000207206901DB304401E000F102002269F6
:104980003B460A444146A2F1010202F0C1FC022E5C
:1049900002DBA069821B01E0A269921EA069E9699D
:1049A0003B46401A4146401C02F0B2FC022E02DB9C
:1049B0006069064401E06669B61CE76928687F1EE5
:1049C00004F089FA3A463146206902F02DFC3A4655
:1049D0003146A06902F028FCE7696868BF1E04F050
:1049E0007AFA20693A463146401C02F01DFCA06963
:1049F0003A463146401E02F017FCE869022802DC04
:104A0000286A022823DDA86A022802DDE1690F1A5C
:104A100001E0E769BF1EA86804F05DFAE9690229B0
:104A200009DD20693B46421800F1020C3146604620
:104A3000521E02F06DFC286A022808DDA269E869AE
:104A40003B46101A3146401C921E02F061FC286859
:104A500004F041FAD4E90620216902F02FFB6868CE
:104A600004F039FAD4E906202169401E491C521E7F
:104A700002F024FBA86A022811DDA1692669E46915
:104A8000A1F10208271AA41EB61C7F1CA86804F016
:104A900022FA234642463946304602F039FC71E09C
:104AA000208A00B2ADF81400A18A09B2ADF8161040
:104AB000228B12B2ADF81820A38B1BB2ADF81A30BE
:104AC0002C69ED68CDE9005402F0BCFA5AE0208A66
:104AD000298B0844ADF81400A08AADF81600208B8D
:104AE000298B401AADF81800A08BADF81A00206889
:104AF00001F094FC0390006FF0B1022004F0A2FAE0
:104B0000039890F87C10C1F3C00100EB8100006CA9
:104B100004F0E1F90398406B04F012FA0398006F77
:104B200001F07CFC03990990B1F95A2005A902F023
:104B30000FF909A801F0DEFC03A801F0DBFC21E07D
:104B4000208AADF81400A08AADF81600208BADF8CD
:104B50001800A08BADF81A00A86804F0BCF905A8ED
:104B600002F002FC0EE0206801F058FC039030F8DF
:104B70005A1F41F00C01018003A801F0BBFC206822
:104B800010F0CAFD00206AE6D007002038B5050005
:104B90004FF000040FD003F0E9FA284601F03EFC84
:104BA000009090F87C00000700D50124684601F0D1
:104BB000A1FC05F07FF8204638BD38B505004FF060
:104BC000000411D003F0D2FA284601F027FC00902F
:104BD000C06D0021806802682846904704466846F8
:104BE00001F088FC05F066F8204638BD30B587B086
:104BF00005004FF0000413D003F0B8FA01A92846CD
:104C000000F0E9F8284601F009FC0090B0F95440A2
:104C1000684601F06FFC0CB9BDF9044005F04AF894
:104C200007B0204630BD70B50D46040009D003F032
:104C30009DFA294620461CF01BFCBDE8704005F09B
:104C400039B870BD2DE9FC410D46804603F08EFA5F
:104C5000B8F1000028D001F0E1FB0190C16D8C6833
:104C600000F020F907460198456301A801F042FCD5
:104C700022680121404690470646226803214046AB
:104C8000904705462268002140469047044640462A
:104C900000F0EDF92B46324639464046009400F0CC
:104CA00076F9404610F0E2F905F004F8BDE8FC8121
:104CB00038B50C46050013D003F058FA284601F029
:104CC000ADFB009030F87C1F14B141F0100101E001
:104CD00021F010010180684601F00CFC04F0EAFFAD
:104CE00038BD7CB50D4604001DD003F03FFA2046C8
:104CF00001F094FB0090006F0190684601F0FAFB10
:104D0000294601A805F0A0FF58B1204601F086FB16
:104D1000009001990167684601F0ECFB204610F015
:104D2000A5F904F0C7FF7CBD38B50C46050013D0CB
:104D300003F01CFA284601F071FB0090B0F95A10FC
:104D4000A14204D0A0F85A40284610F08FF96846D6
:104D500001F0D0FB04F0AEFF38BD2DE9FC470D4655
:104D60005FEA00094FF0000432D003F0FFF9484633
:104D700001F054FB0190B0F95440A54223D000F05B
:104D800091F8804601980121A0F85450C06D8568C3
:104D900048462A68904707462A68032148469047B4
:104DA00006462A680021484690470546484600F0D6
:104DB0005EF933463A4641464846009500F0E7F82A
:104DC000484610F053F901A801F094FB04F072FF7B
:104DD0002046BDE8FC872DE9F34F85B000270C463F
:104DE000B846059801F01AFB0090C06D0121856856
:104DF00005982A68904782462A68032105989047BB
:104E000004902A6802210598904703902A6800219F
:104E1000059890470646009810F0C6FE8346009815
:104E200010F0C9FE8146009890F83210890601D52D
:104E3000B0F9588000F036F805460098C06E10B101
:104E40000FF052FE074625806780A4F804A0049A5C
:104E5000ABEB020006EB0802401E2A4420813A44D4
:104E6000E280039BA9EB0302521E6281A4F80CA00E
:104E700020827019E681401E6082684601F03AFB8C
:104E8000B4F90C000190B4F91000029002AA01A933
:104E9000059800F039F80198A0810298208207B0A7
:104EA000BDE8F08F10B50146002091F8322092063F
:104EB00007D5B1F95400002803D1486B02F01EFE5B
:104EC000801C10BD70B58AB00C46054601F0A6FAEC
:104ED0000990C06D866809A801F00CFB009534B1FB
:104EE000012C06D0022C0BD0032C04D10AE0182090
:104EF00000E0162001907168684688470AB070BDCE
:104F00001520F7E71720F5E72DE9FC4117468846FD
:104F1000044601F083FA0090C16D056868468E680A
:104F200001F0E8FA32680021204690470646204604
:104F30000FF09AFC27E000BF01F070FA0190B0F981
:104F400000102AB2B0F90430891A9A1AB0F9023066
:104F5000A3EB2543B34210D190F82800000605D5F5
:104F60003868884209DB491E396006E0D8F800003D
:104F7000904202DC521CC8F8002001A801F0BAFAE5
:104F800020460FF01FFD0400D6D1BDE8FC812DE9BD
:104F9000FF4F83B00E460746DDF8409001F03EFA21
:104FA0000190C16D8D68FFF77DFF044601A801F0F7
:104FB000A1FA2A6801213846904783462A680321CE
:104FC0003846904782462A68002138469047054671
:104FD000B44207D105998B4504D106998A4501D180
:104FE0004D4541D0A41B0026B04638460FF03CFC8E
:104FF00038E001F013FA0090806A010601D58005BF
:1050000002E0810528D50006002825DB24B12246D0
:105010001146384610F04BF9009890F82800000629
:105020000AD50698A5EB0902A0EB0A0004FB1601BD
:105030003846761C10F0EFF80098008D80050BD5EF
:105040000599A5EB0902ABEB010004FB080108F18F
:105050000108384610F0DFF8684601F04BFA384690
:105060000FF0B0FC0700C4D107B0BDE8F08F70B5F9
:1050700086B0064601F0D2F90590D0E91A4505A898
:1050800001F038FA54EA050026D069463046FFF7A9
:10509000A2FEACB1BDF90620BDF90410204610F007
:1050A0008DF8BDF90A00BDF90610421ABDF90800D5
:1050B000BDF90410521C411A2046491C10F081FB16
:1050C000002D09D0BDF90600BDF90210421ABDF944
:1050D0000410284610F072F806B070BD2DE9F043B8
:1050E0000446406889B005460FF079FC814601F01E
:1050F00095F90290D0F84880D0F88070466E02A8EA
:1051000001F0F8F92068172853D008DC0E283AD0AF
:105110000F2811D014284CD015283DD149E01E2865
:105120001ED01F282AD0222840D0312834D1002078
:10513000E06009B0BDE8F0836FF0704140468845FB
:1051400003D006F0C5FF01F05BFB002EF1D0D4E9DF
:1051500002122068CDE90405CDE9061204A81FE07B
:10516000E0680028E5D02FB1AF4203D0384610F0F8
:1051700027FADEE7284610F077FADAE721464846B4
:105180000EF02BFED5E7E0684168002904DD0068D9
:105190000928EFD00A2805D05EB12046C4F8049053
:1051A000B047C6E7284610F093FAC2E7C4F80C806F
:1051B000BFE720460FF0D6F9BBE700002DE9F04726
:1051C00082B00E4600240025009501955D4F4FF0FA
:1051D0000809C7F80090102078604FF04008C7F821
:1051E0000880FD604FF4806AC7F810A038460CF0C4
:1051F000E1FE1020FEF70EF8002834D15248008955
:105200000004386037207860C7F80880FD60C7F870
:1052100010A038460CF0CEFE3720FDF7FBFF00282B
:1052200021D1411E07F114000160C0F80490302123
:1052300081600221C1600561012141610CF032FEF3
:105240003D6033207860C7F80880FD60C7F810A083
:1052500038460CF0AFFE3320FDF7DCFF8146B9F194
:10526000000F03D0484602B0BDE8F087374F3868DA
:1052700040F22A6810EA080F0ED16D464FF4001074
:105280000CF03CFE20B10CF08FFE45F82400641CAD
:10529000386810EA080FF1D008200CF02FFE30B16A
:1052A00008200CF0E7FD042002B0BDE8F0870220E2
:1052B0000CF024FE30B102200CF0DCFD022002B024
:1052C000BDE8F08720200CF019FE30B120200CF052
:1052D000D1FD062002B0BDE8F0874FF400700CF05D
:1052E0000DFE38B14FF400700CF0C4FD072002B081
:1052F000BDE8F08740F2FF500CF0BCFD009800992B
:10530000000601F47F4140EA0120009901F47F0189
:1053100040EA1120009940EA1160706001980199FB
:10532000000601F47F4140EA0120019901F47F0168
:1053300040EA1120019940EA1160306002B048460D
:10534000BDE8F087780A002024000020342C0140BA
:105350002DE9F0430446C56887B090468946002091
:1053600003F0E1FD064625B1287910B146F00200B0
:1053700001E026F0020003F0D6FD2069012558B1B6
:10538000D4E902128DE82600039563882288046818
:1053900041464846A0471EE0124F134B214638684D
:1053A0001B68427CE068984730B9E088012801D04A
:1053B000002001E03868806BA288E388A16800952E
:1053C000CDE90410CDE90232019563882288414677
:1053D000484606F0AFF807B03046BDE8F04303F0AA
:1053E000A2BD000054020020440200201CB500248D
:1053F000019401AC009400F0E7F81CBD2DE9FF4FCB
:1054000083B0814606988A46A0EB0A08109E0020C9
:105410000090A2EB09043568934654EA080018D0BE
:105420002046FBF7A6FC07464046FBF7A2FC874256
:105430000BDA2046444680464846D14682465846C6
:10544000DDF818B0069001200090002C07DD204602
:1054500006E007B04846BDE8F04F00F03BB96042B7
:10546000A0420AD04846D9466442C8F100088346A3
:105470004FF0FF37DDF818A000E001275148B8F1E0
:10548000000F11D004EBD4714FEA610B01DACBF1BC
:10549000000B4C480068807E88B3002F02DA306829
:1054A0002044306000257BE000990029016821D06C
:1054B000897E11B10027804615E007B05A4649465B
:1054C0005046BDE8F04F06F097B928466D1C1CF019
:1054D000CDF838B9D8F8000009EB0701406E4268F2
:1054E000504690477F1CA742EFDD6D1E356007B028
:1054F000BDE8F08F8A7E1AB10027804617E019E0D8
:10550000486E5A465146036807B04846BDE8F04F1A
:10551000184728466D1C1CF0A9F838B9D8F80010B7
:1055200009EB0700496E4A68514690477F1CA74225
:10553000EFDDDAE700250FE008FB05B090FBF4F1A2
:1055400001EB0A00009951B11E4A09EB05011268EE
:10555000526E526890476D1CA542EDDDC7E71949B0
:1055600009EB05030968496E4A6801461846F1E7E8
:1055700008FB05B090FBF4F101EB0A0001903068E4
:10558000384430601CF072F848B9009890B10D486A
:1055900009EB05010068406E4268019890476D1C58
:1055A000A542E5DD3068002F01DA20443060C01BE1
:1055B00030609CE7034909EB05000968496E4A68B9
:1055C0000199EBE7540200202DE9FF470F464049BF
:1055D0001646804609680C981D460A7E012A1CD092
:1055E000A8EB0600791B50EA01031CD0A2F10109C7
:1055F0001FF058F800F58060824605F01AFC00FBA9
:1056000009F4504605F01AFC00FB09F1002C0CDAF5
:10561000C4F50070801240420AE0009032463946DC
:105620004046FFF7EBFEBDE8FF8704F50074A012CB
:10563000002904DAC1F5007189124C4202E001F53B
:1056400000718C12002804DD411C01EBD17149105E
:1056500003E000EBD0714910401E00EBD070421007
:10566000002C04DD601C00EBD070401003E004EB64
:10567000D4704010641E04EBD47308EB0104ADF841
:1056800000403C18ADF80240A8EB02045B10B21ACF
:10569000ADF80440ADF808203144FC1AEA1AADF820
:1056A0000C102844ADF80A20ADF80E000023ADF828
:1056B00006401A460421684600F07AF8394640460A
:1056C00016F0C2F92946304616F0BEF9ABE70000E5
:1056D00054020020064A13681A7E012A05D0521E81
:1056E00002EBD272521000F005B85A6E52681047A1
:1056F000540200202DE9F05F0646884640F2C320A0
:1057000002FB00F14FF47A7091FBF0F702FB02F11B
:1057100002EBD27001EB600B1446B118234A301B28
:105720007F1C1268526E13680A464146984701254D
:1057300038E000BF05FB05F004FB040159451CDD02
:10574000BC4219DD194B06EB050AA6EB05091B68DF
:10575000AAF1010208EB04015B6E09F101001B686C
:105760009847124BAAF10102A8EB04011B6809F14A
:1057700001005B6E1B689847641E0C4B3219301B8E
:105780001B68924608EB05015B6E81461B689847D3
:10579000064B5246A8EB05011B6848465B6E1B682A
:1057A00098476D1CBD42C5DDBDE8F09F5402002046
:1057B0002DE9FF4F43F6FF740F46664283B09B46C8
:1057C000814600210BE000BF09EB8100B0F9020027
:1057D000A04200DA0446B04200DD0646491CB94248
:1057E000F2DB67480068406900280DD0B0F9061068
:1057F0001A46A1EB0B01B14200DA0E46B0F90200E5
:10580000801AA04200DD0446B4E0DFF878A1002051
:105810000546CAF8000088E0781E854201DA6B1C54
:1058200000E0002309EB850C09EB8302BCF90200C0
:10583000B2F90210A04244D1A14215D139F9233066
:10584000059A39F9251003EB020C4D4A05981268A8
:10585000084404EB0B01526E6045136801DA62469E
:105860002AE00246604627E02846A4464FF000089A
:105870007A1E0BE008B1401E00E0781E09EB8003A1
:10588000B3F90230634504D108F101089045F1DB1A
:105890002346A34248D01A1B39F92500A1EB040C7A
:1058A000059B92EA0C0F09D4354A184404EB0B010E
:1058B0001268526E13680246984735E010F0E6FD14
:1058C00032E0A14230D001DBA04203DDA0422BDB5D
:1058D000A14229DCE04688420ADC0346A04223DCE0
:1058E0000846A14220DBB8F900C0B2F9001008E078
:1058F0000B46A14218DCA04216DBB2F900C0B8F991
:105900000010E21AA1EB0C0151430029A0EB0302A5
:1059100002DD01EB620102E0A1EB6201491CC01A49
:1059200091FBF0F06044C9E76D1CBD42FFF674AF17
:105930000598009004EB0B0001900020804605467E
:1059400013E01149B8F1000F31F915A009D0009901
:1059500001EB0A0208440A490968496E0B6801997B
:10596000984788F0010850466D1C064909688D4229
:10597000E7DB641CB4427FF748AF07B0BDE8F08FA7
:105980005402002074050020440601200E4810B582
:10599000006803F095FA0D48006803F09CFA0120B6
:1059A00003F032FB002003F03DFB002003F04AFB34
:1059B000002003F0B8FA0648006803F0C1FABDE819
:1059C0001040002003F0F2BA500200204C020020E8
:1059D000480200202DE9F00100220126032706FAE3
:1059E00002FC0B6803EA0C03634538D105685300D9
:1059F00007FA03F4A54305600D79D0F800809D40B7
:105A000045EA080505600D79012D01D0022D17D159
:105A10008568A54385604D79D0F808809D4045EAAA
:105A200008058560456825EA0C0CC0F804C0D0F86C
:105A300004C08D799540ADB24CEA050CC0F804C0A5
:105A4000D0F80CC02CEA040CC0F80CC091F807C0C8
:105A50000CFA03F3D0F80CC043EA0C03C360521CE9
:105A6000102ABCD3BDE8F00170474B07DB0E9A400B
:105A7000C90800EB8100016A4FF00F0C0CFA03F328
:105A800099430162016A1143016270474183704783
:105A9000018370472DE9F04385B0012180200BF090
:105AA00065FA012108020BF061FA4FF08008CDF889
:105AB000008000248DF8044001268DF8076002273D
:105AC0008DF80570DFF8C49069464846FFF782FFFD
:105AD000300200908DF804608DF8064069462C482D
