:020000040800F2
:1000000028980120C101000869F60008BBBC00085F
:1000100045F500088B2E0008FB6801080000000071
:10002000000000000000000000000000E55F010883
:1000300093450008000000004D0C0008B1140108B1
:10004000FB010008FB010008FB010008FB010008A0
:10005000FB010008FB010008FB010008FB01000890
:10006000FB010008FB010008FB010008FB01000880
:10007000FB010008FB010008FB010008FB01000870
:10008000FB010008FB010008FB010008FB01000860
:10009000FB010008FB010008FB010008FB01000850
:1000A000FB010008FB010008FB010008FB01000840
:1000B000FB010008FB010008FB010008FB01000830
:1000C000FB010008FB010008FB010008FB01000820
:1000D000FB010008FB010008FB010008FD660108A8
:1000E000FB010008FB010008FB010008FB01000800
:1000F000FB010008FB010008FB010008FB010008F0
:10010000FB0100084D480108FB010008FB01000845
:10011000FB010008FB010008FB010008FB010008CF
:10012000FB010008FB010008FB010008F53A00088C
:10013000FB010008FB010008FB010008FB010008AF
:10014000FB010008FB010008FB010008FB0100089F
:10015000FB010008FB010008FB010008FB0100088F
:10016000FB010008FB010008FB010008FB0100087F
:10017000FB010008FB010008FB010008FB0100086F
:10018000FB010008FB010008FB010008FB0100085F
:10019000FB010008FB010008FB010008FB0100084F
:1001A000E9ED0008FB010008E93A0008DFF80CD08F
:1001B00000F060FC00480047EDEA020828980120A2
:1001C000DFF83800016841F470010160BFF34F8F20
:1001D000DFF82C00016821F040410160BFF36F8F10
:1001E0000848804708480047FEE7FEE7FEE7FEE7CD
:1001F000FEE7FEE7FEE7FEE7FEE7FEE788ED00E04C
:1002000034EF00E009610108AD01000872B67047E3
:1002100062B67047EFF3108072B6704780F31088B3
:10022000704730BF704720BF7047B0FA80F070470A
:1002300090FAA0F0B0FA80F0704790FAA0F0704702
:100240002DE9F05F0546002092469B46884606460B
:10025000814640241BE0284641464746224600F09E
:1002600024FB53465A46C01A914110D311461846F2
:10027000224600F00BFB2D1A67EB01084F46224681
:100280000120002100F002FB17EB00094E41201E67
:10029000A4F10104DFDC484631462A464346BDE866
:1002A000F09F2DE9F0410024061B254671F1000660
:1002B00005DA01240027D0EB070067EB0101161EC9
:1002C00073F1000605DA0027D2EB0702012567EB80
:1002D0000303FFF7B5FF86460E4617469C46AC4221
:1002E00004D00025D0EB050E65EB010624B10020FB
:1002F000D2EB000760EB030C704631463A4663468A
:10030000BDE8F08110B5441A0346944209D284181E
:10031000114403E011F8013D04F8013D521EF9D2E9
:1003200010BD40EA0104A40703D009E010C9121F60
:1003300010C3042AFAD203E011F8014B03F8014B71
:10034000521EF9D210BDD2B201E000F8012B491EB5
:10035000FBD270470022F6E710B513460A46044662
:100360001946FFF7F0FF204610BD30B505462A4676
:100370000B4612F8010B13F8014B08B1A042F8D05C
:100380001CB1002802D06D1CF1E7284630BD421C8C
:1003900010F8011B0029FBD1801A704710B500220C
:1003A00000E0521C835C8C5CA34201D1002BF8D18D
:1003B000D8B2E1B2401A10BD30B504460020034661
:1003C00000E05B1C934203D2E05CCD5C401BF8D0A4
:1003D00030BD034611F8012B00F8012B002AF9D19A
:1003E000184670472DE9FE4F804681EA0300C00F92
:1003F0000C46009021F0004123F00045B8EB0200CC
:10040000A94105D24046214690461C460B4602466D
:1004100023F00040104347D0270DC7F30A00C3F371
:100420000A510290401A019040286BDAC3F313007E
:1004300040F4801B0098924620B10023D2EB030ABF
:1004400063EB0B0B01985946C0F14002504600F097
:100450001DFA06460D4650465946019A00F035FAF7
:1004600010EB08006141002487EA115284EAE77327
:100470001A4340D0009A62B3019A012A4FEA075208
:1004800015DC001B61EB02014FF0004202EA07524B
:10049000CDE90042001C41F5801132462B4600F0A8
:1004A0006CFA03B0BDE8F08F40462146F9E7001B27
:1004B00061EB0201001C41F5801300185B4120181C
:1004C000A2F5001747EB030140EAD570B6196D415C
:1004D00011E06D084FEA360645EAC0754FEA07524B
:1004E000001B61EB0201001C41F5801149084FEA35
:1004F00030000019514132462B4603B0BDE8F04FA1
:1005000000F02CBA0098012240000023D0EB020238
:1005100063EBE073009821464FEAE074B8EB00000B
:1005200061EB0401E9E783F000435BE781F0004100
:1005300058E72DE9FE4F81EA030404F0004421F05E
:10054000004100944FF0000B23F0004350EA0104F7
:100550005ED052EA03045BD0C3F30A54C1F30A55D8
:100560002C44A4F2F3340194A0FB0254C1F3130110
:1005700041F48011C3F3130343F4801301FB0244DD
:1005800000FB034E840A970A44EA815447EA8357E2
:10059000A4FB076802958D0A05FB07854FEA932C9B
:1005A00004FB0C542705029D4FEA065847EA16370C
:1005B000B5EB08056EEB070C870E920E47EA811724
:1005C00042EA8312A7FB0201B6EB0B0164EB0004C5
:1005D0002B0D43EA0C335E1844EB1C50DA465146AF
:1005E000E7FB0201C5F313044FEA0B3343EA14534C
:1005F0004FEA0432019C43EA0603A4F10C0402947E
:10060000009CCDE900B400F0B8F903B0BDE8F08F6C
:1006100000200146F9E72DE9F04D81EA030404F0DA
:10062000004B21F0004514464FF0000A23F0004132
:1006300050EA050220D054EA01021DD0C5F30A5742
:100640000246C5F31303C1F31300C1F30A5640F485
:10065000801543F48013A7EB0608101BD64608F25A
:10066000FD3873EB050002D308F1010801E0921890
:100670005B41B8F1000F03DA00200146BDE8F08DC0
:1006800000204FF48011064684460EE0171B73EBE2
:10069000050705D3121B63EB050306434CEA010C67
:1006A00049084FEA300092185B4150EA0107EDD14A
:1006B00052EA030012D082EA040083EA05010843EB
:1006C00005D0101BAB4106D20122002306E0002218
:1006D0004FF0004302E06FF0010253101AEB0600E6
:1006E0004CEB085110EB0A0041EB0B01BDE8F04D5B
:1006F00000F034B90EB5C10F80EAE0700844CA07B3
:10070000002140F233438DE80E000A460B4600F00C
:1007100034F903B000BD0EB540F23341029100211F
:10072000CDE900110A460B4600F027F903B000BDE1
:1007300070B5C1F30A5201F000450024C1F3130162
:1007400040F2FF3341F480119A4201DA002070BD7B
:1007500040F233439A42A2F2334203DC524200F0A9
:10076000A4F800E090402C43F1D0404270BDC1F3AA
:100770000A5210B5C1F3130140F2FF3341F4801166
:100780009A4201DA002010BD40F233439A42A2F2AD
:10079000334203DC524200F088F810BD904010BD97
:1007A00000F0004230F000400AD0C10D01F5607148
:1007B000C0F3160042EA0151C208400711437047D6
:1007C000002001467047000030B5041E71F100049E
:1007D00004DB4FF00044404264EB0101141E73F14E
:1007E000000405DB1C464FF00043524263EB040358
:1007F0008B4208BF824230BD30B5041E71F1000447
:1008000004DB4FF00044404264EB0101141E73F11D
:10081000000405DB1C464FF00043524263EB040327
:10082000994208BF904230BD01F0004330B421F03E
:10083000004150EA010206D00A0DA2F56072C1F330
:100840001301002A02DC30BC00207047440F44EA48
:10085000C104C100E01830BC00EBC25000F047B842
:1008600030B50B46014600202022012409E021FA80
:1008700002F59D4205D303FA02F5491B04FA02F57D
:100880002844151EA2F10102F1DC30BD202A04DB50
:10089000203A00FA02F1002070479140C2F1200393
:1008A00020FA03F3194390407047202A04DB203AD2
:1008B00021FA02F00021704721FA02F3D040C2F180
:1008C00020029140084319467047202A06DBCB17C7
:1008D000203A41FA02F043EAE07306E041FA02F3FB
:1008E000D040C2F1200291400843194670470029C8
:1008F000A8BF7047401C490008BF20F001007047A6
:1009000010B4B0FA80FC00FA0CF050EA010404BF05
:1009100010BC704749B1CCF1200421FA04F411FA5B
:100920000CF118BF012121430843A3EB0C01CB1D9F
:100930004FEA00614FEA102042BF002010BC704710
:1009400000EBC35010440029A4BF10BC7047401CEA
:10095000490008BF20F0010010BC704710B5141EFC
:1009600073F1000408DA401C41F1000192185B4168
:100970001A4301D120F0010010BD2DE9F04D92463F
:100980009B4611B1B1FA81F202E0B0FA80F2203256
:100990009046FFF77BFF04460F4640EA0A0041EA13
:1009A0000B0153465A46084313D0114653EA01003F
:1009B00019D0C8F140025046FFF777FF05460E46B2
:1009C000504659464246FFF761FF084305D00120D3
:1009D00004E020463946BDE8F08D0020054346EA94
:1009E000E0762C4337430A986305E40AA0EB08003D
:1009F0000022FD0A44EA47540A3002D5002001468D
:100A0000E9E7010510196941DDE908450019694167
:100A1000BDE8F04DA2E770B521F0004303430CD0D0
:100A2000C1F30A550024D5EB040564EB0403D61783
:100A3000AD1AB34102DB0020014670BD201841EB26
:100A4000025170BDC1F30A52C1F3130140F2FF33EA
:100A500041F480119A4202DA00200146704740F2C8
:100A600033439A42A2F2334202DC5242FFF71DBFE7
:100A7000FFF70CBF064C074D06E0E06840F00103AD
:100A800094E8070098471034AC42F6D3FFF792FB86
:100A90002CAE08084CAE08082DE9F04D00231A468C
:100AA0001B1A8A4103DB00200146BDE8F08DC1F32B
:100AB0000A52C1F3130141F480154FF0000BD10726
:100AC00002D100186D41521E0027044640F2FF116A
:100AD000384601EB620A3E468046024600204FF44B
:100AE0008011FFF7E2FEC2197141BB1846EB01000D
:100AF000B4EB030C75EB000C04D3E41A65EB0005B2
:100B000017460E46241908F101006D41804634282D
:100B1000E3DDF91946EB0600091BA84103D24FF0AB
:100B2000FF32134601E0002213461BEB070046EBA1
:100B30000A51BDE8F04DFFF711BF70B58C1810F8E1
:100B4000015B15F0070301D110F8013B2A1106D112
:100B500010F8012B03E010F8016B01F8016B5B1E2C
:100B6000F9D12B0705D40023521E0DD401F8013B07
:100B7000FAE710F8013BCB1A921C03E013F8015B73
:100B800001F8015B521EF9D5A142D8D3002070BDF7
:100B9000EFF3098141B1F1EE101A40F8041D20ED88
:100BA000200A3E490A6810607047B0EC200A02C86B
:100BB000E1EE101A3A490A681060704772B64EF6B4
:100BC0002250CEF2000040F2FF01C0F2000101709D
:100BD0004FF0000080F3098810F0B0FA40F2A01046
:100BE000C2F20000016881F3088840F21610C2F2D8
:100BF000000040F21711C2F200010A78027040F2C0
:100C00009815C2F2000540F29C11C2F200010A6878
:100C10002A60106880F30988EFF3148040F0020026
:100C200080F31488BFF36F8FBDE8F00F0FBCBDE8F1
:100C3000005006BC62B608471A484FF08051016068
:100C4000704718484FF080510160704772B6EFF35B
:100C5000098020E9F00F40F29815C2F200052E68D5
:100C60003060744610F06AFA40F21610C2F20000CA
:100C700040F21711C2F200010A78027040F29C1192
:100C8000C2F200010A682A6044F0F40E1068B0E86D
:100C9000F00F80F3098862B67047000098010020C9
:100CA0009C01002004ED00E021B1826842F00102C5
:100CB000826003E0826822F00102826070470000D7
:100CC0000021084A1168084A1140D0E900231A435C
:100CD00083681A43C3681A431143044AC2F80413D1
:100CE0007047000004230140E030FCFF0020014079
:100CF00021B1826842F48072826003E0826822F44B
:100D000080728260704721B1826842F40072826012
:100D100003E0826822F400728260704730B50246B8
:100D2000002000235068104C20400D790C6844EAE4
:100D300005242043506090680C4C2040D1E90354B6
:100D40002C438D682C434D7944EA45042043906040
:100D5000D06A20F470000C7D641EE4B2234340EAA4
:100D60000350D06230BD0000FFFEFFFCFDF7FFC066
:100D7000F0B504460D4600200021092D11DDE06884
:100D8000A5F10A0606EB4607072606FA07F188438F
:100D9000A5F10A0606EB460603FA06F10843E060F1
:100DA0000CE0206905EB4507072606FA07F18843A2
:100DB00005EB450603FA06F108432061072A0FDA1E
:100DC000606B561E06EB86071F2606FA07F188435E
:100DD000561E06EB860605FA06F10843606322E01C
:100DE0000D2A0FDA206BD61F06EB86071F2606FAA0
:100DF00007F18843D61F06EB860605FA06F108437D
:100E0000206310E0E06AA2F10D0606EB86071F26BC
:100E100006FA07F18843A2F10D0606EB860605FAED
:100E200006F10843E062F0BD816841F080418160D5
:100E3000704700210160017141718160C1600161F1
:100E4000012101757047002800DC40427047000016
:100E50000EB500BF4BE02648006801283DD125486B
:100E60000078002839D102A9234810F055F902A9C9
:100E7000224810F051F922A027F0ECF802A8002136
:100E80000B460522CDE90010084610F005FA27A010
:100E900003F0CCFB02A918480FF042FE02A9174844
:100EA0000FF03EFE02A800210B460122CDE9001002
:100EB000084610F0F1F90CE020A003F0B7FB02A8FF
:100EC00000214FF4FA730A46CDE90010084610F0ED
:100ED000E3F9074800680028EED102A800214FF48A
:100EE000FA730A46CDE90010084610F0D5F9B2E7CA
:100EF00030024342AE0000200C2E00204C30002077
:100F00004054657874546F53706565636823C4E317
:100F1000BAC3A3ACD3D0CAB2C3B4CED2BFC9D2D4A1
:100F2000B0EFC4E3B5C4C2F0A3BF240050656F7036
:100F30006C6521212121212121210A00416C776149
:100F400079732050656F706C652121212121212149
:100F50002121210A0000000008B50BE006480068C6
:100F600080F40050044908606A4600214FF4FA609A
:100F700010F040F9F2E700001408024086B020A00B
:100F8000006802903AE003A904A802F038FD60BBB3
:100F9000BDF810000A2190FBF1F080B20490BDF87A
:100FA0000C0090FBF1F080B203909DF808101548FA
:100FB00015F0A5FCBDF81010124815F0AFFC9DF817
:100FC0000910104815F09BFCBDF80C100D4815F0E9
:100FD000A5FC9DF80A100B4815F091FCBDF81020F7
:100FE000BDF80C1008A003F021FB05A800210B465A
:100FF0000A22CDE90010084610F04EF9C3E70000C0
:1010000054480D000010014068756D203D20256496
:101010000A74656D3D2025640A0000002DED048BE7
:1010200084B0002464E03348408800EE100AB8EE33
:10103000400A9FED311AC0EE010A9FED300A20EE02
:10104000808A18EE100AFFF7ABFB41EC190B53EC4A
:10105000192B2BA003F0EAFA18EE100AFFF7A0FBF9
:1010600041EC190B9FED320B53EC102BFFF7C4FB37
:1010700025D224BB03A9304810F04EF803A92F480D
:1010800010F04AF803A92E4810F046F82DA026F0DB
:10109000E1FF03A800210B460A22CDE90010084613
:1010A00010F0FAF803A924480FF03AFD03A92348E9
:1010B0000FF036FD03A9224810F02EF8012418EE97
:1010C000100AFFF76DFB41EC190B9FED190B53EC68
:1010D000102BFFF779FB02D2012C00D1002403A8CA
:1010E00000210B460A22CDE90010084610F0D4F882
:1010F00099E700003C000020000080453333534056
:101100000D0A205468652063757272656E74204CF8
:10111000696768745F4144435F566F6C2076616C09
:101120007565203D2025662056200D0A0000000030
:101130009A999999999905400C2E00204C300020DD
:10114000CC2E00204054657874546F5370656563ED
:101150006823CCECD4F5C3B4CDBBC8BBBADAC1CBE1
:10116000240000002DED048B84B04DE0274800885A
:1011700000EE100AB8EE400A9FED251AC0EE010AF3
:101180009FED240A20EE800AB0EE408AB5EE000AF8
:10119000C8EE000AB0EE608A18EE100AFFF700FBF6
:1011A00041EC190B53EC192B1BA003F03FFAB2EEE4
:1011B000040AB4EEC08AF1EE10FA1BD81F4800787A
:1011C000C0B903A91E480FF0A7FF002211461DA0B9
:1011D00025F0C6FD1FA026F03DFF03A800210B4609
:1011E0000322CDE90010084610F056F803A9144870
:1011F0000FF096FC03A800210B460A46CDE900102B
:101200000521002010F048F8B0E700003C00002065
:1012100000008045333353400D0A20546865206335
:10122000757272656E742041442076616C7565201C
:101230003D2025662056200D0A000000AE0000204B
:101240000C2E0020303A6D65696469616E2E6A70FB
:10125000670000004054657874546F53706565638F
:101260006823BFECC3BBB5E7C1CBA3ACD2AAB8F827
:10127000CED2B3E4B5E7BFA9A3A124000EB50025E3
:10128000002462E112F088FE0546032095FBF0F190
:1012900000FB1150C4B20B2095FBF0F100FB115084
:1012A000C5B22946A9A003F0C1F90B2D0CD2DFE885
:1012B00005F0060C12183D6287ACD1F8F60000224A
:1012C0001146A6A025F04CFD35E100221146A6A04E
:1012D00025F046FD2FE100221146A6A025F040FD95
:1012E00029E1002008F04CFA05F020FE02AA0021B6
:1012F00032200FF07FFF052301220221A0A025F05C
:1013000097FC24B90022114694A025F029FD012C58
:1013100004D10022114694A025F022FD022C04D114
:101320000022114693A025F01BFD04E1002008F0E7
:1013300027FA05F0FBFD02AA002132200FF05AFF28
:1013400005230122022192A025F072FC24B900227B
:10135000114682A025F004FD012C04D10022114683
:1013600081A025F0FDFC022C04D10022114681A0B1
:1013700025F0F6FCDFE0002008F002FA05F0D6FDCB
:1013800002AA002132200FF035FF0523012202219D
:1013900083A025F04DFC24B9002211466FA025F052
:1013A000DFFC012C04D1002211466FA025F0D8FCEF
:1013B000022C04D1002211466EA025F0D1FCBAE027
:1013C000002008F0DDF905F0B1FD02AA002132206D
:1013D0000FF010FF05230122022175A025F028FC43
:1013E00024B9002211465DA025F0BAFC012C04D1DD
:1013F000002211465CA025F0B3FC022C04D100228F
:1014000011465CA025F0ACFC95E0002008F0B8F98E
:1014100005F08CFD02AA002132200FF0EBFE05231F
:101420000122022166A025F003FC24B90022114606
:101430004AA025F095FC012C04D1002211464AA0B7
:1014400025F08EFC022C04D10022114649A025F083
:1014500087FC70E0002008F093F905F067FD02AA10
:10146000002132200FF0C6FE05230122022158A0E0
:1014700025F0DEFB24B90022114638A025F070FCCF
:10148000012C04D10022114637A025F069FC022C62
:1014900004D10022114637A025F062FC4BE025E084
:1014A000FFE7002008F06CF905F040FD02AA0021DA
:1014B00032200FF09FFE05230122022148A025F0D3
:1014C000B7FB24B90022114624A025F049FC012CC9
:1014D00004D10022114624A025F042FC022C04D1A4
:1014E0000022114623A025F03BFC24E0002008F058
:1014F00047F905F01BFD02AA002132200FF07AFE09
:101500000523012202213AA025F092FB24B90022F2
:10151000114612A025F024FC012C04D10022114612
:1015200011A025F01DFC022C04D10022114611A0AF
:1015300025F016FC00BF00BF02A800210B46322296
:10154000CDE9001008460FF0A7FE9BE652616E64DD
:1015500044617461203D2025640A0000303A7063C4
:101560002E6A706700000000303A7063322E6A7095
:1015700067000000303A7063332E6A706700000025
:10158000303A7869616F6A69332E676966000000D6
:10159000303A7869616F6A69342E676966000000C5
:1015A000303A7869616F6A69352E676966000000B4
:1015B000303A7869616F6A69362E676966000000A3
:1015C000303A7869616F6A69372E67696600000092
:1015D000303A7869616F6A69382E67696600000081
:1015E000303A7869616F6A69392E67696600000070
:1015F000303A7869616F6A6931302E676966000038
:1016000000B58FB000200C9002200B9001F0FCFD83
:1016100001F0AAF801F034F90DF0A0FF0122CBA1EE
:10162000CB482BF075FDCB4908700EA80EF048FF93
:1016300000221146C8A025F093FB6FF07F4008F010
:101640009FF8002008F0A7F8C64808F0D9F8DC2277
:101650000021C5A005F006FFDC22AF21C7A005F0E0
:1016600001FFDC229621DDE90B3005F065FEF12259
:101670000021C3A005F0F6FE4FF4FA6029F0B4FF94
:1016800000200D9021E008210D9801EBC000F1220F
:1016900001460990CAA005F0E5FEDC229621DDE9AD
:1016A0000B3005F049FE0C98801CC0B20C900C98D1
:1016B000642803DB64200C9003200B90642029F045
:1016C00093FF0D98401CC0B20D900D983A28DADBBC
:1016D000BCA026F0BFFC4FF4FA6029F085FF002083
:1016E0000A9000BF00BFFEF795FD0A9000BF00BF43
:1016F0000EA804214623B84ACDE90010B7A1BB4883
:101700000EF05EF90EA8032100220592CDE9062114
:10171000089005204FF42F714622B54BCDE90310F8
:10172000CDE9013200900023B24AB3A1B6480EF0D1
:1017300049FF0EA8032100220592CDE90621089059
:1017400005204FF496711E22B04BCDE90132CDE950
:10175000031009200023AE4AAEA10090B1480EF05C
:1017600031FF0EA8032100220592CDE90621089041
:1017700005204FF42F714622AB4BCDE90132CDE964
:10178000031006200023A94AA9A10090AC480EF03E
:1017900019FF0EA8032100220592CDE90621089029
:1017A00005204FF496711E22A64BCDE90132CDE9FA
:1017B000031007200023A44AA4A10090A7480EF01C
:1017C00001FF0EA8032100220592CDE90621089011
:1017D00005204FF400713322A14BCDE90132CDE950
:1017E00003100A2000239F4A9FA10090A2480EF0F8
:1017F000E9FE0EA8032100220592CDE906210890FA
:1018000005204FF4007133229C4BCDE90132CDE924
:1018100003100B2000239A4A9AA100909D480EF0D5
:10182000D1FE0EA8032100220592CDE906210890E1
:101830000520C8211422984BCDE90132CDE90310CF
:1018400008200023954A96A100909B480EF0BAFE0E
:101850000EA8032100220592CDE90621089005205B
:101860004FF400713322954BCDE90132CDE90310DD
:1018700003200023924A93A1009097480EF0A2FE05
:101880000EA8032100220592CDE90621089005202B
:101890004FF400713322914BCDE90132CDE90310B1
:1018A000042000238E4A8FA1009092480EF08AFEF9
:1018B0000EA8032100220592CDE9062108900520FB
:1018C0004FF4806166228C4BCDE90132CDE90310E3
:1018D0000C200023894A8AA100908D480EF072FEE8
:1018E0000EA8032100220592CDE9062108900520CB
:1018F0004FF496711E22874BCDE90132CDE90310DA
:101900000D200023844A85A1009088480EF05AFEDD
:101910000EA971480FF000FC0EA97D480FF0FCFBEA
:101920000EA965480FF0F8FB0EA980480FF0F4FBF4
:101930000EA97F480EF01AFF00BF00BF0A98FEF7FD
:101940006DFC00BF00BF0FB000BD0000303A0000CA
:10195000BC0B0020AD000020303A6B61696A692E33
:101960006A706700CC48080853797374656D20531A
:1019700074617274696E672E2E2E000025000000BF
:101980005B2E2E2E2E2E2E2E2E2E2E2E2E2E2E2E4A
:101990002E2E2E2E2E2E2E2E2E2E2E2E2E2E2E2E67
:1019A0002E2E2E2E2E2E2E2E2E2E2E2E2E2E2E2E57
:1019B0002E2E2E2E2E2E2E2E2E2E2E5D00000000D0
:1019C0003D00000040506C6179464C415348233043
:1019D0003032332400000000342C00204D656D208F
:1019E000466F72205465737400000000142C0020B0
:1019F0004C3800207D120008417070205461736BD8
:101A00002053686F774251000C2E00203C53002079
:101A1000590F0008417070205461736B204C65644D
:101A2000310000008C2F0020EC570020ED1F000833
:101A3000417070205461736B2074616C6B00000006
:101A40004C300020DC6200207D0F000841707020C7
:101A50005461736B204C6564330000000C3100202E
:101A60003C43002065110008417070205461736B85
:101A700020506F7765720000CC2E00203C4B002078
:101A80001D100008417070205461736B204C696711
:101A9000687400000C3400208C670020510E000890
:101AA000417070205461736B20436865636B5065AF
:101AB0006F706C6500000000CC310020AC6A002023
:101AC000591D0008417070205461736B20546F756C
:101AD00063685363616E00008C320020AC7200209A
:101AE000351B0008417070205461736B20546F7572
:101AF000636800004C330020AC7A0020C11F00084E
:101B0000417070205461736B2057696E646F770069
:101B1000CC340020AC8A00207D1E0008417070206B
:101B20005461736B20576865726500008C35002026
:101B30004C2D00200EB5002401261425C4E0634876
:101B4000007800287ED0624841680020884701283C
:101B500001D1601CC4B2082C02D00F2C73D154E008
:101B60005CA026F077FA02A800210B460422CDE9FA
:101B7000001008460FF090FB00243EE0681EC5B23E
:101B80005348416800208847012804D159A002F039
:101B90004DFD601CC4B2032C26DB5AA026F05AFA75
:101BA00002A960480FF0B8FA02A95F480FF0B4FA32
:101BB000002007F0E5FD05F0B9F902AA0021322066
:101BC0000FF018FB03230222012158A025F030F862
:101BD00002A954480EF0A4FF02A953480EF0A0FF3A
:101BE00000250A24002608E002A8002196230A46C0
:101BF000CDE9001008460FF04FFB002DBED1142593
:101C00000EB1002400E0012644E000243CE0681E00
:101C1000C5B22F48416800208847012804D147A059
:101C200002F004FD601CC4B2032C24DB02A93D4871
:101C30000FF072FA02A93C480FF06EFA02A80021D8
:101C4000642301E035E024E00A46CDE900100846AF
:101C50000FF022FB02203E49087000201B4908704B
:101C6000002402A93B480EF05BFF02A92E480EF0AB
:101C700057FF002508E002A8002196230A46CDE977
:101C8000001008460FF008FB002DC0D114250024D9
:101C900000E000BF00BF0F2C00DD002402A80021DF
:101CA0004FF496730A46CDE9001008460FF0F4FA97
:101CB0000AE008F081FA02A800210A230A46CDE9C9
:101CC000001008460FF0E8FA39E70000AF000020E6
:101CD000400000204054657874546F53706565630C
:101CE0006823BAC3D1F7B0A12CB1F0C3FECED2C1E4
:101CF000CB2400004B65657020746F756368A3A1E9
:101D00000A0000004054657874546F537065656331
:101D10006823D4D9C0B4A3ACCED2D2AAD2A7C4E38C
:101D2000C1CB24000C2E00204C300020303A7961C9
:101D30006F72656E2E67696600000000456E7465FF
:101D400072205365742043656E746572210A000029
:101D5000B0000020CC34002088B00024002586E0AC
:101D6000434841680020884700247DE0404890F8BF
:101D700020000121A1400840002863D03C480C30DD
:101D800030F81400B0F5F07F61DA3948163030F8D9
:101D90001400B0F5887F5ADA02A830F824004FF614
:101DA000FF7188420DD132480C3030F8140002A97E
:101DB00021F824002E48163030F8140001EB84017D
:101DC00048804FF47F0007F0E6FC294E163636F8BF
:101DD00014300A3E36F8142002AE06EB84067188F1
:101DE00002AE36F8240005F04DFD21480C3030F8E5
:101DF000140002A921F824001D48163030F8140000
:101E000001EB840148801A480C3030F81400B0F51A
:101E1000E47F1CDD1648163030F81400282816DA46
:101E2000002007F0ADFC05F081F8124807F0E8FC4F
:101E3000FF2007F0B0FC0A224FF4E4710EA005F079
:101E400025FB04E04FF6FF7002A921F8240007A843
:101E5000002105230A46CDE9001008460FF01CFAC0
:101E6000681CC5B2601CC4B2052CFFF67FAF77E7D3
:101E70004000002054760808525354002DED068B84
:101E800088B06BE063E00498FEF78AFC41EC1A0B23
:101E90000598FEF785FC41EC180B0698FEF780FCD0
:101EA00041EC190B8DED02AB8DED008B53EC192B32
:101EB0002BA002F0BBFB00BF00BF9DED060AF2EEB7
:101EC000040AB4EEE00AF1EE10FA01DB012000E0B2
:101ED00000209DED060AF8EE080AB4EEE00AF1EEE5
:101EE00010FA01D8012100E000210843002828D081
:101EF00007A925480FF010F907A924480FF00CF99D
:101F000007A923480FF008F922A026F0A3F8002221
:101F1000114628A024F024FF07A800210B460A221E
:101F2000CDE9001008460FF0B7F907A916480EF0E2
:101F3000F7FD07A915480EF0F3FD07A914480FF0A7
:101F4000EBF807AA00214FF4FA600FF053F904AA46
:101F500005A906A82CF078FE002894D192E700008D
:101F60007069746368203D202566202020726F6CA4
:101F70006C203D20256620202020202079617720BC
:101F80003D202566200A00000C2E00204C30002049
:101F9000CC2E00204054657874546F53706565638F
:101FA0006823CDB7BAC3D4CEA3ACB1F0D2A1C1CB14
:101FB00024000000303A736875692E6A706700006B
:101FC0000EB50EE007A002F031FB0DF025FA02A8D5
:101FD00000214FF4E1730A46CDE9001008460FF0E6
:101FE0005BF9EFE768656C6C6F0A000086B000264D
:101FF0000027002581E305A8002302AA19460090C6
:1020000018460EF083FC04462188F1A002F00EFB76
:102010000120F44908702088801E1C281BD2DFE8AC
:1020200000F00E1A1B263D1A1A878E1AE11A1AD0D2
:102030001A1A1A1A1A1AFEFDFCFBFAF9CF25EAA0A1
:1020400002F0F4FA05AA00214FF4FA600FF0D2F87A
:10205000E7A025F0FFFF47E3EDA002F0E7FA05AAAD
:1020600000214FF47A700FF0C5F83DE300BFEAA0FD
:1020700002F0DCFA05A9EA480FF04EF800221146FA
:10208000E8A024F06DFE05AA002141F288300FF08F
:10209000B1F805A9E2480EF043FD25E3E4A002F003
:1020A000C5FA03A904A801F0AAFC002838D1BDF89C
:1020B00010000A2190FBF1F080B20490BDF80C00F2
:1020C00090FBF1F080B2039005A9D5480FF024F8F9
:1020D000BDF810001C2810DB00221146D6A024F009
:1020E0003FFEBDF81010D7A025F0B4FF05AA0021CF
:1020F00044F620600FF07EF815E000221146C9A0DA
:1021000024F02EFEBDF80C20BDF81010D9A025F04B
:10211000A1FF05AA002144F620600FF06BF802E051
:10212000E2A025F097FF05A9BD480EF0F9FCDBE21F
:10213000E8A002F07BFAE9A025F08CFFD4E2EFA042
:1021400002F074FA05A9B6480EF0E6FF002007F089
:1021500017FB04F0EBFE05A8002132230A46CDE967
:10216000001008460FF098F8E64825F073FF0323A7
:1021700002220121E4A024F05BFD032302220121BD
:10218000E4A024F055FD032302220121E4A024F061
:102190004FFD032302220121E4A024F049FD032383
:1021A00002220121E4A024F043FD032302220121A5
:1021B000E4A024F03DFD05A999480EF0B1FC93E29E
:1021C00000BFE3A002F032FA05A995480EF0A4FF83
:1021D00000221146E0A024F0C3FD05A990480EF0AE
:1021E0009FFC81E2DFA002F021FA05A98C480EF0E5
:1021F00093FF00221146DDA024F0B2FD15B9DFA047
:1022000025F028FF012D02D1E24825F023FF05A883
:10221000002105E050E2D3E0B0E08CE05AE010E0AD
:102220000B461922CDE9001008460FF035F8681C5E
:10223000C5B2022D00DB002505A979480EF070FC1F
:1022400052E2D5A002F0F2F9012705A974480EF078
:1022500063FF05A8002164230A46CDE90010084663
:102260000FF01AF805A9CE480EF056FF05A8002178
:1022700064230A46CDE9001008460FF00DF805A9C1
:10228000C8480EF04DFC05A8002164230A46CDE99C
:10229000001008460FF000F8002007F071FA04F073
:1022A00045FEC14807F0ACFAFF2007F074FA0A2295
:1022B0004FF4E471BDA005F0E9F805A800216423FE
:1022C0000A46CDE9001008460EF0E6FFB8A025F05A
:1022D000C1FE09E2C1A002F0A9F9012F2AD105A986
:1022E0004F480EF01DFC05A8002164230A46CDE9E5
:1022F000001008460EF0D0FF05A9AA480EF00CFF0A
:1023000005A8002164230A46CDE9001008460EF016
:10231000C3FF05A9A2480EF003FC05A80021642311
:102320000A46CDE9001008460EF0B6FFAEA025F033
:1023300091FE0027D8E1B3A002F078F9012F1CD15B
:10234000002007F01DFA04F0F1FD974807F058FA55
:10235000FF2007F020FA0A224FF4E47193A005F061
:1023600095F805A8002132230A46CDE90010084659
:102370000EF092FFA5A025F06DFEB5E1ADA002F034
:1023800055F91EB1ADA025F065FE18E001264421E7
:10239000B14814F0B4FA3146AF4814F0BFFA0D2139
:1023A000AD4814F0ACFA05A8002132230A46CDE965
:1023B000001008460EF070FFA8A025F04BFE93E138
:1023C000ACA002F033F9022E00D157E15AE100002F
:1023D0005265636569766544617461203D202564BA
:1023E0000A000000AE000020C4E3BAC30A000000E7
:1023F0004054657874546F53706565636823D3D017
:10240000CAB2C3B4CED2C4DCB0EFC4E3B5C42400B6
:10241000D0D4B1F00A000000CFB2BBB60A00000071
:102420000C2E0020303A7869616F2E6A70670000C8
:10243000CEC2B6C80A000000303A6B752E6A7067CB
:10244000000000004054657874546F5370656563F4
:102450006823D5E2D5E6B5C4CCABC8C8C1CBA3A12F
:10246000CEC2B6C8B6BCB5BD5B6E325D2564B6C81B
:10247000C1CB24004054657874546F537065656314
:102480006823CFD6D4DAB5C4CEC2B6C8CAC75B6E8D
:10249000325D2564A3ACCAAAB6C8CAC7B0D9B7D63C
:1024A000D6AE5B6E325D2564240000004054657832
:1024B00074546F53706565636823B0A1D1BDCED2EB
:1024C000B5C4CEC2B6C8B4ABB8D0C6F7BBB5C1CBE5
:1024D00024000000B3AAB8E80A0000004054657860
:1024E00074546F53706565636823BBE1B0A1A3ACFE
:1024F000C4E3CFEBCCFDCAB2C3B42400CCFDB8E832
:102500000A00000034AC0808303A67312E6769666B
:1025100000000000303A67322E6769660000000054
:10252000303A67332E67696600000000303A67343E
:102530002E67696600000000303A67352E676966CD
:1025400000000000303A67362E6769660000000020
:10255000C9FAC6F80A000000303A666168756F2E45
:102560006A706700D0A6BBB00A000000303A68610C
:102570006E7869616F2E6A7067000000405465785C
:1025800074546F53706565636823BDB2CDEAC1CBE7
:1025900024000000ACAB0808BBADBBAD0A000000D6
:1025A0004C3300208C3200205476080852535400DB
:1025B0004054657874546F53706565636823BFAA8F
:1025C000CABCBBADB0C9A3ACC7EBCBB5CDCBB3F6E2
:1025D000BBADBBADCDCBB3F624000000CDCBB3F685
:1025E000BBADBBAD0A0000004054657874546F5316
:1025F000706565636823C4E3BBADB5C4D5E6C4D1DB
:10260000BFB42400C7E5C6C10A0000004054657885
:1026100074546F53706565636823BAC3C1CBC4E358
:10262000BFC9D2D4D6D8D0C2BFAACABCBBADC1CB59
:1026300024000000BFAAB5C60A0000004054657817
:1026400074546F53706565636823B5C6D2D1BEAD4F
:10265000C1C1C1CB24000000001001404054657886
:1026600074546F53706565636823D2D1BFAAB5C631
:1026700024000000B9D8B5C60A0000001FA025F04C
:10268000E9FC18E002264421264814F038F93146C6
:10269000244814F043F90D21224814F030F905A81C
:1026A000002132230A46CDE9001008460EF0F4FD61
:1026B0001DA025F0CFFC17E005A921480EF02CFD48
:1026C00005A8002164230A46CDE9001008460EF053
:1026D000E3FD00201B49087001201B49087005A973
:1026E0001A480EF01DFA00BF00BF002018490870FC
:1026F00005AA214617480DF005FA7CE44054657898
:1027000074546F53706565636823B5C6D2D1BEAD8E
:10271000B9D8C1CBA3ACD2AABFAAB5C6C2F0A3BFD9
:1027200024000000001001404054657874546F5339
:10273000706565636823D2D1B9D8B5C6240000009E
:102740000C2E0020AF000020B0000020CC34002070
:10275000AE000020142C00201FB5684611F062F86E
:10276000019804B010BD000010B50121080310F05D
:10277000F9FF4FF4A0600CF0C3FF01F00BFF00F075
:102780008DF800F0DFF811F029F9234801F04EFF31
:10279000224801F04BFF224801F048FF1F4801F09A
:1027A00045FF1D4801F042FF0AF074FF12F078FA6D
:1027B0001CA001F03BFF0AF03CFA13F0D5FD05F038
:1027C0007BFD1BA001F032FF11F086FC1DA001F083
:1027D0002DFF01F06BF918B91FA001F027FF02E0EF
:1027E00020A001F023FF11F023F911F057F92BF08D
:1027F00089FFC82028F0F8FE0CF0E8FC0CF0C2FCC1
:102800002CF02EFB30B12CF02BFB0446214619A0F6
:1028100001F00CFF10BD0000D0AA080848AA080863
:102820008CAA0808534452414D204F4B210A000006
:102830004755495F496E6974205375636573732109
:102840000A00000041445F496E6974205375636556
:102850007373210A000000004448543232204F4B69
:10286000210A00004E6F742066696E64204448544B
:1028700032320A00646D70203D2025640A00000099
:1028800070B5FFF769FF044603480068B4FBF0F534
:1028900028460EF029FE70BDBC13030800B587B0B2
:1028A0000121022010F05EFF0121880410F08AFF50
:1028B00007220B21214803F02FFB07220A211F4882
:1028C00003F02AFB00208DF81A0001208DF81B0070
:1028D00002208DF818004002059002208DF81900A2
:1028E00005A9164803F0D0FA02208DF818008002DE
:1028F000059005A9114803F0C7FA4FF4E1300190A3
:102900000020ADF80800ADF80A00ADF80C00ADF8F5
:1029100010000C20ADF80E0001A9094813F07AFF51
:102920000CF0A3FE012240F22551054813F04DFFA3
:102930000121034813F006FF07B000BD0004024068
:102940000048004000B587B00121402010F00AFF88
:102950000121202010F046FF08220E21164803F026
:10296000DBFA00208DF81A0001208DF81B000220F0
:102970008DF818004003059002208DF8190005A974
:102980000D4803F081FA4FF4E13001900020ADF8DA
:102990000800ADF80A00ADF80C00ADF810000820F2
:1029A000ADF80E0001A9054813F034FF01210348DA
:1029B00013F0C8FE07B000BD00180240001401402B
:1029C00038B5456804460146284613F0DFFF002865
:1029D0002BD02068304A11280DD006DC0B2825D0DA
:1029E0000E2833D00F2852D112E0282849D0B0F554
:1029F000107F4CD108E09268002A16D02146284664
:102A000001B0BDE830401047214628465268F7E73C
:102A1000284603F09FFF0090406E0468684604F06B
:102A200005F8002C01D02846A04738BD284603F001
:102A300091FF0090683003F0E3FE009803216C30B2
:102A400003F0ECFE684603F0F1FF20E0E16848681F
:102A500009680D2902D0202913D105E0002810DDD6
:102A6000284621F029FB06E0002804DD2846BDE8C1
:102A7000384021F021BB2846BDE83840022121F032
:102A800031BBE06818B90021284600F093F92046D0
:102A9000BDE8384014F058BBDC030020F0B585B029
:102AA0000AAC94E8E0000024CDE90246CDE90057E5
:102AB000049400F025F805B0F0BDF0B5044685B0EB
:102AC0008069B4F90850668A0027CDE90265CDE92E
:102AD00000170490B4F90C00B4F91060C118B4F9EF
:102AE0000A00B4F90E50104433462A4600F008F8A4
:102AF0000546616800F07DF905B02846F0BD00008C
:102B00002DE9F04F85B01F46DDE911B4DDE90E5621
:102B100090468946824605F0E1FE16484C34CDE9E0
:102B20000204CDE900563B4642464946504614F061
:102B300053FA040018D003F00DFF102259460490F8
:102B400014F098F8049830220B493430FDF7DAFB82
:102B5000094D04990C3D2868486604A803F066FFF7
:102B6000286841682046884707F026FD05B02046C2
:102B7000BDE8F08FC1290008E8030020F0B5044645
:102B800080688B4989B051F82050606800287DD05A
:102B9000052804D006287AD0122879D1AEE0E86959
:102BA00000284FD095E80E008DE80F0004F11001C9
:102BB0000FC908F07BF9002655F8260006F0EBFD5A
:102BC000A169E8690A1A216901446069304404F086
:102BD0002DFEA169E8690A1A21690144E069801B98
:102BE00004F024FEE169E8690A1A61690144206978
:102BF000304404F0D1FEE169E8690A1A61690144D0
:102C0000A069801B04F0C8FE761C022ED4DBA868E5
:102C100006F0C1FDE069E9696669431A2069421856
:102C20003144801C521E04F02BFFE169E869A2695F
:102C30000B1A61690144101A401C921E04F020FF17
:102C4000EE6913E05FF0000655F8260006F0A3FDDC
:102C5000E069831BA069821B606981192069304487
:102C600004F05AFE761C022EEEDB0226D5E90301A3
:102C7000CDE900016169E06908444310A069891C3D
:102C8000821B2069304404F095FD02E089E012E0E7
:102C90008AE0D5E90501CDE90001E3696069012118
:102CA000184401EB6001A0699B1E821B206930441F
:102CB00004F080FD78E0206803F04CFE049020686A
:102CC00015F0E6FE40B1A06808B1002008E00498C5
:102CD000006F28B1012003E00498406F00B102208A
:102CE000049901EB8000C56E04A803F09FFE002349
:102CF0001A462846216804F0AFFA55E0206803F030
:102D000029FE0490866EEEB3B0F95C70A168D1B371
:102D1000032942D05FF0000100EB8101406D0C6C93
:102D200006F06EFD204606F036FD05A805F002FA15
:102D3000BDF81410A88B0144ADF81410BDF818109C
:102D4000081AADF81800BDF81600801CADF8160082
:102D5000BDF81A00801EADF81A000498B0F9602082
:102D6000B0F95E1005A806F01BFB04A803F05EFE98
:102D7000022006F0E5FD304603F0ECFD3A4605A9D9
:102D8000079001E00BE006E004F09AFB0DF11C0057
:102D900003F04CFE08E00121BEE70221BCE704A8D5
:102DA000F6E7206815F0AAFA09B00020F0BD00008F
:102DB000C09F08084FF480720029114601D013F01B
:102DC0007ABE13F0C4BD08B50023009300F001F8EB
:102DD00008BD70B516460C46054619463046049A9D
:102DE00004F01CFA024621462846BDE8704000F077
:102DF0002DB82DE9FF410E4605004FF0010421D00A
:102E000005F06CFD284603F0A5FD0190876E01A832
:102E1000009703F00BFE3146684608F099FB78B145
:102E200000980024B84208D0284603F093FD019092
:102E30000099816601A803F0F9FD284614F008FF07
:102E400007F0BAFB04B02046BDE8F081F8B515469E
:102E50000C46060018D005F041FD304603F07AFD1F
:102E60000090032C0BD200EB84006C3003F0C8FC04
:102E7000009800EB8400C566304614F0E9FE684611
:102E800003F0D4FD07F098FBF8BD00BFFEE7F8B5EE
:102E9000446805460146204613F078FD002836D0E8
:102EA00028680B2839D00E2805D00F2821D0B0F57E
:102EB000107F3CD12CE0204603F04CFD009010F830
:102EC000746F4778684603F0B1FD204615F0E0FDC9
:102ED00010B3E8684168002929DD0068202826D160
:102EE0007F1CB7FBF6F006FB1071204600F031F9AD
:102EF0001DE02546204603F02DFD0090006F04687C
:102F0000684603F093FD002C01D02846A047F8BD89
:102F10002946204621F03AFE09E0204603F01AFD3A
:102F20000090783003F06CFC684603F07FFD284683
:102F3000BDE8F84014F008B9F0B585B0B0F9085014
:102F4000468A84690296CDE903540027CDE900172B
:102F5000B0F90C10B0F91050B0F90E40B0F90A00F9
:102F6000194410442B46224600F002F805B0F0BD8B
:102F70002DE9F04F85B01D46DDE90E9716468A46CD
:102F80008346DDF8488005F0A9FC254C0EB135B12B
:102F90000AE020688068006880470646F7E72068F6
:102FA00080680068804705461D486FF07041001D2D
:102FB000C068884201D147F0010708F15400194A5E
:102FC000CDE90220CDE900972B46324651465846BE
:102FD00014F002F805001CD003F0BCFC1022049091
:102FE000119913F047FE0E4904983C22091D343014
:102FF000FDF788F9049821680167022180F87410B0
:103000000F21C16704A803F011FD2068416828461C
:10301000884707F0D1FA05B02846BDE8F08F0000D8
:10302000180400208F2E00082DE9FF470446006891
:1030300010B115F02DFD68B10022314850F8221072
:1030400060680A2841D007DCF0B306280DD00728B5
:1030500054D106E00122F0E712280AD019284DD1F8
:1030600037E0204619F03CF848E020461BF0CCF849
:1030700044E0206803F06EFC0290B0F9548090F8B0
:103080005650476C466B02A803F0D0FC206800F055
:1030900039F88146684614F06DF9BDF8001009EB67
:1030A00005000844ADF80000246A304606F0A8FB8D
:1030B000022006F045FC384606F06DFB42466946A4
:1030C000204604F0FDF919E007E020461BF0E9FB7B
:1030D00014E0886904B0BDE8F087206815F00EF9A7
:1030E000206803F037FC0390B0F90610B0F9022015
:1030F000891A491CC16703A803F098FC0020E9E77E
:1031000038A0080838B5044605F0E8FB204603F06F
:1031100021FC0090C46F684603F088FC07F04CFA6D
:10312000204638BD38B50C46050011D005F0D6FB59
:10313000284603F00FFC0090416BA14203D044638A
:10314000284614F085FD684603F070FC07F034FA59
:1031500038BD38B50C4605001BD005F0BFFB28462E
:1031600003F0F8FB009090F87410A1420CD980F89D
:103170007540684603F05AFC284614F069FD0521A5
:10318000284614F049FE02E0684603F04FFC07F0C1
:1031900013FA38BDFEB50D46040022D0002D20D014
:1031A00005F09CFB204603F0D5FB0190866F01A83B
:1031B000009603F03BFC2946684608F0C9F970B157
:1031C0000098B04208D0204603F0C4FB019000995B
:1031D000816701A803F02AFC204614F039FD07F0AE
:1031E000EBF9FEBD00B589B024216846FDF7B2F8C1
:1031F0001920019003480068806841686846884744
:1032000009B000BD1804002010B500F021F800F04E
:1032100019F810BD10B5002400BF00BFFCF7FAFF7D
:10322000044600BF00BF102105480CF08DF900BF17
:1032300000BF2046FCF7F2FF00BF00BF10BD00003A
:10324000D4FF002010B5FFF7E5FF10BD00BFFEE77B
:1032500010B500200249086000F00AF810BD000017
:10326000CC0000200149086070470000CC0000201D
:1032700010B5FFF771FA04460848006840F0807006
:10328000064908600020064948600846006840F08A
:10329000010008602046FFF7E5FF10BDFCED00E0EF
:1032A000001000E00149486870470000001000E08D
:1032B00010B5022028F0A2F910BD000010B50020C2
:1032C0000E4908600E48006820F0C0000C490860F4
:1032D0000846006840F04000086000200949C1F835
:1032E0008C02FFF7E5FF012004490860FFF7E0FFCB
:1032F00000200549C1F8980210BD000098824342A1
:103300000020024000004442008043421CB50121DD
:10331000802010F027FA0121080210F023FA402043
:10332000009001208DF8040000208DF80600012097
:103330008DF8070002208DF805006946074802F065
:10334000A3FD082000906946054802F09DFD01207C
:10335000044908600449C1F898021CBD001C0240E1
:10336000002002408C0244420080434210B50020FD
:103370000E4908600E48006820F0C0000C49086043
:103380000846006840F04000086001200949C1F883
:103390008C02FFF78DFF012004490860FFF788FFCA
:1033A00000200549C1F8980210BD000098824342F0
:1033B00000200240000044420080434270B50546B0
:1033C00000241648006820F0C00014490860084630
:1033D000006808601E2028F011F9002613E0002084
:1033E0000F490860FFF764FF01200E49C1F89802F9
:1033F0006006040E0C48006808B1601CC4B2FFF7F8
:1034000057FF701CC6B2082EE9DB15B9FFF7AEFFF7
:1034100001E0FFF753FF204670BD0000002002408E
:1034200098824342008043420C02444270B50446F5
:103430001348006820F0C000114908600846006881
:1034400040F04000086000200E490860002513E0AD
:10345000E0090D4908606006040EFFF729FF01200E
:103460000A49C1F89802FFF723FF002005490860C8
:10347000FFF71EFF681CC5B2082DE9DB70BD000018
:1034800000200240988243428C0244420080434222
:1034900010B50F48006820F0C0000D4908600846CC
:1034A000006840F04000086001200A4908600A49AD
:1034B000C1F898021E2028F0A1F8002005490860F4
:1034C000FFF7F6FE00200449C1F8980210BD000085
:1034D000002002408C0244420080434210B50F4855
:1034E000006820F0C0000D4908600846006840F000
:1034F0004000086000200A4908600A49C1F88C02AF
:103500001E2028F07BF8012005490860FFF7D0FE57
:1035100001200449C1F88C0210BD000000200240C7
:10352000988243420000444210B5002412480068CB
:1035300020F0C000104908600846006808600120BB
:103540000E4908600E49C1F89802FFF7B1FE09E084
:10355000601CC4B2FA2C03DDFFF7C0FF012010BDD0
:10356000FFF7A6FE0548803800680028F0D105491D
:10357000086000BFF3E70000002002408C024442D4
:10358000008043429882434270B58CB0044665681F
:1035900003A9002010F058FB02A9002010F02EFB18
:1035A0009DF80E0000909DF80D309DF80C2011A1A3
:1035B00004A824F05FFD40F60F01284613F01EFF1B
:1035C000064604A912F08DFE9DF80A0000909DF8B1
:1035D00009309DF80B200AA104A824F04BFD4FF4FC
:1035E0000161284613F00AFF064604A912F079FE8D
:1035F0000CB070BD25643A25643A256400000000D3
:10360000323025642F25642F2564000070B5002515
:103610004FF4803400E0641E24B1802011F0EAF8F9
:103620000028F8D014B90325284670BD40F2FF5099
:1036300011F09CF82846F8E72DE9F04106460027EE
:103640004848056801E04748056805F0450000283E
:10365000F9D005F0040030B10327042011F086F8FA
:103660003846BDE8F08105F0010028B101270120AE
:1036700011F07CF83846F4E711F0B6F8B04202D009
:1036800010273846EDE740F2FF5011F06FF80020A8
:1036900011F0D0F804463448204008B93846E0E735
:1036A00004F0004008B11C20DBE704F0804008B1C2
:1036B0000920D6E704F0005008B10A20D1E704F051
:1036C000805008B10B20CCE704F0006008B10C205A
:1036D000C7E704F0806008B10D20C2E704F08070F5
:1036E00008B10E20BDE704F4000008B10F20B8E7D0
:1036F00004F4800008B11020B3E704F4001008B10E
:103700001120AEE704F4801008B11220A9E704F4F8
:10371000002008B11320A4E704F4802008B114208D
:103720009FE704F4003008B115209AE704F48030D4
:1037300008B1162095E704F4004008B1172090E77F
:1037400004F4804008B118208BE704F4005008B15D
:10375000192086E704F0080008B11A2081E73846EE
:103760007FE70000342C014008E0FFFD70B5002524
:103770001048046801E00F48046804F04500002880
:10378000F9D004F0040028B10325042010F0EEFF66
:10379000284670BD04F0010028B10125012010F079
:1037A000E5FF2846F5E740F2FF5010F0DFFF28461E
:1037B000EFE70000342C014070B500250B48046889
:1037C00001E00A48046804F045000028F9D004F03C
:1037D000040028B10325042010F0C8FF284670BD5E
:1037E00040F2FF5010F0C2FF2846F8E7342C0140A9
:1037F0002DE9F04106460F464FF0000822480568C3
:1038000001E02148056805F045000028F9D005F0E1
:10381000040038B14FF00308042010F0A7FF404621
:10382000BDE8F08105F0010030B14FF00108012042
:1038300010F09CFF4046F3E710F0D6FFB04203D0F3
:103840004FF010084046EBE740F2FF5010F08EFFBB
:10385000002010F0EFFF044604F4604018B9200C7B
:1038600038804046DCE704F4005008B11320D7E765
:1038700004F4804008B11020D2E704F4004008B1FD
:103880000F20CDE74046CBE7342C014070B5002631
:103890004FF480350F48046802E06D1E0D4804683F
:1038A00004F0450008B9002DF7D115B104F004006B
:1038B00028B10326042010F059FF304670BD04F0F3
:1038C000400028B10026402010F050FF3046F5E7B8
:1038D0003046F3E7342C01407CB513F079FD054602
:1038E000002000902B46064A0D210190054803F068
:1038F00069FB044600200449087020467CBD000096
:103900008D9E0208C0C60508B00000207CB513F0EB
:103910005FFD0546002000902B46044A04210190DB
:10392000034803F04FFB044620467CBD59A702081C
:103930002CC8050810B500241448006820F00C00BD
:103940001249086008460068086004E0601CC4B2C0
:10395000012027F053FE0E48006808B1642CF5DB07
:10396000642C01DB012010BD002404E0601CC4B203
:10397000012027F043FE0648006808B9642CF5DBF7
:10398000642C01DB0120EEE70020ECE70008024098
:103990000402414210B5002404E0601CC4B20120BE
:1039A00027F02CFE0D48006808B1642CF5DB0024DC
:1039B00004E0601CC4B2012027F020FE0748006824
:1039C00008B9642CF5DB1E2027F018FE03480068B8
:1039D00008B1012010BD0020FCE7000004024142B4
:1039E00070B50024002506E06006040EFFF7D2FF44
:1039F0000443681CC5B2082DF6DB204670BD2DE9D6
:103A0000FC4105460E4600F031F8FFF793FF40BB3E
:103A1000002405E0FFF7E4FF0DF80400601CC4B2C9
:103A2000052CF7DB9DF800009DF8011008449DF877
:103A3000021008449DF8031008449DF804108842C1
:103A400012D1684612F04EFE074627F0FDFE308088
:103A50000DF1020012F046FE074627F0F5FE288021
:103A600002E00120BDE8FC810020FBE710B50C4816
:103A7000006820F00C000A4908600846006840F021
:103A800004000860002007490860142027F0ACFDFE
:103A900001200549C1F884021E2027F0AFFD10BDAA
:103AA0000008024084024142000041421CB501214D
:103AB00004200FF057FE0220009001208DF8040032
:103AC00000208DF8060001208DF8070002208DF8F7
:103AD00005006946034802F0D7F9FFF7C7FFFFF773
:103AE00029FF1CBD00080240022001498860704780
:103AF00000B0024010B511F01BFE10BD0246094B8C
:103B00009A4201D2084801E00648103801F00053FB
:103B10001BB1064B0B40C36002E0044B0B408360BB
:103B20007047000010640240006002407D0F7D0F6E
:103B300021B1026842F00102026003E0026822F053
:103B40000102026070470000016821F0010101607C
:103B50000021016041608160C160016121214161FA
:103B60004A49884204D13D21484A103A91608CE08C
:103B700046491831884205D14FF47461434A103ADE
:103B8000916082E041493031884205D14FF474118F
:103B90003E4A103A916078E03C494831884205D16C
:103BA0004FF07461394A103A91606EE037496031E4
:103BB000884204D13649354A103AD16065E033492C
:103BC0007831884204D13349304A103AD1605CE000
:103BD0002E499031884204D12F492C4A103AD160A5
:103BE00053E02A49A831884205D14FF03D51274A78
:103BF000103AD16049E02949884204D13D21274A41
:103C0000083A116041E025491831884205D14FF446
:103C10007461224A083A116037E020493031884205
:103C200005D14FF474111D4A083A11602DE01B496B
:103C30004831884205D14FF07461184A083A116042
:103C400023E016496031884204D11149134A121FFA
:103C500011601AE011497831884204D10D490F4AA8
:103C6000121F116011E00D499031884204D10A49B8
:103C70000A4A121F116008E00849A831884204D19D
:103C80004FF03D51054A121F11607047106002400D
:103C90003D000020400F002000003D201064024045
:103CA00021B1026842F02002026003E0026822F0C3
:103CB00020020260704710B501F080034BB122B1C1
:103CC000436943F08003436103E0436923F08003C9
:103CD000436180290BD02AB1036801F01E042343FD
:103CE000036004E0036801F01E04A343036010BDF9
:103CF00010B500220268134B1A40CC680B682343AE
:103D00004C6923438C692343CC6923430C6A2343C6
:103D10004C6A23438C6A23434C6B23438C6B2343B1
:103D20001A430260426922F00702D1E90B342343AF
:103D30001A4342610B6943604B6883608B68C360C0
:103D400010BD00003F801CF02DE9FC410C46050031
:103D500038D004F0C3FD112C14D0132C28460ED0FB
:103D600002F0F8FD009000F0FCFB0646684602F009
:103D70005DFE204623F02FFA074600241CE000F0E9
:103D800006FB1BE0284600F087F917E0214628468D
:103D900000F0EAFB019070B1007823F01CFA00F00B
:103DA000FF0801A802F042FEB84504D1214628468A
:103DB00000F08EFB02E0641CB442E7DBBDE8FC418E
:103DC00006F0FABBBDE8FC81F8B50C46050018D03A
:103DD000002C16D004F082FD284602F0BBFD0090B6
:103DE000C66B684602F022FE2046FCF7D0FA421C61
:103DF0002146304602F03CFE284613F029FF06F02B
:103E0000DBFBF8BD2DE9FF4145680446284602F07A
:103E1000A1FD0190D0F8886001A802F007FE0EB164
:103E2000012700E000272146284612F0AFFD0028B8
:103E300056D02068112844D006DC0B2863D00E2809
:103E400078D00F282BD14FE0212805D026281AD072
:103E5000B0F5107F23D139E0E068416800291EDD0C
:103E600000680D281BD1304609F05DFE002806DBF6
:103E7000304609F058FE0146284600F029FB284646
:103E800000F07EF875E0E068012809D00A2802D029
:103E90000B2871D111E00A21284613F0BDFF6BE019
:103EA000304609F040FE002866DB304609F03BFE54
:103EB0000146284600F00CFB5BE0284600F060F865
:103EC0005AE0FFB9E068007A98BB55E0E06848B175
:103ED000007A08B1012100E00221284613F09CFF7E
:103EE000BDE8FF810321F8E72E46284602F032FDA7
:103EF0000290D0F88400056802A802F097FD0DB189
:103F00003046A84738E0284602F024FD0090C06BF8
:103F100002F0EEFD0098D0F8880013F04DF90098FB
:103F2000D0F8940002F048FC684602F07FFD23E0E0
:103F300000E016E0E068416800291DDD01682029E5
:103F40000FD006DC092910D00A2915D01B2904D16D
:103F500012E0212910D022290ED02846FFF7F4FEC6
:103F6000BEE7284600F0FAF806E013F08DFAB042FA
:103F700002D1284614F016F9204613F0E5F8AFE711
:103F800038B5040016D004F0A9FC204602F0E2FC8B
:103F90000090D0F8880040B113F00EF9009900208D
:103FA000C1F88800204613F053FE684602F03EFD3B
:103FB00006F002FB38BDF0B585B0B0F90850468A6E
:103FC00084690296CDE903540027CDE90017B0F9C2
:103FD0000C10B0F91050B0F90E40B0F90A001944B5
:103FE00010442B46224600F003F805B0F0BD000057
:103FF0002DE9FF5F1D46DDE90F8691468A4683461F
:104000000E9F129C04F06AFC21496C34CDE9021425
:10401000CDE900784FF0FF334A465146584612F03A
:10402000DBFF04002DD002F095FC102200901199C6
:1040300012F020FE00983822164980F88C604C302F
:10404000FCF760F9134E0098361F3168C0F88410F1
:10405000002180F89010C586204600F061FA68467D
:1040600002F0E4FC02F041FD0546204602F072FC3D
:104070000090C563684602F0D9FC3068416820466C
:10408000884706F099FA04B02046BDE8F09F00008A
:10409000053E00085C04002010B5044600F063F9FA
:1040A000010000D0411E2046BDE8104000F010BACB
:1040B000F8B50546006802F04DFC0090448ED0F83B
:1040C0008860684602F0B2FC06B1012604F00104E3
:1040D000286814F0DDFC0EB1002006E00CB10120D0
:1040E00003E008B1022000E003201B4951F8201032
:1040F000686858B302280CD0052802D0122828D1AD
:1041000003E0284618F018F823E028461BF063F96E
:104110001FE06A69E8694FF0FF33801AA0F10802D6
:1041200003EB6204421CAB69001B4510A3EB620663
:10413000C86905F030FB06E03219311B284603F050
:1041400075FB641E6D1C002CF6DA02E0286814F082
:10415000D5F80020F8BD000040A008082DE9F14F77
:104160009EB01E9800287DD004F0B8FB1E9802F087
:10417000F1FB0B901E9813F092FA03900B98B0F994
:10418000367090F890101891C16B0A9190F88C904D
:10419000B0F93410159100F0E4F982460B9804ACA4
:1041A000B0F88E101491B0F982101391C16C129175
:1041B000D0E90012CDE90C12D0F894B0002100BF74
:1041C00000EB8102126D44F82120491C0329F7D32A
:1041D000002107AD00EB8102D26D45F82120491C7A
:1041E0000329F7D300210EAE00EB8102126F46F8CF
:1041F0002120491C0329F7D30BA802F017FC1E98B5
:1042000013F0DFF902F0A6FB1190D0F8008011A89E
:1042100002F00CFC4FEA284042420FFA88F041427B
:104220000CA805F0BDF85FEA897003D5BDF832002F
:10423000C01B01E0BDF83600ADF832001E9813F047
:10424000C0F9014603980222CDE900070292BDF9A8
:104250003230BDF93020002009F0F5FB80465FEADE
:10426000C97000E07CE007D04046189909F0A9FE2B
:104270000121404609F0CAFD002708E039460A98A6
:1042800002F097FC0146404609F098FA7F1C57451A
:10429000F4D30027394654F82720404609F0E0FDC2
:1042A0007F1C032FF6D30024214655F824204046D6
:1042B00009F020FF641C032CF6D30024214656F895
:1042C0002420404609F05DFE641C032CF6D3BBF1AC
:1042D00000001FD002F03EFB169030F8025B002475
:1042E0000646012711E000BF06EBD40004F00701E9
:1042F000007807FA01F1084201D0012200E0002213
:104300002146404609F0DEFD641CAC42ECDB16A8F9
:1043100002F08CFB4046149909F007FE40461299C2
:1043200009F0B7FD4046139909F0CFFE404613F05F
:1043300039FF40461E9909F00FFE4046159909F0D5
:104340005DFE01211E9813F067FD1E9802F002FB2E
:104350000B90C0F888800BA802F068FB06F02CF9DF
:104360001FB0BDE8F08F38B505004FF000040CD049
:1043700004F0B4FA284602F0EDFA0090B0F93440A7
:10438000684602F053FB06F017F9204638BD10B519
:104390000446FFF7E8FF411C2046BDE8104000F04E
:1043A00097B8F8B50E46040021D004F097FA2046DD
:1043B00002F0D0FA009090F88C10D0F8885021F0DC
:1043C00001040EB144F00104A1420BD080F88C40EE
:1043D000684602F02BFB45B104F00101284609F0C4
:1043E00015FD02E0684602F021FB06F0E5F8F8BD95
:1043F000F8B50C46060028D004F070FA304602F0FA
:10440000A9FA0090D0F88850C06C03F02DFF074641
:104410000098C464684602F009FB304600F080F85A
:10442000304613F015FC75B1204603F01DFFB8426D
:1044300005D03046FFF7A4FD3046FFF78FFE21463A
:10444000284609F026FD06F0B7F8F8BDF8B50C4689
:1044500005004FF0000618D004F040FA284602F09C
:1044600079FA0090B0F93660D0F88850C486684672
:1044700002F0DCFA3DB1284613F011F9014622465C
:10448000284613F090FF06F097F83046F8BD38B58F
:104490000C4605001BD004F021FA284602F05AFA17
:1044A000009090F89010D0F888508C420AD080F894
:1044B0009040684602F0BAFA3DB12146284609F01C
:1044C00080FD02E0684602F0B1FA06F075F838BDEA
:1044D00038B50C46050022D004F000FA284602F058
:1044E00039FA009000F03DF800B1401E844200DD32
:1044F00004460098B0F93410A1420BD08486684677
:1045000002F094FA284613F0A3FB0421284613F086
:1045100083FC02E0684602F089FA06F04DF838BDE7
:10452000F8B5044602F016FA01460090B0F93800DA
:1045300010B9C86C03F098FE0099CA6AB1F98030CE
:10454000126800EB43001618084614F01FF90546E0
:10455000684602F06BFA32462946204613F023FFE4
:10456000F8BDC06B02F019BB38B50D46002402F04F
:10457000F1F90090C06B294602F01BFB0546684626
:1045800002F054FA1DB1284602F0E4F90446204630
:1045900038BD704700B587B0012108460FF0E2F83A
:1045A000012110200FF01EF907220A211D4801F0F9
:1045B000B3FC072209211B4801F0AEFC00208DF856
:1045C0001A0001208DF81B0002208DF8180000024F
:1045D000059002208DF8190005A9124801F054FC3D
:1045E00002208DF818004002059005A90D4801F041
:1045F0004BFC4FF4E13001900020ADF80800ADF81D
:104600000A00ADF80C00ADF810000C20ADF80E005B
:1046100001A9054812F0FEF80121034812F092F8B2
:1046200007B000BD00000240001001400FB4F0B51B
:104630002DED028B81B09FED3F0BB0EE408AF0EE86
:10464000608A002500260027002409A80090089C05
:1046500065E0207825285ED1601C04460078642837
:104660001FD00CDC582847D004DC25284BD042282A
:104670004DD139E0622836D0632848D108E0662859
:1046800017D069280ED0732826D078283FD132E081
:10469000009810F8041BCFB2009038462BF03CFC79
:1046A00036E000BF009820C8009028462BF03EFC62
:1046B0002EE00098C01D20F007000090B0EC020B27
:1046C000B0EE408AF0EE608A0090B0EE480AF0EE5C
:1046D000680A2BF047FC1BE0009840C80090304669
:1046E0002BF0A0FC14E000BF009820C800902846E2
:1046F0002BF0F8FB0CE000BF009820C80090284683
:104700002BF066FC04E025202BF006FC00E000BF47
:1047100000BF641C03E014F8010B2BF0FDFB2078B4
:10472000002896D1009001B0BDEC028BF0BC5DF882
:1047300014FB0000000000000000000010B502465D
:1047400000200023102A03D14FF02044636E0FE0B5
:10475000B2F5807F02D10A4C236809E0B2F5805F90
:1047600003D1074C2034236802E0054CD43423687D
:1047700003EA01048C4201D0002000E0012010BDBA
:10478000840000A00021D0E900231A4383685B1E47
:1047900042EA4312C36842EA4321014A116070476A
:1047A000500100A070B500220021002300240568FC
:1047B000AD00A5F1C045D5F840216FF30E02D0E958
:1047C00001563543C6683543066935434669354366
:1047D00086693543C6693543066A3543466A3543BB
:1047E0002A43056835B90568AD00A5F1C045C5F88F
:1047F000402111E03B4D2B686FF30E03D0E90756C3
:104800003543466A35432B43364D2B600568AD0072
:10481000A5F1C045C5F84021056875BB314D083587
:10482000066855F8261001F07041856A2D686D1EE6
:10483000866A7668761E45EA0616856AAD686D1E3C
:1048400046EA0526856AED686D1E46EA0536856AE4
:104850002D8A6D1E46EA0546856AAD8A6D1E46EABA
:104860000556856A2D7E6D1E46EA056529431D4D58
:104870000835066845F8261032E0FFE7194D08357F
:10488000066855F8261001F07041856A2D686D1E86
:10489000866A7668761E45EA0616856AAD686D1EDC
:1048A00046EA0526856A2D8A6D1E46EA0545294396
:1048B0000C4D08352C6804F07044856AED686D1E57
:1048C0002E03856AAD8A6D1E46EA05552C434FF0CE
:1048D0002045C5F84841034D0835066845F82610BF
:1048E00070BD0000400100A00449096841EA400190
:1048F0004FF02042C2F8541170470000540100A04C
:104900002DE9F04389B0984615460F4606004FF052
:1049100000042CD000F0A8FB0446304600F08BFBCE
:10492000814603F0DBFF03A9304600F0AEFCF80738
:1049300006D0BDF91C008221001B401B401C08E072
:10494000B807BDF91800284402D540F2022100E062
:1049500002210096CDE9018123461A464946FEF719
:104960009DF80446002112F0CAF805F025FE09B0B2
:104970002046BDE8F083000010B50523FFF7C0FF17
:104980000446054A0021FEF71EFA0449204613F0AA
:1049900074FB204610BD000021BF0108799E02086B
:1049A0002DE9F047044640688EB00027804601F0AC
:1049B000D1FF0090B0F87CA0D0F86890D0F880606B
:1049C000D0F88850C06D00B10768684602F02EF834
:1049D00005E0696820468847002843D12D68002DEE
:1049E000F7D12068172853D00CDC0F283DD004DC09
:1049F0000B2877D00D2825D18BE0112810D0142852
:104A000020D13BE0262846D004DC1E2851D02028A7
:104A100018D18AE02A2816D0B0F5107F12D128E0EC
:104A20004046E56801F096FF0290697A39B9297A23
:104A3000012904D130F87C1F41F48071018002A863
:104A400001F0F4FF75E0404601F084FF0090E1685A
:104A500011B1C0F8841002E0D0F88400E06068462C
:104A600001F0E4FF0EB0BDE8F087D7B34046B84789
:104A70005FE02146404620F0BFF8F3E705A9404635
:104A800000F003FCE0680699016007994160E9E7DE
:104A9000C4F80C90E6E7E0680228E3D1CDF8308056
:104AA000E0680D9027200A900AA9A06814F0EAF99E
:104AB000D8E7E068012804D00021404600F0F1FA70
:104AC000D0E7304613F02DF968B1304613F06AFB99
:104AD000304612F0E9FF98B10121304611F0EBFFAA
:104AE0000EE026E02FE0484613F0B0FB06464046B5
:104AF00001F030FF0090C0F88060684601F096FF3A
:104B00000121404600F0CDFA002EABD10020E0603C
:104B1000A8E75FEA0A700CD4E068C06848B1007A80
:104B200038B1404613F03EFB03E0214640461FF0FB
:104B3000F6FA2146404611F029FF002892D020467F
:104B400012F002FB8EE7404601F004FF0090703047
:104B500001F056FE684673E7F0B587B0B0F908403B
:104B60000DF10C0C0C9E876945688CE8F000448AB6
:104B70000025CDE900150294B0F90C10B0F91050E1
:104B8000B0F90E40B0F90A00194410442B462246F1
:104B900000F002F807B0F0BD2DE9F04F8BB0984659
:104BA000DDE9155691468A468346149F1A9C03F008
:104BB00095FE3348603445F48055CDE90204CDE9D3
:104BC000007543464A465146584612F005FA04001D
:104BD0004FD001F0BFFE30220490179912F04AF82E
:104BE0000498282227493430FBF78CFB0498199944
:104BF000244F4166A0F87C600026C0F88060C6663D
:104C0000083FC0F888607968C16504A801F00EFF0C
:104C100005A9204600F039FB1B4841F2827103963A
:104C20000094CDE90110BDF91E00BDF91A10BDF9BF
:104C30001C20431ABDF918005B1C121A521C12F0FA
:104C4000CBF906467868416820468847204601F03F
:104C500081FE0490866604A801F0E8FE42F204009A
:104C6000054202D1204612F01FFB2046189900F0A1
:104C700076FA05F0A1FC0BB02046BDE8F08F0000ED
:104C8000A14900089C040020915500082DE9F0413D
:104C9000044694B0006800F0B7F908B1D94D01E0BE
:104CA000D84D2C35606815281ED00CDC0B281FD081
:104CB00004DC00287ED005287DD12FE10E287BD092
:104CC0001228F9D141E1162806D0172808D0182853
:104CD00008D01C28F0D109E0E86914B0BDE8F081E3
:104CE000286AFAE7686AF8E7A86AF6E76869F4E705
:104CF00020680B901C200C90206801F02BFE039084
:104D0000016D0BA88847064603A801F08FFE022E0E
:104D10000FDB95E807008DE80700D4E9040233466D
:104D2000A16906F089F820698719A069A0EB060837
:104D30002CE0286804F02FFD2169E8690A18521E4A
:104D4000606902F073FDA269E869111A491C606983
:104D500002F06CFDD4E904077F1C394602F0B6FD71
:104D60003946A06902F0B2FD686804F014FD2069BC
:104D70003946401C02F0AAFDA0693946401E02F0E7
:104D8000A5FDA0692769A0F10208BF1C286804F0EE
:104D900002FD42463946606902F048FD686804F049
:104DA000FAFC606942463946401C02F03FFD686AE1
:104DB000022802E015E1B0E000E10BDDA86804F094
:104DC000EAFC61696A6A881C8B18014642463846CB
:104DD0005B1E27E0296AB14226DD6069022E074684
:104DE00000F1020801DB374401E007F10207206906
:104DF00001DB304401E000F1020022693B460A4435
:104E00004146A2F1010202F03BFE022E02DBA06944
:104E1000821B01E0A269921EA069E9693B46401A23
:104E20004146401C02F02CFE022E02DB6069064463
:104E300001E06669B61CE76928687F1E04F0ABFCD8
:104E40003A463146206902F0A7FD3A463146A0694C
:104E500002F0A2FDE7696868BF1E04F09CFC2069AF
:104E60003A463146401C02F097FDA0693A46314669
:104E7000401E02F091FDE869022802DC286A02283F
:104E800023DDA86A022802DDE1690F1A01E0E76963
:104E9000BF1EA86804F07FFCE969022909DD2069CA
:104EA0003B46421800F1020C31466046521E02F0A9
:104EB000E7FD286A022808DDA269E8693B46101A66
:104EC0003146401C921E02F0DBFD286804F063FCB2
:104ED000D4E90620216902F0A9FC686804F05BFCB3
:104EE000D4E906202169401E491C521E02F09EFC96
:104EF000A86A022811DDA1692669E469A1F1020806
:104F0000271AA41EB61C7F1CA86804F044FC234684
:104F100042463946304602F0B3FD71E0208A00B2C5
:104F2000ADF81400A18A09B2ADF81610228B12B2A6
:104F3000ADF81820A38B1BB2ADF81A302C69ED68C0
:104F4000CDE9005402F036FC5AE0208A298B08444F
:104F5000ADF81400A08AADF81600208B298B401AFA
:104F6000ADF81800A08BADF81A00206801F0F2FC33
:104F70000390006FF0B1022004F0E2FC039890F877
:104F80007C10C1F3C00100EB8100006C04F003FC55
:104F90000398406B04F034FC0398006F01F0DAFCD6
:104FA00003990990B1F95A2005A902F089FA09A8D4
:104FB00001F03CFD03A801F039FD21E0208AADF8A5
:104FC0001400A08AADF81600208BADF81800A08B55
:104FD000ADF81A00A86804F0DEFB05A802F07CFD1D
:104FE0000EE0206801F0B6FC039030F85A1F41F043
:104FF0000C01018003A801F019FD206813F07EF96F
:1050000000206AE6CC08002038B505004FF0000407
:105010000FD003F063FC284601F09CFC009090F850
:105020007C00000700D50124684601F0FFFC05F074
:10503000C3FA204638BD38B505004FF0000411D042
:1050400003F04CFC284601F085FC0090C06D002167
:1050500080680268284690470446684601F0E6FCEE
:1050600005F0AAFA204638BD30B587B005004FF0EC
:10507000000413D003F032FC01A9284600F005F922
:10508000284601F067FC0090B0F95440684601F0F2
:10509000CDFC0CB9BDF9044005F08EFA07B02046EE
:1050A00030BD70B50D46040009D003F017FC294649
:1050B000204620F0DFFEBDE8704005F07DBA70BDEF
:1050C0002DE9FC410D46804603F008FCB8F10000D4
:1050D00028D001F03FFC0190C16D8C6800F03CF9D4
:1050E00007460198456301A801F0A0FC2268012150
:1050F00040469047064622680321404690470546B1
:1051000022680021404690470446404600F009FAD4
:105110002B46324639464046009400F092F940460C
:1051200012F096FD05F048FABDE8FC8138B50C4652
:10513000050013D003F0D2FB284601F00BFC0090D1
:1051400030F87C1F14B141F0100101E021F0100192
:105150000180684601F06AFC05F02EFA38BD7CB586
:105160000D4604001DD003F0B9FB204601F0F2FB10
:105170000090006F0190684601F058FC294601A894
:1051800006F0E6F958B1204601F0E4FB00900199E1
:105190000167684601F04AFC204612F059FD05F00F
:1051A0000BFA7CBD38B50C46050013D003F096FB16
:1051B000284601F0CFFB0090B0F95A10A14204D06C
:1051C000A0F85A40284612F043FD684601F02EFC34
:1051D00005F0F2F938BD000038B50C46050015D0D1
:1051E00003F07CFB284601F0B5FB0022CDF800005F
:1051F00000EB8201521C0C64022AF9D3684601F0CC
:1052000015FC284612F024FD05F0D6F938BD2DE92D
:10521000FC470D465FEA00094FF0000432D003F06E
:105220005DFB484601F096FB0190B0F95440A54261
:1052300023D000F091F8804601980121A0F8545045
:10524000C06D856848462A68904707462A6803214A
:105250004846904706462A6800214846904705463A
:10526000484600F05EF933463A46414648460095C6
:1052700000F0E7F8484612F0EBFC01A801F0D6FB7D
:1052800005F09AF92046BDE8FC872DE9F34F85B07B
:1052900000270C46B846059801F05CFB0090C06DF5
:1052A0000121856805982A68904782462A6803216B
:1052B0000598904704902A6802210598904703902A
:1052C0002A680021059890470646009813F05EFA78
:1052D0008346009813F061FA8146009890F83210E6
:1052E000890601D5B0F9588000F036F805460098D7
:1052F000C06E10B112F0EAF9074625806780A4F865
:1053000004A0049AABEB020006EB0802401E2A44FC
:1053100020813A44E280039BA9EB0302521E628182
:10532000A4F80CA020827019E681401E60826846B5
:1053300001F07CFBB4F90C000190B4F9100002906C
:1053400002AA01A9059800F039F80198A0810298F5
:10535000208207B0BDE8F08F10B50146002091F81B
:105360003220920607D5B1F95400002803D1486BCA
:1053700002F07CFF801C10BD70B58AB00C4605465B
:1053800001F0E8FA0990C06D866809A801F04EFBAB
:10539000009534B1012C06D0022C0BD0032C04D183
:1053A0000AE0182000E016200190716868468847DE
:1053B0000AB070BD1520F7E71720F5E72DE9FC418D
:1053C00017468846044601F0C5FA0090C16D05688D
:1053D00068468E6801F02AFB32680021204690471B
:1053E0000646204612F032F827E000BF01F0B2FA7C
:1053F0000190B0F900102AB2B0F90430891A9A1A53
:10540000B0F90230A3EB2543B34210D190F8280045
:10541000000605D53868884209DB491E396006E078
:10542000D8F80000904202DC521CC8F8002001A805
:1054300001F0FCFA204612F0B7F80400D6D1BDE81E
:10544000FC812DE9FF4F83B00E460746DDF8409002
:1054500001F080FA0190C16D8D68FFF77DFF044671
:1054600001A801F0E3FA2A680121384690478346F3
:105470002A6803213846904782462A680021384628
:1054800090470546B44207D105998B4504D106994A
:105490008A4501D14D4541D0A41B0026B04638466F
:1054A00011F0D4FF38E001F055FA0090806A01064F
:1054B00001D5800502E0810528D50006002825DBFE
:1054C00024B122461146384612F0E3FC009890F8C9
:1054D000280000060AD50698A5EB0902A0EB0A00F1
:1054E00004FB16013846761C12F087FC0098008DEC
:1054F00080050BD50599A5EB0902ABEB010004FB78
:10550000080108F10108384612F077FC684601F0FE
:105510008DFA384612F048F80700C4D107B0BDE84C
:10552000F08F70B586B0064601F014FA0590D0E908
:105530001A4505A801F07AFA54EA050026D0694612
:105540003046FFF7A2FEACB1BDF90620BDF904104C
:10555000204612F025FCBDF90A00BDF90610421ADA
:10556000BDF90800BDF90410521C411A2046491C1F
:1055700012F019FF002D09D0BDF90600BDF9021087
:10558000421ABDF90410284612F00AFC06B070BD9C
:105590002DE9F0430446406889B0054612F011F841
:1055A000814601F0D7F90290D0F84880D0F8807099
:1055B000466E02A801F03AFA2068172853D008DC9A
:1055C0000E283AD00F2811D014284CD015283DD1E0
:1055D00049E01E281ED01F282AD0222840D031287A
:1055E00034D10020E06009B0BDE8F0836FF0704175
:1055F0004046884503D007F09FFC01F097FC002E41
:10560000F1D0D4E902122068CDE90405CDE90612F3
:1056100004A81FE0E0680028E5D02FB1AF4203D016
:10562000384612F0BFFDDEE7284612F00FFEDAE73B
:105630002146484611F0AAF9D5E7E06841680029FB
:1056400004DD00680928EFD00A2805D05EB12046A5
:10565000C4F80490B047C6E7284612F02BFEC2E714
:10566000C4F80C80BFE7204611F06EFDBBE70000D8
:105670002DE9FC4107460D4600260024002000903D
:10568000019008205B490860102048604020886035
:105690000020C8604FF48060086108460FF008F9E8
:1056A0001020FDF7C9FF044614B12046BDE8FC8177
:1056B0005148008800044F49086037204860402066
:1056C00088600020C8604FF48060086108460FF0D1
:1056D000EFF83720FDF7B0FF04460CB12046E5E7B0
:1056E0004FF0FF304549086008204860302088604E
:1056F0000220C860002008610120486108460FF0C0
:105700004DF800203B490860332048604020886005
:105710000020C8604FF48060086108460FF0C8F8A8
:105720003320FDF789FF04460CB12046BEE709E0AF
:105730004FF400100FF05EF820B10FF0B3F84DF801
:105740002600761C2E48006840F22A610840002896
:10575000EED008200FF04EF828B108200FF006F820
:1057600004242046A2E702200FF044F828B10220CA
:105770000EF0FCFF0224204698E720200FF03AF8B4
:1057800028B120200EF0F2FF062420468EE74FF4C9
:1057900000700FF02FF830B14FF400700EF0E6FFFC
:1057A0000724204682E740F2FF500EF0DFFF00980A
:1057B0000006009901F47F4140EA0120009901F4BC
:1057C0007F0140EA1120009940EA11606860019869
:1057D0000006019901F47F4140EA0120019901F49A
:1057E0007F0140EA1120019940EA116028602046BB
:1057F0005CE70000800B002028000020940B0020B4
:10580000342C01402DE9F0430446C56887B090462A
:105810008946002003F0E7FF064625B1287910B13C
:1058200046F0020001E026F0020003F0DCFF2069F0
:10583000012558B1D4E902128DE82600039563884A
:105840002288046841464846A0471EE0124F134B89
:10585000214638681B68427CE068984730B9E08888
:10586000012801D0002001E03868806BA288E3881D
:10587000A1680095CDE90410CDE902320195638855
:1058800022884146484606F085FD07B03046BDE80F
:10589000F04303F0A8BF0000CC020020BC020020AF
:1058A0001CB50024019401AC009400F0E7F81CBD85
:1058B0002DE9FF4F83B0814606988A46A0EB0A087F
:1058C000109E00200090A2EB09043568934654EA2C
:1058D000080018D02046FBF7B6FA07464046FBF70B
:1058E000B2FA87420BDA2046444680464846D14603
:1058F00082465846DDF818B0069001200090002C32
:1059000007DD204606E007B04846BDE8F04F00F04E
:105910003BB96042A0420AD04846D9466442C8F129
:10592000000883464FF0FF37DDF818A000E001279C
:105930005148B8F1000F11D004EBD4714FEA610B5C
:1059400001DACBF1000B4C480068807E88B3002F51
:1059500002DA30682044306000257BE0009900299D
:10596000016821D0897E11B10027804615E007B07B
:105970005A4649465046BDE8F04F06F06DBE2846EF
:105980006D1C20F075FB38B9D8F8000009EB070151
:10599000406E4268504690477F1CA742EFDD6D1E67
:1059A000356007B0BDE8F08F8A7E1AB100278046C7
:1059B00017E019E0486E5A465146036807B048465A
:1059C000BDE8F04F184728466D1C20F051FB38B950
:1059D000D8F8001009EB0700496E4A685146904715
:1059E0007F1CA742EFDDDAE700250FE008FB05B0DA
:1059F00090FBF4F101EB0A00009951B11E4A09EB4A
:105A000005011268526E526890476D1CA542EDDD8B
:105A1000C7E7194909EB05030968496E4A68014659
:105A20001846F1E708FB05B090FBF4F101EB0A0022
:105A3000019030683844306020F01AFB48B9009873
:105A400090B10D4809EB05010068406E426801986D
:105A500090476D1CA542E5DD3068002F01DA204437
:105A60003060C01B30609CE7034909EB0500096802
:105A7000496E4A680199EBE7CC0200202DE9FF4707
:105A80000F4640491646804609680C981D460A7E16
:105A9000012A1CD0A8EB0600791B50EA01031CD098
:105AA000A2F1010923F03EFE00F58060824605F078
:105AB00044FE00FB09F4504605F044FE00FB09F1EA
:105AC000002C0CDAC4F50070801240420AE000900D
:105AD000324639464046FFF7EBFEBDE8FF8704F546
