:020000040800F2
:10000000C8770120C101000861F1000803BA0008A7
:1000100075F00008272D0008655301080000000056
:100020000000000000000000000000005D4B01081F
:10003000DB430008000000001D0C00082109010836
:10004000FB010008FB010008FB010008FB010008A0
:10005000FB010008FB010008FB010008FB01000890
:10006000FB010008FB010008FB010008FB01000880
:10007000FB010008FB010008FB010008FB01000870
:10008000FB010008FB010008FB010008FB01000860
:10009000FB010008FB010008FB010008FB01000850
:1000A000FB010008FB010008FB010008FB01000840
:1000B000FB010008FB010008FB010008FB01000830
:1000C000FB010008FB010008FB010008FB01000820
:1000D000FB010008FB010008FB0100089151010829
:1000E000FB010008FB010008FB010008FB01000800
:1000F000FB010008FB010008FB010008FB010008F0
:10010000FB0100085D350108FB010008FB01000848
:10011000FB010008FB010008FB010008FB010008CF
:10012000FB010008FB010008FB010008F138000892
:10013000FB010008FB010008FB010008FB010008AF
:10014000FB010008FB010008FB010008FB0100089F
:10015000FB010008FB010008FB010008FB0100088F
:10016000FB010008FB010008FB010008FB0100087F
:10017000FB010008FB010008FB010008FB0100086F
:10018000FB010008FB010008FB010008FB0100085F
:10019000FB010008FB010008FB010008FB0100084F
:1001A000BDEA0008FB010008E5380008DFF80CD0C4
:1001B00000F048FC0048004791CB0208C8770120B6
:1001C000DFF83800016841F470010160BFF34F8F20
:1001D000DFF82C00016821F040410160BFF36F8F10
:1001E0000848804708480047FEE7FEE7FEE7FEE7CD
:1001F000FEE7FEE7FEE7FEE7FEE7FEE788ED00E04C
:1002000034EF00E0454C0108AD01000872B67047BC
:1002100062B67047EFF3108072B6704780F31088B3
:10022000704730BF704720BF7047B0FA80F070470A
:1002300090FAA0F0B0FA80F0704790FAA0F0704702
:100240002DE9F05F0546002092469B46884606460B
:10025000814640241BE0284641464746224600F09E
:10026000F3FA53465A46C01A914110D31146184624
:10027000224600F0DAFA2D1A67EB01084F462246B3
:100280000120002100F0D1FA17EB00094E41201E99
:10029000A4F10104DFDC484631462A464346BDE866
:1002A000F09F2DE9F0410024061B254671F1000660
:1002B00005DA01240027D0EB070067EB0101161EC9
:1002C00073F1000605DA0027D2EB0702012567EB80
:1002D0000303FFF7B5FF86460E4617469C46AC4221
:1002E00004D00025D0EB050E65EB010624B10020FB
:1002F000D2EB000760EB030C704631463A4663468A
:10030000BDE8F08110B5441A0346944209D284181E
:10031000114403E011F8013D04F8013D521EF9D2E9
:1003200010BD40EA0104A40703D009E010C9121F60
:1003300010C3042AFAD203E011F8014B03F8014B71
:10034000521EF9D210BDD2B201E000F8012B491EB5
:10035000FBD270470022F6E710B513460A46044662
:100360001946FFF7F0FF204610BD30B505462A4676
:100370000B4612F8010B13F8014B08B1A042F8D05C
:100380001CB1002802D06D1CF1E7284630BD421C8C
:1003900010F8011B0029FBD1801A704710B500220C
:1003A00000E0521C835C8C5CA34201D1002BF8D18D
:1003B000D8B2E1B2401A10BD30B504460020034661
:1003C00000E05B1C934203D2E05CCD5C401BF8D0A4
:1003D00030BD034611F8012B00F8012B002AF9D19A
:1003E000184670472DE9FE4F804681EA0300C00F92
:1003F0000C46009021F0004123F00045B8EB0200CC
:10040000A94105D24046214690461C460B4602466D
:1004100023F00040104347D0270DC7F30A00C3F371
:100420000A510290401A019040286BDAC3F313007E
:1004300040F4801B0098924620B10023D2EB030ABF
:1004400063EB0B0B01985946C0F14002504600F097
:10045000ECF906460D4650465946019A00F004FA5A
:1004600010EB08006141002487EA115284EAE77327
:100470001A4340D0009A62B3019A012A4FEA075208
:1004800015DC001B61EB02014FF0004202EA07524B
:10049000CDE90042001C41F5801132462B4600F0A8
:1004A0003BFA03B0BDE8F08F40462146F9E7001B58
:1004B00061EB0201001C41F5801300185B4120181C
:1004C000A2F5001747EB030140EAD570B6196D415C
:1004D00011E06D084FEA360645EAC0754FEA07524B
:1004E000001B61EB0201001C41F5801149084FEA35
:1004F00030000019514132462B4603B0BDE8F04FA1
:1005000000F0FBB90098012240000023D0EB02026A
:1005100063EBE073009821464FEAE074B8EB00000B
:1005200061EB0401E9E783F000435BE781F0004100
:1005300058E72DE9FE4F81EA030404F0004421F05E
:10054000004100944FF0000B23F0004350EA0104F7
:100550005ED052EA03045BD0C3F30A54C1F30A55D8
:100560002C44A4F2F3340194A0FB0254C1F3130110
:1005700041F48011C3F3130343F4801301FB0244DD
:1005800000FB034E840A970A44EA815447EA8357E2
:10059000A4FB076802958D0A05FB07854FEA932C9B
:1005A00004FB0C542705029D4FEA065847EA16370C
:1005B000B5EB08056EEB070C870E920E47EA811724
:1005C00042EA8312A7FB0201B6EB0B0164EB0004C5
:1005D0002B0D43EA0C335E1844EB1C50DA465146AF
:1005E000E7FB0201C5F313044FEA0B3343EA14534C
:1005F0004FEA0432019C43EA0603A4F10C0402947E
:10060000009CCDE900B400F087F903B0BDE8F08F9D
:1006100000200146F9E72DE9F04D81EA030404F0DA
:10062000004B21F0004514464FF0000A23F0004132
:1006300050EA050220D054EA01021DD0C5F30A5742
:100640000246C5F31303C1F31300C1F30A5640F485
:10065000801543F48013A7EB0608101BD64608F25A
:10066000FD3873EB050002D308F1010801E0921890
:100670005B41B8F1000F03DA00200146BDE8F08DC0
:1006800000204FF48011064684460EE0171B73EBE2
:10069000050705D3121B63EB050306434CEA010C67
:1006A00049084FEA300092185B4150EA0107EDD14A
:1006B00052EA030012D082EA040083EA05010843EB
:1006C00005D0101BAB4106D20122002306E0002218
:1006D0004FF0004302E06FF0010253101AEB0600E6
:1006E0004CEB085110EB0A0041EB0B01BDE8F04D5B
:1006F00000F003B90EB5C10F80EAE0700844CA07E4
:10070000002140F233438DE80E000A460B4600F00C
:1007100003F903B000BD0EB540F233410291002150
:10072000CDE900110A460B4600F0F6F803B000BD13
:1007300070B5C1F30A5201F000450024C1F3130162
:1007400040F2FF3341F480119A4201DA002070BD7B
:1007500040F233439A42A2F2334203DC524200F0A9
:1007600073F800E090402C43F1D0404270BDC1F3DB
:100770000A5210B5C1F3130140F2FF3341F4801166
:100780009A4201DA002010BD40F233439A42A2F2AD
:10079000334203DC524200F057F810BD904010BDC8
:1007A00000F0004230F000400AD0C10D01F5607148
:1007B000C0F3160042EA0151C208400711437047D6
:1007C00000200146704701F0004330B421F00041A1
:1007D00050EA010206D00A0DA2F56072C1F31301BE
:1007E000002A02DC30BC00207047440F44EAC104F8
:1007F000C100E01830BC00EBC25000F047B830B583
:100800000B46014600202022012409E021FA02F5CE
:100810009D4205D303FA02F5491B04FA02F5284468
:10082000151EA2F10102F1DC30BD202A04DB203AC2
:1008300000FA02F1002070479140C2F1200320FA33
:1008400003F3194390407047202A04DB203A21FA31
:1008500002F00021704721FA02F3D040C2F12002D9
:100860009140084319467047202A06DBCB17203AEF
:1008700041FA02F043EAE07306E041FA02F3D040A5
:10088000C2F1200291400843194670470029A8BFD1
:100890007047401C490008BF20F00100704710B4A9
:1008A000B0FA80FC00FA0CF050EA010404BF10BC5E
:1008B000704749B1CCF1200421FA04F411FA0CF18B
:1008C00018BF012121430843A3EB0C01CB1D4FEAC4
:1008D00000614FEA102042BF002010BC704700EBBF
:1008E000C35010440029A4BF10BC7047401C4900ED
:1008F00008BF20F0010010BC704710B5141E73F142
:10090000000408DA401C41F1000192185B411A43CF
:1009100001D120F0010010BD2DE9F04D92469B461B
:1009200011B1B1FA81F202E0B0FA80F220329046C1
:10093000FFF77BFF04460F4640EA0A0041EA0B013D
:1009400053465A46084313D0114653EA010019D0C2
:10095000C8F140025046FFF777FF05460E46504665
:1009600059464246FFF761FF084305D0012004E0E5
:1009700020463946BDE8F08D0020054346EAE07682
:100980002C4337430A986305E40AA0EB08000022D1
:10099000FD0A44EA47540A3002D500200146E9E73F
:1009A000010510196941DDE9084500196941BDE8F3
:1009B000F04DA2E770B521F0004303430CD0C1F322
:1009C0000A550024D5EB040564EB0403D617AD1AD1
:1009D000B34102DB0020014670BD201841EB0251FB
:1009E00070BDC1F30A52C1F3130140F2FF3341F469
:1009F00080119A4202DA00200146704740F23343E8
:100A00009A42A2F2334202DC5242FFF71DBFFFF7C7
:100A10000CBF000030B5041E71F1000404DB4FF080
:100A20000044404264EB0101141E73F1000405DB35
:100A30001C464FF00043524263EB0403994208BF47
:100A4000904230BD064C074D06E0E06840F00103DF
:100A500094E8070098471034AC42F6D3FFF7AAFB9E
:100A6000041E0808241E08082DE9F04D00231A462C
:100A70001B1A8A4103DB00200146BDE8F08DC1F35B
:100A80000A52C1F3130141F480154FF0000BD10756
:100A900002D100186D41521E0027044640F2FF119A
:100AA000384601EB620A3E468046024600204FF47B
:100AB0008011FFF7C9FEC2197141BB1846EB010056
:100AC000B4EB030C75EB000C04D3E41A65EB0005E2
:100AD00017460E46241908F101006D41804634285E
:100AE000E3DDF91946EB0600091BA84103D24FF0DC
:100AF000FF32134601E0002213461BEB070046EBD2
:100B00000A51BDE8F04DFFF7F8BE70B58C1810F82B
:100B1000015B15F0070301D110F8013B2A1106D142
:100B200010F8012B03E010F8016B01F8016B5B1E5C
:100B3000F9D12B0705D40023521E0DD401F8013B37
:100B4000FAE710F8013BCB1A921C03E013F8015BA3
:100B500001F8015B521EF9D5A142D8D3002070BD27
:100B6000EFF3098141B1F1EE101A40F8041D20EDB8
:100B7000200A3E490A6810607047B0EC200A02C89B
:100B8000E1EE101A3A490A681060704772B64EF6E4
:100B90002250CEF2000040F2FF01C0F200010170CD
:100BA0004FF0000080F309880FF062FD40F2A010C2
:100BB000C2F20000016881F3088840F21A10C2F204
:100BC000000040F21B11C2F200010A78027040F2EC
:100BD0009815C2F2000540F29C11C2F200010A68A9
:100BE0002A60106880F30988EFF3148040F0020057
:100BF00080F31488BFF36F8FBDE8F00F0FBCBDE822
:100C0000005006BC62B608471A484FF08051016098
:100C1000704718484FF080510160704772B6EFF38B
:100C2000098020E9F00F40F29815C2F200052E6805
:100C3000306074460FF01CFD40F21A10C2F2000042
:100C400040F21B11C2F200010A78027040F29C11BE
:100C5000C2F200010A682A6044F0F40E1068B0E89D
:100C6000F00F80F3098862B67047000098010020F9
:100C70009C01002004ED00E0002904D0816841F0CF
:100C8000010181607047816821F001018160704736
:100C9000084A1168084B1940D0F804C0036843EAB9
:100CA0000C03D0F808C0C0684CEA000018430843A1
:100CB0001060704704230140E030FCFF002904D09D
:100CC000816841F4807181607047816821F480718E
:100CD00081607047002904D0816841F4007181600F
:100CE0007047816821F400718160704710B44268D8
:100CF00022F4807222F0407291F804C00B6842EA3C
:100D00000C221A43426082680D4B1A40D1F80CC085
:100D10000B694C7943EA0C03D1F808C04CEA440C47
:100D200043EA0C031A438260C26A22F47002097D0E
:100D3000491EC9B242EA0151C16210BC70470000AD
:100D4000FDF7FFC030B4072509290CD9C468A1F10B
:100D50000A0C0CEB4C0C05FA0CF5AC4303FA0CF343
:100D60002343C36009E0046901EB410C05FA0CF56B
:100D7000AC4303FA0CF3234303614FF01F0C072A23
:100D80000CD2436B521E02EB82020CFA02FC23EAE5
:100D90000C0391401943416330BC70470D2A0CD2BB
:100DA000036BD21F02EB82020CFA02FC23EA0C0353
:100DB00091401943016330BC7047C36A0D3A02EB9E
:100DC00082020CFA02FC23EA0C0391401943C1622F
:100DD00030BC7047816841F08041816070470021DC
:100DE0000160017141718160C16001610121017582
:100DF0007047002800DC40427047000084B0274F55
:100E0000274D002403AED5F8300201283BD13878B5
:100E1000002838D103A923480FF01EFC03A922485B
:100E20000FF01AFC21A025F083FD002305221946AE
:100E30001846019600940FF09BFC27A003F01AFBC4
:100E400003A918480FF006FA03A917480FF002FA91
:100E50000023012219461846019600940FF088FCE1
:100E6000D5F8300278B120A003F004FB00224FF443
:100E7000FA7311461046019600940FF079FCD5F8EC
:100E800030020028EFD100224FF4FA7311461046C9
:100E9000019600940FF06CFCB5E70000B100002053
:100EA00000004342DC1D00201C20002040546578D7
:100EB00074546F53706565636823C4E3BAC3A3AC0D
:100EC000D3D0CAB2C3B4CED2BFC9D2D4B0EFC4E378
:100ED000B5C4C2F0A3BF240050656F706C652121BA
:100EE0002121212121210A00416C77617973205051
:100EF000656F706C65212121212121212121210A89
:100F00000000000082B0064C206880F40050206091
:100F100001AA00214FF4FA600FF0E8FBF4E70000AB
:100F20001408024086B021A000680290204E9DF86F
:100F30000870002505AC03A904A802F066FC00288F
:100F40002AD1BDF810004CF6CD414843C00C0490A6
:100F5000BDF80C004843C00C03903946304614F0ED
:100F600002FABDF81010304614F00AFA9DF8091084
:100F7000304614F0F8F9BDF80C10304614F000FAC1
:100F80009DF80A10304614F0EEF9BDF81020BDF8B7
:100F90000C1008A003F06EFA00230A221946184626
:100FA000009501940FF0E4FBC5E7000054480D00E4
:100FB0000010014068756D203D2025640A74656D40
:100FC0003D2025640A0000002DED048B84B0002430
:100FD000DFF89880DFED268A9FED269A264F0025C0
:100FE00003AEB8F8020000EE100AB8EE400A20EE98
:100FF000280A20EE098A18EE100AB84225DB002CD8
:1010000023D103A91D480FF027FB03A91C480FF0AB
:1010100023FB03A91B480FF01FFB1BA025F088FC36
:1010200000230A2219461846019600950FF0A0FBEE
:1010300003A912480FF00EF903A911480FF00AF99D
:1010400003A910480FF008FB012418EE100AB8425B
:1010500002DA012C00D1002400230222194618468E
:10106000019600950FF084FBBBE700003C000020D8
:101070000000803933335340CDCC2C40DC1D0020A0
:101080001C2000209C1E00204054657874546F532F
:10109000706565636823CCECD4F5C3B4CDBBC8BB25
:1010A000BADAC1CB240000002DED048B84B00024FB
:1010B000224EDFED238A9FED239A234FDFF88C80A9
:1010C00003AD308800EE100AB8EE400A20EE280A80
:1010D00020EE098A18EE100AFFF762FB41EC100BB4
:1010E0001BA053EC102B03F0C5F918EE100AB84200
:1010F0001BDC98F80000002817D103A91D480FF049
:10110000ABFA002211461CA024F0A4FA1EA025F080
:101110000FFC0023032219461846019500940FF096
:1011200027FB03A913480FF095F800231A46052161
:101130001846019500940FF01BFBC2E73C0000200D
:1011400000008039CDCC544100002041B100002086
:101150000D0A205468652063757272656E742041B3
:10116000442076616C7565203D2025662056200D53
:101170000A000000DC1D0020303A6D656964696179
:101180006E2E6A70670000004054657874546F5387
:10119000706565636823BFECC3BBB5E7C1CBA3AC87
:1011A000D2AAB8F8CED2B3E4B5E7BFA9A3A1240070
:1011B00084B00025BB4EBC4F0DF10C0811F082FD30
:1011C000A6FB00214908A1EB81010144CCB2A7FB99
:1011D0000021C9086FF00A0201FB020000F0FF09BC
:1011E0004946B2A003F046F9B9F10B0F80F04F81E8
:1011F000DFE809F0060D141B426990B7DCFDFC0026
:1012000000221146ADA024F025FA00F040B90022DA
:101210001146ADA024F01EFA00F039B900221146A3
:10122000ACA024F017FA00F032B9002008F052F90F
:1012300005F026FD03AA002132200FF057FA0523FE
:1012400001220221A6A024F06FF924B90022114640
:101250009AA024F0FFF9012C04D1002211469AA093
:1012600024F0F8F9022C40F012810022114699A0D6
:1012700024F0F0F900F00BB9002008F02BF905F08C
:10128000FFFC03AA002132200FF030FA05230122CF
:10129000022197A024F048F924B90022114687A022
:1012A00024F0D8F9012C04D10022114686A024F0A4
:1012B000D1F9022C40F0EB800022114685A024F0E9
:1012C000C9F900F0E4B8002008F004F905F0D8FCF2
:1012D00003AA002132200FF009FA0523012202217E
:1012E00087A024F021F924B90022114673A024F02C
:1012F000B1F9012C04D10022114673A024F0AAF9FF
:10130000022C40F0C4800022114672A024F0A2F901
:1013100000F0BDB8002008F0DDF805F0B1FC03AA2C
:10132000002132200FF0E2F905230122022178A0EA
:1013300024F0FAF824B90022114660A024F08AF9BA
:10134000012C04D1002211465FA024F083F9022C65
:1013500040F09D80002211465EA024F07BF900F051
:1013600096B8002008F0B6F805F08AFC03AA002120
:1013700032200FF0BBF905230122022168A024F0DE
:10138000D3F824B9002211464CA024F063F9012CB3
:1013900004D1002211464CA024F05CF9022C76D135
:1013A000002211464BA024F055F970E0002008F00F
:1013B00091F805F065FC03AA002132200FF096F9A0
:1013C0000523012202215AA024F0AEF824B90022FC
:1013D00011463AA024F03EF9012C04D10022114616
:1013E00039A024F037F9022C51D101E02BE005E0BF
:1013F0000022114637A024F02DF948E0002008F023
:1014000069F805F03DFC03AA002132200FF06EF9C7
:101410000523012202214AA024F086F824B90022E3
:10142000114626A024F016F9012C04D10022114601
:1014300025A024F00FF9022C29D10022114625A065
:1014400024F008F923E0002008F044F805F018FC27
:1014500003AA002132200FF049F9052301220221BD
:101460003BA024F061F824B90022114613A024F017
:10147000F1F8012C04D10022114613A024F0EAF85F
:10148000022C04D10022114612A024F0E3F800231C
:10149000192219461846CDF8048000950FF068F916
:1014A0008CE60000ABAAAAAAA38B2EBA52616E6486
:1014B00044617461203D2025640A0000303A706365
:1014C0002E6A706700000000303A7063322E6A7036
:1014D00067000000303A7063332E6A7067000000C6
:1014E000303A7869616F6A69332E67696600000077
:1014F000303A7869616F6A69342E67696600000066
:10150000303A7869616F6A69352E67696600000054
:10151000303A7869616F6A69362E67696600000043
:10152000303A7869616F6A69372E67696600000032
:10153000303A7869616F6A69382E67696600000021
:10154000303A7869616F6A69392E67696600000010
:10155000303A7869616F6A6931302E6769660000D8
:101560002DE9F04F8BB00024022601F09BFD01F025
:1015700047F801F0D3F80DF083FD0122ADA1AE488C
:1015800029F050FFAD49C8700AA80EF0D5FB002223
:101590001146ABA024F05EF86FF07F4007F09AFF91
:1015A000002007F0A2FFA94807F0D4FFDC220021A9
:1015B000A7A005F001FEDC22AF21AAA005F0FCFDEA
:1015C0003346DC229621204605F060FDF122002101
:1015D000A5A005F0F1FD4FF4FA6028F0C3FA00254C
:1015E000082000EBC501F122AFA005F0E5FD334670
:1015F000DC229621204605F049FDA01CC4B2642CD3
:1016000001D364240326642028F0ACFA681CC5B218
:101610003A2DE5D3A5A025F08BF94FF4FA6028F018
:10162000A1FAFEF7F7FD09900420A54A0AAD009043
:101630004623A4A10195A2F120000DF015FF00247E
:1016400005274FF42F784FF04609A2480694032649
:101650000594CDF80890CDF80C80019004972346AE
:101660009D4A9EA1009707960895A0F524600EF06C
:10167000C5FB9E480694019005944FF4967A4FF06E
:101680001E0B0920CDF808B0CDF80CA000900497EF
:10169000079608950023964A96A19A480EF0AEFB4D
:1016A00099480694019005940620CDF80890CDF84D
:1016B0000C8000900497079608950023934A94A104
:1016C00097480EF09BFB97480694019005940720DD
:1016D000CDF808B0CDF80CA00090049707960895B7
:1016E0000023914A91A195480EF088FB94480694F6
:1016F000019005944FF400784FF033090A20CDF89B
:101700000890CDF80C800090049707960895002368
:101710008C4A8DA190480EF071FB90480694019080
:1017200005940B20CDF80890CDF80C80009004971C
:101730000796089500238A4A8AA18E480EF05EFB20
:10174000C82008950390059414218B4A07960694A7
:10175000082001920291009004970023874A88A1F3
:101760008D480EF04BFB8D48069405940796CDF8F6
:101770000C80019000238A4A8AA1CDF80890049732
:10178000009608958C480EF039FB8C480694019021
:1017900005940420CDF80890CDF80C8000900497B3
:1017A000079608950023864A86A18A480EF026FBF4
:1017B0004FF480600895039005946621864A079649
:1017C00006940C2001920291009004970023834A12
:1017D00083A187480EF012FB864806940190059479
:1017E0000D20CDF808B0CDF80CA000900497079616
:1017F00008950023804A81A184480EF0FFFA0AA9C7
:101800006D480EF029FF0AA979480EF025FF0AA9B4
:1018100061480EF021FF0AA97C480EF01DFF0AA9BD
:101820007B480EF0ADFB0998FEF7F8FC0BB0BDE865
:10183000F08F0000303A0000B40B0020B10000200F
:10184000303A6B61696A692E6A706700C0B8070830
:1018500053797374656D205374617274696E672E69
:101860002E2E0000250000005B2E2E2E2E2E2E2E5A
:101870002E2E2E2E2E2E2E2E2E2E2E2E2E2E2E2E88
:101880002E2E2E2E2E2E2E2E2E2E2E2E2E2E2E2E78
:101890002E2E2E2E2E2E2E2E2E2E2E2E2E2E2E2E68
:1018A0002E2E2E5D000000003D00000040506C61B7
:1018B00079464C4153482330303233240000000035
:1018C000041C00204D656D20466F722054657374B2
:1018D000000000001C280020B11100084170702099
:1018E0005461736B2053686F774251000C430020A2
:1018F000050F0008417070205461736B204C6564C3
:10190000310000005C1F0020BC470020811E000841
:10191000417070205461736B2074616C6B00000027
:101920001C200020AC520020250F000841707020C0
:101930005461736B204C656433000000DC20002090
:101940000C330020A9100008417070205461736BA3
:1019500020506F77657200009C1E00200C3B002019
:10196000C90F0008417070205461736B204C696787
:1019700068740000DC2300205C570020FD0D000887
:10198000417070205461736B20436865636B5065D0
:101990006F706C65000000009C2100207C5A0020C4
:1019A0003D1C0008417070205461736B20546F75AA
:1019B00063685363616E00005C2200207C6200203B
:1019C000151A0008417070205461736B20546F75B4
:1019D000636800001C2300207C6A0020551E00085C
:1019E000417070205461736B2057696E646F77008B
:1019F0009C2400207C7A00200D1D0008417070207E
:101A00005461736B20576865726500005C25002087
:101A10001C1D002084B0002501261424DFF89491B9
:101A2000DFF894A14FF0020B4FF0000803AF9AF8D3
:101A30000100002800F0B180D9F804100020884788
:101A4000012801D1681CC5B2082D03D00F2D40F02C
:101A5000968055E059A024F06BFF0023042219461C
:101A60001846CDF8008001970EF082FE0025002C6C
:101A700040D0601EC4B2D9F8041000208847012865
:101A800004D156A002F0F6FC681CC5B2032D26D383
:101A900056A024F04DFF03A95C480EF0DDFD03A91C
:101AA0005B480EF0D9FD002007F014FD05F0E8F8C2
:101AB00003AA002132200EF019FE03230222012185
:101AC00054A023F031FD03A950480EF0C3FB03A935
:101AD0004F480EF0BFFB00240A25002608E0002234
:101AE000962311461046CDF8008001970EF040FE77
:101AF000002CBED114240EB1002540E001263EE0AA
:101B00000025002C39D0601EC4B2D9F80410002082
:101B10008847012804D143A002F0ACFC681CC5B280
:101B2000032D1FD303A939480EF096FD03A93848A9
:101B30000EF092FD0022642311461046CDF800807D
:101B400001970EF015FE8AF802B08AF80180002590
:101B500003A939480EF07EFB03A92D480EF07AFB4D
:101B6000002408E00022962311461046CDF800809C
:101B700001970EF0FDFD002CC5D1142400250F2D7A
:101B800000D9002500224FF4967311461046CDF877
:101B9000008001970EF0ECFD49E708F0B7F900224C
:101BA0000A2311461046CDF8008001970EF0E0FDA3
:101BB0003DE7000044000020B1000020405465785B
:101BC00074546F53706565636823BAC3D1F7B0A1CD
:101BD0002CB1F0C3FECED2C1CB2400004B656570A2
:101BE00020746F756368A3A10A00000040546578F3
:101BF00074546F53706565636823D4D9C0B4A3ACC3
:101C0000CED2D2AAD2A7C4E3C1CB2400DC1D0020CF
:101C10001C200020303A79616F72656E2E6769660C
:101C200000000000456E74657220536574204365A2
:101C30006E746572210A00009C24002088B0DFF8D1
:101C4000C0904FF0010A02AF4FF6FF784FF0000B43
:101C5000D9F8041000208847002499F820000AFAD7
:101C600004F108423BD009EB4405A889B0F5F07FA8
:101C700037D2E98AB1F5887F33D237F8242042453C
:101C800004D127F8240007EB840041804FF47F0043
:101C900007F02BFC07EB8406EB8AAA89718837F8DA
:101CA000240005F099FCA88927F82400E98A7180AE
:101CB000B0F5E47F15D9282913D2002007F00AFCDB
:101CC00004F0DEFF0F4807F045FCFF2007F00DFC95
:101CD0000A224FF4E4710CA005F082FA01E027F823
:101CE000248007A80022019005231146CDF800B0FA
:101CF00010460EF03DFD601CC4B2052CADD3A7E725
:101D00004400002048E607085253540088B0DFF82A
:101D1000E0804FF000090DF11C0A04AA05A906A8ED
:101D20002AF0D2FF0028F8D00498FEF739FD0446C7
:101D30000D460598FEF734FD06460F460698FEF759
:101D40002FFD41EC100B2BA053EC102B01970096AC
:101D50000395029402F08EFB9DED060A10EE100A28
:101D6000404501DB012000E0002010EE101A11F1C7
:101D70007F5F01D3012100E00021084329D007A99A
:101D800026480EF069FC07A925480EF065FC07A956
:101D900024480EF061FC24A024F0CAFD0022114664
:101DA00029A023F057FC00230A2219461846CDF833
:101DB00004A0CDF800900EF0DBFC07A917480EF048
:101DC00049FA07A916480EF045FA07A915480EF07A
:101DD00043FC07AA00214FF4FA600EF087FC04AA26
:101DE00005A906A82AF070FF00289DD195E70000FC
:101DF000000020417069746368203D202566202022
:101E000020726F6C6C203D20256620202020202031
:101E1000796177203D202566200A0000DC1D002026
:101E20001C2000209C1E00204054657874546F5381
:101E3000706565636823CDB7BAC3D4CEA3ACB1F0E7
:101E4000D2A1C1CB24000000303A736875692E6AB4
:101E50007067000084B0002503AC07A002F00AFB05
:101E60000DF086F800224FF4E173114610460095FC
:101E700001940EF07DFCF0E768656C6C6F0A000061
:101E800086B0002500260024DFF818A400270DF1F5
:101E900014084FF0010B002302AA19461846CDF88A
:101EA00000800EF00BF98146FFA0B9F8001002F097
:101EB000E1FA8AF800B0B9F80000801E1C2880F012
:101EC0006983DFE800F00EF81C273FF8F88890F8E7
:101ED000E4F8F8D2F8F8F8F8F8F8F7F6F5F4F3F2D1
:101EE000D227F6A002F0C6FA05AA00214FF4FA6044
:101EF0000EF0FCFBF3A024F01BFD00F04BBBF9A09F
:101F000002F0B8FA05AA00214FF47A700EF0EEFB49
:101F100000F040BBF5A002F0ADFA05A9F5480EF0BF
:101F20009BFB00221146F4A023F094FB05AA00219C
:101F300041F288300EF0DAFB05A9EE480EF08AF97E
:101F400000F028BBEFA002F095FA03A904A801F065
:101F50005CFC40B1EDA024F0EBFC05A9E5480EF0D7
:101F600079F900F017BBBDF810004CF6CD4148439D
:101F7000C00C0490BDF80C004843C00C039005A9A8
:101F8000DC480EF069FBBDF810001C2810D30022BD
:101F90001146E8A023F05EFBBDF81010E8A024F085
:101FA000C7FC05AA002144F620600EF09FFBD4E791
:101FB00000221146D0A023F04DFBBDF80C20BDF847
:101FC0001010EBA024F0B4FC05AA002144F6206018
:101FD0000EF08CFBC1E7F4A002F04CFAF4A024F060
:101FE000A7FC00F0D7BAFAA002F044FA05A9C1484C
:101FF0000EF032FB002007F06DFA04F041FE0022E3
:10200000322311461046CDF8048000970EF0B0FB45
:10201000F14824F08DFC032302220121EFA023F0DC
:1020200083FA032302220121EFA023F07DFA032388
:1020300002220121EFA023F077FA032302220121DB
:10204000EFA023F071FA032302220121EFA023F075
:102050006BFA032302220121EFA023F065FA05A900
:10206000A4480EF0F7F800F095BAEEA002F002FADC
:1020700005A9A0480EF0F0FA00221146EBA023F0CB
:10208000E9FA05A99B480EF0E5F800F083BAEAA04A
:1020900002F0F0F905A997480EF0DEFA0022114689
:1020A000E7A023F0D7FA54B906E05EE2E1E0BEE033
:1020B0009AE067E01CE0F3E0E5A024F039FC012C95
:1020C00002D1E94824F034FC0023192219461846AD
:1020D000CDF8048000970EF04BFB601CC4B2022CBC
:1020E00000D3002405A983480EF0B4F800F052BADA
:1020F000DEA002F0BFF9012605A97E480EF0ACFA79
:102100000022642311461046CDF8048000970EF09B
:102110002FFB05A9D7480EF09FFA00226423114631
:102120001046CDF8048000970EF022FB05A9D24896
:102130000EF090F80022642311461046CDF804807A
:1021400000970EF015FB002007F0C4F904F098FD8D
:10215000CA4807F0FFF9FF2007F0C7F90A224FF439
:10216000E471C7A005F03CF8002264231146104634
:10217000CDF8048000970EF0FBFAC2A024F0D8FB43
:1021800000F008BACAA002F075F9012E40F00282F0
:1021900005A958480EF05EF8002264231146104647
:1021A000CDF8048000970EF0E3FA05A9B2480EF0CE
:1021B00053FA0022642311461046CDF8048000979C
:1021C0000EF0D6FA05A9AB480EF044F800226423BD
:1021D00011461046CDF8048000970EF0C9FAB7A05A
:1021E00024F0A6FB0026D5E1BBA002F043F9012EA6
:1021F00056D1002007F06EF904F042FD9F4807F029
:10220000A9F9FF2007F071F90A224FF4E4719CA0AC
:1022100004F0E6FF0022322311461046CDF8048078
:1022200000970EF0A5FAAEA024F082FBB2E1B6A0B2
:1022300002F020F91DB1B6A024F07AFBAAE1012535
:102240004421BA4813F08FF82946B84813F098F89B
:102250000D21B64813F087F80022322311461046AC
:10226000CDF8048000970EF083FAB1A024F060FB53
:1022700090E1B5A002F0FEF8022D12D00225442113
:10228000AA4813F070F82946A84813F079F80D21F0
:10229000A64813F068F8322300221146104657E191
:1022A00078E15EE1B10000205265636569766544BE
:1022B000617461203D2025640A000000C4E3BAC3B4
:1022C0000A0000004054657874546F53706565636C
:1022D0006823D3D0CAB2C3B4CED2C4DCB0EFC4E357
:1022E000B5C42400D0D4B1F00A000000CFB2BBB610
:1022F0000A000000DC1D0020303A7869616F2E6A08
:1023000070670000CEC2B6C80A000000405465786D
:1023100074546F53706565636823B0A1D1BDCED28C
:10232000B5C4CEC2B6C8B4ABB8D0C6F7BBB5C1CB86
:1023300024000000303A6B752E6A706700000000C0
:102340004054657874546F53706565636823D5E2B3
:10235000D5E6B5C4CCABC8C8C1CBA3A1CEC2B6C864
:10236000B6BCB5BD5B6E325D2564B6C8C1CB24007A
:102370004054657874546F53706565636823CFD695
:10238000D4DAB5C4CEC2B6C8CAC75B6E325D2564A6
:10239000A3ACCAAAB6C8CAC7B0D9B7D6D6AE5B6E08
:1023A000325D256424000000B3AAB8E80A000000EA
:1023B0004054657874546F53706565636823BBE15E
:1023C000B0A1A3ACC4E3CFEBCCFDCAB2C3B424002C
:1023D000CCFDB8E80A0000002C1C0808303A673130
:1023E0002E67696600000000303A67322E67696622
:1023F00000000000303A67332E6769660000000075
:10240000303A67342E67696600000000303A67355D
:102410002E67696600000000303A67362E676966ED
:1024200000000000C9FAC6F80A000000303A6661F0
:1024300068756F2E6A706700D0A6BBB00A000000F6
:10244000303A68616E7869616F2E6A7067000000CB
:102450004054657874546F53706565636823BDB2EA
:10246000CDEAC1CB24000000A41B0808BBADBBAD66
:102470000A0000001C2300205C22002048E6070818
:10248000525354004054657874546F5370656563BB
:102490006823BFAACABCBBADB0C9A3ACC7EBCBB560
:1024A000CDCBB3F6BBADBBADCDCBB3F624000000B6
:1024B000CDCBB3F6BBADBBAD0A0000004054657890
:1024C00074546F53706565636823C4E3BBADB5C4D2
:1024D000D5E6C4D1BFB42400C7E5C6C10A000000D8
:1024E0004054657874546F53706565636823BAC34C
:1024F000C1CBC4E3BFC9D2D4D6D8D0C2BFAACABC4C
:10250000BBADC1CB24000000BFAAB5C60A000000C5
:102510004054657874546F53706565636823B5C61D
:10252000D2D1BEADC1C1C1CB24000000001001401A
:102530004054657874546F53706565636823D2D1D5
:10254000BFAAB5C624000000B9D8B5C60A0000006D
:10255000CDF8048000970EF00BF912A024F0E8F9F2
:1025600018E016A024F0E4F914E005A91D480EF0C7
:1025700073F80022642311461046CDF804800097BA
:102580000EF0F6F88AF801708AF802B005A916482C
:102590000DF060FE8AF8007005AA494613480CF059
:1025A000E2FF78E44054657874546F537065656356
:1025B0006823D2D1B9D8B5C624000000405465784C
:1025C00074546F53706565636823B5C6D2D1BEADD0
:1025D000B9D8C1CBA3ACD2AABFAAB5C6C2F0A3BF1B
:1025E00024000000DC1D00209C240020E41B0020AF
:1025F00000B585B0684610F015F8019805B000BD2B
:1026000010B5012108030FF0B9FF4FF4A0600CF0E2
:10261000F1FD01F0E3FE00F08FF800F0E1F810F0BA
:10262000B9F8244801F026FF234801F023FF23488E
:1026300001F020FF204801F01DFF1E4801F01AFFA5
:102640000AF096FE11F0AAF91DA001F013FF0AF09E
:1026500074F912F023FC05F0D9FC1CA001F00AFF6C
:1026600010F0D8FB1EA001F005FF01F01DF9D8B154
:1026700020A001F0FFFE10F0B3F810F0E1F82AF00E
:10268000DDF8C82027F06EFA0CF05CFB0CF038FB8C
:102690002AF0D6FB00280BD02AF0D2FB0146BDE879
:1026A000104018A001F0E6BE19A001F0E3FEE2E739
:1026B00010BD0000C81A0808401A0808841A080843
:1026C000534452414D204F4B210A00004755495F6A
:1026D000496E697420537563657373210A000000A5
:1026E00041445F496E697420537563657373210AB1
:1026F000000000004E6F742066696E6420444854E8
:1027000032320A00646D70203D2025640A0000000A
:102710004448543232204F4B210A000010B5FFF7D5
:1027200067FF04490968B0FBF1F0BDE810400EF006
:1027300009B9000098F1020870B586B001210220A5
:102740000FF01CFF012188040FF042FF224E0722E8
:102750000B21304603F0CFFA07220A21304603F05E
:10276000CAFA00248DF8164001218DF817100225B1
:102770008DF81450890204918DF8155004A9304643
:1027800003F06EFA8DF81450A802049004A93046A4
:1027900003F066FA4FF4E1300090ADF80440ADF874
:1027A0000640ADF80840ADF80C400C20ADF80A002A
:1027B0000A4C6946204612F065FD0CF0D2FC01225D
:1027C00040F22551204612F040FD0121204612F032
:1027D00005FD06B070BD0000000402400048004046
:1027E00030B587B0012140200FF0C8FE0121202024
:1027F0000FF0FCFE174D08220E21284603F07BFA4D
:1028000000248DF8164001218DF8171002218DF853
:1028100014104A0304928DF8151004A9284603F0F9
:102820001FFA4FF4E1300090ADF80440ADF80640D7
:10283000ADF80840ADF80C400820ADF80A00064C91
:102840006946204612F01EFD0121204612F0C6FC0A
:1028500007B030BD001802400014014038B545688B
:1028600004460146284612F0C9FD00282BD02068F6
:10287000304A11280DD006DC0B2825D00E2833D085
:102880000F2852D112E0282849D0B0F5107F4CD142
:1028900008E09268002A16D02146284601B0BDE81B
:1028A00030401047214628465268F7E7284603F093
:1028B000FBFE0090406E0468684603F061FF002C48
:1028C00001D02846A04738BD284603F0EDFE009011
:1028D000683003F03FFE009803216C3003F048FE9F
:1028E000684603F04DFF20E0E168486809680D295B
:1028F00002D0202913D105E0002810DD284620F061
:1029000057F806E0002804DD2846BDE8384020F0EE
:102910004FB82846BDE83840022120F05FB8E06893
:1029200018B90021284600F093F92046BDE8384048
:1029300013F042B9D8030020F0B585B00AAC94E892
:10294000E0000024CDE90246CDE90057049400F0F0
:1029500025F805B0F0BDF0B5044685B08069B4F93E
:102960000850668A0027CDE90265CDE9001704907A
:10297000B4F90C00B4F91060C118B4F90A00B4F944
:102980000E50104433462A4600F008F805466168A8
:1029900000F07DF905B02846F0BD00002DE9F04FAC
:1029A00085B01F46DDE911B4DDE90E569046894633
:1029B000824605F03DFE16484C34CDE90204CDE9CF
:1029C00000563B4642464946504613F03DF8040047
:1029D00018D003F069FE10225946049012F082FECE
:1029E000049830220B493430FDF78CFC094D0499D2
:1029F0000C3D2868486604A803F0C2FE28684168B8
:102A00002046884707F07EFC05B02046BDE8F08FE1
:102A10005D280008E4030020F0B5044680688B4977
:102A200089B051F82050606800287DD0052804D076
:102A300006287AD0122879D1AEE0E86900284FD074
:102A400095E80E008DE80F0004F110010FC908F0A1
:102A5000D1F8002655F8260006F047FDA169E8697F
:102A60000A1A216901446069304404F089FDA169B2
:102A7000E8690A1A21690144E069801B04F080FDBD
:102A8000E169E8690A1A616901442069304404F087
:102A90002DFEE169E8690A1A61690144A069801B99
:102AA00004F024FE761C022ED4DBA86806F01DFD7F
:102AB000E069E9696669431A206942183144801C5B
:102AC000521E04F087FEE169E869A2690B1A616988
:102AD0000144101A401C921E04F07CFEEE6913E0C3
:102AE0005FF0000655F8260006F0FFFCE069831B46
:102AF000A069821B606981192069304404F0B6FD29
:102B0000761C022EEEDB0226D5E90301CDE9000199
:102B10006169E06908444310A069891C821B20692F
:102B2000304404F0F1FC02E089E012E08AE0D5E9EB
:102B30000501CDE90001E36960690121184401EB59
:102B40006001A0699B1E821B2069304404F0DCFCFC
:102B500078E0206803F0A8FD0490206814F0D0FC11
:102B600040B1A06808B1002008E00498006F28B1C7
:102B7000012003E00498406F00B10220049901EBAA
:102B80008000C56E04A803F0FBFD00231A4628460A
:102B9000216804F00BFA55E0206803F085FD0490ED
:102BA000866EEEB3B0F95C70A168D1B3032942D050
:102BB0005FF0000100EB8101406D0C6C06F0CAFC77
:102BC000204606F092FC05A805F05EF9BDF8141049
:102BD000A88B0144ADF81410BDF81810081AADF810
:102BE0001800BDF81600801CADF81600BDF81A00DC
:102BF000801EADF81A000498B0F96020B0F95E109C
:102C000005A806F077FA04A803F0BAFD022006F042
:102C100041FD304603F048FD3A4605A9079001E022
:102C20000BE006E004F0F6FA0DF11C0003F0A8FD3D
:102C300008E00121BEE70221BCE704A8F6E720680E
:102C400014F094F809B00020F0BD0000B40F08089B
:102C50004FF480720029114601D012F064BC12F0CA
:102C6000ADBB08B50023009300F001F808BD70B5B6
:102C700016460C46054619463046049A04F078F983
:102C8000024621462846BDE8704000F02DB82DE9E7
:102C9000FF410E4605004FF0010421D005F0C8FCAD
:102CA000284603F001FD0190876E01A8009703F00C
:102CB00067FD3146684608F0EFFA78B100980024C5
:102CC000B84208D0284603F0EFFC019000998166D5
:102CD00001A803F055FD284613F0F2FC07F012FBA3
:102CE00004B02046BDE8F081F8B515460C46060054
:102CF00018D005F09DFC304603F0D6FC0090032C64
:102D00000BD200EB84006C3003F024FC009800EB45
:102D10008400C566304613F0D3FC684603F030FDEE
:102D200007F0F0FAF8BDFEE7F8B54468054601463D
:102D3000204612F063FB002836D028680B2839D0D3
:102D40000E2805D00F2821D0B0F5107F3CD12CE003
:102D5000204603F0A9FC009010F8746F477868468D
:102D600003F00EFD204614F0CBFB10B3E868416879
:102D7000002929DD0068202826D17F1CB7FBF6F04A
:102D800006FB1071204600F032F91DE02546204672
:102D900003F08AFC0090006F0468684603F0F0FCC2
:102DA000002C01D02846A047F8BD2946204620F037
:102DB00069FB09E0204603F077FC0090783003F0CF
:102DC000C9FB684603F0DCFC2846BDE8F84012F079
:102DD000F3BEF0B585B0B0F90850468A8469029612
:102DE000CDE903540027CDE90017B0F90C10B0F974
:102DF0001050B0F90E40B0F90A00194410442B46A7
:102E0000224600F003F805B0F0BD00002DE9F04FB8
:102E100085B01D46DDE90E9716468A468346DDF8E5
:102E2000488005F005FC254C0EB135B10AE020685C
:102E30008068006880470646F7E720688068006879
:102E4000804705461D486FF07041001DC0688842EC
:102E500001D147F0010708F15400194ACDE90220D9
:102E6000CDE900972B4632465146584612F0ECFD0C
:102E700005001CD003F018FC10220490119912F0E8
:102E800031FC0E4904983C22091D3430FDF73AFA12
:102E9000049821680167022180F874100F21C1672E
:102EA00004A803F06DFC206841682846884707F0B5
:102EB00029FA05B02846BDE8F08F00001404002070
:102EC000292D00082DE9FF470446006810B114F0D1
:102ED00017FB68B10022314850F8221060680A28B8
:102EE00041D007DCF0B306280DD0072854D106E006
:102EF0000122F0E712280AD019284DD137E02046E8
:102F000017F014FE48E0204619F0A4FE44E02068C3
:102F100003F0CAFB0290B0F9548090F85650476C09
:102F2000466B02A803F02CFC206800F039F88146BB
:102F3000684612F057FFBDF8001009EB0500084481
:102F4000ADF80000246A304606F004FB022006F0CB
:102F5000A1FB384606F0C9FA42466946204604F00D
:102F600059F919E007E020461AF0C1F914E0886920
:102F700004B0BDE8F087206813F0F8FE206803F085
:102F800093FB0390B0F90610B0F90220891A491C8E
:102F9000C16703A803F0F4FB0020E9E72C10080840
:102FA00038B5044605F044FB204603F07DFB009055
:102FB000C46F684603F0E4FB07F0A4F9204638BD6F
:102FC00038B50C46050011D005F032FB284603F059
:102FD0006BFB0090416BA14203D04463284613F081
:102FE0006FFB684603F0CCFB07F08CF938BD38B5B1
:102FF0000C4605001BD005F01BFB284603F054FBD4
:10300000009090F87410A1420CD980F87540684681
:1030100003F0B6FB284613F053FB0521284613F0B6
:1030200033FC02E0684603F0ABFB07F06BF938BDF8
:10303000FEB50D46040022D0002D20D005F0F8FA90
:10304000204603F031FB0190866F01A8009603F043
:1030500097FB2946684608F01FF970B10098B04206
:1030600008D0204603F020FB01900099816701A859
:1030700003F086FB204613F023FB07F043F9FEBD67
:1030800000B589B024216846FDF764F91920019044
:1030900003480068806841686846884709B000BDF9
:1030A0001404002010B500F019F8BDE8104000F03D
:1030B00011B8000010B5FDF7ADF804461021044822
:1030C0000BF0D9FF2046BDE81040FDF7A7B800007F
:1030D00074DF0020FFF7EEBFFEE70000024900208A
:1030E000086000F009B80000D00000200149086025
:1030F00070470000D000002010B5FFF779FA0849AA
:103100000A6842F080720A60064900224A600A6832
:1031100042F001020A60BDE81040FFF7E7BF00007F
:10312000FCED00E0001000E001484068704700003E
:10313000001000E0022026F01BBD000070B50B4D12
:1031400000242C600A48016821F0C0010160016878
:1031500041F04001016007480460FFF7EBFF0120E8
:103160002860FFF7E7FF2C6070BD000098824342A3
:10317000002002408C02444210B582B00121802020
:103180000FF0FCF9012108020FF0F8F9402000903F
:1031900001248DF8044000208DF806008DF80740CA
:1031A00002208DF805006946074802F059FD082005
:1031B00000906946054802F053FD05480460054843
:1031C000C0F8984202B010BD001C0240002002402E
:1031D0008C0244420080434270B50B4E00243460A0
:1031E0000A48016821F0C0010160016841F0400116
:1031F0000160074801250560FFF79CFF3560FFF778
:1032000099FF346070BD0000988243420020024064
:103210008C0244422DE9F047824600241748016899
:1032200021F0C0010160016801601E2026F0A0FCB1
:103230000025134FDFF84C9000264FF00108C7F827
:103240009862FFF777FFC7F898826006040ED9F8F6
:103250000C0208B1601CC4B2FFF76CFF681CC5B259
:10326000082DECD3BAF1000F04D0FFF767FF20461A
:10327000BDE8F087FFF7B0FFF9E70000002002404B
:1032800000804342000044422DE9F04705461348C0
:10329000016821F0C0010160016841F04001016056
:1032A0000F4E4FF00008C6F898820024DFF83490E3
:1032B0000127E809C9F88C026806050EFFF73AFFF6
:1032C000C6F89872FFF736FFC6F89882FFF732FF0C
:1032D000601CC4B2082CECD3BDE8F087002002408B
:1032E000008043420000444270B50B48016821F061
:1032F000C0010160016841F040010160074D0120FB
:103300002860074E30601E2026F032FC00242C601E
:10331000FFF710FF346070BD002002408C02444271
:103320009882434270B50B48016821F0C0010160EA
:10333000016841F040010160074D00202860074E00
:1033400030601E2026F014FC01242C60FFF7F2FEF2
:10335000346070BD00200240988243428C02444297
:1033600070B500241248016821F0C00101600168B5
:103370000160104D0120C5F88C020F4EC6F898026E
:10338000FFF7D8FED5F80C0268B1601CC4B2FA2C65
:1033900003D9FFF7C7FF012070BDFFF7CBFED5F8BB
:1033A0000C020028F1D10020C6F8980270BD000080
:1033B00000200240000044420080434210B58CB01F
:1033C000446803A900200FF00DFB02A900200FF0B4
:1033D000E5FA9DF80E0000909DF80D309DF80C2048
:1033E00010A104A823F0B4FA40F60F01204612F011
:1033F0003DFD04A911F00FFD9DF80A0000909DF815
:1034000009309DF80B200AA104A823F0A1FA4FF47B
:103410000161204612F02AFD04A911F0FCFC0CB059
:1034200010BD000025643A25643A256400000000C0
:10343000323025642F25642F2564000070B50025E7
:103440004FF4803400E0641E24B1802010F060F856
:103450000028F8D02CB140F2FF5010F015F82846A3
:1034600070BD032070BD000070B5054600244749BB
:10347000086810F0450F03D1086810F0450FFBD025
:1034800010F0040F05D0032404200FF0FDFF2046A8
:1034900070BD10F0010F05D0012401200FF0F4FFE2
:1034A000204670BD10F02EF8A84201D0102070BD4B
:1034B00040F2FF500FF0E8FF002010F045F83449CB
:1034C000084201D1204670BD10F0004F01D01C20F1
:1034D00070BD10F0804F01D0092070BD10F0005F6A
:1034E00001D00A2070BD10F0805F01D00B2070BDAC
:1034F00010F0006F01D00C2070BD10F0806F01D073
:103500000D2070BD10F0807F01D00E2070BD10F432
:10351000000F01D00F2070BD10F4800F01D01020DB
:1035200070BD10F4001F01D0112070BD10F4801F79
:1035300001D0122070BD10F4002F01D0132070BDF7
:1035400010F4802F01D0142070BD10F4003F01D082
:10355000152070BD10F4803F01D0162070BD10F40E
:10356000004F01D0172070BD10F4804F01D01820FB
:1035700070BD10F4005F01D0192070BD10F0080F6D
:1035800001D01A2070BD204670BD0000342C0140CF
:1035900008E0FFFD10B50024104A116811F0450F36
:1035A00003D1116811F0450FFBD011F0040F05D0C5
:1035B000032404200FF068FF204610BD11F0010F16
:1035C00005D0012401200FF05FFF204610BD40F21E
:1035D000FF500FF059FF204610BD0000342C014071
:1035E00010B500240B4A116811F0450F03D1116882
:1035F00011F0450FFBD011F0040F05D00324042077
:103600000FF042FF204610BD40F2FF500FF03CFF8C
:10361000204610BD342C014070B506460C460025EE
:103620001F4A106810F0450F03D1106810F0450FC5
:10363000FBD010F0040F05D0032404200FF024FF6A
:10364000204670BD10F0010F05D0012401200FF0BD
:103650001BFF204670BD0FF055FFB04201D0102077
:1036600070BD40F2FF500FF00FFF00200FF06CFF15
:1036700010F4604F04D010F4005F05D0132070BD2B
:10368000000C2080284670BD10F4804F01D010201F
:1036900070BD10F4004F01D00F2070BD284670BDE2
:1036A000342C014010B500204FF480310E4B1A68C5
:1036B00001E0491E1A6812F0450F01D10029F8D126
:1036C00011B112F0040F05D0032404200FF0DCFE2A
:1036D000204610BD12F0400FFBD0002440200FF018
:1036E000D3FE204610BD0000342C014010B582B03E
:1036F00012F0A6FB002403460094054A0D2105485C
:10370000019403F009FB04490C7002B010BD0000E5
:10371000E18502080CA30508B300002000B583B0C2
:1037200012F08EFB0021009103460191034A04210F
:10373000034803F0F1FA03B000BD0000318E020827
:1037400078A4050870B500241448016821F00C0124
:10375000016001680160124D04E0601CC4B20120E8
:1037600026F006FAD5F8040208B1642CF5D3642CCF
:1037700001D3012070BD002404E0601CC4B201200C
:1037800026F0F6F9D5F8040208B9642CF5D3642CB8
:1037900001D3012070BD002070BD00000008024070
:1037A0000000414270B50024104D04E0601CC4B21A
:1037B000012026F0DDF9D5F8040208B1642CF5D318
:1037C000002404E0601CC4B2012026F0D1F9D5F831
:1037D000040208B9642CF5D31E2026F0C9F9D5F8E7
:1037E000040208B1012070BD002070BD00004142FC
:1037F00070B5002000244006050EFFF7D3FF2843D4
:10380000611CCCB2082CF6D370BDF0B583B006466F
:103810000F4600F02DF8FFF795FF10B103B001201F
:10382000F0BD002401ADFFF7E3FF2855601CC4B2D2
:10383000052CF8D39DF804009DF805109DF807208D
:1038400008449DF80610114408449DF80810884269
:103850000BD101A811F094FC26F09AFA3880A81C2C
:1038600011F08EFC26F094FA308003B00020F0BDF9
:1038700010B50B48016821F00C010160016841F0AE
:1038800004010160074C00202060142026F06AF932
:1038900001202060BDE810401E2026F069B900001C
:1038A000000802408402414200B583B00121042097
:1038B0000EF064FE0220009001218DF80410002219
:1038C0008DF806208DF807108DF80500694604482C
:1038D00002F0C6F9FFF7CCFFFFF734FF03B000BDDD
:1038E00000080240014902208860704700B0024091
:1038F00010F030BD074A904201D2074800E0074867
:10390000074A11F0005F01EA020101D0C16070476F
:103910008160704710640240006002400064024011
:103920007D0F7D0F002904D0016841F00101016085
:103930007047016821F00101016070472DE9F00333
:10394000016821F001010160002101604160816096
:10395000C160016121214161444A45494FF03D0860
:10396000904204D1C1F80880BDE8F0037047414A95
:103970004FF47464904203D18C60BDE8F00370474B
:103980003D4A4FF47415904203D18D60BDE8F003B9
:1039900070473A4A4FF07466904203D18E60BDE89A
:1039A000F0037047364B374A984203D1CA60BDE8EE
:1039B000F0037047DFF8D0C0344B604503D1CB60D3
:1039C000BDE8F0037047324FDFF8C8C0B84204D1F9
:1039D000C1F80CC0BDE8F0037047DFF8BC904FF0B1
:1039E0003D57484503D1CF60BDE8F0037047DFF88D
:1039F000AC902B49484504D1C1F80080BDE8F003E4
:103A00007047DFF8A080404503D10C60BDE8F003AB
:103A10007047254CA04203D10D60BDE8F00370470C
:103A2000224CA04203D10E60BDE8F0037047204C49
:103A30002049A04203D10A60BDE8F00370471E4A46
:103A4000904203D10B60BDE8F00370471B4A9042DF
:103A500004D1C1F800C0BDE8F0037047184A904295
:103A6000F9D10F60BDE8F00370470000106002401C
:103A700000600240286002404060024058600240FE
:103A8000706002403D00002088600240400F00202E
:103A9000A060024000003D20B86002401064024077
:103AA00008640240286402404064024058640240B6
:103AB000706402400C64024088640240A0640240CA
:103AC000B8640240002904D0016841F0200101607F
:103AD0007047016821F020010160704711F0800FEC
:103AE00009D022B1436943F08003436103E0436995
:103AF00023F080034361802905D001F01E011AB133
:103B00000268114301607047026822EA0101016006
:103B10007047000010B402681C4B1A40D1F80CC06A
:103B20000B688C6943EA0C03D1F814C04CEA040C0E
:103B300043EA0C03D1F81CC043EA0C03D1F820C0BF
:103B400043EA0C03D1F824C043EA0C03D1F828C09F
:103B500043EA0C03D1F834C043EA0C03D1F838C06F
:103B600043EA0C031A430260426922F00702D1F8CB
:103B700030C0CB6A43EA0C031A4342610A694260CF
:103B80004A6882608968C16010BC70473F801CF041
:103B90002DE9FC410C46050038D004F049FD112CFC
:103BA00014D0132C28460ED002F07EFD009000F0B9
:103BB000FCFB0646684602F0E3FD204621F079FF53
:103BC000074600241CE000F006FB1BE0284600F03E
:103BD00087F917E02146284600F0EAFB019070B112
:103BE000007821F066FF00F0FF0801A802F0C8FD90
:103BF000B84504D12146284600F08EFB02E0641C43
:103C0000B442E7DBBDE8FC4106F07CBBBDE8FC81CB
:103C1000F8B50C46050018D0002C16D004F008FDAD
:103C2000284602F041FD0090C66B684602F0A8FDF0
:103C30002046FCF7ACFB421C2146304602F0C2FD98
:103C4000284612F03DFD06F05DFBF8BD2DE9FF4171
:103C500045680446284602F027FD0190D0F88860A8
:103C600001A802F08DFD0EB1012700E000272146DA
:103C7000284611F0C3FB002856D02068112844D0F4
:103C800006DC0B2863D00E2878D00F282BD14FE00C
:103C9000212805D026281AD0B0F5107F23D139E08D
:103CA000E068416800291EDD00680D281BD1304600
:103CB00009F0A5FD002806DB304609F0A0FD01460D
:103CC000284600F029FB284600F07EF875E0E06801
:103CD000012809D00A2802D00B2871D111E00A214D
:103CE000284612F0D1FD6BE0304609F088FD00282F
:103CF00066DB304609F083FD0146284600F00CFBE8
:103D00005BE0284600F060F85AE0FFB9E068007A0E
:103D100098BB55E0E06848B1007A08B1012100E0A5
:103D20000221284612F0B0FDBDE8FF810321F8E72B
:103D30002E46284602F0B8FC0290D0F884000568B0
:103D400002A802F01DFD0DB13046A84738E0284614
:103D500002F0AAFC0090C06B02F074FD0098D0F84D
:103D6000880011F061FF0098D0F8940002F0CEFBBB
:103D7000684602F005FD23E000E016E0E0684168D7
:103D800000291DDD016820290FD006DC092910D08B
:103D90000A2915D01B2904D112E0212910D022298B
:103DA0000ED02846FFF7F4FEBEE7284600F0FAF8EA
:103DB00006E012F0A1F8B04202D1284612F02AFF24
:103DC000204611F0F9FEAFE738B5040016D004F034
:103DD0002FFC204602F068FC0090D0F8880040B12B
:103DE00011F022FF00990020C1F88800204612F04F
:103DF00067FC684602F0C4FC06F084FA38BDF0B5F2
:103E000085B0B0F90850468A84690296CDE903541A
:103E10000027CDE90017B0F90C10B0F91050B0F937
:103E20000E40B0F90A00194410442B46224600F017
:103E300003F805B0F0BD00002DE9FF5F1D46DDE988
:103E40000F8691468A4683460E9F129C04F0F0FB33
:103E500021496C34CDE90214CDE900784FF0FF33ED
:103E60004A465146584611F0EFFD04002DD002F0AD
:103E70001BFC10220090119911F034FC009838229C
:103E8000164980F88C604C30FCF73CFA134E0098D1
:103E9000361F3168C0F88410002180F89010C58664
:103EA000204600F061FA684602F06AFC02F0C7FCA6
:103EB0000546204602F0F8FB0090C563684602F014
:103EC0005FFC306841682046884706F01BFA04B062
:103ED0002046BDE8F09F00004D3C0008580400203B
:103EE00010B5044600F063F9010000D0411E2046E1
:103EF000BDE8104000F010BAF8B50546006802F0C1
:103F0000D3FB0090448ED0F88860684602F038FCFD
:103F100006B1012604F00104286813F0F1FA0EB18D
:103F2000002006E00CB1012003E008B1022000E00F
:103F300003201B4951F82010686858B302280CD0A0
:103F4000052802D0122828D103E0284616F01AFED0
:103F500023E0284619F065FF1FE06A69E8694FF021
:103F6000FF33801AA0F1080203EB6204421CAB6924
:103F7000001B4510A3EB6206C86905F0B6FA06E01F
:103F80003219311B284603F0FBFA641E6D1C002C0D
:103F9000F6DA02E0286812F0E9FE0020F8BD000021
:103FA000341008082DE9F14F9EB01E9800287DD0EE
:103FB00004F03EFB1E9802F077FB0B901E9812F067
:103FC000A6F803900B98B0F9367090F890101891FD
:103FD000C16B0A9190F88C90B0F93410159100F0F3
:103FE000E4F982460B9804ACB0F88E101491B0F945
:103FF00082101391C16C1291D0E90012CDE90C121C
:10400000D0F894B0002100BF00EB8102126D44F89B
:104010002120491C0329F7D3002107AD00EB8102C1
:10402000D26D45F82120491C0329F7D300210EAE9B
:1040300000EB8102126F46F82120491C0329F7D3B7
:104040000BA802F09DFB1E9811F0F3FF02F02CFB71
:104050001190D0F8008011A802F092FB4FEA28409E
:1040600042420FFA88F041420CA805F043F85FEA9B
:10407000897003D5BDF83200C01B01E0BDF83600E1
:10408000ADF832001E9811F0D4FF014603980222C9
:10409000CDE900070292BDF93230BDF93020002091
:1040A00009F03DFB80465FEAC97000E07CE007D084
:1040B0004046189909F0F1FD0121404609F012FD32
:1040C000002708E039460A9802F01DFC01464046E8
:1040D00009F0E0F97F1C5745F4D30027394654F81E
:1040E0002720404609F028FD7F1C032FF6D300242B
:1040F000214655F82420404609F068FE641C032C34
:10410000F6D30024214656F82420404609F0A5FDA8
:10411000641C032CF6D3BBF100001FD002F0C4FADC
:10412000169030F8025B00240646012711E000BF1C
:1041300006EBD40004F00701007807FA01F1084209
:1041400001D0012200E000222146404609F026FD70
:10415000641CAC42ECDB16A802F012FB404614993A
:1041600009F04FFD4046129909F0FFFC40461399B3
:1041700009F017FE404612F04DFD40461E9909F029
:1041800057FD4046159909F0A5FD01211E9812F032
:104190007BFB1E9802F088FA0B90C0F888800BA871
:1041A00002F0EEFA06F0AEF81FB0BDE8F08F38B5B9
:1041B00005004FF000040CD004F03AFA284602F053
:1041C00073FA0090B0F93440684602F0D9FA06F06C
:1041D00099F8204638BD10B50446FFF7E8FF411CAA
:1041E0002046BDE8104000F097B8F8B50E46040030
:1041F00021D004F01DFA204602F056FA009090F803
:104200008C10D0F8885021F001040EB144F0010464
:10421000A1420BD080F88C40684602F0B1FA45B15B
:1042200004F00101284609F05DFC02E0684602F056
:10423000A7FA06F067F8F8BDF8B50C46060028D0D6
:1042400004F0F6F9304602F02FFA0090D0F88850CA
:10425000C06C03F0B3FE07460098C464684602F0E1
:104260008FFA304600F080F8304612F029FA75B126
:10427000204603F0A3FEB84205D03046FFF7A4FD68
:104280003046FFF78FFE2146284609F06EFC06F007
:1042900039F8F8BDF8B50C4605004FF0000618D007
:1042A00004F0C6F9284602F0FFF90090B0F9366034
:1042B000D0F88850C486684602F062FA3DB12846BC
:1042C00011F025FF01462246284612F0A4FD06F013
:1042D00019F83046F8BD38B50C4605001BD004F07F
:1042E000A7F9284602F0E0F9009090F89010D0F875
:1042F00088508C420AD080F89040684602F040FA1C
:104300003DB12146284609F0C8FC02E0684602F0AB
:1043100037FA05F0F7FF38BD38B50C46050022D056
:1043200004F086F9284602F0BFF9009000F03DF84D
:1043300000B1401E844200DD04460098B0F93410FC
:10434000A1420BD08486684602F01AFA284612F081
:10435000B7F90421284612F097FA02E0684602F005
:104360000FFA05F0CFFF38BDF8B5044602F09CF90E
:1043700001460090B0F9380010B9C86C03F01EFE79
:104380000099CA6AB1F98030126800EB4300161830
:10439000084612F033FF0546684602F0F1F932464E
:1043A0002946204612F037FDF8BDC06B02F09FBAD7
:1043B00038B50D46002402F077F90090C06B29460D
:1043C00002F0A1FA0546684602F0DAF91DB1284666
:1043D00002F06AF90446204638BD704770B586B0D1
:1043E000012108460EF0CAF8012110200EF0FEF857
:1043F0001E4E07220A21304601F07DFC07220921CA
:10440000304601F078FC00248DF8164001218DF82B
:10441000171002258DF81450490204918DF815509B
:1044200004A9304601F01CFC8DF814506802049079
:1044300004A9304601F014FC4FF4E1300090ADF8CF
:104440000440ADF80640ADF80840ADF80C400C2033
:10445000ADF80A00064C6946204610F013FF012112
:10446000204610F0BBFE06B070BD00000000024008
:10447000001001400FB438B505A80090049C2078C6
:10448000002808D02078252808D0641C29F092FC48
:1044900020780028F6D138BC5DF814FB14F8010F21
:1044A00064281ED00CDC58283AD004DC25283ED0E5
:1044B00042283FD12DE062282BD063283AD108E072
:1044C000662815D069280CD073281BD0782831D1E4
:1044D00026E0009810F8041B0090C8B229F06AFC8E
:1044E00028E0009951F8040B009129F069FC21E0C3
:1044F0000098C01D20F00700B0EC020B009029F0DE
:1045000083FC17E0009951F8040B009129F0CEFCD0
:1045100010E0009951F8040B009129F031FC09E0FA
:10452000009951F8040B009129F09EFC02E025202F
:1045300029F040FC641CABE700234FF02042102818
:104540000BD0B0F5807F0AD0B0F5805F0AD0D2F8EA
:10455000580131EA000009D107E0506EF9E7D2F8BE
:104560008400F6E7D2F8A400F3E701231846704769
:104570004268016811438268C068521E520142EAD3
:10458000402008430149086070470000500100A026
:1045900030B403689900A1F1C041D1F840116FF324
:1045A0000E01D0F808C04268046942EA0C02D0F853
:1045B0000CC04CEA040C42EA0C02D0F814C042EAE7
:1045C0000C02D0F818C042EA0C0CC2694CEA020492
:1045D000D0F820C044EA0C05446A254329434FF033
:1045E0002045002B48D0D5F840316FF30E0342EA46
:1045F0000C0223431A43C5F8402102689200A2F13D
:10460000C042C2F840110168A9B38900A1F1C041BC
:10461000D1F8481101F07042816A0B68D1F804C0EA
:104620005B1EACF1010C43EA0C13D1F808C0ACF1ED
:10463000010C43EA0C23B1F810C0ACF1010C43EAC1
:104640000C431A43D5F8483103F07043D1F80CC03D
:10465000898AACF1010C4FEA0C3C491E4CEA01512D
:104660001943C5F8481100688000A0F1C040C0F8A7
:10467000482130BC704702E0C5F84011C3E7D5F8C7
:10468000481101F07041806A02684368521E5B1E47
:1046900042EA031283685B1E42EA0322C3685B1E80
:1046A00042EA0332038A5B1E42EA0342838A007EA7
:1046B0005B1E42EA0352401E42EA00600843C5F80E
:1046C000480130BC7047000002490A6842EA4000D5
:1046D00008607047540100A02DE9F04389B0984666
:1046E00015460F4606004FF000042CD000F0A8FB42
:1046F0000446304600F08BFB814603F099FF03A986
:10470000304600F0AEFCF80706D0BDF91C0082214F
:10471000001B401B401C08E0B807BDF918002844E6
:1047200002D540F2022100E002210096CDE901818C
:1047300023461A464946FEF7FFF80446002110F0CA
:1047400016FF05F0DFFD09B02046BDE8F08300004C
:1047500010B50523FFF7C0FF0446054A0021FEF708
:1047600080FA0449204612F0C0F9204610BD00002E
:104770006DA90108CD8502082DE9F047044640687F
:104780008EB00027804601F08FFF0090B0F87CA02B
:10479000D0F86890D0F88060D0F88850C06D00B133
:1047A0000768684601F0ECFF05E069682046884725
:1047B000002843D12D68002DF7D12068172853D049
:1047C0000CDC0F283DD004DC0B2877D00D2825D138
:1047D0008BE0112810D0142820D13BE0262846D0A9
:1047E00004DC1E2851D0202818D18AE02A2816D0AF
:1047F000B0F5107F12D128E04046E56801F054FF83
:104800000290697A39B9297A012904D130F87C1FDC
:1048100041F48071018002A801F0B2FF75E04046CA
:1048200001F042FF0090E16811B1C0F8841002E08D
:10483000D0F88400E060684601F0A2FF0EB0BDE849
:10484000F087D7B34046B8475FE0214640461EF0A8
:104850004FFEF3E705A9404600F003FCE068069927
:10486000016007994160E9E7C4F80C90E6E7E06869
:104870000228E3D1CDF83080E0680D9027200A901F
:104880000AA9A06813F036F8D8E7E068012804D038
:104890000021404600F0F1FAD0E7304611F079FFF0
:1048A00068B1304612F0B6F9304611F035FE98B1D5
:1048B0000121304610F037FE0EE026E02FE048469A
:1048C00012F0FCF90646404601F0EEFE0090C0F8FA
:1048D0008060684601F054FF0121404600F0CDFAA7
:1048E000002EABD10020E060A8E75FEA0A700CD48C
:1048F000E068C06848B1007A38B1404612F08AF9E1
:1049000003E0214640461EF086F82146404610F05E
:1049100075FD002892D0204611F04EF98EE74046F2
:1049200001F0C2FE0090703001F014FE684673E79B
:10493000F0B587B0B0F908400DF10C0C0C9E8769FA
:1049400045688CE8F000448A0025CDE90015029402
:10495000B0F90C10B0F91050B0F90E40B0F90A00DF
:10496000194410442B46224600F002F807B0F0BD6F
:104970002DE9F04F8BB09846DDE9155691468A46F1
:104980008346149F1A9C03F053FE3348603445F469
:104990008055CDE90204CDE9007543464A465146AB
:1049A000584611F051F804004FD001F07DFE30223E
:1049B0000490179910F096FE049828222749343065
:1049C000FBF7A0FC04981999244F4166A0F87C607D
:1049D0000026C0F88060C666083FC0F88860796825
:1049E000C16504A801F0CCFE05A9204600F039FB02
:1049F0001B4841F2827103960094CDE90110BDF984
:104A00001E00BDF91A10BDF91C20431ABDF918008B
:104A10005B1C121A521C11F017F8064678684168A0
:104A200020468847204601F03FFE0490866604A891
:104A300001F0A6FE42F20400054202D1204611F028
:104A40006BF92046189900F076FA05F05BFC0BB084
:104A50002046BDE8F08F0000794700089804002048
:104A6000695300082DE9F041044694B0006800F055
:104A7000B7F908B1D94D01E0D84D2C35606815283B
:104A80001ED00CDC0B281FD004DC00287ED00528AB
:104A90007DD12FE10E287BD01228F9D141E11628D3
:104AA00006D0172808D0182808D01C28F0D109E013
:104AB000E86914B0BDE8F081286AFAE7686AF8E7A7
:104AC000A86AF6E76869F4E720680B901C200C9050
:104AD000206801F0E9FD0390016D0BA888470646A8
:104AE00003A801F04DFE022E0FDB95E807008DE8CC
:104AF0000700D4E904023346A16906F041F82069B1
:104B00008719A069A0EB06082CE0286804F0EDFCEA
:104B10002169E8690A18521E606902F031FDA26934
:104B2000E869111A491C606902F02AFDD4E90407FA
:104B30007F1C394602F074FD3946A06902F070FD11
:104B4000686804F0D2FC20693946401C02F068FD18
:104B5000A0693946401E02F063FDA0692769A0F1F3
:104B60000208BF1C286804F0C0FC42463946606950
:104B700002F006FD686804F0B8FC606942463946F8
:104B8000401C02F0FDFC686A022802E015E1B0E07A
:104B900000E10BDDA86804F0A8FC61696A6A881C62
:104BA0008B180146424638465B1E27E0296AB1420F
:104BB00026DD6069022E074600F1020801DB37445A
:104BC00001E007F10207206901DB304401E000F158
:104BD000020022693B460A444146A2F1010202F06A
:104BE000F9FD022E02DBA069821B01E0A269921E80
:104BF000A069E9693B46401A4146401C02F0EAFDC3
:104C0000022E02DB6069064401E06669B61CE769B2
:104C100028687F1E04F069FC3A463146206902F09C
:104C200065FD3A463146A06902F060FDE7696868B3
:104C3000BF1E04F05AFC20693A463146401C02F07F
:104C400055FDA0693A463146401E02F04FFDE86925
:104C5000022802DC286A022823DDA86A022802DD75
:104C6000E1690F1A01E0E769BF1EA86804F03DFC86
:104C7000E969022909DD20693B46421800F1020C6E
:104C800031466046521E02F0A5FD286A022808DD62
:104C9000A269E8693B46101A3146401C921E02F098
:104CA00099FD286804F021FCD4E90620216902F06E
:104CB00067FC686804F019FCD4E906202169401EED
:104CC000491C521E02F05CFCA86A022811DDA16991
:104CD0002669E469A1F10208271AA41EB61C7F1CEC
:104CE000A86804F002FC234642463946304602F0EA
:104CF00071FD71E0208A00B2ADF81400A18A09B2FA
:104D0000ADF81610228B12B2ADF81820A38B1BB28F
:104D1000ADF81A302C69ED68CDE9005402F0F4FBCF
:104D20005AE0208A298B0844ADF81400A08AADF817
:104D30001600208B298B401AADF81800A08BADF817
:104D40001A00206801F0B0FC0390006FF0B102205F
:104D500004F0A0FC039890F87C10C1F3C00100EBB4
:104D60008100006C04F0C1FB0398406B04F0F2FB7F
:104D70000398006F01F098FC03990990B1F95A204B
:104D800005A902F047FA09A801F0FAFC03A801F00E
:104D9000F7FC21E0208AADF81400A08AADF81600D7
:104DA000208BADF81800A08BADF81A00A86804F0AD
:104DB0009CFB05A802F03AFD0EE0206801F074FCAF
:104DC000039030F85A1F41F00C01018003A801F054
:104DD000D7FC206811F0CAFF00206AE6C80800204E
:104DE00038B505004FF000040FD003F021FC284631
:104DF00001F05AFC009090F87C00000700D50124D7
:104E0000684601F0BDFC05F07DFA204638BD38B596
:104E100005004FF0000411D003F00AFC284601F011
:104E200043FC0090C06D00218068026828469047CE
:104E30000446684601F0A4FC05F064FA204638BD3B
:104E400030B587B005004FF0000413D003F0F0FB3D
:104E500001A9284600F005F9284601F025FC00903C
:104E6000B0F95440684601F08BFC0CB9BDF9044020
:104E700005F048FA07B0204630BD70B50D46040075
:104E800009D003F0D5FB294620461FF06FFCBDE892
:104E9000704005F037BA70BD2DE9FC410D468046E3
:104EA00003F0C6FBB8F1000028D001F0FDFB019033
:104EB000C16D8C6800F03CF907460198456301A874
:104EC00001F05EFC226801214046904706462268B8
:104ED00003214046904705462268002140469047FE
:104EE0000446404600F009FA2B4632463946404611
:104EF000009400F092F9404611F0E2FB05F002FA4E
:104F0000BDE8FC8138B50C46050013D003F090FBDA
:104F1000284601F0C9FB009030F87C1F14B141F025
:104F2000100101E021F010010180684601F028FC29
:104F300005F0E8F938BD7CB50D4604001DD003F03E
:104F400077FB204601F0B0FB0090006F01906846AF
:104F500001F016FC294601A806F09EF958B120463A
:104F600001F0A2FB009001990167684601F008FC7E
:104F7000204611F0A5FB05F0C5F97CBD38B50C46FF
:104F8000050013D003F054FB284601F08DFB009080
:104F9000B0F95A10A14204D0A0F85A40284611F0A6
:104FA0008FFB684601F0ECFB05F0ACF938BD000062
:104FB00038B50C46050015D003F03AFB284601F041
:104FC00073FB0022CDF8000000EB8201521C0C6440
:104FD000022AF9D3684601F0D3FB284611F070FB92
:104FE00005F090F938BD2DE9FC470D465FEA000950
:104FF0004FF0000432D003F01BFB484601F054FB95
:105000000190B0F95440A54223D000F091F88046B9
:1050100001980121A0F85450C06D856848462A685F
:10502000904707462A6803214846904706462A6863
:105030000021484690470546484600F05EF9334651
:105040003A4641464846009500F0E7F8484611F0D8
:1050500037FB01A801F094FB05F054F92046BDE8A8
:10506000FC872DE9F34F85B000270C46B84605981C
:1050700001F01AFB0090C06D0121856805982A682F
:10508000904782462A6803210598904704902A6831
:1050900002210598904703902A68002105989047BF
:1050A0000646009812F0AAF88346009812F0ADF870
:1050B0008146009890F83210890601D5B0F95880E1
:1050C00000F036F805460098C06E10B111F036F8C1
:1050D000074625806780A4F804A0049AABEB020081
:1050E00006EB0802401E2A4420813A44E280039BDA
:1050F000A9EB0302521E6281A4F80CA02082701951
:10510000E681401E6082684601F03AFBB4F90C006B
:105110000190B4F91000029002AA01A9059800F0CC
:1051200039F80198A0810298208207B0BDE8F08F7D
:1051300010B50146002091F83220920607D5B1F94A
:105140005400002803D1486B02F03AFF801C10BDC8
:1051500070B58AB00C46054601F0A6FA0990C06DFC
:10516000866809A801F00CFB009534B1012C06D02B
:10517000022C0BD0032C04D10AE0182000E01620EA
:1051800001907168684688470AB070BD1520F7E73E
:105190001720F5E72DE9FC4117468846044601F043
:1051A00083FA0090C16D056868468E6801F0E8FAE0
:1051B00032680021204690470646204610F07EFEC9
:1051C00027E000BF01F070FA0190B0F900102AB298
:1051D000B0F90430891A9A1AB0F90230A3EB2543CA
:1051E000B34210D190F82800000605D538688842EF
:1051F00009DB491E396006E0D8F80000904202DC65
:10520000521CC8F8002001A801F0BAFA204610F09C
:1052100003FF0400D6D1BDE8FC812DE9FF4F83B028
:105220000E460746DDF8409001F03EFA0190C16D50
:105230008D68FFF77DFF044601A801F0A1FA2A68F6
:1052400001213846904783462A6803213846904713
:1052500082462A680021384690470546B44207D165
:1052600005998B4504D106998A4501D14D4541D018
:10527000A41B0026B046384610F020FE38E001F0AE
:1052800013FA0090806A010601D5800502E08105CD
:1052900028D50006002825DB24B1224611463846D1
:1052A00011F02FFB009890F8280000060AD5069808
:1052B000A5EB0902A0EB0A0004FB16013846761C98
:1052C00011F0D3FA0098008D80050BD50599A5EB58
:1052D0000902ABEB010004FB080108F101083846A4
:1052E00011F0C3FA684601F04BFA384610F094FE0C
:1052F0000700C4D107B0BDE8F08F70B586B0064690
:1053000001F0D2F90590D0E91A4505A801F038FA64
:1053100054EA050026D069463046FFF7A2FEACB13C
:10532000BDF90620BDF90410204611F071FABDF94F
:105330000A00BDF90610421ABDF90800BDF90410B3
:10534000521C411A2046491C11F065FD002D09D060
:10535000BDF90600BDF90210421ABDF90410284635
:1053600011F056FA06B070BD2DE9F04304464068CE
:1053700089B0054610F05DFE814601F095F9029076
:10538000D0F84880D0F88070466E02A801F0F8F995
:105390002068172853D008DC0E283AD00F2811D0E7
:1053A00014284CD015283DD149E01E281ED01F28B6
:1053B0002AD0222840D0312834D10020E06009B022
:1053C000BDE8F0836FF070414046884503D007F098
:1053D00035FC01F055FC002EF1D0D4E90212206812
:1053E000CDE90405CDE9061204A81FE0E068002815
:1053F000E5D02FB1AF4203D0384611F00BFCDEE709
:10540000284611F05BFCDAE7214648460FF0F6FF2C
:10541000D5E7E0684168002904DD00680928EFD07D
:105420000A2805D05EB12046C4F80490B047C6E70C
:10543000284611F077FCC2E7C4F80C80BFE720468D
:1054400010F0BAFBBBE700002DE9F04782B00E4632
:1054500000240025009501955D4F4FF00809C7F81D
:105460000090102078604FF04008C7F80880FD6079
:105470004FF4806AC7F810A038460EF0A5F8102047
:10548000FDF7F2FF002834D152480089000438604B
:1054900037207860C7F80880FD60C7F810A038464C
:1054A0000EF092F83720FDF7DFFF002821D1411ED2
:1054B00007F114000160C0F80490302181600221DE
:1054C000C1600561012141610DF0F6FF3D603320AF
:1054D0007860C7F80880FD60C7F810A038460EF065
:1054E00073F83320FDF7C0FF8146B9F1000F03D0F8
:1054F000484602B0BDE8F087374F386840F22A6866
:1055000010EA080F0ED16D464FF400100EF000F8AF
:1055100020B10EF053F845F82400641C386810EAF6
:10552000080FF1D008200DF0F3FF30B108200DF086
:10553000ABFF042002B0BDE8F08702200DF0E8FFC9
:1055400030B102200DF0A0FF022002B0BDE8F087CC
:1055500020200DF0DDFF30B120200DF095FF06205A
:1055600002B0BDE8F0874FF400700DF0D1FF38B104
:105570004FF400700DF088FF072002B0BDE8F087FF
:1055800040F2FF500DF080FF00980099000601F4F2
:105590007F4140EA0120009901F47F0140EA112097
:1055A000009940EA1160706001980199000601F4C9
:1055B0007F4140EA0120019901F47F0140EA112076
:1055C000019940EA1160306002B04846BDE8F087BA
:1055D000780B002024000020342C01402DE9F043FA
:1055E0000446C56887B090468946002003F0A5FFB1
:1055F000064625B1287910B146F0020001E026F0F8
:10560000020003F09AFF2069012558B1D4E9021283
:105610008DE8260003956388228804684146484641
:10562000A0471EE0124F134B214638681B68427C8E
:10563000E068984730B9E088012801D0002001E0F7
:105640003868806BA288E388A1680095CDE90410D2
:10565000CDE902320195638822884146484606F02A
:105660001FFD07B03046BDE8F04303F066BF000001
:10567000C8020020B80200201CB50024019401AC2F
:10568000009400F0E7F81CBD2DE9FF4F83B0814680
:1056900006988A46A0EB0A08109E00200090A2EB14
:1056A00009043568934654EA080018D02046FBF7F1
:1056B000A0FB07464046FBF79CFB87420BDA2046DF
:1056C000444680464846D14682465846DDF818B0E2
:1056D000069001200090002C07DD204606E007B070
:1056E0004846BDE8F04F00F03BB96042A0420AD006
:1056F0004846D9466442C8F1000883464FF0FF3758
:10570000DDF818A000E001275148B8F1000F11D0D2
:1057100004EBD4714FEA610B01DACBF1000B4C487A
:105720000068807E88B3002F02DA30682044306041
:1057300000257BE000990029016821D0897E11B104
:105740000027804615E007B05A4649465046BDE856
:10575000F04F06F007BE28466D1C1FF005F938B95A
:10576000D8F8000009EB0701406E426850469047A8
:105770007F1CA742EFDD6D1E356007B0BDE8F08FDE
:105780008A7E1AB10027804617E019E0486E5A4613
:105790005146036807B04846BDE8F04F1847284611
:1057A0006D1C1FF0E1F838B9D8F8001009EB0700BC
:1057B000496E4A68514690477F1CA742EFDDDAE701
:1057C00000250FE008FB05B090FBF4F101EB0A00A7
:1057D000009951B11E4A09EB05011268526E5268D8
:1057E00090476D1CA542EDDDC7E7194909EB05039C
:1057F0000968496E4A6801461846F1E708FB05B09A
:1058000090FBF4F101EB0A000190306838443060FD
:105810001FF0AAF848B9009890B10D4809EB0501AE
:105820000068406E4268019890476D1CA542E5DD16
:105830003068002F01DA20443060C01B30609CE7E4
:10584000034909EB05000968496E4A680199EBE7CD
:10585000C80200202DE9FF470F4640491646804602
:1058600009680C981D460A7E012A1CD0A8EB060088
:10587000791B50EA01031CD0A2F1010922F0BEFB02
:1058800000F58060824605F0FCFD00FB09F45046FF
:1058900005F0FCFD00FB09F1002C0CDAC4F50070EA
:1058A000801240420AE00090324639464046FFF7F7
:1058B000EBFEBDE8FF8704F50074A012002904DAAE
:1058C000C1F5007189124C4202E001F500718C12A1
:1058D000002804DD411C01EBD171491003E000EB0D
:1058E000D0714910401E00EBD0704210002C04DD36
:1058F000601C00EBD070401003E004EBD47040104B
:10590000641E04EBD47308EB0104ADF800403C18AE
:10591000ADF80240A8EB02045B10B21AADF80440E7
:10592000ADF808203144FC1AEA1AADF80C102844EE
:10593000ADF80A20ADF80E000023ADF806401A4677
:105940000421684600F07AF83946404618F0BAF863
:105950002946304618F0B6F8ABE70000C802002030
:10596000064A13681A7E012A05D0521E02EBD27233
:10597000521000F005B85A6E52681047C802002055
:105980002DE9F05F0646884640F2C32002FB00F195
:105990004FF47A7091FBF0F702FB02F102EBD27048
:1059A00001EB600B1446B118234A301B7F1C1268B0
:1059B000526E13680A4641469847012538E000BFF9
:1059C00005FB05F004FB040159451CDDBC4219DD53
:1059D000194B06EB050AA6EB05091B68AAF10102A3
:1059E00008EB04015B6E09F101001B689847124B3C
:1059F000AAF10102A8EB04011B6809F101005B6E2A
:105A00001B689847641E0C4B3219301B1B6892466A
:105A100008EB05015B6E81461B689847064B5246B2
:105A2000A8EB05011B6848465B6E1B6898476D1C18
:105A3000BD42C5DDBDE8F09FC80200202DE9FF4F43
:105A400043F6FF740F46664283B09B4681460021B1
:105A50000BE000BF09EB8100B0F90200A04200DAC0
:105A60000446B04200DD0646491CB942F2DB6748F5
:105A70000068406900280DD0B0F906101A46A1EB65
:105A80000B01B14200DA0E46B0F90200801AA042C2
:105A900000DD0446B4E0DFF878A100200546CAF82E
:105AA000000088E0781E854201DA6B1C00E00023CC
:105AB00009EB850C09EB8302BCF90200B2F9021074
:105AC000A04244D1A14215D139F92330059A39F9C0
:105AD000251003EB020C4D4A05981268084404EBAC
