:020000040800F2
:1000000028230120C101000849C200088D9500087D
:100010005DC10008D12800084D190108000000004A
:100020000000000000000000000000004511010871
:10003000ED390008000000009D0B000809DA0008F7
:10004000FB010008FB010008FB010008FB010008A0
:10005000FB010008FB010008FB010008FB01000890
:10006000FB010008FB010008FB010008FB01000880
:10007000FB010008FB010008FB010008FB01000870
:10008000FB010008FB010008FB010008FB01000860
:10009000FB010008FB010008FB010008FB01000850
:1000A000FB010008FB010008FB010008FB01000840
:1000B000FB010008FB010008FB010008FB01000830
:1000C000FB010008FB010008FB010008FB01000820
:1000D000FB010008FB010008FB010008791701087B
:1000E000FB010008FB010008FB010008FB01000800
:1000F000FB010008FB010008FB010008FB010008F0
:10010000FB01000815FF0008FB010008FB010008C7
:10011000FB010008FB010008FB010008FB010008CF
:10012000FB010008FB010008FB0100086D3000081E
:10013000FB010008FB010008FB010008FB010008AF
:10014000FB010008FB010008FB010008FB0100089F
:10015000FB010008FB010008FB010008FB0100088F
:10016000FB010008FB010008FB010008FB0100087F
:10017000FB010008FB010008FB010008FB0100086F
:10018000FB010008FB010008FB010008FB0100085F
:10019000FB010008FB010008FB010008FB0100084F
:1001A000A5BB0008FB01000861300008DFF80CD097
:1001B00000F008FC004800472D3E020828230120DB
:1001C000DFF83800016841F470010160BFF34F8F20
:1001D000DFF82C00016821F040410160BFF36F8F10
:1001E0000848804708480047FEE7FEE7FEE7FEE7CD
:1001F000FEE7FEE7FEE7FEE7FEE7FEE788ED00E04C
:1002000034EF00E02D120108AD01000872B670470E
:1002100062B67047EFF3108072B6704780F31088B3
:10022000704730BF704720BF7047B0FA80F070470A
:1002300090FAA0F0B0FA80F0704790FAA0F0704702
:100240002DE9F05F0546002092469B46884606460B
:10025000814640241BE0284641464746224600F09E
:10026000CBFA53465A46C01A914110D3114618464C
:10027000224600F0B2FA2D1A67EB01084F462246DB
:100280000120002100F0A9FA17EB00094E41201EC1
:10029000A4F10104DFDC484631462A464346BDE866
:1002A000F09F2DE9F0410024061B254671F1000660
:1002B00005DA01240027D0EB070067EB0101161EC9
:1002C00073F1000605DA0027D2EB0702012567EB80
:1002D0000303FFF7B5FF86460E4617469C46AC4221
:1002E00004D00025D0EB050E65EB010624B10020FB
:1002F000D2EB000760EB030C704631463A4663468A
:10030000BDE8F08110B5441A0346944209D284181E
:10031000114403E011F8013D04F8013D521EF9D2E9
:1003200010BD40EA0104A40703D009E010C9121F60
:1003300010C3042AFAD203E011F8014B03F8014B71
:10034000521EF9D210BDD2B201E000F8012B491EB5
:10035000FBD270470022F6E710B513460A46044662
:100360001946FFF7F0FF204610BD421C10F8011B94
:100370000029FBD1801A704710B5002200E0521C02
:10038000835C8C5CA34201D1002BF8D1D8B2E1B2DE
:10039000401A10BD30B504460020034600E05B1C47
:1003A000934203D2E05CCD5C401BF8D030BD0346E5
:1003B00011F8012B00F8012B002AF9D118467047DB
:1003C0002DE9FE4F804681EA0300C00F0C460090E5
:1003D00021F0004123F00045B8EB0200A94105D20D
:1003E0004046214690461C460B46024623F00040FC
:1003F000104347D0270DC7F30A00C3F30A510290F8
:10040000401A019040286BDAC3F3130040F4801BBC
:100410000098924620B10023D2EB030A63EB0B0B4A
:1004200001985946C0F14002504600F0D6F9064600
:100430000D4650465946019A00F0EEF910EB0800BF
:100440006141002487EA115284EAE7731A4340D0DD
:10045000009A62B3019A012A4FEA075215DC001B89
:1004600061EB02014FF0004202EA0752CDE900427F
:10047000001C41F5801132462B4600F025FA03B0EE
:10048000BDE8F08F40462146F9E7001B61EB020111
:10049000001C41F5801300185B412018A2F50017DD
:1004A00047EB030140EAD570B6196D4111E06D08C4
:1004B0004FEA360645EAC0754FEA0752001B61EB6A
:1004C0000201001C41F5801149084FEA3000001973
:1004D000514132462B4603B0BDE8F04F00F0E5B97C
:1004E0000098012240000023D0EB020263EBE0738E
:1004F000009821464FEAE074B8EB000061EB04017C
:10050000E9E783F000435BE781F0004158E72DE91C
:10051000FE4F81EA030404F0004421F000410094FE
:100520004FF0000B23F0004350EA01045ED052EA82
:1005300003045BD0C3F30A54C1F30A552C44A4F25C
:10054000F3340194A0FB0254C1F3130141F4801170
:10055000C3F3130343F4801301FB024400FB034E77
:10056000840A970A44EA815447EA8357A4FB076840
:1005700002958D0A05FB07854FEA932C04FB0C546A
:100580002705029D4FEA065847EA1637B5EB0805DE
:100590006EEB070C870E920E47EA811742EA831230
:1005A000A7FB0201B6EB0B0164EB00042B0D43EA41
:1005B0000C335E1844EB1C50DA465146E7FB02014F
:1005C000C5F313044FEA0B3343EA14534FEA0432E2
:1005D000019C43EA0603A4F10C040294009CCDE9BB
:1005E00000B400F071F903B0BDE8F08F00200146BF
:1005F000F9E72DE9F04D81EA030404F0004B21F006
:10060000004514464FF0000A23F0004150EA05026D
:1006100020D054EA01021DD0C5F30A570246C5F3A3
:100620001303C1F31300C1F30A5640F4801543F4D9
:100630008013A7EB0608101BD64608F2FD3873EBB3
:10064000050002D308F1010801E092185B41B8F1FE
:10065000000F03DA00200146BDE8F08D00204FF4C2
:100660008011064684460EE0171B73EB050705D381
:10067000121B63EB050306434CEA010C49084FEAE1
:10068000300092185B4150EA0107EDD152EA0300B5
:1006900012D082EA040083EA0501084305D0101B4A
:1006A000AB4106D20122002306E000224FF00043B6
:1006B00002E06FF0010253101AEB06004CEB0851F8
:1006C00010EB0A0041EB0B01BDE8F04D00F0EDB876
:1006D0000EB5C10F80EAE0700844CA07002140F25D
:1006E00033438DE80E000A460B4600F0EDF803B0E8
:1006F00000BD0EB540F2334102910021CDE9001159
:100700000A460B4600F0E0F803B000BD70B5C1F337
:100710000A5201F000450024C1F3130140F2FF33F7
:1007200041F480119A4201DA002070BD40F2334357
:100730009A42A2F2334203DC524200F05DF800E03C
:1007400090402C43F1D0404270BDC1F30A5210B525
:10075000C1F3130140F2FF3341F480119A4201DAF0
:10076000002010BD40F233439A42A2F2334203DC30
:10077000524200F041F810BD904010BD00F0004220
:1007800030F000400AD0C10D01F56071C0F31600D1
:1007900042EA0151C2084007114370470020014658
:1007A000704701F0004330B421F0004150EA0102EB
:1007B00006D00A0DA2F56072C1F31301002A02DC13
:1007C00030BC00207047440F44EAC104C100E01867
:1007D00030BC00EBC25000F031B8202A04DB203AD4
:1007E00000FA02F1002070479140C2F1200320FA84
:1007F00003F3194390407047202A04DB203A21FA82
:1008000002F00021704721FA02F3D040C2F1200229
:100810009140084319467047202A06DBCB17203A3F
:1008200041FA02F043EAE07306E041FA02F3D040F5
:10083000C2F1200291400843194670470029A8BF21
:100840007047401C490008BF20F00100704710B4F9
:10085000B0FA80FC00FA0CF050EA010404BF10BCAE
:10086000704749B1CCF1200421FA04F411FA0CF1DB
:1008700018BF012121430843A3EB0C01CB1D4FEA14
:1008800000614FEA102042BF002010BC704700EB0F
:10089000C35010440029A4BF10BC7047401C49003D
:1008A00008BF20F0010010BC704710B5141E73F192
:1008B000000408DA401C41F1000192185B411A4320
:1008C00001D120F0010010BD2DE9F04D92469B466C
:1008D00011B1B1FA81F202E0B0FA80F22032904612
:1008E000FFF77BFF04460F4640EA0A0041EA0B018E
:1008F00053465A46084313D0114653EA010019D013
:10090000C8F140025046FFF777FF05460E465046B5
:1009100059464246FFF761FF084305D0012004E035
:1009200020463946BDE8F08D0020054346EAE076D2
:100930002C4337430A986305E40AA0EB0800002221
:10094000FD0A44EA47540A3002D500200146E9E78F
:10095000010510196941DDE9084500196941BDE843
:10096000F04DA2E770B521F0004303430CD0C1F372
:100970000A550024D5EB040564EB0403D617AD1A21
:10098000B34102DB0020014670BD201841EB02514B
:1009900070BD000030B5041E71F1000404DB4FF09F
:1009A0000044404264EB0101141E73F1000405DBB6
:1009B0001C464FF00043524263EB0403994208BFC8
:1009C000904230BD064C074D06E0E06840F0010360
:1009D00094E8070098471034AC42F6D3FFF7EAFBDF
:1009E00024490708444907082DE9F04D00231A4619
:1009F0001B1A8A4103DB00200146BDE8F08DC1F3DC
:100A00000A52C1F3130141F480154FF0000BD107D6
:100A100002D100186D41521E0027044640F2FF111A
:100A2000384601EB620A3E468046024600204FF4FB
:100A30008011FFF7E1FEC2197141BB1846EB0100BE
:100A4000B4EB030C75EB000C04D3E41A65EB000562
:100A500017460E46241908F101006D4180463428DE
:100A6000E3DDF91946EB0600091BA84103D24FF05C
:100A7000FF32134601E0002213461BEB070046EB52
:100A80000A51BDE8F04DFFF710BF70B58C1810F893
:100A9000015B15F0070301D110F8013B2A1106D1C3
:100AA00010F8012B03E010F8016B01F8016B5B1EDD
:100AB000F9D12B0705D40023521E0DD401F8013BB8
:100AC000FAE710F8013BCB1A921C03E013F8015B24
:100AD00001F8015B521EF9D5A142D8D3002070BDA8
:100AE000EFF3098141B1F1EE101A40F8041D20ED39
:100AF000200A3E490A6810607047B0EC200A02C81C
:100B0000E1EE101A3A490A681060704772B64EF664
:100B10002250CEF2000040F2FF01C0F2000101704D
:100B20004FF0000080F309880CF016FE40F2A01090
:100B3000C2F20000016881F3088840F21A10C2F284
:100B4000000040F21B11C2F200010A78027040F26C
:100B50009815C2F2000540F29C11C2F200010A6829
:100B60002A60106880F30988EFF3148040F00200D7
:100B700080F31488BFF36F8FBDE8F00F0FBCBDE8A2
:100B8000005006BC62B608471A484FF08051016019
:100B9000704718484FF080510160704772B6EFF30C
:100BA000098020E9F00F40F29815C2F200052E6886
:100BB000306074460CF0D0FD40F21A10C2F2000012
:100BC00040F21B11C2F200010A78027040F29C113F
:100BD000C2F200010A682A6044F0F40E1068B0E81E
:100BE000F00F80F3098862B670470000980100207A
:100BF0009C01002004ED00E0002904D0816841F050
:100C0000010181607047816821F0010181607047B6
:100C1000084A1168084B1940D0F804C0036843EA39
:100C20000C03D0F808C0C0684CEA00001843084321
:100C30001060704704230140E030FCFF002904D01D
:100C4000816841F4807181607047816821F480710E
:100C500081607047002904D0816841F4007181608F
:100C60007047816821F400718160704710B4426858
:100C700022F4807222F0407291F804C00B6842EABC
:100C80000C221A43426082680D4B1A40D1F80CC006
:100C90000B694C7943EA0C03D1F808C04CEA440CC8
:100CA00043EA0C031A438260C26A22F47002097D8F
:100CB000491EC9B242EA0151C16210BC704700002E
:100CC000FDF7FFC030B4072509290CD9C468A1F18C
:100CD0000A0C0CEB4C0C05FA0CF5AC4303FA0CF3C4
:100CE0002343C36009E0046901EB410C05FA0CF5EC
:100CF000AC4303FA0CF3234303614FF01F0C072AA4
:100D00000CD2436B521E02EB82020CFA02FC23EA65
:100D10000C0391401943416330BC70470D2A0CD23B
:100D2000036BD21F02EB82020CFA02FC23EA0C03D3
:100D300091401943016330BC7047C36A0D3A02EB1E
:100D400082020CFA02FC23EA0C0391401943C162AF
:100D500030BC7047816841F080418160704700215C
:100D60000160017141718160C16001610121017502
:100D70007047002800DC4042704700002DED028BD8
:100D800084B02E4C9FED2E8AF2EE048A206880F407
:100D9000005020606A4601A902A823F0E5F8002867
:100DA00044D09DED010AB5EEC00AF1EE10FA1DD255
:100DB000B1EE400A8DED010ADDED000A20EE080AD1
:100DC00020A060EEA80ABDEEC00AFDEEE00A10EE1B
:100DD000101A10EE903ADDED020A60EE880AFDEE80
:100DE000E00A10EE902A02F04FFE18E0DDED000A56
:100DF00020EE080A22A060EEA80ABDEEC00AFDEEB1
:100E0000E00A10EE101A10EE903ADDED020A60EEE4
:100E1000880AFDEEE00A10EE902A02F035FE6A46DE
:100E200001A902A823F0A0F80028BAD103AA002142
:100E30004FF4FA600CF0CEFCA8E700001408024062
:100E40000000C842726F6C6C203D202D256420206C
:100E50002020202020207069746368203D202564B4
:100E600020202020202020202020796177203D2074
:100E70002564202020202020202020200A0000009F
:100E8000726F6C6C203D20256420202020202020C3
:100E9000207069746368203D202564202020202074
:100EA0002020202020796177203D202564202020EB
:100EB000202020202020200A0000000086B021A051
:100EC00000680290204E9DF80870002505AC03A92B
:100ED00004A802F058F800282AD1BDF810004CF6FA
:100EE000CD414843C00C0490BDF80C004843C00CF1
:100EF00003903946304610F02AFDBDF810103046F8
:100F000010F032FD9DF80910304610F020FDBDF8BC
:100F10000C10304610F028FD9DF80A10304610F0F5
:100F200016FDBDF81020BDF80C1008A002F0ACFDB5
:100F300000230A2219461846009501940CF08CFCF7
:100F4000C5E7000054480D000010014068756D2091
:100F50003D2025640A74656D3D2025640A0000006B
:100F60002DED048B84B00024DFF8AC80DFED2B8AFC
:100F70009FED2B9A2B4D002603AFB8F8020000EE30
:100F8000100AB8EE400A20EE280A20EE098A18EE70
:100F9000100AFFF7F3FB41EC100B23A053EC102BCE
:100FA00002F072FD18EE100AA84225DB002C23D1B6
:100FB00003A929480CF0C4FB03A928480CF0C0FB86
:100FC00003A927480CF0BCFB26A01EF0ABF90023B8
:100FD0000A2219461846019700960CF03DFC03A919
:100FE0001D480CF0ABF903A91C480CF0A7F903A9A4
:100FF0001B480CF0A5FB012418EE100AA84202DAE7
:10100000012C00D100240023022219461846019722
:1010100000960CF021FCB0E73C0000200000803975
:1010200033335340CDCC2C400D0A205468652063E7
:10103000757272656E74204C696768745F414443D1
:101040005F566F6C2076616C7565203D20256620AB
:1010500056200D0A00000000B41A0020F41C0020E5
:10106000741B00204054657874546F537065656339
:101070006823CCECD4F5C3B4CDBBC8BBBADAC1CBC2
:10108000240000002DED048B84B00024224EDFEDFF
:10109000238A9FED239A234FDFF88C8003AD30889D
:1010A00000EE100AB8EE400A20EE280A20EE098A67
:1010B00018EE100AFFF762FB41EC100B1BA053EC7B
:1010C000102B02F0E1FC18EE100AB8421BDC98F875
:1010D0000000002817D103A91D480CF031FB0022A5
:1010E00011461CA01DF0CAF91EA01EF01BF900231A
:1010F000032219461846019500940CF0ADFB03A994
:1011000013480CF01BF900231A46052118460195D7
:1011100000940CF0A1FBC2E73C00002000008039E5
:10112000CDCC544100002041B10000200D0A2054D4
:1011300068652063757272656E7420414420766123
:101140006C7565203D2025662056200D0A000000A4
:10115000B41A0020303A6D65696469616E2E6A7058
:10116000670000004054657874546F537065656380
:101170006823BFECC3BBB5E7C1CBA3ACD2AAB8F818
:10118000CED2B3E4B5E7BFA9A3A1240084B0002563
:10119000B64EB74F0DF10C080EF070FAA6FB002109
:1011A0004908A1EB81010144CCB2A7FB0021C90889
:1011B0006FF00A0201FB020000F0FF094946ADA0F2
:1011C00002F062FCB9F10B0F80F04081DFE809F01A
:1011D000060D141B41678DB3D7FDF50000221146A3
:1011E000A8A01DF04BF900F031B900221146A8A0CB
:1011F0001DF044F900F02AB900221146A7A01DF005
:101200003DF900F023B9002006F07EFA04F082F8E0
:1012100003AA002132200CF0DDFA0523012202216D
:10122000A1A01DF095F824B90022114695A01DF04B
:1012300025F9012C06D00022114698A01DF01EF9B8
:1012400000F004B90022114691A01DF017F900F03A
:10125000FDB8002006F058FA04F05CF803AA00215B
:1012600032200CF0B7FA05230122022192A01DF0D2
:101270006FF824B90022114682A01DF0FFF8012C5E
:1012800006D00022114685A01DF0F8F800F0DEB867
:10129000002211467EA01DF0F1F800F0D7B8002022
:1012A00006F032FA04F036F803AA002132200CF0DE
:1012B00091FA05230122022183A01DF049F824B9E7
:1012C000002211466FA01DF0D9F8012C06D0002293
:1012D000114672A01DF0D2F800F0B8B800221146F5
:1012E0006BA01DF0CBF800F0B1B8002006F00CFAAE
:1012F00004F010F803AA002132200CF06BFA052349
:101300000122022174A01DF023F824B90022114605
:101310005CA01DF0B3F8012C06D0002211465FA09E
:101320001DF0ACF800F092B80022114658A01DF054
:10133000A5F800F08BB8002006F0E6F903F0EAFF0C
:1013400003AA002132200CF045FA052301220221D4
:1013500065A01CF0FDFF24B90022114649A01DF034
:101360008DF8012C05D0002211464CA01DF086F806
:101370006CE00022114646A01DF080F866E00020D7
:1013800006F0C2F903F0C6FF03AA002132200CF0D8
:1013900021FA05230122022157A01CF0D9FF24B90C
:1013A0000022114637A01DF069F8012C07D0002259
:1013B00011463AA01DF062F848E02AE005E000225C
:1013C000114633A01DF05AF840E0002006F09CF9C9
:1013D00003F0A0FF03AA002132200CF0FBF9052343
:1013E0000122022148A01CF0B3FF24B900221146BB
:1013F00024A01DF043F8012C05D00022114627A09F
:101400001DF03CF822E00022114621A01DF036F824
:101410001CE0002006F078F903F07CFF03AA00210D
:1014200032200CF0D7F90523012202213AA01CF04A
:101430008FFF24B90022114612A01DF01FF8012CC5
:101440000ED00022114615A01DF018F80023192215
:1014500019461846CDF8048000950CF0FDF99BE67E
:10146000002211460AA01DF009F8EFE7ABAAAAAACC
:10147000A38B2EBA52616E6444617461203D2025B5
:10148000640A0000303A70632E6A70670000000042
:10149000303A7063322E6A7067000000303A706331
:1014A000332E6A7067000000303A7869616F6A69AC
:1014B000332E676966000000303A7869616F6A69A7
:1014C000342E676966000000303A7869616F6A6996
:1014D000352E676966000000303A7869616F6A6985
:1014E000362E676966000000303A7869616F6A6974
:1014F000372E676966000000303A7869616F6A6963
:10150000382E676966000000303A7869616F6A6951
:10151000392E676966000000303A7869616F6A6940
:1015200031302E67696600002DE9F04F8BB0002442
:10153000022701F0CEF900F079FE00F009FF0AF071
:1015400013FE012296A1974821F0CAF99649C87066
:101550000AA80BF065FC0022114694A01CF08EFF37
:101560006FF07F4006F0D0F8002006F0D8F89248DF
:1015700006F0FEF8DC22002190A004F027F9DC221E
:10158000AF2193A004F022F93B46DC2296212046AD
:1015900004F086F8F12200218EA004F017F94FF430
:1015A000FA601FF099FD0025082606EBC501F1221F
:1015B00098A004F00BF93B46DC229621204604F06B
:1015C0006FF8A01CC4B2642C01D3642403276420E8
:1015D0001FF082FD681CC5B23A2DE6D38EA01DF027
:1015E000A1FE4FF4FA601FF077FDFEF713FE09909D
:1015F0008E4A0AAD4FF0040A46238DA1A2F12000C5
:10160000CDF800A001950AF0A3FF002405274FF4B0
:101610002F784FF046098A48069403260594CDF8A2
:101620000890CDF80C80019004972346854A86A146
:10163000009707960895A0F50C600BF053FC8020EE
:101640000895039005944FF00C0B834906940920EC
:10165000CDF808B0019100900497079600237F4AC7
:101660007FA183480BF03EFC8248069401900594CC
:101670000620CDF80890CDF80C80009004970796CE
:10168000089500237C4A7DA180480BF02BFC4FF489
:1016900096700895039005941E217D4A079606943E
:1016A000072001920291009004970023794A7AA1C1
:1016B0007D480BF017FC7D480694019005944FF48B
:1016C00000784FF033090A20CDF80890CDF80C804F
:1016D00000900497079608950023754A75A17948EC
:1016E0000BF000FC78480694019005940B20CDF88F
:1016F0000890CDF80C800090049707960895002379
:10170000724A73A176480BF0EDFB76480694059477
:101710000796CDF80C8001900023734A73A1CDF891
:10172000089004970096089575480BF0DBFB754808
:1017300006940594CDF80890CDF80C800190002314
:10174000714A72A1CDF800A00497079608957348D6
:101750000BF0C8FB724806940594CDF80890CDF8BC
:101760000C80019000236F4A6FA1CDF800B0049760
:101770000796089570480BF0B5FB0AA960480BF076
:10178000DFFF0AA96C480BF0DBFF0AA96B480BF0DE
:101790006BFC0998FEF742FD0BB0BDE8F08F00002E
:1017A000303A00008C080020B1000020303A6B6114
:1017B000696A692E6A7067001403070853797374A5
:1017C000656D205374617274696E672E2E2E000051
:1017D000250000005B2E2E2E2E2E2E2E2E2E2E2E8F
:1017E0002E2E2E2E2E2E2E2E2E2E2E2E2E2E2E2E19
:1017F0002E2E2E2E2E2E2E2E2E2E2E2E2E2E2E2E09
:101800002E2E2E2E2E2E2E2E2E2E2E2E2E2E2E5DC9
:10181000000000003D00000040506C6179464C41E2
:10182000534823303032332400000000DC180020FD
:101830004D656D20466F7220546573740000000082
:10184000742300208D110008417070205461736B67
:101850002053686F77425100643E00207D0D0008E0
:10186000417070205461736B204C6564310000003E
:10187000341C002064400020611B0008417070206F
:101880005461736B2074616C6B000000F41C0020C9
:10189000544B0020BD0E0008417070205461736BE2
:1018A000204C656433000000B41D0020642E00202D
:1018B00085100008417070205461736B20506F7761
:1018C00065720000741B002064360020610F000860
:1018D000417070205461736B204C6967687400001C
:1018E000F41F002004500020651A00084170702089
:1018F0005461736B20546F7563685363616E0000AD
:10190000741E002004580020411900084170702006
:101910005461736B20546F7563680000341F00209E
:1019200004600020351B0008417070205461736B07
:101930002057696E646F7700B4200020F4190020EE
:1019400084B000240125DFF8B480DFF8B4900026CD
:1019500003AF98F80100002845D0D9F80410002002
:101960008847012804D127A002F08EF8601CC4B279
:10197000082C05D3012D03D124A01DF0D3FC002594
:10198000102C26D3002D24D128A01DF0CBFC03A9B8
:101990002E480BF0D5FE03A92D480BF0D1FE0020F8
:1019A00005F0B2FE03F0B6FC03AA002132200BF0D2
:1019B00011FF03230222012126A01CF0C9FC0024F0
:1019C000012503A921480BF0B9FC03A920480BF01D
:1019D000B5FC00224FF4F0731146104601970096B3
:1019E0000BF03AFFB5E706F059FB00220A23114637
:1019F0001046019700960BF02FFFAAE7B1000020D8
:101A000044000020746F7563680A000040546578D4
:101A100074546F53706565636823BAC3D1F7B0A17E
:101A20002CB1F0C3FECED2C1CB2400004054657867
:101A300074546F53706565636823D4D9C0B4A3AC84
:101A4000CED2D2AAD2A7C4E3C1CB2400B41A0020BC
:101A5000F41C0020303A79616F72656E2E676966FA
:101A60000000000088B0DFF8C0904FF0010A02AF1C
:101A70004FF6FF784FF0000BD9F80410002088478C
:101A8000002499F820000AFA04F108423BD009EB3F
:101A90004405A889B0F5F07F37D2E98AB1F5887F8F
:101AA00033D237F82420424504D127F8240007EB2D
:101AB000840041804FF47F0005F031FE07EB84067F
:101AC000EB8AAA89718837F8240004F08FF8A88976
:101AD00027F82400E98A7180B0F5E47F15D9282918
:101AE00013D2002005F010FE03F014FC0F4805F09F
:101AF0003FFEFF2005F013FE0A224FF4E4710CA014
:101B000003F078FE01E027F8248007A80022019066
:101B100005231146CDF800B010460BF09DFE601C69
:101B2000C4B2052CADD3A7E7440000201426070853
:101B30005253540084B0002503AC07A001F0A4FF69
:101B40000AF08AFA00224FF4E1731146104600951C
:101B500001940BF081FEF0E768656C6C6F0A000081
:101B600086B000250024DFF800B4DFF8009405AE4D
:101B70000027002302AA1946184600960BF012FB14
:101B80008046FBA0B8F8001001F07EFF4FF0010A7C
:101B900089F800A0B8F80000162800F0168114DCBF
:101BA000062839D007DC012818D0022824D00428C0
:101BB00040F0268325E0092870D00C2800F0C18071
:101BC0000F2840F01D8300F0AAB81738062880F0CF
:101BD0001783DFE800F0F9F8F7F6F5DEE9A001F089
:101BE00053FF05AA00214FF4FA600BF0F3FDE7A0C4
:101BF0001DF098FB00F004BBE2A001F045FF00F0EF
:101C0000FFBAEAA001F040FF05AA00214FF47A7064
:101C10000BF0E0FD00F0F4BAE6A001F035FF03A9F7
:101C200004A801F0B0F940B1E4A01DF07BFB05A9C8
:101C3000EC480BF083FB00F0E3BABDF810004CF663
:101C4000CD414843C00C0490BDF80C004843C00C83
:101C5000039005A9E3480BF073FDBDF810101C2993
:101C600008D3E1A01DF05EFB00221146EBA01CF0A2
:101C700005FCDCE700221146EBA01CF0FFFBBDF8E1
:101C80000C20BDF81010EBA01DF04CFB05AA0021A4
:101C900044F620600BF09EFDC9E7FFE7F3A001F0DA
:101CA000F3FE05A9CF480BF04BFD002005F02CFDFD
:101CB00003F030FB002232231146104600970196B4
:101CC0000BF0CAFDEB481DF02DFB0323022201217E
:101CD000E9A01CF03DFB032302220121E9A01CF036
:101CE00037FB032302220121E9A01CF031FB03236F
:101CF00002220121E9A01CF02BFB03230222012177
:101D0000E9A01CF025FB032302220121E9A01CF01D
:101D10001FFB05A9B3480BF011FB00F071BAE8A056
:101D200001F0B2FE05A9AF480BF00AFD00221146F2
:101D3000E5A01CF0A3FB05A9AA480BF0FFFA00F0F0
:101D40005FBAE4A001F0A0FE05A9A6480BF0F8FCDC
:101D500000221146E1A01CF091FB14B9E3481DF0EC
:101D6000E1FA012C02D1E2481DF0DCFA002319222D
:101D700019461846009701960BF06EFD601CC4B220
:101D8000022C00D3002405A996480BF0D7FA00F0E6
:101D900037BAD8A001F078FE05A992480BF0D0FC24
:101DA000002005F0B1FC03F0B5FA00221146C6A0F0
:101DB0001CF064FB05A98B480BF0C0FA00F020BAB8
:101DC0000AE2B4E096E073E044E0CCA001F05CFEEF
:101DD000012505A983480BF0B3FC002264231146BA
:101DE0001046009701960BF037FD05A9C5480BF08A
:101DF000A7FC0022642311461046009701960BF0C1
:101E00002BFD05A9C0480BF099FA00226423114666
:101E10001046009701960BF01FFD002005F074FCA2
:101E200003F078FAB94805F0A3FCFF2005F077FC31
:101E30000A224FF4E471B6A003F0DCFC0022642314
:101E400011461046009701960BF006FDB1A01DF05B
:101E500069FAD5E1BAA001F017FE012D49D105A913
:101E600060480BF06BFA002264231146104600977D
:101E700001960BF0F1FC05A9A3480BF061FC0022D0
:101E8000642311461046009701960BF0E5FC05A966
:101E90009C480BF053FA0022642311461046009729
:101EA00001960BF0D9FCA9A01DF03CFA0025A7E192
:101EB000ADA001F0E9FD012D1BD1002005F024FCAF
:101EC00003F028FA914805F053FCFF2005F027FCA9
:101ED0000A224FF4E4718EA003F08CFC002232231E
:101EE00011461046009701960BF0B6FCA0A01DF01D
:101EF00019FA85E1A8A001F0C7FD4FF0010A4421BD
:101F000058460FF024FD514658460FF02DFD0D2187
:101F100058460FF01CFD0022322311461046009750
:101F200001960BF099FC9EA01DF0FCF968E1A2A0BF
:101F300001F0AAFD4FF0020A442158460FF007FDB8
:101F4000514658460FF010FD0D2158460FF0FFFC8A
:101F50000022322311461046009701960BF07CFCBC
:101F600097A01DF0DFF94BE100100140B100002007
:101F70005265636569766544617461203D2025641E
:101F80000A000000C4E3BAC30A00000040546578A8
:101F900074546F53706565636823D3D0CAB2C3B4F9
:101FA000CED2C4DCB0EFC4E3B5C42400D0D4B1F0C9
:101FB0000A000000CEC2B6C80A000000405465788E
:101FC00074546F53706565636823B0A1D1BDCED2E0
:101FD000B5C4CEC2B6C8B4ABB8D0C6F7BBB5C1CBDA
:101FE00024000000B41A00204054657874546F53E4
:101FF000706565636823D5E2D5E6B5C4CCABC8C8C7
:10200000C1CBA3A1CEC2B6C8B6BCB5BD5B6E325DB6
:10201000256444B6C8C1CB2400000000303A6B757B
:102020002E6A706700000000303A7869616F2E6A8E
:10203000706700004054657874546F537065656331
:102040006823CFD6D4DAB5C4CEC2B6C8CAC75B6ED1
:10205000325D2564A3ACCAAAB6C8CAC7B0D9B7D680
:10206000D6AE5B6E325D256424000000CCFDB8E87E
:102070000A00000038480708303A67312E67696661
:1020800000000000303A67322E67696600000000E9
:10209000303A67332E67696600000000303A6734D3
:1020A0002E67696600000000303A67352E67696662
:1020B00000000000303A67362E67696600000000B5
:1020C000C9FAC6F80A000000303A666168756F2EDA
:1020D0006A706700D0A6BBB00A000000303A6861A1
:1020E0006E7869616F2E6A70670000009447070878
:1020F0000C470708B1BFB5B00A000000BBADBBADCF
:102100000A000000341F0020741E00201426070857
:10211000525354004054657874546F53706565632E
:102120006823BFAACABCBBADB0C9A3ACC7EBCBB5D3
:10213000CDCBB3F6BBADBBADCDCBB3F62400000029
:10214000CDCBB3F6BBADBBAD0A0000004054657803
:1021500074546F53706565636823C4E3BBADB5C445
:10216000D5E6C4D1BFB42400C7E5C6C10A0000004B
:102170004054657874546F53706565636823BAC3BF
:10218000C1CBC4E3BFC9D2D4D6D8D0C2BFAACABCBF
:10219000BBADC1CB24000000BFAAB5C60A00000039
:1021A0004054657874546F53706565636823D2D169
:1021B000BFAAB5C624000000B9D8B5C60A00000001
:1021C0004054657874546F53706565636823D2D149
:1021D000B9D8B5C62400000005A90D480BF0B0FA27
:1021E0000022642311461046009701960BF034FB41
:1021F00089F8017089F802A005A906480BF09EF83D
:1022000089F8007005AA414603480AF020FAB0E4B4
:10221000B41A0020B4200020BC18002000B585B0FE
:1022200068460DF07BF8019805B000BD10B501219E
:1022300008030DF01FF84FF4A0600AF04FF801F00A
:10224000D7FB00F093F800F0E5F80DF01FF92448F3
:1022500001F01AFC234801F017FC234801F014FC9C
:10226000204801F011FC1E4801F00EFC08F032FE7F
:102270000EF070F81DA001F007FC08F024F90FF033
:1022800001F904F08BF91CA001F0FEFB0DF09EFAA1
:102290001EA001F0F9FB00F0C5FED8B120A001F0AE
:1022A000F3FB0DF019F90DF031F921F015FCC82000
:1022B0001EF012FF09F0BAFD09F096FD21F010FFA3
:1022C00000280BD021F00CFF0146BDE810401AA0F9
:1022D00001F0DABB1BA001F0D7FBE2E710BD000064
:1022E00030460708A8450708EC4507085344524103
:1022F0004D204F4B210A00004755495F496E6974D4
:1023000020537563657373210A00000041445F49DF
:102310006E697420537563657373210A00000000B1
:1023200048617665206E6F742066696E642044484B
:102330005432320A00000000646D70203D20256494
:102340000A0000004448543232204F4B210A00005A
:1023500010B5FFF763FF04490968B0FBF1F0BDE871
:1023600010400BF063BB00008C62020870B586B0B1
:10237000012102200CF07EFF012188040CF0A4FF53
:10238000224E07220B21304602F007F907220A21CC
:10239000304602F002F900248DF8164001218DF834
:1023A000171002258DF81450890204918DF81550EC
:1023B00004A9304602F0A6F88DF81450A802049043
:1023C00004A9304602F09EF84FF4E1300090ADF8D9
:1023D0000440ADF80640ADF80840ADF80C400C20C4
:1023E000ADF80A000A4C694620460FF03FFA09F0A2
:1023F0002CFF012240F2255120460FF01AFA01214C
:1024000020460FF0DFF906B070BD00000004024066
:102410000048004030B587B0012140200CF02AFF71
:10242000012120200CF05EFF174D08220E212846C6
:1024300002F0B3F800248DF8164001218DF8171032
:1024400002218DF814104A0304928DF8151004A986
:10245000284602F057F84FF4E1300090ADF8044000
:10246000ADF80640ADF80840ADF80C400820ADF8D6
:102470000A00064C694620460FF0F8F90121204673
:102480000FF0A0F907B030BD001802400014014061
:1024900038B545680446014628460FF09CFA0028E6
:1024A0002BD02068304A11280DD006DC0B2825D00F
:1024B0000E2833D00F2852D112E0282849D0B0F589
:1024C000107F4CD108E09268002A16D02146284699
:1024D00001B0BDE830401047214628465268F7E772
:1024E000284602F033FD0090406E0468684602F012
:1024F00099FD002C01D02846A04738BD284602F09F
:1025000025FD0090683002F077FC009803216C30C4
:1025100002F080FC684602F085FD20E0E168486832
:1025200009680D2902D0202913D105E0002810DD0B
:1025300028461AF042F906E0002804DD2846BDE8E6
:1025400038401AF03AB92846BDE8384002211AF05E
:102550004AB9E06818B90021284600F083F92046FE
:10256000BDE838400FF0D4BD5C030020F0B5044650
:1025700085B08069B4F90850668A0027CDE9026504
:10258000CDE900170490B4F90C00B4F91060C1183B
:10259000B4F90A00B4F90E50104433462A4600F04C
:1025A00007F80546616800F066F905B02846F0BDF9
:1025B0002DE9F04F85B01F46DDE911B4DDE90E5677
:1025C00090468946824604F0FBFA16484C34CDE921
:1025D0000204CDE900563B464246494650460FF0BC
:1025E000DFFC040018D002F0B1FC10225946049020
:1025F0000FF03CFB049830220B493430FDF782FE8B
:10260000094D04990C3D2868486604A802F00AFDAB
:10261000286841682046884705F03CFF05B0204601
:10262000BDE8F08F9124000868030020F0B504464F
:1026300080688B4989B051F82050606800287DD0AF
:10264000052804D006287AD0122879D1AEE0E869AE
:1026500000284FD095E80E008DE80F0004F110011E
:102660000FC906F025FB002655F8260005F057F89F
:10267000A169E8690A1A216901446069304403F0DC
:1026800089FAA169E8690A1A21690144E069801B95
:1026900003F080FAE169E8690A1A61690144206976
:1026A000304403F02DFBE169E8690A1A61690144CD
:1026B000A069801B03F024FB761C022ED4DBA868E3
:1026C00005F02DF8E069E9696669431A2069421846
:1026D0003144801C521E03F063FBE169E869A26982
:1026E0000B1A61690144101A401C921E03F058FB3A
:1026F000EE6913E05FF0000655F8260005F00FF8CC
:10270000E069831BA069821B6069811920693044DC
:1027100003F0B6FA761C022EEEDB0226D5E90301A1
:10272000CDE900016169E06908444310A069891C92
:10273000821B2069304403F0F1F902E089E012E0E5
:102740008AE0D5E90501CDE90001E369606901216D
:10275000184401EB6001A0699B1E821B2069304474
:1027600003F0DCF978E0206802F0F0FB04902068C8
:1027700011F070F840B1A06808B1002008E004989A
:10278000006F28B1012003E00498406F00B10220DF
:10279000049901EB8000C56E04A802F043FC0023FD
:1027A0001A462846216802F02DFF55E0206802F005
:1027B000CDFB0490866EEEB3B0F95C70A168D1B326
:1027C000032942D05FF0000100EB8101406D0C6CE9
:1027D00004F0CEFF204604F0A2FF05A803F03AFE65
:1027E000BDF81410A88B0144ADF81410BDF81810F2
:1027F000081AADF81800BDF81600801CADF81600D8
:10280000BDF81A00801EADF81A000498B0F96020D7
:10281000B0F95E1005A804F02FFE04A802F002FC37
:10282000022005F027F8304602F090FB3A4605A951
:10283000079001E00BE006E002F0F6FF0DF11C004E
:1028400002F0F0FB08E00121BEE70221BCE704A88A
:10285000F6E7206810F03AFC09B00020F0BD000057
:10286000D83B07084FF480720029114601D00FF0C1
:1028700047B90FF097B82DE9FF410E4605004FF01C
:10288000010421D004F09CF9284602F05FFB01907E
:10289000876E01A8009702F0C5FB3146684606F036
:1028A0004FFD78B100980024B84208D0284602F0C5
:1028B0004DFB01900099816601A802F0B3FB284608
:1028C00010F07AF905F0E6FD04B02046BDE8F0818D
:1028D000FEE710B500F018F8BDE8104000F010B8A1
:1028E00010B5FDF797FC04461021044809F037FCA9
:1028F0002046BDE81040FDF791BC00004CC8002008
:10290000FFF7EEBFFEE7000002490020086000F07C
:1029100009B80000D000002001490860704700009D
:10292000D000002010B5FFF779FC08490A6842F092
:1029300080720A60064900224A600A6842F0010279
:102940000A60BDE81040FFF7E7BF0000FCED00E0C3
:10295000001000E00148406870470000001000E0EF
:1029600002201EF0BFBB000070B50B4D00242C6090
:102970000A48016821F0C0010160016841F040018E
:10298000016007480460FFF7EBFF01202860FFF7B4
:10299000E7FF2C6070BD0000988243420020024097
:1029A0008C02444210B582B0012180200CF062FC00
:1029B000012108020CF05EFC4020009001248DF8FB
:1029C000044000208DF806008DF8074002208DF8A5
:1029D00005006946074801F095FD0820009069460A
:1029E000054801F08FFD054804600548C0F898428D
:1029F00002B010BD001C0240002002408C02444284
:102A00000080434270B50B4E002434600A480168D0
:102A100021F0C0010160016841F0400101600748F8
:102A200001250560FFF79CFF3560FFF799FF3460D3
:102A300070BD000098824342002002408C02444254
:102A40002DE9F047824600241748016821F0C001B3
:102A50000160016801601E201EF044FB0025134F39
:102A6000DFF84C9000264FF00108C7F89862FFF796
:102A700077FFC7F898826006040ED9F80C0208B1F7
:102A8000601CC4B2FFF76CFF681CC5B2082DECD304
:102A9000BAF1000F04D0FFF767FF2046BDE8F087CA
:102AA000FFF7B0FFF9E7000000200240008043423A
:102AB000000044422DE9F04705461348016821F023
:102AC000C0010160016841F0400101600F4E4FF00C
:102AD0000008C6F898820024DFF834900127E8093E
:102AE000C9F88C026806050EFFF73AFFC6F898721F
:102AF000FFF736FFC6F89882FFF732FF601CC4B2BA
:102B0000082CECD3BDE8F08700200240008043424F
:102B10000000444270B50B48016821F0C00101601B
:102B2000016841F040010160074D01202860074E17
:102B300030601E201EF0D6FA00242C60FFF710FF34
:102B4000346070BD002002408C02444298824342AF
:102B500070B50B48016821F0C0010160016841F0C7
:102B600040010160074D00202860074E30601E20A4
:102B70001EF0B8FA01242C60FFF7F2FE346070BD3D
:102B800000200240988243428C02444270B50024E7
:102B90001248016821F0C001016001680160104D18
:102BA0000120C5F88C020F4EC6F89802FFF7D8FE38
:102BB000D5F80C0268B1601CC4B2FA2C03D9FFF737
:102BC000C7FF012070BDFFF7CBFED5F80C0200282F
:102BD000F1D10020C6F8980270BD0000002002402C
:102BE000000044420080434270B500254FF4803419
:102BF00000E0641E24B180200DF066F90028F8D0B2
:102C00002CB140F2FF500DF01BF9284670BD032097
:102C100070BD000070B5054600244749086810F0F3
:102C2000450F03D1086810F0450FFBD010F0040FDA
:102C300005D0032404200DF003F9204670BD10F0E8
:102C4000010F05D0012401200DF0FAF8204670BDD7
:102C50000DF034F9A84201D0102070BD40F2FF50B1
:102C60000DF0EEF800200DF04BF93449084201D187
:102C7000204670BD10F0004F01D01C2070BD10F038
:102C8000804F01D0092070BD10F0005F01D00A20F4
:102C900070BD10F0805F01D00B2070BD10F0006F90
:102CA00001D00C2070BD10F0806F01D00D2070BDE0
:102CB00010F0807F01D00E2070BD10F4000F01D005
:102CC0000F2070BD10F4800F01D0102070BD10F4E3
:102CD000001F01D0112070BD10F4801F01D0122000
:102CE00070BD10F4002F01D0132070BD10F4802FA0
:102CF00001D0142070BD10F4003F01D0152070BD2C
:102D000010F4803F01D0162070BD10F4004F01D0A8
:102D1000172070BD10F4804F01D0182070BD10F442
:102D2000005F01D0192070BD10F0080F01D01A20EB
:102D300070BD204670BD0000342C014008E0FFFD4E
:102D400010B50024104A116811F0450F03D1116825
:102D500011F0450FFBD011F0040F05D0032404201F
:102D60000DF06EF8204610BD11F0010F05D00124C2
:102D700001200DF065F8204610BD40F2FF500DF027
:102D80005FF8204610BD0000342C014010B500242F
:102D90000B4A116811F0450F03D1116811F0450F6E
:102DA000FBD011F0040F05D0032404200DF048F8E7
:102DB000204610BD40F2FF500DF042F8204610BDF5
:102DC000342C014070B506460C4600251F4A106899
:102DD00010F0450F03D1106810F0450FFBD010F034
:102DE000040F05D0032404200DF02AF8204670BDFE
:102DF00010F0010F05D0012401200DF021F820462C
:102E000070BD0DF05BF8B04201D0102070BD40F2F3
:102E1000FF500DF015F800200DF072F810F4604F1F
:102E200004D010F4005F05D0132070BD000C20808A
:102E3000284670BD10F4804F01D0102070BD10F4F2
:102E4000004F01D00F2070BD284670BD342C0140CA
:102E500010B500204FF480310E4B1A6801E0491E76
:102E60001A6812F0450F01D10029F8D111B112F002
:102E7000040F05D0032404200CF0E2FF204610BD0F
:102E800012F0400FFBD0002440200CF0D9FF204668
:102E900010BD0000342C014000B583B00FF06AFA79
:102EA0000021009103460191034A0221034802F0E8
:102EB0007DFA03B000BD0000A10A020864150508F0
:102EC00070B500241448016821F00C01016001680C
:102ED0000160124D04E0601CC4B201201EF002F932
:102EE000D5F8040208B1642CF5D3642C01D3012079
:102EF00070BD002404E0601CC4B201201EF0F2F892
:102F0000D5F8040208B9642CF5D3642C01D3012050
:102F100070BD002070BD000000080240000041426A
:102F200070B50024104D04E0601CC4B201201EF0F6
:102F3000D9F8D5F8040208B1642CF5D3002404E0D4
:102F4000601CC4B201201EF0CDF8D5F8040208B907
:102F5000642CF5D31E201EF0C5F8D5F8040208B184
:102F6000012070BD002070BD0000414270B50020FE
:102F700000244006050EFFF7D3FF2843611CCCB2A6
:102F8000082CF6D370BDF0B583B006460F4600F0AE
:102F90002DF8FFF795FF10B103B00120F0BD00241C
:102FA00001ADFFF7E3FF2855601CC4B2052CF8D330
:102FB0009DF804009DF805109DF8072008449DF831
:102FC0000610114408449DF8081088420BD101A84E
:102FD0000EF0CAFB1EF098F93880A81C0EF0C4FB56
:102FE0001EF092F9308003B00020F0BD10B50B4800
:102FF000016821F00C010160016841F004010160E9
:10300000074C0020206014201EF066F8012020608C
:10301000BDE810401E201EF065B800000008024008
:103020008402414200B583B0012104200CF022F952
:103030000220009001218DF8041000228DF8062056
:103040008DF807108DF805006946044801F05AFA1A
:10305000FFF7CCFFFFF734FF03B000BD00080240CC
:10306000014902208860704700B002400DF04EBE5A
:10307000074A904201D2074800E00748074A11F08A
:10308000005F01EA020101D0C160704781607047B2
:103090001064024000600240006402407D0F7D0F1A
:1030A000002904D0016841F0010101607047016806
:1030B00021F00101016070472DE9F003016821F062
:1030C000010101600021016041608160C160016116
:1030D00021214161444A45494FF03D08904204D1C5
:1030E000C1F80880BDE8F0037047414A4FF47464AA
:1030F000904203D18C60BDE8F00370473D4A4FF425
:103100007415904203D18D60BDE8F00370473A4AD0
:103110004FF07466904203D18E60BDE8F0037047B3
:10312000364B374A984203D1CA60BDE8F003704776
:10313000DFF8D0C0344B604503D1CB60BDE8F0036D
:103140007047324FDFF8C8C0B84204D1C1F80CC094
:10315000BDE8F0037047DFF8BC904FF03D5748459D
:1031600003D1CF60BDE8F0037047DFF8AC902B4986
:10317000484504D1C1F80080BDE8F0037047DFF88E
:10318000A080404503D10C60BDE8F0037047254C9A
:10319000A04203D10D60BDE8F0037047224CA0426D
:1031A00003D10E60BDE8F0037047204C2049A042D7
:1031B00003D10A60BDE8F00370471E4A904203D174
:1031C0000B60BDE8F00370471B4A904204D1C1F880
:1031D00000C0BDE8F0037047184A9042F9D10F6073
:1031E000BDE8F0037047000010600240006002403C
:1031F0002860024040600240586002407060024017
:103200003D00002088600240400F0020A060024086
:1032100000003D20B8600240106402400864024093
:1032200028640240406402405864024070640240D6
:103230000C64024088640240A0640240B86402400A
:10324000002904D0016841F0200101607047016845
:1032500021F020010160704711F0800F09D022B1E8
:10326000436943F08003436103E0436923F0800333
:103270004361802905D001F01E011AB10268114393
:1032800001607047026822EA010101607047000096
:1032900010B402681C4B1A40D1F80CC00B688C6942
:1032A00043EA0C03D1F814C04CEA040C43EA0C03C3
:1032B000D1F81CC043EA0C03D1F820C043EA0C0348
:1032C000D1F824C043EA0C03D1F828C043EA0C0328
:1032D000D1F834C043EA0C03D1F838C043EA0C03F8
:1032E0001A430260426922F00702D1F830C0CB6A6B
:1032F00043EA0C031A4342610A6942604A688260E9
:103300008968C16010BC70473F801CF02DE9FC410A
:103310000C46050038D003F053FC112C14D0132CAC
:1033200028460ED001F012FE009000F047FB064642
:10333000684601F077FE20461BF0E3F907460024BB
:103340001CE000F0E8FA1BE0284600F069F917E0FD
:103350002146284600F035FB019070B100781BF043
:10336000D0F900F0FF0801A801F05CFEB84504D1D7
:103370002146284600F0D9FA02E0641CB442E7DB9B
:10338000BDE8FC4105F086B8BDE8FC812DE9FF41B0
:1033900045680446284601F0D9FD0190D0F88860C0
:1033A00001A801F03FFE0EB1012700E000272146F1
:1033B00028460EF010FB002856D02068112844D073
:1033C00006DC0B2863D00E2878D00F282BD14FE0D5
:1033D000212805D026281AD0B0F5107F23D139E056
:1033E000E068416800291EDD00680D281BD13046C9
:1033F00007F0B7FF002806DB304607F0B2FF0146B2
:10340000284600F092FA284600F07EF875E0E06861
:10341000012809D00A2802D00B2871D111E00A2115
:1034200028460FF04DFC6BE0304607F09AFF00286D
:1034300066DB304607F095FF0146284600F075FA36
:103440005BE0284600F060F85AE0FFB9E068007AD7
:1034500098BB55E0E06848B1007A08B1012100E06E
:10346000022128460FF02CFCBDE8FF810321F8E77C
:103470002E46284601F06AFD0290D0F884000568C7
:1034800002A801F0CFFD0DB13046A84738E028462C
:1034900001F05CFD0090C06B01F026FE0098D0F8B2
:1034A00088000EF06DFE0098D0F8940001F080FCCA
:1034B000684601F0B7FD23E000E016E0E0684168EF
:1034C00000291DDD016820290FD006DC092910D054
:1034D0000A2915D01B2904D112E0212910D0222954
:1034E0000ED02846FFF712FFBEE7284600F0FAF894
:1034F00006E00EF09BFFB04202D128460FF03AFDE5
:1035000020460EF005FEAFE738B5040016D003F0F4
:1035100057FB204601F01AFD0090D0F8880040B11A
:103520000EF02EFE00990020C1F8880020460FF012
:1035300043FB684601F076FD04F0ACFF38BDF0B502
:1035400085B0B0F90850468A84690296CDE90354E3
:103550000027CDE90017B0F90C10B0F91050B0F900
:103560000E40B0F90A00194410442B46224600F0E0
:1035700003F805B0F0BD00002DE9FF5F1D46DDE951
:103580000F8691468A4683460E9F129C03F018FBD5
:1035900021496C34CDE90214CDE900784FF0FF33B6
:1035A0004A46514658460EF0FBFC04002DD001F06F
:1035B000CDFC1022009011990EF058FB0098382293
:1035C000164980F88C604C30FCF79CFE134E009836
:1035D000361F3168C0F88410002180F89010C5862D
:1035E000204600F0CAF9684601F01CFD01F079FDA3
:1035F0000546204601F0AAFC0090C563684601F02C
:1036000011FD306841682046884704F043FF04B04C
:103610002046BDE8F09F00008D3300089C03002089
:1036200010B5044600F063F9010000D0411E2046A9
:10363000BDE8104000F079B9F8B50546006801F022
:1036400085FC0090448ED0F88860684601F0EAFC62
:1036500006B1012604F00104286810F0FBF80EB151
:10366000002006E00CB1012003E008B1022000E0D8
:1036700003201B4951F82010686858B302280CD069
:10368000052802D0122828D103E0284612F0ACFF0A
:1036900023E0284615F09DFB1FE06A69E8694FF0BA
:1036A000FF33801AA0F1080203EB6204421CAB69ED
:1036B000001B4510A3EB6206C86904F030F806E071
:1036C0003219311B284602F065FA641E6D1C002C6D
:1036D000F6DA02E028680FF0F9FC0020F8BD0000DF
:1036E000E83B07082DE9F14F9EB01E9800287DD0D9
:1036F00003F066FA1E9801F029FC0B901E980EF05C
:1037000093FF03900B98B0F9367090F890101891D1
:10371000C16B0A9190F88C90B0F93410159100F0BB
:103720004DF982460B9804ACB0F88E101491B0F9A4
:1037300082101391C16C1291D0E90012CDE90C12E4
:10374000D0F894B0002100BF00EB8102126D44F864
:103750002120491C0329F7D3002107AD00EB81028A
:10376000D26D45F82120491C0329F7D300210EAE64
:1037700000EB8102126F46F82120491C0329F7D380
:103780000BA801F04FFC1E980EF0E0FE01F0DEFBEE
:103790001190D0F8008011A801F044FC4FEA2840B5
:1037A00042420FFA88F041420CA803F065FE5FEA3E
:1037B000897003D5BDF83200C01B01E0BDF83600AA
:1037C000ADF832001E980EF0C1FE014603980222A9
:1037D000CDE900070292BDF93230BDF9302000205A
:1037E00007F04FFD80465FEAC97000E07CE007D03B
:1037F0004046189908F003F80121404607F024FFDD
:10380000002708E039460A9801F0A2FC014640462C
:1038100007F0F2FB7F1C5745F4D30027394654F8D4
:103820002720404607F03AFF7F1C032FF6D30024E1
:10383000214655F82420404608F07AF8641C032CF1
:10384000F6D30024214656F82420404607F0B7FF5F
:10385000641C032CF6D3BBF100001FD001F076FBF3
:10386000169030F8025B00240646012711E000BFE5
:1038700006EBD40004F00701007807FA01F10842D2
:1038800001D0012200E000222146404607F038FF27
:10389000641CAC42ECDB16A801F0C4FB4046149952
:1038A00007F061FF4046129907F011FF4046139957
:1038B00008F029F840460FF05DFB40461E9907F0DE
:1038C00069FF4046159907F0B7FF01211E980FF0D8
:1038D000F7F91E9801F03AFB0B90C0F888800BA80E
:1038E00001F0A0FB04F0D6FD1FB0BDE8F08F38B5A5
:1038F00005004FF000040CD003F062F9284601F0F7
:1039000025FB0090B0F93440684601F08BFB04F0D1
:10391000C1FD204638BD10B50446FFF7E8FF411C45
:103920002046BDE81040AFF3008038B50C460500D6
:1039300022D003F045F9284601F008FB009000F082
:103940003DF800B1401E844200DD04460098B0F905
:103950003410A1420BD08486684601F063FB2846F0
:103960000FF02AF9042128460FF0AAF902E0684670
:1039700001F058FB04F08EFD38BDF8B5044601F0A7
:10398000E5FA01460090B0F9380010B9C86C02F0B1
:10399000E3FD0099CA6AB1F98030126800EB430078
:1039A000161808460FF0DAFD0546684601F03AFBA6
:1039B0003246294620460FF0DEFBF8BDC06B01F011
:1039C000BBBB38B50D46002401F0C0FA0090C06BB7
:1039D000294601F0BDFB0546684601F023FB1DB1F9
:1039E000284601F0B3FA0446204638BD704700006F
:1039F00070B586B0012108460BF03CFC0121102077
:103A00000BF070FC1E4E07220A21304600F0C5FD67
:103A100007220921304600F0C0FD00248DF8164031
:103A200001218DF8171002258DF8145049020491D8
:103A30008DF8155004A9304600F064FD8DF814503F
:103A40006802049004A9304600F05CFD4FF4E130B8
:103A50000090ADF80440ADF80640ADF80840ADF870
:103A60000C400C20ADF80A00064C694620460DF0CB
:103A7000FDFE012120460DF0A5FE06B070BD000040
:103A800000000240001001400FB438B505A80090B6
:103A9000049C2078002808D02078252808D0641CB1
:103AA00021F08EFA20780028F6D138BC5DF814FB9E
:103AB00014F8010F64281ED00CDC58283AD004DC1E
:103AC00025283ED042283FD12DE062282BD0632804
:103AD0003AD108E0662815D069280CD073281BD08D
:103AE000782831D126E0009810F8041B0090C8B265
:103AF00021F066FA28E0009951F8040B009121F0BA
:103B000065FA21E00098C01D20F00700B0EC020B20
:103B1000009021F07DFA17E0009951F8040B009114
:103B200021F0C8FA10E0009951F8040B009121F03F
:103B30002DFA09E0009951F8040B009121F098FA50
:103B400002E0252021F03CFA641CABE700234FF093
:103B5000204210280BD0B0F5807F0AD0B0F5805FEE
:103B60000AD0D2F8580131EA000009D107E0506EBE
:103B7000F9E7D2F88400F6E7D2F8A400F3E70123CE
:103B8000184670474268016811438268C068521E37
:103B9000520142EA40200843014908607047000092
:103BA000500100A030B403689900A1F1C041D1F8E0
:103BB00040116FF30E01D0F808C04268046942EA70
:103BC0000C02D0F80CC04CEA040C42EA0C02D0F80B
:103BD00014C042EA0C02D0F818C042EA0C0CC269C8
:103BE0004CEA0204D0F820C044EA0C05446A25439C
:103BF00029434FF02045002B48D0D5F840316FF3D2
:103C00000E0342EA0C0223431A43C5F8402102681E
:103C10009200A2F1C042C2F840110168A9B3890024
:103C2000A1F1C041D1F8481101F07042816A0B68DE
:103C3000D1F804C05B1EACF1010C43EA0C13D1F8BF
:103C400008C0ACF1010C43EA0C23B1F810C0ACF190
:103C5000010C43EA0C431A43D5F8483103F0704392
:103C6000D1F80CC0898AACF1010C4FEA0C3C491E1A
:103C70004CEA01511943C5F8481100688000A0F1D1
:103C8000C040C0F8482130BC704702E0C5F8401180
:103C9000C3E7D5F8481101F07041806A02684368B3
:103CA000521E5B1E42EA031283685B1E42EA032235
:103CB000C3685B1E42EA0332038A5B1E42EA034288
:103CC000838A007E5B1E42EA0352401E42EA006085
:103CD0000843C5F8480130BC7047000002490A6833
:103CE00042EA400008607047540100A02DE9F04707
:103CF00082B00E4600240025009501955D4F4FF0DF
:103D00000809C7F80090102078604FF04008C7F805
:103D10000880FD604FF4806AC7F810A038460CF0A8
:103D20002FF91020FEF776FF002834D15248008981
:103D30000004386037207860C7F80880FD60C7F855
:103D400010A038460CF01CF93720FEF763FF00285E
:103D500021D1411E07F114000160C0F80490302108
:103D600081600221C1600561012141610CF080F890
:103D70003D6033207860C7F80880FD60C7F810A068
:103D800038460CF0FDF83320FEF744FF8146B9F1C8
:103D9000000F03D0484602B0BDE8F087374F3868BF
:103DA00040F22A6810EA080F0ED16D464FF4001059
:103DB0000CF08AF820B10CF0DDF845F82400641C02
:103DC000386810EA080FF1D008200CF07DF830B107
:103DD00008200CF035F8042002B0BDE8F08702207E
:103DE0000CF072F830B102200CF02AF8022002B078
:103DF000BDE8F08720200CF067F830B120200CF0EF
:103E00001FF8062002B0BDE8F0874FF400700CF0F8
:103E10005BF838B14FF400700CF012F8072002B0D4
:103E2000BDE8F08740F2FF500CF00AF800980099C6
:103E3000000601F47F4140EA0120009901F47F016E
:103E400040EA1120009940EA1160706001980199E0
:103E5000000601F47F4140EA0120019901F47F014D
:103E600040EA1120019940EA1160306002B04846F2
:103E7000BDE8F0875008002024000020342C0140C9
:103E80002DE9F0430446C56887B090468946002076
:103E900003F062FC064625B1287910B146F0020015
:103EA00001E026F0020003F057FC2069012558B11B
:103EB000D4E902128DE826000395638822880468FD
:103EC00041464846A0471EE0124F134B2146386832
:103ED0001B68427CE068984730B9E088012801D02F
:103EE000002001E03868806BA288E388A168009513
:103EF000CDE90410CDE9023201956388228841465C
:103F0000484605F093FE07B03046BDE8F04303F0A5
:103F100023BC00004C0200203C0200201CB5002401
:103F2000019401AC009400F0E7F81CBD2DE9FF4FAF
:103F300083B0814606988A46A0EB0A08109E0020AE
:103F40000090A2EB09043568934654EA080018D0A3
:103F50002046FCF70EFF07464046FCF70AFF874263
:103F60000BDA2046444680464846D14682465846AB
:103F7000DDF818B0069001200090002C07DD2046E7
:103F800006E007B04846BDE8F04F00F03BB960429C
:103F9000A0420AD04846D9466442C8F10008834688
:103FA0004FF0FF37DDF818A000E001275148B8F1C5
:103FB000000F11D004EBD4714FEA610B01DACBF1A1
:103FC000000B4C480068807E88B3002F02DA30680E
:103FD0002044306000257BE000990029016821D051
:103FE000897E11B10027804615E007B05A46494640
:103FF0005046BDE8F04F05F07BBF28466D1C19F018
:10400000F9FC38B9D8F8000009EB0701406E4268A6
:10401000504690477F1CA742EFDD6D1E356007B00C
:10402000BDE8F08F8A7E1AB10027804617E019E0BC
:10403000486E5A465146036807B04846BDE8F04FFF
:10404000184728466D1C19F0D5FC38B9D8F800106F
:1040500009EB0700496E4A68514690477F1CA7420A
:10406000EFDDDAE700250FE008FB05B090FBF4F187
:1040700001EB0A00009951B11E4A09EB05011268D3
:10408000526E526890476D1CA542EDDDC7E7194995
:1040900009EB05030968496E4A6801461846F1E7CD
:1040A00008FB05B090FBF4F101EB0A0001903068C9
:1040B0003844306019F09EFC48B9009890B10D4822
:1040C00009EB05010068406E4268019890476D1C3D
:1040D000A542E5DD3068002F01DA20443060C01BC6
:1040E00030609CE7034909EB05000968496E4A689E
:1040F0000199EBE74C0200202DE9FF470F464049AC
:104100001646804609680C981D460A7E012A1CD076
:10411000A8EB0600791B50EA01031CD0A2F10109AB
:104120001CF054FC00F58060824605F0FEF900FBAF
:1041300009F4504605F0FEF900FB09F1002C0CDAF9
:10414000C4F50070801240420AE0009032463946C1
:104150004046FFF7EBFEBDE8FF8704F50074A012B0
:10416000002904DAC1F5007189124C4202E001F520
:1041700000718C12002804DD411C01EBD171491043
:1041800003E000EBD0714910401E00EBD0704210EC
:10419000002C04DD601C00EBD070401003E004EB49
:1041A000D4704010641E04EBD47308EB0104ADF826
:1041B00000403C18ADF80240A8EB02045B10B21AB4
:1041C000ADF80440ADF808203144FC1AEA1AADF805
:1041D0000C102844ADF80A20ADF80E000023ADF80D
:1041E00006401A460421684600F07AF839464046EF
:1041F00014F0F2FC2946304614F0EEFCABE7000068
:104200004C020020064A13681A7E012A05D0521E6D
:1042100002EBD272521000F005B85A6E5268104785
:104220004C0200202DE9F05F0646884640F2C3208C
:1042300002FB00F14FF47A7091FBF0F702FB02F100
:1042400002EBD27001EB600B1446B118234A301B0D
:104250007F1C1268526E13680A4641469847012532
:1042600038E000BF05FB05F004FB040159451CDDE7
:10427000BC4219DD194B06EB050AA6EB05091B68C4
:10428000AAF1010208EB04015B6E09F101001B6851
:104290009847124BAAF10102A8EB04011B6809F12F
:1042A00001005B6E1B689847641E0C4B3219301B73
:1042B0001B68924608EB05015B6E81461B689847B8
:1042C000064B5246A8EB05011B6848465B6E1B680F
:1042D00098476D1CBD42C5DDBDE8F09F4C02002033
:1042E0002DE9FF4F43F6FF740F46664283B09B46AD
:1042F000814600210BE000BF09EB8100B0F902000C
:10430000A04200DA0446B04200DD0646491CB9422C
:10431000F2DB67480068406900280DD0B0F906104C
:104320001A46A1EB0B01B14200DA0E46B0F90200C9
:10433000801AA04200DD0446B4E0DFF878A1002036
:104340000546CAF8000088E0781E854201DA6B1C39
:1043500000E0002309EB850C09EB8302BCF90200A5
:10436000B2F90210A04244D1A14215D139F923304B
:10437000059A39F9251003EB020C4D4A059812688D
:10438000084404EB0B01526E6045136801DA624683
:104390002AE00246604627E02846A4464FF000087F
:1043A0007A1E0BE008B1401E00E0781E09EB800386
:1043B000B3F90230634504D108F101089045F1DBFF
:1043C0002346A34248D01A1B39F92500A1EB040C5F
:1043D000059B92EA0C0F09D4354A184404EB0B01F3
:1043E0001268526E13680246984735E00FF022FDBE
:1043F00032E0A14230D001DBA04203DDA0422BDB42
:10440000A14229DCE04688420ADC0346A04223DCC4
:104410000846A14220DBB8F900C0B2F9001008E05C
:104420000B46A14218DCA04216DBB2F900C0B8F975
:104430000010E21AA1EB0C0151430029A0EB03028A
:1044400002DD01EB620102E0A1EB6201491CC01A2E
:1044500091FBF0F06044C9E76D1CBD42FFF674AFFC
:104460000598009004EB0B00019000208046054663
:1044700013E01149B8F1000F31F915A009D00099E6
:1044800001EB0A0208440A490968496E0B68019960
:10449000984788F0010850466D1C064909688D420E
:1044A000E7DB641CB4427FF748AF07B0BDE8F08F8C
:1044B0004C020020C40400209C0101200E4810B5CD
:1044C000006803F021F90D48006803F028F9012085
:1044D00003F0B2F9002003F0BDF9002003F0CAF99F
:1044E000002003F039F90648006803F041F9BDE8FF
:1044F0001040002003F072B948020020440200205E
:10450000400200202DE9F00100220126032706FACF
:1045100002FC0B6803EA0C03634538D105685300BD
:1045200007FA03F4A54305600D79D0F800809D409B
:1045300045EA080505600D79012D01D0022D17D13E
:104540008568A54385604D79D0F808809D4045EA8F
:1045500008058560456825EA0C0CC0F804C0D0F851
:1045600004C08D799540ADB24CEA050CC0F804C08A
:10457000D0F80CC02CEA040CC0F80CC091F807C0AD
:104580000CFA03F3D0F80CC043EA0C03C360521CCE
:10459000102ABCD3BDE8F00170474B07DB0E9A40F0
:1045A000C90800EB8100016A4FF00F0C0CFA03F30D
:1045B00099430162016A1143016270474183704768
:1045C000018370472DE9F04385B0012180200AF076
:1045D00051FE012108020AF04DFE4FF08008CDF88F
:1045E000008000248DF8044001268DF80760022722
:1045F0008DF80570DFF8C49069464846FFF782FFE2
:10460000300200908DF804608DF8064069462C4811
:10461000FFF778FFFEF7C6F92A4D2C600A201CF040
:104620005BFD2E600A201CF057FDCDF800808DF850
:1046300004408DF807408DF8057069464846FFF73D
:1046400061FF64201CF048FD042202A948F24010DA
:1046500000F04EF88DF80C4002A91BA01AF062FE83
:104660001CA102A8FBF788FE18B105B00120BDE827
:10467000F0838DF80870012202A948F2400000F092
:104680003BF9012202A948F2470000F031F89DF8F9
:104690000810602902D211A01AF044FE0A201CF072
:1046A0001BFD8DF80840012202A948F2400000F0ED
:1046B00023F905B00020BDE8F0830000001C024093
:1046C00000200240A00244424354502049443A256D
:1046D000730D0A003931343700000000446566610B
:1046E000756C74205665723A25640D0A000000004E
:1046F0002DE9F04104460E461546FEF70BFA282038
:10470000FEF7D8F9FEF742FA200AFEF7D3F9FEF7D2
:104710003DFAE0B2FEF7CEF9FEF738FAFEF7FAF905
:104720002920FEF7C7F9FEF731FA0024002D0CD935
:104730006F1EBC4201D0012000E00020FEF780F98E
:104740003055601CC4B2AC42F3D3BDE8F041FEF773
:10475000FFB900002DE9F14783B00024A146624D66
:104760002878401CC1B229706048614FA0FB01202D
:10477000C008404200EB800011EB400001D00A2944
:104780007ED2012203A948F24E10FFF7B1FF9DF837
:104790000C004FF0000810F0800F0BD000F00F005D
:1047A000062807D2CDF80480012201A948F24E1054
:1047B00000F0A2F89DF80C0010F00F0F73D000F07D
:1047C0000F0006286FD2FF2101FA00F0019097F840
:1047D0002060C04340F0C00087F82000B889B8824C
:1047E000F88AF883DFF80CA14FF0010997F8200050
:1047F00009FA04F108422DD03AF81400042202A963
:10480000FFF776FF97F8300010F0010F10D09DF8F9
:1048100008009DF8091000EB012107EB440081819D
:104820009DF80A109DF80B2001EB0221C18211E0D6
:104830009DF808009DF8091000EB012107EB4400EA
:10484000C1829DF80A109DF80B2001EB0221C1F5F1
:1048500088718181601CC4B2052CC7D34FF0010957
:10486000B9893846B1F5F07F03D8C18AB1F5887FA0
:1048700017D99DF80C1001F00F01012908D900E0AB
:1048800011E0C1898181018BC18285F800800AE035
:10489000818A8181C18BC1828021039180F820604F
:1048A00001E085F800809DF80C0000F08F00802862
:1048B00011D197F8200010F0800F04D020F0800074
:1048C00087F8200007E04FF6FF71B981F98200F008
:1048D000E00087F820002878F02801D90A20287005
:1048E00004B04846BDE8F08778000020CDCCCCCCA1
:1048F00044000020045602082DE9F04104460E460B
:1049000015460027FEF706F92820FEF7D3F8FEF734
:104910003DF9200AFEF7CEF8FEF738F9E0B2FEF7CF
:10492000C9F8FEF733F90024002D0BD9305DFEF7EE
:10493000C1F8FEF72BF90746380003D1601CC4B25A
:10494000AC42F3D3FEF704F93846BDE8F08100002D
:10495000014AC2E900017047F0010020014AC2E9A2
:1049600000017047F8010020014AC2E900017047C8
:1049700028030020014AC2E900017047000200201C
:10498000014AC2E900017047300300202DE9F04FD1
:10499000DFF828B191B04FF0FF35DBF80030B3F904
:1049A00022100691DE69B3F92490F469A18981424D
:1049B00006D8E289824203D3471AD4F8008012E075
:1049C000D4E9018100296FD00A8882426CD84D88D1
:1049D000854269D3801A82B2486800EB8200B0F940
:1049E0000070B0F90250781C5ED0307EA17C10FBC4
:1049F00001FA217CCDE90701B3F92A60304605F0C0
:104A000049FFC0B20E90DBF8000007FB0A81A37CCF
:104A1000826B0127CDE90412CDE90273C069089ABF
:104A2000C17E807ECDE90001DDE90603494605F03F
:104A3000FDF8681C18D046F0020005F02BFFDBF8EB
:104A40000000A37C05FB0A81826BCDE90273CDE9EE
:104A50000412C069089AC17E807ECDE90001DDE9BB
:104A60000603494605F0E2F8DBF800005D46C06940
:104A7000417E007E814214D9022E12D086F00400BD
:104A800005F008FF2868C069027EC37E12FB03910F
:104A9000437E857E089A06984B4412FB050205F07A
:104AA00051FA0E9805F0F6FEDBF80000627C418CAE
:104AB0001144418411B0BDE8F08F00004C02002089
:104AC00004480068C069C06909B1027C0A60407C82
:104AD000704700004C020020022008807047C06927
:104AE00082898A4202D8C2898A4210D2806880B103
:104AF00002888A420DD843888B420AD3406800EB73
:104B00008100A0EB8200B0F90000002801DB012049
:104B100070470020704700002DE9F043304C0346F9
:104B200087B020681946B0F92A60C069C06900F0F2
:104B300086F8002850D041680088181A01EBC0059B
:104B40003046AF7805F0A6FE814620686A680123EA
:104B5000816BCDE90237CDE90421C169CB7E8A7E24
:104B6000CDE900230B7EB0F924102A78B0F9220099
:104B700005F05CF82068C069417E027E91421FD931
:104B8000C07E11FB00F812FB00F7022E18D001F0D6
:104B900066FC064601F02CFC02F0C1FD21682A7873
:104BA000CB69B1F92200DB7E12FB0302B1F92410BC
:104BB00001EB0803394405F0C5F9304602F0AFFDBA
:104BC000484605F067FE20686A78C369B0F922108C
:104BD0009B7E12FB0311418407B0BDE8F083000007
:104BE0004C02002030B50F4C05460B462068294684
:104BF000C069C06900F023F8002812D0416800881D
:104C000024682A1A0120E46900EBC200085CA47E33
:104C100010FB04F0002B04D011F8321011FB04F14A
:104C2000196030BD4C02002001200880704700B59B
:104C3000C06900F004F8002800D0012000BD06E0A3
:104C400002888A4202D842888A4202D280680028BA
:104C5000F6D170472DE9F0410025154E154C18E0AE
:104C60002069C5EB051700EBC7007022001D3168F5
:104C7000FBF748FB2069002140F8371000EBC70024
:104C800000F10C018161011D0A1DC0E90F126D1CAC
:104C90004164A0688542E3DB15F0B0FF2169C0EBF9
:104CA000001001EBC000001D3060BDE8F081000085
:104CB0004C020020F404002070B510490E48086032
:104CC000084604F035FB0D4C143CA068C0EB001006
:104CD000C500284600F0ACF8094B20612A461B6845
:104CE000002198474FF0FF30206003F035FCBDE80D
:104CF000704015F083BF0000A1C90108080500201D
:104D0000A8040020F8B50C0005460ED001F058FFAD
:104D1000204600F01BF8060010D000F017F92246DC
:104D2000009025B12946074B03E00020F8BD064B53
:104D300000211B689847684600F074F903F0AAFB4D
:104D40003046F8BDAC040020A804002010B50400D3
:104D500009D001F035FF20460FF090F9044603F02A
:104D600099FB204610BD002010BD000038B5054657
:104D700001F026FF2846FFF7E9FF04000AD000F003
:104D8000E5F8064B00902A461B68002198476846C4
:104D900000F048F903F07EFB204638BDA80400204F
:104DA000024A106021F003005060704708000120A3
:104DB00010B5040011D001F003FF0848042101EBF5
:104DC000C401406B415848680FF052F8204618F073
:104DD000DFFABDE8104003F05DBB10BD48FF0020C6
:104DE000002805D0034AD16B016001B14860D0634F
:104DF0007047000048FF002010B5044601F0E0FEB7
:104E00002068FFF7D5FF00202060BDE8104003F0C8
:104E100041BB000070B50D460646002405E000BF0A
:104E200006EB8400FFF7E8FF641CAC42F8DB70BDC2
:104E30002DE9F041044616F0BDFD2848E41C24F09D
:104E40000305016C2D1DA94200D90D46C46B13E06A
:104E500054F8042CAA420ED184B1216809B16268C9
:104E60004A60616809B122680A60C26BA24231D10E
:104E70002168C1632EE02468002CE9D18046816B53
:104E8000C0680F1857F8040C3E1A306838B100207B
:104E900018F04CFC57F8040C3E1A3068D0B9706812
:104EA000A84217DB3044441B3046241D18F0F6FBA3
:104EB000D8F80C10491BC8F80C10D8F81410294465
:104EC000C8F814107068401B02D031460EF0D0FFB5
:104ED00044F8045C2046BDE8F081000048FF002053
:104EE00010B5002416F066FD0C490F2001EBC0023E
:104EF000526C1AB101EBC000406C08E0401EF5D5C1
:104F000008E04168A14200D90C46806810B1806871
:104F10000028F6D1A4F10C0010BD000048FF0020CD
:104F2000002138B10449042202EBC000496B085843
:104F300041680C390846704748FF002002488169E3
:104F4000491C81617047000048FF00200549CA697B
:104F5000521CCA61496B01EBC0010A78521C0A70ED
:104F600000F078B848FF00207CB506460C4608469D
:104F7000FFF7ECFE050021D006B33046FFF7D0FF67
:104F8000A04200DA044601F01BFE2846FFF7DEFFD0
:104F900000903046FFF7DAFF094B019001461B688D
:104FA000224600989847684600F03CF801A800F0B7
:104FB00039F83046FFF7FCFE03F06CFA28467CBD5A
:104FC000AC04002010B501F0FBFDFFF789FF64225F
:104FD0000849B0F5800F04D990FBF2F4086A444305
:104FE00003E0096A4143B1FBF2F403F053FA2046AF
:104FF00010BD000048FF00200549102805D94A6867
:10500000B0EB520F02D3500800E0102088607047C8
:105010000800012002488169491E81617047000033
:1050200048FF00200A4902684B6B52F8082C03EB3A
:10503000C2021378022B03D3CB690BB15B1ECB6189
:105040001178491E11700021016008467047000068
:1050500048FF00200349042202EBC000496B0858B6
:105060000830704748FF00202DE9FC414FF0000652
:105070000B465FEA000834462BD032B11146184681
:10508000FFF740FE060000D101244046FFF75EFF17
:105090000090078845686846FFF7C4FFCCB9B9009F
:1050A0002846091DFFF760FF050015D0FFF74EFFEA
:1050B000019040F8276001A8FFF7B4FF4046FFF7D2
:1050C00045FF009045600188491C01806846FFF754
:1050D000A9FF2046BDE8FC813046FFF769FE0124A8
:1050E000F7E70820FFF742BE7CB5050023D0FFF7A5
:1050F0002DFF00904068C0B1FFF728FF0024019009
:1051000005E0019800EB8400FFF776FE641C009830
:105110000088A042F5DC01A8FFF784FF0098001D7D
:10512000FFF76AFE0099002008806846FFF77AFFC3
:105130002846FFF73DFE7CBD38B5002430B1FFF7AF
:1051400005FF009004886846FFF76CFF204638BDD5
:1051500038B50D46002448B1FFF7F8FE2946009007
:1051600000F016F804466846FFF75CFF204638BD9D
:1051700038B50D46002448B1FFF7E8FE29460090F7
:1051800000F018F804466846FFF74CFF204638BD8B
:1051900038B50D4601880024A94209D9406838B1C4
:1051A000FFF7D4FE009050F825406846FFF73AFF1D
:1051B000204638BD10B50024FFF7EAFF10B1FFF715
:1051C000C5FE0446204610BDF0B52D271C68B0F181
:1051D000004F08D0002600280DDA651C1D602770DE
:1051E0004042012408E0651C01261D606FF000406C
:1051F0002770491E01E00024091BC9B22AB3491EC9
:10520000C9B222E00C46491EC9B2944205D1124CE3
:1052100027781C68651C1D602770104C54F82150BD
:1052200090FBF5F4E4B20A2C11D804FB150011B977
:105230000EB1641CE4B20A2C02D10124491CC9B28B
:105240001D686F1C30341F602C700029DAD119687A
:1052500000200870F0BD000038020020E4E10608DC
:1052600070B514460D46064601F0AAFC204601F032
:1052700003F90300174804EB840109D050F821001A
:1052800041688068711A2A1A184602F097FA1CE0E1
:1052900000EB8104A268B24201D0012200E00022AA
:1052A000E368AB4201D0012300E000231A430CD095
:1052B000236943B150F82100816840686A1A311AA5
:1052C000184602F0A1F9C4E90265BDE8704003F098
:1052D000E1B800008402012010B5C2B2CBB2D21AEC
:1052E00000D5524293B25B43C0F30722C1F30724B7
:1052F000121B00D55242000C92B2A0EB114002FBEF
:10530000023200B2002801DA404200B280B200FB53
:10531000002010BD10B50021084601F02FF943F61A
:10532000FF725042BDE8104013460146AFF30080C3
:105330002DE9FC411C4615460E46074601F040FC8F
:10534000042005F0A7FA804612484069C16C006D40
:105350000F4406440D440444ADF80070ADF8045009
:10536000ADF80260ADF8064068460EF0FFF807E0C1
:1053700023462A463146384604F0E4FD0EF0B0F8E4
:105380000028F5D1404605F085FA03F083F8BDE822
:10539000FC81000038020020B0F90630B0F904208A
:1053A000B0F90210B0F90000FFF7C2BF2DE9F843D1
:1053B0001C00DDE9089816460F46054602D10CF0A0
:1053C000D9FF044600962E6843464A4621462846A1
:1053D000B047061E39D00CF0C2FF8146698A3046BC
:1053E0000CF08EFB30460DF045FF48460DF042FFB5
:1053F0004FF000080CE000BFCDF8008055F81CCF3E
:1054000000231A4649462846E04700B30DF032FF14
:105410007F1E002FF0DC1D2148460DF062FD601C50
:1054200012D001F0CDFB0DF001F830B1FFF712FE04
:105430008469B44201D02000F8D1B44202D0304691
:105440000DF0ECFD03F026F83046BDE8F883304659
:105450000CF096FE0020F8E72DE9F0411C461646B8
:105460000D460746022B02DB0020BDE8F0811C2020
:10547000FFF7DEFC0028F8D00DB105610AE0094A0B
:1054800052F8241009B905E011460A68002AFBD138
:105490000969016184618682002101604160C0E97F
:1054A0000217E2E77802002070B51D46FFF7D4FF2F
:1054B000040009D000F00EF8E068006820B9034845
:1054C000006800EB85008465204670BD4C0200201A
:1054D000FFF786BC70B5C0B38269022A36DA21496B
:1054E000531C0C789C4200DA0B701F4C54F82210AD
:1054F00019B944F8220032E019464B68002BFBD161
:1055000006E0CB68C5681B682D68AB4203DD0968FF
:105510000029F6D11AE0C1B1CB68C6681B683668AD
:10552000B3420CD1838A012B05D008E01946DB6811
:105530001B68AB4203DB0B68002BF7D129B14B682A
:1055400033B118604A68426004E0FFE7012070BD93
:1055500044F822004860884200D100210160002008
:1055600070BD00009E0200207802002010B503E00C
:105570000468FFF7AFFF20460028F9D110BD0000F6
:1055800010B50C4B8269002153F82240844205D1AA
:10559000046843F82240026802B1516042680AB1CF
:1055A0000368136002680AB1436853600160416098
:1055B00010BD00007802002000207047022801DBA7
:1055C00000207047054A52F8200004E0C2681268C3
:1055D0008A42F6D000680028F8D17047780200208F
:1055E000022801DB00207047054951F8200004E043
:1055F000C16809680029F6D000680028F8D1704712
:10560000780200202DE9F8431D461646884604001E
:105610000CD0FFF79BFC0090006807686846FFF716
:1056200001FD2B46324641462046B847BDE8F88387
:105630002DE9F041044602F07BFF0619164F1FE0EA
:1056400000F086FB3868844200DD0446A04601F085
:10565000B7FA12480568FFF771FC2C0017D000BF9D
:1056600002F018FF641EFBD1404602F045FF1DB159
:1056700001F0A6FA6D1EFBD1FFF7CCFC02F00AFF89
:1056800002F056FF341A002CDADCBDE8F081404607
:1056900002F032FFF0E70000EC02002000050020DD
:1056A0007FB51E4614460D46CDF80CD003AB002244
:1056B0003146FFF789FD22462946684600F086F804
:1056C0007FBD00002DE9FC4706005FD001F078FAAD
:1056D00000F0E8FE3C4C81462068B0F9228000F0E2
:1056E0001DFF216807468A8CD01B888441E000BFDB
:1056F00047F6FF71304603F095FC8246014630467E
:1057000003F066FC2168054691F82C0000F00300C8
:10571000012841D002283BD000204A8C101A48842E
:10572000ADF800006A1E1044ADF80400888CADF896
:105730000200A9F101010844ADF806006A4651468D
:10574000304603F0C3F82168BDF802008884514652
:10575000304602F08DFD064430780A281ED00D2810
:105760001CD0BDF80000216828444884307818B166
:10577000761C30780028BBD12068818C3944818424
:10578000818D21F00301818502F084FEBDE8FC8754
:1057900005EBD5704010C0E72846BEE7206890F8BA
:1057A0002C1001F0030101290BD0022909D0018C32
:1057B000418431780A29D9D1828C02EB0901818494
:1057C000D4E7A0F82280F4E74C02002070B514461C
:1057D0000D46064601F0F4F90548006845848484C6
:1057E0003046FFF76FFFBDE8704002F053BE000087
:1057F0004C0200202DE9F04107460A4815460E46A6
:105800000068B0F92C0040F0020002F023F80446D2
:105810002A4631463846FFF7D9FF2046BDE8F04119
:1058200002F018B84C02002047F6FF73AFF3008077
:105830002DE9FC411F4690460D4606004FF000043E
:105840001AD001F0BDF965B128460DF0B9FC04008D
:1058500007D002462946684603F058FC68460DF01A
:10586000AFFC3B4642462946304603F087F82046C7
:105870000DF0A6FC02F00EFEBDE8FC812DE9FF4F05
:1058800087B09046894607007ED001F099F9D9F893
:105890000040D9F8045021B228B2401A401C0290AE
:1058A00000F000FE064618F00C0F1ED038460A9A8B
:1058B000029902F0F9FD08F00C01042904D008292E
:1058C00002D00C2911D104E0291400FB1610401C51
:1058D00009E02114C1EB254200FB1620401C00EB1F
:1058E000D07001EB600060F31F4448460DF068FC87
:1058F0005FEA000B09D00246494604A8CDE90445F9
:1059000003F004FC04A80DF05BFCA6F1010A384684
:105910000A9A029903F058FD03900AEB244060F3C1
:105920001F45CDE900453846039903F051FB18F0B7
:1059300003010FD001292DD002290FD1B9F904207C
:10594000B9F90010521A101A401C00EBD07001EB8C
:10595000600001E0B9F80000ADF800006A46384682
:10596000039902F0B3FF38460A9A029903F022FD28
:10597000074406EB244060F31F4438780028C6D162
:1059800058460DF01DFC00E001E002F083FD0BB075
:10599000BDE8F08FB9F80410081A401CDCE70000DD
:1059A0007CB514460D46064601F00AF91148006818
:1059B000C16C006D0D4404443188681E0844ADF884
:1059C0000400ADF800507188601E0844ADF8060070
:1059D000ADF8024068460DF0C9FD06E022462946B2
:1059E0003046FEF74DFA0DF07BFD0028F6D102F0AF
:1059F00051FD7CBD4C0200201CB50A46014668469C
:105A000003F088FC01F0DCF82548BDF800100068C0
:105A100030F84C2F1144ADF80010BDF80210828808
:105A20001144ADF80210BDF8041002881144ADF81D
:105A30000410BDF8061080880844ADF806006846DA
:105A40000DF094FD27E000BFBDF900400BE000BF62
:105A5000BDF90210204604F017FABDF906102046E1
:105A600004F012FAA41CBDF90400A042F0DABDF95A
:105A700002400AE0BDF90000214604F005FABDF934
:105A80000400214604F000FAA41CBDF90600A0425F
:105A9000F0DA0DF025FD0028D6D102F0FBFC1CBD8C
:105AA0004C0200202DE9F04F87B09B46DDE91098AD
:105AB00092460C46054601F083F816480168C86C0A
:105AC000096D47190E1900EB0A0501EB0B04ADF83F
:105AD0001070ADF81450ADF81260ADF8164004A87F
