:020000040800F2
:1000000048220120C101000805B40008D190000871
:1000100019B30008D9260008190B010800000000D8
:1000200000000000000000000000000005050108BD
:100030005F39000800000000950A0008C5CB0008E1
:10004000FB010008FB010008FB010008FB010008A0
:10005000FB010008FB010008FB010008FB01000890
:10006000FB010008FB010008FB010008FB01000880
:10007000FB010008FB010008FB010008FB01000870
:10008000FB010008FB010008FB010008FB01000860
:10009000FB010008FB010008FB010008FB01000850
:1000A000FB010008FB010008FB010008FB01000840
:1000B000FB010008FB010008FB010008FB01000830
:1000C000FB010008FB010008FB010008FB01000820
:1000D000FB010008FB010008FB01000845090108BD
:1000E000FB010008FB010008FB010008FB01000800
:1000F000FB010008FB010008FB010008FB010008F0
:10010000FB010008D5F20008FB010008FB01000814
:10011000FB010008FB010008FB010008FB010008CF
:10012000FB010008FB010008FB010008752E000818
:10013000FB010008FB010008FB010008FB010008AF
:10014000FB010008FB010008FB010008FB0100089F
:10015000FB010008FB010008FB010008FB0100088F
:10016000FB010008FB010008FB010008FB0100087F
:10017000FB010008FB010008FB010008FB0100086F
:10018000FB010008FB010008FB010008FB0100085F
:10019000FB010008FB010008FB010008FB0100084F
:1001A000B1B00008FB010008692E0008DFF80CD090
:1001B00000F084FB00480047A90002084822012003
:1001C000DFF83800016841F470010160BFF34F8F20
:1001D000DFF82C00016821F040410160BFF36F8F10
:1001E0000848804708480047FEE7FEE7FEE7FEE7CD
:1001F000FEE7FEE7FEE7FEE7FEE7FEE788ED00E04C
:1002000034EF00E0ED050108AD01000872B670475B
:1002100062B67047EFF3108072B6704780F31088B3
:10022000704730BF704720BF7047B0FA80F070470A
:1002300090FAA0F0B0FA80F0704790FAA0F0704702
:100240002DE9F05F0546002092469B46884606460B
:10025000814640241BE0284641464746224600F09E
:100260007EFA53465A46C01A914110D31146184699
:10027000224600F065FA2D1A67EB01084F46224628
:100280000120002100F05CFA17EB00094E41201E0E
:10029000A4F10104DFDC484631462A464346BDE866
:1002A000F09F10B5441A0346944209D284181144B1
:1002B00003E011F8013D04F8013D521EF9D210BDD2
:1002C00040EA0104A40703D009E010C9121F10C3BB
:1002D000042AFAD203E011F8014B03F8014B521E35
:1002E000F9D210BDD2B201E000F8012B491EFBD2B9
:1002F00070470022F6E710B513460A460446194631
:10030000FFF7F0FF204610BD421C10F8011B00292A
:10031000FBD1801A704710B5002200E0521C835CAC
:100320008C5CA34201D1002BF8D1D8B2E1B2401AC3
:1003300010BD30B504460020034600E05B1C93422C
:1003400003D2E05CCD5C401BF8D030BD034611F811
:10035000012B00F8012B002AF9D1184670472DE92E
:10036000FE4F804681EA0300C00F0C46009021F04A
:10037000004123F00045B8EB0200A94105D24046F8
:10038000214690461C460B46024623F0004010438F
:1003900047D0270DC7F30A00C3F30A510290401A51
:1003A000019040286BDAC3F3130040F4801B0098DF
:1003B000924620B10023D2EB030A63EB0B0B0198AA
:1003C0005946C0F14002504600F0BAF906460D46C3
:1003D00050465946019A00F0D2F910EB08006141ED
:1003E000002487EA115284EAE7731A4340D0009A46
:1003F00062B3019A012A4FEA075215DC001B61EB38
:1004000002014FF0004202EA0752CDE90042001C0F
:1004100041F5801132462B4600F0D2F903B0BDE819
:10042000F08F40462146F9E7001B61EB0201001CFA
:1004300041F5801300185B412018A2F5001747EB27
:10044000030140EAD570B6196D4111E06D084FEA1D
:10045000360645EAC0754FEA0752001B61EB020100
:10046000001C41F5801149084FEA30000019514144
:1004700032462B4603B0BDE8F04F00F092B9009829
:10048000012240000023D0EB020263EBE0730098EE
:1004900021464FEAE074B8EB000061EB0401E9E7A4
:1004A00083F000435BE781F0004158E72DE9FE4F00
:1004B00081EA030404F0004421F0004100944FF06D
:1004C000000B23F0004350EA01045ED052EA03041B
:1004D0005BD0C3F30A54C1F30A552C44A4F2F3349D
:1004E0000194A0FB0254C1F3130141F48011C3F342
:1004F000130343F4801301FB024400FB034E840A00
:10050000970A44EA815447EA8357A4FB0768029597
:100510008D0A05FB07854FEA932C04FB0C54270535
:10052000029D4FEA065847EA1637B5EB08056EEB11
:10053000070C870E920E47EA811742EA8312A7FB47
:100540000201B6EB0B0164EB00042B0D43EA0C3304
:100550005E1844EB1C50DA465146E7FB0201C5F336
:1005600013044FEA0B3343EA14534FEA0432019C5D
:1005700043EA0603A4F10C040294009CCDE900B404
:1005800000F01EF903B0BDE8F08F00200146F9E746
:100590002DE9F04D81EA030404F0004B21F0004501
:1005A00014464FF0000A23F0004150EA050220D023
:1005B00054EA01021DD0C5F30A570246C5F31303DE
:1005C000C1F31300C1F30A5640F4801543F48013BD
:1005D000A7EB0608101BD64608F2FD3873EB0500A2
:1005E00002D308F1010801E092185B41B8F1000F55
:1005F00003DA00200146BDE8F08D00204FF48011A1
:10060000064684460EE0171B73EB050705D3121B45
:1006100063EB050306434CEA010C49084FEA30003E
:1006200092185B4150EA0107EDD152EA030012D063
:1006300082EA040083EA0501084305D0101BAB41A0
:1006400006D20122002306E000224FF0004302E020
:100650006FF0010253101AEB06004CEB085110EB3F
:100660000A0041EB0B01BDE8F04D00F09AB80EB561
:10067000C10F80EAE0700844CA07002140F233430A
:100680008DE80E000A460B4600F09AF803B000BD54
:100690000EB540F2334102910021CDE900110A4626
:1006A0000B4600F08DF803B000BD70B5C1F30A52DF
:1006B00001F000450024C1F3130140F2FF3341F47F
:1006C00080119A4201DA002070BD40F233439A4211
:1006D000A2F2334203DC524200F041F800E09040C5
:1006E0002C43F1D0404270BDC1F30A5210B5C1F3A2
:1006F000130140F2FF3341F480119A4201DA0020E5
:1007000010BD40F233439A42A2F2334203DC52421C
:1007100000F025F810BD904010BD00F0004230F010
:1007200000400AD0C10D01F56071C0F3160042EA25
:100730000151C2084007114370470020014670472D
:10074000202A04DB203A00FA02F100207047914091
:10075000C2F1200320FA03F3194390407047202A86
:1007600004DB203A21FA02F00021704721FA02F35B
:10077000D040C2F120029140084319467047202A18
:1007800006DBCB17203A41FA02F043EAE07306E0B9
:1007900041FA02F3D040C2F12002914008431946C9
:1007A000704710B5141E73F1000408DA401C41F1C3
:1007B000000192185B411A4301D120F0010010BDE5
:1007C0002DE9F04D92469B4611B1B1FA81F202E05B
:1007D000B0FA80F220329046FFF7B2FF04460F468F
:1007E00040EA0A0041EA0B0153465A46084313D037
:1007F000114653EA010019D0C8F140025046FFF7F4
:10080000AEFF05460E46504659464246FFF798FF52
:10081000084305D0012004E020463946BDE8F08DAC
:100820000020054346EAE0762C4337430A986305E7
:10083000E40AA0EB08000022FD0A44EA47540A300B
:1008400002D500200146E9E7010510196941DDE9FB
:10085000084500196941BDE8F04DA2E770B521F0E7
:10086000004303430CD0C1F30A550024D5EB040523
:1008700064EB0403D617AD1AB34102DB0020014636
:1008800070BD201841EB025170BD000030B5041E50
:1008900071F1000404DB4FF00044404264EB0101BD
:1008A000141E73F1000405DB1C464FF00043524256
:1008B00063EB0403994208BF904230BD064C074DDC
:1008C00006E0E06840F0010394E807009847103420
:1008D000AC42F6D3FFF76EFC5C2105087C210508CD
:1008E0002DE9F04D00231A461B1A8A4103DB002034
:1008F0000146BDE8F08DC1F30A52C1F3130141F482
:1009000080154FF0000BD10702D100186D41521E27
:100910000027044640F2FF11384601EB620A3E46CA
:100920008046024600204FF48011FFF718FFC219DD
:100930007141BB1846EB0100B4EB030C75EB000CE6
:1009400004D3E41A65EB000517460E46241908F196
:1009500001006D4180463428E3DDF91946EB0600BD
:10096000091BA84103D24FF0FF32134601E00022D9
:1009700013461BEB070046EB0A51BDE8F04DFFF7AD
:1009800010BF70B58C1810F8015B15F0070301D18A
:1009900010F8013B2A1106D110F8012B03E010F8E2
:1009A000016B01F8016B5B1EF9D12B0705D4002305
:1009B000521E0DD401F8013BFAE710F8013BCB1AA7
:1009C000921C03E013F8015B01F8015B521EF9D59C
:1009D000A142D8D3002070BDEFF3098141B1F1EEFF
:1009E000101A40F8041D20ED200A3E490A681060E4
:1009F0007047B0EC200A02C8E1EE101A3A490A68C2
:100A00001060704772B64EF62250CEF2000040F2EF
:100A1000FF01C0F2000101704FF0000080F309886F
:100A20000BF078FF40F26410C2F20000016881F31D
:100A3000088840F2DE00C2F2000040F2DF01C2F29C
:100A400000010A78027040F25C15C2F2000540F223
:100A50006011C2F200010A682A60106880F30988F8
:100A6000EFF3148040F0020080F31488BFF36F8F1F
:100A7000BDE8F00F0FBCBDE8005006BC62B60847E9
:100A80001A484FF080510160704718484FF080516C
:100A90000160704772B6EFF3098020E9F00F40F271
:100AA0005C15C2F200052E68306074460BF032FF10
:100AB00040F2DE00C2F2000040F2DF01C2F20001AB
:100AC0000A78027040F26011C2F200010A682A60DE
:100AD00044F0F40E1068B0E8F00F80F3098862B6B5
:100AE000704700005C0100206001002004ED00E080
:100AF000002904D0816841F001018160704781685C
:100B000021F0010181607047084A1168084B1940C3
:100B1000D0F804C0036843EA0C03D0F808C0C068EA
:100B20004CEA00001843084310607047042301405A
:100B3000E030FCFF002904D0816841F480718160BD
:100B40007047816821F4807181607047002904D06A
:100B5000816841F4007181607047816821F40071FF
:100B60008160704710B4426822F4807222F04072B3
:100B700091F804C00B6842EA0C221A434260826872
:100B80000D4B1A40D1F80CC00B694C7943EA0C03A9
:100B9000D1F808C04CEA440C43EA0C031A438260C3
:100BA000C26A22F47002097D491EC9B242EA0151AB
:100BB000C16210BC70470000FDF7FFC030B40725CC
:100BC00009290CD9C468A1F10A0C0CEB4C0C05FAEC
:100BD0000CF5AC4303FA0CF32343C36009E004694A
:100BE00001EB410C05FA0CF5AC4303FA0CF323437B
:100BF00003614FF01F0C072A0CD2436B521E02EB0D
:100C000082020CFA02FC23EA0C039140194341636F
:100C100030BC70470D2A0CD2036BD21F02EB82024C
:100C20000CFA02FC23EA0C0391401943016330BC27
:100C30007047C36A0D3A02EB82020CFA02FC23EA07
:100C40000C0391401943C16230BC7047816841F088
:100C500080418160704700210160017141718160B4
:100C6000C1600161012101757047002800DC40422C
:100C70007047000082B00DF081FE064C206880F4C1
:100C80000050206001AA00214FF4FA600BF080FEB2
:100C9000F4E700001408024086B021A0006802902A
:100CA000204E9DF80870002505AC03A904A802F0A9
:100CB0006EF800282AD1BDF810004CF6CD4148430B
:100CC000C00C0490BDF80C004843C00C039039469A
:100CD00030460FF022FFBDF8101030460FF02AFF0B
:100CE0009DF8091030460FF018FFBDF80C10304683
:100CF0000FF020FF9DF80A1030460FF00EFFBDF8F0
:100D00001020BDF80C1008A002F076FE00230A2285
:100D100019461846009501940BF07CFEC5E70000CB
:100D200054480D000010014068756D203D20256479
:100D30000A74656D3D2025640A0000002DED048BCA
:100D400084B00024DFF8AC80DFED2B8A9FED2B9A76
:100D50002B4D002603AFB8F8020000EE100AB8EEE3
:100D6000400A20EE280A20EE098A18EE100AFFF742
:100D7000D4FC41EC100B23A053EC102B02F03CFEF2
:100D800018EE100AA84225DB002C23D103A929481C
:100D90000BF0B4FD03A928480BF0B0FD03A92748C8
:100DA0000BF0ACFD26A01BF0D5FF00230A2219464C
:100DB0001846019700960BF02DFE03A91D480BF075
:100DC0009BFB03A91C480BF097FB03A91B480BF0E6
:100DD00095FD012418EE100AA84202DA012C00D178
:100DE00000240023022219461846019700960BF0B2
:100DF00011FEB0E73C00002000008039333353403F
:100E0000CDCC2C400D0A2054686520637572726544
:100E10006E74204C696768745F4144435F566F6C21
:100E20002076616C7565203D2025662056200D0AD0
:100E300000000000D4190020141C0020941A002087
:100E40004054657874546F53706565636823CCECC7
:100E5000D4F5C3B4CDBBC8BBBADAC1CB2400000003
:100E60002DED048B84B00024224EDFED238A9FED0C
:100E7000239A234FDFF88C8003AD308800EE100AF0
:100E8000B8EE400A20EE280A20EE098A18EE100A71
:100E9000FFF743FC41EC100B1BA053EC102B02F0AE
:100EA000ABFD18EE100AB8421BDC98F800000028D1
:100EB00017D103A91D480BF021FD002211461CA0EB
:100EC0001BF048F81EA01BF045FF00230322194623
:100ED0001846019500940BF09DFD03A913480BF0F3
:100EE0000BFB00231A4605211846019500940BF0D0
:100EF00091FDC2E73C00002000008039CDCC544178
:100F000000002041790000200D0A2054686520630C
:100F1000757272656E742041442076616C7565202F
:100F20003D2025662056200D0A000000D41900201F
:100F3000303A6D65696469616E2E6A706700000001
:100F40004054657874546F53706565636823BFECD3
:100F5000C3BBB5E7C1CBA3ACD2AAB8F8CED2B3E439
:100F6000B5E7BFA9A3A1240084B0DD4EDD4F0DF08D
:100F700065FDA6FB00214908A1EB81010144CCB22B
:100F8000A7FB0021C9086FF00A0201FB0200C5B2ED
:100F90002946D5A002F030FD0B2DE8D2DFE805F0A0
:100FA00006152433608DBAE7FEFDFC0000221146D1
:100FB000D1A01AF0CFFF002103A801900B461922FF
:100FC000009108460BF026FDD1E700221146CDA086
:100FD0001AF0C0FF002103A801900B4619220091CE
:100FE00008460BF017FDC2E700221146C8A01AF010
:100FF000B1FF002103A801900B4619220091084679
:101000000BF008FDB3E7002006F082F904F0ECF8DD
:1010100003AA002132200BF0BBFC05230122022190
:10102000BEA01AF001FF24B900221146B2A01AF0A6
:1010300091FF012C0ED000221146B5A01AF08AFFB4
:10104000002103A801900B461922009108460BF0DD
:10105000E1FC8CE700221146AAA01AF07BFFEFE723
:10106000002006F055F904F0BFF803AA0021322051
:101070000BF08EFC052301220221ACA01AF0D4FE55
:1010800024B9002211469CA01AF064FF012C0ED056
:10109000002211469EA01AF05DFF002103A80190D6
:1010A0000B461922009108460BF0B4FC5FE70022C2
:1010B000114694A01AF04EFFEFE7002006F028F941
:1010C00004F092F803AA002132200BF061FC052302
:1010D0000122022199A01AF0A7FE24B9002211468C
:1010E00085A01AF037FF012C0ED00022114688A0EF
:1010F0001AF030FF002103A801900B46192200913D
:1011000008460BF087FC32E7002211467DA01AF05A
:1011100021FFEFE7002006F0FBF804F065F803AAD2
:10112000002132200BF034FC05230122022187A08C
:101130001AF07AFE24B9002211466FA01AF00AFFB5
:10114000012C0ED00022114671A01AF003FF0021DD
:1011500003A801900B461922009108460BF05AFC97
:1011600005E70022114667A01AF0F4FEEFE7002021
:1011700006F0CEF804F038F803AA002132200BF074
:1011800007FC05230122022174A01AF04DFE44B988
:101190000022114658A002E074E046E018E01AF080
:1011A000D9FE012C0ED00022114659A01AF0D2FE11
:1011B000002103A801900B461922009108460BF06C
:1011C00029FCD4E6002211464EA01AF0C3FEEFE738
:1011D000002006F09DF804F007F803AA0021322051
:1011E0000BF0D6FB05230122022160A01AF01CFEA1
:1011F00024B90022114640A01AF0ACFE012C0ED0FA
:101200000022114642A01AF0A5FE002103A8019079
:101210000B461922009108460BF0FCFBA7E60022C2
:10122000114638A01AF096FEEFE7002006F070F89D
:1012300003F0DAFF03AA002132200BF0A9FB0523FB
:10124000012202214DA01AF0EFFD24B9002211461F
:1012500029A01AF07FFE012C0ED0002211462CA0EE
:101260001AF078FE002103A801900B461922009184
:1012700008460BF0CFFB7AE60022114621A01AF0B7
:1012800069FEEFE7002006F043F803F0ADFF03AA84
:10129000002132200BF07CFB0523012202213BA020
:1012A0001AF0C2FD24B90022114613A01AF052FE12
:1012B000012C0ED00022114615A01AF04BFE002181
:1012C00003A801900B461922009108460BF0A2FBDF
:1012D0004DE6002211460BA01AF03CFEEFE700009D
:1012E000ABAAAAAAA38B2EBA52616E644461746140
:1012F000203D2025640A0000303A70632E6A706732
:1013000000000000303A7063322E6A7067000000FF
:10131000303A7063332E6A7067000000303A7869A3
:10132000616F6A69332E676966000000303A786938
:10133000616F6A69342E676966000000303A786927
:10134000616F6A69352E676966000000303A786916
:10135000616F6A69362E676966000000303A786905
:10136000616F6A69372E676966000000303A7869F4
:10137000616F6A69382E676966000000303A7869E3
:10138000616F6A69392E676966000000303A7869D2
:10139000616F6A6931302E67696600002DE9F04F90
:1013A0008BB00024022701F098F900F05DFE00F0F8
:1013B000D3FE09F0B7FF012294A195481EF024F84E
:1013C000944988700AA80AF009FE0022114692A0EA
:1013D0001AF0C0FD6FF07F4005F09AFF002005F085
:1013E000A2FF904805F0B6FFDC2200218EA004F099
:1013F00045F9DC22AF2191A004F040F93B46DC2204
:101400009621204604F0A4F8F12200218CA004F0DB
:1014100035F94FF4FA601DF0BEF90025082606EBF9
:10142000C501F12296A004F029F93B46DC22962161
:10143000204604F08DF8A01CC4B2642C01D36424AF
:10144000032764201DF0A7F9681CC5B23A2DE6D326
:101450004FF4FA601DF09FF9FEF7DCFE0990894A0F
:101460000AAD4FF0040A462387A1A2F12000CDF86F
:1014700000A001950AF04AF9002405274FF42F78BF
:101480004FF046098448069403260594CDF8089049
:10149000CDF80C80019004972346804A80A10097E4
:1014A00007960895A0F50C600AF0FAFD80200895D3
:1014B000039005944FF00C0B7D4906940920CDF85C
:1014C00008B001910090049707960023794A7AA109
:1014D0007D480AF0E5FD7D480694019005940620BC
:1014E000CDF80890CDF80C800090049707960895E9
:1014F0000023774A77A17B480AF0D2FD4FF496701B
:101500000895039005941E21774A079606940720B4
:1015100001920291009004970023744A74A17848C4
:101520000AF0BEFD77480694019005944FF40078C8
:101530004FF033090A20CDF80890CDF80C800090C8
:1015400004970796089500236F4A70A173480AF024
:10155000A7FD73480694019005940B20CDF80890E0
:10156000CDF80C80009004970796089500236D4AEB
:101570006DA171480AF094FD704806940594079691
:10158000CDF80C80019000236D4A6EA1CDF8089033
:1015900004970096089570480AF082FD6F480694FB
:1015A0000594CDF80890CDF80C80019000236C4A8A
:1015B0006CA1CDF800A00497079608956D480AF035
:1015C0006FFD6D4806940594CDF80890CDF80C8019
:1015D00001900023694A6AA1CDF800B004970796EC
:1015E00008956B480AF05CFD0AA95B480BF086F988
:1015F0000AA967480BF082F90AA966480AF012FEA8
:101600000998FEF70BFE0BB0BDE8F08F303A0000F2
:10161000AC07002079000020303A6B61696A692EBE
:101620006A706700ECDA040853797374656D2053AF
:1016300074617274696E672E2E2E00002500000002
:101640005B2E2E2E2E2E2E2E2E2E2E2E2E2E2E2E8D
:101650002E2E2E2E2E2E2E2E2E2E2E2E2E2E2E2EAA
:101660002E2E2E2E2E2E2E2E2E2E2E2E2E2E2E2E9A
:101670002E2E2E2E2E2E2E2E2E2E2E5D0000000013
:101680003D000000FC1700204D656D20466F722064
:10169000546573740000000094220020690F000854
:1016A000417070205461736B2053686F7742510012
:1016B000843D0020750C0008417070205461736BEC
:1016C000204C656431000000541B0020843F002042
:1016D000B9190008417070205461736B2074616CFB
:1016E0006B000000141C0020744A0020990C0008B4
:1016F000417070205461736B204C656433000000AE
:10170000D41C0020842D0020610E00084170702040
:101710005461736B20506F7765720000941A00203B
:10172000843500203D0D0008417070205461736BBA
:10173000204C696768740000141F0020244F0020AB
:10174000BD180008417070205461736B20546F7590
:1017500063685363616E0000941D002024570020CD
:1017600099170008417070205461736B20546F7595
:1017700063680000541E0020245F00208D190008BB
:10178000417070205461736B2057696E646F7700ED
:10179000D41F00201419002084B000240125DFF894
:1017A000B480DFF8B490002603AF98F80100002859
:1017B00045D0D9F8041000208847012804D127A07B
:1017C00002F01AF9601CC4B2082C05D3012D03D114
:1017D00024A01BF0BFFA0025102C26D3002D24D105
:1017E00028A01BF0B7FA03A92E480BF087F803A92D
:1017F0002D480BF083F8002005F08AFD03F0F4FC7F
:1018000003AA002132200BF0C3F803230222012196
:1018100026A01AF009FB0024012503A921480AF09B
:101820006BFE03A920480AF067FE00224FF4F07314
:1018300011461046019700960BF0ECF8B5E706F05C
:101840001FFA00220A2311461046019700960BF05A
:10185000E1F8AAE77900002044000020746F756366
:10186000680A00004054657874546F53706565636E
:101870006823BAC3D1F7B0A12CB1F0C3FECED2C158
:10188000CB2400004054657874546F5370656563D1
:101890006823D4D9C0B4A3ACCED2D2AAD2A7C4E311
:1018A000C1CB2400D4190020141C0020303A7961E7
:1018B0006F72656E2E6769660000000088B0DFF801
:1018C000C0904FF0010A02AF4FF6FF784FF0000BC7
:1018D000D9F8041000208847002499F820000AFA5B
:1018E00004F108423BD009EB4405A889B0F5F07F2C
:1018F00037D2E98AB1F5887F33D237F824204245C0
:1019000004D127F8240007EB840041804FF47F00C6
:1019100005F009FD07EB8406EB8AAA89718837F880
:10192000240003F0FDFFA88927F82400E98A7180CC
:10193000B0F5E47F15D9282913D2002005F0E8FC82
:1019400003F052FC0F4805F005FDFF2005F0EBFC0D
:101950000A224FF4E4710CA003F0A4FE01E027F882
:10196000248007A80022019005231146CDF800B07D
:1019700010460BF04FF8601CC4B2052CADD3A7E79E
:1019800044000020A4ED04085253540084B0002504
:1019900003AC07A002F030F809F0ACFC00224FF4D1
:1019A000E17311461046009501940BF033F8F0E70F
:1019B00068656C6C6F0A000086B000250024DFF8B3
:1019C00004940DF114080026002302AA19461846B3
:1019D000CDF800800AF0C4FC0746FBA0398802F06D
:1019E0000BF8012089F8000038881C2880F0288333
:1019F000DFE800F0F10E1CF121F12CF1F16DF1F1B5
:101A0000C1F1F1AFF1F1F1F1F2F1EFEEEDECEBEA52
:101A1000F2A001F0F1FF05AA00214FF4FA600AF0EC
:101A2000B7FFF0A01BF096F900F00ABBEBA001F0A5
:101A3000E3FF00F005BBF3A001F0DEFF05AA0021E3
:101A40004FF47A700AF0A4FF00F0FABAEFA001F0A8
:101A5000D3FF03A904A801F09AF940B1EDA01BF04F
:101A600079F905A9F5480AF047FD00F0E9BABDF893
:101A700010004CF6CD414843C00C0490BDF80C005A
:101A80004843C00C039005A9EC480AF037FFBDF8A5
:101A900010101C2908D3EAA01BF05CF900221146A3
:101AA000F4A01AF057FADCE700221146F4A01AF06D
:101AB00051FABDF80C20BDF81010F4A01BF04AF943
:101AC00005AA002144F620600AF062FFC9E7FDA0E4
:101AD00001F092FF05A9D9480AF010FF002005F097
:101AE00017FC03F081FB0022322311461046CDF88B
:101AF000048000960AF08EFFF4481BF02BF90323B4
:101B000002220121F2A01AF08FF9032302220121FF
:101B1000F2A01AF089F9032302220121F2A01AF09F
:101B200083F9032302220121F2A01AF07DF9032395
:101B300002220121F2A01AF077F9032302220121E7
:101B4000F2A01AF071F905A9BC480AF0D5FC00F022
:101B500077BAF1A001F050FF05A9B8480AF0CEFE0F
:101B600000221146EEA01AF0F5F905A9B3480AF0D3
:101B7000C3FC00F065BAEDA001F03EFF05A9AF4837
:101B80000AF0BCFE00221146EAA01AF0E3F914B9EB
:101B9000EC481BF0DFF8012C02D1EB481BF0DAF81F
:101BA0000023192219461846CDF8048000960AF041
:101BB00031FF601CC4B2022C00D3002405A99F4849
:101BC0000AF09AFC00F03CBA34E2DAE0B9E095E0C1
:101BD00063E018E000E0B3E0DCA001F00DFF05A930
:101BE00096480AF08BFE002005F092FB03F0FCFA09
:101BF00000221146CAA01AF0ADF905A98F480AF0D3
:101C00007BFC00F01DBAD3A001F0F6FE012505A96A
:101C10008A480AF073FE0022642311461046CDF86C
:101C2000048000960AF0F6FE05A9CC480AF066FE8C
:101C30000022642311461046CDF8048000960AF075
:101C4000E9FE05A9C6480AF057FC002264231146A4
:101C50001046CDF8048000960AF0DCFE002005F066
:101C600057FB03F0C1FABF4805F074FBFF2005F0F5
:101C70005AFB0A224FF4E471BBA003F013FD0022CB
:101C8000642311461046CDF8048000960AF0C2FE87
:101C9000B6A01BF05FF800F0D3B9BFA001F0ACFE16
:101CA000012D4DD105A965480AF026FC00226423C8
:101CB00011461046CDF8048000960AF0ABFE05A947
:101CC000A7480AF01BFE0022642311461046CDF8F7
:101CD000048000960AF09EFE05A9A0480AF00CFCBC
:101CE0000022642311461046CDF8048000960AF0C5
:101CF00091FEACA01BF02EF80025A1E1B0A001F0F0
:101D00007BFE012D1CD1002005F002FB03F06CFAD4
:101D1000944805F01FFBFF2005F005FB0A224FF455
:101D2000E47191A003F0BEFC00223223114610465C
:101D3000CDF8048000960AF06DFEA3A01BF00AF80F
:101D40007EE1ABA001F058FE4FF0010ADFF8A8B227
:101D5000442158460EF0E1FE514658460EF0EAFE88
:101D60000D2158460EF0D9FE0022322311461046AE
:101D7000CDF8048000960AF04DFEA0A01AF0EAFF0C
:101D80005EE1A4A001F038FE4FF0020ADFF868B26D
:101D9000442158460EF0C1FE514658460EF0CAFE88
:101DA0000D2158460EF0B9FE00223223114610468E
:101DB000CDF8048000960AF02DFE98A01AF0CAFF14
:101DC0003EE1000079000020526563656976654454
:101DD000617461203D2025640A000000C4E3BAC399
:101DE0000A0000004054657874546F537065656351
:101DF0006823D3D0CAB2C3B4CED2C4DCB0EFC4E33C
:101E0000B5C42400D0D4B1F00A000000CEC2B6C8D8
:101E10000A0000004054657874546F537065656320
:101E20006823B0A1D1BDCED2B5C4CEC2B6C8B4ABC2
:101E3000B8D0C6F7BBB5C1CB24000000D419002030
:101E40004054657874546F53706565636823D5E2B8
:101E5000D5E6B5C4CCABC8C8C1CBA3A1CEC2B6C869
:101E6000B6BCB5BD5B6E325D256444B6C8C1CB243B
:101E700000000000303A6B752E6A706700000000A9
:101E8000303A7869616F2E6A706700004054657857
:101E900074546F53706565636823CFD6D4DAB5C4C4
:101EA000CEC2B6C8CAC75B6E325D2564A3ACCAAAEF
:101EB000B6C8CAC7B0D9B7D6D6AE5B6E325D256498
:101EC00024000000CCFDB8E80A000000E02005086E
:101ED000303A67312E67696600000000303A673299
:101EE0002E67696600000000303A67332E67696626
:101EF00000000000303A67342E6769660000000079
:101F0000303A67352E67696600000000303A673660
:101F10002E67696600000000C9FAC6F80A000000D2
:101F2000303A666168756F2E6A706700D0A6BBB0E4
:101F30000A000000303A68616E7869616F2E6A703D
:101F4000670000003C200508B41F0508B1BFB5B00C
:101F50000A000000BBADBBAD0A000000541E00200B
:101F6000941D0020A4ED0408525354004054657899
:101F700074546F53706565636823BFAACABCBBAD58
:101F8000B0C9A3ACC7EBCBB5CDCBB3F6BBADBBAD46
:101F9000CDCBB3F624000000CDCBB3F6BBADBBADCB
:101FA0000A0000004054657874546F53706565638F
:101FB0006823C4E3BBADB5C4D5E6C4D1BFB4240027
:101FC000C7E5C6C10A0000004054657874546F53D9
:101FD000706565636823BAC3C1CBC4E3BFC9D2D4FB
:101FE000D6D8D0C2BFAACABCBBADC1CB24000000AA
:101FF000BFAAB5C60A000000001001404054657831
:1020000074546F53706565636823D2D1BFAAB5C697
:1020100024000000B9D8B5C60A0000004054657815
:1020200074546F53706565636823D2D1B9D8B5C64F
:102030002400000089F8016005A905480AF05CFA4F
:1020400089F8006005AA3946024809F0DEFBBBE4C6
:10205000D41F0020DC17002000B585B068460CF0C6
:102060003BFA019805B000BD10B5012108030CF042
:10207000DFF94FF4A06009F00FFA01F071FC00F0F5
:1020800079F800F0CBF80CF0DFFA1A4801F0B4FC54
:10209000194801F0B1FC194801F0AEFC164801F0F6
:1020A000ABFC144801F0A8FC08F09AF90DF032FBE3
:1020B00013A001F0A1FC07F08CFC0EF0C9FA04F0AB
:1020C0001DF912A001F098FC0CF060FD14A001F0C5
:1020D00093FC00F0ABFE40B116A001F08DFC0CF0BB
:1020E000D9FABDE810400CF005BB18A001F084FC43
:1020F000F5E70000701F0508E81E05082C1F0508FD
:10210000534452414D204F4B210A00004755495F2F
:10211000496E697420537563657373210A0000006A
:1021200041445F496E697420537563657373210A76
:102130000000000048617665206E6F742066696E4D
:10214000642044485432320A0000000044485432AB
:1021500032204F4B210A000010B5FFF77DFF0449E4
:102160000968B0FBF1F0BDE810400AF03DBD000089
:102170002007020870B586B0012102200CF058F942
:10218000012188040CF07EF9224E07220B213046F3
:1021900002F06DF907220A21304602F068F90024A6
:1021A0008DF8164001218DF8171002258DF8145076
:1021B000890204918DF8155004A9304602F00CF9FB
:1021C0008DF81450A802049004A9304602F004F9D6
:1021D0004FF4E1300090ADF80440ADF80640ADF8A2
:1021E0000840ADF80C400C20ADF80A000A4C6946D6
:1021F00020460EF021FC09F006F9012240F225519B
:1022000020460EF0FCFB012120460EF0C1FB06B07B
:1022100070BD0000000402400048004030B587B0A7
:10222000012140200CF004F9012120200CF038F9A4
:10223000174D08220E21284602F019F900248DF8C6
:10224000164001218DF8171002218DF814104A0351
:1022500004928DF8151004A9284602F0BDF84FF439
:10226000E1300090ADF80440ADF80640ADF808400C
:10227000ADF80C400820ADF80A00064C694620462F
:102280000EF0DAFB012120460EF082FB07B030BDD4
:10229000001802400014014038B545680446014664
:1022A00028460EF07EFC00282BD02068304A1128EA
:1022B0000DD006DC0B2825D00E2833D00F2852D1A4
:1022C00012E0282849D0B0F5107F4CD108E0926880
:1022D000002A16D02146284601B0BDE830401047FC
:1022E000214628465268F7E7284602F099FD0090FB
:1022F000406E0468684602F0FFFD002C01D02846BD
:10230000A04738BD284602F08BFD0090683002F0EF
:10231000DDFC009803216C3002F0E6FC684602F018
:10232000EBFD20E0E168486809680D2902D020290A
:1023300013D105E0002810DD284618F0ACF906E0BE
:10234000002804DD2846BDE8384018F0A4B9284626
:10235000BDE83840022118F0B4B9E06818B900218E
:10236000284600F083F92046BDE838400EF0CABF89
:1023700000030020F0B5044685B08069B4F9085028
:10238000668A0027CDE90265CDE900170490B4F90B
:102390000C00B4F91060C118B4F90A00B4F90E5079
:1023A000104433462A4600F007F80546616800F0FD
:1023B00066F905B02846F0BD2DE9F04F85B01F46FF
:1023C000DDE911B4DDE90E5690468946824604F0F7
:1023D000A7FA16484C34CDE90204CDE900563B4635
:1023E0004246494650460EF0D5FE040018D002F091
:1023F00017FD1022594604900EF01EFD049830225D
:102400000B493430FDF74DFF094D04990C3D286808
:10241000486604A802F070FD286841682046884795
:1024200005F02AFE05B02046BDE8F08F992200088D
:102430000C030020F0B5044680688B4989B051F840
:102440002050606800287DD0052804D006287AD066
:10245000122879D1AEE0E86900284FD095E80E0047
:102460008DE80F0004F110010FC906F0FDF90026F8
:1024700055F8260004F057FFA169E8690A1A216996
:1024800001446069304403F01FFAA169E8690A1A3F
:1024900021690144E069801B03F016FAE169E869EB
:1024A0000A1A616901442069304403F0C3FAE16902
:1024B000E8690A1A61690144A069801B03F0BAFA4D
:1024C000761C022ED4DBA86804F02DFFE069E969D0
:1024D0006669431A206942183144801C521E03F079
:1024E0000BFBE169E869A2690B1A61690144101AE2
:1024F000401C921E03F000FBEE6913E05FF0000643
:1025000055F8260004F00FFFE069831BA069821BC9
:10251000606981192069304403F04CFA761C022E60
:10252000EEDB0226D5E90301CDE900016169E0692E
:1025300008444310A069891C821B2069304403F0C1
:1025400087F902E089E012E08AE0D5E90501CDE9EA
:102550000001E36960690121184401EB6001A06991
:102560009B1E821B2069304403F072F978E02068DA
:1025700002F056FC0490206810F066FA40B1A068A2
:1025800008B1002008E00498006F28B1012003E0A2
:102590000498406F00B10220049901EB8000C56EE1
:1025A00004A802F0A9FC00231A462846216802F07C
:1025B00081FF55E0206802F033FC0490866EEEB394
:1025C000B0F95C70A168D1B3032942D05FF000017B
:1025D00000EB8101406D0C6C04F0BCFE204604F061
:1025E000A2FE05A803F0D8FDBDF81410A88B014485
:1025F000ADF81410BDF81810081AADF81800BDF8A1
:102600001600801CADF81600BDF81A00801EADF84B
:102610001A000498B0F96020B0F95E1005A804F023
:102620006BFD04A802F068FC022004F015FF3046A0
:1026300002F0F6FB3A4605A9079001E00BE006E040
:1026400003F04AF80DF11C0002F056FC08E00121ED
:10265000BEE70221BCE704A8F6E720680FF030FED1
:1026600009B00020F0BD0000A81505084FF48072E5
:102670000029114601D00EF029BB0EF079BA2DE9E0
:10268000FF410E4605004FF0010421D004F048F947
:10269000284602F0C5FB0190876E01A8009702F062
:1026A0002BFC3146684606F027FC78B100980024E0
:1026B000B84208D0284602F0B3FB01900099816629
:1026C00001A802F019FC28460FF070FB05F0D4FCBD
:1026D00004B02046BDE8F081FEE710B500F018F820
:1026E000BDE8104000F010B810B5FDF793FD0446AA
:1026F0001021044808F011FE2046BDE81040FDF707
:102700008DBD00006CC70020FFF7EEBFFEE70000A4
:1027100002490020086000F009B800009400002081
:1027200001490860704700009400002010B5FFF7D1
:1027300093FC08490A6842F080720A600649002248
:102740004A600A6842F001020A60BDE81040FFF7E3
:10275000E7BF0000FCED00E0001000E00148406829
:1027600070470000001000E002201CF019B80000C3
:1027700070B50B4D00242C600A48016821F0C0019F
:102780000160016841F04001016007480460FFF703
:10279000EBFF01202860FFF7E7FF2C6070BD000011
:1027A00098824342002002408C02444210B582B01D
:1027B000012180200BF03CFE012108020BF038FEC5
:1027C0004020009001248DF8044000208DF8060080
:1027D0008DF8074002208DF805006946074801F092
:1027E000FBFD082000906946054801F0F5FD05480D
:1027F00004600548C0F8984202B010BD001C0240B9
:10280000002002408C0244420080434270B50B4ECF
:10281000002434600A48016821F0C00101600168A9
:1028200041F040010160074801250560FFF79CFF6A
:102830003560FFF799FF346070BD00009882434215
:10284000002002408C0244422DE9F04782460024D9
:102850001748016821F0C0010160016801601E2075
:102860001BF09EFF0025134FDFF84C9000264FF021
:102870000108C7F89862FFF777FFC7F898826006EB
:10288000040ED9F80C0208B1601CC4B2FFF76CFF4B
:10289000681CC5B2082DECD3BAF1000F04D0FFF7C5
:1028A00067FF2046BDE8F087FFF7B0FFF9E70000BB
:1028B0000020024000804342000044422DE9F047DE
:1028C00005461348016821F0C0010160016841F02C
:1028D000400101600F4E4FF00008C6F898820024B6
:1028E000DFF834900127E809C9F88C026806050E64
:1028F000FFF73AFFC6F89872FFF736FFC6F89882DE
:10290000FFF732FF601CC4B2082CECD3BDE8F0879F
:1029100000200240008043420000444270B50B4852
:10292000016821F0C0010160016841F040010160CF
:10293000074D01202860074E30601E201BF030FF3D
:1029400000242C60FFF710FF346070BD00200240AF
:102950008C0244429882434270B50B48016821F0D2
:10296000C0010160016841F040010160074D002095
:102970002860074E30601E201BF012FF01242C60DF
:10298000FFF7F2FE346070BD00200240988243429F
:102990008C02444270B500241248016821F0C00145
:1029A000016001680160104D0120C5F88C020F4ED6
:1029B000C6F89802FFF7D8FED5F80C0268B1601C83
:1029C000C4B2FA2C03D9FFF7C7FF012070BDFFF78F
:1029D000CBFED5F80C020028F1D10020C6F89802F1
:1029E00070BD0000002002400000444200804342CD
:1029F00070B500254FF4803400E0641E24B18020BF
:102A00000CF042FC0028F8D02CB140F2FF500CF042
:102A1000F7FB284670BD032070BD000070B5054669
:102A200000244749086810F0450F03D1086810F0EA
:102A3000450FFBD010F0040F05D0032404200CF048
:102A4000DFFB204670BD10F0010F05D001240120EE
:102A50000CF0D6FB204670BD0CF010FCA84201D053
:102A6000102070BD40F2FF500CF0CAFB00200CF0AB
:102A700027FC3449084201D1204670BD10F0004FB8
:102A800001D01C2070BD10F0804F01D0092070BD16
:102A900010F0005F01D00A2070BD10F0805F01D0FF
:102AA0000B2070BD10F0006F01D00C2070BD10F035
:102AB000806F01D00D2070BD10F0807F01D00E20FE
:102AC00070BD10F4000F01D00F2070BD10F4800F06
:102AD00001D0102070BD10F4001F01D0112070BD76
:102AE00010F4801F01D0122070BD10F4002F01D00F
:102AF000132070BD10F4802F01D0142070BD10F48D
:102B0000003F01D0152070BD10F4803F01D0162089
:102B100070BD10F4004F01D0172070BD10F4804F2D
:102B200001D0182070BD10F4005F01D0192070BDD5
:102B300010F0080F01D01A2070BD204670BD0000B3
:102B4000342C014008E0FFFD10B50024104A116844
:102B500011F0450F03D1116811F0450FFBD011F0B2
:102B6000040F05D0032404200CF04AFB204610BDBE
:102B700011F0010F05D0012401200CF041FB20468B
:102B800010BD40F2FF500CF03BFB204610BD000092
:102B9000342C014010B500240B4A116811F0450F88
:102BA00003D1116811F0450FFBD011F0040F05D0CF
:102BB000032404200CF024FB204610BD40F2FF50FB
:102BC0000CF01EFB204610BD342C014070B50646AB
:102BD0000C4600251F4A106810F0450F03D11068FD
:102BE00010F0450FFBD010F0040F05D00324042093
:102BF0000CF006FB204670BD10F0010F05D001243B
:102C000001200CF0FDFA204670BD0CF037FBB042FD
:102C100001D0102070BD40F2FF500CF0F1FA0020FE
:102C20000CF04EFB10F4604F04D010F4005F05D0A0
:102C3000132070BD000C2080284670BD10F4804F1A
:102C400001D0102070BD10F4004F01D00F2070BDD6
:102C5000284670BD342C014010B500204FF480315F
:102C60000E4B1A6801E0491E1A6812F0450F01D197
:102C70000029F8D111B112F0040F05D0032404206B
:102C80000CF0BEFA204610BD12F0400FFBD000241D
:102C900040200CF0B5FA204610BD0000342C014055
:102CA00000B583B00EF060FC002100910346019155
:102CB000034A0821034802F0E3FA03B000BD000014
:102CC00099DC01084CB8040870B500241448016868
:102CD00021F00C01016001680160124D04E0601CEC
:102CE000C4B201201BF05CFDD5F8040208B1642CCD
:102CF000F5D3642C01D3012070BD002404E0601CD6
:102D0000C4B201201BF04CFDD5F8040208B9642CB4
:102D1000F5D3642C01D3012070BD002070BD0000EC
:102D2000000802400000414270B50024104D04E04C
:102D3000601CC4B201201BF033FDD5F8040208B1B9
:102D4000642CF5D3002404E0601CC4B201201BF005
:102D500027FDD5F8040208B9642CF5D31E201BF01A
:102D60001FFDD5F8040208B1012070BD002070BD20
:102D70000000414270B5002000244006050EFFF718
:102D8000D3FF2843611CCCB2082CF6D370BDF0B53C
:102D900083B006460F4600F02DF8FFF795FF10B1FF
:102DA00003B00120F0BD002401ADFFF7E3FF28557B
:102DB000601CC4B2052CF8D39DF804009DF80510E2
:102DC0009DF8072008449DF80610114408449DF81A
:102DD000081088420BD101A80DF0ACFD1BF0F0FDEE
:102DE0003880A81C0DF0A6FD1BF0EAFD308003B072
:102DF0000020F0BD10B50B48016821F00C01016006
:102E0000016841F004010160074C0020206014209B
:102E10001BF0C1FC01202060BDE810401E201BF00B
:102E2000BFBC0000000802408402414200B583B0EC
:102E3000012104200BF0FCFA0220009001218DF802
:102E4000041000228DF806208DF807108DF805007B
:102E50006946044801F0C0FAFFF7CCFFFFF734FFE2
:102E600003B000BD0008024001490220886070479D
:102E700000B002400DF02AB9074A904201D207483B
:102E800000E00748074A11F0005F01EA020101D0A3
:102E9000C16070478160704710640240006002406A
:102EA000006402407D0F7D0F002904D0016841F0CD
:102EB000010101607047016821F001010160704764
:102EC0002DE9F003016821F001010160002101609A
:102ED00041608160C160016121214161444A4549ED
:102EE0004FF03D08904204D1C1F80880BDE8F003DE
:102EF0007047414A4FF47464904203D18C60BDE83E
:102F0000F00370473D4A4FF47415904203D18D6031
:102F1000BDE8F00370473A4A4FF07466904203D11F
:102F20008E60BDE8F0037047364B374A984203D1B4
:102F3000CA60BDE8F0037047DFF8D0C0344B60458D
:102F400003D1CB60BDE8F0037047324FDFF8C8C053
:102F5000B84204D1C1F80CC0BDE8F0037047DFF8F7
:102F6000BC904FF03D57484503D1CF60BDE8F0031A
:102F70007047DFF8AC902B49484504D1C1F8008078
:102F8000BDE8F0037047DFF8A080404503D10C6036
:102F9000BDE8F0037047254CA04203D10D60BDE8A9
:102FA000F0037047224CA04203D10E60BDE8F0034D
:102FB0007047204C2049A04203D10A60BDE8F003CD
:102FC00070471E4A904203D10B60BDE8F003704782
:102FD0001B4A904204D1C1F800C0BDE8F00370471D
:102FE000184A9042F9D10F60BDE8F0037047000025
:102FF00010600240006002402860024040600240D1
:1030000058600240706002403D000020886002402D
:10301000400F0020A060024000003D20B860024048
:103020001064024008640240286402404064024088
:1030300058640240706402400C640240886402409C
:10304000A0640240B8640240002904D0016841F045
:10305000200101607047016821F020010160704784
:1030600011F0800F09D022B1436943F0800343611E
:1030700003E0436923F080034361802905D001F018
:103080001E011AB10268114301607047026822EA0A
:10309000010101607047000010B402681C4B1A4027
:1030A000D1F80CC00B688C6943EA0C03D1F814C04A
:1030B0004CEA040C43EA0C03D1F81CC043EA0C03AD
:1030C000D1F820C043EA0C03D1F824C043EA0C0332
:1030D000D1F828C043EA0C03D1F834C043EA0C030A
:1030E000D1F838C043EA0C031A430260426922F067
:1030F0000702D1F830C0CB6A43EA0C031A4342619D
:103100000A6942604A6882608968C16010BC704781
:103110003F801CF02DE9FC410C46050038D003F03F
:10312000FFFB112C14D0132C28460ED001F078FE92
:10313000009000F0FCFB0646684601F0DDFE2046EC
:1031400019F04BF8074600241CE000F006FB1BE0DA
:10315000284600F087F917E02146284600F0EAFBF0
:10316000019070B1007819F038F800F0FF0801A85C
:1031700001F0C2FEB84504D12146284600F08EFB7E
:1031800002E0641CB442E7DBBDE8FC4104F074BF1C
:10319000BDE8FC81F8B50C46050018D0002C16D00F
:1031A00003F0BEFB284601F03BFE0090C66B68466C
:1031B00001F0A2FE2046FDF7A7F8421C214630464A
:1031C00001F0BCFE28460EF0F1FD04F055FFF8BDFD
:1031D0002DE9FF4145680446284601F021FE019093
:1031E000D0F8886001A801F087FE0EB1012700E049
:1031F0000027214628460DF0D4FC002856D0206830
:10320000112844D006DC0B2863D00E2878D00F2874
:103210002BD14FE0212805D026281AD0B0F5107FF9
:1032200023D139E0E068416800291EDD00680D28DF
:103230001BD1304607F01BFB002806DB304607F0A9
:1032400016FB0146284600F029FB284600F07EF8D0
:1032500075E0E068012809D00A2802D00B2871D156
:1032600011E00A2128460EF025FE6BE0304607F0FB
:10327000FEFA002866DB304607F0F9FA01462846D8
:1032800000F00CFB5BE0284600F060F85AE0FFB964
:10329000E068007A98BB55E0E06848B1007A08B170
:1032A000012100E0022128460EF004FEBDE8FF8166
:1032B0000321F8E72E46284601F0B2FD0290D0F82F
:1032C0008400056802A801F017FE0DB13046A8473A
:1032D00038E0284601F0A4FD0090C06B01F06EFEBE
:1032E0000098D0F888000EF045F80098D0F89400C7
:1032F00001F0C8FC684601F0FFFD23E000E016E0A5
:10330000E068416800291DDD016820290FD006DC36
:10331000092910D00A2915D01B2904D112E021292E
:1033200010D022290ED02846FFF7F4FEBEE728462B
:1033300000F0FAF806E00EF073F9B04202D1284628
:103340000EF012FF20460DF0DDFFAFE738B50400A8
:1033500016D003F0E5FA204601F062FD0090D0F8A7
:10336000880040B10EF006F800990020C1F88800EE
:1033700020460EF01BFD684601F0BEFD04F07CFE09
:1033800038BDF0B585B0B0F90850468A8469029618
:10339000CDE903540027CDE90017B0F90C10B0F9BE
:1033A0001050B0F90E40B0F90A00194410442B46F1
:1033B000224600F003F805B0F0BD00002DE9FF5FE4
:1033C0001D46DDE90F8691468A4683460E9F129C74
:1033D00003F0A6FA21496C34CDE90214CDE9007856
:1033E0004FF0FF334A46514658460DF0D3FE0400D5
:1033F0002DD001F015FD1022009011990DF01CFD4B
:1034000000983822164980F88C604C30FCF749FF50
:10341000134E0098361F3168C0F88410002180F8E0
:103420009010C586204600F061FA684601F064FD00
:1034300001F0C1FD0546204601F0F2FC0090C56395
:10344000684601F059FD306841682046884704F01D
:1034500013FE04B02046BDE8F09F0000D131000803
:103460004003002010B5044600F063F9010000D0CD
:10347000411E2046BDE8104000F010BAF8B50546E0
:10348000006801F0CDFC0090448ED0F8886068465A
:1034900001F032FD06B1012604F0010428680FF0A6
:1034A000D3FA0EB1002006E00CB1012003E008B110
:1034B000022000E003201B4951F82010686858B32F
:1034C00002280CD0052802D0122828D103E0284673
:1034D00012F084F823E0284613F091FE1FE06A6999
:1034E000E8694FF0FF33801AA0F1080203EB620491
:1034F000421CAB69001B4510A3EB6206C86903F0D0
:1035000012FF06E03219311B284602F0DDF9641E75
:103510006D1C002CF6DA02E028680EF0D1FE0020C7
:10352000F8BD0000B81505082DE9F14F9EB01E98B2
:1035300000287DD003F0F4F91E9801F071FC0B9087
:103540001E980EF06BF903900B98B0F9367090F856
:1035500090101891C16B0A9190F88C90B0F93410CA
:10356000159100F0E4F982460B9804ACB0F88E1087
:103570001491B0F982101391C16C1291D0E900122C
:10358000CDE90C12D0F894B0002100BF00EB81020D
:10359000126D44F82120491C0329F7D3002107ADFF
:1035A00000EB8102D26D45F82120491C0329F7D395
:1035B00000210EAE00EB8102126F46F82120491C5B
:1035C0000329F7D30BA801F097FC1E980EF0B8F86A
:1035D00001F026FC1190D0F8008011A801F08CFCBD
:1035E0004FEA284042420FFA88F041420CA803F00B
:1035F00083FD5FEA897003D5BDF83200C01B01E08E
:10360000BDF83600ADF832001E980EF099F801466C
:1036100003980222CDE900070292BDF93230BDF9CC
:103620003020002007F0B3F880465FEAC97000E060
:103630007CE007D04046189907F067FB012140461F
:1036400007F088FA002708E039460A9801F0EAFCFA
:103650000146404606F056FF7F1C5745F4D300272D
:10366000394654F82720404607F09EFA7F1C032F66
:10367000F6D30024214655F82420404607F0DEFB0F
:10368000641C032CF6D30024214656F8242040461F
:1036900007F01BFB641C032CF6D3BBF100001FD00A
:1036A00001F0BEFB169030F8025B002406460127AD
:1036B00011E000BF06EBD40004F00701007807FA20
:1036C00001F1084201D0012200E0002221464046DB
:1036D00007F09CFA641CAC42ECDB16A801F00CFC71
:1036E0004046149907F0C5FA4046129907F075FA5A
:1036F0004046139907F08DFB40460EF035FD4046DD
:103700001E9907F0CDFA4046159907F01BFB0121E1
:103710001E980EF0CFFB1E9801F082FB0B90C0F8B4
:1037200088800BA801F0E8FB04F0A6FC1FB0BDE800
:10373000F08F38B505004FF000040CD003F0F0F81E
:10374000284601F06DFB0090B0F93440684601F066
:10375000D3FB04F091FC204638BD10B50446FFF7BA
:10376000E8FF411C2046BDE8104000F097B8F8B5CE
:103770000E46040021D003F0D3F8204601F050FBA0
:10378000009090F88C10D0F8885021F001040EB110
:1037900044F00104A1420BD080F88C40684601F04F
:1037A000ABFB45B104F00101284607F0D3F902E074
:1037B000684601F0A1FB04F05FFCF8BDF8B50C46CB
:1037C000060028D003F0ACF8304601F029FB009049
:1037D000D0F88850C06C02F06FFD07460098C464B2
:1037E000684601F089FB304600F080F830460EF064
:1037F000DDFA75B1204602F05FFDB84205D03046D3
:10380000FFF7A4FD3046FFF78FFE2146284607F05C
:10381000E4F904F031FCF8BDF8B50C4605004FF0B2
:10382000000618D003F07CF8284601F0F9FA009061
:10383000B0F93660D0F88850C486684601F05CFB69
:103840003DB128460DF0EAFF0146224628460EF01B
:103850008CFD04F011FC3046F8BD38B50C4605006F
:103860001BD003F05DF8284601F0DAFA009090F8DA
:103870009010D0F888508C420AD080F8904068466A
:1038800001F03AFB3DB12146284607F03EFA02E03E
:10389000684601F031FB04F0EFFB38BD38B50C464B
:1038A000050022D003F03CF8284601F0B9FA009058
:1038B00000F03DF800B1401E844200DD044600984F
:1038C000B0F93410A1420BD08486684601F014FB95
:1038D00028460EF06BFA042128460EF0EBFA02E0BF
:1038E000684601F009FB04F0C7FB38BDF8B5044693
:1038F00001F096FA01460090B0F9380010B9C86C92
:1039000002F0DAFC0099CA6AB1F98030126800EB63
:103910004300161808460EF01BFF0546684601F0E6
:10392000EBFA3246294620460EF01FFDF8BDC06B6B
:1039300001F06CBB38B50D46002401F071FA00901F
:10394000C06B294601F06EFB0546684601F0D4FACB
:103950001DB1284601F064FA0446204638BD704780
:1039600070B586B0012108460AF062FD01211020E1
:103970000AF096FD1E4E07220A21304600F077FD20
:1039800007220921304600F072FD00248DF8164010
:1039900001218DF8171002258DF814504902049169
:1039A0008DF8155004A9304600F016FD8DF814501E
:1039B0006802049004A9304600F00EFD4FF4E13097
:1039C0000090ADF80440ADF80640ADF80840ADF801
:1039D0000C400C20ADF80A00064C694620460DF05C
:1039E0002BF8012120460CF0D3FF06B070BD00007B
:1039F00000000240001001400FB438B505A8009047
:103A0000049C2078002808D02078252808D0641C41
:103A10001CF0CCFB20780028F6D138BC5DF814FBF4
:103A200014F8010F64281ED00CDC58283AD004DCAE
:103A300025283ED042283FD12DE062282BD0632894
:103A40003AD108E0662815D069280CD073281BD01D
:103A5000782831D126E0009810F8041B0090C8B2F5
:103A60001CF0A4FB28E0009951F8040B00911CF015
:103A7000A3FB21E00098C01D20F00700B0EC020B72
:103A800000901CF0BDFB17E0009951F8040B009169
:103A90001CF008FC10E0009951F8040B00911CF098
:103AA0006BFB09E0009951F8040B00911CF0D8FB66
:103AB00002E025201CF07AFB641CABE700234FF0EA
:103AC000204210280BD0B0F5807F0AD0B0F5805F7F
:103AD0000AD0D2F8580131EA000009D107E0506E4F
:103AE000F9E7D2F88400F6E7D2F8A400F3E701235F
:103AF000184670474268016811438268C068521EC8
:103B0000520142EA40200843014908607047000022
:103B1000500100A030B403689900A1F1C041D1F870
:103B200040116FF30E01D0F808C04268046942EA00
:103B30000C02D0F80CC04CEA040C42EA0C02D0F89B
:103B400014C042EA0C02D0F818C042EA0C0CC26958
:103B50004CEA0204D0F820C044EA0C05446A25432C
:103B600029434FF02045002B48D0D5F840316FF362
:103B70000E0342EA0C0223431A43C5F840210268AF
:103B80009200A2F1C042C2F840110168A9B38900B5
:103B9000A1F1C041D1F8481101F07042816A0B686F
:103BA000D1F804C05B1EACF1010C43EA0C13D1F850
:103BB00008C0ACF1010C43EA0C23B1F810C0ACF121
:103BC000010C43EA0C431A43D5F8483103F0704323
:103BD000D1F80CC0898AACF1010C4FEA0C3C491EAB
:103BE0004CEA01511943C5F8481100688000A0F162
:103BF000C040C0F8482130BC704702E0C5F8401111
:103C0000C3E7D5F8481101F07041806A0268436843
:103C1000521E5B1E42EA031283685B1E42EA0322C5
:103C2000C3685B1E42EA0332038A5B1E42EA034218
:103C3000838A007E5B1E42EA0352401E42EA006015
:103C40000843C5F8480130BC7047000002490A68C3
:103C500042EA400008607047540100A02DE9F04797
:103C600082B00E4600240025009501955D4F4FF06F
:103C70000809C7F80090102078604FF04008C7F896
:103C80000880FD604FF4806AC7F810A038460BF03A
:103C900057FB1020FEF7C2FE002834D1524800899D
:103CA0000004386037207860C7F80880FD60C7F8E6
:103CB00010A038460BF044FB3720FEF7AFFE00287B
:103CC00021D1411E07F114000160C0F80490302199
:103CD00081600221C1600561012141610BF0A8FAF8
:103CE0003D6033207860C7F80880FD60C7F810A0F9
:103CF00038460BF025FB3320FEF790FE8146B9F1E4
:103D0000000F03D0484602B0BDE8F087374F38684F
:103D100040F22A6810EA080F0ED16D464FF40010E9
:103D20000BF0B2FA20B10BF005FB45F82400641C3F
:103D3000386810EA080FF1D008200BF0A5FA30B16E
:103D400008200BF05DFA042002B0BDE8F0870220E5
:103D50000BF09AFA30B102200BF052FA022002B0B6
:103D6000BDE8F08720200BF08FFA30B120200BF057
:103D700047FA062002B0BDE8F0874FF400700BF060
:103D800083FA38B14FF400700BF03AFA072002B012
:103D9000BDE8F08740F2FF500BF032FA009800992E
:103DA000000601F47F4140EA0120009901F47F01FF
:103DB00040EA1120009940EA116070600198019971
:103DC000000601F47F4140EA0120019901F47F01DE
:103DD00040EA1120019940EA1160306002B0484683
:103DE000BDE8F0878007002024000020342C01402B
:103DF0001CB50024019401AC009400F0E7F81CBD50
:103E00002DE9FF4F83B0814606988A46A0EB0A0849
:103E1000109E00200090A2EB09043568934654EAF6
:103E2000080018D02046FCF720FF07464046FCF764
:103E30001CFF87420BDA2046444680464846D1465E
:103E400082465846DDF818B0069001200090002CFC
:103E500007DD204606E007B04846BDE8F04F00F019
:103E60003BB96042A0420AD04846D9466442C8F1F4
:103E7000000883464FF0FF37DDF818A000E0012767
:103E80005148B8F1000F11D004EBD4714FEA610B27
:103E900001DACBF1000B4C480068807E88B3002F1C
:103EA00002DA30682044306000257BE00099002968
:103EB000016821D0897E11B10027804615E007B046
:103EC0005A4649465046BDE8F04F05F0CFBA28465D
:103ED0006D1C17F07BFB38B9D8F8000009EB07011F
:103EE000406E4268504690477F1CA742EFDD6D1E32
:103EF000356007B0BDE8F08F8A7E1AB10027804692
:103F000017E019E0486E5A465146036807B0484624
:103F1000BDE8F04F184728466D1C17F057FB38B91D
:103F2000D8F8001009EB0700496E4A6851469047DF
:103F30007F1CA742EFDDDAE700250FE008FB05B0A4
:103F400090FBF4F101EB0A00009951B11E4A09EB14
:103F500005011268526E526890476D1CA542EDDD56
:103F6000C7E7194909EB05030968496E4A68014624
:103F70001846F1E708FB05B090FBF4F101EB0A00ED
:103F8000019030683844306017F020FB48B9009841
:103F900090B10D4809EB05010068406E4268019838
:103FA00090476D1CA542E5DD3068002F01DA204402
:103FB0003060C01B30609CE7034909EB05000968CD
:103FC000496E4A680199EBE7000200202DE9FF479E
:103FD0000F4640491646804609680C981D460A7EE1
:103FE000012A1CD0A8EB0600791B50EA01031CD063
:103FF000A2F1010919F0E6FD00F58060824605F0A6
:1040000036F800FB09F4504605F036F800FB09F1DC
:10401000002C0CDAC4F50070801240420AE00090D7
:10402000324639464046FFF7EBFEBDE8FF8704F510
:104030000074A012002904DAC1F5007189124C4203
:1040400002E001F500718C12002804DD411C01EB37
:10405000D171491003E000EBD0714910401E00EB14
:10406000D0704210002C04DD601C00EBD0704010BA
:1040700003E004EBD4704010641E04EBD47308EB2F
:104080000104ADF800403C18ADF80240A8EB020472
:104090005B10B21AADF80440ADF808203144FC1AA8
:1040A000EA1AADF80C102844ADF80A20ADF80E005D
:1040B0000023ADF806401A460421684600F07AF85D
:1040C0003946404612F09EFF2946304612F09AFFCC
:1040D000ABE7000000020020064A13681A7E012A9E
:1040E00005D0521E02EBD272521000F005B85A6E83
:1040F00052681047000200202DE9F05F064688460E
:1041000040F2C32002FB00F14FF47A7091FBF0F70C
:1041100002FB02F102EBD27001EB600B1446B11806
:10412000234A301B7F1C1268526E13680A464146B0
:104130009847012538E000BF05FB05F004FB0401AA
:1041400059451CDDBC4219DD194B06EB050AA6EBEF
:1041500005091B68AAF1010208EB04015B6E09F175
:1041600001001B689847124BAAF10102A8EB040159
:104170001B6809F101005B6E1B689847641E0C4BBD
:104180003219301B1B68924608EB05015B6E8146B5
:104190001B689847064B5246A8EB05011B6848462A
:1041A0005B6E1B6898476D1CBD42C5DDBDE8F09F86
:1041B000000200202DE9FF4F43F6FF740F466642D0
:1041C00083B09B46814600210BE000BF09EB8100D4
:1041D000B0F90200A04200DA0446B04200DD064613
:1041E000491CB942F2DB67480068406900280DD0DD
:1041F000B0F906101A46A1EB0B01B14200DA0E46E7
:10420000B0F90200801AA04200DD0446B4E0DFF8F5
:1042100078A100200546CAF8000088E0781E854293
:1042200001DA6B1C00E0002309EB850C09EB83022B
:10423000BCF90200B2F90210A04244D1A14215D14A
:1042400039F92330059A39F9251003EB020C4D4A50
:1042500005981268084404EB0B01526E6045136820
:1042600001DA62462AE00246604627E02846A44674
:104270004FF000087A1E0BE008B1401E00E0781EE7
:1042800009EB8003B3F90230634504D108F101085A
:104290009045F1DB2346A34248D01A1B39F925008B
:1042A000A1EB040C059B92EA0C0F09D4354A184483
:1042B00004EB0B011268526E13680246984735E012
:1042C0000EF0B2FE32E0A14230D001DBA04203DDAD
:1042D000A0422BDBA14229DCE04688420ADC0346EF
:1042E000A04223DC0846A14220DBB8F900C0B2F9A5
:1042F000001008E00B46A14218DCA04216DBB2F920
:1043000000C0B8F90010E21AA1EB0C0151430029DA
:10431000A0EB030202DD01EB620102E0A1EB62010E
:10432000491CC01A91FBF0F06044C9E76D1CBD4206
:10433000FFF674AF0598009004EB0B00019000208D
:104340008046054613E01149B8F1000F31F915A078
:1043500009D0009901EB0A0208440A490968496E2C
:104360000B680199984788F0010850466D1C064972
:1043700009688D42E7DB641CB4427FF748AF07B0A1
:10438000BDE8F08F000200200C040020BC000120DA
:104390000E4810B5006802F0BBFF0D48006802F03F
:1043A000C2FF012003F03AF8002003F045F8002096
:1043B00003F052F8002002F0C1FF0648006802F046
:1043C000C9FFBDE81040002002F0FABFFC01002048
:1043D000F8010020F40100202DE9F001002201265F
:1043E000032706FA02FC0B6803EA0C03634538D185
:1043F0000568530007FA03F4A54305600D79D0F86A
:1044000000809D4045EA080505600D79012D01D029
:10441000022D17D18568A54385604D79D0F80880B5
:104420009D4045EA08058560456825EA0C0CC0F802
:1044300004C0D0F804C08D799540ADB24CEA050CAB
:10444000C0F804C0D0F80CC02CEA040CC0F80CC0B2
:1044500091F807C00CFA03F3D0F80CC043EA0C0340
:10446000C360521C102ABCD3BDE8F00170474B0753
:10447000DB0E9A40C90800EB8100016A4FF00F0C77
:104480000CFA03F399430162016A11430162704718
:1044900041837047018370472DE9F04385B00121C6
:1044A000802009F0C5FF0121080209F0C1FF4FF08B
:1044B0008008CDF8008000248DF8044001268DF896
:1044C000076002278DF80570DFF8C49069464846FA
:1044D000FFF782FF300200908DF804608DF80640EF
:1044E00069462C48FFF778FFFEF760F92A4D2C60EB
:1044F0000A201AF050F92E600A201AF04CF9CDF873
:1045000000808DF804408DF807408DF805706946ED
:104510004846FFF761FF64201AF03DF9042202A922
:1045200048F2401000F04EF88DF80C4002A91BA094
:1045300018F010FC1CA102A8FBF7EDFE18B105B0A5
:104540000120BDE8F0838DF80870012202A948F22D
:10455000400000F03BF9012202A948F2470000F0B8
:1045600031F89DF80810602902D211A018F0F2FB72
:104570000A201AF010F98DF80840012202A948F229
:10458000400000F023F905B00020BDE8F0830000F2
:10459000001C024000200240A0024442435450202C
:1045A00049443A25730D0A003931343700000000C0
:1045B00044656661756C74205665723A25640D0A0F
:1045C000000000002DE9F04104460E461546FEF7B6
:1045D000A5F92820FEF772F9FEF7DCF9200AFEF7AC
:1045E0006DF9FEF7D7F9E0B2FEF768F9FEF7D2F9F8
:1045F000FEF794F92920FEF761F9FEF7CBF90024C4
:10460000002D0CD96F1EBC4201D0012000E000201B
:10461000FEF71AF93055601CC4B2AC42F3D3BDE8C2
:10462000F041FEF799B900002DE9F14783B000246D
:10463000A146624D2878401CC1B229706048614F84
:10464000A0FB0120C008404200EB800011EB4000BD
:1046500001D00A297ED2012203A948F24E10FFF7A9
:10466000B1FF9DF80C004FF0000810F0800F0BD048
:1046700000F00F00062807D2CDF80480012201A91E
:1046800048F24E1000F0A2F89DF80C0010F00F0F49
:1046900073D000F00F0006286FD2FF2101FA00F05E
:1046A000019097F82060C04340F0C00087F82000D8
:1046B000B889B882F88AF883DFF80CA14FF00109B5
:1046C00097F8200009FA04F108422DD03AF81400B6
:1046D000042202A9FFF776FF97F8300010F0010FCF
:1046E00010D09DF808009DF8091000EB012107EBA0
:1046F000440081819DF80A109DF80B2001EB0221F6
:10470000C18211E09DF808009DF8091000EB01211D
:1047100007EB4400C1829DF80A109DF80B2001EBC5
:104720000221C1F588718181601CC4B2052CC7D3F8
:104730004FF00109B9893846B1F5F07F03D8C18A35
:10474000B1F5887F17D99DF80C1001F00F010129F0
:1047500008D900E011E0C1898181018BC18285F80F
:1047600000800AE0818A8181C18BC182802103910E
:1047700080F8206001E085F800809DF80C0000F0D2
:104780008F00802811D197F8200010F0800F04D0FE
:1047900020F0800087F8200007E04FF6FF71B98114
:1047A000F98200F0E00087F820002878F02801D98D
:1047B0000A20287004B04846BDE8F0877800002041
:1047C000CDCCCCCC44000020E20602082DE9F0411B
:1047D00004460E4615460027FEF7A0F82820FEF7EF
:1047E0006DF8FEF7D7F8200AFEF768F8FEF7D2F862
:1047F000E0B2FEF763F8FEF7CDF80024002D0BD9E8
:10480000305DFEF75BF8FEF7C5F80746380003D1C8
:10481000601CC4B2AC42F3D3FEF79EF83846BDE844
:10482000F0810000014AC2E900017047A4010020A4
:10483000014AC2E900017047AC010020014AC2E907
:1048400000017047D0020020014AC2E90001704710
:10485000B4010020014AC2E900017047D8020020DB
:104860002DE9F04FDFF828B191B04FF0FF35DBF8BC
:104870000030B3F922100691DE69B3F92490F4698F
:10488000A189814206D8E289824203D3471AD4F82B
:10489000008012E0D4E9018100296FD00A888242A9
:1048A0006CD84D88854269D3801A82B2486800EB83
:1048B0008200B0F90070B0F90250781C5ED0307EF2
:1048C000A17C10FB01FA217CCDE90701B3F92A6034
:1048D000304605F065FAC0B20E90DBF8000007FB29
:1048E0000A81A37C826B0127CDE90412CDE9027312
:1048F000C069089AC17E807ECDE90001DDE906032A
:10490000494604F051FC681C18D046F0020005F03E
:1049100047FADBF80000A37C05FB0A81826BCDE936
:104920000273CDE90412C069089AC17E807ECDE988
:104930000001DDE90603494604F036FCDBF800001F
:104940005D46C069417E007E814214D9022E12D09C
:1049500086F0040005F024FA2868C069027EC37E50
:1049600012FB0391437E857E089A06984B4412FB06
:10497000050204F0A5FD0E9805F012FADBF8000020
:10498000627C418C1144418411B0BDE8F08F00007D
:104990000002002004480068C069C06909B1027CB7
:1049A0000A60407C7047000000020020022008805E
:1049B0007047C06982898A4202D8C2898A4210D26D
:1049C000806880B102888A420DD843888B420AD31E
:1049D000406800EB8100A0EB8200B0F900000028E5
:1049E00001DB012070470020704700002DE9F043F3
:1049F000304C034687B020681946B0F92A60C06978
:104A0000C06900F086F8002850D041680088181A64
:104A100001EBC0053046AF7805F0C2F98146206849
:104A20006A680123816BCDE90237CDE90421C169B0
:104A3000CB7E8A7ECDE900230B7EB0F924102A7844
:104A4000B0F9220004F0B0FB2068C069417E027E0C
:104A500091421FD9C07E11FB00F812FB00F7022E15
:104A600018D001F09EFB064601F064FB02F05BFCEF
:104A700021682A78CB69B1F92200DB7E12FB0302A0
:104A8000B1F9241001EB0803394404F019FD304654
:104A900002F049FC484605F083F920686A78C3694A
:104AA000B0F922109B7E12FB0311418407B0BDE8D0
:104AB000F08300000002002030B50F4C05460B4685
:104AC00020682946C069C06900F023F8002812D088
:104AD0004168008824682A1A0120E46900EBC200BA
:104AE000085CA47E10FB04F0002B04D011F83210F7
:104AF00011FB04F1196030BD000200200120088084
:104B0000704700B5C06900F004F8002800D001200B
:104B100000BD06E002888A4202D842888A4202D258
:104B200080680028F6D170472DE9F0410025154E28
:104B3000154C18E02069C5EB051700EBC700702283
:104B4000001D3168FBF7ADFB2069002140F83710EC
:104B500000EBC70000F10C018161011D0A1DC0E9D5
:104B60000F126D1C4164A0688542E3DB14F0D2F89B
:104B70002169C0EB001001EBC000001D3060BDE8F2
:104B8000F0810000000200202004002070B51049D0
:104B90000E480860084604F0A7F90D4C143CA068C4
:104BA000C0EB0010C500284600F0ACF8094B2061AE
:104BB0002A461B68002198474FF0FF30206003F021
:104BC000A7FABDE8704014F0A5B8000045A8010898
:104BD0003404002000040020F8B50C0005460ED077
:104BE00001F09EFE204600F01BF8060010D000F0F9
:104BF00017F92246009025B12946074B03E0002013
:104C0000F8BD064B00211B689847684600F074F910
:104C100003F032FA3046F8BD0404002000040020FE
:104C200010B5040009D001F07BFE20460EF0D8FA42
:104C3000044603F021FA204610BD002010BD0000FC
:104C400038B5054601F06CFE2846FFF7E9FF040081
:104C50000AD000F0E5F8064B00902A461B680021B8
:104C60009847684600F048F903F006FA204638BD38
:104C700000040020024A106021F0030050607047D9
:104C800028FF002010B5040011D001F049FE0848AB
:104C9000042101EBC401406B415848680EF0E2F971
:104CA000204616F0ADF9BDE8104003F0E5B910BD9F
:104CB00068FE0020002805D0034AD16B016001B1D5
:104CC0004860D0637047000068FE002010B50446BD
:104CD00001F026FE2068FFF7D5FF00202060BDE828
:104CE000104003F0C9B9000070B50D460646002417
:104CF00005E000BF06EB8400FFF7E8FF641CAC4250
:104D0000F8DB70BD2DE9F041044614F0EDFD2848B4
:104D1000E41C24F00305016C2D1DA94200D90D46A9
:104D2000C46B13E054F8042CAA420ED184B121685C
:104D300009B162684A60616809B122680A60C26BA1
:104D4000A24231D12168C1632EE02468002CE9D150
:104D50008046816BC0680F1857F8040C3E1A306803
:104D600038B1002016F0CEFA57F8040C3E1A30681D
:104D7000D0B97068A84217DB3044441B3046241D6C
:104D800016F078FAD8F80C10491BC8F80C10D8F8AF
:104D900014102944C8F814107068401B02D0314622
:104DA0000EF060F944F8045C2046BDE8F081000094
:104DB00068FE002010B5002414F096FD0C490F2069
:104DC00001EBC002526C1AB101EBC000406C08E06C
:104DD000401EF5D508E04168A14200D90C46806824
:104DE00010B180680028F6D1A4F10C0010BD0000BD
:104DF00068FE0020002138B10449042202EBC00003
:104E0000496B085841680C390846704768FE002015
:104E100002488169491C81617047000068FE0020DA
:104E20000549CA69521CCA61496B01EBC0010A7885
:104E3000521C0A7000F078B868FE00207CB5064667
:104E40000C460846FFF7ECFE050021D006B33046BD
:104E5000FFF7D0FFA04200DA044601F061FD2846CA
:104E6000FFF7DEFF00903046FFF7DAFF094B0190B5
:104E700001461B68224600989847684600F03CF8B7
:104E800001A800F039F83046FFF7FCFE03F0F4F813
:104E900028467CBD0404002010B501F041FDFFF759
:104EA00089FF64220849B0F5800F04D990FBF2F421
:104EB000086A444303E0096A4143B1FBF2F403F09A
:104EC000DBF8204610BD000068FE002005491028D0
:104ED00005D94A68B0EB520F02D3500800E0102009
:104EE0008860704728FF002002488169491E81615F
:104EF0007047000068FE00200A4902684B6B52F8B8
:104F0000082C03EBC2021378022B03D3CB690BB13D
:104F10005B1ECB611178491E1170002101600846AB
:104F20007047000068FE00200349042202EBC00025
:104F3000496B08580830704768FE00202DE9FC4195
:104F40004FF000060B465FEA000834462BD032B122
:104F500011461846FFF740FE060000D101244046E6
:104F6000FFF75EFF0090078845686846FFF7C4FFBB
:104F7000CCB9B9002846091DFFF760FF050015D020
:104F8000FFF74EFF019040F8276001A8FFF7B4FF3C
:104F90004046FFF745FF009045600188491C0180AD
:104FA0006846FFF7A9FF2046BDE8FC813046FFF7C1
:104FB00069FE0124F7E70820FFF742BE7CB5050033
:104FC00023D0FFF72DFF00904068C0B1FFF728FF06
:104FD0000024019005E0019800EB8400FFF776FEC5
:104FE000641C00980088A042F5DC01A8FFF784FF4C
:104FF0000098001DFFF76AFE0099002008806846AF
:10500000FFF77AFF2846FFF73DFE7CBD38B5002448
:1050100030B1FFF705FF009004886846FFF76CFF8A
:10502000204638BD38B50D46002448B1FFF7F8FEDC
:105030002946009000F016F804466846FFF75CFF2A
:10504000204638BD38B50D46002448B1FFF7E8FECC
:105050002946009000F018F804466846FFF74CFF18
:10506000204638BD38B50D4601880024A94209D92B
:10507000406838B1FFF7D4FE009050F825406846EC
:10508000FFF73AFF204638BD10B50024FFF7EAFFCE
:1050900010B1FFF7C5FE0446204610BDF0B52D2720
:1050A0001C68B0F1004F08D0002600280DDA651CFE
:1050B0001D6027704042012408E0651C01261D6028
:1050C0006FF000402770491E01E00024091BC9B29F
:1050D0002AB3491EC9B222E00C46491EC9B2944205
:1050E00005D1124C27781C68651C1D602770104C78
:1050F00054F8215090FBF5F4E4B20A2C11D804FBCB
:10510000150011B90EB1641CE4B20A2C02D10124BD
:10511000491CC9B21D686F1C30341F602C700029F7
:10512000DAD1196800200870F0BD0000EC01002001
:10513000CCB9040870B514460D46064601F0F0FBE4
:10514000204601F03BF80300174804EB840109D026
:1051500050F8210041688068711A2A1A184602F036
:105160001FF91CE000EB8104A268B24201D00122C9
:1051700000E00022E368AB4201D0012300E00023FD
:105180001A430CD0236943B150F82100816840686C
:105190006A1A311A184602F077F8C4E90265BDE8C8
:1051A000704002F069BF0000A401012010B5C2B236
:1051B000CBB2D21A00D5524293B25B43C0F307225E
:1051C000C1F30724121B00D55242000C92B2A0EB8F
:1051D000114002FB023200B2002801DA404200B264
:1051E00080B200FB002010BD10B50021084601F080
:1051F00075F843F6FF725042BDE810401346014671
:10520000AFF300802DE9FC411C4615460E460746CB
:1052100001F086FB042004F0C3FD8046124840697B
:10522000C16C006D0F4406440D440444ADF8007099
:10523000ADF80450ADF80260ADF8064068460DF0D8
:105240008FFA07E023462A463146384604F038F9FB
:105250000DF040FA0028F5D1404604F0A1FD02F01F
:105260000BFFBDE8FC810000EC010020B0F9063026
:10527000B0F90420B0F90210B0F90000FFF7C2BF86
:105280002DE9F8431C00DDE9089816460F4605464F
:1052900002D10CF069F9044600962E6843464A464E
:1052A00021462846B047061E39D00CF052F98146F7
:1052B000698A30460BF00AFD30460DF0D5F84846B5
:1052C0000DF0D2F84FF000080CE000BFCDF80080E0
:1052D00055F81CCF00231A4649462846E04700B33C
:1052E0000DF0C2F87F1E002FF0DC1D2148460CF0A7
:1052F000F2FE601C12D001F013FB0CF091F930B1FA
:10530000FFF712FE8469B44201D02000F8D1B44204
:1053100002D030460CF07CFF02F0AEFE3046BDE815
:10532000F88330460CF026F80020F8E72DE9F0412C
:105330001C4616460D460746022B02DB0020BDE840
:10534000F0811C20FFF7DEFC0028F8D00DB10561CC
:105350000AE0094A52F8241009B905E011460A6822
:10536000002AFBD109690161846186820021016004
:105370004160C0E90217E2E72C02002070B51D462B
:10538000FFF7D4FF040009D000F00EF8E0680068D1
:1053900020B90348006800EB85008465204670BD95
:1053A00000020020FFF786BC70B5C0B38269022AF4
:1053B00036DA2149531C0C789C4200DA0B701F4CE2
:1053C00054F8221019B944F8220032E019464B680B
:1053D000002BFBD106E0CB68C5681B682D68AB428B
:1053E00003DD09680029F6D11AE0C1B1CB68C668AF
:1053F0001B683668B3420CD1838A012B05D008E0C4
:105400001946DB681B68AB4203DB0B68002BF7D146
:1054100029B14B6833B118604A68426004E0FFE785
:10542000012070BD44F822004860884200D100216C
:105430000160002070BD0000520200202C020020FC
:1054400010B503E00468FFF7AFFF20460028F9D14C
:1054500010BD000010B50C4B8269002153F82240AA
:10546000844205D1046843F82240026802B15160C9
:1054700042680AB10368136002680AB14368536066
:105480000160416010BD00002C0200200020704728
:10549000022801DB00207047054951F8200004E094
:1054A000C16809680029F6D000680028F8D1704763
:1054B0002C0200202DE9F8431D46164688460400BC
:1054C0000CD0FFF7ADFC0090006807686846FFF756
:1054D00013FD2B46324641462046B847BDE8F883C7
:1054E0002DE9F041044602F0FFFD0619164F1FE0BA
:1054F00000F0DAFA3868844200DD0446A04601F084
:105500000FFA12480568FFF783FC2C0017D000BF84
:1055100002F0B2FD641EFBD1404602F0C9FD1DB190
:1055200001F0FEF96D1EFBD1FFF7DEFC02F0A4FDD9
:1055300002F0DAFD341A002CDADCBDE8F0814046D6
:1055400002F0B6FDF0E70000940200202C040020D9
:105550007FB51E4614460D46CDF80CD003AB002295
:105560003146FFF79BFD22462946684600F086F843
:105570007FBD00002DE9FC4706005FD001F0D0F9A7
:1055800000F040FE3C4C81462068B0F9228000F0DB
:1055900075FE216807468A8CD01B888441E000BFD5
:1055A00047F6FF71304603F019FB8246014630464C
:1055B00003F0EAFA2168054691F82C0000F0030098
:1055C000012841D002283BD000204A8C101A488480
:1055D000ADF800006A1E1044ADF80400888CADF8E8
:1055E0000200A9F101010844ADF806006A465146DF
:1055F000304602F047FF2168BDF80200888451461A
:10560000304602F027FC064430780A281ED00D28C8
:105610001CD0BDF80000216828444884307818B1B7
:10562000761C30780028BBD12068818C3944818475
:10563000818D21F00301818502F01EFDBDE8FC870C
:1056400005EBD5704010C0E72846BEE7206890F80B
:105650002C1001F0030101290BD0022909D0018C83
:10566000418431780A29D9D1828C02EB09018184E5
:10567000D4E7A0F82280F4E70002002070B51446B9
:105680000D46064601F04CF90548006845848484BF
:105690003046FFF76FFFBDE8704002F0EDBC000040
:1056A000000200202DE9F04107460A4815460E4643
:1056B0000068B0F92C0040F0020001F0BDFE044685
:1056C0002A4631463846FFF7D9FF2046BDE8F0416B
:1056D00001F0B2BE0002002047F6FF73AFF3008076
:1056E0002DE9FC411F4690460D4606004FF0000490
:1056F0001AD001F015F965B128460CF05BFE0400E4
:1057000007D002462946684603F0DCFA68460CF0EA
:1057100051FE3B4642462946304602F00BFF2046EA
:105720000CF048FE02F0A8FCBDE8FC811CB50A465E
:105730000146684603F0CAFB01F0F2F82548BDF8BF
:105740000010006830F84C2F1144ADF80010BDF87F
:10575000021082881144ADF80210BDF804100288CE
:105760001144ADF80410BDF8061080880844ADF867
:10577000060068460CF0F4FF27E000BFBDF90040CA
:105780000BE000BFBDF90210204603F03BFEBDF95F
:105790000610204603F036FEA41CBDF90400A0420A
:1057A000F0DABDF902400AE0BDF90000214603F03D
:1057B00029FEBDF90400214603F024FEA41CBDF916
:1057C0000600A042F0DA0CF085FF0028D6D102F0E6
:1057D00053FC1CBD000200202DE9F04F87B09B4612
:1057E000DDE9109892460C46054601F099F81648F6
:1057F0000168C86C096D47190E1900EB0A0501EB29
:105800000B04ADF81070ADF81450ADF81260ADF89F
:10581000164004A80CF0A4FF88B1DFF830B04FF0B8
:10582000000ACDE90098CDE902BA2B462246394656
:10583000304611F08FFA0CF04DFF0028F1D102F044
:105840001BFC07B0BDE8F08F000200206D9400083B
:105850002DE9F04F87B09B46DDE9109892460C4643
:10586000054601F05DF816480168C86C096D4719D6
:105870000E1900EB0A0501EB0B04ADF81070ADF842
:105880001450ADF81260ADF8164004A80CF068FF93
:1058900088B1DFF830B04FF0010ACDE90098CDE9CA
:1058A00002BA23462A463146384611F053FA0CF024
:1058B00011FF0028F1D102F0DFFB07B0BDE8F08F47
:1058C00000020020AD9300082DE9FC4114460D466E
:1058D000064601F025F8114F3968C86C096D05447A
:1058E00004440E44ADF80050ADF80440ADF8026039
:1058F000ADF8066068460CF033FF08E038682246D1
:105900003146406E0368284698470CF0E3FE0028B5
:10591000F4D102F0B1FBBDE8FC81000000020020E0
:105920002DE9F0411C4615460E46074600F0F8FFEB
:105930000C480168C86C096D074405440E440C44CA
:1059400000200CF00DFF07E023462A46314638467A
:10595000FEF74EFA0CF0BEFE0028F5D1BDE8F0418E
:1059600002F08ABB000200207CB50C46064600F01F
:10597000D7FF0F4D2868C16C006D0E440444ADF88C
:105980000460ADF80060ADF80640ADF8024068462E
:105990000CF0E6FE07E028682146406E426830467B
:1059A00090470CF097FE0028F5D102F065FB7CBD16
:1059B000000200202DE9FC411C4616460D46074614
:1059C00000F0AEFF1A480168087ECA6C096D1744E2
:1059D0000D440C44401E391A1644ADF8001031181D
:1059E000ADF80410291A2044ADF80600ADF80210F5
:1059F00068460CF0B5FE15E032462946384603F0FD
:105A0000D5FC32462146384603F0D0FC621E691CA4
:105A1000384603F02BFD621E691C304603F026FD5C
:105A20000CF058FE0028E7D102F026FBBDE8FC810F
:105A3000000200207CB514460D46064600F070FFBB
:105A40000F480068C16C006D0E4405440444ADF875
:105A50000060ADF80460ADF80250ADF8064068464D
:105A60000CF07EFE06E022462946304603F0FEFC9E
:105A70000CF030FE0028F6D102F0FEFA7CBD0000EA
:105A80000002002070B50C46054600F0A1FB10B1E5
:105A90000121C0E9001400F043FF28460CF09CFDF2
:105AA000BDE8704002F0E8BA10B5002400E001241F
:105AB00000F004F80028FAD1204610BD0B4810B5BC
:105AC0000068002410B1804700B101240BF0CAFC2B
:105AD00000B101240648006810B1804700B10124DC
