:020000040800F2
:10000000A0FD0020C1010008B56B0008655500087F
:10001000C96A0008351600085DB900080000000034
:1000200000000000000000000000000049B30008CC
:100030004920000800000000590A000875830008E4
:10004000FB010008FB010008FB010008FB010008A0
:10005000FB010008FB010008FB010008FB01000890
:10006000FB010008FB010008FB010008FB01000880
:10007000FB010008FB010008FB010008FB01000870
:10008000FB010008FB010008FB010008FB01000860
:10009000FB010008FB010008FB010008FB01000850
:1000A000FB010008FB010008FB010008FB01000840
:1000B000FB010008FB010008FB010008FB01000830
:1000C000FB010008FB010008FB010008FB01000820
:1000D000FB010008FB010008FB01000889B70008CC
:1000E000FB010008FB010008FB010008FB01000800
:1000F000FB010008FB010008FB010008FB010008F0
:10010000FB01000819A10008FB010008FB01000821
:10011000FB010008FB010008FB010008FB010008CF
:10012000FB010008FB010008FB010008A91D0008F5
:10013000FB010008FB010008FB010008FB010008AF
:10014000FB010008FB010008FB010008FB0100089F
:10015000FB010008FB010008FB010008FB0100088F
:10016000FB010008FB010008FB010008FB0100087F
:10017000FB010008FB010008FB010008FB0100086F
:10018000FB010008FB010008FB010008FB0100085F
:10019000FB010008FB010008FB010008FB0100084F
:1001A00085680008FB0100089D1D0008DFF80CD0E1
:1001B00000F066FB0048004799710108A0FD00208F
:1001C000DFF83800016841F470010160BFF34F8F20
:1001D000DFF82C00016821F040410160BFF36F8F10
:1001E0000848804708480047FEE7FEE7FEE7FEE7CD
:1001F000FEE7FEE7FEE7FEE7FEE7FEE788ED00E04C
:1002000034EF00E031B40008AD01000872B6704769
:1002100062B67047EFF3108072B6704780F31088B3
:10022000704730BF704720BF7047B0FA80F070470A
:1002300090FAA0F0B0FA80F0704790FAA0F0704702
:100240002DE9F05F0546002092469B46884606460B
:10025000814640241BE0284641464746224600F09E
:1002600061FA53465A46C01A914110D311461846B6
:10027000224600F048FA2D1A67EB01084F46224645
:100280000120002100F03FFA17EB00094E41201E2B
:10029000A4F10104DFDC484631462A464346BDE866
:1002A000F09F10B5441A0346944209D284181144B1
:1002B00003E011F8013D04F8013D521EF9D210BDD2
:1002C00040EA0104A40703D009E010C9121F10C3BB
:1002D000042AFAD203E011F8014B03F8014B521E35
:1002E000F9D210BDD2B201E000F8012B491EFBD2B9
:1002F00070470022F6E710B513460A460446194631
:10030000FFF7F0FF204610BD10B5002200E0521CA0
:10031000835C8C5CA34201D1002BF8D1D8B2E1B24E
:10032000401A10BD2DE9FE4F804681EA0300C00F40
:100330000C46009021F0004123F00045B8EB02008C
:10034000A94105D24046214690461C460B4602462E
:1003500023F00040104347D0270DC7F30A00C3F332
:100360000A510290401A019040286BDAC3F313003F
:1003700040F4801B0098924620B10023D2EB030A80
:1003800063EB0B0B01985946C0F14002504600F058
:10039000BAF906460D4650465946019A00F0D2F980
:1003A00010EB08006141002487EA115284EAE773E8
:1003B0001A4340D0009A62B3019A012A4FEA0752C9
:1003C00015DC001B61EB02014FF0004202EA07520C
:1003D000CDE90042001C41F5801132462B4600F069
:1003E000D2F903B0BDE8F08F40462146F9E7001B83
:1003F00061EB0201001C41F5801300185B412018DD
:10040000A2F5001747EB030140EAD570B6196D411C
:1004100011E06D084FEA360645EAC0754FEA07520B
:10042000001B61EB0201001C41F5801149084FEAF5
:1004300030000019514132462B4603B0BDE8F04F61
:1004400000F092B90098012240000023D0EB020294
:1004500063EBE073009821464FEAE074B8EB0000CC
:1004600061EB0401E9E783F000435BE781F00041C1
:1004700058E72DE9FE4F81EA030404F0004421F01F
:10048000004100944FF0000B23F0004350EA0104B8
:100490005ED052EA03045BD0C3F30A54C1F30A5599
:1004A0002C44A4F2F3340194A0FB0254C1F31301D1
:1004B00041F48011C3F3130343F4801301FB02449E
:1004C00000FB034E840A970A44EA815447EA8357A3
:1004D000A4FB076802958D0A05FB07854FEA932C5C
:1004E00004FB0C542705029D4FEA065847EA1637CD
:1004F000B5EB08056EEB070C870E920E47EA8117E5
:1005000042EA8312A7FB0201B6EB0B0164EB000485
:100510002B0D43EA0C335E1844EB1C50DA4651466F
:10052000E7FB0201C5F313044FEA0B3343EA14530C
:100530004FEA0432019C43EA0603A4F10C0402943E
:10054000009CCDE900B400F01EF903B0BDE8F08FC7
:1005500000200146F9E72DE9F04D81EA030404F09B
:10056000004B21F0004514464FF0000A23F00041F3
:1005700050EA050220D054EA01021DD0C5F30A5703
:100580000246C5F31303C1F31300C1F30A5640F446
:10059000801543F48013A7EB0608101BD64608F21B
:1005A000FD3873EB050002D308F1010801E0921851
:1005B0005B41B8F1000F03DA00200146BDE8F08D81
:1005C00000204FF48011064684460EE0171B73EBA3
:1005D000050705D3121B63EB050306434CEA010C28
:1005E00049084FEA300092185B4150EA0107EDD10B
:1005F00052EA030012D082EA040083EA05010843AC
:1006000005D0101BAB4106D20122002306E00022D8
:100610004FF0004302E06FF0010253101AEB0600A6
:100620004CEB085110EB0A0041EB0B01BDE8F04D1B
:1006300000F09AB80EB5C10F80EAE0700844CA070E
:10064000002140F233438DE80E000A460B4600F0CD
:100650009AF803B000BD0EB540F23341029100217B
:10066000CDE900110A460B4600F08DF803B000BD3D
:1006700070B5C1F30A5201F000450024C1F3130123
:1006800040F2FF3341F480119A4201DA002070BD3C
:1006900040F233439A42A2F2334203DC524200F06A
:1006A00041F800E090402C43F1D0404270BDC1F3CE
:1006B0000A5210B5C1F3130140F2FF3341F4801127
:1006C0009A4201DA002010BD40F233439A42A2F26E
:1006D000334203DC524200F025F810BD904010BDBB
:1006E00000F0004230F000400AD0C10D01F5607109
:1006F000C0F3160042EA0151C20840071143704797
:10070000002001467047202A04DB203A00FA02F15B
:10071000002070479140C2F1200320FA03F31943EF
:1007200090407047202A04DB203A21FA02F0002191
:10073000704721FA02F3D040C2F1200291400843F1
:1007400019467047202A06DBCB17203A41FA02F0FF
:1007500043EAE07306E041FA02F3D040C2F120021E
:10076000914008431946704710B5141E73F10004F8
:1007700008DA401C41F1000192185B411A4301D193
:1007800020F0010010BD2DE9F04D92469B4611B1BD
:10079000B1FA81F202E0B0FA80F220329046FFF71F
:1007A000B2FF04460F4640EA0A0041EA0B015346F5
:1007B0005A46084313D0114653EA010019D0C8F134
:1007C00040025046FFF7AEFF05460E4650465946DA
:1007D0004246FFF798FF084305D0012004E0204679
:1007E0003946BDE8F08D0020054346EAE0762C430B
:1007F00037430A986305E40AA0EB08000022FD0ACB
:1008000044EA47540A3002D500200146E9E70105D1
:1008100010196941DDE9084500196941BDE8F04D4D
:10082000A2E770B521F0004303430CD0C1F30A5591
:100830000024D5EB040564EB0403D617AD1AB341CD
:1008400002DB0020014670BD201841EB025170BD53
:1008500030B5041E71F1000404DB4FF00044404247
:1008600064EB0101141E73F1000405DB1C464FF01C
:100870000043524263EB0403994208BF904230BDEB
:10088000064C074D06E0E06840F0010394E80700DD
:1008900098471034AC42F6D3FFF78CFCA84E0408FE
:1008A000C84E04082DE9F04D00231A461B1A8A4150
:1008B00003DB00200146BDE8F08DC1F30A52C1F30D
:1008C000130141F480154FF0000BD10702D100183D
:1008D0006D41521E0027044640F2FF11384601EBDD
:1008E000620A3E468046024600204FF48011FFF720
:1008F00019FFC2197141BB1846EB0100B4EB030CA0
:1009000075EB000C04D3E41A65EB000517460E46A0
:10091000241908F101006D4180463428E3DDF919FE
:1009200046EB0600091BA84103D24FF0FF321346E5
:1009300001E0002213461BEB070046EB0A51BDE81D
:10094000F04DFFF711BF70B58C1810F8015B15F072
:10095000070301D110F8013B2A1106D110F8012B31
:1009600003E010F8016B01F8016B5B1EF9D12B0756
:1009700005D40023521E0DD401F8013BFAE710F80C
:10098000013BCB1A921C03E013F8015B01F8015BF9
:10099000521EF9D5A142D8D3002070BDEFF30981D2
:1009A00041B1F1EE101A40F8041D20ED200A3E4935
:1009B0000A6810607047B0EC200A02C8E1EE101A15
:1009C0003A490A681060704772B64EF62250CEF26D
:1009D000000040F2FF01C0F2000101704FF0000082
:1009E00080F3098807F06EFB40F26410C2F2000049
:1009F000016881F3088840F2DE00C2F2000040F294
:100A0000DF01C2F200010A78027040F25C15C2F206
:100A1000000540F26011C2F200010A682A60106805
:100A200080F30988EFF3148040F0020080F314880B
:100A3000BFF36F8FBDE8F00F0FBCBDE8005006BCE0
:100A400062B608471A484FF0805101607047184855
:100A50004FF080510160704772B6EFF3098020E9D2
:100A6000F00F40F25C15C2F200052E68306074464B
:100A700007F028FB40F2DE00C2F2000040F2DF0186
:100A8000C2F200010A78027040F26011C2F2000165
:100A90000A682A6044F0F40E1068B0E8F00F80F3A2
:100AA000098862B6704700005C01002060010020E8
:100AB00004ED00E0002904D0816841F0010181606B
:100AC0007047816821F0010181607047084A116810
:100AD000084B1940D0F804C0036843EA0C03D0F86F
:100AE00008C0C0684CEA0000184308431060704713
:100AF00004230140E030FCFF002904D0816841F468
:100B0000807181607047816821F4807181607047D5
:100B1000002904D0816841F40071816070478168C8
:100B200021F400718160704710B4426822F4807231
:100B300022F0407291F804C00B6842EA0C221A437A
:100B4000426082680D4B1A40D1F80CC00B694C7999
:100B500043EA0C03D1F808C04CEA440C43EA0C0306
:100B60001A438260C26A22F47002097D491EC9B22A
:100B700042EA0151C16210BC70470000FDF7FFC09E
:100B800030B4072509290CD9C468A1F10A0C0CEB73
:100B90004C0C05FA0CF5AC4303FA0CF32343C36089
:100BA00009E0046901EB410C05FA0CF5AC4303FACA
:100BB0000CF3234303614FF01F0C072A0CD2436B45
:100BC000521E02EB82020CFA02FC23EA0C03914053
:100BD0001943416330BC70470D2A0CD2036BD21FFE
:100BE00002EB82020CFA02FC23EA0C039140194347
:100BF000016330BC7047C36A0D3A02EB82020CFA03
:100C000002FC23EA0C0391401943C16230BC7047D7
:100C1000816841F08041816070470021016001716D
:100C200041718160C160016101210175704700005F
:100C300084B000240025DFF87880DFF87890002762
:100C400003AED8F8300201281DD199F80000002821
:100C500019D103A9184807F029FA03A9174807F082
:100C600025FA012455B916A013F05AFC00230522D9
:100C7000194618460097019607F0A4FAE843C5B252
:100C80001AA016F0F0FA012C08D103A90A4807F0BF
:100C90000BF803A9094807F007F800240022FA23FB
:100CA000114610460097019607F08CFAC9E700003C
:100CB0000000434279000020C416002009110008FA
:100CC0004054657874546F53706565636823C4E35A
:100CD000BAC3A3ACD3D0CAB2C3B4CED2BFC9D2D4E4
:100CE000B0EFC4E3B5C4C2F0A3BF24006F6E0A0026
:100CF00082B00A4C206880F400502060002001F08F
:100D0000D7FC012802D106A016F0ADFA01AA0021F5
:100D10004FF47A7007F014FAECE700001408024070
:100D2000C4E3D4DAC3FECED20A00000086B0164E69
:100D3000002505AC03A904A800F0C3FFD8B9BDF88D
:100D400010004CF6CD414843C10C0491BDF80C0095
:100D50004CF6CD425043C00C039030460AF00CFED6
:100D600005AA00214FF47A7007F0EAF9BDF80C10DB
:100D700030460AF001FE00230A2219461846009563
:100D8000019407F01FFAD5E7001001402DED048B08
:100D900084B000271A4CDFED1B8A9FED1B9A1B4D78
:100DA0001B4E0DF10C08208800EE100AB8EE400A28
:100DB00020EE280A20EE098A18EE100AFFF790FCB0
:100DC00041EC100B13A053EC102B16F04CFA18EE5C
:100DD000100AA84209DC307838B90022114616A062
:100DE00012F07CFD18A013F09BFB00231A4605218E
:100DF0001846CDF80480009707F0E4F9D3E7000027
:100E00003C00002000008039CDCC5441000020413E
:100E1000790000200D0A20546865206375727265A0
:100E20006E742041442076616C7565203D202566F6
:100E30002056200D0A000000303A6D656964696132
:100E40006E2E6A70670000004054657874546F53CA
:100E5000706565636823BFECC3BBB5E7C1CBA3ACCA
:100E6000D2AAB8F8CED2BBBBB5E7B3D8BFA9A3A16D
:100E70002400000084B0144D002603AF08F0D0FF1A
:100E8000A5FB00214908A1EB81010844C4B224B9A3
:100E9000002211460DA012F021FD012C04D10022E8
:100EA00011460DA012F01AFD022C04D100221146A9
:100EB0000CA012F013FD00231422194618460197C6
:100EC000009607F07FF9D9E7ABAAAAAA303A706377
:100ED0002E6A706700000000303A7063322E6A702C
:100EE00067000000303A7063332E6A7067000000BC
:100EF0002DE9F0478AB000F09EFB00F07DFA00F08B
:100F0000F9FA05F0E7FD01224BA14C4815F0F4FA7F
:100F10004B49487009A806F039FC4A4A09AD4FF020
:100F20000408462348A1A2F12000CDF800800195D5
:100F300005F0C4FF002403264FF42F794648069499
:100F4000059405274FF0460A0796CDF80C900190BE
:100F50002346424A42A1CDF808A00497009608957E
:100F6000A0F5D06006F074FC8020089503900594ED
:100F70000C213F4A079606940720019202910090A7
:100F8000049700233B4A3CA13F4806F061FC3F48E0
:100F900006940594CDF808A0CDF80C90019000239C
:100FA0003B4A3CA1CDF800800497079608953D4840
:100FB00006F04EFC4FF496701E213B4A07960895AA
:100FC00006940594019202910390049700230097E0
:100FD000364A37A13A4806F03BFC4FF400700895BA
:100FE000039005943321374A07960694082001920E
:100FF0000291009004970023334A34A1374806F049
:1010000027FC64200895039005940A21344A07962A
:101010000694062001920291009004970023314A21
:1010200031A1374806F014FC09A9364806F0D2FC75
:101030000AB0BDE8F0870000303A00009C040020B0
:1010400079000020EC1400204D656D20466F722061
:101050005465737400000000441D0020750E0008E4
:10106000417070205461736B2053686F7742510058
:1010700034300020F10C0008417070205461736B13
:10108000204C6564310000004418002034320020F8
:1010900009110008417070205461736B2074616CF9
:1010A0006B00000004190020243D00202D0D0008D5
:1010B000417070205461736B204C656433000000F4
:1010C000C4190020342800208D0D000841707020C4
:1010D0005461736B20506F77657200008417002095
:1010E000D4410020310C0008417070205461736BB2
:1010F00020436865636B50656F706C65000000008D
:10110000841A00200416002086B00024654F4FF09A
:10111000010905AEA046002302AA1946184600960A
:1011200006F0F6FC054660A0298816F09CF887F8C2
:1011300000902A88062A2FD007DC012A0ED0022A26
:101140001AD0042A40F0A2801BE00C2A66D00F2A95
:1011500057D0142A40F09A8000F084B857A016F0B7
:1011600082F805AA00214FF4FA6006F0E9FF55A0C5
:1011700013F0D6F900F08AB85AA016F074F800F00F
:1011800085B85AA016F06FF805AA00214FF47A70BE
:1011900006F0D6FF00F07AB856A016F064F803A95E
:1011A00004A800F08EFD18B154A013F0B9F96DE059
:1011B000BDF80C004CF6CD414843C20CBDF8100000
:1011C0004843C10C57A013F0ABF905A9634806F0DA
:1011D0006DFF0022114662A012F080FBBDF81000E6
:1011E0001C2807D361A013F09BF90022114667A0C9
:1011F00012F074FB05AA002144F6206006F0A0FF5F
:1012000044E065A016F02FF805A9544806F04EFFFB
:101210000022114662A012F061FB37E063A016F0D5
:1012200022F805A94D4806F041FF0022114661A0B1
:1012300012F054FB14B9634813F072F9012C02D177
:10124000614813F06DF90023192219461846CDF8AC
:101250000080019606F0B6FF601CC4B2022C15D3C4
:10126000002413E059A015F0FEFF05A93B4806F045
:101270001DFF012003F092F9002003F0ABF901F00B
:10128000A5FD0122022153A012F0ACFA05A93348B2
:1012900006F00AFD87F8008005AA2946514805F0A6
:1012A0008CFE38E7790000205265636569766544F5
:1012B000617461203D2025640A000000C4E3BAC3C4
:1012C0000A0000004054657874546F53706565637C
:1012D0006823D3D0CAB2C3B4CED2C4DCB0EFC4E367
:1012E000B5C42400C3FBD7D60A000000D0D4B1F0A7
:1012F0000A000000CEC2B6C80A000000405465785B
:1013000074546F53706565636823B0A1D1BDCED2AC
:10131000B5C4CEC2B6C8B4ABB8D0C6F7BBB5C1CBA6
:10132000240000004054657874546F537065656301
:101330006823CFD6D4DAB5C4CEC2B6C8CAC75B6EEE
:10134000325D2564A3ACCAAAB6C8CAC7B0D9B7D69D
:10135000D6AE5B6E325D256424000000C41600200A
:10136000303A7869616F2E6A706700004054657882
:1013700074546F53706565636823D5E2D5E6B5C4D0
:10138000CCABC8C8C1CBA3A124000000303A6B7518
:101390002E6A706700000000C9FAC6F80A00000053
:1013A000303A666168756F2E6A706700D0A6BBB070
:1013B0000A000000303A68616E7869616F2E6A70C9
:1013C00067000000044E04087C4D0408B1BFB5B0AE
:1013D0000A000000303A72656E7A68752E67696699
:1013E00000000000CC14002000B585B0684608F06D
:1013F00045FC019805B000BD10B50121080308F0B7
:10140000E9FB4FF4A06005F01FFC00F01FFE00F0A8
:101410007FF800F0D1F808F0C3FC1D4815F023FF59
:101420001C4815F020FF1C4815F01DFF194815F049
:101430001AFF174815F017FF05F0E0F909F08CF8CE
:1014400016A015F010FF04F0E4FC0AF023F802F0F7
:1014500013F915A015F007FF08F070FD17A015F09F
:1014600002FF00F07DFC78B119A015F0FCFE08F039
:10147000BDFC012003F092F86FF07F4003F0AAF862
:10148000BDE8104001F0A2BC17A015F0ECFEEEE79D
:10149000384D0408B04C0408F44C0408534452413D
:1014A0004D204F4B210A00004755495F496E697432
:1014B00020537563657373210A00000041445F493E
:1014C0006E697420537563657373210A0000000010
:1014D00048617665206E6F742066696E64204448AA
:1014E0005432320A000000004448543232204F4B3C
:1014F000210A000010B5FFF777FF04490968B0FB27
:10150000F1F0BDE8104006F047BF0000D0780108B8
:1015100070B586B00121022008F05CFB012188042F
:1015200008F082FB224E07220B21304600F0E3FF39
:1015300007220A21304600F0DEFF00248DF8164015
:1015400001218DF8171002258DF81450890204919D
:101550008DF8155004A9304600F082FF8DF8145024
:10156000A802049004A9304600F07AFF4FF4E1305D
:101570000090ADF80440ADF80640ADF80840ADF875
:101580000C400C20ADF80A000A4C694620460AF0CF
:1015900075F905F010FB012240F2255120460AF0B2
:1015A00050F9012120460AF015F906B070BD00007F
:1015B000000402400048004030B587B001214020BF
:1015C00008F008FB0121202008F03CFB174D082201
:1015D0000E21284600F08FFF00248DF816400121CF
:1015E0008DF8171002218DF814104A0304928DF81B
:1015F000151004A9284600F033FF4FF4E1300090A5
:10160000ADF80440ADF80640ADF80840ADF80C4028
:101610000820ADF80A00064C694620460AF02EF96B
:10162000012120460AF0D6F807B030BD001802406C
:1016300000140140FEE710B500F018F8BDE81040B6
:1016400000F010B810B5FEF7E5FD0446102104487F
:1016500005F03BFA2046BDE81040FEF7DFBD000074
:10166000ACA30020FFF7EEBFFEE700000249002018
:10167000086000F009B800009400002001490860EB
:10168000704700009400002010B5FFF7ADFE084938
:101690000A6842F080720A60064900224A600A68BD
:1016A00042F001020A60BDE81040FFF7E7BF00000A
:1016B000FCED00E0001000E00148406870470000C9
:1016C000001000E0022014F0E1B8000070B50B4DEE
:1016D00000242C600A48016821F0C0010160016803
:1016E00041F04001016007480460FFF7EBFF012073
:1016F0002860FFF7E7FF2C6070BD0000988243422E
:10170000002002408C02444210B582B001218020AA
:1017100008F060FA0121080208F05CFA402000900D
:1017200001248DF8044000208DF806008DF8074054
:1017300002208DF805006946074800F091FE082058
:1017400000906946054800F08BFE05480460054896
:10175000C0F8984202B010BD001C024000200240B8
:101760008C0244420080434270B50B4E002434602A
:101770000A48016821F0C0010160016841F04001A0
:101780000160074801250560FFF79CFF3560FFF702
:1017900099FF346070BD00009882434200200240EF
:1017A0008C0244422DE9F047824600241748016824
:1017B00021F0C0010160016801601E2014F066F88C
:1017C0000025134FDFF84C9000264FF00108C7F8B2
:1017D0009862FFF777FFC7F898826006040ED9F881
:1017E0000C0208B1601CC4B2FFF76CFF681CC5B2E4
:1017F000082DECD3BAF1000F04D0FFF767FF2046A5
:10180000BDE8F087FFF7B0FFF9E7000000200240D5
:1018100000804342000044422DE9F047054613484A
:10182000016821F0C0010160016841F040010160E0
:101830000F4E4FF00008C6F898820024DFF834906D
:101840000127E809C9F88C026806050EFFF73AFF80
:10185000C6F89872FFF736FFC6F89882FFF732FF96
:10186000601CC4B2082CECD3BDE8F0870020024015
:10187000008043420000444270B50B48016821F0EB
:10188000C0010160016841F040010160074D012085
:101890002860074E30601E2013F0F8FF00242C60F3
:1018A000FFF710FF346070BD002002408C024442FC
:1018B0009882434270B50B48016821F0C001016075
:1018C000016841F040010160074D00202860074E8B
:1018D00030601E2013F0DAFF01242C60FFF7F2FEC7
:1018E000346070BD00200240988243428C02444222
:1018F00070B500241248016821F0C0010160016840
:101900000160104D0120C5F88C020F4EC6F89802F8
:10191000FFF7D8FED5F80C0268B1601CC4B2FA2CEF
:1019200003D9FFF7C7FF012070BDFFF7CBFED5F845
:101930000C020028F1D10020C6F8980270BD00000A
:1019400000200240000044420080434270B5002560
:101950004FF4803400E0641E24B1802008F0B6FB10
:101960000028F8D02CB140F2FF5008F06BFB28465D
:1019700070BD032070BD000070B5054600244749C6
:10198000086810F0450F03D1086810F0450FFBD030
:1019900010F0040F05D00324042008F053FB204668
:1019A00070BD10F0010F05D00124012008F04AFBA2
:1019B000204670BD08F084FBA84201D0102070BD05
:1019C00040F2FF5008F03EFB002008F09BFB34493A
:1019D000084201D1204670BD10F0004F01D01C20FC
:1019E00070BD10F0804F01D0092070BD10F0005F75
:1019F00001D00A2070BD10F0805F01D00B2070BDB7
:101A000010F0006F01D00C2070BD10F0806F01D07D
:101A10000D2070BD10F0807F01D00E2070BD10F43D
:101A2000000F01D00F2070BD10F4800F01D01020E6
:101A300070BD10F4001F01D0112070BD10F4801F84
:101A400001D0122070BD10F4002F01D0132070BD02
:101A500010F4802F01D0142070BD10F4003F01D08D
:101A6000152070BD10F4803F01D0162070BD10F419
:101A7000004F01D0172070BD10F4804F01D0182006
:101A800070BD10F4005F01D0192070BD10F0080F78
:101A900001D01A2070BD204670BD0000342C0140DA
:101AA00008E0FFFD10B50024104A116811F0450F41
:101AB00003D1116811F0450FFBD011F0040F05D0D0
:101AC0000324042008F0BEFA204610BD11F0010FD7
:101AD00005D00124012008F0B5FA204610BD40F2DF
:101AE000FF5008F0AFFA204610BD0000342C014032
:101AF00010B500240B4A116811F0450F03D111688D
:101B000011F0450FFBD011F0040F05D00324042081
:101B100008F098FA204610BD40F2FF5008F092FA03
:101B2000204610BD342C014070B506460C460025F9
:101B30001F4A106810F0450F03D1106810F0450FD0
:101B4000FBD010F0040F05D00324042008F07AFA2B
:101B5000204670BD10F0010F05D00124012008F0CF
:101B600071FA204670BD08F0ABFAB04201D01020E7
:101B700070BD40F2FF5008F065FA002008F0C2FA8C
:101B800010F4604F04D010F4005F05D0132070BD36
:101B9000000C2080284670BD10F4804F01D010202A
:101BA00070BD10F4004F01D00F2070BD284670BDED
:101BB000342C014010B500204FF480310E4B1A68D0
:101BC00001E0491E1A6812F0450F01D10029F8D131
:101BD00011B112F0040F05D00324042008F032FAEA
:101BE000204610BD12F0400FFBD00024402008F02A
:101BF00029FA204610BD0000342C014070B50024A5
:101C00001448016821F00C01016001680160124D67
:101C100004E0601CC4B2012013F038FED5F80402C1
:101C200008B1642CF5D3642C01D3012070BD0024CD
:101C300004E0601CC4B2012013F028FED5F80402B1
:101C400008B9642CF5D3642C01D3012070BD0020A9
:101C500070BD0000000802400000414270B5002441
:101C6000104D04E0601CC4B2012013F00FFED5F843
:101C7000040208B1642CF5D3002404E0601CC4B253
:101C8000012013F003FED5F8040208B9642CF5D343
:101C90001E2013F0FBFDD5F8040208B1012070BD31
:101CA000002070BD0000414270B5002000244006B5
:101CB000050EFFF7D3FF2843611CCCB2082CF6D3E6
:101CC00070BDF0B583B006460F4600F02DF8FFF763
:101CD00095FF10B103B00120F0BD002401ADFFF766
:101CE000E3FF2855601CC4B2052CF8D39DF804000E
:101CF0009DF805109DF8072008449DF80610114432
:101D000008449DF8081088420BD101A809F034FD61
:101D100013F0CEFE3880A81C09F02EFD13F0C8FE8B
:101D2000308003B00020F0BD10B50B48016821F0F1
:101D30000C010160016841F004010160074C0020C2
:101D40002060142013F09DFD01202060BDE81040AC
:101D50001E2013F09BBD0000000802408402414297
:101D600000B583B00121042007F034FF0220009069
:101D700001218DF8041000228DF806208DF807103F
:101D80008DF805006946044800F06AFBFFF7CCFFB8
:101D9000FFF734FF03B000BD0008024001490220F4
:101DA0008860704700B0024009F0B2B8074A90421C
:101DB00001D2074800E00748074A11F0005F01EA36
:101DC000020101D0C1607047816070471064024019
:101DD00000600240006402407D0F7D0F002904D0A6
:101DE000016841F0010101607047016821F00101C3
:101DF000016070472DE9F003016821F001010160E5
:101E00000021016041608160C16001612121416167
:101E1000444A45494FF03D08904204D1C1F808803A
:101E2000BDE8F0037047414A4FF47464904203D117
:101E30008C60BDE8F00370473D4A4FF47415904242
:101E400003D18D60BDE8F00370473A4A4FF07466E5
:101E5000904203D18E60BDE8F0037047364B374A9D
:101E6000984203D1CA60BDE8F0037047DFF8D0C0E4
:101E7000344B604503D1CB60BDE8F0037047324F6F
:101E8000DFF8C8C0B84204D1C1F80CC0BDE8F00307
:101E90007047DFF8BC904FF03D57484503D1CF6005
:101EA000BDE8F0037047DFF8AC902B49484504D1FA
:101EB000C1F80080BDE8F0037047DFF8A08040451E
:101EC00003D10C60BDE8F0037047254CA04203D15C
:101ED0000D60BDE8F0037047224CA04203D10E60B4
:101EE000BDE8F0037047204C2049A04203D10A60AE
:101EF000BDE8F00370471E4A904203D10B60BDE875
:101F0000F00370471B4A904204D1C1F800C0BDE8FD
:101F1000F0037047184A9042F9D10F60BDE8F00312
:101F200070470000106002400060024028600240DC
:101F30004060024058600240706002403D00002056
:101F400088600240400F0020A060024000003D2059
:101F5000B8600240106402400864024028640240F5
:101F60004064024058640240706402400C640240C5
:101F700088640240A0640240B8640240002904D092
:101F8000016841F0200101607047016821F02001E3
:101F90000160704711F0800F09D022B1436943F00E
:101FA0008003436103E0436923F080034361802998
:101FB00005D001F01E011AB102681143016070479B
:101FC000026822EA010101607047000010B4026853
:101FD0001C4B1A40D1F80CC00B688C6943EA0C0307
:101FE000D1F814C04CEA040C43EA0C03D1F81CC02D
:101FF00043EA0C03D1F820C043EA0C03D1F824C013
:1020000043EA0C03D1F828C043EA0C03D1F834C0EA
:1020100043EA0C03D1F838C043EA0C031A430260C8
:10202000426922F00702D1F830C0CB6A43EA0C03C0
:102030001A4342610A6942604A6882608968C160E5
:1020400010BC70473F801CF07047000070B586B030
:102050000121084607F0BEFD0121102007F0F2FD26
:102060001E4E07220A21304600F045FA07220921B8
:10207000304600F040FA00248DF8164001218DF81A
:10208000171002258DF81450490204918DF815504F
:1020900004A9304600F0E4F98DF814506802049069
:1020A00004A9304600F0DCF94FF4E1300090ADF8BF
:1020B0000440ADF80640ADF80840ADF80C400C20E7
:1020C000ADF80A00064C6946204609F0D7FB01210D
:1020D000204609F07FFB06B070BD00000000024002
:1020E0000010014000234FF0204210280BD0B0F523
:1020F000807F0AD0B0F5805F0AD0D2F8580131EA6B
:10210000000009D107E0506EF9E7D2F88400F6E745
:10211000D2F8A400F3E7012318467047426801682B
:1021200011438268C068521E520142EA40200843AF
:102130000149086070470000500100A030B40368F6
:102140009900A1F1C041D1F840116FF30E01D0F810
:1021500008C04268046942EA0C02D0F80CC04CEA9C
:10216000040C42EA0C02D0F814C042EA0C02D0F887
:1021700018C042EA0C0CC2694CEA0204D0F820C034
:1021800044EA0C05446A254329434FF02045002BBF
:1021900048D0D5F840316FF30E0342EA0C022343D6
:1021A0001A43C5F8402102689200A2F1C042C2F869
:1021B00040110168A9B38900A1F1C041D1F84811CB
:1021C00001F07042816A0B68D1F804C05B1EACF16B
:1021D000010C43EA0C13D1F808C0ACF1010C43EA3E
:1021E0000C23B1F810C0ACF1010C43EA0C431A43C4
:1021F000D5F8483103F07043D1F80CC0898AACF1AE
:10220000010C4FEA0C3C491E4CEA01511943C5F838
:10221000481100688000A0F1C040C0F8482130BCDF
:10222000704702E0C5F84011C3E7D5F8481101F046
:102230007041806A02684368521E5B1E42EA0312C4
:1022400083685B1E42EA0322C3685B1E42EA0332D4
:10225000038A5B1E42EA0342838A007E5B1E42EAD7
:102260000352401E42EA00600843C5F8480130BCF2
:102270007047000002490A6842EA4000086070475F
:10228000540100A02DE9F04782B00E46002400253D
:10229000009501955D4F4FF00809C7F80090102098
:1022A00078604FF04008C7F80880FD604FF4806AFE
:1022B000C7F810A0384607F065FF1020FFF75CFB59
:1022C000002834D1524800890004386037207860F3
:1022D000C7F80880FD60C7F810A0384607F052FF25
:1022E0003720FFF749FB002821D1411E07F11400D8
:1022F0000160C0F80490302181600221C160056155
:102300000121416107F0B6FE3D6033207860C7F8D7
:102310000880FD60C7F810A0384607F033FF33206F
:10232000FFF72AFB8146B9F1000F03D0484602B0FF
:10233000BDE8F087374F386840F22A6810EA080F86
:102340000ED16D464FF4001007F0C0FE20B107F02B
:1023500013FF45F82400641C386810EA080FF1D018
:10236000082007F0B3FE30B1082007F06BFE042010
:1023700002B0BDE8F087022007F0A8FE30B10220CD
:1023800007F060FE022002B0BDE8F087202007F0D1
:102390009DFE30B1202007F055FE062002B0BDE8BA
:1023A000F0874FF4007007F091FE38B14FF40070E1
:1023B00007F048FE072002B0BDE8F08740F2FF506A
:1023C00007F040FE00980099000601F47F4140EAC2
:1023D0000120009901F47F0140EA1120009940EAB0
:1023E0001160706001980199000601F47F4140EA94
:1023F0000120019901F47F0140EA1120019940EA8E
:102400001160306002B04846BDE8F08770040020DB
:1024100024000020342C01400E4810B5006802F062
:10242000D9F80D48006802F0E0F8012002F048F900
:10243000002002F053F9002002F060F9002002F0C1
:10244000DFF80648006802F0E7F8BDE81040002019
:1024500002F008B9100200200C020020080200203F
:102460002DE9F00100220126032706FA02FC0B6881
:1024700003EA0C03634538D10568530007FA03F4F7
:10248000A54305600D79D0F800809D4045EA080518
:1024900005600D79012D01D0022D17D18568A54366
:1024A00085604D79D0F808809D4045EA0805856033
:1024B000456825EA0C0CC0F804C0D0F804C08D793A
:1024C0009540ADB24CEA050CC0F804C0D0F80CC081
:1024D0002CEA040CC0F80CC091F807C00CFA03F306
:1024E000D0F80CC043EA0C03C360521C102ABCD3C2
:1024F000BDE8F00170474B07DB0E9A40C90800EBBE
:102500008100016A4FF00F0C0CFA03F3994301624A
:10251000016A11430162704741837047018370472C
:102520002DE9F04385B00121802007F053FB012104
:10253000080207F04FFB4FF08008CDF80080002420
:102540008DF8044001268DF8076002278DF805708C
:10255000DFF8C49069464846FFF782FF30020090DA
:102560008DF804608DF8064069462C48FFF778FF27
:10257000FFF7CAF82A4D2C600A2013F082F92E606A
:102580000A2013F07EF9CDF800808DF804408DF814
:1025900007408DF8057069464846FFF761FF6420E3
:1025A00013F06FF9042202A948F2401000F04EF82F
:1025B0008DF80C4002A91BA011F0B2FF1CA102A8CB
:1025C000FDF7A2FE18B105B00120BDE8F0838DF83B
:1025D0000870012202A948F2400000F03BF90122F4
:1025E00002A948F2470000F031F89DF80810602970
:1025F00002D211A011F094FF0A2013F042F98DF8D5
:102600000840012202A948F2400000F023F905B079
:102610000020BDE8F0830000001C024000200240C2
:10262000A00244424354502049443A25730D0A0005
:10263000393134370000000044656661756C7420E0
:102640005665723A25640D0A000000002DE9F0413C
:1026500004460E461546FFF70FF92820FFF7DCF871
:10266000FFF746F9200AFFF7D7F8FFF741F9E0B284
:10267000FFF7D2F8FFF73CF9FFF7FEF82920FFF744
:10268000CBF8FFF735F90024002D0CD96F1EBC42A2
:1026900001D0012000E00020FFF784F83055601CD5
:1026A000C4B2AC42F3D3BDE8F041FFF703B9000078
:1026B0002DE9F14783B00024A146624D2878401CE3
:1026C000C1B229706048614FA0FB0120C0084042A0
:1026D00000EB800011EB400001D00A297ED20122DC
:1026E00003A948F24E10FFF7B1FF9DF80C004FF020
:1026F000000810F0800F0BD000F00F00062807D262
:10270000CDF80480012201A948F24E1000F0A2F891
:102710009DF80C0010F00F0F73D000F00F0006288A
:102720006FD2FF2101FA00F0019097F82060C043BA
:1027300040F0C00087F82000B889B882F88AF88392
:10274000DFF80CA14FF0010997F8200009FA04F115
:1027500008422DD03AF81400042202A9FFF776FFB0
:1027600097F8300010F0010F10D09DF808009DF888
:10277000091000EB012107EB440081819DF80A104C
:102780009DF80B2001EB0221C18211E09DF80800A9
:102790009DF8091000EB012107EB4400C1829DF870
:1027A0000A109DF80B2001EB0221C1F5887181818F
:1027B000601CC4B2052CC7D34FF00109B989384653
:1027C000B1F5F07F03D8C18AB1F5887F17D99DF89C
:1027D0000C1001F00F01012908D900E011E0C189B6
:1027E0008181018BC18285F800800AE0818A818124
:1027F000C18BC1828021039180F8206001E085F8BF
:1028000000809DF80C0000F08F00802811D197F80F
:10281000200010F0800F04D020F0800087F8200006
:1028200007E04FF6FF71B981F98200F0E00087F808
:1028300020002878F02801D90A20287004B04846E2
:10284000BDE8F08778000020CDCCCCCC440000203F
:10285000927801082DE9F04104460E4615460027FE
:10286000FFF70AF82820FEF7D7FFFFF741F8200A04
:10287000FEF7D2FFFFF73CF8E0B2FEF7CDFFFFF71F
:1028800037F80024002D0BD9305DFEF7C5FFFFF7A8
:102890002FF80746380003D1601CC4B2AC42F3D312
:1028A000FFF708F83846BDE8F0810000014AC2E9A8
:1028B00000017047B8010020014AC2E900017047D9
:1028C000C0010020014AC2E9000170479C020020BB
:1028D000014AC2E900017047C8010020014AC2E96B
:1028E00000017047A40200202DE9F04FDFF828B165
:1028F00091B04FF0FF35DBF80030B3F922100691AC
:10290000DE69B3F92490F469A189814206D8E2898D
:10291000824203D3471AD4F8008012E0D4E901813F
:1029200000296FD00A8882426CD84D88854269D3CD
:10293000801A82B2486800EB8200B0F90070B0F9EA
:102940000250781C5ED0307EA17C10FB01FA217C05
:10295000CDE90701B3F92A60304603F041FCC0B26B
:102960000E90DBF8000007FB0A81A37C826B012735
:10297000CDE90412CDE90273C069089AC17E807E58
:10298000CDE90001DDE90603494602F057FE681C67
:1029900018D046F0020003F023FCDBF80000A37C13
:1029A00005FB0A81826BCDE90273CDE90412C0698F
:1029B000089AC17E807ECDE90001DDE90603494623
:1029C00002F03CFEDBF800005D46C069417E007EFF
:1029D000814214D9022E12D086F0040003F000FCCC
:1029E0002868C069027EC37E12FB0391437E857E08
:1029F000089A06984B4412FB050202F081FF0E98DC
:102A000003F0EEFBDBF80000627C418C1144418452
:102A100011B0BDE8F08F00001402002004480068E7
:102A2000C069C06909B1027C0A60407C704700003F
:102A300014020020022008807047C06982898A42FF
:102A400002D8C2898A4210D2806880B102888A4244
:102A50000DD843888B420AD3406800EB8100A0EB7D
:102A60008200B0F90000002801DB0120704700203F
:102A7000704700002DE9F0410025154E154C18E077
:102A80002069C5EB051700EBC7007022001D3168F7
:102A9000FDF707FC2069002140F8371000EBC70064
:102AA00000F10C018161011D0A1DC0E90F126D1CAE
:102AB0004164A0688542E3DB0EF0ACFD2169C0EB08
:102AC000001001EBC000001D3060BDE8F081000087
:102AD00014020020E402002070B510490E4808607E
:102AE000084602F0F1FC0D4C143CA068C0EB00104D
:102AF000C500284600F06CF8094B20612A461B6887
:102B0000002198474FF0FF30206001F0B1FFBDE891
:102B100070400EF07FBD0000112D0108F80200206A
:102B2000CC02002010B5040009D001F0B7F820460F
:102B30000AF006F8044601F059FF204610BD0020B7
:102B400010BD000038B5054601F0A8F82846FFF78B
:102B5000E9FF04000AD000F0BBF8064B00902A46BB
:102B60001B6800219847684600F0F0F801F03EFF2E
:102B7000204638BDCC020020024A106021F003003C
:102B80005060704768DB002010B5040011D001F0E0
:102B900085F80848042101EBC401406B415848689E
:102BA00009F086FF204610F00FFABDE8104001F052
:102BB0001DBF10BDA8DA0020002805D0034AD16B44
:102BC000016001B14860D06370470000A8DA0020BE
:102BD0002DE9F04104460FF0C7FA2848E41C24F020
:102BE0000305016C2D1DA94200D90D46C46B13E0ED
:102BF00054F8042CAA420ED184B1216809B162684C
:102C00004A60616809B122680A60C26BA24231D190
:102C10002168C1632EE02468002CE9D18046816BD5
:102C2000C0680F1857F8040C3E1A306838B10020FD
:102C300010F03EFB57F8040C3E1A3068D0B97068AB
:102C4000A84217DB3044441B3046241D10F0E8FA3C
:102C5000D8F80C10491BC8F80C10D8F814102944E7
:102C6000C8F814107068401B02D0314609F020FFEC
:102C700044F8045C2046BDE8F0810000A8DA00209A
:102C800010B500240FF070FA0C490F2001EBC002C0
:102C9000526C1AB101EBC000406C08E0401EF5D543
:102CA00008E04168A14200D90C46806810B18068F4
:102CB0000028F6D1A4F10C0010BD0000A8DA002015
:102CC00002488169491C816170470000A8DA002030
:102CD0000549CA69521CCA61496B01EBC0010A78F7
:102CE000521C0A7000F04AB8A8DA002010B500F0B3
:102CF000D5FFFFF7C5FF64220849B0F5800F04D95E
:102D000090FBF2F4086A444303E0096A4143B1FBD3
:102D1000F2F401F06BFE204610BD0000A8DA00209E
:102D20000549102805D94A68B0EB520F02D3500864
:102D300000E010208860704768DB0020024881694D
:102D4000491E816170470000A8DA00200A49026824
:102D50004B6B52F8082C03EBC2021378022B03D3FF
:102D6000CB690BB15B1ECB611178491E117000213C
:102D70000160084670470000A8DA002003490422D9
:102D800002EBC000496B085808307047A8DA0020F1
:102D900010B5C2B2CBB2D21A00D5524293B25B4345
:102DA000C0F30722C1F30724121B00D55242000CC6
:102DB00092B2A0EB114002FB023200B2002801DA0D
:102DC000404200B280B200FB002010BD10B50021CF
:102DD000084600F041FC43F6FF725042BDE8104047
:102DE00013460146AFF300802DE9FC411C46154611
:102DF0000E46074600F052FF042003F0F1F980462A
:102E000012484069C16C006D0F4406440D440444EF
:102E1000ADF80070ADF80450ADF80260ADF80640B2
:102E2000684609F0E9FA07E023462A463146384663
:102E300002F066FD09F0A2FA0028F5D1404603F041
:102E4000CFF901F0D3FDBDE8FC81000000020020B5
:102E50002DE9F0411C4616460D460746022B02DBC3
:102E60000020BDE8F0811C20FFF7B2FE0028F8D05A
:102E70000DB105610AE0094A52F8241009B905E0CC
:102E800011460A68002AFBD10969016184618682C2
:102E9000002101604160C0E90217E2E74002002022
:102EA00070B51D46FFF7D4FF040009D000F00EF8FE
:102EB000E068006820B90348006800EB850084657D
:102EC000204670BD14020020FFF776BE70B5C0B377
:102ED0008269022A36DA2149531C0C789C4200DAB6
:102EE0000B701F4C54F8221019B944F8220032E03C
:102EF00019464B68002BFBD106E0CB68C5681B6800
:102F00002D68AB4203DD09680029F6D11AE0C1B192
:102F1000CB68C6681B683668B3420CD1838A012B24
:102F200005D008E01946DB681B68AB4203DB0B6881
:102F3000002BF7D129B14B6833B118604A68426061
:102F400004E0FFE7012070BD44F822004860884299
:102F500000D100210160002070BD00005E02002051
:102F60004002002010B503E00468FFF7AFFF2046E1
:102F70000028F9D110BD000010B50C4B826900216A
:102F800053F82240844205D1046843F82240026885
:102F900002B1516042680AB10368136002680AB165
:102FA000436853600160416010BD00004002002092
:102FB00000207047022801DB00207047054951F8C6
:102FC000200004E0C16809680029F6D000680028E4
:102FD000F8D17047400200202DE9F041044601F08D
:102FE00033FD0619164F1FE000F02EF838688442B2
:102FF00000DD0446A04600F051FE12480568FFF7C8
:103000005FFE2C0017D000BF01F0F0FC641EFBD166
:10301000404601F007FD1DB100F040FE6D1EFBD1E2
:10302000FFF78CFE01F0E2FC01F00EFD341A002CDB
:10303000DADCBDE8F081404601F0F4FCF0E7000086
:1030400098020020F002002010B5002400E00124C6
:1030500000F004F80028FAD1204610BD0B4810B546
:103060000068002410B1804700B1012408F056FE2A
:1030700000B101240648006810B1804700B1012466
:103080000448006800B18047204610BD200200209F
:103090004C0200204802002070B586B00DF1280CCB
:1030A0009CE87000CDE903018DE8700003A9024897
:1030B00000F004F806B070BDB73300082DE9FF4FEB
:1030C00089B08846DDE91765044600F0E7FD44F263
:1030D0000810FFF737FD5FEA00094FF0010755D0F0
:1030E000FFF7F6FD0490C0E90248012303AA0A2174
:1030F00000F052FA0398801D039003A802F0DAF959
:10310000834603A802F0D6F9824602F04FFD0890EC
:10311000214801680B98CA6C096D02EB00080C98F5
:10312000ADF814800C180BFB06F0B0FBF5F101EBC9
:103130000800401EADF818000AFB06F0B0FBF5F0E1
:103140002044401EADF81A00ADF8164005A809F05D
:1031500053F990B1DFF844A0DFF844B0CDE902BAEA
:10316000CDE9006522464146169B049800F074F8AC
:10317000074609F003F90028F0D1089803F008F891
:1031800004A8FFF7E3FD4846FFF7FEFC01F02EFC24
:103190000DB03846BDE8F08F14020020C3CE000801
:1031A000B9FE00081CB5CDE900016946014800F0F0
:1031B00003F81CBDB73300082DE9F8439846914643
:1031C0000D460646012700F069FD44F20810FFF79E
:1031D000B9FC04000FD0FFF77BFD0090C0E9026549
:1031E000424649460DF020FF07466846FFF7AEFD10
:1031F0002046FFF7C9FC01F0F9FB3846BDE8F8832B
:103200001CB5CDE900016946014800F003F81CBD7A
:10321000B73300082DE9F84390460D4606460127CE
:1032200000F03CFD44F20810FFF78CFC04000ED0C7
:10323000FFF74EFD0090C0E9026541460DF085FEA6
:1032400007466846FFF782FD2046FFF79DFC01F028
:10325000CDFB3846BDE8F8832DE9FF4F95B000203F
:10326000DDE92276DDE924988DF810009A46934630
:1032700018210CA8FDF73DF8142107A8FDF739F82F
:103280000024601E059011AB13AA12A915980EF028
:103290008FF98BE0002306AA0121159800F07CF934
:1032A000002860D106980578212D70D02C2D02D0F1
:1032B0003B2D7ED168E0002306AA0921159800F075
:1032C0006BF9002875D106A802F0F4F80C9006A856
:1032D00002F0F0F80D9006A802F0ECF80E9006A8A7
:1032E00002F0E8F80F9006980078109000060AD5D2
:1032F000109800F0070102208840014611901598AF
:103300000FF076FE78BBAAF10100844207D10C9839
:1033100007900D9808900E9809900F980A90A24572
:1033200022D19DF81000022806D1CDE9007607AB26
:103330000CAA59461698C0479DF810000599CDE98A
:103340000010CDE90276DDE915025B460CA9C847FD
:1033500048B9002306AA0121159800F01DF910B9FB
:1033600019B0BDE8F08F24E0002306AA01211598CA
:1033700000F012F9E8B9002115980DF0E7FC0028DB
:10338000F9DC641C3B2D85D10020E9E7FFE7A2456D
:1033900001D104AB01E04FF0000301D107AA01E025
:1033A0004FF0000205A915980FF044FE00283FF4E5
:1033B00071AF0120D4E730B505464068C41A00203B
:1033C000002C07DD944201DD104600E020462A680B
:1033D0001A440A6030BD00002DE9F041054643F271
:1033E00016104FF480572E1805F54054B1E000BF79
:1033F000D4F8F81C814235D1B94203DB4FF0FF30DD
:10340000BDE8F081564B4FF4005200211B6805F5D2
:103410008B709847002005E0291801F5005181F8CC
:103420001601401CD4F8F81C8142F5DCD4F8EC0CF1
:10343000401CC4F8E80C0846C4F8D06C490004F5F8
:103440004D64801CC4E90801A4F54D6428460DF0C4
:10345000B7FEC4F8000DD4F8F81C8842F6D0C4F8C2
:10346000040DCDE7D4F8FC1C814202D16FF00100BD
:10347000C6E7D4F8F01C0246814209DCD4F8D00C2F
:1034800094F8003D411CC4F8D01C0370D4F8040D1E
:1034900040F6B833D4F8F81C81421EDC291801F537
:1034A000005191F816C1D4F8D01C01F1010EC4F8F6
:1034B000D0EC81F800C005EB4001B1F91611814252
:1034C0009ED0D4F8D0CCACEB050CACF5405CACF5A0
:1034D0008B7C9C4594D20846DCE7284400F50050DC
:1034E00090F81631C4F8003DD4F8D00C411CC4F853
:1034F000D01C0370D4F8F00CB8421FDA05EB40037F
:10350000B4F8041D2844A3F8161100F5005094F8EF
:10351000001D80F81611D4F8F00C401CC4F8F00C13
:10352000D4F8F41C884209DBB94207DA4800C4F831
:10353000F40CD4F8E80C401CC4F8E80CC4F8042DD2
:10354000D4F8D00CB04204D9401EC4F8D00C007896
:1035500056E728460DF034FE0028BFF649AF4FE786
:10356000CC02002010B500F5405202F54D624B1C14
:10357000C2E90631012404FA01F3591CC2E90A31F7
:10358000991C1162590051620221C2E9041443F2EC
:1035900016110844106010BD2DE9F04117460D4684
:1035A00004460BB100202061D4E903030A46A66853
:1035B0003946B047A84202D00120BDE8F081206919
:1035C000284420610020F8E7034951F82000C16831
:1035D0008A6A0821104700004002002010B500F060
:1035E0005DFB03480068047C01F000FA204610BD32
:1035F0001402002070B515460E46044600F04EFB3E
:103600002A463146204602F017FB040002D0002073
:103610003060286001F0EAF9204670BD70B50C46B4
:10362000054600F03BFB2146284601F01FFEBDE8A1
:10363000704001F0DBB90000024951F82000006938
:103640000068704740020020024951F820000069DC
:10365000406870474002002070B50C46054600F0F7
:103660001DFB044800684584848401F0BFF90020F4
:1036700070BD0000140200202DE9F0411D480168D2
:1036800021F0010101601C48012686608168002943
:10369000FCD11A49016000681949884200D0FEE750
:1036A00001F0D0FA174C2E20207001F0D3F9164803
:1036B0000EF02AFC12F0ACFE074602F0E7FA10B159
:1036C00002F0F8FA38B902F0FEFA054602F0E7FA1D
:1036D000294602F07FFD0021084600F0D1FF08F0E6
:1036E00091FBFFF7C7F9A06900B18047A670384683
:1036F000BDE8F081002000E000300240C2A507F4E0
:10370000CDB5E8B50002002074DB00201CB5CDE982
:1037100000016946014800F003F81CBD9B3A00080F
:103720002DE9F8431E46174688468146012500F0DC
:10373000B5FA48F2BC40FFF705FA040009D03B4651
:103740004246494600960BF067F905462046FFF7CA
:103750001BFA01F04BF92846BDE8F8831CB5CDE90A
:1037600000016946014800F003F81CBD9B3A0008BF
:103770002DE9F84390460D460646012700F08EFAE3
:1037800048F2BC40FFF7DEF904000FD0FFF7A0FAC3
:103790000090C0E901656846FFF7D8FA4146204627
:1037A00000F08BF907462046FFF7EEF901F01EF90D
:1037B0003846BDE8F883F8B50546FFF789FA00906A
:1037C00000F5E04090F81C636846FFF7BFFA00245C
:1037D00010E0012322461946284609F04DFC30B975
:1037E000082322460221284609F046FC08B10120A0
:1037F000F8BD641CB442ECDB0020F8BD2DE9F047B5
:1038000000F5E0448246DFF86491D4F88804A2B061
:103810004FF00108002538B194F80804F0B300BF58
:10382000D4F8800430B32BE094F809040028504603
:1038300003D00FF0CBF890B915E00AF0AFFE70B9E5
:10384000D4F82014D4F8840488420CDC694650462D
:103850000FF032FC18B99DF80000D92803D00120E0
:1038600022B0BDE8F08784F80884D4F82004C4F8B6
:103870008804D5E7D4F87C04FFF72AFAC4F880045A
:103880000746D4F87404FFF723FA2090C0B100264D
:10389000D4F81804B04210DD209800E012E000EBEC
:1038A000C611D9F8003080226846984739466846E4
:1038B0000DF042FF761C4037EAE720A8FFF746FAF2
:1038C00084F8085494F80A0405281CD2DFE800F0B4
:1038D0002B270B0F030094F88804C0070BD1504628
:1038E0000AF006F80DE0504609F080FF09E094F870
:1038F0008804C00702D084F8948404E0504609F09C
:10390000E7FE84F89454D4F88804401EC4F8880470
:10391000D4F88404401EC4F884040020A0E7504674
:1039200009F082FEEDE7D4F88814D4F82004461A92
:10393000D4F88C04FFF7CCF980460090D4F88004CA
:1039400000EBC607D4F80C6409E0D9F8003008226F
:10395000394640469847761E08F108084037002E41
:10396000F3DC6846FFF7F2F9CBE70000D002002055
:1039700070B500F5E044054694F81C03042834D0E3
:1039800028460EF045FC28B194F81C0384F82D035A
:10399000002132E094F874232AB1002194F877339F
:1039A0001BB1012002E00121F8E7002094F87563C3
:1039B000B2421AD809B1C6B903E094F82D23012AFE
:1039C00013D118B194F876239A420ED121B108B1DF
:1039D0000E4905E00E4903E008B10E4900E00E492A
:1039E00028460AF05DFF0028CAD0012070BD681883
:1039F00000F5E04080F82E13491C94F82D0388420E
:103A0000F5DC284609F04CF9002070BD51E50008AE
:103A100069E40008C1E3000849E100082DE9F0412C
:103A200000F5E0440546D4F8800418B105F5E940F6
:103A3000FFF78CF9D4F88C0408B1FFF7A5F8D4F897
:103A4000900408B1FFF7A0F8D4F8740408B1FFF7A8
:103A50009BF8D4F87C0408B1FFF796F800260EE036
:103A600005EB061707F5E047D7F8C40308B1FFF7E1
:103A70008BF8D7F8840308B1FFF786F8761C94F822
:103A80001C03B042ECDCD4F87804002803D0BDE875
:103A9000F041FFF779B8BDE8F08130B50546002068
:103AA0006C68E41A002C07DD944201DD104600E04A
:103AB00020462A681A440A6030BDF8B50C4606460E
:103AC00000F03CF805465CB13046FFF701F9009084
:103AD000008A20600098408A60606846FFF736F9E7
:103AE0002846F8BD38B5054600F028F8040023D173
:103AF00028460EF03FFA04001ED12846FFF7E8F8EA
:103B000047F209410090095C81B109F075F80400A1
:103B10000FD1009800F5004090F8980448B9684625
:103B2000FFF714F928460AF03BFE38BD0EF070FB93
:103B300004466846FFF70AF9204638BD7FB50025E0
:103B4000FFF7C6F801260090044606771A48206061
:103B50000020A06102A920460DF091FD20BB226843
:103B600003A920469047F8B99DF80800FF281BD10B
:103B70009DF80C00D82817D18DF8040001A90098F1
:103B80000FF09AFA80B99DF80400C02808D0C12827
:103B900006D0C22809D1009800F5E04080F80964F9
:103BA00000980DF01EFC00B101256846FFF7CEF825
:103BB00004B0284670BD00007F1601082DE9F843C7
:103BC00000F500410446D1F8A024D1F8A40404F57E
:103BD000E0451044C1F8A404002015E095F81D2329
:103BE000D1F8A434022A08D1221802F5E04292F852
:103BF0002123C2F1030293FBF2F304EB800202F5EE
:103C00000042401CC2F8A83495F81C238242E5DC2F
:103C10000026DFF884902AE004EB061847F278319A
:103C200008EB0107F868FFF753F80090BA683968A5
:103C3000D9F800304A4379684A43002198476846DA
:103C4000FFF784F847F2B83108EB0107F868FFF78F
:103C50003FF80090BA683968D9F800304A4379686B
:103C60004A43002198476846FFF770F8761C95F89C
:103C70001C03B042D0DC102247F2F830D9F80030F3
:103C8000002120449847608AC5F884040020C5F8C4
:103C90008804BDE8F8830000CC02002070B5184C01
:103CA000E06820B100F0C8FE6168884204D000F0EE
:103CB000FBFE00F0C1FE6060E068401CE06001288F
:103CC0001CD10DF0A7FC05462068854216D00028BF
:103CD00013DBFFF76DF901462068C0EB0012206985
:103CE00000EBC2025167C5EB0511064A00EBC100AB
:103CF000011D1160406FFFF735F9256070BD0000B0
:103D0000E4020020140200201CB5040004D10E4877
:103D10000068046E002C16D0FFF7C0FF2046FEF7A7
:103D2000D7FF009044696846FFF710F84CB1204671
:103D3000FEF7CEFF019081688968884701A8FFF7E8
:103D400005F800F053FE1CBD1402002001490A468C
:103D500000F002B801F0FFFF2DE9F04387B01546EF
:103D60000C465FEA000846D0FFF798FF002000F0FD
:103D700047FC814621480068066E4046FEF7A8FFD2
:103D800000900068806900F009FC074640F6FF706B
:103D9000C44204D10098B0F90440B0F9065000982C
:103DA000611E0289ADF804401144ADF80810418944
:103DB000681E0844ADF80650ADF80A0007F0FAFD99
:103DC0006846FEF7C3FF01A808F016FB06E02A4686
:103DD0002146404600F0D0FA08F0D0FA0028F6D18B
:103DE000384600F0DBFB304600F090F9484600F022
:103DF00007FC00F0FBFD07B0BDE8F08314020020D3
:103E00002DE9FE4F984691468A46834600270C9E30
:103E1000FFF744FF184819490068407C51F82040DA
:103E2000E1680968042903D02468002CF8D100E077
:103E30001CB9FFF7BFF8041E1BD0E0680121C26A5D
:103E400020469047050011D02469A0688047401C97
:103E500002D10B4C46F001060096CDE901544346D1
:103E60004A465146584600F0E5F9074600F0BEFDC7
:103E70003846BDE8FE8F00001402002040020020FA
:103E8000E442040838B504001CD0FFF707FF0E48D1
:103E90000068006EA04201D100F072FB2046FEF7E0
:103EA00017FF0090406908B100F089FD0098006894
:103EB000FFF70AF86846FEF749FF2046FEF764FE62
:103EC00000F094FD38BD0000140200202DE9FF4FE2
:103ED00083B09A468B460746FFF7E0FEDFF838913D
:103EE000D9F80000447C4D4800570128204606DDE3
:103EF00001F0D2FE0546204601F0E2FE05E001F0A9
:103F0000B4FE0546204601F0B6FE04461FB302A9E2
:103F100001A8FFF783FBB7F90000002800DA0020B2
:103F2000B7F902608046002E00DA00260198411998
:103F3000B7F90400491E0EF045FE05460298011926
:103F4000B7F90600491E0EF03DFEA5EB0802841BE2
:103F5000521C641C03E04FF0000846462A46BAF1A2
:103F6000000F01D1C4F1000A002A51DD002C4FDD01
:103F700010980090534631464046FFF741FF5FEAF4
:103F8000000A10D000F07CF80746A04206D0D9F80D
:103F90000000806C10B1322108F002FD504600F0A4
:103FA000B5F8002523E059460598884700F01EFD26
:103FB000012007B0BDE8F08F611BB94202DA50461C
:103FC00000F088F83DB172194146504600F0C6F83D
:103FD0005046FFF799FE59460598884710480168F2
:103FE00009B1002088475046FFF7B0FE3D44A54286
:103FF000E2DB5046FFF746FF002000F087F8A742BB
:1040000006D0D9F80000806C10B1332108F0C8FC4C
:1040100000F0ECFC0020CCE7140200205C02002041
:10402000A403002038B505004FF0000411D0FFF7BD
:1040300035FE2846FEF74CFE009000680069806857
:10404000804702F0C1FB04466846FEF77FFE00F0A1
:10405000CDFC204638BD38B504000ED0FFF71EFE5B
:104060002046FEF735FE00F1180400906846FEF782
:104070006DFE00F0BBFC204638BD002038BD0000BE
:1040800038B504460025FFF709FE1CB9084800684A
:10409000046E44B12046FEF71BFE0090B0F90A50B2
:1040A0006846FEF753FE00F0A1FC284638BD00002C
:1040B0001402002070B505460024284609F0AEFD24
:1040C000641C18B1BDE8704000F07AB8052CF4DB30
:1040D00070BD000038B50C46050004D10A480068E0
:1040E000056E002D0FD0FFF7D9FD2846FEF7F0FD35
:1040F0000090B0F90A10A14200DD44816846FEF745
:1041000025FE00F073FC38BD14020020F8B505460A
:10411000FFF7C4FD104E3068046ECDB10CB100F055
:104120002FFA07F03BFD2846FEF7D2FD00903168DC
:104130000D660068FEF7CAFE6846FEF707FE02F04D
:10414000D1F802F011F800BF00F050FC2046F8BD95
:1041500000F016FAF8E70000140200207CB51546BE
:104160000E46040004D115480068046E002C24D0CB
:10417000FFF794FD2046FEF7ABFD2DB20090C58001
:1041800034B2848001F0F0FF0098406980B1FEF7FE
:104190009FFD009A0190B2F908108180B2F90A20BF
:1041A000C28011B10AB10480458001A8FEF7CEFD9E
:1041B0006846FEF7CBFD00F019FC7CBD1402002020
:1041C00001490A4600F002B801F0FFFF7FB515462D
:1041D0000C4606002DD0FFF761FD3046FEF778FD56
:1041E00040F6FF710190CC4203D1B0F90440B0F920
:1041F00006500289611E1144ADF80840ADF80C105C
:104200004189681E0844ADF80E00ADF80A5001A8B7
:10421000FEF79CFD02A808F0EFF806E02A462146CA
:10422000304600F091F808F0A9F80028F6D100F027
:10423000DDFB7FBD2DE9FF4FDFF8E8B083B01C4602
:10424000DBF80010DDE9106092464FF000084B7C6F
:1042500042461299FEF7FCFD050060D0286980688F
:10426000804702F0B1FA81460AFB09F1C91DCF0867
:10427000FEF73CFDF10705D1C11700EB91708010EE
:1042800000EB4000002C09DC1FB11838B0FBF7F040
:1042900000E000206442A04200DC0446F00707D1A1
:1042A0000090DDE903012346524600F00DFB8046F5
:1042B000002C03DC2846FEF707FE30E004FB07F085
:1042C0001830F10702D0FEF72DFC01E0FEF73AFCB2
:1042D00006001CD0FEF7FCFC01900560039981806C
:1042E0000499C180A0F808A04481C0F81480C0E9F6
:1042F000037901A8FEF72AFD1298AE602861DBF869
:104300000000407CA861304607B0BDE8F08F284629
:10431000FEF7DAFDB8F1000001D0FEF735FC002011
:10432000F2E7000014020020054B30B41B68054C76
:104330005B7C54F823301B6930BC0FF049BC000093
:104340001402002040020020F8B515460E4607462C
:10435000FEF7BEFC009000681621C068426A00208B
:10436000904704466846FEF7F1FC002C03D02A462D
:1043700031463846A047F8BDF8B516460F46050049
:1043800012D0FEF7A5FC009044696846FEF7DEFCFB
:104390002846FFF747FE0346082800DD2CB13246C9
:1043A000394628460FF0D4FCF8BD32463946284637
:1043B0000FF06EFEF8BD000070B5044609480D46CA
:1043C000016819B90849016001F07EF80548001F2D
:1043D000006800B10024002D00DC012503480555CC
:1043E00070BD000070020020B12C01085C020020AA
:1043F000094A126802B10020074A243252F82030DC
:10440000002B07DBA2F1180343F820104FF0FF3117
:1044100042F82010704700006C02002010B5002800
:1044200021D009B30AB3B1F90040B2F900309C427F
:1044300000DA23460380B1F90240B2F902309C420F
:1044400000DA23464380B1F90440B2F904309C42BB
:1044500000DD23468380B1F90610B2F906209142AF
:1044600000DC1146C18010BD11460A68026049682F
:10447000416010BD00280BD003880B440380838863
:1044800019448180418811444180C1881144C18010
:104490007047000070B50025FFF700FC094CD4E917
:1044A000002082420AD0D2E9005610460DF048FBA7
:1044B00020603146284607F099FD012500F096FA64
:1044C000284670BDD40200202DE9FC41154DDDE9E0
:1044D00008742D68B5F90860864200DD3046B5F9EC
:1044E0000C60964200DA3246824219DBB5F90A6066
:1044F0008E4200DD3146B5F90E509D4200DA2B4662
:104500008B420DDB00E02C46E5682D6825B1042DBB
:1045100002D02568002DF6D1CDE9007401F00EFD22
:10452000BDE8FC8114020020B0F90220B1F9063088
:104530009A4213DCB1F90220B0F906309A420DDC40
:10454000B0F90020B1F904309A4207DCB1F900104B
:10455000B0F90400814201DC01207047002070475F
:104560000146024870220068FBF79BBE140200203F
:10457000024970220968FBF794BE00001402002073
:1045800010B5FFF78BFB01F0A5FD01F0ABFE07F0C6
:1045900011FABDE8104000F029BA000070B50B4DCB
:1045A00004462868467CFFF779FB022C09D2204696
:1045B000FEF700FD28B128684474FFF7E1FF0448C6
:1045C000046000F013FA304670BD000014020020B1
:1045D0002003002010B50446FFF760FB204601F0E1
:1045E00099FDBDE8104000F001BA10B50446FFF790
:1045F00055FB204601F0C6FDBDE8104000F0F6B9BD
:1046000010B50446FFF74AFB204601F0E9FD0446D9
:1046100000F0ECF9204610BD70B50446FFF73EFBF4
:1046200004480068C56904B1C46100F0DFF9284698
:1046300070BD0000140200200249CA69C86110461A
:1046400070470000D0010020014948607047000019
:104650000002002002494A68486010467047000086
:10466000D001002070B50546FFF718FB034800682D
:10467000847E857600F0BAF9204670BD14020020D1
:1046800070B50C460546FFF709FB09482246058030
:104690000848048008480068417C084850F8210018
:1046A000C1680B6A29469847BDE8704000F09EB982
:1046B000680200206A02002014020020400200204C
:1046C00070B50546FFF7EAFA03480068047E0576F0
:1046D00000F08CF9204670BD1402002070B504462D
:1046E000FFF7DCFA04480068B0F92C50848500F02C
:1046F0007DF9284670BD00001402002070B5044604
:10470000FFF7CCFA04480068B0F92A50448500F05D
:104710006DF9284670BD00001402002002480068B0
:10472000002800D0004770470003002002498A6833
:1047300002B98860FFF7F2BFD402002010B5040070
:104740000ED0FFF7ABFA20460EF084FD20460FF0A6
:10475000A3F92046FEF718FABDE8104000F046B96C
:1047600010BD38B50C46050011D0FFF797FA284662
:10477000FEF7AEFA00908089204201D0012400E0CB
:1047800000246846FEF7E2FA00F030F900E0012468
:10479000204638BD38B50546002028600648046824
:1047A00044B12046FEF794FA0090006928606846FC
:1047B000FEF7CCFA204638BD9003002038B504003F
:1047C0004FF000000D46086011D02046FEF780FA39
:1047D0000090846844B16846FEF7B8FA2046FEF7B8
:1047E00077FA0090006928606846FEF7AFFA204625
:1047F00038BD2DE9F0411E46069C17468846054601
:104800003A46A8687F1C3346D0F804C04146284683
:10481000E047641EF4D1BDE8F08170B5B0F9004006
:10482000091BB0F904408C422CDD00F11404B0F9EE
:1048300002500069521B02FB0040CA1800EBE10461
:10484000521ED010B0EBE10501F007034FF0FF015D
:1048500002F0070221FA03F0C2F1070201FA02F1A5
:10486000CEB221780FD001436D1E04F8011B002D3C
:1048700005DDFF2229462046FBF734FD2C44207835
:104880003043207070BD30400143217070BD10B5C1
:10489000B0F90030B0F90240C91A00F11403006900
:1048A000121B02FB003000EBE10001F0070302786D
:1048B0008021D9400A43027010BDB0F90610026988
:1048C00051431430FBF715BD2DE9F843804602F142
:1048D0000F000011470003FB07F01C4615468946F0
:1048E0001430FEF72FF9060018D0FFF7D7F930463D
:1048F000FEF7EEF90090A0F80080A0F80290858005
:10490000C480074981600121818107616846FEF703
:104910001DFA00F06BF83046BDE8F8830020FBE795
:10492000884B040870B5B0F90660B0F904400B6814
:1049300000F1140596421BDD0069A34202FB005002
:1049400000EBE30214DA641EE010A0EBE30512F8BA
:10495000010B03F00704A040C4B206E045B10833E0
:1049600012F8014B23F007036D1E002CF6D004E073
:10497000002070BD6006040E5B1C2006FAD5FF2CDB
:1049800007D0184602E06406240E401C6606FAD4DE
:1049900000E0D81DC443640705D006E012F8014BBF
:1049A000FF2C09D108306D1EF8D5C01A401C0B60D1
:1049B00070BD6206140E401C2206FAD4F5E738B525
:1049C0000546FFF76BF92846FEF782F900908189CA
:1049D000491E0CB284816846FEF7B8F914B928461E
:1049E000FEF7D2F800F002F838BD00000348C168B5
:1049F000491EC16001D100F065B87047E402002093
:104A000010B50749054808604FF40001FEF7B4F8F7
:104A1000BDE810408020FEF783B90000000080C090
:104A20007401002008B56A46002103F089FB08BD27
:104A30000120FFF7F7BF00000248006890F8370038
:104A4000704700005C01002008B5684603F05CFC7C
:104A500008BD000008B56B46002202A1034802F021
:104A6000FFFC08BD4B657953656D000080DA0020BE
:104A700008B56B46012205A1064802F0F1FC6B4621
:104A8000002205A1074802F0EBFC08BD44697370E1
:104A900053656D0030DA00204576656E7453656DA0
:104AA0000000000058DA002000B583B002A80023FF
:104AB00000901A461946024802F0FEFC03B000BD01
:104AC00030DA002008B56A460021024802F09CFD59
:104AD00008BD000030DA00200EB508B102AA00E0DF
:104AE0000022002301A9684600F072FB0EBD000001
:104AF000074910B50C7818B101200870801E03E03A
:104B0000002008706FF07F4000F056FD204610BD79
:104B10000102002010B5082A0EDC0346012A18D035
:104B2000022A56D0042A76D010F8042B03F8012B61
:104B3000491EF9D1012010BD102A08DC4FEA0002FD
:104B400030F8043B22F8023B491EF9D1F2E700207D
:104B500010BD10F8042BD207120E491E34D010F8E5
:104B6000044B491E04F0010442EA84122CD010F8D0
:104B7000044B491E04F0010442EA441224D010F808
:104B8000044B491E04F0010442EA04121CD010F840
:104B9000044B491E04F0010442EAC40214D010F888
:104BA000044B491E04F0010442EA84020CD010F8C0
:104BB000044B491E04F0010442EA440204D010F8F8
:104BC000044B04F00104224303F8012B0029C0D157
:104BD000B0E710F8042B9207120E491E15D010F8FA
:104BE000044B491E04F0030442EA04120DD010F8ED
:104BF000044B491E04F0030442EA840205D010F875
:104C0000044B04F003042243491E03F8012B00293E
:104C1000DFD18FE7FFE710F8042B1207120E491EB1
:104C200005D010F8044B04F00F042243491E03F88A
:104C3000012B0029EFD17DE738B50024009400F066
:104C40001DF838BD0B4810B5416B002910D101216A
:104C50004163FFF7D5FEFDF73FFF01F055FB054926
:104C6000054838310860BDE81040084600F02CBC0B
:104C700010BD000000020020792C01082DE9F04150
:104C80000D460699044601B901461F68082A09DC49
:104C90000E46012A1AD0022A5BD0042A7DD0082AA7
:104CA00013D18DE0102A07DCD3F810C00E46BCF1FA
:104CB000000F04D0022389E00020BDE8F08101CC80
:104CC000B84726F8020B6D1EF9D189E001CCB84730
:104CD000C0074FEA10686D1E36D001CCB84748EACD
:104CE000801000F0FF086D1E2ED001CCB84748EAB6
:104CF000401000F0FF086D1E26D001CCB84748EAEE
:104D0000001000F0FF086D1E1ED001CCB84748EA25
:104D1000C00000F0FF086D1E16D001CCB84748EA6D
:104D2000800000F0FF086D1E0ED001CCB84748EAA5
:104D3000400000F0FF086D1E06D001CCB84740EAE5
:104D4000080000F0FF086D1E06F8018B002DBDD194
:104D500046E001CCB84780074FEA10686D1E16D0B8
:104D600001CCB84748EA001000F0FF086D1E0ED0D5
:104D700001CCB84748EA800000F0FF086D1E06D05D
:104D800001CCB84740EA080000F0FF086D1E06F8A5
:104D9000018B002DDDD123E0FFE701CCB8470007F0
:104DA0004FEA10686D1E06D001CCB84740EA0800F3
:104DB00000F0FF086D1E06F8018B002DEDD10FE00D
:104DC000D3F810C0BCF1000F04D001232A462046BE
:104DD000E04705E001CCB84706F8010B6D1EF9D19C
:104DE00001206AE72DE9FF4F8DB00020DDF86CA0AF
:104DF000164600901D4604460246CAF8000008AB5D
:104E000003A902A800F0E4F918B1002011B0BDE830
:104E1000F08F0898854200DD0546624F0B95624988
:104E20003868407C51F82010049109690691FEF71A
:104E3000CBFB05903868407CFEF706FC5B49814659
:104E4000884204D05A49894501D0012000E0002061
:104E50000A9001CE1A9988478346000E079077D0B2
:104E6000009870BB0D9800EB04084E480068B0F93C
:104E70000800404503DDA0EB0807804600E000275E
:104E80000299049801EB840101EB8701CDE9001040
:104E90000B990D98421809920E9B40461946521ED6
:104EA000FFF712FB01200090059818280ADA0298F3
:104EB000DDE9052300EB840000EB8700E91B00F02F
:104EC000E5F812E00A9880B1029800EB840000EB4C
:104ED00087070998A0EB080849463868884701C742
:104EE000A8F101005FEA0008F6D1324BD86980B31F
:104EF000DDE9020700EB840007EB8402CDE9020242
:104F00002C4C361F3046E4692B460299A047FF20FF
:104F10003168B0EB116F02D10299096804E0029A7E
:104F20001268B0EB126F01D1039A1160029906F179
:104F30000406091D02910399091D03916D1EE7D115
:104F40000397DAF8000040F00100CAF8000022E000
:104F500023E0FFE70798FF2813D0C0F1FF02029873
:104F60001B6850F824102BF07F409847039941F8B4
:104F7000240000BFDAF8000040F00101CAF8001078
:104F800005E00298039950F8240041F82400641CBD
:104F90006D1E7FF45EAF039838E7039941F824B0A3
:104FA000E8E700001402002040020020B35D000882
:104FB000B15D0008D0010020F0B500EB8103082AA4
:104FC0000ADC01254C1E092A10D2DFE802F00F107E
:104FD000263E3E5555555500102A07DC00EB410092
:104FE000491E30F8022D43F8042DF9D1F0BD04F02C
:104FF0000702C2F1070200EBE40005FA02F60478AA
:105000003440D440521C43F8044DA0EBE20022F09F
:1050100007042241491EF0D1F0BD04F0030200EB69
:10502000A400C2F1030203240578560004FA06F72F
:105030003D40F540521C43F8045DA0EBA20022F075
:1050400003052A41491EEFD1F0BD8D4300EB6400FA
:10505000C5F101020F240578960004FA06F73D40D9
:10506000F540521C43F8045DA0EB620022F00105FC
:105070002A41491EEFD1F0BD00EB0100491E10F896
:10508000012D43F8042DF9D1F0BD00002DE9F05FAA
:105090000C1E16DD5E68014600EB8405082A12DC52
:1050A000611E012A26D0022A47D0042A6AD0082A83
:1050B00007D1071917F8010DB04745F8040D641E14
:1050C000F8D1BDE8F09F102AFBDC5F693FB12246B2
:1050D000BC46BDE8F04F02235DF804EB604701EBEE
:1050E000440700BF37F8020DB04745F8040D641EB1
:1050F000F8D1E6E700EBE10001F0070710F801A99D
:105100008146802020FA07F8B5F104050AEA080074
:10511000C7F10701C840B04745F804093FB14FEA5D
:1051200048604FEA10687F1E641EEFD1C9E719F886
:1051300001A907274FF00108F6E700EBA10001F0F5
:10514000030710F801A981467900C02020FA01F870
:105150004FF0060BB5F104050AEA0800ABEB470176
:10516000C840B04745F804093FB14FEA88604FEAAC
:1051700010687F1E641EEFD1A3E7032719F801A969
:10518000B846F7E700EB6100012710F801A9A74333
:105190008146B900F02020FA01F84FF0040B2D1FD2
:1051A0000AEA0800ABEB8701C840B04745F804099C
:1051B0003FB14FEA08704FEA10687F1E641EEFD1BE
:1051C0007FE719F801A901274FF00F08F6E7000063
:1051D0002DE9F047224C06461F46A06990468946B5
:1051E000002540B90120A06104F128011D48086094
:1051F000084600F069F9606930B91B4800686061D1
:1052000010B900F035FD606107B138604EB1A0689B
:1052100030B960698000FDF7DBFCA06000B90125B2
:105220003060B9F1000F0AD0E06830B960698000E1
:10523000FDF7CEFCE06000B90125C9F80000B8F127
:10524000000F0AD0206930B960698000FDF7C0FC0A
:10525000206100B90125C8F800002846BDE8F087A4
:10526000D0010020512C010854020020044AB2F958
:10527000002002600348B0F9000008607047000099
:10528000680200206A020020B0F90030B1F9002065
:10529000934200DA0280B0F90230B1F90220934261
:1052A00000DA4280B0F90430B1F90420934200DD05
:1052B0008280B0F90620B1F906108A4200DDC18073
:1052C000704770B5B1F90040B2F900309C4200DD82
:1052D00023460380B1F90250B2F90240A54200DD35
:1052E0002C464480B1F90460B2F90450AE4200DAB1
:1052F00035468580B1F90610B2F90620914200DBEF
:105300001146C1809D4201DBA14201DA002070BD3F
:10531000012070BD014602480068407C00F002B8E0
:10532000140200202DE9F84301268946044602288C
:105330005DDA304F7A6802B190472E4D5FEA09007E
:1053400005F1100532D0012803D0B9F1020F4ED17A
:1053500018E055F8240088B92046FDF72BFE009090
:1053600018B3C0680D21426A6846904702003ED0DB
:1053700049460098904755F824000026401C45F8FF
:10538000240034E02046FDF715FE009068B1C068A7
:105390000D21426A68469047040028D0386800B161
:1053A000804749460098A047002620E055F8240091
:1053B000A846012812D12046FDF7FCFD009068B1F7
:1053C000C0680D21426A68469047050006D03868DB
:1053D00000B1804749460098A847002658F8241095
:1053E00009B1012200E00022891A48F82410304651
:1053F000BDE8F8837803002030B581F07F43FF24B7
:1054000080F07F4094EA116101D120F07F43010ECA
:1054100011FB02F1B1FBF4F100F0FF15C1F1FF0245
:1054200003F0FF14544301FB05444FF0FF15240A19
:1054300005EA1323C0F30720534340F0807001FBBB
:10544000003104F0FF1001F0FF21084380F07F409D
:1054500030BD00002DE9F05F0646DDF838901546B6
:105460000C4600200D99804688421ED2DFF840B0DD
:105470000C9F4FF0FF0A02CE08CCAAEB116202FB90
:1054800009F2B2FBFAF0C2B221F07F401946DBF814
:105490000030984720F07F4001C57F1EEBD10A986D
:1054A00004EB800408F10100DCE7BDE8F09F000098
:1054B000D0010020016811F8012B11F8013B0160B7
:1054C00042EA03221046704702490A6B42600863B1
:1054D000704700000002002030B50346CCB202E065
:1054E00003F8014B521E0AB19907F9D1910818D05F
:1054F00004EB044502F0030205EB052506E020C39A
:10550000091F20C343F8085B43F8045C0429F6DA5A
:1055100001E020C3491E0029FBD102E003F8014B42
:10552000521E002AFAD130BD10B5830702D520F8EB
:10553000021B521E530811D001EB0144042B09DB5E
:1055400010C01B1F10C0042B40F8084B40F8044C3F
:10555000F6DA01E010C05B1E002BFBD1D20700D0B1
:10556000018010BDFEE7000070B5FF23104CB3EBC7
:10557000116F05D12346050E1B680AD0FF2D14D0EC
:105580000C4B02EB0212D2B21B689847216808400C
:1055900070BD514201EB01114FF07F4220F07F407E
:1055A00002EB01610843184070BD01EA030070BDC1
:1055B000B0030020D001002002490A6808601046AC
:1055C00070470000B00300200449054A0968497C7F
:1055D00052F82110096909680847000014020020E8
:1055E00040020020C1B2C0F30722C0F3074091423D
:1055F00007D1824205D111200831B1FBF0F078309B
:10560000704701EB8103FF2100EB800002EB820277
:105610007F307F337F32B0FBF1F0B3FBF1F3B2FBAD
:10562000F1F202EB420103EB410100EBC00001EBA0
:1056300080006C28E4D32830704700002DE9F04F3B
:1056400005468DB07B48DDF860901A9C00681E46C8
:1056500017464FF0000A78B11B9B199ACDF80890B5
:105660000593CDE90324DDE91623CDE90023046881
:1056700033463A46284680E0DDE9160201EB06088B
:1056800005EB070C1043A8F10108ACF1010C01284F
:1056900006D0C9F108000590002002910990C6E0EB
:1056A00065480268B2F90A30581A002806DD361A31
:1056B000002E63DD1946199B00FB0344B2F90E006E
:1056C000A8EB0000002802DD361A002E56DDB2F9E4
:1056D0000C00ACEB0000002800DD3F1AB2F90830E6
:1056E0000020AB4235DD581B3F1A4B46B9F1080F7D
:1056F00026D006DC012B0BD0022B11D0042B28D195
:1057000016E0102B1ED0182B1FD0202B21D11CE00F
:1057100020F0070304EBE0041D4400F0070018E04C
:1057200020F0030304EBA0041D4400F0030010E08C
:1057300020F0010304EB60041D4400F0010008E0C8
:10574000044404E004EB400401E004EB800405445D
:105750000020002F12DD1B9BDDF864C0CDE904039F
:10576000CDE90069CDE902C4527C34483B4650F88B
:105770002200C26854680A462946A0470DB0BDE819
:10578000F08F1799029808440C902B49401E009006
:105790000A68B2F90A30834241DCB2F90E1002986D
:1057A00081423CDB4FF0000BD84603950A9434E06D
:1057B000BBF1000F05D10A984FF0080B10F801ABB0
:1057C0000A900599ABEB090B3AFA01F00AFA09F1D4
:1057D00001F0FF0A04D118490968097C890716D429
:1057E00015490968C96B0A680B921B9A0AB152F8ED
:1057F0002000086016990398009B4218521E0299D7
:1058000000F07EF80C490B980968C96B0860039991
:10581000169808F1010808440390B845C8DB0998B8
:10582000401C09900C980290199804440998B042C1
:10583000A7DBA3E76402002014020020400200203E
:10584000F0B40C4612490968B1F90A30A3421CDCD5
:10585000B1F90E30A34218DBB1F90830834200DD04
:105860001846B1F90C30934200DA1A4682420CDB3A
:105870004B7C084951F8235013462246E9688E684C
:1058800001462846B446F0BC6047F0BC70470000B3
:1058900014020020400200200A46174930B409686B
:1058A000B1F90A30934225DCB1F90E30934221DB85
:1058B000B1F9083083421DDCB1F90C30834219DBA9
:1058C0000B7C0E4CDB0709D0497C54F82130D96899
:1058D000CC690146A44630BC18466047CB6B497C76
:1058E0001B6854F82140E1688D6901462046AC46AA
:1058F00030BC604730BC70471402002040020020DA
:1059000038B5134C2468B4F90850854200DD2846A8
:10591000B4F90C50954200DA2A46824217DBB4F9FA
:105920000A508D4200DD2946B4F90E509D4200DA3E
:105930002B468B420BDB0093647C064B53F82440D0
:10594000E3681D6913460A4601462046A84738BD4C
:1059500014020020400200202DE9F04F83B0012105
:105960004FF4F17004F036F94FF40079CDF800905F
:1059700002248DF805408DF8044000268DF806605D
:105980008DF80760DFF8E88169464046FCF768FD5E
:105990000E2209214046FCF7AEFD670200976946DA
:1059A0004046FCF75DFD0E220A214046FCF7A3FDB0
:1059B0004FF4006ACDF800A069464046FCF750FD60
:1059C0000E220B214046FCF796FDE002009069464E
:1059D0004046FCF745FD0E220C214046FCF78BFDAE
:1059E0004025009569466348FCF73AFD0E220621E2
:1059F0006048FCF780FD2003009069464046FCF7B4
:105A00002FFD0E220D214046FCF775FD600300902E
:105A100069464046FCF724FD0E2211464046FCF73D
:105A20006AFDA003009069464046FCF719FD0E226E
:105A30000F214046FCF75FFD4FF00108CDF80080D4
:105A4000DFF834B169465846FCF70AFD0E22002102
:105A50005846FCF750FD009469465846FCF700FD97
:105A60000E2201215846FCF746FD042000906946AD
:105A70005846FCF7F5FC0E2202215846FCF73BFD88
:105A8000CDF800A069463B48FCF7EAFC0E220B214A
:105A90003848FCF730FD1020009069465846FCF766
:105AA000DFFC0E2204215846FCF725FD4FF0200AAA
:105AB000CDF800A069465846FCF7D2FC0E2205211D
:105AC0005846FCF718FD009569465846FCF7C8FC97
:105AD0000E2206215846FCF70EFD802500956946EA
