:020000040800F2
:10000000F80C0120C10100084D7E0008A967000816
:10001000617D00080D1D0008F5CB00080000000000
:10002000000000000000000000000000E1C5000822
:100030002127000800000000590A00080D9600085A
:10004000FB010008FB010008FB010008FB010008A0
:10005000FB010008FB010008FB010008FB01000890
:10006000FB010008FB010008FB010008FB01000880
:10007000FB010008FB010008FB010008FB01000870
:10008000FB010008FB010008FB010008FB01000860
:10009000FB010008FB010008FB010008FB01000850
:1000A000FB010008FB010008FB010008FB01000840
:1000B000FB010008FB010008FB010008FB01000830
:1000C000FB010008FB010008FB010008FB01000820
:1000D000FB010008FB010008FB01000821CA000821
:1000E000FB010008FB010008FB010008FB01000800
:1000F000FB010008FB010008FB010008FB010008F0
:10010000FB010008B1B30008FB010008FB01000877
:10011000FB010008FB010008FB010008FB010008CF
:10012000FB010008FB010008FB0100088124000816
:10013000FB010008FB010008FB010008FB010008AF
:10014000FB010008FB010008FB010008FB0100089F
:10015000FB010008FB010008FB010008FB0100088F
:10016000FB010008FB010008FB010008FB0100087F
:10017000FB010008FB010008FB010008FB0100086F
:10018000FB010008FB010008FB010008FB0100085F
:10019000FB010008FB010008FB010008FB0100084F
:1001A0001D7B0008FB01000875240008DFF80CD057
:1001B00000F066FB0048004741860108F80C01206A
:1001C000DFF83800016841F470010160BFF34F8F20
:1001D000DFF82C00016821F040410160BFF36F8F10
:1001E0000848804708480047FEE7FEE7FEE7FEE7CD
:1001F000FEE7FEE7FEE7FEE7FEE7FEE788ED00E04C
:1002000034EF00E0C9C60008AD01000872B67047BF
:1002100062B67047EFF3108072B6704780F31088B3
:10022000704730BF704720BF7047B0FA80F070470A
:1002300090FAA0F0B0FA80F0704790FAA0F0704702
:100240002DE9F05F0546002092469B46884606460B
:10025000814640241BE0284641464746224600F09E
:1002600061FA53465A46C01A914110D311461846B6
:10027000224600F048FA2D1A67EB01084F46224645
:100280000120002100F03FFA17EB00094E41201E2B
:10029000A4F10104DFDC484631462A464346BDE866
:1002A000F09F10B5441A0346944209D284181144B1
:1002B00003E011F8013D04F8013D521EF9D210BDD2
:1002C00040EA0104A40703D009E010C9121F10C3BB
:1002D000042AFAD203E011F8014B03F8014B521E35
:1002E000F9D210BDD2B201E000F8012B491EFBD2B9
:1002F00070470022F6E710B513460A460446194631
:10030000FFF7F0FF204610BD10B5002200E0521CA0
:10031000835C8C5CA34201D1002BF8D1D8B2E1B24E
:10032000401A10BD2DE9FE4F804681EA0300C00F40
:100330000C46009021F0004123F00045B8EB02008C
:10034000A94105D24046214690461C460B4602462E
:1003500023F00040104347D0270DC7F30A00C3F332
:100360000A510290401A019040286BDAC3F313003F
:1003700040F4801B0098924620B10023D2EB030A80
:1003800063EB0B0B01985946C0F14002504600F058
:10039000BAF906460D4650465946019A00F0D2F980
:1003A00010EB08006141002487EA115284EAE773E8
:1003B0001A4340D0009A62B3019A012A4FEA0752C9
:1003C00015DC001B61EB02014FF0004202EA07520C
:1003D000CDE90042001C41F5801132462B4600F069
:1003E000D2F903B0BDE8F08F40462146F9E7001B83
:1003F00061EB0201001C41F5801300185B412018DD
:10040000A2F5001747EB030140EAD570B6196D411C
:1004100011E06D084FEA360645EAC0754FEA07520B
:10042000001B61EB0201001C41F5801149084FEAF5
:1004300030000019514132462B4603B0BDE8F04F61
:1004400000F092B90098012240000023D0EB020294
:1004500063EBE073009821464FEAE074B8EB0000CC
:1004600061EB0401E9E783F000435BE781F00041C1
:1004700058E72DE9FE4F81EA030404F0004421F01F
:10048000004100944FF0000B23F0004350EA0104B8
:100490005ED052EA03045BD0C3F30A54C1F30A5599
:1004A0002C44A4F2F3340194A0FB0254C1F31301D1
:1004B00041F48011C3F3130343F4801301FB02449E
:1004C00000FB034E840A970A44EA815447EA8357A3
:1004D000A4FB076802958D0A05FB07854FEA932C5C
:1004E00004FB0C542705029D4FEA065847EA1637CD
:1004F000B5EB08056EEB070C870E920E47EA8117E5
:1005000042EA8312A7FB0201B6EB0B0164EB000485
:100510002B0D43EA0C335E1844EB1C50DA4651466F
:10052000E7FB0201C5F313044FEA0B3343EA14530C
:100530004FEA0432019C43EA0603A4F10C0402943E
:10054000009CCDE900B400F01EF903B0BDE8F08FC7
:1005500000200146F9E72DE9F04D81EA030404F09B
:10056000004B21F0004514464FF0000A23F00041F3
:1005700050EA050220D054EA01021DD0C5F30A5703
:100580000246C5F31303C1F31300C1F30A5640F446
:10059000801543F48013A7EB0608101BD64608F21B
:1005A000FD3873EB050002D308F1010801E0921851
:1005B0005B41B8F1000F03DA00200146BDE8F08D81
:1005C00000204FF48011064684460EE0171B73EBA3
:1005D000050705D3121B63EB050306434CEA010C28
:1005E00049084FEA300092185B4150EA0107EDD10B
:1005F00052EA030012D082EA040083EA05010843AC
:1006000005D0101BAB4106D20122002306E00022D8
:100610004FF0004302E06FF0010253101AEB0600A6
:100620004CEB085110EB0A0041EB0B01BDE8F04D1B
:1006300000F09AB80EB5C10F80EAE0700844CA070E
:10064000002140F233438DE80E000A460B4600F0CD
:100650009AF803B000BD0EB540F23341029100217B
:10066000CDE900110A460B4600F08DF803B000BD3D
:1006700070B5C1F30A5201F000450024C1F3130123
:1006800040F2FF3341F480119A4201DA002070BD3C
:1006900040F233439A42A2F2334203DC524200F06A
:1006A00041F800E090402C43F1D0404270BDC1F3CE
:1006B0000A5210B5C1F3130140F2FF3341F4801127
:1006C0009A4201DA002010BD40F233439A42A2F26E
:1006D000334203DC524200F025F810BD904010BDBB
:1006E00000F0004230F000400AD0C10D01F5607109
:1006F000C0F3160042EA0151C20840071143704797
:10070000002001467047202A04DB203A00FA02F15B
:10071000002070479140C2F1200320FA03F31943EF
:1007200090407047202A04DB203A21FA02F0002191
:10073000704721FA02F3D040C2F1200291400843F1
:1007400019467047202A06DBCB17203A41FA02F0FF
:1007500043EAE07306E041FA02F3D040C2F120021E
:10076000914008431946704710B5141E73F10004F8
:1007700008DA401C41F1000192185B411A4301D193
:1007800020F0010010BD2DE9F04D92469B4611B1BD
:10079000B1FA81F202E0B0FA80F220329046FFF71F
:1007A000B2FF04460F4640EA0A0041EA0B015346F5
:1007B0005A46084313D0114653EA010019D0C8F134
:1007C00040025046FFF7AEFF05460E4650465946DA
:1007D0004246FFF798FF084305D0012004E0204679
:1007E0003946BDE8F08D0020054346EAE0762C430B
:1007F00037430A986305E40AA0EB08000022FD0ACB
:1008000044EA47540A3002D500200146E9E70105D1
:1008100010196941DDE9084500196941BDE8F04D4D
:10082000A2E770B521F0004303430CD0C1F30A5591
:100830000024D5EB040564EB0403D617AD1AB341CD
:1008400002DB0020014670BD201841EB025170BD53
:1008500030B5041E71F1000404DB4FF00044404247
:1008600064EB0101141E73F1000405DB1C464FF01C
:100870000043524263EB0403994208BF904230BDEB
:10088000064C074D06E0E06840F0010394E80700DD
:1008900098471034AC42F6D3FFF78CFCA8760408D6
:1008A000C87604082DE9F04D00231A461B1A8A4128
:1008B00003DB00200146BDE8F08DC1F30A52C1F30D
:1008C000130141F480154FF0000BD10702D100183D
:1008D0006D41521E0027044640F2FF11384601EBDD
:1008E000620A3E468046024600204FF48011FFF720
:1008F00019FFC2197141BB1846EB0100B4EB030CA0
:1009000075EB000C04D3E41A65EB000517460E46A0
:10091000241908F101006D4180463428E3DDF919FE
:1009200046EB0600091BA84103D24FF0FF321346E5
:1009300001E0002213461BEB070046EB0A51BDE81D
:10094000F04DFFF711BF70B58C1810F8015B15F072
:10095000070301D110F8013B2A1106D110F8012B31
:1009600003E010F8016B01F8016B5B1EF9D12B0756
:1009700005D40023521E0DD401F8013BFAE710F80C
:10098000013BCB1A921C03E013F8015B01F8015BF9
:10099000521EF9D5A142D8D3002070BDEFF30981D2
:1009A00041B1F1EE101A40F8041D20ED200A3E4935
:1009B0000A6810607047B0EC200A02C8E1EE101A15
:1009C0003A490A681060704772B64EF62250CEF26D
:1009D000000040F2FF01C0F2000101704FF0000082
:1009E00080F3098808F0BAFC40F26410C2F20000FB
:1009F000016881F3088840F2DE00C2F2000040F294
:100A0000DF01C2F200010A78027040F25C15C2F206
:100A1000000540F26011C2F200010A682A60106805
:100A200080F30988EFF3148040F0020080F314880B
:100A3000BFF36F8FBDE8F00F0FBCBDE8005006BCE0
:100A400062B608471A484FF0805101607047184855
:100A50004FF080510160704772B6EFF3098020E9D2
:100A6000F00F40F25C15C2F200052E68306074464B
:100A700008F074FC40F2DE00C2F2000040F2DF0138
:100A8000C2F200010A78027040F26011C2F2000165
:100A90000A682A6044F0F40E1068B0E8F00F80F3A2
:100AA000098862B6704700005C01002060010020E8
:100AB00004ED00E0002904D0816841F0010181606B
:100AC0007047816821F0010181607047084A116810
:100AD000084B1940D0F804C0036843EA0C03D0F86F
:100AE00008C0C0684CEA0000184308431060704713
:100AF00004230140E030FCFF002904D0816841F468
:100B0000807181607047816821F4807181607047D5
:100B1000002904D0816841F40071816070478168C8
:100B200021F400718160704710B4426822F4807231
:100B300022F0407291F804C00B6842EA0C221A437A
:100B4000426082680D4B1A40D1F80CC00B694C7999
:100B500043EA0C03D1F808C04CEA440C43EA0C0306
:100B60001A438260C26A22F47002097D491EC9B22A
:100B700042EA0151C16210BC70470000FDF7FFC09E
:100B800030B4072509290CD9C468A1F10A0C0CEB73
:100B90004C0C05FA0CF5AC4303FA0CF32343C36089
:100BA00009E0046901EB410C05FA0CF5AC4303FACA
:100BB0000CF3234303614FF01F0C072A0CD2436B45
:100BC000521E02EB82020CFA02FC23EA0C03914053
:100BD0001943416330BC70470D2A0CD2036BD21FFE
:100BE00002EB82020CFA02FC23EA0C039140194347
:100BF000016330BC7047C36A0D3A02EB82020CFA03
:100C000002FC23EA0C0391401943C16230BC7047D7
:100C1000816841F08041816070470021016001716D
:100C200041718160C1600161012101757047002837
:100C300000DC40427047000082B0064C206880F41F
:100C40000050206001AA00214FF47A7008F0C4FB24
:100C5000F4E700001408024086B021A0006802906A
:100C6000204E9DF80870002505AC03A904A801F0EA
:100C700094FB00282AD1BDF810004CF6CD41484322
:100C8000C00C0490BDF80C004843C00C03903946DA
:100C900030460BF0B0FFBDF8101030460BF0B8FF37
:100CA0009DF8091030460BF0A6FFBDF80C10304639
:100CB0000BF0AEFF9DF80A1030460BF09CFFBDF81C
:100CC0001020BDF80C1008A017F021FD00230A2207
:100CD000194618460095019408F0C0FBC5E70000CE
:100CE00054480D000010014068756D203D202564BA
:100CF0000A74656D3D2025640A0000002DED048B0B
:100D000084B000271A4CDFED1B8A9FED1B9A1B4D08
:100D10001B4E0DF10C08208800EE100AB8EE400AB8
:100D200020EE280A20EE098A18EE100AFFF7D8FCF8
:100D300041EC100B13A053EC102B17F0E8FC18EE4D
:100D4000100AA84209DC307838B90022114616A0F2
:100D500013F0D8FF18A014F0F7FD00231A46052160
:100D60001846CDF80480009708F078FBD3E7000020
:100D70003C00002000008039CDCC544100002041CF
:100D8000790000200D0A2054686520637572726531
:100D90006E742041442076616C7565203D20256687
:100DA0002056200D0A000000303A6D6569646961C3
:100DB0006E2E6A70670000004054657874546F535B
:100DC000706565636823BFECC3BBB5E7C1CBA3AC5B
:100DD000D2AAB8F8CED2BBBBB5E7B3D8BFA9A3A1FE
:100DE0002400000084B0AC4EAC4F4FF000080DF171
:100DF0000C090AF061F9A6FB00214908A1EB810169
:100E00000144CCB2A7FB0021C9086FF00A0201FB24
:100E10000200C5B22946A2A017F079FC25B900222C
:100E20001146A3A013F06EFF012D04D1002211463C
:100E3000A2A013F067FF022D04D100221146A2A048
:100E400013F060FF032D1AD1012004F0C3FB002032
:100E500004F0DCFB02F094FE0523012202219DA098
:100E600013F0B8FE24B90022114691A013F04AFFF6
:100E7000012C07D00022114693A013F043FF042D4C
:100E800006D020E0002211468CA013F03BFFF6E7CD
:100E9000012004F09FFB002004F0B8FB02F070FE7C
:100EA0000523012202218FA013F094FE24B9002211
:100EB00011467FA013F026FF012C07D00022114617
:100EC00081A013F01FFF052D06D020E0002211465F
:100ED0007AA013F017FFF6E7012004F07BFB002057
:100EE00004F094FB02F04CFE05230122022181A0B4
:100EF00013F070FE24B9002211466DA013F002FF1A
:100F0000012C07D0002211466FA013F0FBFE062D26
:100F100006D020E00022114668A013F0F3FEF6E7A9
:100F2000012004F057FB002004F070FB02F028FEC3
:100F300005230122022173A013F04CFE24B90022E4
:100F400011465BA013F0DEFE012C07D000221146F3
:100F50005DA013F0D7FE072D06D020E00022114639
:100F600056A013F0CFFEF6E7012004F033FB00207B
:100F700004F04CFB02F004FE05230122022165A0CF
:100F800013F028FE24B90022114649A013F0BAFE3E
:100F9000012C07D0002211464BA013F0B3FE082D00
:100FA00006D020E00022114644A013F0ABFEF6E785
:100FB000012004F00FFB002004F028FB02F0E0FD0C
:100FC00005230122022157A013F004FE24B90022B8
:100FD000114637A013F096FE012C07D000221146CF
:100FE00039A013F08FFE092D06D020E00022114613
:100FF00032A013F087FEF6E7012004F0EBFA0020A0
:1010000004F004FB02F0BCFD05230122022149A0EB
:1010100013F0E0FD24B90022114625A013F072FE62
:10102000012C07D00022114627A013F06BFE0A2DD9
:1010300006D020E00022114620A013F063FEF6E760
:10104000012004F0C7FA002004F0E0FA02F098FD55
:101050000523012202213BA013F0BCFD24B900228C
:10106000114613A013F04EFE012C0FD000221146A2
:1010700015A013F047FE0023142219461846CDF898
:101080000490CDF8008008F0E9F9B2E6002211469C
:101090000AA013F037FEEEE7ABAAAAAAA38B2EBADA
:1010A00052616E6444617461203D2025640A000031
:1010B000303A70632E6A706700000000303A706347
:1010C000322E6A7067000000303A7063332E6A7007
:1010D00067000000303A7869616F6A69332E67698A
:1010E00066000000303A7869616F6A69342E67697A
:1010F00066000000303A7869616F6A69352E676969
:1011000066000000303A7869616F6A69362E676957
:1011100066000000303A7869616F6A69372E676946
:1011200066000000303A7869616F6A69382E676935
:1011300066000000303A7869616F6A69392E676924
:1011400066000000303A7869616F6A6931302E6755
:10115000696600002DE9F04F8BB000F0D8FD00F07B
:10116000B7FC00F033FD06F001FE01225BA15C48F4
:1011700016F016FC5B4948700AA807F053FCFFF70D
:1011800049F88346584A0AAD4FF00408462357A150
:10119000A2F12000CDF80080019506F0DBFF0024CD
:1011A00005274FF42F794FF0460A5448069403263A
:1011B0000594CDF808A0CDF80C9001900497234633
:1011C0004F4A50A1009707960895A0F5E86007F0F0
:1011D0008BFC80200895039005940C214D4A0796BE
:1011E00006940920019202910090049700234A4A34
:1011F0004AA14E4807F078FC4D48069401900594AA
:101200000620CDF808A0CDF80C9000900497079622
:1012100008950023474A48A14B4807F065FC4FF466
:1012200096700895039005941E21484A07960694E7
:10123000072001920291009004970023444A45A19F
:10124000484807F051FC48480694019005944FF433
:1012500000794FF0330A0A20CDF808A0CDF80C90A1
:1012600000900497079608950023404A40A14448FF
:1012700007F03AFC4348069405940796CDF80C9085
:1012800001900023404A41A1CDF808A004970096A0
:101290000895434807F028FC424806940594CDF889
:1012A00008A0CDF80C90019000233F4A3FA1CDF853
:1012B0000080049707960895404807F015FC0AA996
:1012C000374808F03FF80AA93D4807F0CFFC5846D8
:1012D000FEF7A4FF0BB0BDE8F08F0000303A00002D
:1012E000AC04002079000020FC1400204D656D2026
:1012F000466F72205465737400000000141E0020B5
:10130000E50D0008417070205461736B2053686FC5
:101310007742510004310020390C000841707020E0
:101320005461736B204C6564310000005418002038
:101330000433002039150008417070205461736B2C
:101340002074616C6B00000014190020F43D002033
:10135000590C0008417070205461736B204C656417
:1013600033000000D419002004290020FD0C0008DF
:10137000417070205461736B20506F77657200006C
:1013800094170020A44200206914000841707020C6
:101390005461736B20546F7563685363616E000012
:1013A000941A0020A44A0020C51300084170702040
:1013B0005461736B20546F7563680000541B0020E8
:1013C0001416002084B000240125144E00270DF1CE
:1013D0000C08716800208847012804D110A017F07C
:1013E00096F9601CC4B2052C05D3012D03D10EA0C3
:1013F00014F0AAFA0025082C05D325B912A014F080
:10140000A3FA0024012500224FF4E173114610468F
:10141000CDF80480009708F021F8DAE744000020B6
:10142000746F7563680A00004054657874546F5394
:10143000706565636823BAC3D1F7B0A12CB1F0C35E
:10144000FECED2C1CB2400004054657874546F5353
:10145000706565636823D4D9C0B4A3ACCED2D2AAD8
:10146000D2A7C4E3C1CB240088B0DFF8C0904FF00E
:10147000010A02AF4FF6FF784FF0000BD9F80410C5
:1014800000208847002499F820000AFA04F1084255
:101490003BD009EB4405A889B0F5F07F37D2E98A43
:1014A000B1F5887F33D237F82420424504D127F89C
:1014B000240007EB84004180012004F08BF84FF4F6
:1014C0007F0004F0AEF807EB8406EB8AAA897188E6
:1014D00037F8240002F044FDA88927F82400E98A9F
:1014E0007180B0F5E47F12D9282910D202F048FBB0
:1014F0000F4804F0ADF8FF2004F093F80A224FF4EF
:10150000E4710CA002F012FD01E027F8248007A886
:101510000022019005231146CDF800B0104607F0D7
:101520009DFF601CC4B2052CADD3A7E7440000208A
:10153000B46604085253540086B00024D74F4FF0CD
:1015400001090DF114080026002302AA19461846C5
:10155000CDF8008007F028FC0546D1A0298817F0B7
:10156000D6F887F800902A880C2A00F0D38009DC8E
:101570000A2A80F08C81DFE802F0F41927F42CF4B9
:1015800037F4F476162A00F0078107DC0F2A00F002
:10159000AF80142A40F07B8100F0E4B8172A00F0F5
:1015A0003181182A40F0738100F05AB9C1A017F0B8
:1015B000AEF805AA00214FF4FA6007F00DFFBFA0B6
:1015C00014F0C2F900F063B9BAA017F0A0F800F067
:1015D0005EB9C2A017F09BF805AA00214FF47A70FB
:1015E00007F0FAFE00F053B9BEA017F090F803A977
:1015F00004A800F0D2FE40B1BCA014F0A5F905A9E2
:10160000C44807F09DFC00F042B9BDF810004CF64C
:10161000CD414843C00C0490BDF80C004843C00CB9
:10162000039005A9BB4807F08DFE00221146BAA021
:1016300013F068FBBDF810101C2908D3B9A014F0F2
:1016400083F900221146BFA013F05CFB04E0BDF853
:101650000C20BFA014F078F905AA002144F6206000
:1016600007F0BAFECBE7C8A017F051F805A9A948C2
:1016700007F068FE012003F0ADFF002003F0C6FF75
:1016800002F07EFA0022322311461046CDF8048083
:10169000009607F0E3FEBE4814F056F90323022239
:1016A0000121BCA013F096FA032302220121BCA061
:1016B00013F090FA032302220121BCA013F08AFA4E
:1016C000032302220121BCA013F084FA0323022287
:1016D0000121BCA013F07EFA032302220121BCA049
:1016E00013F078FA05A98B4807F02AFC00F0CFB870
:1016F000BAA017F00CF805A9864807F023FE0022CF
:101700001146B8A013F0FEFA05A9824807F018FCAC
:1017100000F0BDB8B6A016F0FAFF05A97D4807F0A5
:1017200011FE00221146B4A013F0ECFA14B9B64829
:1017300014F00AF9012C02D1B44814F005F9002381
:10174000192219461846CDF80480009607F086FE47
:10175000601CC4B2022C00D3002405A96D4807F018
:10176000EFFB94E0AAA016F0D2FF05A9694807F0A4
:10177000E9FD012003F02EFF002003F047FF02F0F7
:10178000FFF9052301220221A3A013F023FA05A9E2
:10179000604807F0D5FB7AE0A3A016F0B8FF05A9D2
:1017A0005C4807F0CFFD0022322311461046CDF8E9
:1017B0000480009607F052FE05A99D4807F0C2FD7F
:1017C0000022322311461046CDF80480009607F01F
:1017D00045FE05A9974807F0B3FB012003F0FAFE88
:1017E000002003F013FF02F0CBF90022642311461E
:1017F0001046CDF80480009607F030FE8EA014F05D
:10180000A3F844E097A016F082FF05A9414807F02D
:1018100097FB0022322311461046CDF80480009633
:1018200007F01CFE05A9834807F08CFD0022322337
:1018300011461046CDF80480009607F00FFE05A96A
:101840007B4807F07DFB0022642311461046CDF84B
:101850000480009607F002FE85A014F075F816E0EB
:101860008AA016F054FF012003F0B4FE002003F01C
:10187000CDFE02F085F90022322311461046CDF844
:101880000480009607F0EAFD82A014F05DF83E7037
:1018900005AA2946894806F0DCFC55E679000020B7
:1018A0005265636569766544617461203D202564F5
:1018B0000A000000C4E3BAC30A000000405465787F
:1018C00074546F53706565636823D3D0CAB2C3B4D0
:1018D000CED2C4DCB0EFC4E3B5C42400D0D4B1F0A0
:1018E0000A000000CEC2B6C80A0000004054657865
:1018F00074546F53706565636823B0A1D1BDCED2B7
:10190000B5C4CEC2B6C8B4ABB8D0C6F7BBB5C1CBB0
:1019100024000000D4160020303A7869616F2E6AE6
:10192000706700004054657874546F537065656348
:101930006823D5E2D5E6B5C4CCABC8C8C1CBA3A15A
:1019400024000000303A6B752E6A706700000000BA
:101950004054657874546F53706565636823CFD6BF
:10196000D4DAB5C4CEC2B6C8CAC75B6E325D2564D0
:10197000A3ACCAAAB6C8CAC7B0D9B7D6D6AE5B6E32
:10198000325D256424000000CCFDB8E80A000000A8
:1019900048760408303A67312E6769660000000017
:1019A000303A67322E67696600000000303A6733CC
:1019B0002E67696600000000303A67342E6769665A
:1019C00000000000303A67352E67696600000000AD
:1019D000303A67362E67696600000000C9FAC6F81B
:1019E0000A000000303A666168756F2E6A70670001
:1019F000D0A6BBB00A000000303A68616E78696119
:101A00006F2E6A7067000000A47504081C75040836
:101A1000B1BFB5B00A000000303A7869616F6A69F9
:101A2000312E676966000000BBADBBAD0A00000047
:101A3000541B0020941A00204054657874546F534E
:101A4000706565636823BFAACABCBBADB0C9A3AC4F
:101A5000C7EBCBB5CDCBB3F6BBADBBADCDCBB3F602
:101A600024000000CDCBB3F6BBADBBAD0A00000037
:101A70004054657874546F53706565636823C4E39C
:101A8000BBADB5C4D5E6C4D1BFB42400C7E5C6C15B
:101A90000A0000004054657874546F5370656563A4
:101AA0006823BAC3C1CBC4E3BFC9D2D4D6D8D0C28D
:101AB000BFAACABCBBADC1CB24000000DC1400200F
:101AC00000B585B0684609F025FA019805B000BD5B
:101AD00010B50121080309F0C9F94FF4A06006F020
:101AE000FFF900F01FFE00F07FF800F0D1F809F0D8
:101AF000A3FA1D4816F00BFE1C4816F008FE1C4801
:101B000016F005FE194816F002FE174816F0FFFD04
:101B100005F0C0FF09F06CFE16A016F0F8FD05F008
:101B2000C4FA0AF003FE02F0C3FD15A016F0EFFDA3
:101B300009F050FB17A016F0EAFD00F07DFC78B12B
:101B400019A016F0E4FD09F09DFA012003F042FD12
:101B50006FF07F4003F05AFDBDE8104002F010B86E
:101B600017A016F0D4FDEEE7D874040850740408EA
:101B700094740408534452414D204F4B210A0000F5
:101B80004755495F496E69742053756365737321C6
:101B90000A00000041445F496E6974205375636513
:101BA0007373210A0000000048617665206E6F742F
:101BB0002066696E642044485432320A00000000F6
:101BC0004448543232204F4B210A000010B5FFF731
:101BD00077FF04490968B0FBF1F0BDE8104007F059
:101BE00027BD0000788D010870B586B00121022064
:101BF00009F03CF90121880409F062F9224E07221C
:101C00000B21304601F0B3FA07220A21304601F0D9
:101C1000AEFA00248DF8164001218DF81710022528
:101C20008DF81450890204918DF8155004A930469E
:101C300001F052FA8DF81450A802049004A930461D
:101C400001F04AFA4FF4E1300090ADF80440ADF8ED
:101C50000640ADF80840ADF80C400C20ADF80A0085
:101C60000A4C694620460AF055FF06F0F0F80122BA
:101C700040F2255120460AF030FF012120460AF0AB
:101C8000F5FE06B070BD00000004024000480040B0
:101C900030B587B00121402009F0E8F8012120206B
:101CA00009F01CF9174D08220E21284601F05FFAB1
:101CB00000248DF8164001218DF8171002218DF8AF
:101CC00014104A0304928DF8151004A9284601F057
:101CD00003FA4FF4E1300090ADF80440ADF806404F
:101CE000ADF80840ADF80C400820ADF80A00064CED
:101CF000694620460AF00EFF012120460AF0B6FE92
:101D000007B030BD0018024000140140FEE710B5D6
:101D100000F018F8BDE8104000F010B810B5FEF75C
:101D200079FA04461021044806F01BF82046BDE865
:101D30001040FEF773BA0000ECB20020FFF7EEBFD0
:101D4000FEE7000002490020086000F009B800002A
:101D500094000020014908607047000094000020B2
:101D600010B5FFF7ADFE08490A6842F080720A60BC
:101D7000064900224A600A6842F001020A60BDE892
:101D80001040FFF7E7BF0000FCED00E0001000E0AE
:101D90000148406870470000001000E0022014F085
:101DA000CBBF000070B50B4D00242C600A480168C1
:101DB00021F0C0010160016841F040010160074865
:101DC0000460FFF7EBFF01202860FFF7E7FF2C60BE
:101DD00070BD000098824342002002408C024442C1
:101DE00010B582B00121802009F040F801210802DD
:101DF00009F03CF84020009001248DF804400020B8
:101E00008DF806008DF8074002208DF80500694620
:101E1000074801F061F9082000906946054801F083
:101E20005BF9054804600548C0F8984202B010BD4F
:101E3000001C0240002002408C02444200804342C9
:101E400070B50B4E002434600A48016821F0C001CF
:101E50000160016841F0400101600748012505600B
:101E6000FFF79CFF3560FFF799FF346070BD0000FD
:101E700098824342002002408C0244422DE9F04700
:101E8000824600241748016821F0C0010160016802
:101E900001601E2014F050FF0025134FDFF84C9016
:101EA00000264FF00108C7F89862FFF777FFC7F8E0
:101EB00098826006040ED9F80C0208B1601CC4B206
:101EC000FFF76CFF681CC5B2082DECD3BAF1000F08
:101ED00004D0FFF767FF2046BDE8F087FFF7B0FFAB
:101EE000F9E7000000200240008043420000444225
:101EF0002DE9F04705461348016821F0C001016053
:101F0000016841F0400101600F4E4FF00008C6F833
:101F100098820024DFF834900127E809C9F88C0280
:101F20006806050EFFF73AFFC6F89872FFF736FF0E
:101F3000C6F89882FFF732FF601CC4B2082CECD3BD
:101F4000BDE8F08700200240008043420000444288
:101F500070B50B48016821F0C0010160016841F0D3
:101F600040010160074D01202860074E30601E20AF
:101F700014F0E2FE00242C60FFF710FF346070BD07
:101F8000002002408C0244429882434270B50B48C4
:101F9000016821F0C0010160016841F04001016069
:101FA000074D00202860074E30601E2014F0C4FE4C
:101FB00001242C60FFF7F2FE346070BD0020024067
:101FC000988243428C02444270B500241248016852
:101FD00021F0C001016001680160104D0120C5F8C9
:101FE0008C020F4EC6F89802FFF7D8FED5F80C0207
:101FF00068B1601CC4B2FA2C03D9FFF7C7FF0120F7
:1020000070BDFFF7CBFED5F80C020028F1D10020FF
:10201000C6F8980270BD0000002002400000444253
:102020000080434270B500254FF4803400E0641E08
:1020300024B1802009F096F90028F8D02CB140F2A4
:10204000FF5009F04BF9284670BD032070BD000019
:1020500070B5054600244749086810F0450F03D1C4
:10206000086810F0450FFBD010F0040F05D00324D2
:10207000042009F033F9204670BD10F0010F05D09F
:102080000124012009F02AF9204670BD09F064F905
:10209000A84201D0102070BD40F2FF5009F01EF997
:1020A000002009F07BF93449084201D1204670BD77
:1020B00010F0004F01D01C2070BD10F0804F01D0F7
:1020C000092070BD10F0005F01D00A2070BD10F033
:1020D000805F01D00B2070BD10F0006F01D00C208C
:1020E00070BD10F0806F01D00D2070BD10F0807FAA
:1020F00001D00E2070BD10F4000F01D00F2070BD74
:1021000010F4800F01D0102070BD10F4001F01D01A
:10211000112070BD10F4801F01D0122070BD10F48A
:10212000002F01D0132070BD10F4802F01D0142097
:1021300070BD10F4003F01D0152070BD10F4803F39
:1021400001D0162070BD10F4004F01D0172070BDD3
:1021500010F4804F01D0182070BD10F4005F01D042
:10216000192070BD10F0080F01D01A2070BD204654
:1021700070BD0000342C014008E0FFFD10B50024C4
:10218000104A116811F0450F03D1116811F0450F85
:10219000FBD011F0040F05D00324042009F09EF8B1
:1021A000204610BD11F0010F05D00124012009F0D7
:1021B00095F8204610BD40F2FF5009F08FF82046F8
:1021C00010BD0000342C014010B500240B4A1168EA
:1021D00011F0450F03D1116811F0450FFBD011F03C
:1021E000040F05D00324042009F078F8204610BD20
:1021F00040F2FF5009F072F8204610BD342C014027
:1022000070B506460C4600251F4A106810F0450FB1
:1022100003D1106810F0450FFBD010F0040F05D06B
:102220000324042009F05AF8204670BD10F0010F75
:1022300005D00124012009F051F8204670BD09F0B5
:102240008BF8B04201D0102070BD40F2FF5009F071
:1022500045F8002009F0A2F810F4604F04D010F403
:10226000005F05D0132070BD000C2080284670BD93
:1022700010F4804F01D0102070BD10F4004F01D039
:102280000F2070BD284670BD342C014010B50020D1
:102290004FF480310E4B1A6801E0491E1A6812F0A3
:1022A000450F01D10029F8D111B112F0040F05D06A
:1022B0000324042009F012F8204610BD12F0400F4C
:1022C000FBD00024402009F009F8204610BD000092
:1022D000342C014070B500241448016821F00C0131
:1022E000016001680160124D04E0601CC4B201206D
:1022F00014F022FDD5F8040208B1642CF5D3642C47
:1023000001D3012070BD002404E0601CC4B2012090
:1023100014F012FDD5F8040208B9642CF5D3642C2E
:1023200001D3012070BD002070BD000000080240F4
:102330000000414270B50024104D04E0601CC4B29E
:10234000012014F0F9FCD5F8040208B1642CF5D38F
:10235000002404E0601CC4B2012014F0EDFCD5F8A8
:10236000040208B9642CF5D31E2014F0E5FCD5F85E
:10237000040208B1012070BD002070BD0000414280
:1023800070B5002000244006050EFFF7D3FF284358
:10239000611CCCB2082CF6D370BDF0B583B00646F4
:1023A0000F4600F02DF8FFF795FF10B103B00120A4
:1023B000F0BD002401ADFFF7E3FF2855601CC4B257
:1023C000052CF8D39DF804009DF805109DF8072012
:1023D00008449DF80610114408449DF808108842EE
:1023E0000BD101A80AF014FB14F0B6FD3880A81C2C
:1023F0000AF00EFB14F0B0FD308003B00020F0BDF9
:1024000010B50B48016821F00C010160016841F032
:1024100004010160074C00202060142014F087FCA8
:1024200001202060BDE810401E2014F085BC000093
:10243000000802408402414200B583B0012104201B
:1024400008F014FD0220009001218DF804100022F4
:102450008DF806208DF807108DF8050069460448B0
:1024600000F03AFEFFF7CCFFFFF734FF03B000BDEA
:1024700000080240014902208860704700B0024015
:1024800009F092BE074A904201D2074800E007488F
:10249000074A11F0005F01EA020101D0C1607047F4
:1024A0008160704710640240006002400064024096
:1024B0007D0F7D0F002904D0016841F0010101600A
:1024C0007047016821F00101016070472DE9F003B8
:1024D000016821F00101016000210160416081601B
:1024E000C160016121214161444A45494FF03D08E5
:1024F000904204D1C1F80880BDE8F0037047414A1A
:102500004FF47464904203D18C60BDE8F0037047CF
:102510003D4A4FF47415904203D18D60BDE8F0033D
:1025200070473A4A4FF07466904203D18E60BDE81E
:10253000F0037047364B374A984203D1CA60BDE872
:10254000F0037047DFF8D0C0344B604503D1CB6057
:10255000BDE8F0037047324FDFF8C8C0B84204D17D
:10256000C1F80CC0BDE8F0037047DFF8BC904FF035
:102570003D57484503D1CF60BDE8F0037047DFF811
:10258000AC902B49484504D1C1F80080BDE8F00368
:102590007047DFF8A080404503D10C60BDE8F00330
:1025A0007047254CA04203D10D60BDE8F003704791
:1025B000224CA04203D10E60BDE8F0037047204CCE
:1025C0002049A04203D10A60BDE8F00370471E4ACB
:1025D000904203D10B60BDE8F00370471B4A904264
:1025E00004D1C1F800C0BDE8F0037047184A90421A
:1025F000F9D10F60BDE8F0037047000010600240A1
:102600000060024028600240406002405860024082
:10261000706002403D00002088600240400F0020B2
:10262000A060024000003D20B860024010640240FB
:10263000086402402864024040640240586402403A
:10264000706402400C64024088640240A06402404E
:10265000B8640240002904D0016841F02001016003
:102660007047016821F020010160704711F0800F70
:1026700009D022B1436943F08003436103E0436919
:1026800023F080034361802905D001F01E011AB1B7
:102690000268114301607047026822EA010101608B
:1026A0007047000010B402681C4B1A40D1F80CC0EF
:1026B0000B688C6943EA0C03D1F814C04CEA040C93
:1026C00043EA0C03D1F81CC043EA0C03D1F820C044
:1026D00043EA0C03D1F824C043EA0C03D1F828C024
:1026E00043EA0C03D1F834C043EA0C03D1F838C0F4
:1026F00043EA0C031A430260426922F00702D1F850
:1027000030C0CB6A43EA0C031A4342610A69426053
:102710004A6882608968C16010BC70473F801CF0C5
:102720007047000070B586B00121084608F09EFB96
:102730000121102008F0D2FB1E4E07220A2130464C
:1027400000F015FD07220921304600F010FD00249D
:102750008DF8164001218DF8171002258DF81450C0
:10276000490204918DF8155004A9304600F0B4FCDC
:102770008DF814506802049004A9304600F0ACFCB7
:102780004FF4E1300090ADF80440ADF80640ADF8EC
:102790000840ADF80C400C20ADF80A00064C694624
:1027A00020460AF0B7F9012120460AF05FF906B089
:1027B00070BD0000000002400010014000234FF0F7
:1027C000204210280BD0B0F5807F0AD0B0F5805F92
:1027D0000AD0D2F8580131EA000009D107E0506E62
:1027E000F9E7D2F88400F6E7D2F8A400F3E7012372
:1027F000184670474268016811438268C068521EDB
:10280000520142EA40200843014908607047000035
:10281000500100A030B403689900A1F1C041D1F883
:1028200040116FF30E01D0F808C04268046942EA13
:102830000C02D0F80CC04CEA040C42EA0C02D0F8AE
:1028400014C042EA0C02D0F818C042EA0C0CC2696B
:102850004CEA0204D0F820C044EA0C05446A25433F
:1028600029434FF02045002B48D0D5F840316FF375
:102870000E0342EA0C0223431A43C5F840210268C2
:102880009200A2F1C042C2F840110168A9B38900C8
:10289000A1F1C041D1F8481101F07042816A0B6882
:1028A000D1F804C05B1EACF1010C43EA0C13D1F863
:1028B00008C0ACF1010C43EA0C23B1F810C0ACF134
:1028C000010C43EA0C431A43D5F8483103F0704336
:1028D000D1F80CC0898AACF1010C4FEA0C3C491EBE
:1028E0004CEA01511943C5F8481100688000A0F175
:1028F000C040C0F8482130BC704702E0C5F8401124
:10290000C3E7D5F8481101F07041806A0268436856
:10291000521E5B1E42EA031283685B1E42EA0322D8
:10292000C3685B1E42EA0332038A5B1E42EA03422B
:10293000838A007E5B1E42EA0352401E42EA006028
:102940000843C5F8480130BC7047000002490A68D6
:1029500042EA400008607047540100A02DE9F047AA
:1029600082B00E4600240025009501955D4F4FF082
:102970000809C7F80090102078604FF04008C7F8A9
:102980000880FD604FF4806AC7F810A0384608F050
:1029900045FD1020FFF75CFB002834D15248008928
:1029A0000004386037207860C7F80880FD60C7F8F9
:1029B00010A0384608F032FD3720FFF749FB002809
:1029C00021D1411E07F114000160C0F804903021AC
:1029D00081600221C16005610121416108F096FC1E
:1029E0003D6033207860C7F80880FD60C7F810A00C
:1029F000384608F013FD3320FFF72AFB8146B9F172
:102A0000000F03D0484602B0BDE8F087374F386862
:102A100040F22A6810EA080F0ED16D464FF40010FC
:102A200008F0A0FC20B108F0F3FC45F82400641C79
:102A3000386810EA080FF1D0082008F093FC30B194
:102A4000082008F04BFC042002B0BDE8F08702200B
:102A500008F088FC30B1022008F040FC022002B0EF
:102A6000BDE8F087202008F07DFC30B1202008F080
:102A700035FC062002B0BDE8F0874FF4007008F086
:102A800071FC38B14FF4007008F028FC072002B048
:102A9000BDE8F08740F2FF5008F020FC0098009954
:102AA000000601F47F4140EA0120009901F47F0112
:102AB00040EA1120009940EA116070600198019984
:102AC000000601F47F4140EA0120019901F47F01F1
:102AD00040EA1120019940EA1160306002B0484696
:102AE000BDE8F0878004002024000020342C014041
:102AF0001CB50024019401AC009400F0E7F81CBD63
:102B00002DE9FF4F83B0814606988A46A0EB0A085C
:102B1000109E00200090A2EB09043568934654EA09
:102B2000080018D02046FEF782F807464046FEF718
:102B30007EF887420BDA2046444680464846D14616
:102B400082465846DDF818B0069001200090002C0F
:102B500007DD204606E007B04846BDE8F04F00F02C
:102B60003BB96042A0420AD04846D9466442C8F107
:102B7000000883464FF0FF37DDF818A000E001277A
:102B80005148B8F1000F11D004EBD4714FEA610B3A
:102B900001DACBF1000B4C480068807E88B3002F2F
:102BA00002DA30682044306000257BE0009900297B
:102BB000016821D0897E11B10027804615E007B059
:102BC0005A4649465046BDE8F04F03F0BBBF284681
:102BD0006D1C11F029FE38B9D8F8000009EB070187
:102BE000406E4268504690477F1CA742EFDD6D1E45
:102BF000356007B0BDE8F08F8A7E1AB100278046A5
:102C000017E019E0486E5A465146036807B0484637
:102C1000BDE8F04F184728466D1C11F005FE38B985
:102C2000D8F8001009EB0700496E4A6851469047F2
:102C30007F1CA742EFDDDAE700250FE008FB05B0B7
:102C400090FBF4F101EB0A00009951B11E4A09EB27
:102C500005011268526E526890476D1CA542EDDD69
:102C6000C7E7194909EB05030968496E4A68014637
:102C70001846F1E708FB05B090FBF4F101EB0A0000
:102C8000019030683844306011F0CEFD48B90098AA
:102C900090B10D4809EB05010068406E426801984B
:102CA00090476D1CA542E5DD3068002F01DA204415
:102CB0003060C01B30609CE7034909EB05000968E0
:102CC000496E4A680199EBE7140200202DE9FF479D
:102CD0000F4640491646804609680C981D460A7EF4
:102CE000012A1CD0A8EB0600791B50EA01031CD076
:102CF000A2F1010913F05EFD00F58060824603F049
:102D000023FD00FB09F4504603F022FD00FB09F10E
:102D1000002C0CDAC4F50070801240420AE00090EA
:102D2000324639464046FFF7EBFEBDE8FF8704F523
:102D30000074A012002904DAC1F5007189124C4216
:102D400002E001F500718C12002804DD411C01EB4A
:102D5000D171491003E000EBD0714910401E00EB27
:102D6000D0704210002C04DD601C00EBD0704010CD
:102D700003E004EBD4704010641E04EBD47308EB42
:102D80000104ADF800403C18ADF80240A8EB020485
:102D90005B10B21AADF80440ADF808203144FC1ABB
:102DA000EA1AADF80C102844ADF80A20ADF80E0070
:102DB0000023ADF806401A460421684600F07AF870
:102DC000394640460EF008FB294630460EF004FB1B
:102DD000ABE7000014020020064A13681A7E012A9D
:102DE00005D0521E02EBD272521000F005B85A6E96
:102DF00052681047140200202DE9F05F064688460D
:102E000040F2C32002FB00F14FF47A7091FBF0F71F
:102E100002FB02F102EBD27001EB600B1446B11819
:102E2000234A301B7F1C1268526E13680A464146C3
:102E30009847012538E000BF05FB05F004FB0401BD
:102E400059451CDDBC4219DD194B06EB050AA6EB02
:102E500005091B68AAF1010208EB04015B6E09F188
:102E600001001B689847124BAAF10102A8EB04016C
:102E70001B6809F101005B6E1B689847641E0C4BD0
:102E80003219301B1B68924608EB05015B6E8146C8
:102E90001B689847064B5246A8EB05011B6848463D
:102EA0005B6E1B6898476D1CBD42C5DDBDE8F09F99
:102EB000140200202DE9FF4F43F6FF740F466642CF
:102EC00083B09B46814600210BE000BF09EB8100E7
:102ED000B0F90200A04200DA0446B04200DD064626
:102EE000491CB942F2DB67480068406900280DD0F0
:102EF000B0F906101A46A1EB0B01B14200DA0E46FA
:102F0000B0F90200801AA04200DD0446B4E0DFF808
:102F100078A100200546CAF8000088E0781E8542A6
:102F200001DA6B1C00E0002309EB850C09EB83023E
:102F3000BCF90200B2F90210A04244D1A14215D15D
:102F400039F92330059A39F9251003EB020C4D4A63
:102F500005981268084404EB0B01526E6045136833
:102F600001DA62462AE00246604627E02846A44687
:102F70004FF000087A1E0BE008B1401E00E0781EFA
:102F800009EB8003B3F90230634504D108F101086D
:102F90009045F1DB2346A34248D01A1B39F925009E
:102FA000A1EB040C059B92EA0C0F09D4354A184496
:102FB00004EB0B011268526E13680246984735E025
:102FC0000AF0C2FE32E0A14230D001DBA04203DDB4
:102FD000A0422BDBA14229DCE04688420ADC034602
:102FE000A04223DC0846A14220DBB8F900C0B2F9B8
:102FF000001008E00B46A14218DCA04216DBB2F933
:1030000000C0B8F90010E21AA1EB0C0151430029ED
:10301000A0EB030202DD01EB620102E0A1EB620121
:10302000491CC01A91FBF0F06044C9E76D1CBD4219
:10303000FFF674AF0598009004EB0B0001900020A0
:103040008046054613E01149B8F1000F31F915A08B
:1030500009D0009901EB0A0208440A490968496E3F
:103060000B680199984788F0010850466D1C064985
:1030700009688D42E7DB641CB4427FF748AF07B0B4
:10308000BDE8F08F14020020E002002024EC0020B4
:103090000E4810B5006802F0B9FA0D48006802F059
:1030A000C0FA012002F028FB002002F033FB0020D0
:1030B00002F040FB002002F0BFFA0648006802F070
:1030C000C7FABDE81040002002F0E8BA1002002064
:1030D0000C020020080200202DE9F0010022012648
:1030E000032706FA02FC0B6803EA0C03634538D198
:1030F0000568530007FA03F4A54305600D79D0F87D
:1031000000809D4045EA080505600D79012D01D03C
:10311000022D17D18568A54385604D79D0F80880C8
:103120009D4045EA08058560456825EA0C0CC0F815
:1031300004C0D0F804C08D799540ADB24CEA050CBE
:10314000C0F804C0D0F80CC02CEA040CC0F80CC0C5
:1031500091F807C00CFA03F3D0F80CC043EA0C0353
:10316000C360521C102ABCD3BDE8F00170474B0766
:10317000DB0E9A40C90800EB8100016A4FF00F0C8A
:103180000CFA03F399430162016A1143016270472B
:1031900041837047018370472DE9F04385B00121D9
:1031A000802007F063FE0121080207F05FFE4FF068
:1031B0008008CDF8008000248DF8044001268DF8A9
:1031C000076002278DF80570DFF8C490694648460D
:1031D000FFF782FF300200908DF804608DF8064002
:1031E00069462C48FFF778FFFEF7FAFD2A4D2C6060
:1031F0000A2013F09CFD2E600A2013F098FDCDF8F4
:1032000000808DF804408DF807408DF80570694600
:103210004846FFF761FF642013F089FD042202A9EC
:1032200048F2401000F04EF88DF80C4002A91BA0A7
:1032300012F08AFB1CA102A8FDF766F818B105B0D0
:103240000120BDE8F0838DF80870012202A948F240
:10325000400000F03BF9012202A948F2470000F0CB
:1032600031F89DF80810602902D211A012F06CFB11
:103270000A2013F05CFD8DF80840012202A948F2F3
:10328000400000F023F905B00020BDE8F083000005
:10329000001C024000200240A0024442435450203F
:1032A00049443A25730D0A003931343700000000D3
:1032B00044656661756C74205665723A25640D0A22
:1032C000000000002DE9F04104460E461546FEF7C9
:1032D0003FFE2820FEF70CFEFEF776FE200AFEF7E2
:1032E00007FEFEF771FEE0B2FEF702FEFEF76CFE8F
:1032F000FEF72EFE2920FEF7FBFDFEF765FE0024FB
:10330000002D0CD96F1EBC4201D0012000E000202E
:10331000FEF7B4FD3055601CC4B2AC42F3D3BDE837
:10332000F041FEF733BE00002DE9F14783B00024E1
:10333000A146624D2878401CC1B229706048614F97
:10334000A0FB0120C008404200EB800011EB4000D0
:1033500001D00A297ED2012203A948F24E10FFF7BC
:10336000B1FF9DF80C004FF0000810F0800F0BD05B
:1033700000F00F00062807D2CDF80480012201A931
:1033800048F24E1000F0A2F89DF80C0010F00F0F5C
:1033900073D000F00F0006286FD2FF2101FA00F071
:1033A000019097F82060C04340F0C00087F82000EB
:1033B000B889B882F88AF883DFF80CA14FF00109C8
:1033C00097F8200009FA04F108422DD03AF81400C9
:1033D000042202A9FFF776FF97F8300010F0010FE2
:1033E00010D09DF808009DF8091000EB012107EBB3
:1033F000440081819DF80A109DF80B2001EB022109
:10340000C18211E09DF808009DF8091000EB012130
:1034100007EB4400C1829DF80A109DF80B2001EBD8
:103420000221C1F588718181601CC4B2052CC7D30B
:103430004FF00109B9893846B1F5F07F03D8C18A48
:10344000B1F5887F17D99DF80C1001F00F01012903
:1034500008D900E011E0C1898181018BC18285F822
:1034600000800AE0818A8181C18BC1828021039121
:1034700080F8206001E085F800809DF80C0000F0E5
:103480008F00802811D197F8200010F0800F04D011
:1034900020F0800087F8200007E04FF6FF71B98127
:1034A000F98200F0E00087F820002878F02801D9A0
:1034B0000A20287004B04846BDE8F0877800002054
:1034C000CDCCCCCC440000203A8D01082DE9F04150
:1034D00004460E4615460027FEF73AFD2820FEF763
:1034E00007FDFEF771FD200AFEF702FDFEF76CFDF9
:1034F000E0B2FEF7FDFCFEF767FD0024002D0BD9BE
:10350000305DFEF7F5FCFEF75FFD0746380003D19E
:10351000601CC4B2AC42F3D3FEF738FD3846BDE8B8
:10352000F0810000014AC2E900017047B8010020A3
:10353000014AC2E900017047C0010020014AC2E906
:1035400000017047A4020020014AC2E9000170474F
:10355000C8010020014AC2E900017047AC02002006
:103560002DE9F04FDFF828B191B04FF0FF35DBF8CF
:103570000030B3F922100691DE69B3F92490F469A2
:10358000A189814206D8E289824203D3471AD4F83E
:10359000008012E0D4E9018100296FD00A888242BC
:1035A0006CD84D88854269D3801A82B2486800EB96
:1035B0008200B0F90070B0F90250781C5ED0307E05
:1035C000A17C10FB01FA217CCDE90701B3F92A6047
:1035D000304603F051FFC0B20E90DBF8000007FB4D
:1035E0000A81A37C826B0127CDE90412CDE9027325
:1035F000C069089AC17E807ECDE90001DDE906033D
:10360000494603F03DF9681C18D046F0020003F06B
:1036100033FFDBF80000A37C05FB0A81826BCDE958
:103620000273CDE90412C069089AC17E807ECDE99B
:103630000001DDE90603494603F022F9DBF800004A
:103640005D46C069417E007E814214D9022E12D0AF
:1036500086F0040003F010FF2868C069027EC37E74
:1036600012FB0391437E857E089A06984B4412FB19
:10367000050203F091FA0E9803F0FEFEDBF800005D
:10368000627C418C1144418411B0BDE8F08F000090
:103690001402002004480068C069C06909B1027CB6
:1036A0000A60407C7047000014020020022008805D
:1036B0007047C06982898A4202D8C2898A4210D280
:1036C000806880B102888A420DD843888B420AD331
:1036D000406800EB8100A0EB8200B0F900000028F8
:1036E00001DB012070470020704700002DE9F04306
:1036F000304C034687B020681946B0F92A60C0698B
:10370000C06900F086F8002850D041680088181A77
:1037100001EBC0053046AF7803F0AEFE814620686D
:103720006A680123816BCDE90237CDE90421C169C3
:10373000CB7E8A7ECDE900230B7EB0F924102A7857
:10374000B0F9220003F09CF82068C069417E027E37
:1037500091421FD9C07E11FB00F812FB00F7022E28
:1037600018D000F01DFF064600F0E8FE01F059FFFA
:1037700021682A78CB69B1F92200DB7E12FB0302B3
:10378000B1F9241001EB0803394403F005FA30467F
:1037900001F047FF484603F06FFE20686A78C3696E
:1037A000B0F922109B7E12FB0311418407B0BDE8E3
:1037B000F08300001402002030B50F4C05460B4684
:1037C00020682946C069C06900F023F8002812D09B
:1037D0004168008824682A1A0120E46900EBC200CD
:1037E000085CA47E10FB04F0002B04D011F832100A
:1037F00011FB04F1196030BD140200200120088083
:10380000704700B5C06900F004F8002800D001201E
:1038100000BD06E002888A4202D842888A4202D26B
:1038200080680028F6D170472DE9F0410025154E3B
:10383000154C18E02069C5EB051700EBC700702296
:10384000001D3168FCF72DFD2069002140F837107C
:1038500000EBC70000F10C018161011D0A1DC0E9E8
:103860000F126D1C4164A0688542E3DB0FF08EF8F7
:103870002169C0EB001001EBC000001D3060BDE805
:10388000F081000014020020F402002070B51049FD
:103890000E480860084602F009FF0D4C143CA06871
:1038A000C0EB0010C500284600F06CF8094B206101
:1038B0002A461B68002198474FF0FF30206002F035
:1038C0001FF9BDE870400FF061B8000089400108A1
:1038D00008030020D402002010B5040009D001F034
:1038E000F9F920460AF096FA044602F0C7F8204695
:1038F00010BD002010BD000038B5054601F0EAF902
:103900002846FFF7E9FF04000AD000F0BBF8064B99
:1039100000902A461B6800219847684600F0F0F89E
:1039200002F0ACF8204638BDD4020020024A1060F4
:1039300021F0030050607047A8EA002010B5040091
:1039400011D001F0C7F90848042101EBC401406B14
:10395000415848680AF016FA204610F0F1FCBDE81C
:10396000104002F08BB810BDE8E90020002805D017
:10397000034AD16B016001B14860D0637047000019
:10398000E8E900202DE9F04104460FF0A9FD2848A0
:10399000E41C24F00305016C2D1DA94200D90D463D
:1039A000C46B13E054F8042CAA420ED184B12168F0
:1039B00009B162684A60616809B122680A60C26B35
:1039C000A24231D12168C1632EE02468002CE9D1E4
:1039D0008046816BC0680F1857F8040C3E1A306897
:1039E00038B1002010F020FE57F8040C3E1A306861
:1039F000D0B97068A84217DB3044441B3046241D00
:103A000010F0CAFDD8F80C10491BC8F80C10D8F8F3
:103A100014102944C8F814107068401B02D03146B5
:103A20000AF0B0F944F8045C2046BDE8F0810000DB
:103A3000E8E9002010B500240FF052FD0C490F20DA
:103A400001EBC002526C1AB101EBC000406C08E0FF
:103A5000401EF5D508E04168A14200D90C468068B7
:103A600010B180680028F6D1A4F10C0010BD000050
:103A7000E8E9002002488169491C81617047000023
:103A8000E8E900200549CA69521CCA61496B01EB8B
:103A9000C0010A78521C0A7000F04AB8E8E9002018
:103AA00010B501F017F9FFF7C5FF64220849B0F51A
:103AB000800F04D990FBF2F4086A444303E0096ADA
:103AC0004143B1FBF2F401F0D9FF204610BD0000E4
:103AD000E8E900200549102805D94A68B0EB520FE3
:103AE00002D3500800E0102088607047A8EA002048
:103AF00002488169491E816170470000E8E90020A1
:103B00000A4902684B6B52F8082C03EBC202137887
:103B1000022B03D3CB690BB15B1ECB611178491E1D
:103B2000117000210160084670470000E8E900209C
:103B30000349042202EBC000496B08580830704763
:103B4000E8E9002010B5C2B2CBB2D21A00D5524279
:103B500093B25B43C0F30722C1F30724121B00D5C5
:103B60005242000C92B2A0EB114002FB023200B2B2
:103B7000002801DA404200B280B200FB002010BDF4
:103B800010B50021084600F083FD43F6FF72504255
:103B9000BDE8104013460146AFF300802DE9FC411B
:103BA0001C4615460E46074601F094F8042003F023
:103BB00063FC804612484069C16C006D0F440644A6
:103BC0000D440444ADF80070ADF80450ADF8026047
:103BD000ADF80640684609F05BFD07E023462A463B
:103BE0003146384602F0D8FF09F014FD0028F5D11F
:103BF000404603F041FC01F041FFBDE8FC810000BC
:103C0000000200202DE9F0411C4616460D460746ED
:103C1000022B02DB0020BDE8F0811C20FFF7B2FE82
:103C20000028F8D00DB105610AE0094A52F82410C5
:103C300009B905E011460A68002AFBD1096901614A
:103C400084618682002101604160C0E90217E2E7D9
:103C50004002002070B51D46FFF7D4FF040009D0D4
:103C600000F00EF8E068006820B90348006800EB37
:103C700085008465204670BD14020020FFF776BEE3
:103C800070B5C0B38269022A36DA2149531C0C7818
:103C90009C4200DA0B701F4C54F8221019B944F8FA
:103CA000220032E019464B68002BFBD106E0CB68BE
:103CB000C5681B682D68AB4203DD09680029F6D191
:103CC0001AE0C1B1CB68C6681B683668B3420CD134
:103CD000838A012B05D008E01946DB681B68AB42DC
:103CE00003DB0B68002BF7D129B14B6833B11860A7
:103CF0004A68426004E0FFE7012070BD44F82200FA
:103D00004860884200D100210160002070BD0000A1
:103D1000660200204002002010B503E00468FFF7AF
:103D2000AFFF20460028F9D110BD000010B50C4BA4
:103D30008269002153F82240844205D1046843F887
:103D40002240026802B1516042680AB10368136000
:103D500002680AB1436853600160416010BD000011
:103D60004002002000207047022801DB002070473D
:103D7000054951F8200004E0C16809680029F6D01F
:103D800000680028F8D17047400200202DE9F0417A
:103D9000044601F0A1FE0619164F1FE000F004F9D9
:103DA0003868844200DD0446A04600F093FF1248C4
:103DB0000568FFF75FFE2C0017D000BF01F05EFE24
:103DC000641EFBD1404601F075FE1DB100F082FF7C
:103DD0006D1EFBD1FFF78CFE01F050FE01F07CFE62
:103DE000341A002CDADCBDE8F081404601F062FEB6
:103DF000F0E70000A0020020000300202DE9FC47AE
:103E000006005FD000F066FF00F0E2FB3C4C81460C
:103E10002068B0F9228000F00DFC216807468A8CEA
:103E2000D01B888441E000BF47F6FF71304602F0A6
:103E3000E7FA82460146304602F0B8FA21680546A4
:103E400091F82C0000F00300012841D002283BD05B
:103E500000204A8C101A4884ADF800006A1E1044F5
:103E6000ADF80400888CADF80200A9F10101084406
:103E7000ADF806006A465146304601F0FBFF216866
:103E8000BDF8020088845146304601F0E5FC064446
:103E900030780A281ED00D281CD0BDF800002168FB
:103EA00028444884307818B1761C30780028BBD17B
:103EB0002068818C39448184818D21F003018185C2
:103EC00001F0DCFDBDE8FC8705EBD5704010C0E7D4
:103ED0002846BEE7206890F82C1001F00301012964
:103EE0000BD0022909D0018C418431780A29D9D11B
:103EF000828C02EB09018184D4E7A0F82280F4E7E8
:103F00001402002070B514460D46064600F0E2FE8D
:103F100005480068458484843046FFF76FFFBDE89C
:103F2000704001F0ABBD0000140200202DE9F0410B
:103F300007460A4815460E460068B0F92C0040F0C6
:103F4000020001F0E7FB04462A4631463846FFF7F7
:103F5000D9FF2046BDE8F04101F0DCBB140200208F
:103F60002DE9F0411C4615460E46074600F0B2FE0C
:103F70000C480168C86C096D074405440E440C44A4
:103F8000002009F085FB07E023462A4631463846E3
:103F9000FEF7AEFD09F03EFB0028F5D1BDE8F0418B
:103FA00001F06CBD1402002010B5002400E00124D3
:103FB00000F004F80028FAD1204610BD0B4810B5D7
:103FC0000068002410B1804700B1012408F0F2FF1E
:103FD00000B101240648006810B1804700B10124F7
:103FE0000448006800B18047204610BD2002002030
:103FF0004C0200204802002070B586B00DF1280C5C
:104000009CE87000CDE903018DE8700003A9024827
:1040100000F004F806B070BD174300082DE9FF4F0B
:1040200089B08846DDE91765044600F053FE44F286
:104030000810FFF761FC5FEA00094FF0010755D057
:10404000FFF720FD0490C0E90248012303AA0A21DA
:1040500000F052FA0398801D039003A802F01CFBA5
:10406000834603A802F018FB824602F0EBFE08909C
:10407000214801680B98CA6C096D02EB00080C9886
:10408000ADF814800C180BFB06F0B0FBF5F101EB5A
:104090000800401EADF818000AFB06F0B0FBF5F072
:1040A0002044401EADF81A00ADF8164005A809F0EE
:1040B000EFFA90B1DFF844A0DFF844B0CDE902BADE
:1040C000CDE9006522464146169B049800F074F83D
:1040D000074609F09FFA0028F0D1089803F0A4F9E8
:1040E00004A8FFF70DFD4846FFF728FC01F0C6FCC9
:1040F0000DB03846BDE8F08F1402002097E10008AB
:104100001D1201081CB5CDE900016946014800F007
:1041100003F81CBD174300082DE9F8439846914663
:104120000D460646012700F0D5FD44F20810FFF7C2
:10413000E3FB04000FD0FFF7A5FC0090C0E9026587
:10414000424649460EF02CF907466846FFF7D8FC70
:104150002046FFF7F3FB01F091FC3846BDE8F883F9
:104160001CB5CDE900016946014800F003F81CBD0B
:10417000174300082DE9F84390460D4606460127EF
:1041800000F0A8FD44F20810FFF7B6FB04000ED0C3
:10419000FFF778FC0090C0E9026541460EF091F807
:1041A00007466846FFF7ACFC2046FFF7C7FB01F067
:1041B00065FC3846BDE8F8832DE9FF4F95B0002037
:1041C000DDE92276DDE924988DF810009A469346C1
:1041D00018210CA8FCF78DF8142107A8FCF789F822
:1041E0000024601E059011AB13AA12A915980EF0B9
:1041F0009BFB8BE0002306AA0121159800F07CF9B7
:10420000002860D106980578212D70D02C2D02D081
:104210003B2D7ED168E0002306AA0921159800F005
:104220006BF9002875D106A802F036FA0C9006A8A2
:1042300002F032FA0D9006A802F02EFA0E9006A8AF
:1042400002F02AFA0F9006980078109000060AD51E
:10425000109800F00701022088400146119015983F
:1042600010F082F878BBAAF10100844207D10C98C3
:1042700007900D9808900E9809900F980A90A24503
:1042800022D19DF81000022806D1CDE9007607ABB7
:104290000CAA59461698C0479DF810000599CDE91B
:1042A0000010CDE90276DDE915025B460CA9C8478E
:1042B00048B9002306AA0121159800F01DF910B98C
:1042C00019B0BDE8F08F24E0002306AA012115985B
:1042D00000F012F9E8B9002115980DF0F3FE00285E
:1042E000F9DC641C3B2D85D10020E9E7FFE7A245FE
:1042F00001D104AB01E04FF0000301D107AA01E0B6
:104300004FF0000205A9159810F050F800283FF46E
:1043100071AF0120D4E730B505464068C41A0020CB
:10432000002C07DD944201DD104600E020462A689B
:104330001A440A6030BD00002DE9F041054643F201
:1043400016104FF480572E1805F54054B1E000BF09
:10435000D4F8F81C814235D1B94203DB4FF0FF306D
:10436000BDE8F081564B4FF4005200211B6805F563
:104370008B709847002005E0291801F5005181F85D
:104380001601401CD4F8F81C8142F5DCD4F8EC0C82
:10439000401CC4F8E80C0846C4F8D06C490004F589
:1043A0004D64801CC4E90801A4F54D6428460EF054
:1043B000C3F8C4F8000DD4F8F81C8842F6D0C4F84D
:1043C000040DCDE7D4F8FC1C814202D16FF001004E
:1043D000C6E7D4F8F01C0246814209DCD4F8D00CC0
:1043E00094F8003D411CC4F8D01C0370D4F8040DAF
:1043F00040F6B833D4F8F81C81421EDC291801F5C8
:10440000005191F816C1D4F8D01C01F1010EC4F886
:10441000D0EC81F800C005EB4001B1F916118142E2
:104420009ED0D4F8D0CCACEB050CACF5405CACF530
:104430008B7C9C4594D20846DCE7284400F500506C
:1044400090F81631C4F8003DD4F8D00C411CC4F8E3
:10445000D01C0370D4F8F00CB8421FDA05EB40030F
:10446000B4F8041D2844A3F8161100F5005094F880
:10447000001D80F81611D4F8F00C401CC4F8F00CA4
:10448000D4F8F41C884209DBB94207DA4800C4F8C2
:10449000F40CD4F8E80C401CC4F8E80CC4F8042D63
:1044A000D4F8D00CB04204D9401EC4F8D00C007827
:1044B00056E728460EF040F80028BFF649AF4FE710
:1044C000D402002010B500F5405202F54D624B1C9D
:1044D000C2E90631012404FA01F3591CC2E90A3188
:1044E000991C1162590051620221C2E9041443F27D
:1044F00016110844106010BD2DE9F04117460D4615
:1045000004460BB100202061D4E903030A46A668E3
:104510003946B047A84202D00120BDE8F0812069A9
:10452000284420610020F8E7034951F82000C168C1
:104530008A6A0821104700004002002010B500F0F0
:10454000C9FB02F077FC02F03FFD044601F096FA49
:10455000204610BD10B5044600F0BCFB0548002104
:104560000068C069426820469047044601F086FA18
:10457000204610BD1402002070B50C46054600F020
:10458000A9FB064821460068C06942682846904752
:10459000044601F073FA204670BD000014020020AA
:1045A00010B500F097FB02F04DFC02F00DFD044643
:1045B00001F064FA204610BD10B500F08BFB0348F3
:1045C0000068047C01F05AFA204610BD1402002055
:1045D00010B500F07FFB04480068C069447E01F01C
:1045E0004DFA204610BD00001402002070B515469B
:1045F0000E46044600F06EFB2A463146204602F085
:1046000067FC040002D000203060286001F036FA18
:10461000204670BD70B50C46054600F05BFB214698
:10462000284601F009FFBDE8704001F027BA01F00B
:1046300053BA000010B5002400F04CFB0B48006892
:1046400090F82C1001F00C01042904D0082906D0A0
:104650000C2907D103E0C069047E641E02E0C06932
:10466000007E440801F00AFA204610BD1402002022
:10467000024951F82000006900687047400200209C
:10468000024951F82000006940687047400200204C
:1046900070B50C46054600F01DFB044800684584D3
:1046A000848401F0EBF9002070BD000014020020AA
:1046B0002DE9F0411D48016821F0010101601C480D
:1046C0000126866081680029FCD11A4901600068D2
:1046D0001949884200D0FEE701F0FCFA174C2E2061
:1046E000207001F0FFF916480EF0CAFD13F0E4F84F
:1046F000074602F017FC10B102F028FC38B902F0AE
:104700002EFC054602F017FC294602F0AFFE002100
:10471000084600F0D1FF08F0C1FCFFF785F8A0695A
:1047200000B18047A6703846BDE8F081002000E067
:1047300000300240C2A507F4CDB5E8B50002002064
:10474000B4EA00201CB5CDE900016946014800F03B
:1047500003F81CBDD34A00082DE9F8431E4617464E
:1047600088468146012500F0B5FA48F2BC40FFF7C3
:10477000C3F8040009D03B464246494600960BF078
:10478000FDFA05462046FFF7D9F801F077F92846EB
:10479000BDE8F8831CB5CDE900016946014800F089
:1047A00003F81CBDD34A00082DE9F84390460D4696
:1047B0000646012700F08EFA48F2BC40FFF79CF84D
:1047C00004000FD0FFF75EF90090C0E9016568466C
:1047D000FFF796F94146204600F08BF90746204640
:1047E000FFF7ACF801F04AF93846BDE8F883F8B5B0
:1047F0000546FFF747F9009000F5E04090F81C638C
:104800006846FFF77DF9002410E00123224619468F
:10481000284609F09BFD30B908232246022128468C
:1048200009F094FD08B10120F8BD641CB442ECDB32
:104830000020F8BD2DE9F04700F5E0448246DFF89E
:104840006491D4F88804A2B04FF00108002538B173
:1048500094F80804F0B300BFD4F8800430B32BE020
:1048600094F809040028504603D00FF06BFA90B971
:1048700015E00AF0FDFF70B9D4F82014D4F88404D0
:1048800088420CDC694650460FF0D2FD18B99DF8FD
:104890000000D92803D0012022B0BDE8F08784F8B9
:1048A0000884D4F82004C4F88804D5E7D4F87C043C
:1048B000FFF7E8F8C4F880040746D4F87404FFF75B
:1048C000E1F82090C0B10026D4F81804B04210DD01
:1048D000209800E012E000EBC611D9F800308022E9
:1048E00068469847394668460EF0E2F8761C40372D
:1048F000EAE720A8FFF704F984F8085494F80A04BA
:1049000005281CD2DFE800F02B270B0F030094F8DA
:104910008804C0070BD150460AF054F90DE0504608
:104920000AF0CEF809E094F88804C00702D084F8B1
:10493000948404E050460AF035F884F89454D4F88E
:104940008804401EC4F88804D4F88404401EC4F8C7
:1049500084040020A0E7504609F0D0FFEDE7D4F82A
:104960008814D4F82004461AD4F88C04FFF78AF887
:1049700080460090D4F8800400EBC607D4F80C649D
:1049800009E0D9F800300822394640469847761E9B
:1049900008F108084037002EF3DC6846FFF7B0F84E
:1049A000CBE70000D802002070B500F5E0440546D2
:1049B00094F81C03042834D028460EF0E5FD28B1F5
:1049C00094F81C0384F82D03002132E094F874233A
:1049D0002AB1002194F877331BB1012002E00121B4
:1049E000F8E7002094F87563B2421AD809B1C6B945
:1049F00003E094F82D23012A13D118B194F87623FB
:104A00009A420ED121B108B10E4905E00E4903E0EA
:104A100008B10E4900E00E4928460BF0ABF800281B
:104A2000CAD0012070BD681800F5E04080F82E1350
:104A3000491C94F82D038842F5DC284609F09AFABF
:104A4000002070BD25F800083DF7000895F6000825
:104A50001DF400082DE9F04100F5E0440546D4F8C6
:104A6000800418B105F5E940FFF74AF8D4F88C0442
:104A700008B1FEF763FFD4F8900408B1FEF75EFFBB
:104A8000D4F8740408B1FEF759FFD4F87C0408B1D7
:104A9000FEF754FF00260EE005EB061707F5E0478A
:104AA000D7F8C40308B1FEF749FFD7F8840308B16B
:104AB000FEF744FF761C94F81C03B042ECDCD4F8FB
:104AC0007804002803D0BDE8F041FEF737BFBDE809
:104AD000F08130B5054600206C68E41A002C07DD33
:104AE000944201DD104600E020462A681A440A601C
:104AF00030BDF8B50C46064600F03CF805465CB102
:104B00003046FEF7BFFF0090008A20600098408A80
:104B100060606846FEF7F4FF2846F8BD38B50546E4
:104B200000F028F8040023D128460EF0DFFB040033
:104B30001ED12846FEF7A6FF47F209410090095C06
:104B400081B109F0C3F904000FD1009800F50040CD
:104B500090F8980448B96846FEF7D2FF28460AF054
:104B600089FF38BD0EF010FD04466846FEF7C8FF09
:104B7000204638BD7FB50025FEF784FF0126009052
:104B8000044606771A4820600020A06102A920464A
:104B90000DF031FF20BB226803A920469047F8B9E9
:104BA0009DF80800FF281BD19DF80C00D82817D1CC
:104BB0008DF8040001A900980FF03AFC80B99DF827
:104BC0000400C02808D0C12806D0C22809D1009806
:104BD00000F5E04080F8096400980DF0BEFD00B1DA
:104BE00001256846FEF78CFF04B0284670BD000022
:104BF000F72901082DE9F84300F500410446D1F8F2
:104C0000A024D1F8A40404F5E0451044C1F8A4049C
:104C1000002015E095F81D23D1F8A434022A08D10C
:104C2000221802F5E04292F82123C2F1030293FB1D
:104C3000F2F304EB800202F50042401CC2F8A834F3
:104C400095F81C238242E5DC0026DFF884902AE0F8
:104C500004EB061847F2783108EB0107F868FEF715
:104C600011FF0090BA683968D9F800304A43796872
:104C70004A43002198476846FEF742FF47F2B831A1
:104C800008EB0107F868FEF7FDFE0090BA68396886
:104C9000D9F800304A4379684A430021984768466A
:104CA000FEF72EFF761C95F81C03B042D0DC1022D4
:104CB00047F2F830D9F80030002120449847608A44
:104CC000C5F884040020C5F88804BDE8F883000016
:104CD000D402002070B5184CE06820B100F0F4FE5A
:104CE0006168884204D000F027FF00F0EDFE6060AC
:104CF000E068401CE06001281CD10DF047FE05462D
:104D00002068854216D0002813DBFFF72BF80146F8
:104D10002068C0EB0012206900EBC2025167C5EBAE
:104D20000511064A00EBC100011D1160406FFEF73E
:104D3000F3FF256070BD0000F40200201402002083
:104D40001CB5040004D10E480068046E002C16D077
:104D5000FFF7C0FF2046FEF795FE009044696846C5
:104D6000FEF7CEFE4CB12046FEF78CFE0190816826
:104D70008968884701A8FEF7C3FE00F07FFE1CBDCE
:104D80001402002001490A4600F002B801F0FFFFBA
:104D90002DE9F04387B015460C465FEA000846D07F
:104DA000FFF798FF002000F047FC8146214800688B
:104DB000066E4046FEF766FE00900068806900F0CF
:104DC00009FC074640F6FF70C44204D10098B0F9D0
:104DD0000440B0F906500098611E0289ADF8044005
:104DE0001144ADF808104189681E0844ADF806501A
:104DF000ADF80A0007F02AFF6846FEF781FE01A819
:104E000008F046FC06E02A462146404600F0D0FA6B
:104E100008F000FC0028F6D1384600F0DBFB3046F5
:104E200000F090F9484600F007FC00F027FE07B0BC
:104E3000BDE8F083140200202DE9FE4F984691460C
:104E40008A46834600270C9EFFF744FF18481949FD
:104E50000068407C51F82040E1680968042903D0CB
:104E60002468002CF8D100E01CB9FEF77DFF041E79
:104E70001BD0E0680121C26A20469047050011D08E
:104E80002469A0688047401C02D10B4C46F0010603
:104E90000096CDE9015443464A465146584600F033
:104EA000E5F9074600F0EAFD3846BDE8FE8F000050
:104EB0001402002040020020886A040838B504006B
:104EC0001CD0FFF707FF0E480068006EA04201D11A
:104ED00000F072FB2046FEF7D5FD0090406908B156
:104EE00000F0B5FD00980068FEF7C8FE6846FEF7C2
:104EF00007FE2046FEF722FD00F0C0FD38BD000091
:104F0000140200202DE9FF4F83B09A468B460746D6
:104F1000FFF7E0FEDFF83891D9F80000447C4D48F7
:104F200000570128204606DD02F002F8054620461B
:104F300002F012F805E001F0E4FF0546204601F01A
:104F4000E6FF04461FB302A901A8FFF763FBB7F908
:104F50000000002800DA0020B7F902608046002E29
:104F600000DA002601984119B7F90400491E0EF035
:104F7000E6FF054602980119B7F90600491E0EF032
:104F8000DEFFA5EB0802841B521C641C03E04FF0FB
:104F9000000846462A46BAF1000F01D1C4F1000AC2
:104FA000002A51DD002C4FDD109800905346314609
:104FB0004046FFF741FF5FEA000A10D000F07CF89E
:104FC0000746A04206D0D9F80000806C10B132210B
:104FD00008F032FE504600F0B5F8002523E05946AF
:104FE0000598884700F04AFD012007B0BDE8F08F22
:104FF000611BB94202DA504600F088F83DB17219DF
:105000004146504600F0C6F85046FFF799FE594613
:10501000059888471048016809B100208847504624
:10502000FFF7B0FE3D44A542E2DB5046FFF746FFE6
:10503000002000F087F8A74206D0D9F80000806C65
:1050400010B1332108F0F8FD00F018FD0020CCE786
:105050001402002064020020B403002038B50500CB
:105060004FF0000411D0FFF735FE2846FEF70AFD89
:105070000090006800698068804702F0F1FC0446F7
:105080006846FEF73DFD00F0F9FC204638BD38B516
:1050900004000ED0FFF71EFE2046FEF7F3FC00F1E1
:1050A000180400906846FEF72BFD00F0E7FC204650
:1050B00038BD002038BD000038B504460025FFF794
:1050C00009FE1CB908480068046E44B12046FEF78A
:1050D000D9FC0090B0F90A506846FEF711FD00F0C7
:1050E000CDFC284638BD00001402002070B50546EE
:1050F0000024284609F0FCFE641C18B1BDE870408D
:1051000000F07AB8052CF4DB70BD000038B50C4611
:10511000050004D10A480068056E002D0FD0FFF786
:10512000D9FD2846FEF7AEFC0090B0F90A10A14266
:1051300000DD44816846FEF7E3FC00F09FFC38BDCB
:1051400014020020F8B50546FFF7C4FD104E306884
:10515000046ECDB10CB100F02FFA07F06BFE2846BB
:10516000FEF790FC009031680D660068FEF788FD40
:105170006846FEF7C5FC02F001FA02F041F900BFF3
:1051800000F07CFC2046F8BD00F016FAF8E70000BD
:10519000140200207CB515460E46040004D11548C3
:1051A0000068046E002C24D0FFF794FD2046FEF723
:1051B00069FC2DB20090C58034B2848002F020F9E1
:1051C0000098406980B1FEF75DFC009A0190B2F949
:1051D00008108180B2F90A20C28011B10AB104809E
:1051E000458001A8FEF78CFC6846FEF789FC00F0BC
:1051F00045FC7CBD1402002001490A4600F002B8BB
:1052000001F0FFFF7FB515460C4606002DD0FFF7D5
:1052100061FD3046FEF736FC40F6FF710190CC424E
:1052200003D1B0F90440B0F906500289611E11445F
:10523000ADF80840ADF80C104189681E0844ADF87F
:105240000E00ADF80A5001A8FEF75AFC02A808F0BB
:105250001FFA06E02A462146304600F091F808F091
:10526000D9F90028F6D100F009FC7FBD2DE9FF4FE8
:10527000DFF8E8B083B01C46DBF80010DDE9106011
:1052800092464FF000084B7C42461299FEF7BAFC5A
:10529000050060D028698068804702F0E1FB814604
:1052A0000AFB09F1C91DCF08FEF7FAFBF10705D18A
:1052B000C11700EB9170801000EB4000002C09DC5E
:1052C0001FB11838B0FBF7F000E000206442A042A4
:1052D00000DC0446F00707D10090DDE90301234616
:1052E000524600F039FB8046002C03DC2846FEF7CE
:1052F000C5FC30E004FB07F01830F10702D0FEF7E0
:10530000EBFA01E0FEF7F8FA06001CD0FEF7BAFB54
:1053100001900560039981800499C180A0F808A0DC
:105320004481C0F81480C0E9037901A8FEF7E8FBC6
:105330001298AE602861DBF80000407CA86130461E
:1053400007B0BDE8F08F2846FEF798FCB8F10000E2
:1053500001D0FEF7F3FA0020F2E70000140200206B
:10536000054B30B41B68054C5B7C54F823301B693B
:1053700030BC0FF041BE00001402002040020020AB
:10538000F8B515460E460746FEF77CFB0090006810
:105390001621C068426A0020904704466846FEF71E
:1053A000AFFB002C03D02A4631463846A047F8BD53
:1053B000F8B516460F46050012D0FEF763FB0090C5
:1053C00044696846FEF79CFB2846FFF747FE034604
:1053D000082800DD2CB13246394628460FF0CCFEB5
:1053E000F8BD32463946284610F066F8F8BD000090
:1053F00070B5044609480D46016819B908490160AD
:1054000001F054F90548001F006800B10024002D88
:1054100000DC01250348055570BD0000780200201E
:105420002940010864020020094A126802B10020E4
:10543000074A243252F82030002B07DBA2F1180370
:1054400043F820104FF0FF3142F820107047000061
:105450007402002010B5002821D009B30AB3B1F9B5
:105460000040B2F900309C4200DA23460380B1F9D3
:105470000240B2F902309C4200DA23464380B1F97F
:105480000440B2F904309C4200DD23468380B1F928
:105490000610B2F90620914200DC1146C18010BD11
:1054A00011460A6802604968416010BD00280BD0AF
:1054B00003880B4403808388194481804188114408
:1054C0004180C1881144C1807047000070B500253B
:1054D000FFF700FC094CD4E9002082420AD0D2E94F
:1054E000005610460DF0E8FC20603146284607F0D3
:1054F000C9FE012500F0C2FA284670BDE402002072
:105500002DE9FC41154DDDE908742D68B5F90860F9
:10551000864200DD3046B5F90C60964200DA32462C
:10552000824219DBB5F90A608E4200DD3146B5F9D9
:105530000E509D4200DA2B468B420DDB00E02C46DC
:10554000E5682D6825B1042D02D02568002DF6D11F
:10555000CDE9007401F03EFEBDE8FC81140200209C
:10556000B0F90220B1F906309A4213DCB1F90220F9
:10557000B0F906309A420DDCB0F90020B1F90430E0
:105580009A4207DCB1F90010B0F90400814201DC55
:1055900001207047002070470146024870220068D1
:1055A000FAF77FBE14020020024970220968FAF758
:1055B00078BE00001402002010B5FFF78BFB01F04D
:1055C000D5FE01F0DBFF07F041FBBDE8104000F025
:1055D00055BA000070B50B4D04462868467CFFF7AD
:1055E00079FB022C09D22046FEF7BEFB28B12868C1
:1055F0004474FFF7E1FF0448046000F03FFA3046CE
:1056000070BD0000140200203003002010B50446D5
:10561000FFF760FB204601F0C9FEBDE8104000F036
:105620002DBA10B50446FFF755FB204601F0F6FEF3
:10563000BDE8104000F022BA10B50446FFF74AFB5F
:10564000204601F019FF044600F018FA204610BD6C
:1056500070B50446FFF73EFB04480068C56904B115
:10566000C46100F00BFA284670BD0000140200204F
:105670000249CA69C861104670470000D001002085
:1056800001494860704700000002002002494A6852
:105690004860104670470000D001002070B50546F4
:1056A000FFF718FB03480068847E857600F0E6F972
:1056B000204670BD1402002070B50C460546FFF769
:1056C00009FB09482246058008480480084800680C
:1056D000417C084850F82100C1680B6A2946984768
:1056E000BDE8704000F0CAB97002002072020020CC
:1056F000140200204002002070B50546FFF7EAFAC8
:1057000003480068047E057600F0B8F9204670BDB5
:105710001402002070B50446FFF7DCFA0448006864
:10572000B0F92C50848500F0A9F9284670BD00001E
:105730001402002070B50446FFF7CCFA0448006854
:10574000B0F92A50448500F099F9284670BD000050
:105750001402002002480068002800D0004770476B
:105760001003002002498A6802B98860FFF7F2BF7F
:10577000E402002010B504000ED0FFF7ABFA20467B
:105780000EF024FF20460FF09BFB2046FEF7D6F8D4
:10579000BDE8104000F072B910BD38B50C460500E8
:1057A00011D0FFF797FA2846FEF76CF90090808930
:1057B000204201D0012400E000246846FEF7A0F951
:1057C00000F05CF900E00124204638BD38B50546FC
:1057D000002028600648046844B12046FEF752F9CC
:1057E0000090006928606846FEF78AF9204638BDB7
:1057F000A003002038B504004FF000000D460860FB
:1058000011D02046FEF73EF90090846844B1684606
:10581000FEF776F92046FEF735F90090006928601A
:105820006846FEF76DF9204638BD00002DE9F041CD
:10583000084E0446056830680168284688470746D0
:105840003068416828468847284420603846BDE8CB
:10585000F08100001C0200202DE9F0410C460646B4
:105860000025064F05E03868416830468847064401
:105870000544641EF7D22846BDE8F0811C020020D2
:105880002DE9F0411E46069C1746884605463A46D5
:10589000A8687F1C3346D0F804C041462846E0473C
:1058A000641EF4D1BDE8F08170B5B0F90040091B69
:1058B000B0F904408C422CDD00F11404B0F9025020
:1058C0000069521B02FB0040CA1800EBE104521EA3
:1058D000D010B0EBE10501F007034FF0FF0102F03B
:1058E000070221FA03F0C2F1070201FA02F1CEB277
:1058F00021780FD001436D1E04F8011B002D05DD3A
:10590000FF2229462046FAF7EDFC2C44207830434C
:10591000207070BD30400143217070BD10B5B0F9EA
:105920000030B0F90240C91A00F114030069121BDB
:1059300002FB003000EBE10001F007030278802158
:10594000D9400A43027010BDB0F9061002695143F4
:105950001430FAF7CEBC00002DE9F843804602F17E
:105960000F000011470003FB07F01C46154689464F
:105970001430FDF7C1FF060018D0FFF7ABF9304631
:10598000FEF780F80090A0F80080A0F802908580D3
:10599000C480074981600121818107616846FEF763
:1059A000AFF800F06BF83046BDE8F8830020FBE765
:1059B0002C73040870B5B0F90660B0F904400B68A8
:1059C00000F1140596421BDD0069A34202FB005062
:1059D00000EBE30214DA641EE010A0EBE30512F81A
:1059E000010B03F00704A040C4B206E045B1083340
:1059F00012F8014B23F007036D1E002CF6D004E0D3
:105A0000002070BD6006040E5B1C2006FAD5FF2C3A
:105A100007D0184602E06406240E401C6606FAD43D
:105A200000E0D81DC443640705D006E012F8014B1E
:105A3000FF2C09D108306D1EF8D5C01A401C0B6030
:105A400070BD6206140E401C2206FAD4F5E738B584
:105A50000546FFF73FF92846FEF714F800908189C4
:105A6000491E0CB284816846FEF74AF814B92846EC
:105A7000FDF764FF00F002F838BD00000348C1687C
:105A8000491EC16001D100F065B87047F4020020E2
:105A900010B50749054808604FF40001FDF746FFBF
:105AA000BDE810408020FEF715B80000000080C05F
:105AB0007401002008B56A46002103F08DFC08BD82
:105AC0000120FFF7F7BF00000248006890F8370098
:105AD000704700005C01002008B5684603F060FDD7
