:020000040800F2
:10000000F00C0120C1010008ED78000849620008E9
:1000100001780008CD1C000895C60008000000000B
:1000200000000000000000000000000081C0000887
:10003000E126000800000000590A0008AD90000801
:10004000FB010008FB010008FB010008FB010008A0
:10005000FB010008FB010008FB010008FB01000890
:10006000FB010008FB010008FB010008FB01000880
:10007000FB010008FB010008FB010008FB01000870
:10008000FB010008FB010008FB010008FB01000860
:10009000FB010008FB010008FB010008FB01000850
:1000A000FB010008FB010008FB010008FB01000840
:1000B000FB010008FB010008FB010008FB01000830
:1000C000FB010008FB010008FB010008FB01000820
:1000D000FB010008FB010008FB010008C1C4000887
:1000E000FB010008FB010008FB010008FB01000800
:1000F000FB010008FB010008FB010008FB010008F0
:10010000FB01000851AE0008FB010008FB010008DC
:10011000FB010008FB010008FB010008FB010008CF
:10012000FB010008FB010008FB0100084124000856
:10013000FB010008FB010008FB010008FB010008AF
:10014000FB010008FB010008FB010008FB0100089F
:10015000FB010008FB010008FB010008FB0100088F
:10016000FB010008FB010008FB010008FB0100087F
:10017000FB010008FB010008FB010008FB0100086F
:10018000FB010008FB010008FB010008FB0100085F
:10019000FB010008FB010008FB010008FB0100084F
:1001A000BD750008FB01000835240008DFF80CD0FD
:1001B00000F066FB0048004751800108F00C012068
:1001C000DFF83800016841F470010160BFF34F8F20
:1001D000DFF82C00016821F040410160BFF36F8F10
:1001E0000848804708480047FEE7FEE7FEE7FEE7CD
:1001F000FEE7FEE7FEE7FEE7FEE7FEE788ED00E04C
:1002000034EF00E069C10008AD01000872B6704724
:1002100062B67047EFF3108072B6704780F31088B3
:10022000704730BF704720BF7047B0FA80F070470A
:1002300090FAA0F0B0FA80F0704790FAA0F0704702
:100240002DE9F05F0546002092469B46884606460B
:10025000814640241BE0284641464746224600F09E
:1002600061FA53465A46C01A914110D311461846B6
:10027000224600F048FA2D1A67EB01084F46224645
:100280000120002100F03FFA17EB00094E41201E2B
:10029000A4F10104DFDC484631462A464346BDE866
:1002A000F09F10B5441A0346944209D284181144B1
:1002B00003E011F8013D04F8013D521EF9D210BDD2
:1002C00040EA0104A40703D009E010C9121F10C3BB
:1002D000042AFAD203E011F8014B03F8014B521E35
:1002E000F9D210BDD2B201E000F8012B491EFBD2B9
:1002F00070470022F6E710B513460A460446194631
:10030000FFF7F0FF204610BD10B5002200E0521CA0
:10031000835C8C5CA34201D1002BF8D1D8B2E1B24E
:10032000401A10BD2DE9FE4F804681EA0300C00F40
:100330000C46009021F0004123F00045B8EB02008C
:10034000A94105D24046214690461C460B4602462E
:1003500023F00040104347D0270DC7F30A00C3F332
:100360000A510290401A019040286BDAC3F313003F
:1003700040F4801B0098924620B10023D2EB030A80
:1003800063EB0B0B01985946C0F14002504600F058
:10039000BAF906460D4650465946019A00F0D2F980
:1003A00010EB08006141002487EA115284EAE773E8
:1003B0001A4340D0009A62B3019A012A4FEA0752C9
:1003C00015DC001B61EB02014FF0004202EA07520C
:1003D000CDE90042001C41F5801132462B4600F069
:1003E000D2F903B0BDE8F08F40462146F9E7001B83
:1003F00061EB0201001C41F5801300185B412018DD
:10040000A2F5001747EB030140EAD570B6196D411C
:1004100011E06D084FEA360645EAC0754FEA07520B
:10042000001B61EB0201001C41F5801149084FEAF5
:1004300030000019514132462B4603B0BDE8F04F61
:1004400000F092B90098012240000023D0EB020294
:1004500063EBE073009821464FEAE074B8EB0000CC
:1004600061EB0401E9E783F000435BE781F00041C1
:1004700058E72DE9FE4F81EA030404F0004421F01F
:10048000004100944FF0000B23F0004350EA0104B8
:100490005ED052EA03045BD0C3F30A54C1F30A5599
:1004A0002C44A4F2F3340194A0FB0254C1F31301D1
:1004B00041F48011C3F3130343F4801301FB02449E
:1004C00000FB034E840A970A44EA815447EA8357A3
:1004D000A4FB076802958D0A05FB07854FEA932C5C
:1004E00004FB0C542705029D4FEA065847EA1637CD
:1004F000B5EB08056EEB070C870E920E47EA8117E5
:1005000042EA8312A7FB0201B6EB0B0164EB000485
:100510002B0D43EA0C335E1844EB1C50DA4651466F
:10052000E7FB0201C5F313044FEA0B3343EA14530C
:100530004FEA0432019C43EA0603A4F10C0402943E
:10054000009CCDE900B400F01EF903B0BDE8F08FC7
:1005500000200146F9E72DE9F04D81EA030404F09B
:10056000004B21F0004514464FF0000A23F00041F3
:1005700050EA050220D054EA01021DD0C5F30A5703
:100580000246C5F31303C1F31300C1F30A5640F446
:10059000801543F48013A7EB0608101BD64608F21B
:1005A000FD3873EB050002D308F1010801E0921851
:1005B0005B41B8F1000F03DA00200146BDE8F08D81
:1005C00000204FF48011064684460EE0171B73EBA3
:1005D000050705D3121B63EB050306434CEA010C28
:1005E00049084FEA300092185B4150EA0107EDD10B
:1005F00052EA030012D082EA040083EA05010843AC
:1006000005D0101BAB4106D20122002306E00022D8
:100610004FF0004302E06FF0010253101AEB0600A6
:100620004CEB085110EB0A0041EB0B01BDE8F04D1B
:1006300000F09AB80EB5C10F80EAE0700844CA070E
:10064000002140F233438DE80E000A460B4600F0CD
:100650009AF803B000BD0EB540F23341029100217B
:10066000CDE900110A460B4600F08DF803B000BD3D
:1006700070B5C1F30A5201F000450024C1F3130123
:1006800040F2FF3341F480119A4201DA002070BD3C
:1006900040F233439A42A2F2334203DC524200F06A
:1006A00041F800E090402C43F1D0404270BDC1F3CE
:1006B0000A5210B5C1F3130140F2FF3341F4801127
:1006C0009A4201DA002010BD40F233439A42A2F26E
:1006D000334203DC524200F025F810BD904010BDBB
:1006E00000F0004230F000400AD0C10D01F5607109
:1006F000C0F3160042EA0151C20840071143704797
:10070000002001467047202A04DB203A00FA02F15B
:10071000002070479140C2F1200320FA03F31943EF
:1007200090407047202A04DB203A21FA02F0002191
:10073000704721FA02F3D040C2F1200291400843F1
:1007400019467047202A06DBCB17203A41FA02F0FF
:1007500043EAE07306E041FA02F3D040C2F120021E
:10076000914008431946704710B5141E73F10004F8
:1007700008DA401C41F1000192185B411A4301D193
:1007800020F0010010BD2DE9F04D92469B4611B1BD
:10079000B1FA81F202E0B0FA80F220329046FFF71F
:1007A000B2FF04460F4640EA0A0041EA0B015346F5
:1007B0005A46084313D0114653EA010019D0C8F134
:1007C00040025046FFF7AEFF05460E4650465946DA
:1007D0004246FFF798FF084305D0012004E0204679
:1007E0003946BDE8F08D0020054346EAE0762C430B
:1007F00037430A986305E40AA0EB08000022FD0ACB
:1008000044EA47540A3002D500200146E9E70105D1
:1008100010196941DDE9084500196941BDE8F04D4D
:10082000A2E770B521F0004303430CD0C1F30A5591
:100830000024D5EB040564EB0403D617AD1AB341CD
:1008400002DB0020014670BD201841EB025170BD53
:1008500030B5041E71F1000404DB4FF00044404247
:1008600064EB0101141E73F1000405DB1C464FF01C
:100870000043524263EB0403994208BF904230BDEB
:10088000064C074D06E0E06840F0010394E80700DD
:1008900098471034AC42F6D3FFF78CFC005E040896
:1008A000205E04082DE9F04D00231A461B1A8A41E8
:1008B00003DB00200146BDE8F08DC1F30A52C1F30D
:1008C000130141F480154FF0000BD10702D100183D
:1008D0006D41521E0027044640F2FF11384601EBDD
:1008E000620A3E468046024600204FF48011FFF720
:1008F00019FFC2197141BB1846EB0100B4EB030CA0
:1009000075EB000C04D3E41A65EB000517460E46A0
:10091000241908F101006D4180463428E3DDF919FE
:1009200046EB0600091BA84103D24FF0FF321346E5
:1009300001E0002213461BEB070046EB0A51BDE81D
:10094000F04DFFF711BF70B58C1810F8015B15F072
:10095000070301D110F8013B2A1106D110F8012B31
:1009600003E010F8016B01F8016B5B1EF9D12B0756
:1009700005D40023521E0DD401F8013BFAE710F80C
:10098000013BCB1A921C03E013F8015B01F8015BF9
:10099000521EF9D5A142D8D3002070BDEFF30981D2
:1009A00041B1F1EE101A40F8041D20ED200A3E4935
:1009B0000A6810607047B0EC200A02C8E1EE101A15
:1009C0003A490A681060704772B64EF62250CEF26D
:1009D000000040F2FF01C0F2000101704FF0000082
:1009E00080F3098808F00AFA40F26410C2F20000AD
:1009F000016881F3088840F2DE00C2F2000040F294
:100A0000DF01C2F200010A78027040F25C15C2F206
:100A1000000540F26011C2F200010A682A60106805
:100A200080F30988EFF3148040F0020080F314880B
:100A3000BFF36F8FBDE8F00F0FBCBDE8005006BCE0
:100A400062B608471A484FF0805101607047184855
:100A50004FF080510160704772B6EFF3098020E9D2
:100A6000F00F40F25C15C2F200052E68306074464B
:100A700008F0C4F940F2DE00C2F2000040F2DF01EB
:100A8000C2F200010A78027040F26011C2F2000165
:100A90000A682A6044F0F40E1068B0E8F00F80F3A2
:100AA000098862B6704700005C01002060010020E8
:100AB00004ED00E0002904D0816841F0010181606B
:100AC0007047816821F0010181607047084A116810
:100AD000084B1940D0F804C0036843EA0C03D0F86F
:100AE00008C0C0684CEA0000184308431060704713
:100AF00004230140E030FCFF002904D0816841F468
:100B0000807181607047816821F4807181607047D5
:100B1000002904D0816841F40071816070478168C8
:100B200021F400718160704710B4426822F4807231
:100B300022F0407291F804C00B6842EA0C221A437A
:100B4000426082680D4B1A40D1F80CC00B694C7999
:100B500043EA0C03D1F808C04CEA440C43EA0C0306
:100B60001A438260C26A22F47002097D491EC9B22A
:100B700042EA0151C16210BC70470000FDF7FFC09E
:100B800030B4072509290CD9C468A1F10A0C0CEB73
:100B90004C0C05FA0CF5AC4303FA0CF32343C36089
:100BA00009E0046901EB410C05FA0CF5AC4303FACA
:100BB0000CF3234303614FF01F0C072A0CD2436B45
:100BC000521E02EB82020CFA02FC23EA0C03914053
:100BD0001943416330BC70470D2A0CD2036BD21FFE
:100BE00002EB82020CFA02FC23EA0C039140194347
:100BF000016330BC7047C36A0D3A02EB82020CFA03
:100C000002FC23EA0C0391401943C16230BC7047D7
:100C1000816841F08041816070470021016001716D
:100C200041718160C1600161012101757047002837
:100C300000DC40427047000082B0064C206880F41F
:100C40000050206001AA00214FF47A7008F014F9D6
:100C5000F4E700001408024086B01A4E002505ACE7
:100C600003A904A801F079FB10BBBDF810004CF6F5
:100C7000CD414843C10C0491BDF80C004CF6CD4267
:100C80005043C00C039030460BF012FD05AA002122
:100C90004FF47A7008F0F0F8BDF80C1030460BF005
:100CA00007FDBDF81020BDF80C1007A017F037FAAB
:100CB00000230A22194618460095019408F01EF9EF
:100CC000CEE700000010014068756D203D202564CE
:100CD0000A74656D3D2025640A0000002DED048B2B
:100CE00084B000271A4CDFED1B8A9FED1B9A1B4D29
:100CF0001B4E0DF10C08208800EE100AB8EE400AD9
:100D000020EE280A20EE098A18EE100AFFF7E8FC08
:100D100041EC100B13A053EC102B17F000FA18EE57
:100D2000100AA84209DC307838B90022114616A012
:100D300013F0F0FC18A014F00FFB00231A46052155
:100D40001846CDF80480009708F0D8F8D3E70000E3
:100D50003C00002000008039CDCC544100002041EF
:100D6000790000200D0A2054686520637572726551
:100D70006E742041442076616C7565203D202566A7
:100D80002056200D0A000000303A6D6569646961E3
:100D90006E2E6A70670000004054657874546F537B
:100DA000706565636823BFECC3BBB5E7C1CBA3AC7B
:100DB000D2AAB8F8CED2BBBBB5E7B3D8BFA9A3A11E
:100DC0002400000084B0AC4EAC4F4FF000080DF191
:100DD0000C0909F0C1FEA6FB00214908A1EB810125
:100DE0000144CCB2A7FB0021C9086FF00A0201FB45
:100DF0000200C5B22946A2A017F091F925B9002238
:100E00001146A3A013F086FC012D04D10022114647
:100E1000A2A013F07FFC022D04D100221146A2A053
:100E200013F078FC032D1AD1012004F0F9F9002009
:100E300004F012FA02F0E6FD0523012202219DA032
:100E400013F0D0FB24B90022114691A013F062FCEC
:100E5000012C07D00022114693A013F05BFC042D57
:100E600006D020E0002211468CA013F053FCF6E7D8
:100E7000012004F0D5F9002004F0EEF902F0C2FDE3
:100E80000523012202218FA013F0ACFB24B900221C
:100E900011467FA013F03EFC012C07D00022114622
:100EA00081A013F037FC052D06D020E0002211466A
:100EB0007AA013F02FFCF6E7012004F0B1F900202E
:100EC00004F0CAF902F09EFD05230122022181A04F
:100ED00013F088FB24B9002211466DA013F01AFC10
:100EE000012C07D0002211466FA013F013FC062D31
:100EF00006D020E00022114668A013F00BFCF6E7B4
:100F0000012004F08DF9002004F0A6F902F07AFD2A
:100F100005230122022173A013F064FB24B90022EF
:100F200011465BA013F0F6FB012C07D000221146FE
:100F30005DA013F0EFFB072D06D020E00022114644
:100F400056A013F0E7FBF6E7012004F069F9002052
:100F500004F082F902F056FD05230122022165A06A
:100F600013F040FB24B90022114649A013F0D2FB34
:100F7000012C07D0002211464BA013F0CBFB082D0B
:100F800006D020E00022114644A013F0C3FBF6E790
:100F9000012004F045F9002004F05EF902F032FD72
:100FA00005230122022157A013F01CFB24B90022C3
:100FB000114637A013F0AEFB012C07D000221146DA
:100FC00039A013F0A7FB092D06D020E0002211461E
:100FD00032A013F09FFBF6E7012004F021F9002076
:100FE00004F03AF902F00EFD05230122022149A086
:100FF00013F0F8FA24B90022114625A013F08AFB59
:10100000012C07D00022114627A013F083FB0A2DE4
:1010100006D020E00022114620A013F07BFBF6E76B
:10102000012004F0FDF8002004F016F902F0EAFCBB
:101030000523012202213BA013F0D4FA24B9002297
:10104000114613A013F066FB012C0FD000221146AD
:1010500015A013F05FFB0023142219461846CDF8A3
:101060000490CDF8008007F049FFB2E60022114657
:101070000AA013F04FFBEEE7ABAAAAAAA38B2EBAE5
:1010800052616E6444617461203D2025640A000051
:10109000303A70632E6A706700000000303A706367
:1010A000322E6A7067000000303A7063332E6A7027
:1010B00067000000303A7869616F6A69332E6769AA
:1010C00066000000303A7869616F6A69342E67699A
:1010D00066000000303A7869616F6A69352E676989
:1010E00066000000303A7869616F6A69362E676978
:1010F00066000000303A7869616F6A69372E676967
:1011000066000000303A7869616F6A69382E676955
:1011100066000000303A7869616F6A69392E676944
:1011200066000000303A7869616F6A6931302E6775
:10113000696600002DE9F04F8BB000F0C8FD00F0AB
:10114000A7FC00F023FD06F061FB01225BA15C48D7
:1011500016F02EF95B4948700AA807F0B3F9FFF7BB
:1011600059F88346584A0AAD4FF00408462357A160
:10117000A2F12000CDF80080019506F03BFD00248F
:1011800005274FF42F794FF0460A5448069403265A
:101190000594CDF808A0CDF80C9001900497234653
:1011A0004F4A50A1009707960895A0F5E86007F010
:1011B000EBF980200895039005940C214D4A079681
:1011C00006940920019202910090049700234A4A54
:1011D0004AA14E4807F0D8F94D480694019005946D
:1011E0000620CDF808A0CDF80C9000900497079643
:1011F00008950023474A48A14B4807F0C5F94FF42A
:1012000096700895039005941E21484A0796069407
:10121000072001920291009004970023444A45A1BF
:10122000484807F0B1F948480694019005944FF4F6
:1012300000794FF0330A0A20CDF808A0CDF80C90C1
:1012400000900497079608950023404A40A144481F
:1012500007F09AF94348069405940796CDF80C9048
:1012600001900023404A41A1CDF808A004970096C0
:101270000895434807F088F9424806940594CDF84C
:1012800008A0CDF80C90019000233F4A3FA1CDF873
:101290000080049707960895404807F075F90AA959
:1012A000374807F09FFD0AA93D4807F02FFA584636
:1012B000FEF7B4FF0BB0BDE8F08F0000303A00003D
:1012C000A404002079000020F41400204D656D2056
:1012D000466F722054657374000000000C1E0020DD
:1012E000C50D0008417070205461736B2053686F06
:1012F00077425100FC300020390C0008417070200A
:101300005461736B204C6564310000004C18002060
:10131000FC320020F9140008417070205461736B96
:101320002074616C6B0000000C190020EC3D002063
:10133000590C0008417070205461736B204C656437
:1013400033000000CC190020FC280020DD0C000830
:10135000417070205461736B20506F77657200008C
:101360008C1700209C420020491400084170702016
:101370005461736B20546F7563685363616E000032
:101380008C1A00209C4A0020A51300084170702090
:101390005461736B20546F75636800004C1B002010
:1013A0000C16002084B000240125144E00270DF1F6
:1013B0000C08716800208847012804D110A016F09D
:1013C000AEFE601CC4B2052C05D3012D03D10EA0C6
:1013D00013F0C2FF0025082C05D325B912A013F085
:1013E000BBFF0024012500224FF4E1731146104693
:1013F000CDF80480009707F081FDDAE74400002073
:10140000746F7563680A00004054657874546F53B4
:10141000706565636823BAC3D1F7B0A12CB1F0C37E
:10142000FECED2C1CB2400004054657874546F5373
:10143000706565636823D4D9C0B4A3ACCED2D2AAF8
:10144000D2A7C4E3C1CB240088B0DFF8A8904FF046
:10145000010A02AF4FF6FF784FF0000BD9F80410E5
:1014600000208847002499F820000AFA04F1084275
:101470002FD009EB4405A889B0F5F07F2BD2E98A7B
:10148000B1F5887F27D237F82420424504D127F8C8
:10149000240007EB84004180012003F0C1FE4FF4DB
:1014A0007F0003F0E4FE07EB8406EB8AAA897188CB
:1014B00037F8240002F0E4FBA88927F82400E98A21
:1014C0007180B0F5E47F06D9142904D202F09AFAAB
:1014D00001E027F8248007A8002201900523114687
:1014E000CDF800B0104607F009FD601CC4B2052C11
:1014F000B9D3B3E74400002086B00024D74F4FF0A3
:1015000001090DF114080026002302AA1946184605
:10151000CDF8008007F098F90546D1A0298816F08B
:10152000FEFD87F800902A880C2A00F0D38009DCA1
:101530000A2A80F08C81DFE802F0F41927F42CF4F9
:1015400037F4F476162A00F0078107DC0F2A00F042
:10155000AF80142A40F07B8100F0E4B8172A00F035
:101560003181182A40F0738100F05AB9C1A016F0F9
:10157000D6FD05AA00214FF4FA6007F07DFCBFA05C
:1015800013F0EAFE00F063B9BAA016F0C8FD00F04F
:101590005EB9C2A016F0C3FD05AA00214FF47A700F
:1015A00007F06AFC00F053B9BEA016F0B8FD03A91D
:1015B00004A800F0D2FE40B1BCA013F0CDFE05A9F6
:1015C000C44807F00DFA00F042B9BDF810004CF61F
:1015D000CD414843C00C0490BDF80C004843C00CFA
:1015E000039005A9BB4807F0FDFB00221146BAA0F5
:1015F00013F090F8BDF810101C2908D3B9A013F00F
:10160000ABFE00221146BFA013F084F804E0BDF841
:101610000C20BFA013F0A0FE05AA002144F6206014
:1016200007F02AFCCBE7C8A016F079FD05A9A94868
:1016300007F0D8FB012003F0F3FD002003F00CFEBF
:1016400002F0E0F90022322311461046CDF8048062
:10165000009607F053FCBE4813F07EFE03230222DF
:101660000121BCA012F0BEFF032302220121BCA075
:1016700012F0B8FF032302220121BCA012F0B2FF36
:10168000032302220121BCA012F0ACFF032302229B
:101690000121BCA012F0A6FF032302220121BCA05D
:1016A00012F0A0FF05A98B4807F09AF900F0CFB817
:1016B000BAA016F034FD05A9864807F093FB002276
:1016C0001146B8A013F026F805A9824807F088F95A
:1016D00000F0BDB8B6A016F022FD05A97D4807F0C0
:1016E00081FB00221146B4A013F014F814B9B648D7
:1016F00013F032FE012C02D1B44813F02DFE00236A
:10170000192219461846CDF80480009607F0F6FB1A
:10171000601CC4B2022C00D3002405A96D4807F058
:101720005FF994E0AAA016F0FAFC05A9694807F051
:1017300059FB012003F074FD002003F08DFD02F041
:1017400061F9052301220221A3A012F04BFF05A994
:10175000604807F045F97AE0A3A016F0E0FC05A97F
:101760005C4807F03FFB0022322311461046CDF8BB
:101770000480009607F0C2FB05A99D4807F032FBE4
:101780000022322311461046CDF80480009607F05F
:10179000B5FB05A9974807F023F9012003F040FDA8
:1017A000002003F059FD02F02DF9002264231146B8
:1017B0001046CDF80480009607F0A0FB8EA013F031
:1017C000CBFD44E097A016F0AAFC05A9414807F01C
:1017D00007F90022322311461046CDF80480009606
:1017E00007F08CFB05A9834807F0FCFA002232239E
:1017F00011461046CDF80480009607F07FFB05A93E
:101800007B4807F0EDF80022642311461046CDF81E
:101810000480009607F072FB85A013F09DFD16E092
:101820008AA016F07CFC012003F0FAFC002003F0F3
:1018300013FD02F0E7F80022322311461046CDF8DE
:101840000480009607F05AFB82A013F085FD3E70DD
:1018500005AA2946894806F04CFA55E67900002089
:101860005265636569766544617461203D20256435
:101870000A000000C4E3BAC30A00000040546578BF
:1018800074546F53706565636823D3D0CAB2C3B410
:10189000CED2C4DCB0EFC4E3B5C42400D0D4B1F0E0
:1018A0000A000000CEC2B6C80A00000040546578A5
:1018B00074546F53706565636823B0A1D1BDCED2F7
:1018C000B5C4CEC2B6C8B4ABB8D0C6F7BBB5C1CBF1
:1018D00024000000CC160020303A7869616F2E6A2F
:1018E000706700004054657874546F537065656389
:1018F0006823D5E2D5E6B5C4CCABC8C8C1CBA3A19B
:1019000024000000303A6B752E6A706700000000FA
:101910004054657874546F53706565636823CFD6FF
:10192000D4DAB5C4CEC2B6C8CAC75B6E325D256410
:10193000A3ACCAAAB6C8CAC7B0D9B7D6D6AE5B6E72
:10194000325D256424000000CCFDB8E80A000000E8
:10195000A05D0408303A67312E6769660000000018
:10196000303A67322E67696600000000303A67330C
:101970002E67696600000000303A67342E6769669A
:1019800000000000303A67352E67696600000000ED
:10199000303A67362E67696600000000C9FAC6F85B
:1019A0000A000000303A666168756F2E6A70670041
:1019B000D0A6BBB00A000000303A68616E78696159
:1019C0006F2E6A7067000000FC5C0408745C0408F9
:1019D000B1BFB5B00A000000303A7869616F6A693A
:1019E000312E676966000000BBADBBAD0A00000088
:1019F0004C1B00208C1A00204054657874546F539F
:101A0000706565636823BFAACABCBBADB0C9A3AC8F
:101A1000C7EBCBB5CDCBB3F6BBADBBADCDCBB3F642
:101A200024000000CDCBB3F6BBADBBAD0A00000077
:101A30004054657874546F53706565636823C4E3DC
:101A4000BBADB5C4D5E6C4D1BFB42400C7E5C6C19B
:101A50000A0000004054657874546F5370656563E4
:101A60006823BAC3C1CBC4E3BFC9D2D4D6D8D0C2CD
:101A7000BFAACABCBBADC1CB24000000D414002057
:101A800000B585B0684608F095FF019805B000BD27
:101A900010B50121080308F039FF4FF4A06005F0EC
:101AA0006FFF00F01FFE00F07FF800F0D1F809F0A2
:101AB00013F81D4816F033FB1C4816F030FB1C4889
:101AC00016F02DFB194816F02AFB174816F027FBD5
:101AD00005F030FD09F0DCFB16A016F020FB05F048
:101AE00034F80AF073FB02F009FC15A016F017FB9E
:101AF00009F0C0F817A016F012FB00F07DFC78B1D9
:101B000019A016F00CFB09F00DF8012003F088FB7A
:101B10006FF07F4003F0A0FBBDE8104001F072BF02
:101B200017A016F0FCFAEEE7305C0408A85B040886
:101B3000EC5B0408534452414D204F4B210A0000F6
:101B40004755495F496E6974205375636573732106
:101B50000A00000041445F496E6974205375636553
:101B60007373210A0000000048617665206E6F746F
:101B70002066696E642044485432320A0000000036
:101B80004448543232204F4B210A000010B5FFF771
:101B900077FF04490968B0FBF1F0BDE8104007F099
:101BA00097BA00008887010870B586B0012102202D
:101BB00008F0ACFE0121880408F0D2FE224E072274
:101BC0000B21304601F0B3FA07220A21304601F01A
:101BD000AEFA00248DF8164001218DF81710022569
:101BE0008DF81450890204918DF8155004A93046DF
:101BF00001F052FA8DF81450A802049004A930465E
:101C000001F04AFA4FF4E1300090ADF80440ADF82D
:101C10000640ADF80840ADF80C400C20ADF80A00C5
:101C20000A4C694620460AF0C5FC05F060FE012218
:101C300040F2255120460AF0A0FC012120460AF07E
:101C400065FC06B070BD0000000402400048004082
:101C500030B587B00121402008F058FE0121202036
:101C600008F08CFE174D08220E21284601F05FFA7D
:101C700000248DF8164001218DF8171002218DF8EF
:101C800014104A0304928DF8151004A9284601F097
:101C900003FA4FF4E1300090ADF80440ADF806408F
:101CA000ADF80840ADF80C400820ADF80A00064C2D
:101CB000694620460AF07EFC012120460AF026FCF7
:101CC00007B030BD0018024000140140FEE710B517
:101CD00000F018F8BDE8104000F010B810B5FEF79D
:101CE00099FA04461021044805F08BFD2046BDE812
:101CF0001040FEF793BA0000E4B20020FFF7EEBFF9
:101D0000FEE7000002490020086000F009B800006A
:101D100094000020014908607047000094000020F2
:101D200010B5FFF7ADFE08490A6842F080720A60FC
:101D3000064900224A600A6842F001020A60BDE8D2
:101D40001040FFF7E7BF0000FCED00E0001000E0EE
:101D50000148406870470000001000E0022014F0C5
:101D6000F3BC000070B50B4D00242C600A480168DC
:101D700021F0C0010160016841F0400101600748A5
:101D80000460FFF7EBFF01202860FFF7E7FF2C60FE
:101D900070BD000098824342002002408C02444201
:101DA00010B582B00121802008F0B0FD01210802A9
:101DB00008F0ACFD4020009001248DF80440002084
:101DC0008DF806008DF8074002208DF80500694661
:101DD000074801F061F9082000906946054801F0C4
:101DE0005BF9054804600548C0F8984202B010BD90
:101DF000001C0240002002408C024442008043420A
:101E000070B50B4E002434600A48016821F0C0010F
:101E10000160016841F0400101600748012505604B
:101E2000FFF79CFF3560FFF799FF346070BD00003D
:101E300098824342002002408C0244422DE9F04740
:101E4000824600241748016821F0C0010160016842
:101E500001601E2014F078FC0025134FDFF84C9031
:101E600000264FF00108C7F89862FFF777FFC7F820
:101E700098826006040ED9F80C0208B1601CC4B246
:101E8000FFF76CFF681CC5B2082DECD3BAF1000F48
:101E900004D0FFF767FF2046BDE8F087FFF7B0FFEB
:101EA000F9E7000000200240008043420000444265
:101EB0002DE9F04705461348016821F0C001016093
:101EC000016841F0400101600F4E4FF00008C6F874
:101ED00098820024DFF834900127E809C9F88C02C1
:101EE0006806050EFFF73AFFC6F89872FFF736FF4F
:101EF000C6F89882FFF732FF601CC4B2082CECD3FE
:101F0000BDE8F087002002400080434200004442C8
:101F100070B50B48016821F0C0010160016841F013
:101F200040010160074D01202860074E30601E20EF
:101F300014F00AFC00242C60FFF710FF346070BD21
:101F4000002002408C0244429882434270B50B4804
:101F5000016821F0C0010160016841F040010160A9
:101F6000074D00202860074E30601E2014F0ECFB67
:101F700001242C60FFF7F2FE346070BD00200240A7
:101F8000988243428C02444270B500241248016892
:101F900021F0C001016001680160104D0120C5F809
:101FA0008C020F4EC6F89802FFF7D8FED5F80C0247
:101FB00068B1601CC4B2FA2C03D9FFF7C7FF012037
:101FC00070BDFFF7CBFED5F80C020028F1D1002040
:101FD000C6F8980270BD0000002002400000444294
:101FE0000080434270B500254FF4803400E0641E49
:101FF00024B1802008F006FF0028F8D02CB140F270
:10200000FF5008F0BBFE284670BD032070BD0000E5
:1020100070B5054600244749086810F0450F03D104
:10202000086810F0450FFBD010F0040F05D0032412
:10203000042008F0A3FE204670BD10F0010F05D06B
:102040000124012008F09AFE204670BD08F0D4FE5D
:10205000A84201D0102070BD40F2FF5008F08EFE63
:10206000002008F0EBFE3449084201D1204670BD43
:1020700010F0004F01D01C2070BD10F0804F01D037
:10208000092070BD10F0005F01D00A2070BD10F073
:10209000805F01D00B2070BD10F0006F01D00C20CC
:1020A00070BD10F0806F01D00D2070BD10F0807FEA
:1020B00001D00E2070BD10F4000F01D00F2070BDB4
:1020C00010F4800F01D0102070BD10F4001F01D05B
:1020D000112070BD10F4801F01D0122070BD10F4CB
:1020E000002F01D0132070BD10F4802F01D01420D8
:1020F00070BD10F4003F01D0152070BD10F4803F7A
:1021000001D0162070BD10F4004F01D0172070BD13
:1021100010F4804F01D0182070BD10F4005F01D082
:10212000192070BD10F0080F01D01A2070BD204694
:1021300070BD0000342C014008E0FFFD10B5002404
:10214000104A116811F0450F03D1116811F0450FC5
:10215000FBD011F0040F05D00324042008F00EFE7C
:10216000204610BD11F0010F05D00124012008F018
:1021700005FE204610BD40F2FF5008F0FFFD20464E
:1021800010BD0000342C014010B500240B4A11682A
:1021900011F0450F03D1116811F0450FFBD011F07C
:1021A000040F05D00324042008F0E8FD204610BDEC
:1021B00040F2FF5008F0E2FD204610BD342C0140F3
:1021C00070B506460C4600251F4A106810F0450FF2
:1021D00003D1106810F0450FFBD010F0040F05D0AC
:1021E0000324042008F0CAFD204670BD10F0010F42
:1021F00005D00124012008F0C1FD204670BD08F083
:10220000FBFDB04201D0102070BD40F2FF5008F03D
:10221000B5FD002008F012FE10F4604F04D010F459
:10222000005F05D0132070BD000C2080284670BDD3
:1022300010F4804F01D0102070BD10F4004F01D079
:102240000F2070BD284670BD342C014010B5002011
:102250004FF480310E4B1A6801E0491E1A6812F0E3
:10226000450F01D10029F8D111B112F0040F05D0AA
:102270000324042008F082FD204610BD12F0400F18
:10228000FBD00024402008F079FD204610BD00005E
:10229000342C014070B500241448016821F00C0171
:1022A000016001680160124D04E0601CC4B20120AD
:1022B00014F04AFAD5F8040208B1642CF5D3642C62
:1022C00001D3012070BD002404E0601CC4B20120D1
:1022D00014F03AFAD5F8040208B9642CF5D3642C4A
:1022E00001D3012070BD002070BD00000008024035
:1022F0000000414270B50024104D04E0601CC4B2DF
:10230000012014F021FAD5F8040208B1642CF5D3A9
:10231000002404E0601CC4B2012014F015FAD5F8C2
:10232000040208B9642CF5D31E2014F00DFAD5F878
:10233000040208B1012070BD002070BD00004142C0
:1023400070B5002000244006050EFFF7D3FF284398
:10235000611CCCB2082CF6D370BDF0B583B0064634
:102360000F4600F02DF8FFF795FF10B103B00120E4
:10237000F0BD002401ADFFF7E3FF2855601CC4B297
:10238000052CF8D39DF804009DF805109DF8072052
:1023900008449DF80610114408449DF8081088422E
:1023A0000BD101A80AF084F814F0DEFA3880A81CDA
:1023B0000AF07EF814F0D8FA308003B00020F0BDA7
:1023C00010B50B48016821F00C010160016841F073
:1023D00004010160074C00202060142014F0AFF9C4
:1023E00001202060BDE810401E2014F0ADB90000AF
:1023F000000802408402414200B583B0012104205C
:1024000008F084FA0220009001218DF804100022C7
:102410008DF806208DF807108DF8050069460448F0
:1024200000F03AFEFFF7CCFFFFF734FF03B000BD2A
:1024300000080240014902208860704700B0024055
:1024400009F002BC074A904201D2074800E0074861
:10245000074A11F0005F01EA020101D0C160704734
:1024600081607047106402400060024000640240D6
:102470007D0F7D0F002904D0016841F0010101604A
:102480007047016821F00101016070472DE9F003F8
:10249000016821F00101016000210160416081605B
:1024A000C160016121214161444A45494FF03D0825
:1024B000904204D1C1F80880BDE8F0037047414A5A
:1024C0004FF47464904203D18C60BDE8F003704710
:1024D0003D4A4FF47415904203D18D60BDE8F0037E
:1024E00070473A4A4FF07466904203D18E60BDE85F
:1024F000F0037047364B374A984203D1CA60BDE8B3
:10250000F0037047DFF8D0C0344B604503D1CB6097
:10251000BDE8F0037047324FDFF8C8C0B84204D1BD
:10252000C1F80CC0BDE8F0037047DFF8BC904FF075
:102530003D57484503D1CF60BDE8F0037047DFF851
:10254000AC902B49484504D1C1F80080BDE8F003A8
:102550007047DFF8A080404503D10C60BDE8F00370
:102560007047254CA04203D10D60BDE8F0037047D1
:10257000224CA04203D10E60BDE8F0037047204C0E
:102580002049A04203D10A60BDE8F00370471E4A0B
:10259000904203D10B60BDE8F00370471B4A9042A4
:1025A00004D1C1F800C0BDE8F0037047184A90425A
:1025B000F9D10F60BDE8F0037047000010600240E1
:1025C00000600240286002404060024058600240C3
:1025D000706002403D00002088600240400F0020F3
:1025E000A060024000003D20B8600240106402403C
:1025F000086402402864024040640240586402407B
:10260000706402400C64024088640240A06402408E
:10261000B8640240002904D0016841F02001016043
:102620007047016821F020010160704711F0800FB0
:1026300009D022B1436943F08003436103E0436959
:1026400023F080034361802905D001F01E011AB1F7
:102650000268114301607047026822EA01010160CB
:102660007047000010B402681C4B1A40D1F80CC02F
:102670000B688C6943EA0C03D1F814C04CEA040CD3
:1026800043EA0C03D1F81CC043EA0C03D1F820C084
:1026900043EA0C03D1F824C043EA0C03D1F828C064
:1026A00043EA0C03D1F834C043EA0C03D1F838C034
:1026B00043EA0C031A430260426922F00702D1F890
:1026C00030C0CB6A43EA0C031A4342610A69426094
:1026D0004A6882608968C16010BC70473F801CF006
:1026E0007047000070B586B00121084608F00EF969
:1026F0000121102008F042F91E4E07220A2130461F
:1027000000F015FD07220921304600F010FD0024DD
:102710008DF8164001218DF8171002258DF8145000
:10272000490204918DF8155004A9304600F0B4FC1C
:102730008DF814506802049004A9304600F0ACFCF7
:102740004FF4E1300090ADF80440ADF80640ADF82C
:102750000840ADF80C400C20ADF80A00064C694664
:10276000204609F027FF0121204609F0CFFE06B0E0
:1027700070BD0000000002400010014000234FF037
:10278000204210280BD0B0F5807F0AD0B0F5805FD2
:102790000AD0D2F8580131EA000009D107E0506EA2
:1027A000F9E7D2F88400F6E7D2F8A400F3E70123B2
:1027B000184670474268016811438268C068521E1B
:1027C000520142EA40200843014908607047000076
:1027D000500100A030B403689900A1F1C041D1F8C4
:1027E00040116FF30E01D0F808C04268046942EA54
:1027F0000C02D0F80CC04CEA040C42EA0C02D0F8EF
:1028000014C042EA0C02D0F818C042EA0C0CC269AB
:102810004CEA0204D0F820C044EA0C05446A25437F
:1028200029434FF02045002B48D0D5F840316FF3B5
:102830000E0342EA0C0223431A43C5F84021026802
:102840009200A2F1C042C2F840110168A9B3890008
:10285000A1F1C041D1F8481101F07042816A0B68C2
:10286000D1F804C05B1EACF1010C43EA0C13D1F8A3
:1028700008C0ACF1010C43EA0C23B1F810C0ACF174
:10288000010C43EA0C431A43D5F8483103F0704376
:10289000D1F80CC0898AACF1010C4FEA0C3C491EFE
:1028A0004CEA01511943C5F8481100688000A0F1B5
:1028B000C040C0F8482130BC704702E0C5F8401164
:1028C000C3E7D5F8481101F07041806A0268436897
:1028D000521E5B1E42EA031283685B1E42EA032219
:1028E000C3685B1E42EA0332038A5B1E42EA03426C
:1028F000838A007E5B1E42EA0352401E42EA006069
:102900000843C5F8480130BC7047000002490A6816
:1029100042EA400008607047540100A02DE9F047EA
:1029200082B00E4600240025009501955D4F4FF0C2
:102930000809C7F80090102078604FF04008C7F8E9
:102940000880FD604FF4806AC7F810A0384608F090
:10295000B5FA1020FFF75CFB002834D152480089FB
:102960000004386037207860C7F80880FD60C7F839
:1029700010A0384608F0A2FA3720FFF749FB0028DC
:1029800021D1411E07F114000160C0F804903021EC
:1029900081600221C16005610121416108F006FAF0
:1029A0003D6033207860C7F80880FD60C7F810A04C
:1029B000384608F083FA3320FFF72AFB8146B9F145
:1029C000000F03D0484602B0BDE8F087374F3868A3
:1029D00040F22A6810EA080F0ED16D464FF400103D
:1029E00008F010FA20B108F063FA45F82400641CDE
:1029F000386810EA080FF1D0082008F003FA30B167
:102A0000082008F0BBF9042002B0BDE8F0870220DE
:102A100008F0F8F930B1022008F0B0F9022002B055
:102A2000BDE8F087202008F0EDF930B1202008F053
:102A3000A5F9062002B0BDE8F0874FF4007008F059
:102A4000E1F938B14FF4007008F098F9072002B0AE
:102A5000BDE8F08740F2FF5008F090F90098009927
:102A6000000601F47F4140EA0120009901F47F0152
:102A700040EA1120009940EA1160706001980199C4
:102A8000000601F47F4140EA0120019901F47F0131
:102A900040EA1120019940EA1160306002B04846D6
:102AA000BDE8F0877804002024000020342C014089
:102AB0001CB50024019401AC009400F0E7F81CBDA3
:102AC0002DE9FF4F83B0814606988A46A0EB0A089D
:102AD000109E00200090A2EB09043568934654EA4A
:102AE000080018D02046FEF7A2F807464046FEF739
:102AF0009EF887420BDA2046444680464846D14637
:102B000082465846DDF818B0069001200090002C4F
:102B100007DD204606E007B04846BDE8F04F00F06C
:102B20003BB96042A0420AD04846D9466442C8F147
:102B3000000883464FF0FF37DDF818A000E00127BA
:102B40005148B8F1000F11D004EBD4714FEA610B7A
:102B500001DACBF1000B4C480068807E88B3002F6F
:102B600002DA30682044306000257BE000990029BB
:102B7000016821D0897E11B10027804615E007B099
:102B80005A4649465046BDE8F04F03F02BBD284653
:102B90006D1C11F051FB38B9D8F8000009EB0701A2
:102BA000406E4268504690477F1CA742EFDD6D1E85
:102BB000356007B0BDE8F08F8A7E1AB100278046E5
:102BC00017E019E0486E5A465146036807B0484678
:102BD000BDE8F04F184728466D1C11F02DFB38B9A1
:102BE000D8F8001009EB0700496E4A685146904733
:102BF0007F1CA742EFDDDAE700250FE008FB05B0F8
:102C000090FBF4F101EB0A00009951B11E4A09EB67
:102C100005011268526E526890476D1CA542EDDDA9
:102C2000C7E7194909EB05030968496E4A68014677
:102C30001846F1E708FB05B090FBF4F101EB0A0040
:102C4000019030683844306011F0F6FA48B90098C5
:102C500090B10D4809EB05010068406E426801988B
:102C600090476D1CA542E5DD3068002F01DA204455
:102C70003060C01B30609CE7034909EB0500096820
:102C8000496E4A680199EBE7140200202DE9FF47DD
:102C90000F4640491646804609680C981D460A7E34
:102CA000012A1CD0A8EB0600791B50EA01031CD0B6
:102CB000A2F1010913F086FA00F58060824603F064
:102CC00093FA00FB09F4504603F092FA00FB09F175
:102CD000002C0CDAC4F50070801240420AE000902B
:102CE000324639464046FFF7EBFEBDE8FF8704F564
:102CF0000074A012002904DAC1F5007189124C4257
:102D000002E001F500718C12002804DD411C01EB8A
:102D1000D171491003E000EBD0714910401E00EB67
:102D2000D0704210002C04DD601C00EBD07040100D
:102D300003E004EBD4704010641E04EBD47308EB82
:102D40000104ADF800403C18ADF80240A8EB0204C5
:102D50005B10B21AADF80440ADF808203144FC1AFB
:102D6000EA1AADF80C102844ADF80A20ADF80E00B0
:102D70000023ADF806401A460421684600F07AF8B0
:102D8000394640460EF030F8294630460EF02CF811
:102D9000ABE7000014020020064A13681A7E012ADD
:102DA00005D0521E02EBD272521000F005B85A6ED6
:102DB00052681047140200202DE9F05F064688464D
:102DC00040F2C32002FB00F14FF47A7091FBF0F760
:102DD00002FB02F102EBD27001EB600B1446B1185A
:102DE000234A301B7F1C1268526E13680A46414604
:102DF0009847012538E000BF05FB05F004FB0401FE
:102E000059451CDDBC4219DD194B06EB050AA6EB42
:102E100005091B68AAF1010208EB04015B6E09F1C8
:102E200001001B689847124BAAF10102A8EB0401AC
:102E30001B6809F101005B6E1B689847641E0C4B10
:102E40003219301B1B68924608EB05015B6E814608
:102E50001B689847064B5246A8EB05011B6848467D
:102E60005B6E1B6898476D1CBD42C5DDBDE8F09FD9
:102E7000140200202DE9FF4F43F6FF740F4666420F
:102E800083B09B46814600210BE000BF09EB810027
:102E9000B0F90200A04200DA0446B04200DD064666
:102EA000491CB942F2DB67480068406900280DD030
:102EB000B0F906101A46A1EB0B01B14200DA0E463A
:102EC000B0F90200801AA04200DD0446B4E0DFF849
:102ED00078A100200546CAF8000088E0781E8542E7
:102EE00001DA6B1C00E0002309EB850C09EB83027F
:102EF000BCF90200B2F90210A04244D1A14215D19E
:102F000039F92330059A39F9251003EB020C4D4AA3
:102F100005981268084404EB0B01526E6045136873
:102F200001DA62462AE00246604627E02846A446C7
:102F30004FF000087A1E0BE008B1401E00E0781E3A
:102F400009EB8003B3F90230634504D108F10108AD
:102F50009045F1DB2346A34248D01A1B39F92500DE
:102F6000A1EB040C059B92EA0C0F09D4354A1844D6
:102F700004EB0B011268526E13680246984735E065
:102F80000AF032FC32E0A14230D001DBA04203DD86
:102F9000A0422BDBA14229DCE04688420ADC034642
:102FA000A04223DC0846A14220DBB8F900C0B2F9F8
:102FB000001008E00B46A14218DCA04216DBB2F973
:102FC00000C0B8F90010E21AA1EB0C01514300292E
:102FD000A0EB030202DD01EB620102E0A1EB620162
:102FE000491CC01A91FBF0F06044C9E76D1CBD425A
:102FF000FFF674AF0598009004EB0B0001900020E1
:103000008046054613E01149B8F1000F31F915A0CB
:1030100009D0009901EB0A0208440A490968496E7F
:103020000B680199984788F0010850466D1C0649C5
:1030300009688D42E7DB641CB4427FF748AF07B0F4
:10304000BDE8F08F14020020D40200201CEC002008
:103050000E4810B5006802F0FFF80D48006802F055
:1030600006F9012002F06EF9002002F079F9002043
:1030700002F086F9002002F005F90648006802F027
:103080000DF9BDE81040002002F02EB9100200201A
:103090000C020020080200202DE9F0010022012688
:1030A000032706FA02FC0B6803EA0C03634538D1D8
:1030B0000568530007FA03F4A54305600D79D0F8BD
:1030C00000809D4045EA080505600D79012D01D07D
:1030D000022D17D18568A54385604D79D0F8088009
:1030E0009D4045EA08058560456825EA0C0CC0F856
:1030F00004C0D0F804C08D799540ADB24CEA050CFF
:10310000C0F804C0D0F80CC02CEA040CC0F80CC005
:1031100091F807C00CFA03F3D0F80CC043EA0C0393
:10312000C360521C102ABCD3BDE8F00170474B07A6
:10313000DB0E9A40C90800EB8100016A4FF00F0CCA
:103140000CFA03F399430162016A1143016270476B
:1031500041837047018370472DE9F04385B0012119
:10316000802007F0D3FB0121080207F0CFFB4FF0CE
:103170008008CDF8008000248DF8044001268DF8E9
:10318000076002278DF80570DFF8C490694648464D
:10319000FFF782FF300200908DF804608DF8064042
:1031A00069462C48FFF778FFFEF7FAFD2A4D2C60A0
:1031B0000A2013F0C4FA2E600A2013F0C0FACDF8EA
:1031C00000808DF804408DF807408DF80570694641
:1031D0004846FFF761FF642013F0B1FA042202A908
:1031E00048F2401000F04EF88DF80C4002A91BA0E8
:1031F00012F0B2F81CA102A8FDF786F818B105B0CC
:103200000120BDE8F0838DF80870012202A948F280
:10321000400000F03BF9012202A948F2470000F00B
:1032200031F89DF80810602902D211A012F094F82C
:103230000A2013F084FA8DF80840012202A948F20E
:10324000400000F023F905B00020BDE8F083000045
:10325000001C024000200240A0024442435450207F
:1032600049443A25730D0A00393134370000000013
:1032700044656661756C74205665723A25640D0A62
:10328000000000002DE9F04104460E461546FEF709
:103290003FFE2820FEF70CFEFEF776FE200AFEF722
:1032A00007FEFEF771FEE0B2FEF702FEFEF76CFECF
:1032B000FEF72EFE2920FEF7FBFDFEF765FE00243B
:1032C000002D0CD96F1EBC4201D0012000E000206F
:1032D000FEF7B4FD3055601CC4B2AC42F3D3BDE878
:1032E000F041FEF733BE00002DE9F14783B0002422
:1032F000A146624D2878401CC1B229706048614FD8
:10330000A0FB0120C008404200EB800011EB400010
:1033100001D00A297ED2012203A948F24E10FFF7FC
:10332000B1FF9DF80C004FF0000810F0800F0BD09B
:1033300000F00F00062807D2CDF80480012201A971
:1033400048F24E1000F0A2F89DF80C0010F00F0F9C
:1033500073D000F00F0006286FD2FF2101FA00F0B1
:10336000019097F82060C04340F0C00087F820002B
:10337000B889B882F88AF883DFF80CA14FF0010908
:1033800097F8200009FA04F108422DD03AF8140009
:10339000042202A9FFF776FF97F8300010F0010F22
:1033A00010D09DF808009DF8091000EB012107EBF3
:1033B000440081819DF80A109DF80B2001EB022149
:1033C000C18211E09DF808009DF8091000EB012171
:1033D00007EB4400C1829DF80A109DF80B2001EB19
:1033E0000221C1F588718181601CC4B2052CC7D34C
:1033F0004FF00109B9893846B1F5F07F03D8C18A89
:10340000B1F5887F17D99DF80C1001F00F01012943
:1034100008D900E011E0C1898181018BC18285F862
:1034200000800AE0818A8181C18BC1828021039161
:1034300080F8206001E085F800809DF80C0000F025
:103440008F00802811D197F8200010F0800F04D051
:1034500020F0800087F8200007E04FF6FF71B98167
:10346000F98200F0E00087F820002878F02801D9E0
:103470000A20287004B04846BDE8F0877800002094
:10348000CDCCCCCC440000204A8701082DE9F04186
:1034900004460E4615460027FEF73AFD2820FEF7A3
:1034A00007FDFEF771FD200AFEF702FDFEF76CFD39
:1034B000E0B2FEF7FDFCFEF767FD0024002D0BD9FE
:1034C000305DFEF7F5FCFEF75FFD0746380003D1DF
:1034D000601CC4B2AC42F3D3FEF738FD3846BDE8F9
:1034E000F0810000014AC2E900017047B8010020E4
:1034F000014AC2E900017047C0010020014AC2E947
:10350000000170479C020020014AC2E90001704797
:10351000C8010020014AC2E900017047A40200204E
:103520002DE9F04FDFF828B191B04FF0FF35DBF80F
:103530000030B3F922100691DE69B3F92490F469E2
:10354000A189814206D8E289824203D3471AD4F87E
:10355000008012E0D4E9018100296FD00A888242FC
:103560006CD84D88854269D3801A82B2486800EBD6
:103570008200B0F90070B0F90250781C5ED0307E45
:10358000A17C10FB01FA217CCDE90701B3F92A6087
:10359000304603F0C1FCC0B20E90DBF8000007FB20
:1035A0000A81A37C826B0127CDE90412CDE9027365
:1035B000C069089AC17E807ECDE90001DDE906037D
:1035C000494602F0ADFE681C18D046F0020003F038
:1035D000A3FCDBF80000A37C05FB0A81826BCDE92C
:1035E0000273CDE90412C069089AC17E807ECDE9DC
:1035F0000001DDE90603494602F092FEDBF8000017
:103600005D46C069417E007E814214D9022E12D0EF
:1036100086F0040003F080FC2868C069027EC37E47
:1036200012FB0391437E857E089A06984B4412FB59
:10363000050203F001F80E9803F06EFCDBF80000C1
:10364000627C418C1144418411B0BDE8F08F0000D0
:103650001402002004480068C069C06909B1027CF6
:103660000A60407C7047000014020020022008809D
:103670007047C06982898A4202D8C2898A4210D2C0
:10368000806880B102888A420DD843888B420AD371
:10369000406800EB8100A0EB8200B0F90000002838
:1036A00001DB012070470020704700002DE9F04148
:1036B0000025154E154C18E02069C5EB051700EBE9
:1036C000C7007022001D3168FCF7EBFD2069002166
:1036D00040F8371000EBC70000F10C018161011DBB
:1036E0000A1DC0E90F126D1C4164A0688542E3DB2E
:1036F0000EF054FE2169C0EB001001EBC000001D6C
:103700003060BDE8F081000014020020E8020020D3
:1037100070B510490E480860084602F017FD0D4CC0
:10372000143CA068C0EB0010C500284600F06CF8FF
:10373000094B20612A461B68002198474FF0FF3053
:10374000206001F0D7FFBDE870400EF027BE0000FA
:10375000993A0108FC020020CC02002010B50400B8
:1037600009D001F0DDF820460AF0A4F8044601F083
:103770007FFF204610BD002010BD000038B5054673
:1037800001F0CEF82846FFF7E9FF04000AD000F068
:10379000BBF8064B00902A461B68002198476846F4
:1037A00000F0F0F801F064FF204638BDCC020020A4
:1037B000024A106021F0030050607047A0EA002028
:1037C00010B5040011D001F0ABF80848042101EB5A
:1037D000C401406B415848680AF024F8204610F0B4
:1037E000B7FABDE8104001F043BF10BDE0E900208A
:1037F000002805D0034AD16B016001B14860D06355
:1038000070470000E0E900202DE9F04104460FF088
:103810006FFB2848E41C24F00305016C2D1DA94210
:1038200000D90D46C46B13E054F8042CAA420ED103
:1038300084B1216809B162684A60616809B122688F
:103840000A60C26BA24231D12168C1632EE02468B4
:10385000002CE9D18046816BC0680F1857F8040C22
:103860003E1A306838B1002010F0E6FB57F8040C1F
:103870003E1A3068D0B97068A84217DB3044441B48
:103880003046241D10F090FBD8F80C10491BC8F8E6
:103890000C10D8F814102944C8F814107068401B94
:1038A00002D0314609F0BEFF44F8045C2046BDE872
:1038B000F0810000E0E9002010B500240FF018FBB3
:1038C0000C490F2001EBC002526C1AB101EBC00091
:1038D000406C08E0401EF5D508E04168A14200D9DF
:1038E0000C46806810B180680028F6D1A4F10C0065
:1038F00010BD0000E0E9002002488169491C816197
:1039000070470000E0E900200549CA69521CCA61FD
:10391000496B01EBC0010A78521C0A7000F04AB8EA
:10392000E0E9002010B500F0FBFFFFF7C5FF6422BF
:103930000849B0F5800F04D990FBF2F4086A4443BB
:1039400003E0096A4143B1FBF2F401F091FE204625
:1039500010BD0000E0E900200549102805D94A689B
:10396000B0EB520F02D3500800E01020886070477F
:10397000A0EA002002488169491E81617047000069
:10398000E0E900200A4902684B6B52F8082C03EB6F
:10399000C2021378022B03D3CB690BB15B1ECB6140
:1039A0001178491E1170002101600846704700001F
:1039B000E0E900200349042202EBC000496B0858EB
:1039C00008307047E0E9002010B5C2B2CBB2D21A7D
:1039D00000D5524293B25B43C0F30722C1F30724E0
:1039E000121B00D55242000C92B2A0EB114002FB18
:1039F000023200B2002801DA404200B280B200FB7D
:103A0000002010BD10B50021084600F067FC43F609
:103A1000FF725042BDE8104013460146AFF30080EC
:103A20002DE9FC411C4615460E46074600F078FF7E
:103A3000042003F071FA804612484069C16C006DA1
:103A40000F4406440D440444ADF80070ADF8045032
:103A5000ADF80260ADF80640684609F069FB07E082
:103A600023462A463146384602F0E6FD09F022FB9D
:103A70000028F5D1404603F04FFA01F0F9FDBDE80A
:103A8000FC810000000200202DE9F0411C46164692
:103A90000D460746022B02DB0020BDE8F0811C200A
:103AA000FFF7B2FE0028F8D00DB105610AE0094A1F
:103AB00052F8241009B905E011460A68002AFBD122
:103AC0000969016184618682002101604160C0E969
:103AD0000217E2E74002002070B51D46FFF7D4FF51
:103AE000040009D000F00EF8E068006820B903482F
:103AF000006800EB85008465204670BD140200203C
:103B0000FFF776BE70B5C0B38269022A36DA214962
:103B1000531C0C789C4200DA0B701F4C54F8221096
:103B200019B944F8220032E019464B68002BFBD14A
:103B300006E0CB68C5681B682D68AB4203DD0968E9
:103B40000029F6D11AE0C1B1CB68C6681B68366897
:103B5000B3420CD1838A012B05D008E01946DB68FB
:103B60001B68AB4203DB0B68002BF7D129B14B6814
:103B700033B118604A68426004E0FFE7012070BD7D
:103B800044F822004860884200D1002101600020F2
:103B900070BD00005E0200204002002010B503E06E
:103BA0000468FFF7AFFF20460028F9D110BD0000E0
:103BB00010B50C4B8269002153F82240844205D194
:103BC000046843F82240026802B1516042680AB1B9
:103BD0000368136002680AB1436853600160416082
:103BE00010BD00004002002000207047022801DBC9
:103BF00000207047054951F8200004E0C1680968B9
:103C00000029F6D000680028F8D170474002002053
:103C10002DE9F041044601F059FD0619164F1FE049
:103C200000F052F83868844200DD0446A04600F0F7
:103C300077FE12480568FFF75FFE2C0017D000BF23
:103C400001F016FD641EFBD1404601F02DFD1DB1B3
:103C500000F066FE6D1EFBD1FFF78CFE01F008FD43
:103C600001F034FD341A002CDADCBDE8F081404666
:103C700001F01AFDF0E7000098020020F402002095
:103C80002DE9F0411C4615460E46074600F048FE59
:103C90000C480168C86C096D074405440E440C4487
:103CA000002009F045FA07E023462A463146384607
:103CB000FEF7FEFE09F0FEF90028F5D1BDE8F0415F
:103CC00001F0D6BC1402002010B5002400E001244D
:103CD00000F004F80028FAD1204610BD0B4810B5BA
:103CE0000068002410B1804700B1012408F0B2FE42
:103CF00000B101240648006810B1804700B10124DA
:103D00000448006800B18047204610BD2002002012
:103D10004C0200204802002070B586B00DF1280C3E
:103D20009CE87000CDE903018DE8700003A902480A
:103D300000F004F806B070BD374000082DE9FF4FD1
:103D400089B08846DDE91765044600F0E9FD44F2D4
:103D50000810FFF713FD5FEA00094FF0010755D087
:103D6000FFF7D2FD0490C0E90248012303AA0A210B
:103D700000F052FA0398801D039003A802F0DCF9CA
:103D8000834603A802F0D8F9824602F0ABFD089002
:103D9000214801680B98CA6C096D02EB00080C9869
:103DA000ADF814800C180BFB06F0B0FBF5F101EB3D
:103DB0000800401EADF818000AFB06F0B0FBF5F055
:103DC0002044401EADF81A00ADF8164005A809F0D1
:103DD000AFF990B1DFF844A0DFF844B0CDE902BA02
:103DE000CDE9006522464146169B049800F074F820
:103DF000074609F05FF90028F0D1089803F064F84D
:103E000004A8FFF7BFFD4846FFF7DAFC01F030FCDD
:103E10000DB03846BDE8F08F1402002037DC0008F2
:103E20002D0C01081CB5CDE900016946014800F0E0
:103E300003F81CBD374000082DE9F8439846914629
:103E40000D460646012700F06BFD44F20810FFF70F
:103E500095FC04000FD0FFF757FD0090C0E9026504
:103E6000424649460DF0A4FF07466846FFF78AFD23
:103E70002046FFF7A5FC01F0FBFB3846BDE8F883C0
:103E80001CB5CDE900016946014800F003F81CBDEE
:103E9000374000082DE9F84390460D4606460127B5
:103EA00000F03EFD44F20810FFF768FC04000ED05D
:103EB000FFF72AFD0090C0E9026541460DF009FFB9
:103EC00007466846FFF75EFD2046FFF779FC01F0E4
:103ED000CFFB3846BDE8F8832DE9FF4F95B00020B1
:103EE000DDE92276DDE924988DF810009A469346A4
:103EF00018210CA8FCF7FDF9142107A8FCF7F9F923
:103F00000024601E059011AB13AA12A915980EF09B
:103F100013FA8BE0002306AA0121159800F07CF922
:103F2000002860D106980578212D70D02C2D02D064
:103F30003B2D7ED168E0002306AA0921159800F0E8
:103F40006BF9002875D106A802F0F6F80C9006A8C7
:103F500002F0F2F80D9006A802F0EEF80E9006A816
:103F600002F0EAF80F9006980078109000060AD543
:103F7000109800F007010220884001461190159822
:103F80000FF0FAFE78BBAAF10100844207D10C9829
:103F900007900D9808900E9809900F980A90A245E6
:103FA00022D19DF81000022806D1CDE9007607AB9A
:103FB0000CAA59461698C0479DF810000599CDE9FE
:103FC0000010CDE90276DDE915025B460CA9C84771
:103FD00048B9002306AA0121159800F01DF910B96F
:103FE00019B0BDE8F08F24E0002306AA012115983E
:103FF00000F012F9E8B9002115980DF06BFD0028CA
:10400000F9DC641C3B2D85D10020E9E7FFE7A245E0
:1040100001D104AB01E04FF0000301D107AA01E098
:104020004FF0000205A915980FF0C8FE00283FF4D4
:1040300071AF0120D4E730B505464068C41A0020AE
:10404000002C07DD944201DD104600E020462A687E
:104050001A440A6030BD00002DE9F041054643F2E4
:1040600016104FF480572E1805F54054B1E000BFEC
:10407000D4F8F81C814235D1B94203DB4FF0FF3050
:10408000BDE8F081564B4FF4005200211B6805F546
:104090008B709847002005E0291801F5005181F840
:1040A0001601401CD4F8F81C8142F5DCD4F8EC0C65
:1040B000401CC4F8E80C0846C4F8D06C490004F56C
:1040C0004D64801CC4E90801A4F54D6428460DF038
:1040D0003BFFC4F8000DD4F8F81C8842F6D0C4F8B1
:1040E000040DCDE7D4F8FC1C814202D16FF0010031
:1040F000C6E7D4F8F01C0246814209DCD4F8D00CA3
:1041000094F8003D411CC4F8D01C0370D4F8040D91
:1041100040F6B833D4F8F81C81421EDC291801F5AA
:10412000005191F816C1D4F8D01C01F1010EC4F869
:10413000D0EC81F800C005EB4001B1F916118142C5
:104140009ED0D4F8D0CCACEB050CACF5405CACF513
:104150008B7C9C4594D20846DCE7284400F500504F
:1041600090F81631C4F8003DD4F8D00C411CC4F8C6
:10417000D01C0370D4F8F00CB8421FDA05EB4003F2
:10418000B4F8041D2844A3F8161100F5005094F863
:10419000001D80F81611D4F8F00C401CC4F8F00C87
:1041A000D4F8F41C884209DBB94207DA4800C4F8A5
:1041B000F40CD4F8E80C401CC4F8E80CC4F8042D46
:1041C000D4F8D00CB04204D9401EC4F8D00C00780A
:1041D00056E728460DF0B8FE0028BFF649AF4FE776
:1041E000CC02002010B500F5405202F54D624B1C88
:1041F000C2E90631012404FA01F3591CC2E90A316B
:10420000991C1162590051620221C2E9041443F25F
:1042100016110844106010BD2DE9F04117460D46F7
:1042200004460BB100202061D4E903030A46A668C6
:104230003946B047A84202D00120BDE8F08120698C
:10424000284420610020F8E7034951F82000C168A4
:104250008A6A0821104700004002002010B500F0D3
:104260005FFB03480068047C01F002FA204610BDA1
:104270001402002070B515460E46044600F050FBAF
:104280002A463146204602F073FB040002D000208B
:104290003060286001F0ECF9204670BD70B50C4626
:1042A000054600F03DFB2146284601F021FEBDE811
:1042B000704001F0DDB901F009BA0000024951F87F
:1042C000200000690068704740020020024951F850
:1042D00020000069406870474002002070B50C461D
:1042E000054600F01DFB044800684584848401F005
:1042F000BFF9002070BD0000140200202DE9F0413C
:104300001D48016821F0010101601C4801268660FA
:1043100081680029FCD11A49016000681949884266
:1043200000D0FEE701F0D0FA174C2E20207001F0EB
:10433000D3F916480EF0ACFC12F0C6FF074602F0A7
:1043400041FB10B102F052FB38B902F058FB0546B0
:1043500002F041FB294602F0D9FD0021084600F099
:10436000D1FF08F0EBFBFFF7A1F9A06900B180478E
:10437000A6703846BDE8F081002000E00030024021
:10438000C2A507F4CDB5E8B500020020ACEA0020D4
:104390001CB5CDE900016946014800F003F81CBDD9
:1043A0001F4700082DE9F8431E46174688468146F8
:1043B000012500F0B5FA48F2BC40FFF7DFF9040030
:1043C00009D03B464246494600960BF0DFF90546C8
:1043D0002046FFF7F5F901F04BF92846BDE8F883D0
:1043E0001CB5CDE900016946014800F003F81CBD89
:1043F0001F4700082DE9F84390460D460646012761
:1044000000F08EFA48F2BC40FFF7B8F904000FD074
:10441000FFF77AFA0090C0E901656846FFF7B2FA43
:104420004146204600F08BF907462046FFF7C8F9C1
:1044300001F01EF93846BDE8F883F8B50546FFF7E8
:1044400063FA009000F5E04090F81C636846FFF7BF
:1044500099FA002410E0012322461946284609F063
:10446000C5FC30B9082322460221284609F0BEFCCB
:1044700008B10120F8BD641CB442ECDB0020F8BD9B
:104480002DE9F04700F5E0448246DFF86491D4F866
:104490008804A2B04FF00108002538B194F8080450
:1044A000F0B300BFD4F8800430B32BE094F80904D3
:1044B0000028504603D00FF04DF990B915E00AF0EE
:1044C00027FF70B9D4F82014D4F8840488420CDC97
:1044D000694650460FF0B4FC18B99DF80000D92881
:1044E00003D0012022B0BDE8F08784F80884D4F816
:1044F0002004C4F88804D5E7D4F87C04FFF704FA54
:10450000C4F880040746D4F87404FFF7FDF920903E
:10451000C0B10026D4F81804B04210DD209800E0A5
:1045200012E000EBC611D9F80030802268469847A7
:10453000394668460DF0C4FF761C4037EAE720A8EC
:10454000FFF720FA84F8085494F80A0405281CD2CE
:10455000DFE800F02B270B0F030094F88804C00756
:104560000BD150460AF07EF80DE0504609F0F8FFF6
:1045700009E094F88804C00702D084F8948404E029
:10458000504609F05FFF84F89454D4F88804401E24
:10459000C4F88804D4F88404401EC4F884040020BD
:1045A000A0E7504609F0FAFEEDE7D4F88814D4F8F5
:1045B0002004461AD4F88C04FFF7A6F98046009030
:1045C000D4F8800400EBC607D4F80C6409E0D9F8ED
:1045D00000300822394640469847761E08F1080800
:1045E0004037002EF3DC6846FFF7CCF9CBE700003C
:1045F000D002002070B500F5E044054694F81C0395
:10460000042834D028460EF0C7FC28B194F81C03C7
:1046100084F82D03002132E094F874232AB100219C
:1046200094F877331BB1012002E00121F8E7002064
:1046300094F87563B2421AD809B1C6B903E094F888
:104640002D23012A13D118B194F876239A420ED162
:1046500021B108B10E4905E00E4903E008B10E4949
:1046600000E00E4928460AF0D5FF0028CAD00120F4
:1046700070BD681800F5E04080F82E13491C94F8CE
:104680002D038842F5DC284609F0C4F9002070BDEE
:10469000C5F20008DDF1000835F10008BDEE0008A4
:1046A0002DE9F04100F5E0440546D4F8800418B146
:1046B00005F5E940FFF766F9D4F88C0408B1FFF777
:1046C0007FF8D4F8900408B1FFF77AF8D4F87404AE
:1046D00008B1FFF775F8D4F87C0408B1FFF770F85B
:1046E00000260EE005EB061707F5E047D7F8C403F0
:1046F00008B1FFF765F8D7F8840308B1FFF760F851
:10470000761C94F81C03B042ECDCD4F87804002842
:1047100003D0BDE8F041FFF753B8BDE8F08130B5F4
:10472000054600206C68E41A002C07DD944201DD88
:10473000104600E020462A681A440A6030BDF8B5E9
:104740000C46064600F03CF805465CB13046FFF7E3
:10475000DBF80090008A20600098408A606068461C
:10476000FFF710F92846F8BD38B5054600F028F8DF
:10477000040023D128460EF0C1FA04001ED12846B9
:10478000FFF7C2F847F209410090095C81B109F0D6
:10479000EDF804000FD1009800F5004090F898045F
:1047A00048B96846FFF7EEF828460AF0B3FE38BD70
:1047B0000EF0F2FB04466846FFF7E4F8204638BDE9
:1047C0007FB50025FFF7A0F8012600900446067784
:1047D0001A4820600020A06102A920460DF013FEB7
:1047E00020BB226803A920469047F8B99DF808002D
:1047F000FF281BD19DF80C00D82817D18DF8040094
:1048000001A900980FF01CFB80B99DF80400C02896
:1048100008D0C12806D0C22809D1009800F5E04090
:1048200080F8096400980DF0A0FC00B101256846ED
:10483000FFF7A8F804B0284670BD0000072401085F
:104840002DE9F84300F500410446D1F8A024D1F841
:10485000A40404F5E0451044C1F8A404002015E0C8
:1048600095F81D23D1F8A434022A08D1221802F5A4
:10487000E04292F82123C2F1030293FBF2F304EB2E
:10488000800202F50042401CC2F8A83495F81C23AF
:104890008242E5DC0026DFF884902AE004EB06186B
:1048A00047F2783108EB0107F868FFF72DF8009020
:1048B000BA683968D9F800304A4379684A43002118
:1048C00098476846FFF75EF847F2B83108EB0107F2
:1048D000F868FFF719F80090BA683968D9F800301D
:1048E0004A4379684A43002198476846FFF74AF8E7
:1048F000761C95F81C03B042D0DC102247F2F83049
:10490000D9F80030002120449847608AC5F8840413
:104910000020C5F88804BDE8F8830000CC02002020
:1049200070B5184CE06820B100F0C8FE616888429C
:1049300004D000F0FBFE00F0C1FE6060E068401CA7
:10494000E06001281CD10DF029FD05462068854254
:1049500016D0002813DBFFF747F901462068C0EBAB
:104960000012206900EBC2025167C5EB0511064A2F
:1049700000EBC100011D1160406FFFF70FF92560CA
:1049800070BD0000E8020020140200201CB50400E5
:1049900004D10E480068046E002C16D0FFF7C0FF4B
:1049A0002046FEF7B1FF009044696846FEF7EAFF33
:1049B0004CB12046FEF7A8FF0190816889688847BE
:1049C00001A8FEF7DFFF00F053FE1CBD140200201B
:1049D00001490A4600F002B801F0FFFF2DE9F0435B
:1049E00087B015460C465FEA000846D0FFF798FFEF
:1049F000002000F047FC814621480068066E4046D2
:104A0000FEF782FF00900068806900F009FC07460D
:104A100040F6FF70C44204D10098B0F90440B0F9E8
:104A200006500098611E0289ADF804401144ADF8AB
:104A300008104189681E0844ADF80650ADF80A0018
:104A400007F054FE6846FEF79DFF01A808F070FBD2
:104A500006E02A462146404600F0D0FA08F02AFB3C
:104A60000028F6D1384600F0DBFB304600F090F924
:104A7000484600F007FC00F0FBFD07B0BDE8F083FE
:104A8000140200202DE9FE4F984691468A4683463F
:104A900000270C9EFFF744FF184819490068407C26
:104AA00051F82040E1680968042903D02468002CEB
:104AB000F8D100E01CB9FFF799F8041E1BD0E0689C
:104AC0000121C26A20469047050011D02469A068E0
:104AD0008047401C02D10B4C46F001060096CDE900
:104AE000015443464A465146584600F0E5F9074608
:104AF00000F0BEFD3846BDE8FE8F00001402002025
:104B000040020020E051040838B504001CD0FFF733
:104B100007FF0E480068006EA04201D100F072FB52
:104B20002046FEF7F1FE0090406908B100F089FDD3
:104B300000980068FEF7E4FF6846FEF723FF204672
:104B4000FEF73EFE00F094FD38BD00001402002088
:104B50002DE9FF4F83B09A468B460746FFF7E0FEEC
:104B6000DFF83891D9F80000447C4D4800570128FF
:104B7000204606DD01F02CFF0546204601F03CFFF3
:104B800005E001F00EFF0546204601F010FF044647
:104B90001FB302A901A8FFF781FBB7F900000028A5
:104BA00000DA0020B7F902608046002E00DA002605
:104BB00001984119B7F90400491E0EF0C7FE0546D9
:104BC00002980119B7F90600491E0EF0BFFEA5EBC9
:104BD0000802841B521C641C03E04FF00008464688
:104BE0002A46BAF1000F01D1C4F1000A002A51DDB2
:104BF000002C4FDD10980090534631464046FFF799
:104C000041FF5FEA000A10D000F07CF80746A0429E
:104C100006D0D9F80000806C10B1322108F05CFD9C
:104C2000504600F0B5F8002523E05946059888471E
:104C300000F01EFD012007B0BDE8F08F611BB942F6
:104C400002DA504600F088F83DB1721941465046EC
:104C500000F0C6F85046FFF799FE59460598884778
:104C60001048016809B1002088475046FFF7B0FEA0
:104C70003D44A542E2DB5046FFF746FF002000F02E
:104C800087F8A74206D0D9F80000806C10B1332114
:104C900008F022FD00F0ECFC0020CCE7140200201C
:104CA0005C020020A803002038B505004FF0000486
:104CB00011D0FFF735FE2846FEF726FE009000686B
:104CC00000698068804702F01BFC04466846FEF7D6
:104CD00059FE00F0CDFC204638BD38B504000ED09A
:104CE000FFF71EFE2046FEF70FFE00F118040090AD
:104CF0006846FEF747FE00F0BBFC204638BD0020AA
:104D000038BD000038B504460025FFF709FE1CB980
:104D100008480068046E44B12046FEF7F5FD009097
:104D2000B0F90A506846FEF72DFE00F0A1FC2846B7
:104D300038BD00001402002070B505460024284646
:104D400009F026FE641C18B1BDE8704000F07AB886
:104D5000052CF4DB70BD000038B50C46050004D10D
:104D60000A480068056E002D0FD0FFF7D9FD2846D0
:104D7000FEF7CAFD0090B0F90A10A14200DD44819F
:104D80006846FEF7FFFD00F073FC38BD14020020FA
:104D9000F8B50546FFF7C4FD104E3068046ECDB17E
:104DA0000CB100F02FFA07F095FD2846FEF7ACFD98
:104DB000009031680D660068FEF7A4FE6846FEF7B5
:104DC000E1FD02F02BF902F06BF800BF00F050FC9F
:104DD0002046F8BD00F016FAF8E7000014020020A3
:104DE0007CB515460E46040004D115480068046ED3
:104DF000002C24D0FFF794FD2046FEF785FD2DB250
:104E00000090C58034B2848002F04AF8009840696E
:104E100080B1FEF779FD009A0190B2F90810818007
:104E2000B2F90A20C28011B10AB10480458001A8FC
:104E3000FEF7A8FD6846FEF7A5FD00F019FC7CBD55
:104E40001402002001490A4600F002B801F0FFFFF9
:104E50007FB515460C4606002DD0FFF761FD3046A4
:104E6000FEF752FD40F6FF710190CC4203D1B0F93C
:104E70000440B0F906500289611E1144ADF80840A3
:104E8000ADF80C104189681E0844ADF80E00ADF86D
:104E90000A5001A8FEF776FD02A808F049F906E0DD
:104EA0002A462146304600F091F808F003F9002820
:104EB000F6D100F0DDFB7FBD2DE9FF4FDFF8E8B054
:104EC00083B01C46DBF80010DDE9106092464FF01D
:104ED00000084B7C42461299FEF7D6FD050060D0D3
:104EE00028698068804702F00BFB81460AFB09F1C4
:104EF000C91DCF08FEF716FDF10705D1C11700EB5C
:104F00009170801000EB4000002C09DC1FB11838B4
:104F1000B0FBF7F000E000206442A04200DC044651
:104F2000F00707D10090DDE903012346524600F067
:104F30000DFB8046002C03DC2846FEF7E1FD30E047
:104F400004FB07F01830F10702D0FEF707FC01E080
:104F5000FEF714FC06001CD0FEF7D6FC019005609D
:104F6000039981800499C180A0F808A04481C0F809
:104F70001480C0E9037901A8FEF704FD1298AE6021
:104F80002861DBF80000407CA861304607B0BDE82E
:104F9000F08F2846FEF7B4FDB8F1000001D0FEF70F
:104FA0000FFC0020F2E7000014020020054B30B493
:104FB0001B68054C5B7C54F823301B6930BC0FF038
:104FC00023BD00001402002040020020F8B5154661
:104FD0000E460746FEF798FC009000681621C06850
:104FE000426A0020904704466846FEF7CBFC002C3E
:104FF00003D02A4631463846A047F8BDF8B51646D4
:105000000F46050012D0FEF77FFC00904469684609
:10501000FEF7B8FC2846FFF747FE0346082800DDE8
:105020002CB13246394628460FF0AEFDF8BD324667
:10503000394628460FF048FFF8BD000070B5044619
:1050400009480D46016819B90849016001F07EF868
:105050000548001F006800B10024002D00DC012578
:105060000348055570BD000070020020393A010860
:105070005C020020094A126802B10020074A24326B
:1050800052F82030002B07DBA2F1180343F8201060
:105090004FF0FF3142F82010704700006C020020F2
:1050A00010B5002821D009B30AB3B1F90040B2F914
:1050B00000309C4200DA23460380B1F90240B2F985
:1050C00002309C4200DA23464380B1F90440B2F931
:1050D00004309C4200DD23468380B1F90610B2F90A
:1050E0000620914200DC1146C18010BD11460A68BD
:1050F00002604968416010BD00280BD003880B4452
:105100000380838819448180418811444180C1888B
:105110001144C1807047000070B50025FFF700FC06
:10512000094CD4E9002082420AD0D2E90056104648
:105130000DF0CAFB20603146284607F0F3FD01253B
:1051400000F096FA284670BDD80200202DE9FC41F7
:10515000154DDDE908742D68B5F90860864200DD5B
:105160003046B5F90C60964200DA3246824219DBCD
:10517000B5F90A608E4200DD3146B5F90E509D4208
:1051800000DA2B468B420DDB00E02C46E5682D68EB
:1051900025B1042D02D02568002DF6D1CDE900748B
:1051A00001F068FDBDE8FC8114020020B0F9022086
:1051B000B1F906309A4213DCB1F90220B0F9063099
:1051C0009A420DDCB0F90020B1F904309A4207DCB4
:1051D000B1F90010B0F90400814201DC01207047F0
:1051E000002070470146024870220068FBF759B85A
:1051F00014020020024970220968FBF752B800002F
:105200001402002010B5FFF78BFB01F0FFFD01F049
:1052100005FF07F06BFABDE8104000F029BA000066
:1052200070B50B4D04462868467CFFF779FB022CCD
:1052300009D22046FEF7DAFC28B128684474FFF74B
:10524000E1FF0448046000F013FA304670BD00002E
:10525000140200202403002010B50446FFF760FB71
:10526000204601F0F3FDBDE8104000F001BA10B592
:105270000446FFF755FB204601F020FEBDE8104034
:1052800000F0F6B910B50446FFF74AFB204601F0DE
:1052900043FE044600F0ECF9204610BD70B504460C
:1052A000FFF73EFB04480068C56904B1C46100F023
:1052B000DFF9284670BD0000140200200249CA69C7
:1052C000C861104670470000D001002001494860C5
:1052D000704700000002002002494A6848601046FA
:1052E00070470000D001002070B50546FFF718FB9D
:1052F00003480068847E857600F0BAF9204670BDC8
:105300001402002070B50C460546FFF709FB09485A
:10531000224605800848048008480068417C084807
:1053200050F82100C1680B6A29469847BDE87040D3
:1053300000F09EB9680200206A02002014020020DA
:105340004002002070B50546FFF7EAFA03480068FE
:10535000047E057600F08CF9204670BD1402002012
:1053600070B50446FFF7DCFA04480068B0F92C5029
:10537000848500F07DF9284670BD000014020020ED
:1053800070B50446FFF7CCFA04480068B0F92A501B
:10539000448500F06DF9284670BD0000140200201D
:1053A00002480068002800D000477047040300202E
:1053B00002498A6802B98860FFF7F2BFD80200206C
:1053C00010B504000ED0FFF7ABFA20460EF006FE33
:1053D00020460FF07DFA2046FEF7F2F9BDE81040B6
:1053E00000F046B910BD38B50C46050011D0FFF7E6
:1053F00097FA2846FEF788FA00908089204201D06B
:10540000012400E000246846FEF7BCFA00F030F901
:1054100000E00124204638BD38B50546002028604C
:105420000648046844B12046FEF76EFA0090006911
:1054300028606846FEF7A6FA204638BD940300208F
:1054400038B504004FF000000D46086011D020462A
:10545000FEF75AFA0090846844B16846FEF792FA63
:105460002046FEF751FA0090006928606846FEF772
:1054700089FA204638BD2DE9F0411E46069C1746A4
:10548000884605463A46A8687F1C3346D0F804C0D3
:1054900041462846E047641EF4D1BDE8F08170B56E
:1054A000B0F90040091BB0F904408C422CDD00F13A
:1054B0001404B0F902500069521B02FB0040CA18E4
:1054C00000EBE104521ED010B0EBE10501F0070340
:1054D0004FF0FF0102F0070221FA03F0C2F10702C8
:1054E00001FA02F1CEB221780FD001436D1E04F80B
:1054F000011B002D05DDFF2229462046FAF7F2FEAA
:105500002C4420783043207070BD3040014321701E
:1055100070BD10B5B0F90030B0F90240C91A00F101
:1055200014030069121B02FB003000EBE10001F0E4
:10553000070302788021D9400A43027010BDB0F9F8
:105540000610026951431430FAF7D3BE2DE9F8432F
:10555000804602F10F000011470003FB07F01C46D4
:10556000154689461430FEF709F9060018D0FFF7F2
:10557000D7F93046FEF7C8F90090A0F80080A0F8EF
:1055800002908580C4800749816001218181076183
:105590006846FEF7F7F900F06BF83046BDE8F8838F
:1055A0000020FBE7845A040870B5B0F90660B0F932
:1055B00004400B6800F1140596421BDD0069A3420C
:1055C00002FB005000EBE30214DA641EE010A0EBD3
:1055D000E30512F8010B03F00704A040C4B206E093
:1055E00045B1083312F8014B23F007036D1E002C60
:1055F000F6D004E0002070BD6006040E5B1C20069F
:10560000FAD5FF2C07D0184602E06406240E401C91
:105610006606FAD400E0D81DC443640705D006E04E
:1056200012F8014BFF2C09D108306D1EF8D5C01AB5
:10563000401C0B6070BD6206140E401C2206FAD49A
:10564000F5E738B50546FFF76BF92846FEF75CF934
:1056500000908189491E0CB284816846FEF792F958
:1056600014B92846FEF7ACF800F002F838BD000087
:105670000348C168491EC16001D100F065B8704798
:10568000E802002010B50749054808604FF4000102
:10569000FEF78EF8BDE810408020FEF75DB90000EF
:1056A000000080C07401002008B56A46002103F0A4
:1056B000E3FB08BD0120FFF7F7BF000002480068C8
:1056C00090F83700704700005C01002008B568467C
:1056D00003F0B6FC08BD000008B56B46002202A12D
:1056E000034802F059FD08BD4B657953656D000014
:1056F000B8E9002008B56B46012205A1064802F072
:105700004BFD6B46002205A1074802F045FD08BD90
:105710004469737053656D0068E900204576656ED5
:105720007453656D0000000090E9002000B583B05F
:1057300002A8002300901A461946024802F058FDBC
:1057400003B000BD68E9002008B56A4600210248A0
:1057500002F0F6FD08BD000068E900200EB508B1B2
:1057600002AA00E00022002301A9684600F072FBB3
:105770000EBD0000074910B50C7818B10120087063
:10578000801E03E0002008706FF07F4000F086FD6F
:10579000204610BD0102002010B5082A0EDC034689
:1057A000012A18D0022A56D0042A76D010F8042BE9
:1057B00003F8012B491EF9D1012010BD102A08DC85
:1057C0004FEA000230F8043B22F8023B491EF9D1AF
:1057D000F2E7002010BD10F8042BD207120E491E6C
:1057E00034D010F8044B491E04F0010442EA84123C
:1057F0002CD010F8044B491E04F0010442EA441274
:1058000024D010F8044B491E04F0010442EA0412AB
:105810001CD010F8044B491E04F0010442EAC402F3
:1058200014D010F8044B491E04F0010442EA84022B
:105830000CD010F8044B491E04F0010442EA440263
:1058400004D010F8044B04F00104224303F8012BA8
:105850000029C0D1B0E710F8042B9207120E491EA0
:1058600015D010F8044B491E04F0030442EA041258
:105870000DD010F8044B491E04F0030442EA8402E0
:1058800005D010F8044B04F003042243491E03F82A
:10589000012B0029DFD18FE7FFE710F8042B120757
:1058A000120E491E05D010F8044B04F00F042243D9
:1058B000491E03F8012B0029EFD17DE738B50024FC
:1058C000009400F01DF838BD0B4810B5416B00295D
:1058D00010D101214163FFF7D5FEFDF719FF01F05B
:1058E000AFFB0549054838310860BDE8104008465F
:1058F00000F02CBC10BD000000020020013A01089D
:105900002DE9F0410D460699044601B901461F688C
:10591000082A09DC0E46012A1AD0022A5BD0042A82
:105920007DD0082A13D18DE0102A07DCD3F810C0EF
:105930000E46BCF1000F04D0022389E00020BDE830
:10594000F08101CCB84726F8020B6D1EF9D189E031
:1059500001CCB847C0074FEA10686D1E36D001CCA5
:10596000B84748EA801000F0FF086D1E2ED001CC29
:10597000B84748EA401000F0FF086D1E26D001CC61
:10598000B84748EA001000F0FF086D1E1ED001CC99
:10599000B84748EAC00000F0FF086D1E16D001CCE1
:1059A000B84748EA800000F0FF086D1E0ED001CC19
:1059B000B84748EA400000F0FF086D1E06D001CC51
:1059C000B84740EA080000F0FF086D1E06F8018B9A
:1059D000002DBDD146E001CCB84780074FEA1068E2
:1059E0006D1E16D001CCB84748EA001000F0FF0841
:1059F0006D1E0ED001CCB84748EA800000F0FF08C9
:105A00006D1E06D001CCB84740EA080000F0FF0840
:105A10006D1E06F8018B002DDDD123E0FFE701CCE0
:105A2000B84700074FEA10686D1E06D001CCB84792
:105A300040EA080000F0FF086D1E06F8018B002DFB
:105A4000EDD10FE0D3F810C0BCF1000F04D001235A
:105A50002A462046E04705E001CCB84706F8010B8E
:105A60006D1EF9D101206AE72DE9FF4F8DB00020AE
:105A7000DDF86CA0164600901D4604460246CAF8A2
:105A8000000008AB03A902A800F0E4F918B1002057
:105A900011B0BDE8F08F0898854200DD0546624FE1
:105AA0000B9562493868407C51F8201004910969CF
:105AB0000691FEF7C9FB05903868407CFEF706FCAE
:105AC0005B498146884204D05A49894501D001206A
:105AD00000E000200A9001CE1A9988478346000E04
